:100000000C94A8040C94C5040C94C5040C94C50469
:100010000C94C5040C94C5040C94C5040C94C5043C
:100020000C94C5040C94C5040C94C9250C949B260F
:100030000C94A9200C94C5040C94C5040C94C5041C
:100040000C94C5040C94C5040C94C5040C94C5040C
:100050000C94C5040C9432210C94C5040C94C50472
:100060000C94C5040C94C5040C94C5040C94C504EC
:100070000C94C5040C94C5040C94C5040C94C504DC
:100080000C94C5040C94C5040C94C5040C94C504CC
:100090000C94C5040C94C5040C94C5040C94C504BC
:1000A0000C94C5040C94C5040C94C5046808680835
:1000B00094089408FC081A09370A370A2509BE096A
:1000C000CF09CF0903272A2722282A272228762783
:1000D00099272228F027FF27208E8F9000CACBCCAB
:1000E000CD00AAABACADAE008A8B8C8D0020202059
:1000F0002000534352200020202020004341502064
:100100000020202020004E554D200000556E6465D3
:100110006600464E203300464E203200464E2031C7
:100120000042617365004C617965720014001A0029
:100130000800150017001C00180004001600070036
:1001400009000A000B000D001D611B640668190000
:100150002A412C420543A800610060005F001300A3
:1001600012000C0062005E005D005C0029000F00C0
:100170000E002D005B005A00590028721071117496
:10018000010001000100005C0100010046000100C7
:100190000100010001000100010001000100010057
:1001A0000100010001002B00E300530026002500A0
:1001B0002400310030002F002700230022002100FE
:1001C0003400330035002E0020001F001E003800D0
:1001D00037003600010001000100010001000100AC
:1001E0000100010001000100010001000100010007
:1001F00001000100010001004C0001000100390074
:10020000260225022402310230022F022702230295
:10021000220221023402330235022E0220021F0282
:100220001E023802370236023A003B003C003D0015
:100230003E003F00400001000100010001000100FC
:1002400001000100010001000100010001000100A6
:10025000010001000100450044004300420041004C
:100260000100010001000100010001000100010086
:1002700001000100010001000100010000AE00AF1B
:1002800000DA0281FFD9F1DB20A4A62EAF00A0C0C6
:1002900000A1C800AED580A81FD300408D14200057
:1002A0000000000000003E5B4F5B3E003E6B4F6B6A
:1002B0003E001C3E7C3E1C00183C7E3C18001C5737
:1002C0007D571C001C5E7F5E1C0000183C1800005F
:1002D000FFE7C3E7FF00001824180000FFE7DBE793
:1002E000FF0030483A060E00262979292600407F73
:1002F00005050700407F05253F005A3CE73C5A00B2
:100300007F3E1C1C0800081C1C3E7F0014227F221C
:1003100014005F5F005F5F0006097F017F000066D9
:1003200089956A0060606060600094A2FFA29400FA
:1003300008047E04080010207E20100008082A1CF3
:100340000800081C2A0808001E10101010000C1EBF
:100350000C1E0C0030383E383000060E3E0E0600F3
:1003600000000000000000005F0000000007000720
:100370000000147F147F1400242A7F2A1200231304
:100380000864620036495620500000080703000048
:10039000001C224100000041221C00002A1C7F1C7E
:1003A0002A0008083E080800008070300000080895
:1003B0000808080000006060000020100804020027
:1003C0003E5149453E0000427F4000007249494984
:1003D00046002141494D33001814127F1000274573
:1003E000454539003C4A494931004121110907007E
:1003F000364949493600464949291E000000140083
:1004000000000040340000000008142241001414D1
:1004100014141400004122140800020159090600B6
:100420003E415D594E007C1211127C007F494949C2
:1004300036003E41414122007F4141413E007F491B
:10044000494941007F09090901003E4141517300BA
:100450007F0808087F0000417F4100002040413FA5
:1004600001007F08142241007F40404040007F028D
:100470001C027F007F0408107F003E4141413E0086
:100480007F09090906003E4151215E007F091929B3
:10049000460026494949320003017F0103003F40DD
:1004A00040403F001F2040201F003F4038403F0099
:1004B0006314081463000304780403006159494D70
:1004C0004300007F41414100020408102000004128
:1004D00041417F00040201020400404040404000CE
:1004E0000003070800002054547840007F2844444B
:1004F0003800384444442800384444287E003854A6
:100500005454180000087E0902001824241C7800A6
:100510007F080404780000447D4000002040403DF6
:1005200000007F102844000000417F4000007C0450
:10053000780478007C080404780038444444380087
:100540007C1824241800182424187C007C08040437
:10055000080048545454240004043F4424003C4000
:1005600040207C001C2040201C003C4030403C00CF
:100570004428102844004C9090907C004464544CD3
:1005800044000008364100000000770000000041F0
:10059000360800000201020402003C2623263C002B
:1005A000000000E0FEFFFEF8C00000000000E0FCDC
:1005B000FFFEF0C00000000000000000013EE080EF
:1005C000700E0100000000073CE08078070000008A
:1005D000000000000000000000000000000000E03B
:1005E000FEFFFEF8C00000000000E0FCFFFEF0008F
:1005F00000000000013EE080700E010000000007D6
:100600003CE08078070000000000000000000000CF
:1006100000000000000000000000000000000000DA
:1006200000000000000000000000000000000000CA
:1006300000000000000000000000000000000000BA
:1006400000000000000000000000000000000000AA
:10065000000000000000000000000000000000009A
:100660000000F8FFFF1F071FFFFEF0C0F8FFF707AD
:10067000077FFFFFF800C0380C186080000000F012
:100680000C04F41C00000000000080C0FCE6C3C1A4
:10069000C1C3E6FCC0800000000000000000F8FFBD
:1006A000F707071FFFFEF0C0F83F8F0F3FFFFFFE69
:1006B00080F00C04F41C00000000000000000000AA
:1006C000000000000000000000000000000000002A
:1006D000000000000000000000000000000000001A
:1006E000000000000000000000000000000000000A
:1006F00000000000000000000000000000000000FA
:1007000000000000000000000000000000000000E9
:1007100000000000000000000000000000000000D9
:10072000001F1F1F0700000000031F1F0F0103060B
:10073000F800077F3F0EC138070E70831C601E0350
:10074000C03E01000000000000003F7FFFFFF9C035
:10075000C0F9FFFF7F3F000000000000001F1F1FC7
:100760000706F80000733F0FC138070F7083077F3B
:100770001F03C03E01000000000000000000000058
:100780000000000000000000000000000000000069
:100790000000000000000000000000000000000059
:1007A0000000000000000000000000000000000049
:1007B0000000000000000000000000000000000039
:1007C0000000000000000000000000000000000029
:1007D0000000000000000000000000000000000019
:1007E00012034200440045002000520065007600DC
:1007F0003200000012034D006500630068005700DE
:1008000069006C00640000000403090409023B0055
:10081000020100A0FA0904000001030101000921FE
:1008200011010001224000070581030800010904AD
:100830000100010300000009211101000122B6009E
:100840000705820320000112010002000000087762
:100850006D0A1701010102000105010902A10185CC
:10086000020901A1000509190129081500250195B2
:1008700008750181020501093009311581257F952F
:10088000027508810609381581257F950175088153
:1008900006050C0A38021581257F95017508810629
:1008A000C0C005010980A101850319012AB70015FF
:1008B0000126B700950175108100C0050C0901A142
:1008C00001850419012AA002150126A002950175CF
:1008D000108100C005010906A1018506050719E080
:1008E00029E7150025019508750181020507190002
:1008F00029EF1500250195F0750181020508190100
:100900002905950575019102950175039101C005B1
:10091000010906A101050719E029E7150025019540
:1009200008750181029501750881010507190029E3
:10093000FF150026FF0095067508810005081901BE
:100940002905950575019102950175039101C00076
:1009500011241FBECFEFDAE0DEBFCDBF11E0A0E073
:10096000B1E0E6E3F2E502C005900D92A63AB107C8
:10097000D9F724E0A6EAB1E001C01D92A63FB20774
:10098000E1F70E940D160C9419290C9400001F9396
:10099000CF93DF93182FD62F0E94B81CC82F88231F
:1009A00049F0111107C0DD2311F089EA01C08AEA7C
:1009B0000E9417088C2FDF91CF911F91089583E03B
:1009C0000895CF9360E080E00E94151960E088EE02
:1009D00090E00E94F41961E080E00E94151960E047
:1009E00082EE90E00E94F41962E080E00E94151906
:1009F00060E08DED90E00E94F41963E080E00E94D9
:100A0000151960E088ED90E00E94F41966E080E03E
:100A10000E94151960E086E291E00E94061A60913A
:100A2000C8017091C9018091CA019091CB010E94C7
:100A30002D06813069F040F0823071F0833081F40E
:100A400060E082E191E00FC060E081E291E00BC0E4
:100A500060E08CE191E007C060E087E191E003C0D5
:100A600060E08CE091E00E94061A60E08BE091E08B
:100A70000E94061A0E94391FC82F80FD03C081E022
:100A800091E002C086E091E060E00E94061AC1FD9C
:100A900003C087EF90E002C08CEF90E060E00E941E
:100AA000061AC2FD03C08DEE90E002C082EF90E016
:100AB00060E00E94061A80E0CF91089581E00895D9
:100AC00081E008950E946005089508950E946505DB
:100AD0000895A5E0B0E0EFE6F5E00C94992849838D
:100AE0005A833091A90189819A81311114C06623FA
:100AF00059F0222349F00E94910C182F682F898108
:100B00009A810E946D0C03C00E947F0C182F69818E
:100B10007A81812F04C00E94910C69817A810E94A0
:100B20008F132596E3E00C94B528FC01262F408115
:100B300051816281738184810E946905089581E0F9
:100B40000895CF93DF93EC0160E00E949505BE010C
:100B50000E946605DF91CF9108950E94DF140895E9
:100B60000E94D914089508950E94BA0A0E94B305FC
:100B70002FEF84E39CE0215080409040E1F700C0DB
:100B8000000008950E94B4050E94582108950E9413
:100B9000B4050E94692108950F931F93CF93DF93AB
:100BA0008C0161E00E949505EC01B8010E9462058C
:100BB000882309F440C0B801CE010E94D91D8823C2
:100BC000D1F1B801CE010E94691B8823A1F1B801BF
:100BD000CE010E943F1D882371F1F8018281882394
:100BE00031F1CB358DE5D807E9F050F4C115FCE5BE
:100BF000DF0779F0CF3DDC45D1F40E9493110CC0A2
:100C0000CD35EDE5DE0759F080F0C83ADD4521F03D
:100C10000EC00E94C2050FC00E94C7050CC00E94F2
:100C2000CA1005C00E94D41002C00E94D810C8018A
:100C30000E945E0501C080E0DF91CF911F910F916E
:100C400008950E9482200E9490060E94201B089511
:100C50000E9494060E948B200895CF92DF92EF921B
:100C6000FF926C01EE24FF24C114D104E104F104CD
:100C700021F0C701B60120E101C020E0C72ED82E27
:100C8000E92EFF24C114D104E104F10419F0285F16
:100C9000C701B6016B017C0154E0F694E794D79448
:100CA000C7945A95D1F7C114D104E104F10419F0A5
:100CB0002C5FC701B6016B017C0142E0F694E7941A
:100CC000D794C7944A95D1F7C114D104E104F10433
:100CD00019F02E5FC701B601DC01CB01B695A795CF
:100CE00097958795892B8A2B8B2B09F02F5F822F65
:100CF000FF90EF90DF90CF90089508950E947D06B9
:100D0000089581E008950E94810608950895CF9383
:100D1000C82F0E947E068C2F0E948306CF910895D3
:100D200080E00E94870608950E942C1F0E9487067B
:100D300008950E942C1F9091A801891721F080939B
:100D4000A8010E9487060895ABE0B0E0EAEAF6E069
:100D50000C949A284F83588769877A878B8761110B
:100D60000E9412109E012F5F3F4F86E0F901119201
:100D70008A95E9F785E0FE013796D90101900D9239
:100D80008A95E1F789819A814C815D81452B31F00B
:100D90009F3F31F491E08F3F19F403C091E001C00F
:100DA00090E090FF09C049815A816B817C818D81DF
:100DB0009E810E943E0F05C0C9010E949F058111BE
:100DC000F2CF2B96E2E00C94B628FC018081918151
:100DD0000E94CB0C0895CF93882309F4A3C0C82F99
:100DE0008238C1F40E942C1F81FD9CC069E3809170
:100DF0000001909101010E9426200E9436102FEFE1
:100E000081EE94E0215080409040E1F700C0000066
:100E100069E319C0833801F50E942C1F80FD82C050
:100E200063E580910001909101010E9426200E94BB
:100E300036102FEF81EE94E0215080409040E1F792
:100E400000C0000063E580910001909101010E94C3
:100E500034200E94361066C08438C1F40E942C1FD2
:100E600082FD60C067E480910001909101010E94C1
:100E700026200E9436102FEF81EE94E02150804012
:100E80009040E1F700C0000067E4DDCF8CEF8C0FED
:100E9000813AD0F46C2F80910001909101010E9461
:100EA000A61F882349F06C2F8091000190910101C9
:100EB0000E9434200E9436106C2F80910001909186
:100EC00001010E942620C5CF80E28C0F883048F4B3
:100ED000C77081E001C0880FCA95EAF70E94F50F3C
:100EE000B8CFEBE5EC0FE33040F4F0E0E45BFE4F0D
:100EF000808190E00E94641F15C0E8E5EC0FE731A7
:100F000050F4F0E0EE0FFF1FE25EFE4F8081918112
:100F10000E947A1F07C0CD3E28F08C2F0E949216A7
:100F20000E946417CF910895882309F467C082381E
:100F300079F40E942C1F81FF61C069E38091000158
:100F4000909101010E9426200E94361069E310C092
:100F50008338B9F40E942C1F80FF50C063E5809154
:100F60000001909101010E9426200E94361063E545
:100F700080910001909101010E9434200E9436105E
:100F80000895843879F40E942C1F82FF37C067E4EB
:100F900080910001909101010E9426200E9436104C
:100FA00067E4E6CF9CEF980F913A10F4682FE0CFFA
:100FB00090E2980F983050F4877091E001C0990F3B
:100FC0008A95EAF7892F0E94FB0FD8CF9BE5980FEF
:100FD000933028F480E090E00E94641F089598E523
:100FE000980F973128F480E090E00E947A1F0895CE
:100FF0008D3E20F00E94ED160E94641708951F9305
:10100000CF93DF93182FEB010E94EB06209741F05E
:101010008FE99FE00197F1F700C000002197F6CF1C
:10102000812F0E949407DF91CF911F9108958933FA
:1010300019F06AE070E002C060E570E00E94FF070E
:101040000895882321F00E94F50F0E94361008951C
:10105000882321F00E94FB0F0E9436100895A0E023
:10106000B0E0E5E3F8E00C9494287C01D62FC72F7C
:10107000FC011281058102950F700E94EB0F8823FD
:10108000B9F01123A9F08C2F807F803421F080E209
:101090008D0F883068F08091D20282FF09C082E013
:1010A0000E9498100E94EB0F91E0D82ED92601C023
:1010B000D12CCC2EC2948FE0C8228C2D90E08C30A5
:1010C000910508F0D4C1FC01EA5AFF4F0C94842822
:1010D0008C2F807FCF70882311F0C295C07F1123A1
:1010E00099F0CC2309F4AAC180E28D0F883010F06A
:1010F000D11104C08C2F0E94F50F03C08C2F0E94C9
:1011000005100E9436109AC18D2F0E949407CC239F
:1011100009F4ADC180E28D0F883038F1DD2329F16B
:101120008C2F0E940B1024C08C2F807FCF708032B8
:1011300011F0C295C07FDD2319F0D130A1F13DC07F
:101140008091D20282FD17C0112349F0CC2329F0EF
:101150008C2F0E94F50F0E94361080E070C180E055
:101160000E949407CC2309F482C18C2F0E94FB0FAC
:101170000E9436107CC1112371F0002341F0013030
:1011800031F40E9415108C2B0E941F1070C10E9418
:1011900015108C2B1DC0002319F0013009F467C114
:1011A0000E942C1025C0112321F0063008F05FC1E9
:1011B0000EC0053008F05BC11BC0112361F0002395
:1011C00031F0F701858180FF39C18F7085838C2FC5
:1011D0000E9421084CC1002359F0D93309F03EC1C7
:1011E000FFEF07EE13E0F15000401040E1F73AC185
:1011F0008C2F0E9428083BC18C2F86958695837082
:1012000019F0813061F033C1112321F08D2F9C2F13
:10121000937002C080E090E00E94641F30C11123EF
:1012200021F08D2F9C2F937002C080E090E00E94EF
:101230007A1F25C18D2F112319F00E94921602C02A
:101240000E94ED160E9464171AC18C2F837009F05A
:1012500047C0111110C12D2F229526952770220FFE
:10126000220F6D2F6F70862F90E0A0E0B0E0022E6D
:1012700004C0880F991FAA1FBB1F0A94D2F7D4FF7E
:1012800010C04FE050E060E070E004C0440F551F14
:10129000661F771F2A95D2F74095509560957095F7
:1012A00003C040E050E0BA01C695C695C3708A01FC
:1012B0009B01082B192B2A2B3B2BC901B801C230EB
:1012C00049F058F4C13019F00E94210BD4C00E949B
:1012D0000E0BD1C00E94340BCEC00E940B0BCBC0B2
:1012E000112319F08C2F817001C08695882309F491
:1012F000C2C02D2F229526952770220F220F6D2F09
:101300006F70862F90E0A0E0B0E0022E04C0880F3E
:10131000991FAA1FBB1F0A94D2F7D4FF10C04FE039
:1013200050E060E070E004C0440F551F661F771F57
:101330002A95D2F7409550956095709503C040E08E
:1013400050E0BA01C695C695C3708A019B01082B6F
:10135000192B2A2B3B2BC901B801C23049F058F494
:10136000C13019F00E94F00B86C00E94DD0B83C0D3
:101370000E94030C80C00E944A0B7DC0CF701123D5
:1013800039F08C2F0E94730B8D2F0E94210873C09F
:101390008D2F0E9428088C2F0E94950B6CC0D23F85
:1013A00021F128F4D03F41F0D13FC1F043C0D33FF9
:1013B00019F1D43F79F03EC0112341F0053008F017
:1013C00056C08C2F8F710E94BB0B51C0063008F0A5
:1013D0004EC0F7CF8091D20282FD18C0112339F0A0
:1013E0008C2F8F710E94730B42C01123C9F38C2F75
:1013F0008F710E94950B3BC0112329F08C2F8F71A8
:101400000E945D0B34C00E94570B31C0112349F07C
:10141000CF718C2F0E94730B63E08C2F0E947A1087
:1014200026C081E00E949810023008F182E00E94FC
:1014300098101DC0112331F0002391F28D2F0E94CE
:10144000EB0615C0002399F2D93341F41FEF27EEC4
:1014500033E0115020403040E1F704C08FE39CE9B5
:101460000197F1F700C000008D2F0E94940788EFCC
:101470008C0D843020F40E942C1F0E948706DD20F2
:1014800089F00E94E70F80FD0DC0F70112820E94D3
:10149000E10F0E94730BC7010E946F0A0E94E10FC7
:1014A0000E94950BCDB7DEB7E8E00C94B0280F93FF
:1014B0001F93CF93DF93EC01688179818A810E9429
:1014C000D60C8C010E94160C0E94F60AB801CE01BF
:1014D0000E942F08DF91CF911F910F910895CF9314
:1014E000DF93EC01988189812B813C81232B31F0A2
:1014F0008F3F31F481E09F3F19F403C081E001C0C8
:1015000080E080FD1AC0CE010E94CC0581110FC081
:101510000E94EB0F882389F08A81882371F08091E3
:10152000D20282FF0AC082E00E94981006C0CE015B
:101530000E94570ACE010E94A105DF91CF91089524
:1015400080E090E00E94641F80E090E00E947A1F9B
:101550000E9412100E9436100E947D180E9464178B
:10156000089580910001909101010E9442200E9403
:10157000A00A08950E9402100E94B10A089592954F
:101580009F70963079F010F4925001C09A509230CA
:1015900068F4803F69F018F4883E40F409C0843F45
:1015A00029F406C0883E20F0813F11F080E00895C4
:1015B00081E00895FC01808191810E94CB0C0E9402
:1015C000BF0A0895A5E0B0E0E8EEFAE00C949A288E
:1015D0002596E2E00C94B628A6E0B0E0E2EFFAE04F
:1015E0000C949A282696E2E00C94B6280895089563
:1015F0000E94F70A08950E94F80A08950E94FB0AC3
:101600006093CC017093CD018093CE019093CF0174
:101610000E94A00A08950E94FE0A08950F931F9346
:101620000091CC011091CD012091CE013091CF01DC
:10163000602B712B822B932B0E94FE0A1F910F911E
:1016400008950F931F930091CC011091CD0120912B
:10165000CE013091CF0160237123822393230E9416
:10166000FE0A1F910F9108950F931F930091CC01D3
:101670001091CD012091CE013091CF0160277127CB
:10168000822793270E94FE0A1F910F9108950E94BE
:10169000F70A08950E94470B6093C8017093C9012F
:1016A0008093CA019093CB010E94A00A089560E044
:1016B00070E0CB010E944A0B08950F931F9341E005
:1016C00050E060E070E08A019B0104C0000F111F30
:1016D000221F331F8A95D2F7C901B8010E944A0B15
:1016E0001F910F9108950F931F9341E050E060E028
:1016F00070E004C0440F551F661F771F8A95D2F70C
:101700008091C8019091C901A091CA01B091CB010B
:101710008A019B01082B192B2A2B3B2BC901B801ED
:101720000E944A0B1F910F9108950F931F9341E060
:1017300050E060E070E004C0440F551F661F771F43
:101740008A95D2F740955095609570958091C80123
:101750009091C901A091CA01B091CB018A019B016E
:10176000082319232A233B23C901B8010E944A0BED
:101770001F910F9108950F931F9341E050E060E097
:1017800070E004C0440F551F661F771F8A95D2F77B
:101790008091C8019091C901A091CA01B091CB017B
:1017A0008A019B01082719272A273B27C901B8016D
:1017B0000E944A0B1F910F9108950F931F93009160
:1017C000C8011091C9012091CA013091CB01602B51
:1017D000712B822B932B0E944A0B1F910F9108951E
:1017E0000F931F930091C8011091C9012091CA0164
:1017F0003091CB0160237123822393230E944A0BF3
:101800001F910F9108950F931F930091C80110919C
:10181000C9012091CA013091CB016027712782272D
:1018200093270E944A0B1F910F9108950895962FB8
:101830009770A1E001C0AA0F9A95EAF793E0769518
:1018400067959A95E1F795E0969F9001979F300DE7
:101850001124FA01E20FF31F40E050E0682F70E01E
:1018600090819B01042E02C0369527950A94E2F7D9
:101870002170219529272A23292721934F5F5F4F24
:101880004530510569F70895FB01782F777023E003
:10189000969587952A95E1F745E0489F9001499FE5
:1018A000300D1124E20FF31F40E050E080E0219161
:1018B00030E0072E02C0369527950A94E2F7217092
:1018C0003327042E01C0220F0A94EAF7822B4F5FC0
:1018D0005F4F4530510559F70895282F963070F421
:1018E000873060F4862F622F70E027E0929F600DB2
:1018F000711D11244AEA51E00E94170C0895963098
:1019000070F4873060F4292F90E06AEA71E037E0E4
:10191000239F800D911D11240E94440C089580E0A6
:101920000895A0E0B0E0E7E9FCE00C9493288C0176
:10193000C090C801D090C901E090CA01F090CB01DD
:101940008091CC019091CD01A091CE01B091CF01B9
:10195000C82AD92AEA2AFB2ACFE1D0E0D701C6015A
:101960000C2E04C0B695A795979587950A94D2F743
:1019700080FD04C0219790F7B12C07C0BC2EB801A0
:101980008C2F0E94A8130197A9F38B2DCDB7DEB73A
:10199000E9E00C94AF28CF93DF93EC010E94910C07
:1019A000BE010E94A813DF91CF9108951F93CF939A
:1019B000DF93EB019091A901992321F0CB010E94C3
:1019C000CB0C13C0882349F0CB010E94910C182F37
:1019D000682FCE010E946D0C04C0CB010E947F0CC9
:1019E000182FBE01812F0E94A813DF91CF911F9164
:1019F00008951F93CF93DF93C091D00116E080919B
:101A0000D101C81799F0D0E01C9FF0011D9FF00D87
:101A10001124EE52FE4F4081518162817381848195
:101A200095810E94EC0A2196C770E9CFDF91CF9192
:101A30001F910895409102025091030260910402A7
:101A40007091050280910602909107020E94EC0AB3
:101A500008950F931F93CF93DF9380910702829590
:101A60008F7009F05AC080910402882309F455C090
:101A70008091D0011091D101609102027091030216
:101A8000C0910502D091060291E06F3F09F090E00D
:101A9000292F06E0811709F440C0209721F07F3FED
:101AA00021F030E003C031E001C0322F90E030FD82
:101AB00031C0089FF001099FF00D1124DF01AE52E3
:101AC000BE4F11963C911197371324C03C913613A9
:101AD00021C012963C91129731111CC013964D9162
:101AE0005C9114974C1B5D0B483C510598F4809118
:101AF00007028F70806180930702E952FE4F808158
:101B00008F708061808382E092E00E946F0A0E9461
:101B1000F90C03C001968770BDCFDF91CF911F9163
:101B20000F910895A1E1B0E0E8E9FDE00C9491285F
:101B30008C0185E0F801DE011D9601900D928A95D9
:101B4000E1F7F801E2809091020260910302209196
:101B50000502309106022115310531F06F3F31F455
:101B600081E09F3F19F403C081E001C080E0F82FBD
:101B7000F1709F2E80FD40C1F80140815181A3800A
:101B8000B48082E0C82E82E0D82EF0900402F501E5
:101B9000E21BF30BFF2009F4DAC080910702E83C56
:101BA000F10508F096C0282F207F09F053C0561386
:101BB00013C0491311C0FE2CE1100EC08F7080615C
:101BC000809307020E941A0DC6010E946F0A80913D
:101BD0000702F80185834DC1A114B10431F05F3FC4
:101BE00031F481E04F3F19F403C081E001C080E08F
:101BF00080FD03C081E08E2502C080E090E0F82FD8
:101C0000F170FF2E80FF1CC08091D0012091D10186
:101C100036E0821709F40BC190E0389FF001399F3C
:101C2000F00D1124EE52FE4F6181561306C0608103
:101C3000461303C06281E61203C001968770E9CFA4
:101C4000FE2CEE2009F415C180910702816080937B
:101C5000070254C0561306C0491304C0E11002C065
:101C6000F80199C0C8010E94DA0A882361F1EE20C8
:101C700051F120910702822F82958F7090E0029798
:101C800074F0809102029091030298878F831986E5
:101C9000BB86AA862C87CE0107960E946F0A86E033
:101CA000F801A2E0B2E001900D928A95E1F70E945E
:101CB000290D0E941A0D0AC0561711F1C8010E9481
:101CC000DA0A81112CC0C8010E946F0AFF24F39424
:101CD000D0C0282F207F81F77A2DB98AA88A6E2D4F
:101CE00089890E94E20A82E092E00E946F0A86E0FF
:101CF000F60111928A95E9F70E941A0DF12CB9C0EC
:101D00004913DCCFE110DACFF8018583C8010E94C6
:101D10006F0A86E0F60111928A95E9F7AAC0EE20D3
:101D200091F220910702822F82958F7090E00297A6
:101D30000CF4B5CF80910202909103029A838983BB
:101D40001B82BD82AC822E83CE010196A6CFE83CD9
:101D5000F10508F044C0FE2CEE2009F4B4CF561370
:101D600030C049132EC02091070220FD21C0822FD0
:101D700082958F70482F50E041155105C9F0F80148
:101D800025834F30510541F08F5F982F9295907FBA
:101D9000822F8F70892B8583C8010E946F0A86E08D
:101DA000F801A2E0B2E001900D928A95E1F73CC003
:101DB00086E0F801A2E0B2E001900D928A95E1F789
:101DC00058C0C8010E94DA0A811169CF80910702C8
:101DD000816080930702C8010E946F0A4AC07A2D71
:101DE000B98AA88A6E2D89890E94E20A86E0F601E6
:101DF00011928A95E9F718C0EE2009F464CFC80162
:101E00000E94DA0AF82E882309F45DCF86E0F801F3
:101E1000A2E0B2E001900D928A95E1F782E092E0B3
:101E20000E94E5060E94290D0E941A0D22C04D87CE
:101E30005E878D859E850E94CB0C292F22952F7061
:101E4000223028F49F7039F0811105C00BC0243076
:101E500028F49F7049F4805E883020F0C8010E9409
:101E60006F0A9F2CF92C05C0F8019581907F99F796
:101E7000F9CF8F2D6196EBE00C94AD28ACE0B0E08B
:101E8000E4E4FFE00C9499284F83588769877A87A8
:101E90008B879C87CE0107960E94920D8823D1F0F4
:101EA0009F8188852A853B85232B31F08F3F31F434
:101EB00081E09F3F19F403C081E001C080E080FD14
:101EC00047C04F81588569857A858B859C850E949E
:101ED000EC0A3EC086E0FE013796DE0111960190C5
:101EE0000D928A95E1F7FF81E8856A857B8561150A
:101EF000710531F0EF3F31F481E0FF3F19F403C089
:101F000081E001C080E080FD23C02091D10130E05C
:101F1000C9010196877099274091D00150E084173C
:101F20009507F1F1F983EA837D836C8396E0929FB4
:101F3000D001939FB00D1124AE52BE4FFE013196D9
:101F400001900D929A95E1F78093D1010E94F90CCE
:101F500016E08091D0019091D101891771F1189FFD
:101F6000C00111248E529E4F0E94920D882329F1A8
:101F7000E091D0011E9FF0011124EE52FE4F4081EE
:101F8000518162817381848195810E94EC0A8091E4
:101F9000D00190E00196877099278093D001D9CF26
:101FA0000E94BA0A1092D1011092D001E2E0F2E050
:101FB00086E0DF011D928A95E9F72C96E3E00C9408
:101FC000B5288091280285958595859508958091FD
:101FD00028028770089590912802977081E009F493
:101FE00080E0089580914B02089590914B02892BD7
:101FF00080934B020895809590914B0289238093A2
:102000004B02089510924B02089590914A02892B39
:1020100080934A020895809590914A028923809383
:102020004A02089510924A02089580912902089563
:1020300008950E94181008950E9419100895909113
:10204000D20292FF08C090912902981721F0809344
:1020500029020E941C10089580912902882329F0EA
:102060001092290280E00E941C100895CF93DF9304
:10207000E0910001F091010180914B028083E09199
:102080000001F0910101908180914A02892B8083A7
:1020900080912902882381F0E0910001F0910101F3
:1020A0009081892B808380910001909101010E9491
:1020B000901F81110E942C10C0910001D09101014C
:1020C00040E250E068E072E0CE010E94CA28892B0D
:1020D00059F080E2FE01A8E0B2E001900D928A95ED
:1020E000E1F7CE010E943C1FDF91CF9108950E943D
:1020F000181008959091D20292FF11C098E0899F24
:1021000090011124262B209328020E94730B8091AA
:1021100028028595859585950E94771008950E94DF
:10212000730B08951092280280E00E9477100895A2
:10213000209128028095822380932802982F9770FF
:1021400099F430E0482F082E000C550B2417350762
:1021500059F09091D20292FF07C08595859585959B
:102160000E94950B0E94921008959091D20292FBCA
:10217000222720F9281769F080FB92F99093D20268
:102180008091D1029091D2020E94091182E00E94B6
:10219000981008958091D20282FB882780F991E0FF
:1021A00089270E94B510089581E00E94B510089516
:1021B00080E00E94B51008956FEF7FEF80E090E01F
:1021C0000E940329089580E090E00E94DF2821E02A
:1021D000883E9E4F09F020E0822F089582E090E033
:1021E0000E94D728089583E090E00E94D7280895A0
:1021F000CF9384E090E00E94D728C82F82E290E03D
:102200000E94D7282C2F30E0A901582BCA01CF916A
:102210000895CF93C92F682F84E090E00E94E528AD
:102220006C2F82E290E00E94E528CF910895AB01E7
:10223000BC018FE090E00E94F7280895AB01BC013B
:1022400083E190E00E94F728089560E070E0CB0100
:102250000E941E11089560E070E0CB010E941711EA
:102260000E942511089568EE7EEF80E090E00E94C4
:10227000032960E082E090E00E94E52860E083E0CE
:1022800090E00E94E5281092CC011092CD011092AE
:10229000CE011092CF0160E084E090E00E94E5283A
:1022A00064E082E290E00E94E52860E085E090E052
:1022B0000E94E52860E086E090E00E94E5286FEF4C
:1022C00087E090E00E94E52840E050E0BA0188E015
:1022D00090E00E94F72860E08DE090E00E94E52801
:1022E00040E050E0BA0188E190E00E94F72860E009
:1022F00087E190E00E94E52840E050E0BA018CE1DF
:1023000090E00E94F72860E070E080E290E00E9498
:10231000032940E050E0BA0188E190E00E94F728EC
:102320000E942B1108950E9433110895682F8EE0AA
:1023300090E00E94E52808950E94172160935A02B8
:1023400070935B0280935C0290935D0260935602EF
:1023500070935702809358029093590208950E94F7
:10236000172160935A0270935B0280935C029093F2
:102370005D026093520270935302809354029093D3
:102380005502089581E008950E94C21108950895AC
:102390000E94C71108950E94C71108950E94CB1191
:1023A00008950E94C71108950E94D11108950E94B6
:1023B000C711089584E894E10E94221F0E94D7115A
:1023C0000E94D41108950E94C8110E94C711089557
:1023D0000E94A0140E94860608950E9402210E9475
:1023E00077150E94E81180E00E94CB180E94BA1C69
:1023F0000E94CE110895AAE0B0E0E1E0F2E10C9471
:1024000090280E948D15982E81110E949C118CE4B9
:10241000A82E82E0B82E00E010E0802E802F0E94CF
:10242000C514D82EF501C1905F01C826B1F40F5F25
:102430001F4F0630110589F78FEF89838A831B822E
:102440000E940B218160782F9D838C8349815A8162
:102450006B818D810E94A4062FC080915E0281FD58
:102460000E94CB14E12CFF24F3948C2D8F21F1F0EA
:102470000E94C411882399F0EE828F82DF2081E0D0
:1024800009F480E088870E940B218160782F9A8769
:1024900089874E815F8168858A850E94A406F8013C
:1024A000E45BFD4F8081F826F08206C0E394FF0CC8
:1024B000F7E0EF12DACFBBCF81E0911001C080E0EE
:1024C0002A96ECE00C94AC28CF93DF930E94FB118A
:1024D000D82F0E94D81CC82F81110E94AF110E94D2
:1024E0003D1BD11101C0C1110E940C1A0E9483171B
:1024F0000E949906DF91CF910895CF93DF930E94B8
:10250000AD13EC01811521E5920708F045C0811556
:1025100030E5930708F094C0883E910528F5803E89
:10252000910508F0F8C0883A910570F4853A910554
:1025300008F07CC08130910509F475C008F4E8C04A
:10254000049708F0E8C0E4C08F3B910508F0E0C0B4
:10255000C85AD0E0CC0FDD1FC15BDE4F0990D88197
:10256000C02DCE019464D8C0811540E2940758F480
:10257000811551E0950708F0CEC08D3E910508F415
:10258000C7C09065C9C0C11580E4D80708F4C0C0B1
:10259000DF70CE01906AC0C0811525E59207A8F4CE
:1025A000811534E5930708F095C0811543E594073C
:1025B00008F07BC0811552E5950708F061C0D82F5F
:1025C000CC27CE01816F906AA7C0C11589E5D807D5
:1025D000A0F4C11528E5D20708F082C0C11536E580
:1025E000D30708F095C08C2F0E9441148F7190E0A2
:1025F000D82FCC27CE0190628FC0C1154AE5D407F1
:1026000008F474C0CE0190568115904208F080C045
:102610008D2F8F710E944114DD27D0628F71AE0122
:10262000582BCA0179C081E090E076C0C55AD0E04D
:10263000C358DE4F8881C82FD0E0CE0190646CC0B3
:1026400074E0969587957A95E1F7282F23703C2FB3
:10265000337081E090E002C0880F991F3A95E2F74D
:102660009C68AC01522B9A019C2F9F709695969571
:1026700050E2959FE0011124C9018C2B9D2B4CC089
:102680008370992721E030E002C0220F331F8A9522
:10269000E2F79C2F9695969580E2989FE001112491
:1026A000C22BD32BCE019C6837C08370992721E0C1
:1026B00030E002C0220F331F8A95E2F79C2F9695D7
:1026C000969540E2949FE0011124C22BD32BCE01BA
:1026D0009A6822C0D82FCC27CE01846F906A1CC084
:1026E000DC2FCC27CE01806F906A16C08C2F8F70A4
:1026F0000E94411494E0D695C7959A95E1F7CF7062
:10270000D0E0DC2FCC27D0699E01282BC90104C062
:1027100080E090E001C0CE01DF91CF910895763046
:10272000A0F4673090F49AE2899FF001112487E0C9
:10273000789FE00DF11D1124E60FF11DEE0FFF1F34
:10274000E45DFE4F85919491089580E090E00895B6
:102750000E948F130E947D1208958238910569F1BD
:10276000B0F48133910509F46DC048F489329105C4
:1027700009F463C08A32910509F469C0089585336C
:10278000910509F455C089339105B9F00895833E48
:10279000910569F138F4803E9105B1F0823E9105D2
:1027A00009F10895863E9105A9F1873E9105B9F199
:1027B000843E910509F064C023C02091D10220FD20
:1027C0004FC021FD4DC008958091D10280FD44C0CD
:1027D0008091D20280FF44C08091D10284FD42C02A
:1027E00083EE4DC08091D10282FF38C0F5CF809139
:1027F000D10282FD33C08091D20280FD31C0ECCF86
:102800008091D20281FF32C08091D10284FD2AC022
:1028100087EE35C08091D10283FF26C0F5CF80912D
:10282000D10283FD21C08091D20281FD1FC0ECCF77
:102830008091D10285FD1CC01DC08091D10285FD13
:1028400019C016C08091D10286FD16C017C08091B4
:10285000D10286FD13C010C089E311C082EE0FC003
:1028600080EE0DC080E00BC086EE09C084EE07C08C
:1028700089E205C085E303C08AE201C081E390E0FC
:1028800008959091D10292FF0DC0282F2871283011
:1028900019F4877F846006C0282F2471243011F436
:1028A0008B7F886093FF0DC0282F2871283119F481
:1028B000877E846106C0282F2471243111F48B7E19
:1028C00088612091D20220FF0DC0382F3871383036
:1028D00019F4877F816006C0382F3171313011F4CF
:1028E0008E7F886021FF0DC0282F2871283119F4B0
:1028F000877E816106C0282F2171213111F48E7EDF
:10290000886194FD877E089580E008950E94DC1020
:1029100008950E948D158FE39CE90197F1F700C09F
:1029200000000E948D1580E00E94C51480FF04C045
:102930000E9486140E94582108950E9489140895C7
:102940000E94E310811102C00E9493110E94EE10B8
:1029500080935E020E94F8109093D2028093D1027D
:102960000E949D140E94F310682F70E080E090E0B8
:102970000E940B0B6091C8017091C9018091CA013E
:102980009091CB010E94470B0895E82FF0E0E752A9
:10299000FD4F80810895089580EA8A95F1F70895A2
:1029A00000C008950E94CC14089508950E94D51483
:1029B00008950E94D61408950E94D51408950E9487
:1029C000DC140895F894E82FE295EF70F0E031A15F
:1029D000282F2F7081E090E001C0880F2A95EAF738
:1029E000982F9095932391A392A1892B82A37894F9
:1029F00008950F931F93CF93DF93C7E8D1E0899198
:102A00008F3F11F00E94E21481E0CD38D807B9F76A
:102A1000C0E8D1E007E811E089918F3F11F00E94F2
:102A2000E2140C171D07C1F7DF91CF911F910F9191
:102A30000895A0E0B0E0EFE1F5E10C9494288C015A
:102A4000C62FD0E0CE0189579E4F7C01FC019081BA
:102A50009F3F09F447C0D62EF894E92FE295EF7016
:102A6000F0E081A19F7021E030E001C0220F9A9533
:102A7000EAF7822B81A382A12095282322A37894B0
:102A80000E94D014E0E8F1E047E851E031E0C12CC9
:102A900021912F3F89F0A22FA295AF70B0E09096C0
:102AA0008C9190E02F7002C0959587952A95E2F75A
:102AB00080FD02C0832F01C080E0C82A330F4E176B
:102AC0005F0731F7F70180818F3F11F00E94E21418
:102AD00061E0C11001C060E08D2D0E94D214C00FD2
:102AE000D11FC882CDB7DEB7E8E00C94B0280E94B1
:102AF000F91486E0E9EDF2E0DF01982F1D929A9536
:102B0000E9F7E3EDF2E0DF011D928A95E9F786E04F
:102B10000E94C9150E94AD050895A6E0B0E0E3E962
:102B2000F5E10C9497288E010F5F1F4F86E0F801A6
:102B300011928A95E9F7F12C6F2DC8010E941915A1
:102B4000F394F6E0FF12F8CF46E050E0B80183EDD1
:102B500092E00E94CA28FF24F394009709F4F12C14
:102B6000892B41F086E0F801A3EDB2E001900D92CF
:102B70008A95E1F72F2D46E069ED72E083ED92E052
:102B80000E94CA150E94B0058F2D2696E5E00C9490
:102B9000B3280895FF920F931F93CF93DF938C0177
:102BA000F62ED72FC42F222349F081E080936102B3
:102BB0000E940B219093600280935F0280916102DA
:102BC0008823C1F080915F02909160020E942321CE
:102BD000059780F0EF2DFD2FD8014C2F50E0CD014F
:102BE000801B910B841795071CF48D918193F7CF6F
:102BF00010926102CDB7DEB7E5E00C94B3280E94D5
:102C000023230E94ED110E94302308950E94352352
:102C10000E9464120E944F2308950E94A2200E94E5
:102C200009230E94DA110E94FF150E9406160E94D5
:102C3000E311FBCF8091680280FF06C0609107011D
:102C400070E0660F771F26C081FF04C06091070106
:102C500084E005C082FF07C06091070188E0689F9B
:102C6000B001112417C0909167029923D1F06091AF
:102C70000601961788F72091070188E0289F9001A8
:102C80001124929FA001939F500D112470E0CA015E
:102C90000E9470286038710540F46115710519F4BF
:102CA00006C068E070E0862F08958FE7089581E000
:102CB00008958091680280FF08C06091030170E070
:102CC000759567957595679521C081FF06C06091E0
:102CD000030170E07595679519C082FF04C060918B
:102CE000030170E010C090916602992399F0609101
:102CF00002019617A0F780910301899FC00111245A
:102D000070E00E9470286038710540F4611571050B
:102D100019F406C061E070E0862F08958FE70895EA
:102D200081E008958D3E21F40E941A16819504C019
:102D30008E3E29F40E941A1680936C0208958F3EED
:102D400021F40E941A16819504C0803F29F40E9444
:102D50001A1680936B020895893F19F40E94591640
:102D600005C08A3F31F40E945916819580936D0207
:102D700008958B3F21F40E945916819504C08C3F21
:102D800029F40E94591680936E0208959FE0980FCF
:102D9000983078F421E030E0A90102C0440F551FBB
:102DA0009A95E2F7CA0190916A02892B80936A0290
:102DB00008958D3F21F48091680281600BC08E3FA1
:102DC00021F480916802826005C08F3F29F48091D0
:102DD000680284608093680208958D3E39F4909172
:102DE0006C0297FF35C010926C0259C08E3E29F4D8
:102DF00090916C021916BCF32BC090916B028F3E20
:102E000029F497FF25C010926B0249C0803F19F446
:102E10001916CCF31DC090916D02893F29F4191643
:102E2000BCF410926D023BC08A3F19F497FF10C0AA
:102E3000F8CF8B3F39F490916E0297FF09C0109242
:102E40006E022DC08C3F21F490916E021916BCF3D6
:102E50009FE0980F983080F421E030E0A90102C093
:102E6000440F551F9A95E2F7CA01809590916A0226
:102E7000892380936A0213C08D3F21F480916802F8
:102E80008E7F0BC08E3F21F4809168028D7F05C03C
:102E90008F3F29F4809168028B7F80936802809134
:102EA0006B02811106C080916C02811102C01092E8
:102EB000670280916D02811106C080916E028111BE
:102EC00002C01092660208950E940B2120916B02AD
:102ED000211104C020916C02222321F090936502FD
:102EE0008093640220916D02211104C020916E0232
:102EF000222321F0909363028093620289E692E09C
:102F00000E94561F0895A6E0B0E0E9E8F7E10C94AE
:102F1000992886E0E9E6F2E0DE01119601900D9233
:102F20008A95E1F710926B0210926C0210926D027A
:102F300010926E028B81811104C08C81882309F468
:102F40005FC080916402909165020E942321AC01D0
:102F500090916702992339F02091080130E02417FD
:102F6000350758F04DC0209109018AE0289F900153
:102F700011242417350718F043C09F3F19F09F5FB5
:102F8000909367021B81112361F00E941A1611169B
:102F900014F09FEF01C091E0989F902D1124909321
:102FA0006B021C81112361F00E941A16111614F095
:102FB0009FEF01C091E0989F902D112490936C0297
:102FC00030916B023323E1F020916C022223C1F097
:102FD00045EB3403C0011124992319F090936B023F
:102FE00003C081E080936B0235EB2303C001112401
:102FF000992319F090936C0203C081E080936C02D6
:103000008D81811104C08E81882309F45FC0809175
:103010006202909163020E942321AC0190916602AA
:10302000992339F02091040130E02417350758F036
:103030004DC0209105018AE0289F9001112424179A
:10304000350718F043C09F3F19F09F5F90936602C9
:103050001D81112361F00E945916111614F09FEF83
:1030600001C091E0989F902D112490936D021E81D4
:10307000112361F00E945916111614F09FEF01C040
:1030800091E0989F902D112490936E0230916D02E3
:103090003323E1F020916E022223C1F045EB34038B
:1030A000C0011124992319F090936D0203C081E0AF
:1030B00080936D0235EB2303C0011124992319F08D
:1030C00090936E0203C081E080936E02BE016F5F39
:1030D0007F4F89E692E00E94542081110E9464177C
:1030E00086E0FE013196A9E6B2E001900D928A9544
:1030F000E1F72696E3E00C94B528E9E6F2E086E0F5
:10310000DF011D928A95E9F710926702109266021C
:10311000109268020895EF92FF920F931F93CF933E
:10312000DF93EC017B0164E670E088E70E94311ECA
:103130008C01EC0EFD1ECE15DF0561F017FD0AC0F7
:10314000FE01849164E670E00E94A61E8C01219627
:10315000892B89F30E941E1FC801CDB7DEB7E6E0B8
:103160000C94B22808950E94B2180895EFEDF2E091
:1031700080E092E0DF019C011D9221503040E1F798
:10318000F093E404E093E3048FEF9FEF90939B02AE
:1031900080939A0208950E94B3180E94DF048093DE
:1031A000960280FD02C080E801C080E28093950213
:1031B0000E942B1E6DE070E083E992E00E948B1864
:1031C000892B11F080E008958091960263E070E011
:1031D00081FD03C080E992E002C08DE892E00E9488
:1031E0008B18892B79F76DE070E080E892E00E94FF
:1031F0008B18892B39F70E941721DC01CB01805AEB
:103200009541AF4FBF4F8093DF049093E004A093AC
:10321000E104B093E2040E94B61881E08093990221
:10322000809398021092970208952091950236E0BB
:10323000839FC0011124629F800D911D112481156F
:1032400022E0920714F080E090E081529D4F90932D
:10325000E4048093E30408952091E3043091E404AE
:10326000295D324040919502642F70E0C9010E94AF
:103270005C28481B463010F4240F311D211582E0D4
:10328000380710F020E030E021523D4F3093E40445
:103290002093E30408951F93CF93DF93162F8A3072
:1032A00011F481E003C08D3021F480E00E94C31945
:1032B00066C0C091E304D091E40496E0FE01AFE65D
:1032C000B2E001900D929A95E1F7803E30F086E0F1
:1032D000FE0111928A95E9F70BC0F6E08F9FB001CD
:1032E000112460567D4F46E050E0CE010E94C12877
:1032F000111135C0C091E304D091E40446E050E0E0
:10330000BE018FE692E00E94CA28892BB1F1CF5D01
:10331000D2409E0185E0369527958A95E1F781E0B8
:1033200090E0AC0102C0440F551F2A95E2F72091AE
:103330009A0230919B02242B352B259645E0D69599
:10334000C7954A95E1F702C0880F991FCA95E2F721
:10335000822B932B90939B0280939A020EC0E09154
:10336000E304F091E4049F012A5F3F4F2E173F07CB
:1033700009F2808180958193F9CF0E942C19DF9109
:10338000CF911F910895CF93E82F2091E3043091BE
:10339000E4042F5D324040919502642F70E0C90132
:1033A0000E945C28481B842FEE2359F066E00E949F
:1033B0005028C82FC150B0F060E080E20E944B1945
:1033C000F9CFA901480F511D4115524018F080E076
:1033D00020E030E0280F311D21523D4F3093E404AE
:1033E0002093E304CF9108951F93CF93DF93EC01D3
:1033F000162FFE018491882329F0612F0E944B191A
:103400002196F7CFDF91CF911F9108950E94F41973
:1034100081E00E94C3190895809199028823F9F0F0
:103420000E941721DC01CB01805A9541AF4FBF4F5D
:103430008093DF049093E004A093E104B093E2044E
:103440008091980281110BC062E070E08EE792E0FB
:103450000E948B18892B19F481E080939802809147
:1034600098020895A0E0B0E0E8E3FAE10C948E2819
:1034700080919902882309F4DEC020919A0230914C
:103480009B022115310509F4D6C080919702811164
:10349000D2C061E070E0082F10E03B01082E02C0AE
:1034A000660C771C0A94E2F7A90146215721452BA7
:1034B00011F48F5FF0CF90919602980165E0220F92
:1034C000331F6A95E1F790FD12C08295880F8076D0
:1034D00080930C01220F232F221F330B3195209351
:1034E0000F01815E80930D011092100112C045E022
:1034F000369527954A95E1F7220F220F220F209348
:103500000C0110920F01295F20930D0183E080933D
:10351000100124E630E047E050E06AE071E088E71F
:103520000E94D61E892B09F086C08091960280FDEC
:1035300023C0A80195E0440F551F9A95E1F7415229
:103540005D4F04E610E020E230E060E488E70E948E
:10355000F71E892B09F06FC00E940C1AE301C09579
:10356000D09580919A0290919B02C823D923D09341
:103570009B02C0939A025FC080E2E5E7F2E0DF01C0
:103580001D928A95E9F785E0000F111F8A95E1F7F2
:10359000A1E9B1E04DE851E0992493942D91EA011D
:1035A0008991AE01B801680F711D61527D4F30E005
:1035B0002B583D4FF90197E07F01E21AF30AA92C3D
:1035C00001C0AA0CEA94EAF77B01B12CE7018991CA
:1035D0007E018A21892E8B18D82DD770CD2E0D2EE5
:1035E000000CDD08C82F01C0CC0FDA95EAF78C2E4D
:1035F000D194C194D108D7E0CD22DD240C2C01C098
:1036000086950A94EAF78C2BD0808D298083B39419
:1036100088E0B812DBCF915031969F3F69F6C1E048
:10362000A539BC0709F0BACF04E610E020E230E08B
:1036300045E752E08ACFCDB7DEB7EEE00C94AA287A
:103640008091990290919802882389F0992369F0DA
:1036500062E070E08CE792E00E948B18892B19F0F1
:10366000809198020895109298029091980281E0BA
:10367000892708950E94E10408950F931F93809174
:103680009902882319F160E080E00E9415190E94D8
:103690003A1B0E94321A809198028823B9F00E9446
:1036A00017210091DF041091E0042091E104309192
:1036B000E204DC01CB01801B910BA20BB30B8F3F0B
:1036C0009F4FAF4FBF4710F40E94201B1F910F91D7
:1036D0000895CF93DF93EC01FB018281882309F4E5
:1036E0003CC1C430FDE5DF0760F4CB3F9CE5D90762
:1036F00088F49E0122503C452431310508F02EC14A
:1037000009C0C236EDE5DE0729F0C63AFDE5DF0760
:1037100009F024C10E94F8109093D2028093D10244
:10372000C1318CE5D80709F4C6C008F042C0C930E1
:10373000ECE5DE0709F49BC000F5C5308CE5D80741
:1037400009F485C078F4C330ECE5DE0709F478C0ED
:1037500008F07AC0C230DC4509F0F5C08091D10292
:103760008160EFC0C7309CE5D90709F478C008F044
:103770007AC08091D1028061E4C0CD30FCE5DF07E2
:1037800009F487C058F4CB309CE5D90709F479C017
:1037900008F07BC08091D10288606FC0CF30FCE51B
:1037A000DF0709F480C008F082C08091D102877FD2
:1037B000C8C0CE3F9CE5D90709F471C000F5C531FA
:1037C000FCE5DF0709F485C068F4C3319CE5D9073F
:1037D00009F475C008F095C00E94BA0A8091D10220
:1037E0008F77AFC0CC3FFCE5DF07A9F108F054C0EC
:1037F000CB3FDC4509F0A7C08091D20240C0C23067
:10380000EDE5DE0709F489C058F4C1158DE5D80748
:1038100009F45AC008F069C08091D20282602FC0BA
:10382000C236EDE5DE0709F47CC0C63AFDE5DF07E8
:1038300009F481C0C330DD4509F085C080E06EC069
:103840008091D10282607DC08091D10216C08091AA
:10385000D102886076C08091D20282604FC0809190
:10386000D10280626EC08091D10280646AC00E94E1
:10387000BA0A8091D102806864C0846062C08160AD
:103880003DC08091D1028E7F5CC08091D1028D7F3E
:1038900058C08091D10216C08091D20218C0809188
:1038A000D2028D7F2BC08091D1028F7E4AC0809141
:1038B000D1028F7D46C08091D1028F7B42C0809122
:1038C000D102877F8B7F3DC08091D2028D7F8E7F1A
:1038D00015C08091D10282FB222720F991E0922726
:1038E00090FB82F990FB83F92CC08091D202982F33
:1038F000909591708E7F892B90FB81F98093D202F5
:1039000022C00E94BA0A8091D10287FB222720F9A7
:1039100091E0922790FB87F914C081E00E949611F4
:1039200012C08091D10284FB222720F991E09227D6
:1039300090FB84F906C08091D102982F909590FB5E
:1039400080F98093D1028091D1029091D2020E949D
:1039500009110E94BA0A80E001C081E0DF91CF9195
:1039600008958FE891E00197F1F700C000000895F5
:1039700081E0089581E080939D0253985B9A52986C
:103980005A9A0E94B11C30919D02EFE9F2E090E05A
:10399000931769F089B183FB882780F94A9902C09F
:1039A00020E001C022E0822B81939F5FF1CF089538
:1039B000A0E0B0E0EEEDFCE10C949428F12CE12CB9
:1039C00084E0C82ED12C80919D02F81608F051C0D9
:1039D0000F2D10E0E9B1E3FBEE27E0F94A9902C0B0
:1039E00080E001C082E08E2BD801A156BD4FEC9142
:1039F0002E2F237030E0482F082E000C550B241773
:103A00003507A9F1EE0FEE0FE82BEC93EF70F0E025
:103A1000EB56FE4FE801C256DD4F90818881890F39
:103A20008883843064F0F801E456FD4F80818F5F15
:103A3000808360E08F2D0E94C70421E001C020E058
:103A400088818D3F5CF4F801E456FD4F8081815000
:103A5000808361E08F2D0E94C70421E08881082EB9
:103A6000000C990BB6010E9470288883E22AF39417
:103A7000AACF8E2DCDB7DEB7E8E00C94B028CF9357
:103A8000DF9386319C4541F5EB010E94F20F982FA0
:103A90008A812091000130910101882379F09A7A7E
:103AA00081E009F480E08093A002911102C069E2F4
:103AB00001C065E3C9010E9426200AC08091A002CE
:103AC000811102C069E201C065E3C9010E9434208E
:103AD0000E94361080E001C081E0DF91CF9108950F
:103AE0000F931F93CF93DF93C42FD22FFC018281BA
:103AF0008823B1F04093A3020E940B219093A2026D
:103B00008093A10280E28C0F883008F04DC0C7700E
:103B100081E001C0880FCA95EAF70E94210844C0DD
:103B20008091A302481330C08091A1029091A2021B
:103B30000E942321883C910538F510E21D0FCD1716
:103B4000B9F080E28C0F883040F4C77081E001C08A
:103B5000880FCA95EAF70E942808183010F581E00E
:103B60009D2F977001C0880F9A95EAF70E9421084F
:103B7000802F0E9417081830B8F4D77081E001C078
:103B8000880FDA95EAF70AC080E28C0F883060F47B
:103B9000C77081E001C0880FCA95EAF70E94280823
:103BA00003C0802F0E941708DF91CF911F910F91C2
:103BB00008950F939C01CB01243F4CE5340731F16C
:103BC00088F4293DFCE53F07D9F02A3D4CE5340750
:103BD00079F1283D3C45A9F506E221EE41EE68ED7C
:103BE0007CE52BC0263FFCE53F07E1F0A8F0273F2E
:103BF0003C4539F507E225EE46EE67EF7CE51DC052
:103C000007E225EE45EE69ED7CE517C006E221EE00
:103C100040EE64EF7CE511C007E225EE44EE65EF6F
:103C20007CE50BC006E221EE42EE66EF7CE505C0C6
:103C300008E221E045EE6AED7CE50E94701D80E01F
:103C400008C0FC018281882319F01092A30201C0F0
:103C500081E00F9108951092B9008CE08093B80034
:103C60000895A0E0B0E0E7E3FEE10C949128B82EBF
:103C7000EB010E940B216C01C431D10558F0CF3FFC
:103C80008FEFD80759F0CE0164E170E00E945C2804
:103C90007B0107C0EE24E394F12C03C025E0E22E63
:103CA000F12C84E8A82E94EA992E1092BC009092F0
:103CB000BC000E940B218C018091BC0087FD08C0D4
:103CC0000E940B21801B910B8E159F05A8F32AC023
:103CD0008091B900887F883041F08091B900887F59
:103CE000803119F00FEF1FEF1FC0B092BB00A09200
:103CF000BC000E940B218C018091BC0087FD08C094
:103D00000E940B21801B910B8E159F05A8F30AC002
:103D10008091B900887F883111F0803419F700E074
:103D200010E00EC00EEF1FEFCF3F8FEFD80709F462
:103D3000BCCFC6010E9423218C179D0708F4B5CF84
:103D4000C801CDB7DEB7EBE00C94AD280F931F93FD
:103D5000CF93DF93EB018093BB0084E88093BC009A
:103D60000E940B218C018091BC0087FD0EC0CF3FCB
:103D70008FEFD807C1F30E940B21801B910B8C178A
:103D80009D0788F38EEF9FEF0CC02091B900287F2C
:103D900081E090E0283211F480E090E091958195E7
:103DA0009109DF91CF911F910F910895A0E0B0E0AC
:103DB000ECEDFEE10C9494286B018A017901B901C4
:103DC0000E94311EE6010C0D1D1DC017D10741F4E4
:103DD00024E92093BC00CDB7DEB7E8E00C94B0280E
:103DE00097FDF6CFB70189910E94A61EEECFA0E005
:103DF000B0E0EDEFFEE10C949428C62F6A01790142
:103E0000B8010E94311E97FD11C0B8018C2F0E948D
:103E1000A61EE601EC0CFD1CCE15DF0539F097FD62
:103E200005C0B80189910E94A61EF6CF24E920930F
:103E3000BC00CDB7DEB7E8E00C94B02884E98093ED
:103E4000BC0008959093A7018093A60108959093D4
:103E5000A9028093A8020895E091A802F091A90216
:103E6000309729F00190F081E02D0995089580E0C8
:103E700008950E942C1F0895FC01A091A802B09102
:103E8000A902109791F080911D01882341F0809143
:103E9000D10287FF04C08081818386E08083CF01C7
:103EA0001296ED91FC91139709950895E091A8025F
:103EB000F091A902309739F022E0DC012C930480C4
:103EC000F581E02D099508952091A6023091A70271
:103ED0002817390771F09093A7028093A602E0910A
:103EE000A802F091A902309721F00680F781E02D19
:103EF000099508952091A4023091A5022817390749
:103F000071F09093A5028093A402E091A802F09131
:103F1000A902309721F00084F185E02D09950895DC
:103F2000FC01329680911D01882331F08091D102ED
:103F300087FF02C09EE101C096E080E0915028F02A
:103F400021912223D9F38F5FF9CF0895662351F190
:103F500020911D012223E9F02091D10227FF19C0F1
:103F6000462F4695469546954E31E0F4677021E020
:103F700030E002C0220F331F6A95E2F7FC01E40F24
:103F8000F11D828190E02823392381E0232B69F4FD
:103F900009C0FC01329608962191621729F0E817B2
:103FA000F907D1F780E0089581E008959C01FC01B4
:103FB00032969FEF80E04191461789F09F3F19F4B8
:103FC000411101C0982F8F5F8630A9F79F3F39F0CC
:103FD000F901E90FF11D97FDFA956283089508959F
:103FE0009C012A5F3F4FFC014281461301C01282AF
:103FF000019682179307B9F70895262F26952695DF
:1040000026952E3168F4FC01E20FF11D677021E066
:1040100030E001C0220F6A95EAF78281282B2283C3
:104020000895262F2695269526952E3170F4FC01AD
:10403000E20FF11D677021E030E001C0220F6A95A8
:10404000EAF72095828128232283089520911D017B
:10405000222339F02091D10227FF03C00E94FD1FC7
:1040600008950E94D61F089520911D01222339F042
:104070002091D10227FF03C00E94112008950E94C1
:10408000F01F089520911D01FC013296222331F08A
:104090008091D10287FF02C08EE101C086E0DF017E
:1040A0001D928A95E9F7089546E050E00E94CA28DB
:1040B00021E0892B09F420E0822F089508950E94C1
:1040C0005E20089583E08093AA020E945F200895F5
:1040D000811102C081E001C082E08093AA020E94A7
:1040E0005F2008950E946820089581E08093AA02CD
:1040F0000E945F2008950E947520089508950E94EF
:104100007E2008950E947F2008950E947E200895B9
:104110000E947E2008950E947E200895CF930E94E1
:1041200088200E948D150E948520C0E08C2F0E945F
:10413000C514811104C0CF5FC630C1F701C081E052
:10414000CF91089585B7806885BF85B7806885BFA2
:1041500008951F920F920FB60F9211248F939F9381
:10416000AF93BF938091AB02811113C08091E5049E
:104170009091E604A091E704B091E8044196A11D56
:10418000B11D8093E5049093E604A093E704B093F7
:10419000E804BF91AF919F918F910F900FBE0F9048
:1041A0001F9018958091ED04843031F10E94210612
:1041B0001092AB0220E488E190E00FB6F894A89545
:1041C000809360000FBE2093600083B7817F84607E
:1041D00083BF83B7816083BF7894889583B78E7FD0
:1041E00083BF0FB6F894A895809160008861809392
:1041F0006000109260000FBE08950E94BA0A0E94EB
:104200002806089582E084BD93E095BD9AEF97BD9E
:1042100080936E0008952FB7F8948091E5049091F3
:10422000E604A091E704B091E8042FBF08952FB7EA
:10423000F8946091E5047091E6048091E704909110
:10424000E8042FBF08959C014FB7F8948091E504CE
:104250009091E604A091E704B091E8044FBF821B5F
:10426000930B089578941F920F920FB60F9211241A
:104270008F939F93AF93BF938091E5049091E60451
:10428000A091E704B091E8040196A11DB11D8093AF
:10429000E5049093E604A093E704B093E804BF918B
:1042A000AF919F918F910F900FBE0F901F90189517
:1042B00087E797E790930108809300089AE088E1E8
:1042C0000FB6F894A895809360000FBE909360009D
:1042D000FFCF9AE088E10FB6F894A895809360002C
:1042E0000FBE90936000FFCF8091CF020895089594
:1042F00022E02093E9002FEF3091E800215035FDB6
:1043000006C035ED3A95F1F700002111F5CF209167
:10431000E80025FF0BC040E050E066E070E00E943E
:10432000C2238091E8008E778093E8000895CF93B0
:10433000DF9320911D01222339F02091D10227FF24
:1043400003C060E222E002C068E021E02093E900BF
:104350002FEF3091E800215035FD06C035ED3A953C
:10436000F1F700002111F5CF2091E80025FF1DC0D5
:10437000EC0180911D01811105C040E050E068E032
:1043800070E003C070E040E050E0CE010E94C22324
:104390008091E8008E778093E80080E2FE01AFEA2A
:1043A000B2E001900D928A95E1F7DF91CF910895E7
:1043B0008093AC027093AE026093AD028091ED04E5
:1043C000843001F582E08093E9008FEF9091E8005E
:1043D000815095FD06C095ED9A95F1F70000811189
:1043E000F5CF8091E80085FF0DC040E050E063E02C
:1043F00070E08CEA92E00E94C2238091E8008E7700
:104400008093E8000895BC0184E00E94D8210895BB
:10441000BC0183E00E94D82108958091EC048111B1
:1044200009C00E944D250E94AA258091E200846067
:104430008093E20008951092EC0408950E947B207E
:1044400008956091E90481E0611101C080E00E945B
:10445000622008959091ED0481E0943009F080E0AD
:104460006091E9040E946820089542E061EC81E0D7
:104470000E94C62442E261EC82E00E94C624909130
:10448000ED0481E0943009F080E06091E9040E943D
:10449000722008958091EF04833009F461C030F4F4
:1044A000813071F0823009F49BC008958A3009F49C
:1044B00087C08B3009F46CC0893009F0A9C020C0D6
:1044C0008091EE04813A09F0A3C08091E800877FD3
:1044D0008093E8008091F2049091F304892B21F4F9
:1044E00060E28FEA92E003C060E080E090E070E07C
:1044F0000E9407248091E8008B778093E80008955C
:104500008091EE04813209F083C08091F204909191
:10451000F304029708F07CC08091E800877F8093C5
:10452000E8008091E80082FD05C08091ED048111D2
:10453000F8CF6EC02091F3008091F20090E0922BB2
:10454000029731F48091F100813011F0863021F42E
:104550008091F1008093CF028091E8008B7754C066
:104560008091EE04813A09F053C08091F204909159
:10457000F304892B09F04CC08091E800877F809379
:10458000E8008091E80080FFFCCF80911D0137C0DA
:104590008091EE048132E1F58091F2049091F30470
:1045A000892BB1F58091E800877F8093E8000E9415
:1045B000FB248091F00480931D010E94BA0A0895A3
:1045C0008091EE04813221F58091E800877F80930D
:1045D000E8000E94FB248091F1048093D0020895AA
:1045E0008091EE04813AA1F48091E800877F809366
:1045F000E8008091E80080FFFCCF8091D00280939A
:10460000F1008091E8008E778093E8000E94FB24FF
:10461000089584B7877F84BF0FB6F894A8958091DA
:104620006000886180936000109260000FBE90E08F
:1046300080E80FB6F89480936100909361000FBEFC
:104640000E94752008950E944D250E94AA25E2EE41
:10465000F0E080818460808378940E9435280895FA
:1046600081E191E00E94271F08958091ED0485303B
:10467000A9F48091ED04853079F40E94D2208091D4
:10468000EB048823B1F30E948E20882391F30E94CB
:10469000AC230E94BA0AEDCF0E94FD200895089530
:1046A0000E9453230895292F332723303105C9F061
:1046B00060F42130310581F02230310509F044C029
:1046C0008BE390E02CE038E043C021323105E1F08B
:1046D0002232310549F138C082E190E027E438E028
:1046E00037C099278130910549F028F0029761F58C
:1046F000E0EEF7E005C0E8E0F8E002C0E4EFF7E044
:10470000849190E09F0124C06115710541F06130F2
:104710007105D1F489E090E027E338E019C089E021
:1047200090E02EE138E014C06115710541F0613070
:10473000710551F486EB90E029E538E009C080E48A
:1047400090E02FE039E004C080E090E020E030E02D
:10475000FA0131832083089580E189BD82E189BD1A
:1047600009B400FEFDCF8091D8008F7D8093D800E2
:104770008091E00082608093E0008091E00081FD04
:10478000FCCF0895A0E0B0E0E8ECF3E20C949428AC
:10479000EC018B017A010E941A25811133C0E114CA
:1047A000F10439F0F70180819181081B190BC80FC2
:1047B000D91FC12CD12C0115110519F18091E800E8
:1047C00085FD16C08091E8008E778093E800E114A3
:1047D000F10449F0F70180819181C80ED91ED18280
:1047E000C08285E00FC00E941A25882321F30AC0E9
:1047F00089918093F10001501109FFEFCF1ADF0A70
:10480000DACF80E0CDB7DEB7E8E00C94B028209195
:10481000F4043091F5042617370748F06115710547
:1048200039F42091E8002E772093E80001C0B90107
:10483000FC0120E06115710579F18091ED04882378
:10484000F1F18530F1F18091E80083FD3CC0809169
:10485000E80082FD2EC08091E80080FFEBCF209120
:10486000F3008091F20090E0922B6115710551F0F8
:104870008830910538F421912093F100615071093D
:104880000196F3CF21E0089709F020E08091E8003D
:104890008E778093E800CECF2111CFCF0AC08091D0
:1048A000ED04882361F0853061F08091E80083FD9C
:1048B0000AC08091E80082FFF2CF80E0089582E094
:1048C000089583E0089581E008952091F4043091E3
:1048D000F5042617370748F06115710539F4209162
:1048E000E8002E772093E80001C0B901FC0120E028
:1048F0006115710591F18091ED04882309F440C0A0
:10490000853009F43FC08091E80083FD3DC080916F
:10491000E80082FD2FC08091E80080FFE9CF209160
:10492000F3008091F20090E0922B6115710559F02F
:104930008830910540F424912093F1003196615024
:1049400071090196F2CF21E0089709F020E08091EB
:10495000E8008E778093E800CBCF2111CCCF0AC03E
:104960008091ED04882361F0853061F08091E8004A
:1049700083FD0AC08091E80082FFF2CF80E00895B5
:1049800082E0089583E0089581E00895982F97309C
:1049900068F59093E900981739F07091EC00209138
:1049A000ED005091F00003C0242F762F50E021FD40
:1049B00002C09F5FECCF3091EB003E7F3093EB0065
:1049C0003091ED003D7F3093ED003091EB00316090
:1049D0003093EB007093EC002093ED005093F000C7
:1049E0002091EE0027FDE5CF80E008958F70809341
:1049F000E90081E008958091EE0487FF11C0809165
:104A0000E80082FD05C08091ED048111F8CF11C04E
:104A10008091E8008B770BC08091ED04882349F0EA
:104A20008091E80080FFF8CF8091E8008E77809336
:104A3000E80008952091E4003091E50095E640916A
:104A4000EC00842F817040FF23C08091E80080FD3E
:104A50001DC08091ED04882399F0853099F08091F4
:104A6000EB0085FD11C04091E4005091E500241752
:104A7000350729F3915011F09A01E1CF84E00895B0
:104A800082E0089583E0089581E0089580E008952C
:104A90004091E80042FFDDCF08950E94BC250E94AE
:104AA000C425E0EEF0E0808181608083E8EDF0E0F5
:104AB00080818F77808319BCA7EDB0E08C918E7FC9
:104AC0008C9380818F7E80831092EC0408950F93E5
:104AD0001F93CF93DF930E94BC250E94C425C8ED8D
:104AE000D0E088818F7788838881806888838881F7
:104AF0008F7D888319BC1092ED041092E904109206
:104B0000EB041092EA0400EE10E0F80180818B7F44
:104B1000808388818160888342E060E080E00E9439
:104B2000C624E1EEF0E080818E7F8083E2EEF0E04B
:104B3000808181608083808188608083F8018081AA
:104B40008E7F8083888180618883DF91CF911F91E0
:104B50000F910895E8EDF0E080818F7E8083E7ED8E
:104B6000F0E080818160808384E082BF81E0809377
:104B7000EC040E9467250895E8EDF0E080818E7FC7
:104B800080831092E20008951092DA001092E10002
:104B900008951F920F920FB60F9211242F933F93F7
:104BA0004F935F936F937F938F939F93AF93BF9335
:104BB000EF93FF938091E10082FF0BC08091E200B0
:104BC00082FF07C08091E1008B7F8093E1000E940B
:104BD00034288091DA0080FF1FC08091D80080FFC8
:104BE0001BC08091DA008E7F8093DA008091D9001B
:104BF00080FF0DC080E189BD82E189BD09B400FE5E
:104C0000FDCF81E08093ED040E940D2205C019BC08
:104C10001092ED040E941B228091E10080FF19C0D8
:104C20008091E20080FF15C08091E2008E7F80932A
:104C3000E2008091E20080618093E2008091D800E0
:104C400080628093D80019BC85E08093ED040E94B7
:104C500021228091E10084FF30C08091E20084FF36
:104C60002CC080E189BD82E189BD09B400FEFDCF81
:104C70008091D8008F7D8093D8008091E1008F7E55
:104C80008093E1008091E2008F7E8093E20080912A
:104C9000E20081608093E2008091E904882311F0B2
:104CA00084E007C08091E30087FD02C081E001C07D
:104CB00083E08093ED040E942A228091E10083FF2B
:104CC00029C08091E20083FF25C08091E100877FA9
:104CD0008093E10082E08093ED041092E9048091DA
:104CE000E1008E7F8093E1008091E2008E7F8093CF
:104CF000E2008091E20080618093E20042E060E0A7
:104D000080E00E94C6248091F00088608093F000CB
:104D10000E941E22FF91EF91BF91AF919F918F91C1
:104D20007F916F915F914F913F912F910F900FBEA7
:104D30000F901F9018951F920F920FB60F9211248B
:104D40002F933F934F935F936F937F938F939F9393
:104D5000AF93BF93CF93DF93EF93FF93C091E9009D
:104D6000CF708091EC00D82FD17080FDD0E81092E8
:104D7000E9008091F000877F8093F00078940E9492
:104D8000DF261092E9008091F00088608093F000A7
:104D9000CD2BCF70C093E900FF91EF91DF91CF91C0
:104DA000BF91AF919F918F917F916F915F914F9143
:104DB0003F912F910F900FBE0F901F901895AAE270
:104DC000B0E0E5EEF6E20C949928EEEEF4E0809186
:104DD000F100819324E0E63FF207C9F70E944A22DE
:104DE0008091E80083FF2EC18091EE049091EF0442
:104DF000492F50E04A30510508F024C1FA01EE591C
:104E0000FF4F0C948428803821F0823809F01AC1B1
:104E100008C08091EA049091EB04992389F08260A4
:104E20000FC08091F2048F70873008F00BC180931F
:104E3000E9008091EB0085FB882780F91092E9005A
:104E40009091E800977F9093E8008093F100109292
:104E5000F100D1C0282F2D7F09F0F4C0882319F06C
:104E6000823061F0EFC08091F004813009F0EAC037
:104E7000933009F080E08093EB042EC08091F00421
:104E800081112AC08091F2048F702FEF280F2630F5
:104E900008F0D8C08093E9002091EB0020FF1CC0EF
:104EA000933021F48091EB00806214C09091EB006C
:104EB00090619093EB0021E030E0A90102C0440F23
:104EC000551F8A95E2F74093EA001092EA0080911C
:104ED000EB0088608093EB001092E9008091E8007D
:104EE000877F8093E8000E94FB24ACC08111AAC098
:104EF0001091F0041F778091E3008078812B8093DC
:104F0000E3008091E800877F8093E8000E94FB2403
:104F10008091E80080FFFCCF8091E300806880935F
:104F2000E300111102C082E001C083E08093ED0430
:104F300089C08058823008F085C08091F00490913B
:104F4000F1048C3D53E0950779F583E08A838AE28A
:104F500089834FB7F894DE01139620E03EE051E2DA
:104F6000E32FF0E050935700E49120FF03C0E29557
:104F7000EF703F5FEF708E2F90E0EA3010F0C79631
:104F800001C0C0968D939D932F5F243149F74FBF89
:104F90008091E800877F8093E8006AE270E0CE01AC
:104FA00001960E94072416C06091F2047091F304E8
:104FB000AE014F5F5F4F0E945023BC01892B09F463
:104FC00041C09091E800977F9093E80089819A8191
:104FD0000E9465248091E8008B778093E80032C0BE
:104FE000803881F58091E800877F8093E800809188
:104FF000E9048093F1008091E8008E7772CF8111EF
:1050000021C08091F0049091F10499270297D4F483
:105010008091E800877F8093E8008091F00480937E
:10502000E9040E94FB248091E904811106C080916B
:10503000E30087FD02C081E001C084E08093ED04BD
:105040000E9435228091E80083FF0AC08091E80029
:10505000877F8093E8008091EB0080628093EB0073
:10506000AA96E3E00C94B5280895CF938091ED04BF
:105070008823A1F0C091E900CF709091EC00892FB6
:10508000817090FD80E8C82B1092E9008091E800C3
:1050900083FD0E94DF26CF70C093E900CF91089571
:1050A000991B79E004C0991F961708F0961B881F7A
:1050B0007A95C9F780950895AA1BBB1B51E107C0DB
:1050C000AA1FBB1FA617B70710F0A61BB70B881F98
:1050D000991F5A95A9F780959095BC01CD01089527
:1050E00097FB072E16F4009407D077FD09D00E9495
:1050F0005C2807FC05D03EF4909581959F4F08955C
:10510000709561957F4F0895EE0FFF1F0590F49104
:10511000E02D09942F923F924F925F926F927F926F
:105120008F929F92AF92BF92CF92DF92EF92FF92B7
:105130000F931F93CF93DF93CDB7DEB7CA1BDB0B63
:105140000FB6F894DEBF0FBECDBF09942A88398808
:1051500048885F846E847D848C849B84AA84B9840F
:10516000C884DF80EE80FD800C811B81AA81B9811B
:10517000CE0FD11D0FB6F894DEBF0FBECDBFED012F
:105180000895FB01DC0102C005900D924150504092
:10519000D8F70895FB01DC0104C08D9101908019BE
:1051A00021F441505040C8F7881B990B0895F99994
:1051B000FECF92BD81BDF89A992780B50895A8E1E8
:1051C000B0E042E050E00C940B29262FF999FECF75
:1051D00092BD81BDF89A019700B4021639F01FBA4A
:1051E00020BD0FB6F894FA9AF99A0FBE0895039667
:1051F000272F0E94E6280E94E528252F0E94E628F6
:10520000242F0C94E6280196272F0E94E6280C9460
:10521000E528DC01CB01FC01F999FECF06C0F2BD07
:10522000E1BDF89A319600B40D9241505040B8F764
:065230000895F894FFCF81
:105236002A02280850011E0A14010021007F2200BC
:105246000374219721782108220322772101E200A5
:10525600E900EA00B500B600B700CD008301CC0036
:105266008A019201940121022302240225022602C8
:1052760027022A02B300B4006F007000818283E225
:1052860000E900EA00B500B600B700CD008301CC06
:10529600008A01920194012102230224022502269A
:1052A6000227022A02B300B4006F007000818283D5
:1052B6003331F7F6F5F43566973494C632000810A4
:1052C600181810080000FF0100010000FFFF000091
:0652D600010001FF0000D1
:00000001FF
