:100000000C946F050C948C050C948C050C948C0549
:100010000C948C050C948C050C948C050C948C051C
:100020000C948C050C948C050C94B5150C94F71459
:100030000C944C210C948C050C948C050C948C0520
:100040000C948C050C948C050C948C050C948C05EC
:100050000C948C050C94FF200C948C050C948C054E
:100060000C948C050C948C050C948C050C948C05CC
:100070000C948C050C948C050C948C050C948C05BC
:100080000C948C050C948C050C948C050C948C05AC
:100090000C948C050C948C050C948C050C948C059C
:1000A0000C948C050C948C050C948C059206980687
:1000B000830689069E06A406AA06040778070C078D
:1000C000D606DA061007DD0613071E07E8066E07D8
:1000D000EC062207F00626075007F4062A075A07FF
:1000E000FA0630073A07E1061707E4061A07FF0683
:1000F0003507460766076807D206080781075B08C9
:100100005B088D088D0806092209490A490A270952
:10011000B509C609C6097D0A990A9E0AA30AA80A52
:10012000AD0AB20AB70ABC0AC10AC60ACD0AAC07B0
:10013000AC07D20AAC07AC07AC07AC07AC07AC07FE
:1001400016133D13D5143D13D5148513A813D514D8
:100150009714AA1400DA0281FFD9F1DB20A4A62E9D
:10016000AF00A0C000A1C800AED580A81FD300403A
:100170008D1420006432142020202000534352208C
:10018000002020202000434150200020202020007B
:100190004E554D200000556E64656600464E203376
:1001A00000464E203200464E203100426173650009
:1001B0004C61796572008A8B8C8D0DAAABACADAEAB
:1001C000CACBCCCD0D208E8F900005010902A10174
:1001D00085020901A1000509190129081500250159
:1001E0009508750181020501093009311581257FC6
:1001F00095027508810609381581257F95017508D6
:100200008106050C0A38021581257F950175088144
:1002100006C0C005010980A101850319012AB700A4
:10022000150126B700950175108100C0050C090164
:10023000A101850419012AA002150126A002950139
:1002400075108100C005010906A101850605071981
:10025000E029E715002501950875018102050719B8
:100260000029EF1500250195F07501810205081997
:10027000012905950575019102950175039101C04C
:1002800005010906A101050719E029E71500250167
:10029000950875018102950175088101050719000E
:1002A00029FF150026FF009506750881000508192D
:1002B000012905950575019102950175039101C00C
:1002C00009023B00020100A0FA0904000001030139
:1002D00001000921110100012240000705810308E6
:1002E00000010904010001030000000921110100BF
:1002F0000122B6000705820320000112010002005E
:10030000000008776D0A1701010102000112034283
:1003100000440045002000520065007600320000D5
:100320000012034D00650063006800570069006C0F
:100330000064000000040309040000000000003E07
:100340005B4F5B3E003E6B4F6B3E001C3E7C3E1C99
:1003500000183C7E3C18001C577D571C001C5E7F1B
:100360005E1C0000183C180000FFE7C3E7FF000018
:100370001824180000FFE7DBE7FF0030483A060EBC
:1003800000262979292600407F05050700407F05C2
:10039000253F005A3CE73C5A007F3E1C1C080008E1
:1003A0001C1C3E7F0014227F2214005F5F005F5FF1
:1003B0000006097F017F00006689956A0060606021
:1003C00060600094A2FFA2940008047E040800105C
:1003D000207E20100008082A1C0800081C2A080893
:1003E000001E10101010000C1E0C1E0C0030383EA9
:1003F000383000060E3E0E0600000000000000002F
:10040000005F000000000700070000147F147F1445
:1004100000242A7F2A1200231308646200364956FA
:10042000205000000807030000001C2241000000CB
:1004300041221C00002A1C7F1C2A0008083E0808D4
:100440000000807030000008080808080000006004
:100450006000002010080402003E5149453E0000A3
:10046000427F4000007249494946002141494D33CD
:10047000001814127F10002745454539003C4A49B1
:1004800049310041211109070036494949360046E2
:100490004949291E000000140000000040340000FB
:1004A0000000081422410014141414140000412206
:1004B0001408000201590906003E415D594E007CB6
:1004C0001211127C007F49494936003E41414122C8
:1004D000007F4141413E007F49494941007F090970
:1004E0000901003E41415173007F0808087F000068
:1004F000417F4100002040413F01007F081422411C
:10050000007F40404040007F021C027F007F0408C3
:10051000107F003E4141413E007F09090906003E2F
:100520004151215E007F0919294600264949493277
:100530000003017F0103003F4040403F001F204077
:10054000201F003F4038403F00631408146300033D
:1005500004780403006159494D4300007F41414143
:1005600000020408102000004141417F0004020104
:100570000204004040404040000003070800002003
:1005800054547840007F2844443800384444442878
:1005900000384444287E0038545454180000087E23
:1005A0000902001824241C78007F08040478000045
:1005B000447D4000002040403D00007F1028440062
:1005C0000000417F4000007C04780478007C08042F
:1005D0000478003844444438007C18242418001857
:1005E0002424187C007C0804040800485454542433
:1005F0000004043F4424003C4040207C001C204078
:10060000201C003C4030403C004428102844004C52
:100610009090907C004464544C44000008364100A3
:1006200000000077000000004136080000020102CF
:100630000402003C2623263C00000000E0FEFFFEF2
:10064000F8C00000000000E0FCFFFEF0C000000069
:100650000000000000013EE080700E01000000007C
:10066000073CE08078070000000000000000000068
:100670000000000000000000E0FEFFFEF8C00000E7
:10068000000000E0FCFFFEF00000000000013EE082
:1006900080700E0100000000073CE0807807000039
:1006A000000000000000000000000000000000004A
:1006B000000000000000000000000000000000003A
:1006C000000000000000000000000000000000002A
:1006D000000000000000000000000000000000001A
:1006E000000000000000000000000000000000000A
:1006F0000000000000000000000000F8FFFF1F07DE
:100700001FFFFEF0C0F8FFF707077FFFFFF800C0EC
:10071000380C186080000000F00C04F41C0000008D
:1007200000000080C0FCE6C3C1C1C3E6FCC080007D
:1007300000000000000000F8FFF707071FFFFEF0B1
:10074000C0F83F8F0F3FFFFFFE80F00C04F41C0049
:100750000000000000000000000000000000000099
:100760000000000000000000000000000000000089
:100770000000000000000000000000000000000079
:100780000000000000000000000000000000000069
:100790000000000000000000000000000000000059
:1007A0000000000000000000000000000000000049
:1007B000000000000000000000001F1F1F070000D5
:1007C0000000031F1F0F010306F800077F3F0EC143
:1007D00038070E70831C601E03C03E01000000003D
:1007E0000000003F7FFFFFF9C0C0F9FFFF7F3F001F
:1007F0000000000000001F1F1F0706F80000733FE5
:100800000FC138070F7083077F1F03C03E01000030
:1008100000000000000000000000000000000000D8
:1008200000000000000000000000000000000000C8
:1008300000000000000000000000000000000000B8
:1008400000000000000000000000000000000000A8
:100850000000000000000000000000000000000098
:100860000000000000000000000000000000000088
:1008700000000000000000000014001A000800152D
:100880000017001C00180004001600070009000AE9
:10089000000B000D001D211B24062819002A412CE5
:1008A000420543A800610060005F00130012000CC5
:1008B0000062005E005D005C0029000F000E002D4C
:1008C000005B005A00590028321031113401000138
:1008D000000100007C010001004600010001000150
:1008E0000001000100010001000100010001000100
:1008F0000001002B00E300530026002500240031F6
:100900000030002F00270023002200210034003394
:100910000035002E0020001F001E00380037003672
:1009200000010001000100010001000100010001BF
:1009300000010001000100010001000100010001AF
:1009400000010001004C00010001003900260225D1
:10095000022402310230022F022702230222022146
:10096000023402330235022E0220021F021E023818
:1009700002370236023A003B003C003D003E003F99
:100980000040000100010001000100010001000120
:10099000000100010001000100010001000100014F
:1009A00000010045004400430042004100010001F5
:1009B000000100010001000100010001000100012F
:1009C000000100010001000100A900AA00010001CE
:1009D00000010001000100010000AF00AE000101B4
:1009E00001010101010101020202020202020202EE
:1009F00003030303030303030404040404040405BE
:100A00000505050506060606060707070707080881
:100A10000808090909090A0A0A0B0B0B0C0C0C0D32
:100A20000D0D0E0E0E0F0F0F1010111111121213CB
:100A3000131414151516161717181819191A1A1B46
:100A40001B1C1D1D1E1E1F202021222223242425A5
:100A50002626272829292A2B2C2D2D2E2F303132DE
:100A600032333435363738393A3B3C3D3E3F4041EE
:100A700042434445464748494A4C4D4E4F505153D6
:100A800054555658595A5B5D5E5F6162646566688D
:100A9000696B6C6D6F7072737577787A7B7D7E8011
:100AA00082838587888A8C8E8F91939596989A9C5D
:100AB0009EA0A2A3A5A7A9ABADAFB1B3B5B7BABC71
:100AC000BEC0C2C4C6C9CBCDCFD1D4D6D8DBDDDF42
:100AD000E2E4E7E9EBEEF0F3F5F8FAFDFF001124AC
:100AE0001FBECFEFDAE0DEBFCDBF11E0A0E0B1E086
:100AF000EAEFFEE402C005900D92A837B107D9F7DE
:100B000024E0A8E7B1E001C01D92AB3DB207E1F7D8
:100B10000E94E50A0C947B270C9400000E947F1928
:100B20002FEF84E39CE0215080409040E1F700C02B
:100B300000009AE088E10FB6F894A89580936000D1
:100B40000FBE90936000FFCFA7E1B0E0EAEAF5E0C6
:100B50000C94C2264B8B5C8B6D8B7E8B8F8B6111C3
:100B600010928E0486E09E01235F3F4FD901E82F4B
:100B70001D92EA95E9F795E0FE017396D90101907F
:100B80000D929A95E1F79C894E895F897B897D87D3
:100B90009E876F87598B488BF901DE01179601906C
:100BA0000D928A95E1F7CE0107960E94891781116F
:100BB0003EC086E0FE013796DE01119601900D924F
:100BC0008A95E1F7FF81E8856A857B856115710566
:100BD00031F0EF3F31F481E0FF3F19F403C081E0D1
:100BE00001C080E080FD23C020913B0430E0C901BA
:100BF00001968770992740916C0450E084179507FF
:100C000079F1F983EA837D836C8396E0929FD0012A
:100C1000939FB00D1124A45CBB4FFE01319601904F
:100C20000D929A95E1F780933B040E94201F16E0F5
:100C300080916C0490913B048917F9F0189FC001D2
:100C40001124845C9B4F0E9489178823B1F0809106
:100C50006C0490E001968770992780936C04E8CF2C
:100C60000E947F1910923B0410926C04E5E3F4E0BB
:100C700086E0DF011D928A95E9F76796E3E00C9420
:100C8000DE26AAE0B0E0E7E4F6E00C94BA26FC0128
:100C90008081918123813481232B31F09F3F31F476
:100CA00091E08F3F19F403C091E001C090E090FD06
:100CB00088C47F0185E0DE01169601900D928A9529
:100CC000E1F7F70122818E819F81222349F00E9462
:100CD0001117182F682F8E819F810E94391903C028
:100CE0000E942019182F6E817F81812F0E94B71CCE
:100CF0008C01FC01E851FC47E730F10588F5EA5A20
:100D0000FF4F0C945B2706E221EE41EE6AE17CE79F
:100D100005C007E225EE45EE6BE17CE7C7010E94C6
:100D200029221AC106E221EE40EE68E17CE7F6CF07
:100D300007E225EE44EE69E17CE7F0CF06E221EE22
:100D400042EE6CE17CE7EACF07E225EE46EE6DE18C
:100D50007CE7E4CF08E221E045EE6EE17CE7DECF00
:100D6000F7018281882309F445C11092C004C801AB
:100D70009057839708F0DBC084E090E00E94012741
:100D80009093CD048093CC04F801E150F047E23217
:100D9000F10520F4E35AFF4F0C945B278091CC04BB
:100DA0008160ACC08091CD048860B4C08091CC04D7
:100DB0008260A4C08091CC0420C08091CC04886063
:100DC0009DC08091CD041EC08091CD048260A2C0E0
:100DD0008091CC04806192C08091CC0480628EC0EE
:100DE0008091CC0480648AC00E947F198091CC04D9
:100DF000806884C08091CC04886084607FC08091CA
:100E0000CD048260816086C08091CC048E7F76C0E4
:100E10008091CD04877F7EC08091CC048D7F6EC091
:100E20008091CC0420C08091CC04877F67C08091E2
:100E3000CD041EC08091CD048D7F6CC08091CC0408
:100E40008F7E5CC08091CC048F7D58C08091CC0493
:100E50008F7B54C00E947F198091CC048F774EC045
:100E60008091CC04877F8B7F49C08091CD048D7F9A
:100E70008E7F50C08091CC0482FB222720F991E024
:100E8000922790FB82F990FB83F938C08091CD04C2
:100E9000982F909591708E7F892B90FB81F93AC0A5
:100EA0008091CC0486FB222720F991E0922790FBC9
:100EB00086F924C00E947F198091CC0487FB2227E9
:100EC00020F991E0922790FB87F918C061E001C0FA
:100ED00060E08EE090E00E9407271EC08091CC0465
:100EE00084FB222720F991E0922790FB84F906C029
:100EF0008091CC04982F909590FB80F98093CC043E
:100F00000BC08091CD0483FB222720F991E092272A
:100F100090FB83F98093CD046091CC047091CD0453
:100F200084E090E00E9425270E947F1915C00631B9
:100F3000FCE71F0719F580918F048A7A91E009F484
:100F400090E090937A018111D2C269E285E194E048
:100F50000E949D210E94771E80916D04877009F484
:100F600030C3F7018281882309F42BC38091CD041B
:100F700082FF27C382E00E94CC1E23C30330FCE71C
:100F80001F0721F140F401158CE7180789F00130A3
:100F90001C4711F13EC00B35ECE71E0739F10C354B
:100FA000FCE71F07D9F00A351C4799F581E01FC0FF
:100FB0000E947F198FEF94E3ECE081509040E04075
:100FC000E1F700C000000E94EE20C6CF6FEF7FEF78
:100FD00080E090E00E9425270E948E058091CD043C
:100FE00082FB882780F991E0892701C080E00E9478
:100FF000E91E0FC006312CE7120709F4D6C2809112
:101000008F048272F801E052F847E531F10508F4E7
:1010100070C2F701828100811181882349F0C801E3
:101020000E941117D82E682FC8010E94391904C0D8
:10103000C8010E942019D82EB8018D2D0E94B71C1E
:101040000E94EE1C8C01982EF701D280A580A294FC
:101050009FE0A92280916D048770E9F0DD20D9F02E
:10106000812F807F803451F080E2800F883098F0AB
:10107000A11004C0812F807E803269F08091CD0460
:1010800082FF09C082E00E94CC1E80916D048770AF
:10109000CC24C3948111C12CB12EB2948FE0B8221C
:1010A0008B2D90E08C30910508F0F3C1FC01E158E4
:1010B000FF4F0C945B27812F807F1F70882311F0D6
:1010C0001295107FDD20B9F0112309F4D0C180E220
:1010D000800F883010F0911006C090918F04192B6A
:1010E00010938F0405C090918E04192B10938E04D9
:1010F0000E94771EBCC1802F0E94971A112309F409
:10110000C8C1005E083080F1992071F1109590916E
:101110008E04192310938E042AC0812F807F1F70A4
:10112000803211F01295107F992029F0F1E09F167E
:1011300009F441C04FC08091CD0482FD1BC0DD2069
:1011400069F0112339F090918F04192B10938F04BB
:101150000E94771E80E00E94FB1A9BC180E00E94E3
:10116000971A112309F495C1812F0E94701E0E94C5
:10117000771E8FC1DD2081F080919004AA2051F06C
:1011800021E0A21207C0182B181709F482C110938E
:1011900090047FC1812B16C0A11003C00E946A1E5B
:1011A00031C081E0A81609F474C1812F0E94AE19E4
:1011B0000E946A1E6EC1DD2041F095E09A1508F488
:1011C00068C1812F0E94B51964C1E4E0EA1508F4F2
:1011D00060C118C0DD2049F0AA2099F3F70185818C
:1011E00080FF45C18F708583ECCFAA2059F0093369
:1011F00009F04CC1FFEF27EE83E0F1502040804022
:10120000E1F742C1812F0E94AE1943C1812F86951B
:101210008695837019F0813059F03BC1DD2019F0BB
:10122000C801937002C080E090E00E94F72137C1AE
:10123000DD2019F0C801937002C080E090E00E94A8
:10124000D2212DC16D2D802F0E94BF1928C1812F61
:10125000837009F041C0D11020C1302F32953695EE
:101260003770330F330F802F8F7090E0032E02C042
:10127000880F991F0A94E2F704FF0BC04FE050E07B
:1012800002C0440F551F3A95E2F79A012095309518
:1012900002C020E030E0169516951370123099F0D8
:1012A00068F44091910450919204113029F0822BFE
:1012B000932B8423952304C0842B952B822B932B73
:1012C0000E947A19EAC0822B932B209191043091CD
:1012D000920482279327F4CFDD2019F0812F8170AB
:1012E00001C08695882309F4D8C0302F32953695F1
:1012F0003770330F330F802F8F7090E0032E02C0B2
:10130000880F991F0A94E2F704FF0BC04FE050E0EA
:1013100002C0440F551F3A95E2F79A012095309587
:1013200002C020E030E0169516951370123079F067
:10133000B8F44091950150919601113029F0822B1B
:10134000932B842395230EC0842B952B09C0822BCD
:10135000932B20919501309196018227932702C00B
:10136000822B932B0E94531998C01F70DD2039F0F7
:10137000812F0E946A19802F0E94B5198EC0802F7C
:101380000E94AE19812F0E94581987C0802F92EFBA
:10139000991699F1991538F0E0EF9E1659F0F1EF92
:1013A0009F1631F160C023EF921671F194EF9916F8
:1013B000D9F059C0DD2099F0E4E0EA1508F469C0DD
:1013C0001F7181E090E002C0880F991F1A95E2F723
:1013D00020919501309196018227932722C0F5E054
:1013E000FA1508F456C0ECCF8091CD0482FD1CC0E4
:1013F000DD2029F0812F8F7129C0DD20D9F3812FC5
:101400008F710E94581945C0DD2049F01F7181E09D
:1014100090E002C0880F991F1A95E2F702C080E0A1
:1014200090E00E94531935C0DD2099F01F71812F83
:101430000E946A198091CD0482FF07C028E0129FA4
:10144000C0011124836080936D04812F0E946A196A
:1014500020C081E00E94CC1E81E08A15D0F482E099
:101460000E94CC1E16C0DD2021F0AA2019F2802F88
:1014700072CEAA2021F2893349F49FEFE7EEF3E020
:101480009150E040F040E1F700C00000802F0E9442
:10149000971A88EF8B0D843010F40E941C22CC2008
:1014A000A9F080916D0480FD11C0F701128285952D
:1014B000859585950E946A19C7010E944106809111
:1014C0006D048595859585950E94581985E0F701ED
:1014D000DE01119601900D928A95E1F709811A813A
:1014E000C8010E942019B8010E94B71C6AC065E3B8
:1014F0002DCDE557FF4F0C945B278091E90180FFCC
:1015000012C08E7F8093E9016091E9017091EA0138
:101510008091EB019091EC010E94402410929F0475
:101520000E94382319CD81608093E90161E086959E
:1015300036C04EE854E268E974E22CC048E954E24F
:101540006EE874E227C049E154E263E274E222C02B
:1015500043E254E269E174E21DC04FEF53E26CE0F4
:1015600074E218C04CE054E26FEF73E213C045EE32
:1015700053E262EF73E20EC042EF53E265EE73E2B4
:1015800009C048E650E26AE770E204C04AE750E268
:1015900068E670E20E941B23DFCC61E081E00E94DC
:1015A0005324DACC0E94FD11D7CC80917A018111AD
:1015B00006C069E285E194E00E947521CBCC65E329
:1015C000F9CF2A96EBE00C94D626A1E2B0E0EBEE40
:1015D000FAE00C94B32685B7806885BF85B780682C
:1015E00085BF84B7877F84BF0FB6F894A895809194
:1015F0006000886180936000109260000FBE90E0F0
:1016000080E80FB6F89480936100909361000FBE5C
:101610008FEB9BE190937901809378010E943B15B9
:101620000E945A158091E20084608093E2007894D1
:101630008091DF018823A1F01091E9001F70909143
:10164000EC00892F817090FD80E8182B1092E90042
:101650008091E80083FD0E9435121F701093E9000D
:1016600082E084BD93E095BD9AEF97BD80936E00B4
:1016700081E08093930152985A9A53985B9A8FE82D
:1016800091E00197F1F700C0000030919301E4E987
:10169000F1E020E0231769F089B182FB882780F907
:1016A0004B9B02C092E001C090E0892B81932F5F99
:1016B000F1CF01E111E047E1C42E41E0D42ED80181
:1016C0008D918D018F3F11F00E94A01CC016D10694
:1016D000B1F707E111E0F80181918F018F3F11F01F
:1016E0000E94A01CF1E00E311F07A9F786E0E4E894
:1016F000F1E0DF01282F1D922A95E9F7EBE7F1E0F1
:10170000DF011D928A95E9F780E090E00E940127B1
:10171000873E9E4F11F00E940B1E82E090E00E94D7
:10172000F32680938A0184E090E00E940127909341
:10173000CD048093CC040E94BB1FEFEFF6E721E0BD
:10174000E150F0402040E1F700C000000E94BB1FC4
:101750008091840180FF08C06FEF7FEF80E090E010
:101760000E9425270E94EE2083E090E00E94F3264D
:1017700090E00E947A1983E08093B70180E2809321
:10178000EE010E94AB256DE070E087E691E00E94DB
:101790000E12892B09F043C08091B70163E070E01D
:1017A00081FD3AC084E691E00E940E12892BB9F5C2
:1017B0006DE070E084E591E00E940E12892B79F5CE
:1017C0000E943421DC01CB01805A9541AF4FBF4FBD
:1017D0008093B8049093B904A093BA04B093BB0467
:1017E000E1EFF1E080E092E0DF019C011D922150E9
:1017F0003040E1F7F093F803E093F7038FEF9FEFAA
:101800009093F0018093EF0181E08093BD04809379
:10181000BC041092B80103C081E691E0C5CF80916D
:101820008101811136C080E090E00E940127873E4F
:101830009E4F21F00E940B1E0E94A32488E090E09E
:101840000E94FB266093E9017093EA018093EB010B
:101850009093EC016E7F71F40E94A32488E090E0E5
:101860000E94FB266093E9017093EA018093EB01EB
:101870009093EC010E942D2410929F048091E90125
:1018800080FF04C060E086950E94532481E080932D
:10189000810180E091E09093C4048093C30430E41C
:1018A000632E8091DF01853009F06CC0DD24D39474
:1018B00000E112E18091DF01853009F04EC0809196
:1018C000DF01843009F438C010929F0480918301B5
:1018D00081110DC0D09283018091E901982F917000
:1018E000909382018E7F8093E9010E9438230E94A9
:1018F000AB221092C70468E170E00FB6F894A89587
:10190000609360000FBE6092600083B7817F846047
:1019100083BF83B7816083BF7894889583B78E7FB8
:1019200083BF0FB6F894A89580916000886180937A
:101930006000109260000FBE8091DE01882309F4E0
:10194000B9CF0E94BB1FE4E8F1E081918111E2C3AD
:1019500071E0EA38F707C9F7ADCF0E947F190E94FE
:101960001C221092830180918201882349F080918A
:10197000E90181608093E90160E086950E9453242B
:101980000E9422230E94BB1F2BE8C22E21E0D22EF0
:1019900004E811E021E931E0D801F60191918D913F
:1019A0002E173F0719F09817C9F306C0981304C003
:1019B0000E94931FA12C34C0B12CD8017D908D01C1
:1019C000F6018080872409F1A12C99249394882D15
:1019D0008921A1F0AB8EBC8E91E0872D892109F47D
:1019E00090E09D8F0E9440218160782F9F8F8E8F85
:1019F0004B8D5C8D6D8D8F8D0E94A405A394990CE9
:101A0000F7E0AF12E4CFD6017C92B394BFEFCB1ACC
:101A1000DB0AE6E0BE12D1CF0E943421AA24A394AF
:101A200080919F04882309F441C080919E04E09135
:101A3000E901E695E81BE0939A04823061F4E695AB
:101A4000F0E0EC58FE4FE4910E2F10E09EE6C92E18
:101A500093E2D92E06C000ED17E087E6C82E80E29B
:101A6000D82E80919B04882361F010929B040E94E1
:101A70004021909399048093980410929D041092B1
:101A80009C040E944021E0919804F09199048E1BDF
:101A90009F0B8F3F9F4750F40E0F1F1F1093990409
:101AA0000093980488E994E0F6010995912CB12CF3
:101AB000BDEF8B2E772473941CEF512E80919301F0
:101AC000981608F08DC0092D10E0E9B1E2FBEE2771
:101AD000E0F94B9B02C092E001C090E08E2F892B71
:101AE000D801AC56BE4FEC912E2F237030E0482F1A
:101AF000082E000C550B2417350709F46FC0EE0FA4
:101B0000EE0FE82BEC93EF70F0E0E25EFE4F9801F1
:101B10002E563E4F69019081D9018C91890F8C938B
:101B2000843034F1F801EF56FE4F80818F5F80835F
:101B30000E944021998A5A8A7B8A8160782F9D8BE6
:101B40008C8B492D5CEF61E08D890E94A4050E9479
:101B500040219E8A5F8A188E8160782F9A8F898FA4
:101B6000492D5CEF60E08A8D0E94A40521E001C050
:101B700020E0F60180818D3F2CF5F801EF56FE4FF5
:101B80008081815080830E9440219F82888679864F
:101B90008160782F9B878A87492D5DEF61E08B8577
:101BA0000E94A4050E9440219C868D861E8681602D
:101BB000782F988B8F87492D5DEF60E088890E9490
:101BC000A40521E0D6018C91082E000C990B64E04D
:101BD00070E00E944727F6018083B22A93946ECF6B
:101BE000B1100E9434218091BD04882309F491C171
:101BF00081EF91E09093F8038093F70386EB91E0F7
:101C00000E94E9118091EE01F6E08F9FC00111243E
:101C1000811522E0920714F080E090E08F509E4FF3
:101C20009093F8038093F70380EB91E00E94F71103
:101C30009091950180919601E82EF12CE114F10428
:101C400021F4E92EF82E80E001C088E09701A4E09D
:101C500036952795AA95E1F72115310511F08C5F8E
:101C600079019701369527953695279521153105E8
:101C700011F08E5F7901970136952795232B09F096
:101C80008F5F813059F038F0823059F0833061F441
:101C90008CE991E00BC08BEA91E008C086EA91E004
:101CA00005C081EA91E002C086E991E00E94F71147
:101CB00085E991E00E94F7110E941C2281FB002718
:101CC00000F982FB112710F980FF03C080E991E041
:101CD00002C08BE891E00E94F711002319F086E81A
:101CE00091E002C081E891E00E94F711112319F000
:101CF0008CE791E002C087E791E00E94F7118091A4
:101D0000EF019091F001892B31F48091BC0488237C
:101D100009F4FFC0E7C08091BD048823B1F380912E
:101D2000B8018111F2CF0E94C5222091EF013091BC
:101D3000F0012115310549F380E0282E312CCC2407
:101D4000C394D12C082E02C0CC0CDD1C0A94E2F7FF
:101D5000A60142235323452B11F48F5FEECF9091C0
:101D6000B701910165E0220F331F6A95E1F790FFFB
:101D700013C055E0369527955A95E1F7220F220FAB
:101D8000220F20930A0110920D01295F20930B016D
:101D900083E080930E0111C08295880F8076809336
:101DA0000A01220F232F221F330B319520930D019F
:101DB000815E80930B0110920E0124E630E047E033
:101DC00050E068E071E088E70E945326892B09F013
:101DD0009CCF8091B70180FF64C080E2E7E9F1E029
:101DE000DF011D928A95E9F735E0220C331C3A9504
:101DF000E1F7E2E3F1E0F9A3E8A34EE251E0A8A1A4
:101E0000B9A18D91B9A3A8A3FA019191AF01910154
:101E1000290F311DB9016F507E4F2B0190E089567B
:101E20009E4FFC0107E09F01281B390B88248394F7
:101E300001C0880C2A95EAF7B201912CDB011D91B3
:101E4000BD011821202F29192770722E022E000C97
:101E5000330BB12F01C0BB0F7A94EAF77B2E31957B
:101E6000219531092770332701C016952A95EAF785
:101E7000712A1081712A7082939428E09212DECF29
:101E8000015031960F3F79F668A179A166537140F0
:101E900009F0B5CF04E610E020E230E047E951E078
:101EA0000DC0C10125E0880F991F2A95E1F7AC010B
:101EB0004F505E4F04E610E020E230E060E488E737
:101EC0000E947426892B09F020CFC094D094809171
:101ED000EF019091F001C822D922D092F001C09276
:101EE000EF0113CF0E9434210091B8041091B9047E
:101EF0002091BA043091BB04DC01CB01801B910B13
:101F0000A20BB30B8F3F9F4FAF4FBF4710F40E9400
:101F1000AB22A11001C0B1100E94C52286E0E5ED00
:101F2000F4E0DE01119601900D928A95E1F710928E
:101F3000D7041092D8041092D9041092DA048B813D
:101F4000811104C08C81882309F453C08091D3048B
:101F50009091D4040E9425219C019091CE04992354
:101F600009F4EEC02531310508F443C09F3F19F054
:101F70009F5F9093CE041B81112361F00E94612525
:101F8000111614F491E001C09FEF899F802D112458
:101F90008093D7041C81112361F00E9461251116E2
:101FA00014F491E001C09FEF899F802D112480934C
:101FB000D8043091D7043323E1F02091D8042223B0
:101FC000C1F045EB3403C0011124992319F090931B
:101FD000D70403C081E08093D70465EB2603C001DA
:101FE0001124992319F09093D80403C081E08093C1
:101FF000D8048D81811104C08E81882309F453C0D7
:102000008091D1049091D2040E9425219C0190914D
:10201000CF04992309F499C02135310508F443C050
:102020009F3F19F09F5F9093CF041D81112361F0B2
:102030000E943F25111614F491E001C09FEF899F83
:10204000802D11248093D9041E81112361F00E94F8
:102050003F25111614F491E001C09FEF899F802D58
:1020600011248093DA043091D9043323E1F02091D4
:10207000DA042223C1F075EB3703C0011124992340
:1020800019F09093D90403C081E08093D90435EB13
:102090002303C0011124992319F09093DA0403C09B
:1020A00081E08093DA0446E050E0BE016F5F7F4F2D
:1020B00085ED94E00E946E27892BA9F48091D704C6
:1020C00081110FC08091D80481110BC08091D90477
:1020D000811107C081E09091DA04911103C080E082
:1020E00001C081E080FD0E94812586E0FE013196DD
:1020F000A5EDB4E001900D928A95E1F70E941C22B3
:102100009091B901891709F4CCCB8093B9010E9451
:102110003421C7CB09BD19BD09B400FEFDCF8091A4
:10212000D8008F7D8093D8008091E00082608093FA
:10213000E0008091E00081FDFCCF0E947F19BACBC6
:102140002B30310508F014CF54CF2B30310508F077
:1021500069CFA9CF8091E10187FF11C08091E8008C
:1021600082FD05C08091DF018111F8CF11C08091FF
:10217000E8008B770BC08091DF01882349F08091C4
:10218000E80080FFF8CF8091E8008E778093E80028
:102190000895982F973068F59093E900981739F0D3
:1021A0007091EC002091ED005091F00003C0242FBD
:1021B000762F50E021FD02C09F5FECCF3091EB0005
:1021C0003E7F3093EB003091ED003D7F3093ED008A
:1021D0003091EB0031603093EB007093EC00209372
:1021E000ED005093F0002091EE0027FDE5CF80E058
:1021F00008958F708093E90081E008952091E701B0
:102200003091E8012617370748F06115710539F458
:102210002091E8002E772093E80001C0B901FC016D
:1022200020E06115710579F18091DF018823F1F1DA
:102230008530F1F18091E80083FD3CC08091E80099
:1022400082FD2EC08091E80080FFEBCF2091F3004B
:102250008091F20090E0922B6115710551F0883069
:10226000910538F421912093F10061507109019694
:10227000F3CF21E0089709F020E08091E8008E7705
:102280008093E800CECF2111CFCF0AC08091DF012B
:10229000882361F0853061F08091E80083FD0AC0F9
:1022A0008091E80082FFF2CF80E0089582E00895F7
:1022B00083E0089581E0089543E050E0BC0182E0AE
:1022C0000E948C20089546E050E0BC0182E00E940C
:1022D0008C200895CF93DF93682F8A3011F481E02A
:1022E00003C08D3021F480E00E94EB226FC080910A
:1022F000F7039091F80326E0FC01A1EFB3E0019011
:102300000D922A95E1F7603E30F026E0FC01119233
:102310002A95E9F70AC0F6E06F9FB0011124675CC7
:102320007C4F46E050E00E94EA26C091F703D0912E
:10233000F80346E050E0BE0181EF93E00E946E2773
:10234000892B49F19E01215F3140A90185E0569515
:1023500047958A95E1F781E090E0BC0102C0660FE5
:10236000771F4A95E2F74091EF015091F001462B1B
:10237000572B2B5F3F4F65E0369527956A95E1F720
:1023800002C0880F991F2A95E2F7842B952B909312
:10239000F0018093EF019E012B5E31404091EE01F0
:1023A000642F70E0C9010E949F26481B463010F43C
:1023B000240F311D211582E0380710F020E030E0B5
:1023C0002F503E4F3093F8032093F703DF91CF91C6
:1023D0000895CF93DF93EC01FE018491882321F0CF
:1023E0000E946A112196F8CFDF91CF9108950E9443
:1023F000E91181E00E94EB2208958091E90180FFBC
:1024000008C0869582588F77853018F40E949824EA
:10241000089561E082E00E9453240895EF92FF92B4
:102420000F931F93CF93DF93EC017B0164E670E081
:1024300088E70E94B1258C01EC0EFD1ECE15DF054C
:1024400061F017FD0AC0FE01849164E670E00E940D
:1024500024268C012196892B89F30E949B26C80192
:10246000CDB7DEB7E6E00C94DB26AAE2B0E0EBE302
:10247000F2E10C94C226E1EEF1E089EE91E02091C8
:10248000F10021938E179F07D1F78091E2018330ED
:1024900009F461C030F4813071F0823009F49BC0DE
:1024A000B2C08A3009F487C08B3009F46CC089301F
:1024B00009F0A9C020C08091E101813A09F0A3C0D0
:1024C0008091E800877F8093E8008091E5019091FA
:1024D000E601892B21F460E28DEB91E003C060E01E
:1024E00080E090E070E00E94FE108091E8008B7721
:1024F0008093E80088C08091E101813209F083C0B7
:102500008091E5019091E601029708F07CC08091EE
:10251000E800877F8093E8008091E80082FD05C095
:102520008091DF018111F8CF6EC02091F30080917E
:10253000F20090E0922B029731F48091F10081300B
:1025400011F0863021F48091F1008093BC018091DC
:10255000E8008B7754C08091E101813A09F053C0C3
:102560008091E5019091E601892B09F04CC08091A2
:10257000E800877F8093E8008091E80080FFFCCF2F
:1025800080910F0137C08091E1018132E1F58091A6
:10259000E5019091E601892BB1F58091E800877FF4
:1025A0008093E8000E94AA108091E30180930F01BC
:1025B0000E947F1928C08091E101813221F580912C
:1025C000E800877F8093E8000E94AA108091E401D0
:1025D0008093BB0118C08091E101813AA1F4809100
:1025E000E800877F8093E8008091E80080FFFCCFBF
:1025F0008091BB018093F1008091E8008E778093F9
:10260000E8000E94AA108091E80083FFCEC180916B
:10261000E1019091E201492F50E04A30510508F064
:10262000C4C1FA01E056FF4F0C945B27803821F0BB
:10263000823809F0BAC108C08091DD019091DE01B5
:10264000992389F082600FC08091E5018F708730F7
:1026500008F0ABC18093E9008091EB0085FB8827EF
:1026600080F91092E9009091E800977F9093E8003C
:102670008093F1001092F10065C1282F2D7F09F0A1
:1026800094C1882319F0823061F08FC18091E301F9
:10269000813009F08AC1933009F080E08093DE0137
:1026A0002EC08091E30181112AC08091E5018F70D5
:1026B0002FEF280F263008F078C18093E900209191
:1026C000EB0020FF1CC0933021F48091EB0080626E
:1026D00014C09091EB0090619093EB0021E030E00A
:1026E000A90102C0440F551F8A95E2F74093EA0002
:1026F0001092EA008091EB0088608093EB001092CA
:10270000E9008091E800877F20C181114EC11091BE
:10271000E3011F778091E3008078812B8093E300B1
:102720008091E800877F8093E8000E94AA10809142
:10273000E80080FFFCCF8091E30080688093E30095
:10274000111102C082E001C083E08093DF012DC13E
:102750008058823008F029C18091E3019091E40112
:102760008C3D53E0950779F583E08A838AE289837B
:102770004FB7F894DE01139620E03EE051E2E32FDC
:10278000F0E050935700E49120FF03C0E295EF7012
:102790003F5FEF708E2F90E0EA3010F0C79601C0D7
:1027A000C0968D939D932F5F243149F74FBF809141
:1027B000E800877F8093E8006AE270E0CE0101962E
:1027C0000E94FE10AEC04091E5015091E601292F14
:1027D000332723303105A9F068F42130310509F49D
:1027E000F3C02230310509F0E0C08BE390E0E0EC6B
:1027F000F2E044C02132310521F12232310571F17C
:10280000D4C0992781309105A1F058F0029709F0C2
:10281000CCC0EDE0F3E0E4918E2F90E0EDE0F3E04A
:102820002AC0E5E3F3E0E4918E2F90E0E5E3F3E0E6
:1028300022C0E1E2F3E0E4918E2F90E0E1E2F3E0E8
:102840001AC04115510509F4C4C04130510509F0C1
:10285000ACC089E090E0EBEEF2E010C0411551050C
:1028600009F4BCC04130510509F09FC086EB90E0EF
:10287000EAECF1E003C0009709F497C02091E8006A
:10288000277F2093E8002091E7013091E80182172B
:10289000930708F49C0140E02115310589F18091EE
:1028A000DF01882309F43DC08530D9F18091E8002B
:1028B00083FD37C08091E80082FD2FC08091E80041
:1028C00080FFEACF4091F3008091F20090E0942BDA
:1028D0002115310559F08830910540F44491409319
:1028E000F1003196215031090196F2CF41E008976D
:1028F00009F040E08091E8008E778093E800CCCF2B
:102900004111CDCF0AC08091DF01882351F085307D
:1029100041F08091E80083FD04C08091E80082FFCF
:10292000F2CF8091E8008B778093E8003EC080383A
:10293000E1F58091E800877F8093E8008091E001D5
:102940008093F1008091E8008E778093E8000E94E8
:10295000AA102BC0811129C08091E3019091E4015C
:102960009927029714F58091E800877F8093E8000B
:102970001091E3011093E0010E94AA10111106C00A
:102980008091E30087FD02C081E001C084E0809374
:10299000DF0142E061EC81E00E94C91042E261EC9B
:1029A00082E00E94C9108091DF018091E80083FFDE
:1029B0001AC08091E800877F8093E8008091EB0047
:1029C00080628093EB000FC082E190E0EBEFF2E0D9
:1029D00055CF89E090E0E2EDF2E050CF80E490E066
:1029E000E0E8F2E04BCFAA96E3E00C94DE261F92DB
:1029F0000F920FB60F9211242F933F934F935F9333
:102A00006F937F938F939F93AF93BF93CF93DF93F6
:102A1000EF93FF93C091E900CF708091EC00D82F25
:102A2000D17080FDD0E81092E9008091F000877F9E
:102A30008093F00078940E9435121092E900809102
:102A4000F00088608093F000CD2BCF70C093E90038
:102A5000FF91EF91DF91CF91BF91AF919F918F91B6
:102A60007F916F915F914F913F912F910F900FBE8A
:102A70000F901F901895E8EDF0E080818E7F8083A5
:102A80001092E2001092DA001092E100A0EEB0E0A5
:102A90008C9181608C9380818F77808319BCA7EDA6
:102AA000B0E08C918E7F8C9380818F7E808310929A
:102AB000BA010895A0E0B0E0E0E6F5E10C94BD268F
:102AC000C8EDD0E088818F7E8883E7EDF0E08081DB
:102AD0008160808384E082BF81E08093BA01888135
:102AE0008E7F888302EE10E0F80110821092DA00E7
:102AF00081EEC82ED12CF601108288818F778883D1
:102B000088818068888388818F7D888319BC109232
:102B1000DF011092E0011092DE011092DD0190EED3
:102B2000E92EF12CF70180818B7F80838881816081
:102B3000888342E060E080E00E94C910F601808155
:102B40008E7F8083F80180818160808380818860AE
:102B50008083F70180818E7F808388818061888374
:102B6000CDB7DEB7E8E00C94D9261F920F920FB6CE
:102B70000F9211242F933F934F935F936F937F9303
:102B80008F939F93AF93BF93EF93FF938091E10057
:102B900082FF09C08091E20082FF05C08091E100C0
:102BA0008B7F8093E1008091DA0080FF2AC08091C2
:102BB000D80080FF26C08091DA008E7F8093DA00F3
:102BC0008091D90080FF18C080E189BD82E189BD74
:102BD00009B400FEFDCF81E08093DF018091BA014E
:102BE00081110FC00E943B150E945A158091E2008E
:102BF00084608093E20005C019BC1092DF0110923E
:102C0000BA018091E10080FF17C08091E20080FF4F
:102C100013C08091E2008E7F8093E2008091E200F9
:102C200080618093E2008091D80080628093D80018
:102C300019BC85E08093DF018091E10084FF30C002
:102C40008091E20084FF2CC080E189BD82E189BDD2
:102C500009B400FEFDCF8091D8008F7D8093D8000D
:102C60008091E1008F7E8093E1008091E2008F7E71
:102C70008093E2008091E20081608093E200809185
:102C8000E001882311F084E007C08091E30087FD14
:102C900002C081E001C083E08093DF018091DF0109
:102CA0008091E10083FF27C08091E20083FF23C071
:102CB0008091E100877F8093E10082E08093DF01D3
:102CC0001092E0018091E1008E7F8093E10080917D
:102CD000E2008E7F8093E2008091E2008061809329
:102CE000E20042E060E080E00E94C9108091F000C4
:102CF00088608093F000FF91EF91BF91AF919F9119
:102D00008F917F916F915F914F913F912F910F9094
:102D10000FBE0F901F9018952091E4003091E500B0
:102D200095E64091EC00842F817040FF23C0809194
:102D3000E80080FD1DC08091DF01882399F0853077
:102D400099F08091EB0085FD11C04091E400509115
:102D5000E5002417350729F3915011F09A01E1CFCE
:102D600084E0089582E0089583E0089581E0089565
:102D700080E008954091E80042FFDDCF0895FB0117
:102D8000782F777023E0969587952A95E1F7880F3D
:102D9000991F880F991FE80FF91F40E050E080E06D
:102DA000219130E0072E02C0369527950A94E2F76C
:102DB00021703327042E01C0220F0A94EAF7822BD8
:102DC0004F5F5F4F4430510559F70895962F977024
:102DD000A1E001C0AA0F9A95EAF793E0769567956E
:102DE0009A95E1F7660F771F660F771FFA01E60FD6
:102DF000F71F40E050E0682F70E090819B01042EA7
:102E000002C0369527950A94E2F72170219529276B
:102E10002A23292721934F5F5F4F4430510569F7DB
:102E20000895A0E0B0E0E7E1F7E10C94BC267C0156
:102E300000919501109196018091910490919204D6
:102E4000082B192BCFE0D0E0CC24C394D12CC601A1
:102E50000C2E02C0880F991F0A94E2F78023912359
:102E6000892B21F4219798F7B12C09C0BC2EB7010A
:102E70008C2F0E94B71C0E94EE1C019799F38B2D9A
:102E8000CDB7DEB7E9E00C94D826CF93DF93EC0101
:102E90000E941117BE010E94B71C0E94EE1CDF9118
:102EA000CF910895CF93FC0180819181238134815A
:102EB000232B31F09F3F31F491E08F3F19F403C091
:102EC00091E001C090E0C92FC17090FD1CC08081CD
:102ED00091810E94451792959F70963079F010F479
:102EE000925001C09A50923088F4803F71F018F4EB
:102EF000883E60F40AC0843F49F407C0883E28F049
:102F0000813F21F402C0C0E001C0C1E08C2FCF910D
:102F10000895A1E1B0E0EFE8F7E10C94B9268C0147
:102F200085E0F801DE011D9601900D928A95E1F78A
:102F3000F801E280909135042091360440913804E4
:102F4000509139044115510531F02F3F31F481E0A2
:102F50009F3F19F403C081E001C080E080FD51C1B2
:102F6000F801D080C180A380B48085E3882E84E0FE
:102F7000982EF0903704B501641B750BFF2009F4FF
:102F8000FDC080913A04382F307F683C710508F00D
:102F9000C7C0311188C02C1111C09D110FC0FE2C6B
:102FA000E1100CC08F70806180933A04C4010E94CC
:102FB000410680913A04F80185833DC1A114B10412
:102FC00039F0FFEFCF1206C081E0DF1203C003C06B
:102FD00081E001C080E080FD03C081E08E2502C059
:102FE00080E090E080FF05C04E2D6C2D8D2D0E945D
:102FF000001FA114B10439F02FEFC21206C081E006
:10300000D21203C003C081E001C080E080FD03C094
:1030100081E08E2502C080E090E0682F6170B62EBE
:1030200080FF37C04E2D6C2D8D2D0E94001FF82E75
:1030300081112FC0DD86CE868D859E850E94451725
:10304000292F22952F70243020F49F70223028F0F1
:1030500009C02A50223088F017C0992351F08111FD
:1030600008C0E9C0992329F0F8019581907F09F4FF
:10307000E2C0805E883040F4DEC0803F08F4DBC0F0
:10308000815F833008F4D7C0C8010E944106FB2C41
:10309000D2C0FE2CEE2009F4CEC080913A048160AB
:1030A00080933A0448C02C1106C09D1104C0E11061
:1030B00002C0F80185C0C8010E945217882351F14F
:1030C000EE2041F120913A04822F82958F7090E09A
:1030D000029774F0809135049091360498878F831D
:1030E0001986BB86AA862C87CE0107960E944106C8
:1030F00086E0F801A5E3B4E001900D928A95E1F72E
:103100000E942A1F0AC02C15C1F0C8010E94521744
:1031100081111DC0C8010E944106FF24F3948BC099
:103120003111F1CF85E394E00E94410686E0F4017D
:1031300011928A95E9F7F12C7EC09D11E6CFE1103E
:10314000E4CFF8018583C8010E94410654C0EE20F7
:1031500009F320913A04822F82958F7090E00297B4
:103160003CF280913504909136049A8389831B82C6
:10317000BD82AC822E83CE010196B8CF683C71052A
:10318000D0F5FE2CEE2031F22C1127C09D1125C068
:1031900020913A0420FD18C0822F82958F70482F0D
:1031A00050E04115510581F0F80125834F3051055C
:1031B00041F08F5F982F9295907F822F8F70892B8F
:1031C0008583C8010E94410686E0F801A5E3B4E0CA
:1031D00001900D928A95E1F72EC0C8010E94521706
:1031E000811186CF80913A04816080933A04C801AE
:1031F0000E94410620C086E0F40111928A95E9F709
:103200001AC0EE2009F486CFC8010E945217F82E8A
:10321000882309F47FCF86E0F801A5E3B4E00190AC
:103220000D928A95E1F780913504909136040E94C1
:1032300045170E942A1F8F2D6196ECE00C94D5262D
:10324000292F963058F4873048F490E06DEF73E002
:1032500037E0239F800D911D112406C02C5F223082
:1032600030F469EF73E090E00E94BF16089580E0AB
:103270000895282F862F963060F4273050F4622F5F
:1032800070E027E0929F600D711D11244DEF53E017
:1032900007C09C5F923030F4622F70E049EF53E03A
:1032A0000E94E616089590939601809395010895E3
:1032B00021E030E002C0220F331F8A95E2F720950B
:1032C00030958091950190919601822393230E94DD
:1032D0005319089521E030E002C0220F331F8A9570
:1032E000E2F78091950190919601822B932B0E9499
:1032F0005319089590939204809391040895109225
:103300008F0480910F01882331F08091CC0487FFD6
:1033100002C08EE101C086E0E7E1F4E0DF011D922A
:103320008A95E9F780E090E00E94F72180E090E044
:103330000E94D22110928E040E94771EE5EDF4E0E7
:1033400086E0DF011D928A95E9F71092CE04109273
:10335000CF041092D0040E9481250895882321F083
:103360000E94701E0E94771E0895882339F0909164
:103370008F04892B80938F040E94771E0895662303
:1033800009F45CC08D3C21F40E946125819504C044
:103390008E3C29F40E9461258093D804C5C08F3CDF
:1033A00021F40E946125819504C0803D29F40E948A
:1033B00061258093D704B8C0893D19F40E943F2548
:1033C00005C08A3D31F40E943F2581958093D90440
:1033D000ABC08B3D21F40E943F25819504C08C3DFC
:1033E00029F40E943F258093DA049EC09FE2980F43
:1033F000983078F421E030E0A90102C0440F551F55
:103400009A95E2F7CA019091D604892B8093D6044D
:103410008BC08D3D21F48091D00481600CC08E3D25
:1034200021F48091D004826006C08F3D09F07CC0F9
:103430008091D00484608093D00476C08D3C39F4B0
:103440009091D80497FF35C01092D80459C08E3C93
:1034500029F49091D8041916BCF32BC09091D7048D
:103460008F3C29F497FF25C01092D70449C0803DB6
:1034700019F41916CCF31DC09091D904893D29F493
:103480001916BCF41092D9043BC08A3D19F497FF79
:1034900010C0F8CF8B3D39F49091DA0497FF09C042
:1034A0001092DA042DC08C3D21F49091DA041916A3
:1034B000BCF39FE2980F983080F421E030E0A9013E
:1034C00002C0440F551F9A95E2F7CA01809590916A
:1034D000D60489238093D60413C08D3D21F48091B6
:1034E000D0048E7F0BC08E3D21F48091D0048D7F5F
:1034F00005C08F3D29F48091D0048B7F8093D00448
:103500008091D704811106C08091D804811102C036
:103510001092CE048091D904811106C08091DA0402
:10352000811102C01092CF040E9481250895882342
:1035300009F460C0823869F40E941C2281FF5AC0DD
:1035400069E385E194E00E949D210E94771E69E372
:103550000EC0833899F40E941C2280FF4BC063E5A3
:1035600085E194E00E949D210E94771E63E585E13C
:1035700094E00E9475210E94771E0895843869F4B2
:103580000E941C2282FF36C067E485E194E00E941D
:103590009D210E94771E67E4EACF9CEF980F913A35
:1035A00010F4682FE4CF90E2980F983050F48770B1
:1035B00091E001C0990F8A95EAF7892F0E94701E49
:1035C000DACF9BE5980F933028F480E090E00E94DA
:1035D000F721089598E5980F9B3128F480E090E05A
:1035E0000E94D221089593E3980F933118F460E07C
:1035F0000E94BF190895CF93882309F4BEC0C82F35
:103600008238B1F40E941C2281FDB7C069E385E1D4
:1036100094E00E949D210E94771E2FEF87EE93E099
:10362000215080409040E1F700C0000069E317C0DE
:103630008338E1F40E941C2280FD9FC063E585E190
:1036400094E00E949D210E94771E2FEF81EE94E06E
:10365000215080409040E1F700C0000063E585E123
:1036600094E00E9475210E94771E87C08438B1F4CF
:103670000E941C2282FD81C067E485E194E00E94E3
:103680009D210E94771E2FEF81EE94E02150804013
:103690009040E1F700C0000067E4E1CF8CEF8C0FB1
:1036A000813AC0F580910F018823E1F08091CC042C
:1036B00087FF18C0EC2FE695E695E695F0E0EB5E07
:1036C000FB4F8281282F30E04C2F477081E090E043
:1036D00002C0880F991F4A95E2F782239323892B12
:1036E00061F412C0E7E1F4E08DE194E02191C217AA
:1036F00021F08E179F07D1F707C06C2F85E194E06A
:103700000E9475210E94771E6C2F85E194E00E9433
:103710009D21A9CF80E28C0F883068F4C77081E0CA
:1037200090E001C0880FCA95EAF790918F04892B29
:1037300080938F0498CFEBE5EC0FE33040F4F0E09A
:10374000EA5CFE4F808190E00E94F72116C0E8E518
:10375000EC0FEB3150F4F0E0EE0FFF1FE75CFE4F93
:10376000808191810E94D22108C083E38C0F833134
:1037700020F461E08C2F0E94BF19CF91089580E062
:1037800008959091CC0492FF0DC0282F2871283005
:1037900019F4877F846006C0282F2471243011F427
:1037A0008B7F886093FF0DC0282F2871283119F472
:1037B000877E846106C0282F2471243111F48B7E0A
:1037C00088612091CD0420FF0DC0382F387138302A
:1037D00019F4877F816006C0382F3171313011F4C0
:1037E0008E7F886021FF0DC0282F2871283119F4A1
:1037F000877E816106C0282F2171213111F48E7ED0
:10380000886194FD877E08958238910569F1B0F44E
:103810008133910509F475C048F48932910509F4A2
:1038200067C08A32910509F471C008958533910506
:1038300009F459C089339105B9F00895833E910583
:1038400089F138F4803E9105D1F0823E910529F14D
:103850000895863E9105C9F1873E9105D9F1843ED0
:10386000910509F06CC027C02091CC0420FD57C001
:1038700021FD55C02091CD0423FD5BC008958091AA
:10388000CC0480FD48C08091CD0480FF48C0809169
:10389000CC0484FD46C083EE51C08091CC0482FFED
:1038A0003CC0F5CF8091CC0482FD37C08091CD041F
:1038B00080FD35C0ECCF8091CD0481FF36C0809172
:1038C000CC0484FD2EC087EE39C08091CC0483FFE8
:1038D0002AC0F5CF8091CC0483FD25C08091CD0412
:1038E00081FD23C0ECCF8091CC0485FD22C01FC098
:1038F0008091CC0485FD1BC08091CD0483FF19C04D
:103900000AC08091CC0486FD16C017C08091CC04FB
:1039100086FD13C010C089E311C082EE0FC080EE97
:103920000DC080E00BC086EE09C084EE07C085E3C1
:1039300005C089E203C08AE201C081E390E00895F6
:10394000F894E82FE295EF70F0E031A1282F2F7066
:1039500081E090E001C0880F2A95EAF7982F9095B2
:10396000932391A392A1892B82A378940895763012
:10397000A0F4673070F5843070F59AE2899FF00109
:10398000112487E0789FE00DF11D1124E60FF11D51
:10399000EE0FFF1FE758F74F19C07D3F59F4611133
:1039A00018C08430C0F494E0899FF0011124E753DB
:1039B000F64F0CC07C3F69F461110BC0843058F4A1
:1039C00094E0899FF0011124E553F64F859194917D
:1039D000089580E001C081E090E008951F93CF93A7
:1039E000DF930E94041CEC01C11580E5D807E8F5BF
:1039F000C11590E4D90708F0A8C0C03ED10530F544
:103A0000CD3CD10508F094C0C83AD10578F4C53A48
:103A1000D10508F083C0C130D10509F47CC008F499
:103A2000F2C0C430D10508F0F1C0EDC0C33CD105EF
:103A300008F0E9C0C85AD0E0CC0FDD1FC75CDE4FEC
:103A40000990D881C02DCE019464E1C0C11580E2F7
:103A5000D80708F0CBC0C11591E0D90708F06BC0BA
:103A6000C83ED10508F4D2C0CEC0C03682E5D80722
:103A700028F5C03492E5D90708F079C0C03282E554
:103A8000D80708F06CC0C11592E5D90708F481C0C9
:103A90004C2F4695469580E2489FA0011124C370A3
:103AA00021E030E0C90102C0880F991FCA95E2F7F2
:103AB000EA01C82BD92BCE019D68A9C0C03A82E586
:103AC000D807B8F48C2F8F71C03892E5D90708F069
:103AD0007BC08695869590E2899F90011124C370E2
:103AE00081E090E002C0880F991FCA95E2F79A68BA
:103AF00068C0C03C82E5D80708F46DC0C03E92E5BE
:103B0000D90708F080C0CF71DD27DC2FCC27CE018C
:103B1000806F906A7CC081E090E079C0C55AD0E0A7
:103B2000CA5CDE4F8881C82FD0E0CE0190646FC0A0
:103B3000CE0190656CC08D2F0E94C11B182FCE0145
:103B400099270E94041C1F715CC0CE0199270E9416
:103B5000041CCC27DF70D06A8C2B9D2B58C0CF71F2
:103B6000D0E0DC2FCC27CE01816F906A50C08C2F23
:103B70008F718695869590E2899F90011124C3707C
:103B800081E090E002C0880F991FCA95E2F79C6817
:103B900018C08C2F8F710E94C11B95E0D695C795D8
:103BA0009A95E1F7CF70D0E0DC2FCC27282F30E0BA
:103BB00084FF05C084E0220F331F8A95E1F7D069A6
:103BC000CE01822B932B23C090E0D82FCC27CE019F
:103BD000846F906A1CC08C2F8F710E94C11B8F71E3
:103BE00090E0D82FCC27CE01906211C08D2F8F711D
:103BF0000E94C11B182FCE0199270E94041C1F711F
:103C00009062912B04C080E090E001C0CE01DF9172
:103C1000CF911F91089567EE7EEF80E090E00E94C3
:103C2000252760E082E090E00E94072760E083E0C3
:103C300090E00E940727109292041092910460E095
:103C400074E184E090E00E94252760E086E090E047
:103C50000E9407276FEF87E090E00E94072740E06F
:103C600050E0BA0188E090E00E94192760E08DE002
:103C700090E00E94072740E050E0BA0188E190E020
:103C80000E94192760E087E190E00E94072740E04A
:103C900050E0BA018CE190E00E94192760E070E0EA
:103CA00080E290E00E94252740E050E0BA0188E1E0
:103CB00090E00E94192740E050E0BA018FE090E0C8
:103CC0000E94192740E050E0BA0183E190E00E9491
:103CD00019270895809190048111109290040895FD
:103CE000809590918F04892380938F0408959091FB
:103CF0008F0480918E04982B9093150480919004EA
:103D00008823D9F0892B8093150480910F01882393
:103D100031F08091CC0487FF02C08EE101C086E0C3
:103D2000E7E1F4E090E0815028F021912223D9F3DB
:103D30009F5FF9CF91110E946A1E40E250E06EE64B
:103D400074E085E194E00E946E27892B21F180E2E6
:103D5000E5E1F4E0AEE6B4E001900D928A95E1F77A
:103D6000E091C304F091C4043097A9F080910F0151
:103D7000882359F08091CC0487FF07C080911504F7
:103D80008093160486E0809315040280F381E02D71
:103D900085E194E00995089520916D048095822332
:103DA00080936D04982F977099F430E0482F082E77
:103DB000000C550B2417350759F09091CD0492FF54
:103DC00007C08595859585950E94581910926D04B8
:103DD00008959091CD0492FB222720F9281779F0BD
:103DE00080FB92F99093CD046091CC047091CD0446
:103DF00084E090E00E94252782E00E94CC1E089576
:103E000020916C0490913B0456E02917A9F030E012
:103E1000529FF001539FF00D1124E45CFB4F718120
:103E2000761306C07081781303C07281741306C0C4
:103E30002F5F3F4F2770E9CF80E0089581E008951C
:103E400080916C0490913B04891719F08F5F877003
:103E5000FBCF08950F931F93CF93DF9380913A0484
:103E600082958F7009F05AC080913704882309F435
:103E700055C080916C0410913B04609135047091A1
:103E80003604C0913804D091390491E06F3F09F0B5
:103E900090E0292F06E0811709F440C0209721F017
:103EA0007F3F21F030E003C031E001C0322F90E0CD
:103EB00030FD31C0089FF001099FF00D1124DF0192
:103EC000A45CBB4F11963C911197371324C03C91D1
:103ED000361321C012963C91129731111CC01396D3
:103EE0004D915C9114974C1B5D0B483C510598F427
:103EF00080913A048F70806180933A04EF5BFB4FAE
:103F000080818F708061808385E394E00E94410608
:103F10000E94201F03C001968770BDCFDF91CF9113
:103F20001F910F910895A5E0B0E0E9E9FFE10C943D
:103F3000C1260E9440218C018091930490919404A9
:103F400008171907A1F08FEF89838A831B820E94CB
:103F500040218160782F9D838C8349815A816B81B8
:103F60008D810E94A40510939404009393042596D8
:103F7000E4E00C94DD26A6E0B0E0E1ECFFE10C9477
:103F8000BA26AE014F5F5F4F7A0186E0FA011192C7
:103F90008A95E9F701E111E06A01AA24A394B12C02
:103FA000F80180818F3F09F441C0F894E82FE29531
:103FB000EF70F0E021A18F70A50102C0440F551FE2
:103FC0008A95E2F7CA01922F982B91A392A180952E
:103FD000892382A3789400C0E7E1F1E0912C31E0DD
:103FE00021912F3F89F0A22FA295AF70B0E090965B
:103FF0008C9190E02F7002C0959587952A95E2F7F5
:1040000080FD02C0832F01C080E0982A330F51E069
:10401000EE31F50729F7F80180818F3F11F00E94FA
:10402000A01CF0EAFA95F1F7F60190820F5F1F4F9E
:10403000FFEFCF1ADF0A41E00731140709F0B0CFD4
:1040400046E050E0B7018BE791E00E946E27892B94
:1040500089F086E0F701ABE7B1E001900D928A9517
:10406000E1F781E0809397040E94402190939604A9
:104070008093950480919704811102C080E020C054
:1040800080919504909196040E9425210597B0F3A4
:1040900046E050E06BE771E084E891E00E946E2713
:1040A000892B59F086E0EBE7F1E0A4E8B1E001905C
:1040B0000D928A95E1F781E001C080E010929704AB
:1040C0002696EBE00C94D6268091BC0108950895C5
:1040D0008091ED01882319F081508093ED0160916A
:1040E000E9017091EA018091EB019091EC010E944D
:1040F000402408958091ED01833018F48F5F809300
:10410000ED016091E9017091EA018091EB019091DC
:10411000EC010E94402408950F931F93CF93DF93E7
:104120008B01EA019091DF01943079F58F708093D3
:10413000E9008FEF9091E800815095FD06C095ED64
:104140009A95F1F700008111F5CF8091E80085FF85
:104150001CC00E948C16882361F08091E8008E7745
:104160008093E80012C0F80181918F018093F100E3
:104170002197209791F38091E80085FDF4CF8091FD
:10418000E8008E778093E800E4CFDF91CF911F9114
:104190000F910895CF93DF93EC0180910F0181116E
:1041A00005C048E050E0BE0181E00BC08091CC0426
:1041B00087FF03C040E282E002C048E081E050E0B7
:1041C000BE010E948C2080E2FE01ADEBB1E00190C7
:1041D0000D928A95E1F7DF91CF91089587E797E7F0
:1041E00090930108809300089AE088E10FB6F89454
:1041F000A895809360000FBE90936000FFCF7894E5
:104200001F920F920FB60F9211248F939F93AF932B
:10421000BF938091C8049091C904A091CA04B09141
:10422000CB040196A11DB11D8093C8049093C904CD
:10423000A093CA04B093CB04BF91AF919F918F918B
:104240000F900FBE0F901F9018959C014FB7F894D8
:104250008091C8049091C904A091CA04B091CB0484
:104260004FBF821B930B08952FB7F8946091C80439
:104270007091C9048091CA049091CB042FBF089516
:104280002FB7F8948091C8049091C904A091CA04F2
:10429000B091CB042FBF08951F920F920FB60F92CB
:1042A00011248F939F93AF93BF938091C704811183
:1042B00013C08091C8049091C904A091CA04B09120
:1042C000CB044196A11DB11D8093C8049093C904ED
:1042D000A093CA04B093CB04BF91AF919F918F91EB
:1042E0000F900FBE0F901F90189520910F01222361
:1042F000C9F02091CC0427FF15C0262F26952695BE
:1043000026952E31C8F4FC01E20FF11D677081E0A3
:1043100090E001C0880F6A95EAF780959281892321
:1043200082830895FC0106962281621301C01282E5
:104330003196E817F907C1F7089520910F0122235C
:10434000C1F02091CC0427FF14C0262F2695269576
:1043500026952E3130F5FC01E20FF11D677081E0EA
:1043600090E001C0880F6A95EAF79281892B8283D9
:104370000895FC0132962FEF30E04191641789F0E7
:104380002F3F19F4411101C0232F3F5F3630A9F7A9
:104390002F3F39F0FC01E20FF11D27FDFA956283F2
:1043A00008950895A3E0B0E0E8EDF1E20C94C3268F
:1043B0002091C5043091C60428173907A1F09093C5
:1043C000C6048093C504E091C304F091C4043097FF
:1043D00051F024E029839B838A830680F781E02DB6
:1043E000CE01019609952396E2E00C94DF26A3E026
:1043F000B0E0EDEFF1E20C94C3262091C1043091BE
:10440000C20428173907A1F09093C2048093C10415
:10441000E091C304F091C404309751F023E0298364
:104420009B838A830680F781E02DCE010196099552
:104430002396E2E00C94DF26E091C304F091C404DB
:10444000309729F00190F081E02D0995089580E0E2
:104450000895EF92FF920F93CF93DF93C42FD22F43
:10446000FC0182818823B1F04093C0040E94402166
:104470009093BF048093BE0480E28C0F883008F0D4
:1044800064C0C77081E001C0880FCA95EAF70E9436
:10449000B5195BC08091C00448134BC08091BE0425
:1044A0009091BF040E942521883C910508F041C0ED
:1044B000CD17C9F080E28C0F883040F4C77081E0DE
:1044C00001C0880FCA95EAF70E94AE1980E28D0FED
:1044D000883048F481E09D2F977001C0880F9A952D
:1044E000EAF70E94B519093319F0E12CF12C03C049
:1044F00080E5E82EF12C802F0E94FB1AE114F104D4
:1045000051F08FE99FE00197F1F700C0000091E0C2
:10451000E91AF108F3CF802F0E94971A80E28D0FDD
:10452000883098F4D77081E001C0880FDA95EAF7F7
:104530000AC080E28C0F883040F4C77081E001C06F
:10454000880FCA95EAF70E94AE19DF91CF910F91BB
:10455000FF90EF9008958091BD049091BC04882352
:1045600089F0992369F062E070E08BED99E00E9498
:104570000E12892B19F08091BC0408951092BC048E
:104580009091BC0481E0892708958091BD0488231F
:10459000F9F00E943421DC01CB01805A9541AF4FE4
:1045A000BF4F8093B8049093B904A093BA04B0931A
:1045B000BB048091BC0481110BC062E070E089ED06
:1045C00099E00E940E12892B19F481E08093BC04BB
:1045D0008091BC040895CF93E82F2091F703309188
:1045E000F803215F31404091EE01642F70E0C90172
:1045F0000E949F26481B842FEE2351F066E00E9404
:104600003B27C82FC150A8F080E20E946A11FACF60
:10461000A901480F511D4115524018F080E020E0DB
:1046200030E0280F311D2F503E4F3093F803209378
:10463000F703CF910895882311F0FA0101C0FB011F
:10464000099508956091E901669570E041E050E0B8
:1046500080E191E00E946127892B19F481E0809329
:104660009F040E9440219093990480939804089598
:104670008091E90180FF0AC0269A85B18F7B95B1B0
:1046800090642FB7F894E0EAF4E00BC0E0EAF4E0BD
:10469000118210821282339634E0E83BF307C1F7AF
:1046A000EBCF34E0E83BF30789F0319148E095B96E
:1046B000000000C037FF85B9330F000000C000C004
:1046C00000C085B900C04A9591F7EBCF2FBF8FE5A9
:1046D00094E00197F1F700C000000895EF92FF9277
:1046E0001F93CF93DF93EC0180EAE82E84E0F82E4D
:1046F00010E08C8197014091EC016091EB01810FFA
:104700000E94B324115E83E0E80EF11C183F89F784
:104710000E9438239A818C8190FF02C08F5F01C074
:1047200081508C83DF91CF911F91FF90EF9008957E
:10473000A3E0B0E0EEE9F3E20C94BF26182FF62ECA
:10474000042FE22E8091E90180FF3BC0E82FE6951F
:10475000F0E0E159FE4F908190939E048E7F82306D
:10476000D1F49E012F5F3F4F812F0E94B32480918F
:10477000E90180FF14C08B8199812A81E0EAF4E08D
:10478000218390838283339634E0E83BF307C1F7BB
:104790000E94382304C0923011F41091EA01109362
:1047A000EA01F092EB010093EC01EE2051F06091F0
:1047B000E9017091EA018091EB019091EC010E9476
:1047C00040242396E6E00C94DB26E9EEF1E04381F9
:1047D00028E0421B08F440E021E0628181810E94D0
:1047E00098230895E9EEF1E0438128E0420F08F4B0
:1047F0004FEF21E0628181810E9498230895E9EEC4
:10480000F1E0628128E0621B08F460E021E043816E
:1048100081810E9498230895E9EEF1E0628128E009
:10482000620F08F46FEF21E0438181810E94982399
:104830000895E9EEF1E0818121E0438162818850B1
:104840000E9498230895E9EEF1E0818121E04381FF
:104850006281885F0E94982308958091E901282F42
:10486000269530E02115310519F48170826005C06C
:104870002830310524F081708E608093E90108951D
:10488000CF92DF92EF92FF926B017C010E942D2468
:10489000B701A60188E090E00E941927FF90EF90F1
:1048A000DF90CF9008959091E90190FF36C091700C
:1048B000811102C0926006C0883010F09E6002C074
:1048C000880F982B9093E901662351F06091E901DC
:1048D0007091EA018091EB019091EC010E944024DB
:1048E0006091E901669570E041E050E080E191E07F
:1048F0000E946127892B19F010929F0402C00E9428
:10490000222381E080939B0420E04091EC016091A0
:10491000EB018091EA010E94982308958091E901BA
:104920008695815009F487E061E00E945324089540
:104930008091E90186958F5F883008F081E061E021
:104940000E9453240895E9EEF1E083E08083118210
:104950008FEF82838383148260817181828193814E
:104960000E9440240895A0E0B0E0E9EBF4E20C944A
:10497000BB26E82EF62EE901E42FF0E0611106C017
:10498000E352F64FE4914E2F2E2F71C0062F10E008
:10499000E352F64F4491F42FC42ED12C26E0829F8F
:1049A000C00111242FEF30E0B9010E949F265BEA7D
:1049B0005603C001579F900D11248E0D911D8E0D31
:1049C000911D582F550F580FD901A01BB10BAC9D4D
:1049D000C001AD9D900DBC9D900D1124E92FF59E59
:1049E000D0011124AB2FBB277901EA1AFB0AEC9CFA
:1049F000D001ED9CB00DFC9CB00D11245901A51AFD
:104A0000B108A09E7001A19EF00CB09EF00C112484
:104A1000EF2CFF242E193F092C9D80012D9D100D98
:104A20003C9D100D1124212F6230710591F048F446
:104A300061157105E1F061307105B9F4242F4B2F38
:104A400016C06430710569F040F06630710579F088
:104A50000CC0242F492FE12F0AC0492FEF2F2B2FF5
:104A600006C0292FE42F412F02C0292FEB2F4983A5
:104A70002883EA83CDB7DEB7EAE00C94D72680918D
:104A8000D00480FD16C081FD16C082FD18C0809143
:104A9000CF04882391F0883290F428E0829FC001EF
:104AA000112468E270E00E944727862F672B29F0C7
:104AB00007C082E0089584E0089581E0089588E0C9
:104AC00008958091D00480FD14C081FD14C082FD42
:104AD00016C08091CE04882381F08E3180F420E5C9
:104AE000829FC00111246EE170E00E944727862F4B
:104AF000089584E1089588E2089588E0089580E5A6
:104B000008950E9440212091D704211104C02091D2
:104B1000D804222321F09093D4048093D3042091CD
:104B2000D904211104C02091DA04222321F09093AA
:104B3000D2048093D104E091C304F091C40430976F
:104B400049F082E08093D5040480F581E02D85ED65
:104B500094E0099508951092B9008CE08093B80014
:104B60000895A0E0B0E0E7EBF5E20C94BA26B82E89
:104B7000EB010E9440216C01C431D10558F0CF3FB8
:104B80008FEFD80759F0CE0164E170E00E949F26B4
:104B90007B0107C0EE24E394F12C03C025E0E22E54
:104BA000F12C84E8A82E94EA992E1092BC009092E1
:104BB000BC000E9440218C018091BC0087FD07C091
:104BC000C8010E942521E816F906B0F729C0809196
:104BD000B900887F883041F08091B900887F8031AA
:104BE00019F00FEF1FEF1EC0B092BB00A092BC00E7
:104BF0000E9440218C018091BC0087FD07C0C80144
:104C00000E942521E816F906B0F70AC08091B90084
:104C1000887F883111F0803421F700E010E00EC069
:104C20000EEF1FEFCF3F8FEFD80709F4BECFC601BD
:104C30000E942521C817D90708F0B7CFC801CDB702
:104C4000DEB7EBE00C94D6260F931F93CF93DF9340
:104C5000EB018093BB0084E88093BC000E9440215C
:104C60008C018091BC0087FD0DC0CF3F8FEFD8072E
:104C7000C1F3C8010E942521C817D90790F78EEF0C
:104C80009FEF0CC02091B900287F81E090E028328E
:104C900011F480E090E0919581959109DF91CF9199
:104CA0001F910F910895A0E0B0E0E9E5F6E20C94C1
:104CB000BD266B018A017901B9010E94B125E60187
:104CC0000C0D1D1DC017D10741F424E92093BC0031
:104CD000CDB7DEB7E8E00C94D92697FDF6CFB70143
:104CE00089910E942426EECFA0E0B0E0EAE7F6E248
:104CF0000C94BD26C62F6A017901B8010E94B12526
:104D000097FD11C0B8018C2F0E942426E601EC0CFF
:104D1000FD1CCE15DF0539F097FD05C0B80189915E
:104D20000E942426F6CF24E92093BC00CDB7DEB73D
:104D3000E8E00C94D92684E98093BC000895AA1B6E
:104D4000BB1B51E107C0AA1FBB1FA617B70710F076
:104D5000A61BB70B881F991F5A95A9F780959095A8
:104D6000BC01CD0108952F923F924F925F926F92B6
:104D70007F928F929F92AF92BF92CF92DF92EF92EB
:104D8000FF920F931F93CF93DF93CDB7DEB7CA1B6C
:104D9000DB0B0FB6F894DEBF0FBECDBF09942A8897
:104DA000398848885F846E847D848C849B84AA843F
:104DB000B984C884DF80EE80FD800C811B81AA81CC
:104DC000B981CE0FD11D0FB6F894DEBF0FBECDBF97
:104DD000ED010895FB01DC0102C005900D924150E8
:104DE0005040D8F70895F999FECF92BD81BDF89A49
:104DF000992780B50895A6E1B0E044E050E00C9416
:104E00002D27A8E1B0E042E050E00C942D27262F9A
:104E1000F999FECF92BD81BDF89A019700B40216B0
:104E200039F01FBA20BD0FB6F894FA9AF99A0FBE5E
:104E300008950396272F0E9408270E940727252FF1
:104E40000E940827242F0C9408270196272F0E94E0
:104E500008270C940727DC01CB01FC01F999FECF50
:104E600006C0F2BDE1BDF89A319600B40D924150F2
:104E70005040B8F70895991B79E004C0991F961720
:104E800008F0961B881F7A95C9F78095089597FBBF
:104E9000072E16F4009407D077FD09D00E949F26B4
:104EA00007FC05D03EF4909581959F4F089570952D
:104EB00061957F4F0895EE0FFF1F0590F491E02D4F
:104EC0000994FC014150504030F001900616D1F792
:104ED0003197CF010895882799270895FB01DC01B8
:104EE00004C08D910190801921F441505040C8F7C1
:0A4EF000881B990B0895F894FFCF7A
:104EFA006420CA2063115C110021007F2200030193
:104F0A000166973494C6323331F7F6F5F43500FF6B
:104F1A000100010000FFFF0000010001FF0000087E
:104F2A00101818100800818283E200E900EA00B52F
:104F3A0000B600B700CD008301CC008A019201942B
:104F4A00012102230224022502260227022A02B391
:104F5A0000B4006F0070009F01CB019F02A0020005
:084F6A00010202020202020032
:00000001FF
