:10000000B4C50000CFC50000CDC50000CBC50000C1
:10001000C9C50000C7C50000C5C50000C3C50000B4
:10002000C1C50000BFC500000C94D72C0C94A22DB4
:100030000C944227B7C50000B5C50000B3C5000049
:10004000B1C50000AFC50000ADC50000ABC50000E4
:10005000A9C500000C94CB27A5C50000A3C50000CE
:10006000A1C500009FC500009DC500009BC5000004
:1000700099C5000097C5000095C5000093C5000014
:1000800091C500008FC500008DC500008BC5000024
:1000900089C5000087C5000085C5000083C5000034
:1000A00081C500007FC500007DC50000F109F10990
:1000B000180A180A640A820A570B570B8D0AED0AB0
:1000C000FA0AFA0A5F1D621D811D901D971DA11D70
:1000D000A31DA51DA71DE41DE41DA91DAB1DAF1D7E
:1000E000BB1DC71DC91DCC1DD81D062E2D2E1E2FB4
:1000F0002D2E1E2F782E9A2E1E2FEE2EFD2E208EA8
:100100008F9000CACBCCCD00AAABACADAE008A8B31
:100110008C8D0020202020005343522000202020DE
:100120002000434150200020202020004E554D202B
:100130000000556E64656600464E203300464E2032
:100140003200464E20310042617365004C61796592
:10015000720014001A000800150017001C00180097
:1001600004001600070009000A000B000D001D61C5
:100170001B64066819002A412C420543A80061004F
:1001800060005F00130012000C0062005E005D0062
:100190005C0029000F000E002D005B005A00590082
:1001A000287210711174010001000100005C01004F
:1001B00001004600010001000100010001000100F2
:1001C0000100010001000100010001002B00E3001B
:1001D0005300260025002400310030002F002700A6
:1001E0002300220021003400330035002E002000BF
:1001F0001F001E003800370036000100010001001A
:1002000001000100010001000100010001000100E6
:1002100001000100010001000100010001004C008B
:1002200001000100390026022502240231023002B9
:100230002F02270223022202210234023302350256
:100240002E0220021F021E023802370236023A0036
:100250003B003C003D003E003F004000010001002B
:100260000100010001000100010001000100010086
:100270000100010001000100C25C010045004400D2
:10028000430042004100C35CC95CC75CC55C01001F
:1002900001000100C45CCA5CC85CC65C01000100CE
:1002A000010000000000000000002A2B28000000D0
:1002B0000000000000000000000000000029000015
:1002C00000002C1E3420212224342627252E362DF2
:1002D0003738271E1F202122232425263333362E8C
:1002E00037381F0405060708090A0B0C0D0E0F10FE
:1002F0001112131415161718191A1B1C1D2F313043
:10030000232D350405060708090A0B0C0D0E0F10E6
:100310001112131415161718191A1B1C1D2F313022
:10032000354C00000000000000000000000000004C
:1003300000000000000000000000000000000000BD
:100340000000000000007E0F00D4FFFFFFC7000088
:100350000078643214000101010101010101010270
:100360000202020202020202030303030303030365
:100370000404040404040405050505050606060630
:1003800006070707070708080808090909090A0AEC
:100390000A0B0B0B0C0C0C0D0D0D0E0E0E0F0F0F90
:1003A000101011111112121313141415151616171B
:1003B00017181819191A1A1B1B1C1D1D1E1E1F2089
:1003C00020212222232424252626272829292A2BD6
:1003D0002C2D2D2E2F3031323233343536373839FB
:1003E0003A3B3C3D3E3F40414243444546474849F5
:1003F0004A4C4D4E4F50515354555658595A5B5DC7
:100400005E5F616264656668696B6C6D6F70727364
:100410007577787A7B7D7E8082838587888A8C8ECB
:100420008F91939596989A9C9EA0A2A3A5A7A9ABFD
:10043000ADAFB1B3B5B7BABCBEC0C2C4C6C9CBCDEF
:10044000CFD1D4D6D8DBDDDFE2E4E7E9EBEEF0F3A1
:10045000F5F8FAFDFF00AE00AF00DA0281FFD9F136
:10046000DB20A4A62EAF00A0C000A1C800AED5809E
:10047000A81FD300408D1420000000000000003EA3
:100480005B4F5B3E003E6B4F6B3E001C3E7C3E1C58
:1004900000183C7E3C18001C577D571C001C5E7FDA
:1004A0005E1C0000183C180000FFE7C3E7FF0000D7
:1004B0001824180000FFE7DBE7FF0030483A060E7B
:1004C00000262979292600407F05050700407F0581
:1004D000253F005A3CE73C5A007F3E1C1C080008A0
:1004E0001C1C3E7F0014227F2214005F5F005F5FB0
:1004F0000006097F017F00006689956A00606060E0
:1005000060600094A2FFA2940008047E040800101A
:10051000207E20100008082A1C0800081C2A080851
:10052000001E10101010000C1E0C1E0C0030383E67
:10053000383000060E3E0E060000000000000000ED
:10054000005F000000000700070000147F147F1404
:1005500000242A7F2A1200231308646200364956B9
:10056000205000000807030000001C22410000008A
:1005700041221C00002A1C7F1C2A0008083E080893
:1005800000008070300000080808080800000060C3
:100590006000002010080402003E5149453E000062
:1005A000427F4000007249494946002141494D338C
:1005B000001814127F10002745454539003C4A4970
:1005C00049310041211109070036494949360046A1
:1005D0004949291E000000140000000040340000BA
:1005E00000000814224100141414141400004122C5
:1005F0001408000201590906003E415D594E007C75
:100600001211127C007F49494936003E4141412286
:10061000007F4141413E007F49494941007F09092E
:100620000901003E41415173007F0808087F000026
:10063000417F4100002040413F01007F08142241DA
:10064000007F40404040007F021C027F007F040882
:10065000107F003E4141413E007F09090906003EEE
:100660004151215E007F0919294600264949493236
:100670000003017F0103003F4040403F001F204036
:10068000201F003F4038403F0063140814630003FC
:1006900004780403006159494D4300007F41414102
:1006A00000020408102000004141417F00040201C3
:1006B00002040040404040400000030708000020C2
:1006C00054547840007F2844443800384444442837
:1006D00000384444287E0038545454180000087EE2
:1006E0000902001824241C78007F08040478000004
:1006F000447D4000002040403D00007F1028440021
:100700000000417F4000007C04780478007C0804ED
:100710000478003844444438007C18242418001815
:100720002424187C007C08040408004854545424F1
:100730000004043F4424003C4040207C001C204036
:10074000201C003C4030403C004428102844004C11
:100750009090907C004464544C4400000836410062
:10076000000000770000000041360800000201028E
:100770000402003C2623263C00000000E0FEFFFEB1
:10078000F8C00000000000E0FCFFFEF0C000000028
:100790000000000000013EE080700E01000000003B
:1007A000073CE08078070000000000000000000027
:1007B0000000000000000000E0FEFFFEF8C00000A6
:1007C000000000E0FCFFFEF00000000000013EE041
:1007D00080700E0100000000073CE08078070000F8
:1007E0000000000000000000000000000000000009
:1007F00000000000000000000000000000000000F9
:1008000000000000000000000000000000000000E8
:1008100000000000000000000000000000000000D8
:1008200000000000000000000000000000000000C8
:100830000000000000000000000000F8FFFF1F079C
:100840001FFFFEF0C0F8FFF707077FFFFFF800C0AB
:10085000380C186080000000F00C04F41C0000004C
:1008600000000080C0FCE6C3C1C1C3E6FCC080003C
:1008700000000000000000F8FFF707071FFFFEF070
:10088000C0F83F8F0F3FFFFFFE80F00C04F41C0008
:100890000000000000000000000000000000000058
:1008A0000000000000000000000000000000000048
:1008B0000000000000000000000000000000000038
:1008C0000000000000000000000000000000000028
:1008D0000000000000000000000000000000000018
:1008E0000000000000000000000000000000000008
:1008F000000000000000000000001F1F1F07000094
:100900000000031F1F0F010306F800077F3F0EC101
:1009100038070E70831C601E03C03E0100000000FB
:100920000000003F7FFFFFF9C0C0F9FFFF7F3F00DD
:100930000000000000001F1F1F0706F80000733FA3
:100940000FC138070F7083077F1F03C03E010000EF
:100950000000000000000000000000000000000097
:100960000000000000000000000000000000000087
:100970000000000000000000000000000000000077
:100980000000000000000000000000000000000067
:100990000000000000000000000000000000000057
:1009A0000000000000000000000000000000000047
:1009B0000000000000000000001203420044004557
:1009C0000020005200650076003200000012034D46
:1009D00000650063006800570069006C0064000057
:1009E000000403090409025B00030100A0FA0904E2
:1009F0000000010301010009211101000122400052
:100A0000070581030800010904010002030000003A
:100A100009211101000122220007058203200001A3
:100A20000705030320000109040200010300000080
:100A300009211101000122B60007058403200001ED
:100A40001201000200000008776D0A17010101027F
:100A500000010660FF0961A1010962150026FF007F
:100A60009520750881020963150026FF0095207501
:100A7000089102C005010902A10185020901A10036
:100A8000050919012908150025019508750181023C
:100A90000501093009311581257F95027508810608
:100AA00009381581257F950175088106050C0A38DE
:100AB000021581257F950175088106C0C0050109D1
:100AC00080A101850319012AB700150126B70095F9
:100AD0000175108100C0050C0901A10185041901EF
:100AE0002AA002150126A002950175108100C005FB
:100AF000010906A1018506050719E029E71500256A
:100B0000019508750181020507190029EF150025D7
:100B10000195F075018102050819012905950575F2
:100B2000019102950175039101C005010906A1011A
:100B3000050719E029E715002501950875018102CF
:100B40009501750881010507190029FF150026FF89
:100B50000095067508810005081901290595057598
:100B6000019102950175039101C011241FBECFEFC1
:100B7000DAE0DEBFCDBF11E0A0E0B1E0ECE4F0E6EA
:100B800002C005900D92A23CB107D9F725E0A2EC76
:100B9000B1E001C01D92A832B207E1F70E94B21580
:100BA0000C9424302DCA1F93CF93DF93182FD62F88
:100BB0000E947623C82F882341F0111106C0DD233F
:100BC00011F089EA01C08AEAC3D38C2FDF91CF915B
:100BD0001F91089583E00895CF9360E080E00E9424
:100BE0006F1E60E08EE091E00E944B1F61E080E0AC
:100BF0000E946F1E60E088E091E00E944B1F62E05F
:100C000080E00E946F1E60E083E091E00E944B1F35
:100C100063E080E00E946F1E60E08EEF90E00E9433
:100C20004B1F66E080E00E946F1E60E08CE491E064
:100C30000E945C1F8091D801F5D1813069F040F0AD
:100C4000823071F0833081F460E088E391E00FC07E
:100C500060E087E491E00BC060E082E491E007C0CF
:100C600060E08DE391E003C060E082E391E00E94E8
:100C70005C1F60E081E391E00E945C1F0E94E4251C
:100C8000C82F80FD03C087E291E002C08CE291E0B2
:100C900060E00E945C1FC1FD03C08DE191E002C0D5
:100CA00082E291E060E00E945C1FC2FD03C083E12C
:100CB00091E002C088E191E060E00E945C1F80E06A
:100CC000CF91089581E0089581E00895FDCF0895C2
:100CD0000895FECF0895A5E0B0E0E1E7F6E00C94BA
:100CE000992F49835A833091C50189819A813111A5
:100CF00011C0662349F0222339F058D6182F682FE7
:100D000089819A8131D602C040D6182F69817A81B3
:100D1000812F03C04BD669817A810E94BE2225961D
:100D2000E3E00C94B52FFC01262F408151816281B4
:100D300073818481D0CF089581E00895CF93DF93AC
:100D4000EC0160E0F0DFBE01C4DFDF91CF910895D8
:100D5000E1E0F0E0DF0102C0AA0FBB1F6A95E2F7F5
:100D6000BD01DF0102C0AA0FBB1F4A95E2F7AD012A
:100D7000462B01C0EE0F2A95EAF7942F98234913CA
:100D800002C08E2B0895E0958E230895242F462FC0
:100D9000682F8091D801DCDF50C508950C94901421
:100DA00008950C948C1408950895F1D4FDDF2FEF6D
:100DB00084E39CE0215080409040E1F700C00000B7
:100DC0000895F3DF0C94F1270895EFDF0C940228C7
:100DD00008950F931F93CF93DF938C0161E0A3DFFE
:100DE000EC01B8010E94CA1C882309F44AC0B8016A
:100DF000CE016CDF882309F444C0B801CE010E9403
:100E00009224882309F43DC0B801CE010E94B3208A
:100E10008823B9F1B801CE010E94FC23882389F10F
:100E2000B801CE010E94B31B882359F1F8018281D9
:100E3000882321F1CA358DE5D807D9F050F4C115C2
:100E4000FCE5DF0779F0CE3DDC45C1F40E948E1150
:100E50000BC0CC35EDE5DE0749F070F0C73ADD4553
:100E600019F00CC0AEDF0DC0B0DF0BC00E94CC107B
:100E700005C00E94D51002C00E94D810C80122DF10
:100E800001C080E0DF91CF911F910F9108950E94E2
:100E90002127EBD00E948B1A0C9470200895E8D083
:100EA0000E944E1B0C9427270895A0E0B0E0EBE5CC
:100EB000F7E00C94952FE82FF0E0EE55FD4FD4901D
:100EC000282F26952695269530E0F901EE5BFC4FFC
:100ED0000491877010E0082E02C0159507950A94BA
:100EE000E2F701701127F901EE5CFC4FE490F12C60
:100EF000082E02C0F594E7940A94E2F791E0E92203
:100F0000FF24F901EE5DFC4FC491D0E002C0D595FD
:100F1000C7958A95E2F7C170DD270115110511F01B
:100F200081EEF7D0E114F10411F086EEF2D08D2DB0
:100F30000FD2E114F10411F086EE8ED101151105E6
:100F400011F081EE89D1CD2B11F08CE201D2CDB719
:100F5000DEB7E7E00C94B12FEF92FF920F931F934F
:100F6000CF93DF93EC01162F0AE08881882309F4E0
:100F700051C0813009F040C08981813039F47E014F
:100F800082E0E80EF11C8A81E3D108C0823041F48E
:100F90007E01E2E0EE0EF11C8A81BBD0E7012DC09C
:100FA000833039F47E01F2E0EF0EF11C8A8154D1D6
:100FB000F5CF843011F0219620C02A81229680E05E
:100FC00090E030E0205331092A30310558F4089F71
:100FD000A001099F500D1124C901840F951F21966E
:100FE0002881EFCF009749F0EFE9FFE03197F1F763
:100FF00000C000000197F6CF58DF2196812F88238B
:1010000009F4B3CFEFE9FFE03197F1F700C000003A
:101010008150F5CFCDB7DEB7E6E00C94B22F60E09B
:101020009BCF0895982F92959F7019F0892F24E0F7
:1010300001C020E0982F9695969511F02E5F892F8C
:10104000982F969509F02F5F822F08950895FECF6F
:10105000089581E00895FDCF08950895CF93C82F96
:10106000F6DF8C2FF8DFCF91089580E0F7CF089559
:101070000E94D725F3CF08950E94D7259091C401EF
:10108000891719F08093C401E9CF0895ABE0B0E06F
:10109000ECE4F8E00C949A2F4F83588769877A879D
:1010A0008B876111CFD79E012F5F3F4F86E0F901FB
:1010B00011928A95E9F785E0FE013796D9010190F2
:1010C0000D928A95E1F789819A814C815D81452B4A
:1010D00031F09F3F31F491E08F3F19F403C091E06C
:1010E00001C090E090FF08C049815A816B817C81EA
:1010F0008D819E81D9D604C0C9011EDE8111F4CF35
:101100002B96E2E00C94B62FFC01808191817AC489
:101110000895CF93882309F49DC0C82F8238B9F46D
:101120000E94D72581FD96C069E3809100019091CE
:1011300001010E94D026A6D72FEF81EE94E0215026
:1011400080409040E1F700C0000069E318C0833898
:10115000F1F40E94D72580FD7DC063E580910001F8
:10116000909101010E94D0268DD72FEF81EE94E05F
:10117000215080409040E1F700C0000063E580917D
:101180000001909101010E94DC267CD763C0843865
:10119000B9F40E94D72582FD5DC067E4809100010B
:1011A000909101010E94D0266DD72FEF81EE94E03F
:1011B000215080409040E1F700C0000067E4DFCF9D
:1011C0008CEF8C0F813AC8F46C2F809100019091C4
:1011D00001010E945026882341F06C2F809100016C
:1011E000909101010E94DC264DD76C2F8091000167
:1011F000909101010E94D026C8CF80E28C0F8830E8
:1012000040F4C77081E001C0880FCA95EAF7FDD6A7
:10121000BCCFEBE5EC0FE33040F4F0E0EE5AFE4FCC
:10122000808190E00E940E2615C0E8E5EC0FE731C2
:1012300050F4F0E0EE0FFF1FEC5DFE4F80819181D6
:101240000E94242607C0C03F28F08C2F0E9433162E
:101250000E94FD16CF910895882309F462C0823858
:1012600071F40E94D72581FF5CC069E38091000181
:10127000909101010E94D02605D769E30FC0833801
:10128000A9F40E94D72580FF4CC063E5809100013E
:10129000909101010E94D026F5D663E5809100016E
:1012A000909101010E94DC26EDC60895843871F406
:1012B0000E94D72582FF35C067E48091000190919C
:1012C00001010E94D026DED667E4E8CF9CEF980F9C
:1012D000913A10F4682FE2CF90E2980F983048F4DA
:1012E000877091E001C0990F8A95EAF7892F93D60C
:1012F000DBCF9BE5980F933028F480E090E00C94CE
:101300000E26089598E5980F973128F480E090E034
:101310000C9424260895803F20F00E9486160C9499
:10132000FD1608951F93CF93DF93182FEB01F1DE85
:10133000209741F08FE99FE00197F1F700C000008E
:101340002197F6CF812F88DFDF91CF911F910895EC
:10135000893319F06AE070E002C060E570E0E2CF26
:101360000895882311F051D68DC60895882311F071
:1013700052D688C60895A0E0B0E0E1ECF9E00C9404
:10138000942F7C01162FC72FFC01D2810581029575
:101390000F7031D68823A9F0DD2399F08C2F807F40
:1013A000803421F080E2810F883058F08091E7028C
:1013B00082FF07C082E0C2D61ED691E0D82ED92681
:1013C00001C0D12CCC2EC2948FE0C8228C2D90E08D
:1013D0008C30910508F06BC1FC01EA5AFF4F0C9468
:1013E0007D2F8C2F807FCF70882311F0C295C07F16
:1013F000DD2381F0CC2309F443C180E2810F8830E2
:1014000010F0111103C08C2F00D602C08C2F0DD606
:1014100039D636C1812F20DFCC2309F448C180E2C0
:10142000810F883018F1112309F18C2F04D620C0C8
:101430008C2F807FCF70803211F0C295C07F112336
:1014400019F0113059F136C08091E70282FD12C0C7
:10145000DD2339F0CC2319F08C2FD7D513D680E0BB
:1014600010C180E0F9DECC2309F421C18C2FD3D543
:1014700009D61DC1DD2359F0002331F0013021F4DC
:10148000E4D58C2BEAD513C1E0D58C2B0DC00023FD
:1014900019F0013009F40BC1ECD513C0DD2331F094
:1014A000063008F004C18C2F5CDF01C1053008F064
:1014B000FEC007C0DD2319F00023A9F3E1C001112C
:1014C000E4C08C2F53DFF3C08C2F869586958370F4
:1014D00019F0813061F0EBC0DD2321F0812F9C2FCA
:1014E000937002C080E090E00E940E26E7C0DD23EA
:1014F00021F0812F9C2F937002C080E090E00E9429
:101500002426DCC0812FDD2319F00E94331602C08F
:101510000E9486160E94FD16D1C08C2F837059F54B
:10152000D111C9C0412F429546954770440F440FD1
:10153000212F2F70042E01C0220F0A94EAF714FF06
:1015400008C08FE090E001C0880F4A95EAF78095C7
:1015500001C080E0C695C695C370822BC23039F0B9
:1015600040F4C13011F05DD1A6C056D1A4C05ED107
:10157000A2C050D1A0C0DD2319F08C2F817001C012
:101580008695882309F497C0412F42954695477068
:10159000440F440F212F2F70042E01C0220F0A94F4
:1015A000EAF714FF08C08FE090E001C0880F4A9569
:1015B000EAF7809501C080E0C695C695C370822B7E
:1015C000C23039F040F4C13011F06ED174C067D12F
:1015D00072C06FD170C031D16EC0CF70DD2329F0E1
:1015E0008C2F3BD1812FBDDE66C0812FBFDE8C2FBB
:1015F0003FD161C0123F11F128F4103F41F0113F7B
:10160000B9F03AC0133F01F1143F71F035C0DD234A
:1016100039F0053008F04BC08C2F8F7135D147C0A1
:10162000063008F044C0F8CF8091E70282FD14C074
:10163000DD2331F08C2F8F7110D139C0DD23D1F330
:101640008C2F8F7115D133C0DD2321F08C2F8F713A
:10165000FCD02DC0F7D02BC0DD2339F0CF718C2FFB
:10166000FCD063E08C2F50D522C081E067D50230DA
:10167000F0F082E063D51BC0DD2329F00023D1F216
:10168000812F47DD14C00023D9F2193341F4FFEF55
:1016900027EE83E0F15020408040E1F704C0EFE303
:1016A000FCE93197F1F700C00000812FD5DD88EF0C
:1016B0008C0D843018F40E94D725D0DCDD2059F041
:1016C00096D480FD08C0F70112828BD4C6D0C70122
:1016D0001BD087D4CDD0CDB7DEB7E8E00C94B02FC7
:1016E0000F931F93CF93DF93EC01688179818A81F7
:1016F00092D18C01E3D083D0B801CE013CDEDF91E2
:10170000CF911F910F910895CF93DF93EC019881B2
:1017100089812B813C81232B31F08F3F31F481E093
:101720009F3F19F403C081E001C080E080FD15C037
:10173000CE014FDB81110DC05ED4882371F08A8108
:10174000882359F08091E70282FF07C082E0F6D437
:1017500004C0CE01C5DFCE01F1DADF91CF9108954B
:1017600080E090E00E940E2680E090E00E94242617
:1017700069D488D40E9411180C94FD1608958091A4
:101780000001909101010E94E826EACF08954AD411
:10179000F6CF089592959F70963079F010F492509C
:1017A00001C09A50923068F4803F69F018F4883E86
:1017B00040F409C0843F29F406C0883E20F0813FF0
:1017C00011F080E0089581E00895FC01808191810D
:1017D00019D1E0CF0895A5E0B0E0E1EFFBE00C9473
:1017E0009A2F2596E2E00C94B62FA6E0B0E0EBEF3E
:1017F000FBE00C949A2F2696E2E00C94B62F089505
:101800000895FECF0895FDCF0895FDDF8093D9019F
:10181000A7CF0895FACF08959091D901892BF5CFDC
:1018200008959091D9018923F0CF08959091D9011D
:101830008927EBCF0895E4CF0895FDDF8093D80189
:101840008FCF089580E0F9CF089591E001C0990FFE
:101850008A95EAF7892FF1CF089521E030E001C0A1
:10186000220F8A95EAF78091D801822BE6CF08955E
:1018700021E030E001C0220F8A95EAF7209580919F
:10188000D8018223DACF089521E030E001C0220F91
:101890008A95EAF78091D8018227CFCF0895909159
:1018A000D801892BCACF08959091D8018923C5CF3B
:1018B00008959091D8018927C0CF08950895962F53
:1018C0009770A1E001C0AA0F9A95EAF793E0769588
:1018D00067959A95E1F7FB01EE0FFF1F6E0F7F1FD3
:1018E000FA01E60FF71F40E050E0682F70E09081AA
:1018F0009B01042E02C0369527950A94E2F72170C9
:10190000219529272A23292721934F5F5F4F4330B1
:10191000510569F708959B01782F777043E09695FC
:1019200087954A95E1F7FC01EE0FFF1F8E0F9F1F71
:10193000F901E80FF91F40E050E080E0219130E02C
:10194000072E02C0369527950A94E2F721703327B7
:10195000042E01C0220F0A94EAF7822B4F5F5F4FDB
:101960004330510559F70895282F963068F4873091
:1019700058F4862F622F70E027E0929F600D711D52
:10198000112446EC51E09BCF0895963068F48730DF
:1019900058F4292F90E066EC71E037E0239F800D2A
:1019A000911D1124B8CF089580E00895CF92DF9261
:1019B000FF920F931F93CF93DF936C010091D80197
:1019C0008091D901082BC7E0D0E010E0C8010C2EAF
:1019D00002C0959587950A94E2F780FD04C021978F
:1019E000A8F7F12C06C0FC2EB6018C2F7DD60197EE
:1019F000B1F38F2DDF91CF911F910F91FF90DF9069
:101A0000CF900895CF93DF93EC01D0DFBE016CD669
:101A1000DF91CF9108951F93CF93DF93EB019091C6
:101A2000C501992319F0CB01EDDF0FC0882339F0F0
:101A3000CB01BCDF182F682FCE0196DF03C0CB018E
:101A4000A4DF182FBE01812F4FD6DF91CF911F91B8
:101A500008951F93CF93DF93C091DA0116E0809130
:101A6000DB01C81791F0D0E01C9FF0011D9FF00D25
:101A70001124E452FE4F408151816281738184813F
:101A80009581B3DE2196C770EACFDF91CF911F9188
:101A9000089540910C0250910D0260910E027091D8
:101AA0000F0280911002909111029FCE08950F9322
:101AB0001F93CF93DF938091110282958F7009F06D
:101AC00058C080910E02882309F453C08091DA0136
:101AD0001091DB0160910C0270910D02C0910F0218
:101AE000D091100291E06F3F09F090E0292F06E0BD
:101AF000811709F43EC0209721F07F3F21F030E0AC
:101B000003C031E001C0322F90E030FD2FC0089FAC
:101B1000F001099FF00D1124DF01A452BE4F119670
:101B20003C911197371322C03C9136131FC0129677
:101B30003C91129731111AC013964D915C911497F4
:101B40004C1B5D0B4A3F510588F4809111028F7048
:101B5000806180931102EF51FE4F80818F70806110
:101B600080838CE092E0D0DD74DF03C00196877043
:101B7000BFCFDF91CF911F910F910895A1E1B0E008
:101B8000E4ECFDE00C94912F8C0185E0F801DE017E
:101B90001D9601900D928A95E1F7F801E2809091EF
:101BA0000C0260910D0220910F023091100221155C
:101BB000310531F06F3F31F481E09F3F19F403C0EC
:101BC00081E001C080E0F82FF1709F2E80FD30C1D0
:101BD000F80140815181A380B4808CE0C82E82E05E
:101BE000D82EF0900E02F501E21BF30BFF2009F452
:101BF000CEC080911102EA3FF10508F08EC0282F77
:101C0000207F09F051C0561311C049130FC0FE2C9C
:101C1000E1100CC08F708061809311023ADFC60121
:101C200073DD80911102F801858339C1A114B104DB
:101C300031F05F3F31F481E04F3F19F403C081E0A0
:101C400001C080E080FD03C081E08E2502C080E0FD
:101C500090E0F82FF170FF2E80FF1CC08091DA0118
:101C60002091DB0136E0821709F4F9C090E0389F3B
:101C7000F001399FF00D1124E452FE4F618156139B
:101C800006C06081461303C06281E61203C001965C
:101C90008770E9CFFE2CEE2009F401C1809111027A
:101CA0008160809311024BC0561306C0491304C0D3
:101CB000E11002C0F8018FC0C80187DD882341F11F
:101CC000EE2031F120911102822F82958F7090E0E9
:101CD00002976CF080910C0290910D0298878F838F
:101CE0001986BB86AA862C87CE0107960DDD86E075
:101CF000F801ACE0B2E001900D928A95E1F7D7DEF1
:101D0000C8DE08C05617E9F0C8015FDD811127C0A1
:101D1000C801FADCFF24F394C2C0282F207F91F77A
:101D20007A2DB98AA88A6E2D898955DD8CE092E0DA
:101D3000EBDC86E0F60111928A95E9F7AADEF12C38
:101D4000AEC04913E1CFE110DFCFF8018583C801B0
:101D5000DBDC86E0F60111928A95E9F7A0C0EE205F
:101D6000B9F220911102822F82958F7090E0029734
:101D70000CF4BDCF80910C0290910D029A8389835F
:101D80001B82BD82AC822E83CE010196AFCFEA3F8B
:101D9000F10508F041C0FE2CEE2009F4B9CF56132E
:101DA0002FC049132DC02091110220FD20C0822F89
:101DB00082958F70482F50E041155105C1F0F80110
:101DC00025834F30510541F08F5F982F9295907F7A
:101DD000822F8F70892B8583C80196DC86E0F801FD
:101DE000ACE0B2E001900D928A95E1F736C086E052
:101DF000F801ACE0B2E001900D928A95E1F74FC096
:101E0000C801E3DC811173CF80911102816080935E
:101E10001102C80179DC43C07A2DB98AA88A6E2DD7
:101E20008989D9DC86E0F60111928A95E9F715C017
:101E3000EE2009F46DCFC801C8DCF82E882309F420
:101E400067CF86E0F801ACE0B2E001900D928A9590
:101E5000E1F78CE092E058D92ADE1BDE20C04D87E6
:101E60005E878D859E85CEDD292F22952F702230AD
:101E700028F49F7039F0811105C00AC0243028F47D
:101E80009F7041F4805E883018F0C8013DDC9F2CC3
:101E9000F92C05C0F8019581907FA1F7F9CF8F2D1E
:101EA0006196EBE00C94AD2FACE0B0E0EAE5FFE02A
:101EB0000C94992F4F83588769877A878B879C87E3
:101EC000CE0107965BDE8823C9F09F8188852A852D
:101ED0003B85232B31F08F3F31F481E09F3F19F494
:101EE00003C081E001C080E080FD45C04F8158857E
:101EF00069857A858B859C8578DC3DC086E0FE010E
:101F00003796DE01119601900D928A95E1F7FF81D7
:101F1000E8856A857B856115710531F0EF3F31F405
:101F200081E0FF3F19F403C081E001C080E080FD43
:101F300022C02091DB0130E0C9010196877099270A
:101F40004091DA0150E084179507D9F1F983EA83CB
:101F50007D836C8396E0929FD001939FB00D1124F6
:101F6000A452BE4FFE01319601900D929A95E1F771
:101F70008093DB016EDD16E08091DA019091DB0148
:101F8000891759F1189FC001112484529E4FF6DD24
:101F9000882319F1E091DA011E9FF0011124E45227
:101FA000FE4F4081518162817381848195811DDC66
:101FB0008091DA0190E00196877099278093DA0189
:101FC000DBCFE5DB1092DB011092DA01ECE0F2E00E
:101FD00086E0DF011D928A95E9F72C96E3E00C94E8
:101FE000B52F8091320285958595859508958091CC
:101FF00032028770089590913202977081E009F45F
:1020000080E0089580915502089590915502892BA2
:10201000809355020895809590915502892380936D
:102020005502089510925502089590915402892BFB
:10203000809354020895809590915402892380934F
:102040005402089510925402089580913302089525
:102050000895FECF0895FDCF08959091E70292FF75
:1020600007C090913302981719F080933302F3CF91
:10207000089580913302882321F01092330280E08A
:10208000EACF0895CF93DF93E0910001F091010131
:10209000809155028083E0910001F09101019081CF
:1020A00080915402892B808380913302882379F0B8
:1020B000E0910001F09101019081892B8083809152
:1020C0000001909101010E943A268111D2DFC09156
:1020D0000001D091010140E250E062E172E0CE01E6
:1020E0000E94D72F892B59F080E2FE01A2E1B2E0D5
:1020F00001900D928A95E1F7CE010E94E625DF91CD
:10210000CF910895A5CF08959091E70292FF0FC057
:1021100098E0899F90011124262B209332029DDBA9
:1021200080913202859585958595ECCF089595CB64
:1021300008951092320280E0E5CF08952091320296
:102140008095822380933202982F977089F430E033
:10215000482F082E000C550B2417350749F0909195
:10216000E70292FF05C085958595859581DBE1CFD6
:1021700008959091E70292FB222720F9281759F041
:1021800080FB92F99093E7028091E6029091E7023A
:1021900040D082E0D3CF08958091E70282FB882768
:1021A00080F991E08927E5CF089581E0E2CF089595
:1021B00080E0DFCF08956FEF7FEF80E090E00C9438
:1021C0001030089580E090E00E94F12F883E9E4FED
:1021D00019F40C946A1C089580E0089582E090E060
:1021E0000C94E42F089583E090E00C94E42F08957C
:1021F000CF9384E090E00E94E42FC82F82E290E029
:102200000E94E42F2C2F30E0A901582BCA01CF9156
:102210000895CF93C92F682F84E090E00E94F62F95
:102220006C2F82E290E00E94F62FCF910895AB01CF
:10223000BC018FE090E00C9408300895AB01BC0124
:1022400083E190E00C940830089560E070E0CB01E9
:10225000F5CF089560E070E0CB01E9DFF6CF089597
:1022600068EE7EEF80E090E00E94103060E082E057
:1022700090E00E94F62F60E083E090E00E94F62F4D
:102280001092D90160E084E090E00E94F62F64E0B3
:1022900082E290E00E94F62F60E085E090E00E94EC
:1022A000F62F60E086E090E00E94F62F6FEF87E067
:1022B00090E00E94F62F40E050E0BA0188E090E004
:1022C0000E94083060E08DE090E00E94F62F40E030
:1022D00050E0BA0188E190E00E94083060E087E1B8
:1022E00090E00E94F62F40E050E0BA018CE190E0CF
:1022F0000E94083060E070E080E290E00E941030C0
:1023000040E050E0BA0188E190E00E94083080E0AF
:102310000E94831C0E94B71C9DCF0895A1CF0895F1
:10232000682F8EE090E00C94F62F08950E94B0275D
:1023300060936402709365028093660290936702D3
:1023400060936002709361028093620290936302D3
:1023500008950E94B0276093640270936502809391
:1023600066029093670260935C0270935D028093B3
:102370005E0290935F02089581E00895FDCF089575
:102380000895FECF0895FCCF0895FDCF0895F8CFAE
:102390000895FDCF0895F4CF08958FE494E10E944D
:1023A000CD25F9DFF6CF0895ECDFEACF08958DD281
:1023B0000C942D0808950E949B270E94C21C42D3B2
:1023C000F6DF80E00E942B1E0E94191B0E947823DA
:1023D000DCCF0895AAE0B0E0E0EFF1E10C94902F9B
:1023E00045D3982E8111A2DF86E5A82E82E0B82E73
:1023F00000E010E0802E802F7DD2D82EF501C19014
:102400005F01C826B1F40F5F1F4F0630110591F729
:102410008FEF89838A831B820E94A4278160782F93
:102420009D838C8349815A816B818D810E944608EE
:102430002DC08091680281FD63D2E12CFF24F394CA
:102440008C2D8F21E9F09ADF882399F0EE828F821C
:10245000DF2081E009F480E088870E94A427816062
:10246000782F9A8789874E815F8168858A850E9447
:102470004608F801EA5AFD4F8081F826F08206C02E
:10248000E394FF0CF7E0EF12DBCFBDCF81E09110BA
:1024900001C080E02A96ECE00C94AC2FCF93DF9340
:1024A00099DFD82F0E94561B0E949523C82F8111B7
:1024B00050DF0E948C20D11101C0C1110E94601F09
:1024C000BBD40E943C08DF91CF910895CF93DF9356
:1024D0000FD1EC01811521E5920708F045C0811567
:1024E00030E5930708F092C0883E910528F5803EBC
:1024F000910508F0F5C0883A910570F4853A910588
:1025000008F07AC08130910509F473C008F4E5C081
:10251000049708F0E5C0E1C08F3B910508F0DDC0ED
:10252000C85AD0E0CC0FDD1FCB5ADE4F0990D881BE
:10253000C02DCE019464D5C0811540E2940758F4B3
:10254000811551E0950708F0CBC0803F910508F454
:10255000C4C09065C6C0C11580E4D80708F4BDC0EA
:10256000DF70CE01906ABDC0811525E59207A8F401
:10257000811534E5930708F093C0811543E594076E
:1025800008F079C0811552E5950708F05FC0D82F93
:10259000CC27CE01816F906AA4C0C11589E5D80708
:1025A00098F4C11528E5D20708F080C0C11536E5BA
:1025B000D30708F092C08C2F2FD18F7190E0D82FC5
:1025C000CC27CE0190628DC0C1154AE5D40708F42E
:1025D00073C0CE0190568115904208F07EC08D2FB9
:1025E0008F711AD1DD27D0628F71AE01582BCA01CD
:1025F00078C081E090E075C0C55AD0E0CD57DE4F7D
:102600008881C82FD0E0CE0190646BC074E09695AD
:1026100087957A95E1F7282F23703C2F337081E05E
:1026200090E002C0880F991F3A95E2F79C68AC01D0
:10263000522B9A019C2F9F709695969550E2959FEC
:10264000E0011124C9018C2B9D2B4BC0837099276D
:1026500021E030E002C0220F331F8A95E2F79C2F61
:102660009695969580E2989FE0011124C22BD32B7A
:10267000CE019C6836C08370992721E030E002C00B
:10268000220F331F8A95E2F79C2F9695969540E28C
:10269000949FE0011124C22BD32BCE019A6821C054
:1026A000D82FCC27CE01846F906A1BC0DC2FCC279B
:1026B000CE01806F906A15C08C2F8F70ADD094E0E2
:1026C000D695C7959A95E1F7CF70D0E0DC2FCC274F
:1026D000D0699E01282BC90104C080E090E001C0B0
:1026E000CE01DF91CF9108950E94BE22EFCE0895D2
:1026F0008238910569F1B0F48133910509F46DC018
:1027000048F48932910509F463C08A32910509F4CD
:1027100069C008958533910509F455C08933910541
:10272000B9F00895833E910569F138F4803E910532
:10273000B1F0823E910509F10895863E9105A9F117
:10274000873E9105B9F1843E910509F064C023C02C
:102750002091E60220FD4FC021FD4DC008958091DB
:10276000E60280FD44C08091E70280FF44C0809172
:10277000E60284FD42C083EE4DC08091E60282FFF6
:1027800038C0F5CF8091E60282FD33C08091E70228
:1027900080FD31C0ECCF8091E70281FF32C0809193
:1027A000E60284FD2AC087EE35C08091E60283FFF1
:1027B00026C0F5CF8091E60283FD21C08091E7021B
:1027C00081FD1FC0ECCF8091E60285FD1CC01DC0BD
:1027D0008091E60285FD19C016C08091E60286FD53
:1027E00016C017C08091E60286FD13C010C089E3B1
:1027F00011C082EE0FC080EE0DC080E00BC086EEEF
:1028000009C084EE07C089E205C085E303C08AE2FF
:1028100001C081E390E008959091E60292FF0DC01F
:10282000282F2871283019F4877F846006C0282F4C
:102830002471243011F48B7F886093FF0DC0282F02
:102840002871283119F4877E846106C0282F2471ED
:10285000243111F48B7E88612091E70220FF0DC0A6
:10286000382F3871383019F4877F816006C0382FCF
:102870003171313011F48E7F886021FF0DC0282F17
:102880002871283119F4877E816106C0282F2171B3
:10289000213111F48E7E886194FD877E089580E059
:1028A000089589CC0895E2D08FE39CE90197F1F770
:1028B00000C00000DBD080E01DD080FF03C0F1DF4E
:1028C0000C94F1270895EFCF08957CDC811101C0AD
:1028D00025DD84DC809368028BDC9093E702809393
:1028E000E602F1DF80DC0E940A0C8091D8010C9492
:1028F0001B0C0895E82FF0E0E251FD4F8081089510
:10290000089580EA8A95F1F7089500C00895F9CFF7
:1029100008950895FECF0895FDCF0895FACF089544
:10292000FDCF0895F894E82FE295EF70F0E031A123
:10293000282F2F7081E090E001C0880F2A95EAF7D8
:10294000982F9095932391A392A1892B82A3789499
:1029500008950F931F93CF93DF93CDE8D1E0899132
:102960008F3F09F0DFDF81E0C339D807C1F7C6E840
:10297000D1E00DE811E089918F3F09F0D3DF0C170A
:102980001D07C9F7DF91CF911F910F910895A0E026
:10299000B0E0EDECF4E10C94942F8C01C62FD0E064
:1029A000CE0183579E4F7C01FC0190819F3F09F42B
:1029B00044C0D62EF894E92FE295EF70F0E081A1A3
:1029C0009F7021E030E001C0220F9A95EAF7822B38
:1029D00081A382A12095282322A3789496DFE6E89C
:1029E000F1E04DE851E031E0C12C21912F3F89F019
:1029F000A22FA295AF70B0E090968C9190E02F70CE
:102A000002C0959587952A95E2F780FD02C0832F35
:102A100001C080E0C82A330F4E175F0731F7F70176
:102A200080818F3F09F07EDF61E0C11001C060E06E
:102A30008D2D6DDFC00FD11FC882CDB7DEB7E8E0A6
:102A40000C94B02F86DF86E0EEEEF2E0DF01982FE7
:102A50001D929A95E9F7E8EEF2E0DF011D928A9562
:102A6000E9F786E03DD00C94CE060895A6E0B0E0EC
:102A7000ECE3F5E10C94972F8E010F5F1F4F86E07A
:102A8000F80111928A95E9F7F12C6F2DC8017FDFCB
:102A9000F394F6E0FF12F9CF46E050E0B80188EE7B
:102AA00092E00E94D72FFF24F394009709F4F12CB1
:102AB000892B41F086E0F801A8EEB2E001900D927A
:102AC0008A95E1F72F2D46E06EEE72E088EE92E0F7
:102AD00008D00E94D1068F2D2696E5E00C94B32FE6
:102AE0000895FF920F931F93CF93DF938C01F62EDF
:102AF000D72FC42F222349F081E080936B020E94DC
:102B0000A42790936A028093690280916B028823C4
:102B1000C1F08091690290916A020E94BC270597DA
:102B200080F0EF2DFD2FD8014C2F50E0CD01801B00
:102B3000910B841795071CF48D918193F7CF109218
:102B40006B02CDB7DEB7E5E00C94B32F0E94DA2913
:102B500032DC0C94E42908950E94E8299FDC0C944F
:102B6000FE2908950E943B270E94C12916DCEEDF52
:102B7000F3DF1ADCFDCF8091720280FF06C0609106
:102B8000070170E0660F771F26C081FF04C06091C7
:102B9000070184E005C082FF07C06091070188E05B
:102BA000689FB001112417C0909171029923D1F050
:102BB00060910601961788F72091070188E0289F09
:102BC00090011124929FA001939F500D112470E059
:102BD000CA010E946A2F6038710540F461157105C1
:102BE00019F406C068E070E0862F08958FE7089515
:102BF00081E008958091720280FF08C06091030116
:102C000070E0759567957595679521C081FF06C041
:102C10006091030170E07595679519C082FF04C04B
:102C20006091030170E010C090917002992399F0B7
:102C3000609102019617A0F780910301899FC0015E
:102C4000112470E00E946A2F6038710540F461150C
:102C5000710519F406C061E070E0862F08958FE7D2
:102C6000089581E00895803F19F485DF819503C0C0
:102C7000813F21F480DF809376020895823F19F42A
:102C80007ADF819503C0833F21F475DF809375025D
:102C90000895893F11F4AEDF04C08A3F29F4AADF0A
:102CA00081958093770208958B3F19F4A3DF819576
:102CB00003C08C3F21F49EDF8093780208959CE04E
:102CC000980F953078F421E030E0A90102C0440F5C
:102CD000551F9A95E2F7CA0190917402892B80934F
:102CE000740208958D3F21F48091720281600BC0BF
:102CF0008E3F21F480917202826005C08F3F29F4DB
:102D0000809172028460809372020895803F39F44A
:102D10009091760297FF35C01092760259C0813F9C
:102D200029F4909176021916BCF32BC0909175028C
:102D3000823F29F497FF25C01092750249C0833F56
:102D400019F41916CCF31DC090917702893F29F42C
:102D50001916BCF4109277023BC08A3F19F497FF12
:102D600010C0F8CF8B3F39F49091780297FF09C0DB
:102D7000109278022DC08C3F21F4909178021916A0
:102D8000BCF39CE0980F953080F421E030E0A9017D
:102D900002C0440F551F9A95E2F7CA0180959091A1
:102DA000740289238093740213C08D3F21F48091B3
:102DB00072028E7F0BC08E3F21F4809172028D7F54
:102DC00005C08F3F29F4809172028B7F809372023D
:102DD00080917502811106C080917602811102C036
:102DE0001092710280917702811106C08091780261
:102DF000811102C01092700208950E94A4272091B0
:102E00007502211104C020917602222321F09093B3
:102E10006F0280936E0220917702211104C02091ED
:102E20007802222321F090936D0280936C0283E755
:102E300092E00C9400260895A6E0B0E0E2E2F7E10B
:102E40000C94992F86E0E3E7F2E0DE011196019001
:102E50000D928A95E1F71092750210927602109207
:102E60007702109278028B81811104C08C818823B3
:102E700009F45DC080916E0290916F020E94BC27A0
:102E8000AC0190917102992339F02091080130E052
:102E90002417350758F04BC0209109018AE0289F7C
:102EA000900111242417350718F041C09F3F19F0F5
:102EB0009F5F909371021B81112359F05CDE111604
:102EC00014F09FEF01C091E0989F902D11249093F2
:102ED00075021C81112359F04EDE111614F09FEF7C
:102EE00001C091E0989F902D11249093760230912B
:102EF00075023323E1F0209176022223C1F045EBE5
:102F00003403C0011124992319F09093750203C072
:102F100081E08093750235EB2303C00111249923CE
:102F200019F09093760203C081E0809376028D8140
:102F3000811104C08E81882309F45DC080916C02E8
:102F400090916D020E94BC27AC0190917002992370
:102F500039F02091040130E02417350758F04BC0B8
:102F6000209105018AE0289F90011124241735073C
:102F700018F041C09F3F19F09F5F909370021D8130
:102F8000112359F037DE111614F09FEF01C091E0C4
:102F9000989F902D1124909377021E81112359F050
:102FA00029DE111614F09FEF01C091E0989F902D3B
:102FB000112490937802309177023323E1F020912D
:102FC00078022223C1F045EB3403C0011124992378
:102FD00019F09093770203C081E08093770235EB7C
:102FE0002303C0011124992319F09093780203C0A0
:102FF00081E080937802BE016F5F7F4F83E792E0AC
:103000000E94FA268111F9DE86E0FE013196A3E7DF
:10301000B2E001900D928A95E1F72696E3E00C94D8
:10302000B52FE3E7F2E086E0DF011D928A95E9F72C
:103030001092710210927002109272020895EF9233
:10304000FF920F931F93CF93DF938B01682F111182
:103050000AC0442329F0E82FF0E0EB5AFC4F6491BA
:10306000762F862F75C0212F30E0E82FF0E0442323
:1030700021F0EB5AFC4FE491F0E046E0049FC001E0
:103080001124CFEFD0E0BE010E94562F4BEA460339
:10309000C001479F900D1124800F911D800F911D3D
:1030A000982F990F890FAE01421B530B4E9FD001F1
:1030B0004F9FB00D5E9FB00D11249B2F189FA00154
:1030C0001124452F55278E01041B150B0E9FA001BF
:1030D0000F9F500D1E9F500D11247E01E81AF1081C
:1030E000E29E8001E39E100DF29E100D1124212F0F
:1030F0003327C21BD30BCE9F9001CF9F300DDE9F95
:10310000300D112462307105A9F048F46115710584
:1031100069F061307105C9F48B2F752F0DC06430D3
:10312000710581F058F06630710579F47E2F8B2F90
:10313000932F0DC0832F7B2F9E2F09C08E2F7B2FA7
:10314000952F05C08E2F732F02C07E2F852F692FDC
:10315000CDB7DEB7E6E00C94B22F41E070CF089512
:103160000895FBCF0895CF93DF93762FE901682F61
:10317000842FF7DF798368838A83DF91CF91089565
:103180008091F402282F269530E02115310519F49D
:103190008170826005C02830310524F081708E6016
:1031A0008093F402089588E090E00C94EC2F089549
:1031B000CF92DF92EF92FF926B017C01E1DFB701CA
:1031C000A60188E090E00E940830FF90EF90DF9029
:1031D000CF9008956091F4027091F5028091F6020B
:1031E0009091F702E5CF0895E4EFF2E083E0808369
:1031F00011828FEF82838383148260817181828147
:103200009381D6CF08958091F40280FF02C0869505
:10321000089580E008959091F802933018F49F5F2C
:103220009093F802882349F06091F4027091F502BE
:103230008091F6029091F702BBCF089581E0EBCF29
:1032400008959091F802992319F091509093F80203
:10325000882349F06091F4027091F5028091F602A2
:103260009091F702A5CF089581E0EBCF089580916A
:10327000F80208958093F802662349F06091F40201
:103280007091F5028091F6029091F70291CF089526
:1032900060E0F0CF08958091F50208958091F602E4
:1032A00008958091F702089570E0E9C20895609151
:1032B0000B018091F40280FF0AC080910A0123E093
:1032C000829FC001112487509D4FEECF08958091B9
:1032D0000C0190910D01891780F7E82FF0E09F0114
:1032E000220F331FE20FF31FE750FD4F11821082B0
:1032F00012828F5FF0CF9091F40290FF15C09091F1
:103300000C0120910D01921770F4E92FF0E0DF011C
:10331000AA0FBB1FEA0FFB1FE750FD4F818360839D
:1033200042839F5FF0CFC3CF0895A3E0B0E0EBE905
:10333000F9E10C94962F182FF62E042FE22E80918F
:10334000F40280FF2AC0E82FE695F0E0ED56FE4F2C
:103350009081909382028E7F823051F49E012F5F84
:103360003F4F812F00DF4B8169818A81C4DF04C018
:10337000923011F41091F5021093F502F092F602DA
:103380000093F702EE2049F06091F4027091F5028B
:103390008091F6029091F7020BDF2396E6E00C9401
:1033A000B22FE4EFF2E09181282F4381628188E01F
:1033B000890FBBCF089581E0F4CF0895E4EFF2E0E8
:1033C0009181282F4381628188EF890FAECF0895C4
:1033D00081E0F4CF0895E4EFF2E0628128E0620F2B
:1033E00008F46FEF282F438181819FCF089581E0FA
:1033F000F2CF0895E4EFF2E0628128E0621B08F466
:1034000060E0282F4381818190CF089581E0F2CF41
:103410000895E4EFF2E0438128E0420F08F44FEF13
:10342000282F6281818181CF089581E0F2CF0895B4
:10343000E4EFF2E0438128E0421B08F440E0282F4B
:103440006281818172CF089581E0F2CF089520E0FA
:103450006CCF0895FF920F931F93CF93DF93EC01EE
:10346000F12C0FEF10E060910E01F616E8F4809158
:103470000C012F2D30E0280F311DC901880F991F35
:10348000280F391F27503D4F70E0C8010E946A2F56
:10349000962F8C814091F7026091F602F99E800D83
:1034A000112461DEF394DFCF02DF9A818C8190FFDB
:1034B00002C08F5F01C081508C83CDB7DEB7E5E0DD
:1034C0000C94B32FE4EFF2E080818E7F80836081E3
:1034D0007181828193816CDE109283022FEF80E7ED
:1034E00092E0215080409040E1F700C00000DFCE24
:1034F0000895E4EFF2E080818E7F80831092830252
:103500002FEF80E792E0215080409040E1F700C02B
:103510000000CDCE08951092830280918002811127
:1035200009C081E0809380028091F40281708093D1
:103530007F02DFCF08956091F402669570E041E06C
:1035400050E08FE091E00E94CA2F892B19F481E0AE
:10355000809383020E94A42790937A028093790239
:1035600008959091F40290FF32C09170811102C0D1
:10357000926006C0883010F09E6002C0880F982BC1
:103580009093F402662349F06091F4027091F50281
:103590008091F6029091F7020BDE6091F40266953D
:1035A00070E041E050E08FE091E00E94CA2F892B4B
:1035B00019F01092830201C0BEDF81E080937C028B
:1035C0004091F7026091F6028091F50240CF089594
:1035D000682F9091F402969581E0890F883008F069
:1035E00081E0BFCF089581E0F3CF0895682F9091D7
:1035F000F40296958FEF890F09F487E0B2CF089512
:1036000081E0F4CF089561E0ACCF0895E4EFF2E0FB
:103610008081816080838695F6CF08958091F40241
:1036200080FF02C04FCF0895F1CF089560E099CF99
:10363000089580918102811128C00E94E2108111B9
:1036400003C00E948E11D0DDAEDD6093F402709352
:10365000F5028093F6029093F7026E7F51F4C4DD79
:10366000A2DD6093F4027093F5028093F6029093CA
:10367000F70286DD109283028091F40280FF02C07F
:103680008695D4DF81E0809381020895E4EFF2E033
:103690008081816080838695C9CF089510928002D1
:1036A00080917F028111F2DF46CF08950F931F931F
:1036B000CF93DF9380918302882309F43DC08091EA
:1036C0008202E091F402E695E81BE0937B028230EF
:1036D00051F4E695F0E0EE5AFC4FE491CE2FD0E0A5
:1036E0000AE21AE104C0C0EDD7E000EB18E18091D6
:1036F0007C02882361F010927C020E94A4279093A0
:103700007A028093790210927E0210927D020E94CA
:10371000A427E0917902F0917A028E1B9F0B8F3FD4
:103720009F4750F4CE0FDF1FD0937A02C0937902E7
:1037300089E792E0F8010995DF91CF911F910F91F0
:103740000895882311F0FA0101C0FB01099508953D
:103750005ADD823028F057DD873010F444CF0895C9
:1037600082E051CF08951F93CF93DF93FB01128125
:10377000111180C0EC010E9402108272CA3CFCE56B
:10378000DF0709F46BC008F5C53CECE5DE0709F47A
:103790004CC050F4C33C9CE5D907E1F108F03FC0B0
:1037A000C23CDC45A9F132C0C73C9CE5D90709F40D
:1037B00046C008F43FC0C83CFCE5DF0709F444C03C
:1037C000C93CDC4509F445C021C0C03DECE5DE073D
:1037D00088F4CE3CFCE5DF0708F04CC0CC3C9CE50F
:1037E000D90709F440C008F043C044E359E16EE151
:1037F00079E119C0C63DFCE5DF0728F4C13DDC4591
:10380000C8F5A6DF37C0CD35DD45A1F111E032C0E6
:1038100005DF30C040E05BE163EF7AE104C043EFD5
:103820005AE160E07BE18DDF25C048EE59E16BEDA8
:1038300079E1F9CF4BED59E168EE79E1F4CF46E05B
:103840005AE167EF79E1EFCF47EF59E166E07AE1BE
:10385000EACF44E25AE165E17AE1E5CF45E15AE198
:1038600064E27AE1E0CF4EE159E164E379E1DBCF54
:1038700081E0C9DE812FDF91CF911F910895269AB3
:1038800025B12F7B35B130644FB7F894FC01CB01E3
:10389000880F991F680F791F6E0F7F1FE617F707B4
:1038A00089F0819198E035B9000000C087FF25B903
:1038B000880F000000C000C000C025B900C09A9564
:1038C00091F7ECCF4FBF8FE594E00197F1F700C07F
:1038D0000000089583E290E00E94E42F823281F498
:1038E00084E290E00E94E42F853051F485E290E07C
:1038F0000E94E42F91E0893009F090E0892F01C007
:1039000080E081700895CF93C82F811102C06FEFBE
:1039100001C062E283E290E00E94F62FC11102C072
:103920006FEF01C065E084E290E00E94F62FC111C4
:1039300002C06FEF01C069E085E290E00E94F62FBF
:10394000CF910895089586E290E00E94E42F682FB9
:1039500070E080E090E008950895CF93C62FFCDFDB
:103960006C2F86E290E00E94F62FCF91089580E0C0
:10397000CADF60E070E0CB01F0DF8AD555D681E088
:10398000C2CF0895DFDFDFDFE7DFA4DF811101C0F1
:10399000EECF0895CF93FB01C281CC23E1F09C01CF
:1039A00022513F452031310518F482514DD60CC0CB
:1039B0008031FFE59F0751F481E00E942D0C43E028
:1039C00062E081E00E94C606C0E018C081319F45D8
:1039D000A9F482E0F2CF8031EFE59E0711F481E097
:1039E00004C081319F4549F482E00E94380C43E0D5
:1039F00062E081E00E94C60601C0C1E08C2FCF9139
:103A000008952FEFFC0120830895CF93DF93EC01FD
:103A10008881813871F020F4803879F442DC0CC060
:103A2000823849F0833849F436DC898337DC8A836D
:103A300004C0E9DB01C01BDC8983DF91CF910895CD
:103A4000CF93DF93EC018881813899F048F4803876
:103A5000E9F4D98123DCC82F1EDC4D2F6C2F15C053
:103A6000823881F0833891F41CDC482F6A81898187
:103A70000CC08981DBDD8981811102C03ADD06C07D
:103A800005DE04C0898104DC01C0E1DCDF91CF9157
:103A90000895EF92FF920F931F93CF93DF93EC0162
:103AA000062F0196E8814E2F50E0FA013197E3315D
:103AB000F10508F089C0EE59FF4F0C947D2F198253
:103AC00089E04BC08981823039F0833059F08130F0
:103AD00019F50E94B02701C036DF9A838B837C835F
:103AE0006D8374C07E0182E0E80EF11C10E0812F2E
:103AF0000E947A14F70181937F011F5F1630B9F796
:103B000065C08981823041F46A817B818C819D818D
:103B10000E94832F22DF5AC0602FCE0172DF56C071
:103B20004B816A8189817AD49C838D834FC02C819B
:103B30003D813227232732274B816A8189818ED4A8
:103B400045C0A6D443C07CDF41C05FDF3FC042DB3D
:103B50003DC021D51FC021D599838A8337C06B8191
:103B600070E089819A81AE014C5F5F4F9827892769
:103B7000982716D52BC06B8170E089819A81AE01A0
:103B80004C5F5F4F9827892798272DD51FC04CD5AC
:103B90001DC031D489831AC06B8170E089819A81FC
:103BA000AE014C5F5F4F982789279827A5D40EC098
:103BB0006B8170E089819A81AE014C5F5F4F9827DD
:103BC00089279827BBD402C08FEF8883602FCE014E
:103BD0000E94A028CDB7DEB7E6E00C94B22FEF929A
:103BE000FF920F931F93CF93DF93EC017B0164E669
:103BF00070E088E7EED68C01EC0EFD1ECE15DF05D9
:103C000059F017FD09C0FE01849164E670E050D7B9
:103C10008C012196892B91F3BCD7C801CDB7DEB7B3
:103C2000E6E00C94B22F0895FECF0895E1E1F3E0B1
:103C300080E092E0DF019C011D9221503040E1F7CD
:103C4000F0931605E09315058FEF9FEF9093B00268
:103C50008093AF020895E8DF0E94EA058093AB02EB
:103C600080FD02C080E801C080E28093AA02ABD64A
:103C70006DE070E08CE694E0B2DF892B11F080E01B
:103C800008958091AB0263E070E081FD03C089E696
:103C900094E002C086E694E0A2DF892B81F76DE014
:103CA00070E089E594E09BDF892B49F70E94B027FB
:103CB000DC01CB01805A9541AF4FBF4F8093110576
:103CC00090931205A0931305B0931405AFDF81E024
:103CD0008093AE028093AD021092AC0208952091C1
:103CE000AA0236E0839FC0011124629F800D911DBE
:103CF0001124811522E0920714F080E090E08F5E9D
:103D00009C4F9093160580931505089520911505F5
:103D1000309116052B5033404091AA02642F70E079
:103D2000C9010E94562F481B463010F4240F311D44
:103D3000211582E0380710F020E030E02F5E3C4F84
:103D4000309316052093150508951F93CF93DF93A5
:103D5000162F8A3011F481E003C08D3019F480E011
:103D60006AD065C0C0911505D091160596E0FE0198
:103D7000A4E8B2E001900D929A95E1F7803E30F010
:103D800086E0FE0111928A95E9F70BC0F6E08F9F5D
:103D9000B001112467587B4F46E050E0CE010E94ED
:103DA000C12F111135C0C0911505D091160546E0FF
:103DB00050E0BE0184E892E00E94D72F892BB1F138
:103DC000C151D3409E0185E0369527958A95E1F74C
:103DD00081E090E0AC0102C0440F551F2A95E2F744
:103DE0002091AF023091B002242B352B259645E06F
:103DF000D695C7954A95E1F702C0880F991FCA95D5
:103E0000E2F7822B932B9093B0028093AF020EC007
:103E1000E0911505F09116059F012A5F3F4F2E177F
:103E20003F0709F2808180958193F9CF6FDFDF91A1
:103E3000CF911F910895CF93E82F209115053091D0
:103E40001605215133404091AA02642F70E0C90148
:103E50000E94562F481B842FEE2351F066E00E94EB
:103E60004A2FC82FC150A8F060E080E26EDFFACF81
:103E7000A901480F511D4115524018F080E020E083
:103E800030E0280F311D2F5E3C4F309316052093F4
:103E90001505CF9108951F93CF93DF93EC01162F53
:103EA000FE018491882321F0612F4FDF2196F8CF06
:103EB000DF91CF911F910895EEDF81E0BCCF08958F
:103EC0008091AE028823F1F00E94B027DC01CB0183
:103ED000805A9541AF4FBF4F8093110590931205C3
:103EE000A0931305B09314058091AD0281110AC00F
:103EF00062E070E087E594E072DE892B19F481E0DE
:103F00008093AD028091AD020895A0E0B0E0EBE8AF
:103F1000FFE10C948E2F8091AE02882309F4DBC060
:103F20002091AF023091B0022115310509F4D3C0C0
:103F30008091AC028111CFC061E070E0082F10E0E9
:103F40003B01082E02C0660C771C0A94E2F7A90117
:103F500046215721452B11F48F5FF0CF9091AB0292
:103F6000980165E0220F331F6A95E1F790FD12C0BA
:103F70008295880F807680931201220F232F221FB3
:103F8000330B319520931501815E809313011092BC
:103F9000160112C045E0369527954A95E1F7220FA4
:103FA000220F220F2093120110921501295F2093F6
:103FB000130183E08093160124E630E047E050E0EF
:103FC00060E171E088E7A2D5892B09F084C0809177
:103FD000AB0280FD21C0A80195E0440F551F9A95C2
:103FE000E1F74F5E5C4F04E610E020E230E060E471
:103FF00088E7ABD5892B09F06EC062DFE301C0957D
:10400000D0958091AF029091B002C823D923D0936C
:10401000B002C093AF025FC080E2EAE8F2E0DF01E5
:104020001D928A95E9F785E0000F111F8A95E1F747
:10403000AFE9B1E04BE951E0992493942D91EA0165
:104040008991AE01B801680F711D6F5E7C4F30E041
:1040500026573D4FF90197E07F01E21AF30AA92C98
:1040600001C0AA0CEA94EAF77B01B12CE70189911F
:104070007E018A21892E8B18D82DD770CD2E0D2E3A
:10408000000CDD08C82F01C0CC0FDA95EAF78C2EA2
:10409000D194C194D108D7E0CD22DD240C2C01C0ED
:1040A00086950A94EAF78C2BD0808D298083B3946F
:1040B00088E0B812DBCF915031969F3F69F6C1E09E
:1040C000A33ABC0709F0BACF04E610E020E230E0E2
:1040D0004AE852E08CCFCDB7DEB7EEE00C94AA2FC1
:1040E0008091AE029091AD02882381F0992361F016
:1040F00062E070E085E594E072DD892B19F0809133
:10410000AD0208951092AD029091AD0281E0892731
:1041100008950C94EC0508950F931F938091AE02BF
:104120008823F1F060E080E0DADDF3DFEEDE8091FD
:10413000AD028823A9F014D7009111051091120542
:104140002091130530911405DC01CB01801B910BEC
:10415000A20BB30B8F3F9F4FAF4FBF4708F4C0DF99
:104160001F910F910895CF93DF93EC01FB018281A2
:10417000882309F43CC1C330FDE5DF0760F4CA3F82
:104180009CE5D90788F49E0122503C452431310535
:1041900008F02EC109C0C136EDE5DE0729F0C53AA9
:1041A000FDE5DF0709F024C10E94F8109093E702B3
:1041B0008093E602C1318CE5D80709F4C6C008F047
:1041C00042C0C930ECE5DE0709F49BC000F5C530FC
:1041D0008CE5D80709F485C078F4C330ECE5DE0738
:1041E00009F478C008F07AC0C230DC4509F0F5C0A7
:1041F0008091E6028160EFC0C7309CE5D90709F4E1
:1042000078C008F07AC08091E6028061E4C0CD30C9
:10421000FCE5DF0709F487C058F4CB309CE5D907EB
:1042200009F479C008F07BC08091E60288606FC015
:10423000CF30FCE5DF0709F480C008F082C0809130
:10424000E602877FC8C0CD3F9CE5D90709F471C05D
:1042500000F5C531FCE5DF0709F485C068F4C3311A
:104260009CE5D90709F475C008F095C00E94C70BFA
:104270008091E6028F77AFC0CB3FFCE5DF07A9F165
:1042800008F054C0CA3FDC4509F0A7C08091E7029E
:1042900040C0C130EDE5DE0709F489C058F4CF3FD6
:1042A0008CE5D80709F45AC008F069C08091E7028C
:1042B00082602FC0C136EDE5DE0709F47CC0C53A47
:1042C000FDE5DF0709F481C0C230DD4509F085C096
:1042D00080E06EC08091E60282607DC08091E6023F
:1042E00016C08091E602886076C08091E702826005
:1042F0004FC08091E60280626EC08091E6028064C9
:104300006AC00E94C70B8091E602806864C0846026
:1043100062C081603DC08091E6028E7F5CC080916A
:10432000E6028D7F58C08091E60216C08091E702B8
:1043300018C08091E7028D7F2BC08091E6028F7EAE
:104340004AC08091E6028F7D46C08091E6028F7B55
:1043500042C08091E602877F8B7F3DC08091E7025B
:104360008D7F8E7F15C08091E60282FB222720F987
:1043700091E0922790FB82F990FB83F92CC0809109
:10438000E702982F909591708E7F892B90FB81F991
:104390008093E70222C00E94C70B8091E60287FB50
:1043A000222720F991E0922790FB87F914C081E041
:1043B0000E94901112C08091E60284FB222720F90E
:1043C00091E0922790FB84F906C08091E602982F35
:1043D000909590FB80F98093E6028091E60290919F
:1043E000E7020E9409110E94C70B80E001C081E032
:1043F000DF91CF91089584E0089550E0440F551F58
:104400002EE0629F400D511D11249A0164E5869FA4
:10441000200D311D1124C901879608950F931F9314
:10442000CF93DF93843098F4663088F4473078F483
:10443000E4DF8C010E94E42F90E0D82FCC27C80144
:1044400001960E94E42F9E01282BC90102C080E042
:1044500090E0DF91CF911F910F9108950F931F93DB
:10446000CF93DF93843078F4663068F4473058F4A3
:10447000E901C3DF8C016D2F0E94F62F6C2FC8015C
:1044800001960E94F62FDF91CF911F910F91089511
:10449000A0E0B0E0EEE4F2E20C94922FA12CE12C2B
:1044A000F12CB12C00E010E0C0E0D0E06701C00EBC
:1044B000D11EFE01EE0FFF1FEC0DFD1DEE5AFE4F4B
:1044C000259134914C2F6B2D8A2DC8DF2196C73052
:1044D000D10579F7025F1F4FB39486E0B812E4CF9D
:1044E00084E5E80EF11CA39484E0A812DACFCDB7DE
:1044F000DEB7EAE00C94AE2FEF92FF920F931F937A
:10450000CF93DF93EA017A01E60EF71E8C01C80112
:104510008796CE15DF0569F0003521E0120720F4FB
:104520000E94E42F888301C0188221960F5F1F4FDD
:10453000EECFCDB7DEB7E6E00C94B22FEF92FF924C
:104540000F931F93CF93DF93EA017A01E60EF71ED4
:104550008C01C8018796CE15DF0559F0003521E0A2
:10456000120718F468810E94F62F21960F5F1F4FE3
:10457000F0CFCDB7DEB7E6E00C94B22F843040F434
:10458000763030F4673020F4462F672F47CF0895F8
:1045900080E090E0089580E1089589E892E0089530
:1045A000EF92FF920F931F93CF93DF93EA017A016B
:1045B000E60EF71E8C01C80189589E4FCE15DF0507
:1045C00069F0093822E0120720F40E94E42F888362
:1045D00001C0188221960F5F1F4FEDCFCDB7DEB718
:1045E000E6E00C94B22FEF92FF920F931F93CF93BC
:1045F000DF93EA017A01E60EF71E8C01C8018958A3
:104600009E4FCE15DF0559F0093822E0120718F445
:1046100068810E94F62F21960F5F1F4FEFCFCDB715
:10462000DEB7E6E00C94B22FCF93DF93C7E7D1E07B
:1046300060E0CE010E94F62F2196C11584E0D807D4
:10464000B9F7DF91CF910895A4E0B0E0EAE2F3E298
:104650000C94952FF82E8FE08F15E8F18FEF93E0F3
:104660000E94E42F811137C007E711E0FF2069F0B5
:10467000011584E0180779F1C8010E94E42F811127
:1046800001C0FA940F5F1F4FF1CF19821A821B826B
:104690001C82DD24D39478018FEFE81AF80AC80150
:1046A0000E94E42F89831A828823A9F09FEF980F34
:1046B000933058F48A83D9820E5F1F4FC7010E943E
:1046C000E42F8B83882339F07801CE0101960E9474
:1046D0000F088701E0CF2496E7E00C94B12F8FE814
:1046E00091E00197F1F700C00000089581E008957E
:1046F00081E08093B20253985B9A52985A9AEFDF06
:104700003091B202E4EBF2E090E0931769F089B1E6
:1047100083FB882780F94A9902C020E001C022E08B
:10472000822B81939F5FF1CF0895A0E0B0E0EBE989
:10473000F3E20C94942FF12CE12C84E0C82ED12CC0
:104740008091B202F81608F051C00F2D10E0E9B1C7
:10475000E3FBEE27E0F94A9902C080E001C082E065
:104760008E2BD801AC54BD4FEC912E2F237030E02E
:10477000482F082E000C550B24173507A9F1EE0F12
:10478000EE0FE82BEC93EF70F0E0ED55FE4FE801F3
:10479000CD54DD4F90818881890F8883843064F007
:1047A000F801EF54FD4F80818F5F808360E08F2D93
:1047B0000E94D30521E001C020E088818D3F5CF498
:1047C000F801EF54FD4F80818150808361E08F2D8F
:1047D0000E94D30521E08881082E000C990BB601B8
:1047E0000E946A2F8883E22AF394AACF8E2DCDB738
:1047F000DEB7E8E00C94B02FCF93DF9386319C4571
:1048000031F5EB010E940210982F8A81209100015E
:1048100030910101882371F09A7A81E009F480E0F7
:104820008093B502911102C069E201C065E3C9013C
:10483000B7D209C08091B502811102C069E201C0FE
:1048400065E3C901B9D20E94421080E001C081E055
:10485000DF91CF9108950F931F93CF93DF93C42FD0
:10486000D22FFC0182818823A9F04093B8026CD337
:104870009093B7028093B60280E28C0F883008F0E4
:104880004CC0C77081E001C0880FCA95EAF70E944A
:10489000B10943C08091B80248132FC08091B6027D
:1048A0009091B70269D38A3F910538F510E21D0F48
:1048B000CD17B9F080E28C0F883040F4C77081E0EA
:1048C00001C0880FCA95EAF70E94B609183010F5A2
:1048D00081E09D2F977001C0880F9A95EAF70E949A
:1048E000B109802F0E94A8091830B8F4D77081E070
:1048F00001C0880FDA95EAF70AC080E28C0F883091
:1049000060F4C77081E001C0880FCA95EAF70E9481
:10491000B60903C0802F0E94A809DF91CF911F9193
:104920000F9108950F939C01CB01233F4CE5340771
:1049300031F188F4283DFCE53F07D9F0293D4CE5ED
:10494000340779F1273D3C45A1F506E221EE41EE21
:1049500067ED7CE52BC0253FFCE53F07E1F0A8F0C3
:10496000263F3C4531F507E225EE46EE66EF7CE555
:104970001DC007E225EE45EE68ED7CE517C006E2B6
:1049800021EE40EE63EF7CE511C007E225EE44EE38
:1049900064EF7CE50BC006E221EE42EE65EF7CE5BC
:1049A00005C008E221E045EE69ED7CE554DF80E0DA
:1049B00008C0FC018281882319F01092B80201C05E
:1049C00081E00F9108951092B9008CE08093B800B7
:1049D0000895A0E0B0E0EFEEF4E20C94912FB82E31
:1049E000EB01B2D26C01C431D10558F0CF3F8FEF4B
:1049F000D80759F0CE0164E170E00E94562F7B0188
:104A000007C0EE24E394F12C03C025E0E22EF12C44
:104A100084E8A82E94EA992E1092BC009092BC00D3
:104A200093D28C018091BC0087FD07C08DD2801B82
:104A3000910B8E159F05B0F328C08091B900887F37
:104A4000883041F08091B900887F803119F00FEFF4
:104A50001FEF1DC0B092BB00A092BC0075D28C01AC
:104A60008091BC0087FD07C06FD2801B910B8E1513
:104A70009F05B0F30AC08091B900887F883111F09A
:104A8000803429F700E010E00DC00EEF1FEFCF3F9C
:104A90008FEFD80709F4C0CFC6016ED28C179D07DF
:104AA00008F4BACFC801CDB7DEB7EBE00C94AD2F58
:104AB0000F931F93CF93DF93EB018093BB0084E8A8
:104AC0008093BC0041D28C018091BC0087FD0DC059
:104AD000CF3F8FEFD807C1F337D2801B910B8C17D4
:104AE0009D0790F38EEF9FEF0CC02091B900287FB7
:104AF00081E090E0283211F480E090E0919581957A
:104B00009109DF91CF911F910F910895A0E0B0E03E
:104B1000ECE8F5E20C94942F6B018A017901B9015C
:104B200058DFE6010C0D1D1DC017D10741F424E923
:104B30002093BC00CDB7DEB7E8E00C94B02F97FD12
:104B4000F6CFB7018991B4DFEFCFA0E0B0E0EBEA98
:104B5000F5E20C94942FC62F6A017901B80139DF70
:104B600097FD0FC0B8018C2FA3DFE601EC0CFD1CF4
:104B7000CE15DF0531F097FD04C0B801899198DFAB
:104B8000F7CF24E92093BC00CDB7DEB7E8E00C9462
:104B9000B02F84E98093BC0008959093C301809363
:104BA000C20108959093BE028093BD020895E091E2
:104BB000BD02F091BE02309729F00190F081E02D06
:104BC0000995089580E00895F2CF0895FC01A09121
:104BD000BD02B091BE02109791F08091230188230D
:104BE00041F08091E60287FF04C08081818386E0E6
:104BF0008083CF011296ED91FC911397099508954A
:104C0000E091BD02F091BE02309739F022E0DC0164
:104C10002C930480F581E02D099508952091BB0225
:104C20003091BC022817390771F09093BC02809331
:104C3000BB02E091BD02F091BE02309721F00680E8
:104C4000F781E02D099508952091B9023091BA02BB
:104C50002817390771F09093BA028093B902E09156
:104C6000BD02F091BE02309721F00084F185E02D65
:104C700009950895FC01329680912301882331F033
:104C80008091E60287FF02C09EE101C096E080E0CD
:104C9000915028F021912223D9F38F5FF9CF089505
:104CA000662351F1209123012223E9F02091E602AD
:104CB00027FF19C0462F4695469546954E31E0F49C
:104CC000677021E030E002C0220F331F6A95E2F7DF
:104CD000FC01E40FF11D828190E02823392381E05B
:104CE000232B69F409C0FC013296089621916217C2
:104CF00029F0E817F907D1F780E0089581E00895D9
:104D00009C01FC0132969FEF80E04191461789F0AB
:104D10009F3F19F4411101C0982F8F5F8630A9F78A
:104D20009F3F39F0F901E90FF11D97FDFA95628374
:104D3000089508959C012A5F3F4FFC01428146136C
:104D400001C01282019682179307B9F70895262FA2
:104D50002695269526952E3168F4FC01E20FF11D6B
:104D6000677021E030E001C0220F6A95EAF7828186
:104D7000282B22830895262F2695269526952E31B9
:104D800070F4FC01E20FF11D677021E030E001C01A
:104D9000220F6A95EAF720958281282322830895BD
:104DA00020912301222331F02091E60227FF02C047
:104DB000CECF0895A5CF089520912301222331F06D
:104DC0002091E60227FF02C0D6CF0895B3CF089501
:104DD00020912301FC013296222331F08091E602DA
:104DE00087FF02C08EE101C086E0DF011D928A9537
:104DF000E9F7089546E050E00E94D72F21E0892B83
:104E000009F420E0822F08950895FECF089583E0ED
:104E10008093BF02FACF0895811102C081E001C0E2
:104E200082E08093BF02F1CF0895F6CF089581E02C
:104E30008093BF02EACF0895FACF08950895FECF78
:104E40000895FDCF0895FACF0895F8CF0895F6CFCD
:104E50000895CF93FADF0E943615F5DFC0E08C2F5E
:104E60000E947A14811104C0CF5FC630C1F701C01F
:104E700081E0CF91089585B7806885BF85B7806848
:104E800085BF08951F920F920FB60F9211248F9332
:104E90009F93AF93BF938091C002811113C0809103
:104EA000170590911805A0911905B0911A05419622
:104EB000A11DB11D8093170590931805A0931905A6
:104EC000B0931A05BF91AF919F918F910F900FBE34
:104ED0000F901F90189580911F05843031F10E942A
:104EE00047071092C00220E488E190E00FB6F894E2
:104EF000A895809360000FBE2093600083B7817FE8
:104F0000846083BF83B7816083BF7894889583B7BB
:104F10008E7F83BF0FB6F894A8958091600088615A
:104F200080936000109260000FBE08950E94C70B2E
:104F30000C944F07089582E084BD93E095BD9AEFED
:104F400097BD80936E0008952FB7F8948091170550
:104F500090911805A0911905B0911A052FBF0895D9
:104F60002FB7F89460911705709118058091190575
:104F700090911A052FBF08959C014FB7F894809126
:104F8000170590911805A0911905B0911A054FBF0A
:104F9000821B930B089578941F920F920FB60F9275
:104FA00011248F939F93AF93BF9380911705909196
:104FB0001805A0911905B0911A050196A11DB11D02
:104FC0008093170590931805A0931905B0931A05BF
:104FD000BF91AF919F918F910F900FBE0F901F9037
:104FE000189587E797E790930108809300089AE067
:104FF00088E10FB6F894A895809360000FBE909357
:105000006000FFCF9AE088E10FB6F894A8958093EE
:1050100060000FBE90936000FFCF8091E40208957E
:10502000089524E02093E9002FEF3091E80021500B
:1050300035FD06C035ED3A95F1F700002111F5CFA9
:105040002091E80025FF0AC040E050E066E070E0F3
:1050500070D28091E8008E778093E8000895CF9316
:10506000DF9320912301222339F02091E60227FFCC
:1050700003C060E224E002C068E021E02093E90080
:105080002FEF3091E800215035FD06C035ED3A95FF
:10509000F1F700002111F5CF2091E80025FF1CC099
:1050A000EC0180912301811105C040E050E068E0EF
:1050B00070E003C070E040E050E0CE013AD2809151
:1050C000E8008E778093E80080E2FE01A4ECB2E075
:1050D00001900D928A95E1F7DF91CF910895809329
:1050E000C1027093C3026093C20280911F05843095
:1050F000F1F48093E9008FEF9091E800815095FDE5
:1051000006C095ED9A95F1F700008111F5CF8091D9
:10511000E80085FF0CC040E050E063E070E081EC07
:1051200092E007D28091E8008E778093E80008959E
:10513000BC0184E0D4CF0895BC0183E0D0CF0895B2
:10514000CF93603211F520911F052430F1F4C09106
:10515000E900CF703091EC00232F217030FD20E862
:10516000C22B22E02093E9002091E80020FF0AC032
:1051700040E050E060E270E0DCD18091E8008E77A2
:105180008093E800CF70C093E900CF91089580919B
:105190001E05811107C095D3ECD38091E200846095
:1051A0008093E200089510921E05089545CE08955B
:1051B00060911B0581E0611101C080E028CE089557
:1051C00090911F0581E0943009F080E060911B050B
:1051D00023CE089542E061EC81E0ECD242E261EC42
:1051E00084E0E8D242E261EC82E0E4D242E260ECA8
:1051F00083E0E0D290911F0581E0943009F080E0D7
:1052000060911B0512CE089580912105833009F429
:1052100062C030F4813071F0823009F49AC0089590
:105220008A3009F487C08B3009F46DC0893009F0E9
:10523000A7C01FC080912005813A09F0A1C08091CC
:10524000E800877F8093E8008091240590912505F0
:10525000892B21F460E284EC92E003C060E080E0FE
:1052600090E070E0E8D18091E8008B778093E800CF
:10527000089580912005813209F082C08091240533
:1052800090912505009719F0029709F079C0809157
:10529000E800877F8093E8008091E80082FD05C0E8
:1052A00080911F058111F8CF6BC02091F300809190
:1052B000F20090E0922B029731F48091F10081305E
:1052C00011F0863021F48091F1008093E402809106
:1052D000E8008B7752C080912005813A09F050C0D8
:1052E0008091240590912505892B09F049C0809172
:1052F000E800877F8093E8008091E80080FFFCCF82
:105300008091230135C0809120058132C9F58091BB
:10531000240590912505892B99F58091E800877FD8
:105320008093E8007CD280912205809323010C9425
:10533000C70B089580912005813211F58091E80016
:10534000877F8093E8006BD2809123058093E502EC
:10535000089580912005813A99F48091E800877F33
:105360008093E8008091E80080FFFCCF8091E50207
:105370008093F1008091E8008E778093E8004FC21F
:10538000089584B7877F84BF0FB6F894A89580915D
:105390006000886180936000109260000FBE90E012
:1053A00080E80FB6F89480936100909361000FBE7F
:1053B0003ECD089586D2DDD2E2EEF0E080818460B9
:1053C000808378944DC5089587E191E0EBCB0895F3
:1053D00080911F05853089F480911F05853061F427
:1053E0007ADD80911D058823B9F333DD8823A1F38D
:1053F0008AD00E94C70BF0CF99CD0895A0E2B0E00B
:10540000E3E0FAE297C580911F05843009F583E057
:105410008093E9008091E80082FF1AC08091E80043
:1054200085FF09C040E050E060E270E0CE010196E7
:10543000C1D091E001C090E08091E8008B7780932B
:10544000E800992329F060E2CE0101960E94491DEF
:10545000A096E2E08BC501C00895292F33272330A1
:105460003105C9F060F42130310581F02230310579
:1054700009F041C08BE590E025EE39E040C02132D3
:105480003105E1F02232310531F135C082E190E0A1
:1054900020E43AE034C099278130910549F028F0A2
:1054A000029749F5E9EBF9E005C0E1EEF9E002C049
:1054B000EDECF9E0849190E09F0121C0633071052B
:1054C000D0F4660F771FFB01E454FE4F2081318139
:1054D00089E090E014C06330710568F4FB01EE0FC1
:1054E000FF1FEA54FE4F20813181FB01ED54FE4F36
:1054F000808190E004C080E090E020E030E0FA019C
:1055000031832083089580E189BD82E189BD09B49A
:1055100000FEFDCF8091D8008F7D8093D8008091D0
:10552000E00082608093E0008091E00081FDFCCF8C
:105530000895A0E0B0E0EEE9FAE2F6C4EC018B01D8
:105540007A018CD1811132C0E114F10439F0F701F4
:1055500080819181081B190BC80FD91FC12CD12C38
:105560000115110511F18091E80085FD15C08091AC
:10557000E8008E778093E800E114F10449F0F70128
:1055800080819181C80ED91ED182C08285E00EC073
:1055900065D1882329F30AC089918093F1000150D5
:1055A0001109FFEFCF1ADF0ADBCF80E0CDB7DEB7FE
:1055B000E8E0D6C4A0E0B0E0EFEDFAE2B5C4EC015B
:1055C0008B017A014BD1811132C0E114F10439F021
:1055D000F70180819181081B190BC80FD91FC12CBD
:1055E000D12C0115110511F18091E80085FD15C040
:1055F0008091E8008B778093E800E114F10449F092
:10560000F70180819181C80ED91ED182C08285E0C8
:105610000EC024D1882329F30AC08091F100899318
:1056200001501109FFEFCF1ADF0ADBCF80E0CDB7C1
:10563000DEB7E8E095C420912605309127052617AE
:10564000370748F06115710539F42091E8002E778D
:105650002093E80001C0B901FC0120E0611571054B
:1056600079F180911F058823F1F18530F1F1809166
:10567000E80083FD3CC08091E80082FD2EC080914F
:10568000E80080FFEBCF2091F3008091F20090E0E2
:10569000922B6115710551F08830910538F42191F4
:1056A0002093F100615071090196F3CF21E0089732
:1056B00009F020E08091E8008E778093E800CECF5B
:1056C0002111CFCF0AC080911F05882361F085305A
:1056D00061F08091E80083FD0AC08091E80082FFBC
:1056E000F2CF80E0089582E0089583E0089581E09C
:1056F000089520912605309127052617370748F091
:105700006115710539F42091E8002E772093E800A7
:1057100001C0B901FC0120E06115710591F1809192
:105720001F05882309F440C0853009F43FC08091EB
:10573000E80083FD3DC08091E80082FD2FC080918C
:10574000E80080FFE9CF2091F3008091F20090E023
:10575000922B6115710559F08830910540F4249120
:105760002093F1003196615071090196F2CF21E04A
:10577000089709F020E08091E8008E778093E80098
:10578000CBCF2111CCCF0AC080911F05882361F0B7
:10579000853061F08091E80083FD0AC08091E800C7
:1057A00082FFF2CF80E0089582E0089583E00895BB
:1057B00081E00895982F973068F59093E900981745
:1057C00039F07091EC002091ED005091F00003C091
:1057D000242F762F50E021FD02C09F5FECCF309147
:1057E000EB003E7F3093EB003091ED003D7F309336
:1057F000ED003091EB0031603093EB007093EC00E2
:105800002093ED005093F0002091EE0027FDE5CFAE
:1058100080E008958F708093E90081E00895809181
:10582000200587FF11C08091E80082FD05C08091AE
:105830001F058111F8CF11C08091E8008B770BC054
:1058400080911F05882349F08091E80080FFF8CF00
:105850008091E8008E778093E80008952091E4001D
:105860003091E50095E64091EC00842F817040FF77
:1058700023C08091E80080FD1DC080911F05882312
:1058800099F0853099F08091EB0085FD11C0409131
:10589000E4005091E5002417350729F3915011F0E9
:1058A0009A01E1CF84E0089582E0089583E00895AD
:1058B00081E0089580E008954091E80042FFDDCF47
:1058C000089568D06FD0E0EEF0E080818160808341
:1058D000E8EDF0E080818F77808319BCA7EDB0E020
:1058E0008C918E7F8C9380818F7E808310921E0599
:1058F00008950F931F93CF93DF934CD053D0C8EDEF
:10590000D0E088818F7788838881806888838881C8
:105910008F7D888319BC10921F0510921B05109271
:105920001D0510921C0500EE10E0F80180818B7FB0
:10593000808388818160888342E060E080E03ADF94
:10594000E1EEF0E080818E7F8083E2EEF0E0808106
:1059500081608083808188608083F80180818E7F70
:105960008083888180618883DF91CF911F910F911F
:105970000895E8EDF0E080818F7E8083E7EDF0E030
:1059800080818160808384E082BF81E080931E05F6
:10599000B0CF0895E8EDF0E080818E7F8083109293
:1059A000E20008951092DA001092E10008951F922B
:1059B0000F920FB60F9211242F933F934F935F9343
:1059C0006F937F938F939F93AF93BF93EF93FF93C7
:1059D0008091E10082FF0AC08091E20082FF06C050
:1059E0008091E1008B7F8093E10039D28091DA00D1
:1059F00080FF1DC08091D80080FF19C08091DA001F
:105A00008E7F8093DA008091D90080FF0CC080E106
:105A100089BD82E189BD09B400FEFDCF81E080939C
:105A20001F05B5DB04C019BC10921F05BCDB8091BB
:105A3000E10080FF18C08091E20080FF14C08091D7
:105A4000E2008E7F8093E2008091E200806180938B
:105A5000E2008091D80080628093D80019BC85E074
:105A600080931F05A5DB8091E10084FF2FC080910A
:105A7000E20084FF2BC080E189BD82E189BD09B4C9
:105A800000FEFDCF8091D8008F7D8093D80080915B
:105A9000E1008F7E8093E1008091E2008F7E809311
:105AA000E2008091E20081608093E20080911B051A
:105AB000882311F084E007C08091E30087FD02C0D5
:105AC00081E001C083E080931F057ADB8091E100D3
:105AD00083FF27C08091E20083FF23C08091E10013
