:100000000C9454060C9471060C9471060C947106B1
:100010000C9471060C9471060C9471060C94710684
:100020000C9471060C9471060C9440140C94D81A1C
:100030000C94C7290C9471060C9471060C947106EB
:100040000C9471060C9471060C9471060C94710654
:100050000C9471060C9419150C9471060C9471068D
:100060000C9471060C9471060C9471060C94710634
:100070000C9471060C9471060C9471060C94710624
:100080000C9471060C9471060C9471060C94710614
:100090000C9471060C9471060C9471060C94710604
:1000A0000C9471060C9471060C94710605010902FA
:1000B000A10185020901A100050919012905150001
:1000C00025019505750181029501750381010501E1
:1000D000093009311581257F950275088106093897
:1000E0001581257F950175088106050C0A380215D2
:1000F00081257F950175088106C0C005010980A191
:1001000001850319012AB700150126B7009501756D
:10011000108100C0050C0901A101850419012AA064
:1001200002150126A002950175108100C005010984
:1001300006A1018506050719E029E71500250195A7
:1001400008750181020507190029EF1500250195A1
:10015000F0750181020508190129059505750191C0
:1001600002950175039101C00660FF0961A10109B3
:1001700062150026FF0095207508810209631500AD
:1001800026FF00952075089102C005010906A1010E
:10019000050719E029E71500250195087501810279
:1001A0009501750881010507190029FF150026FF33
:1001B0000095067508810005081901290595057542
:1001C000019102950175039101C00000000000003B
:1001D000000000000000000000000000000000001F
:1001E00000000000000000000000000000007E0F82
:1001F00000D4FFFFFFC700000078000000000000EF
:1002000000002A2B28000000000000000000000071
:10021000000000000029000000002C1E34202122D4
:1002200024342627252E362D3738271E1F2021223D
:10023000232425263333362E37381F0405060708B6
:10024000090A0B0C0D0E0F101112131415161718A6
:10025000191A1B1C1D2F3130232D350405060708E4
:10026000090A0B0C0D0E0F10111213141516171886
:10027000191A1B1C1D2F3130354C00DA0281FFD9B1
:10028000F1DB20A4A62EAF00A0C000A1C800AED50F
:1002900080A81FD300408D142000643214208E8F5C
:1002A0009000CACBCCCD00AAABACADAE008A8B8C93
:1002B0008D002020202000534352200020202020A9
:1002C00000434150200020202020004E554D2000AA
:1002D00000556E64656600464E203300464E20325F
:1002E00000464E20310042617365004C61796572B1
:1002F00000FD377A585A000004E6D6B446020021C1
:100300000116000000742FE5A3E0028501195D00CD
:100310003D8889C65436C3174FE4DC28DE77AE78B3
:1003200018F546E06C52F081FAE7EA396439721F39
:10033000BEF91A7763CAB732BD67284F93E8F17FD9
:10034000DDBF3DCE8DBD094581986D3CC851666FBE
:10035000506C6EE29B41316EF30F85FC29E60C3F39
:100360003F71E4D30AACE2AA165DC72A96A02C79A5
:10037000DB6A17A1B84A403858182B5431556BD94D
:100380009CAF7F177DBC433241650AA914DA3D5703
:1003900056A6B198C34E5CE6DE3C92E268F52D7439
:1003A000ECEC0744620230DC818BEF5A52BBC8642C
:1003B0008FBE42F56943A30979CEF5A6FA72ADC79F
:1003C00050D9F9E0396A6CD9BEC62D66F093B0C930
:1003D000A6CF149C2465FABF1641F324E4D0981FDD
:1003E000F165628A1EB974517D134DC1A2B7D1C6A1
:1003F00017149DC06F97E38D887552364D3754DAC8
:10040000006EBBEBB2A81DE3321059F12FAD75128F
:10041000D310546E9AE30A45CB942FB06A23856EAD
:100420007932AD4C1970C93A0500000000366EC62D
:10043000E9B8634CB90001B50286050000772E6B60
:100440003DB1C467FB020000000004595A000101DD
:100450000101010101010102020202020202020283
:100460000303030303030303040404040404040553
:100470000505050506060606060707070707080817
:100480000808090909090A0A0A0B0B0B0C0C0C0DC8
:100490000D0D0E0E0E0F0F0F101011111112121361
:1004A000131414151516161717181819191A1A1BDC
:1004B0001B1C1D1D1E1E1F2020212222232424253B
:1004C0002626272829292A2B2C2D2D2E2F30313274
:1004D00032333435363738393A3B3C3D3E3F404184
:1004E00042434445464748494A4C4D4E4F5051536C
:1004F00054555658595A5B5D5E5F61626465666823
:10050000696B6C6D6F7072737577787A7B7D7E80A6
:1005100082838587888A8C8E8F91939596989A9CF2
:100520009EA0A2A3A5A7A9ABADAFB1B3B5B7BABC06
:10053000BEC0C2C4C6C9CBCDCFD1D4D6D8DBDDDFD7
:10054000E2E4E7E9EBEEF0F3F5F8FAFDFFA900AA23
:100550000001000100010001000100010014001A67
:10056000000800150017001C001800040016000702
:100570000009000A000B000D001D611B64066819CC
:10058000002A412C420543A800610060005F00136F
:100590000012000C0062005E005D005C0029000F8C
:1005A000000E002D005B005A0059002872107111D6
:1005B00074010001000100005C010001004600011F
:1005C0000001000100010001000100010001000123
:1005D000000100010001002B00E30053002600256C
:1005E000002400310030002F0027002300220021CA
:1005F000003400330035002E0020001F001E00389C
:100600000037003600010001000100010001000177
:1006100000010001000100010001000100010001D2
:100620000001000100010001004C0001000100393F
:1006300000260225022402310230022F0227022363
:1006400002220221023402330235022E0220021F4E
:10065000021E023802370236023A003B003C003DDF
:10066000003E003F004000010001000100010001C8
:100670000001000100010001000100010001000172
:10068000000100C25C0100450044004300420041FB
:1006900000C35CC95CC75CC55C010001000100C40B
:1006A0005CCA5CC85CC65C01000100010000AF00D0
:1006B000AE09025B00030100A0FA09040000010377
:1006C00001010009211101000122400007058103F9
:1006D00008000109040100020300000009211101C2
:1006E0000001222200070582032000010705030301
:1006F000200001090402000103000000092111018A
:10070000000122BC00070584032000011201000241
:1007100000000008776D0A170101010203011C03A4
:100720007600690061006C003A0066003600340013
:1007300063003200620033006300000012034200D5
:1007400044004500200052006500760032000000A1
:1007500012034D00650063006800570069006C00DB
:1007600064000000040309040000000000003E5B78
:100770004F5B3E003E6B4F6B3E001C3E7C3E1C00C0
:10078000183C7E3C18001C577D571C001C5E7F5E89
:100790001C0000183C180000FFE7C3E7FF0000182A
:1007A00024180000FFE7DBE7FF0030483A060E00A0
:1007B000262979292600407F05050700407F052569
:1007C0003F005A3CE73C5A007F3E1C1C0800081CB6
:1007D0001C3E7F0014227F2214005F5F005F5F00D9
:1007E00006097F017F00006689956A00606060608D
:1007F000600094A2FFA2940008047E040800102068
:100800007E20100008082A1C0800081C2A0808007E
:100810001E10101010000C1E0C1E0C0030383E383C
:100820003000060E3E0E0600000000000000000032
:100830005F000000000700070000147F147F140011
:10084000242A7F2A120023130864620036495620A6
:100850005000000807030000001C22410000004176
:10086000221C00002A1C7F1C2A0008083E080800E1
:100870000080703000000808080808000000606070
:1008800000002010080402003E5149453E0000428D
:100890007F4000007249494946002141494D3300DB
:1008A0001814127F10002745454539003C4A494934
:1008B00031004121110907003649494936004649AE
:1008C00049291E0000001400000000403400000010
:1008D00000081422410014141414140000412214BE
:1008E00008000201590906003E415D594E007C1284
:1008F00011127C007F49494936003E4141412200A6
:100900007F4141413E007F49494941007F09090932
:1009100001003E41415173007F0808087F000041FB
:100920007F4100002040413F01007F081422410028
:100930007F40404040007F021C027F007F0408107F
:100940007F003E4141413E007F09090906003E41CA
:1009500051215E007F091929460026494949320084
:1009600003017F0103003F4040403F001F20402023
:100970001F003F4038403F00631408146300030425
:10098000780403006159494D4300007F4141410013
:10099000020408102000004141417F0004020102CE
:1009A000040040404040400000030708000020547D
:1009B000547840007F284444380038444444280098
:1009C000384444287E0038545454180000087E09E6
:1009D00002001824241C78007F08040478000044D6
:1009E0007D4000002040403D00007F102844000072
:1009F00000417F4000007C04780478007C080404F7
:100A000078003844444438007C1824241800182402
:100A100024187C007C080404080048545454240022
:100A200004043F4424003C4040207C001C20402023
:100A30001C003C4030403C004428102844004C90AE
:100A400090907C004464544C4400000836410000FF
:100A50000000770000000041360800000201020497
:100A600002003C2623263C00000000E0FEFFFEF8CA
:100A7000C00000000000E0FCFFFEF0C0000000002D
:100A800000000000013EE080700E01000000000741
:100A90003CE080780700000000000000000000003B
:100AA00000000000000000E0FEFFFEF8C0000000B3
:100AB0000000E0FCFFFEF00000000000013EE080CE
:100AC000700E0100000000073CE080780700000085
:100AD0000000000000000000000000000000000016
:100AE0000000000000000000000000000000000006
:100AF00000000000000000000000000000000000F6
:100B000000000000000000000000000000000000E5
:100B100000000000000000000000000000000000D5
:100B200000000000000000000000F8FFFF1F071F8A
:100B3000FFFEF0C0F8FFF707077FFFFFF800C0389F
:100B40000C186080000000F00C04F41C0000000091
:100B5000000080C0FCE6C3C1C1C3E6FCC080000049
:100B6000000000000000F8FFF707071FFFFEF0C0BD
:100B7000F83F8F0F3FFFFFFE80F00C04F41C0000D5
:100B80000000000000000000000000000000000065
:100B90000000000000000000000000000000000055
:100BA0000000000000000000000000000000000045
:100BB0000000000000000000000000000000000035
:100BC0000000000000000000000000000000000025
:100BD0000000000000000000000000000000000015
:100BE0000000000000000000001F1F1F07000000A1
:100BF00000031F1F0F010306F800077F3F0EC138D7
:100C0000070E70831C601E03C03E01000000000040
:100C100000003F7FFFFFF9C0C0F9FFFF7F3F0000EA
:100C200000000000001F1F1F0706F80000733F0FA1
:100C3000C138070F7083077F1F03C03E010000000B
:100C400000000000000000000000000000000000A4
:100C50000000000000000000000000000000000094
:100C60000000000000000000000000000000000084
:100C70000000000000000000000000000000000074
:100C80000000000000000000000000000000000064
:100C90000000000000000000000000000000000054
:100CA000000000000000000011241FBECFEFDAE0BA
:100CB000DEBFCDBF11E0A0E0B1E0E0EDFCE602C098
:100CC00005900D92AE38B107D9F726E0AEE8B1E055
:100CD00001C01D92A63CB207E1F70E94EE290C94D8
:100CE00042360C9400009091BB04899FC0011124EE
:100CF000811522E0920714F090E080E082549B4F2F
:100D00009093C5068093C4060895E8EDF0E08081D5
:100D10008E7F80831092E2001092DA001092E10040
:100D2000A0EEB0E08C9181608C9380818F7780837E
:100D300019BCA7EDB0E08C918E7F8C9380818F7E63
:100D400080831092820408952091E4003091E500A0
:100D500095E6A9012091EC00822F817020FF06C04A
:100D60008091E80080FF06C080E008952091E800AF
:100D700022FD1AC08091B104882389F0853089F062
:100D80008091EB0085FD0FC02091E4003091E500DB
:100D900042175307F9F29150E1F684E0089582E09A
:100DA000089583E0089581E00895EF92FF920F93F4
:100DB0001F93CF937C018B010E94A406C82F811141
:100DC00017C08091E80085FD0BC08091E8008E7708
:100DD0008093E8000E94A406882399F3C82F08C0D6
:100DE000F70181917F018093F1000150110949F7CA
:100DF0008C2FCF911F910F91FF90EF900895CF937B
:100E0000FC018091B104843001F5C091E900CF70FC
:100E10002091EC00922F917020FD90E8C92B82E088
:100E20008093E9008091E80080FF0CC050E040E032
:100E300060E270E0CF010E94D5068091E8008E77D5
:100E40008093E800CF70C093E900CF91089580911E
:100E5000A90487FF13C08091E80082FF06C080913B
:100E6000E8008B778093E80004C08091B104811181
:100E7000F2CF08958091B1048823D9F38091E800DE
:100E800080FFF8CF8091E8008E77ECCF982F909379
:100E9000E900242F762F50E0891731F07091EC0093
:100EA0002091ED005091F00021FD07C09F5F973029
:100EB00071F78093E90081E008953091EB003E7F67
:100EC0003093EB003091ED003D7F3093ED00309199
:100ED000EB0031603093EB007093EC002093ED0059
:100EE0005093F0002091EE0027FDE0CF80E00895C0
:100EF000B0E0A0E0EEE7F7E00C945E35C8EDD0E09E
:100F000088818F7E8883E7EDF0E080818160808337
:100F100084E082BF81E08093820488818E7F888311
:100F200002EE10E0F80110821092DA0081EEC82E75
:100F3000D12CF601108288818F7788838881806820
:100F4000888388818F7D888319BC1092B1041092A8
:100F5000A8041092A7041092A60490EEE92EF12C9A
:100F6000F70180818B7F808388818160888342E064
:100F700060E080E00E944607F60180818E7F8083DA
:100F8000F801808181608083808188608083F7019F
:100F900080818E7F8083888180618883CDB7DEB732
:100FA000E8E00C947A35FC018091AF049091B00494
:100FB00086179707A0F06115710529F49091E80054
:100FC0009E779093E80090E06115710551F49111BE
:100FD00008C08091E80082FF34C080E00895BC0121
:100FE000F2CF8091B1048823C1F18530C1F18091A5
:100FF000E80083FD30C08091E80082FDEACF809157
:10100000E80080FFE1CF8091F3002091F200382FBB
:101010006115710519F02830310558F091E028303C
:10102000310509F090E02091E8002E772093E80048
:10103000CBCF81918093F100615071092F5F3F4FB9
:10104000E7CF8091B104882341F0853041F0809151
:10105000E80083FFBECF81E0089582E0089583E039
:101060000895089580918504089587E797E7909300
:1010700001088093000888E19AE00FB6F894A895DB
:10108000809360000FBE90936000FFCF2FB7F8945D
:101090006091790470917A0480917B0490917C0432
:1010A0002FBF0895209117012223C9F020917D04BC
:1010B00027FF15C0E62FE695E695E695EE31D8F4C4
:1010C000E80FF92FF11D677021E030E001C0220F19
:1010D0006A95EAF720958281282322830895FC01EE
:1010E000329608962191621303C0DF0111971C927A
:1010F000E817F907B9F70895209117012223C1F0E5
:1011000020917D0427FF14C0E62FE695E695E6952D
:10111000EE31F8F4E80FF92FF11D677021E030E0AF
:1011200001C0220F6A95EAF78281822B828308959B
:10113000FC0132962FEF30E04191641751F02F3FC0
:1011400019F4411101C0232F3F5F3630A9F72F3F1B
:1011500009F40895820F911D27FD9A95FC01628381
:10116000089520917604309177042817390771F09B
:101170009093770480937604E0917404F091750461
:10118000309721F00084F185E02D09950895209194
:101190007204309173042817390771F09093730427
:1011A00080937204E0917404F0917504309721F0FB
:1011B0000680F781E02D09950895E0917404F0917F
:1011C0007504309729F00190F081E02D099508957C
:1011D00080E00895DC016091BB038091BC03962FF1
:1011E000891301C00895292F30E0F901EE0FFF1F88
:1011F000ED54FC4F408151814A175B07A1F487E011
:101200008A9FA0018B9F500D112445585C4F81E0AF
:10121000FA0184839613E6CF2F5F3F4F2370332765
:101220002093BB0308952F5F3F4F922F9370D8CF29
:101230001092180310921703EBE7F3E085818111F8
:1012400002C014821682379683E0E33BF807B1F7B9
:10125000089581152CE5920741F420910B033091FC
:101260000C03232B11F490E080E00895FA01811122
:1012700001C0FB010995089508958091B604982F47
:101280009E7F29F4817082608093B6040895803136
:10129000E8F381708E60F8CFAF92BF92DF92EF9249
:1012A000FF920F931F93CF93DF93082F162FE9011F
:1012B000E42FF0E0E35BFB4F611110C0E4915E2F7F
:1012C0004E2F4983E8835A83DF91CF911F910F916D
:1012D000FF90EF90DF90BF90AF900895E62EF12C35
:1012E0004491D42EE42FF0E026E0829FC001112427
:1012F0002FEF30E0B9010E944035802F90E0880F39
:10130000991F55E5569FD001579FB00D11248A1B98
:101310009B0B982F990F890F5901AE18BF08AE9EED
:10132000D001AF9EB00DBE9EB00D11245B2F189F53
:1013300080011124012F11275901A01AB10AAE9E74
:101340008001AF9E100DBE9E100D11245901A81AE8
:10135000B108AE9CC001AF9C900DBE9C900D1124B5
:10136000892F9927281B390B2E9FC0012F9F900D85
:101370003E9F900D1124E92F62307105A1F050F4C9
:101380006115710509F49DCF6130710581F0EB2F76
:10139000512F97CF6430710569F080F06630710588
:1013A00009F48FCFF4CFE42F4B2F592F8ACFE42F9E
:1013B000412F87CFEB2F542F492F83CF4B2F5D2DFC
:1013C000E12F7FCF90918502803F59F48091860272
:1013D00087FF0DC01092860291110BC010927D0202
:1013E00008C0813F81F48091860218169CF39923EE
:1013F00081F08091870290918802892B09F064C066
:1014000010927C020895823F49F497FFF0CF10922A
:101410008502809186028111ECCFE0CF833F19F4E1
:101420001916ACF3E4CF20918702893F29F41216F4
:10143000F4F610928702DBCF8A3F19F427FFD7CF4B
:10144000F8CF209188028B3F29F427FFD0CF10924C
:101450008802CDCF8C3F19F41216CCF3C8CF843F4D
:1014600031F4809184028E7F80938402C0CF853FC7
:1014700021F4809184028D7FF7CF863F21F4809103
:1014800084028B7FF1CF873F21F480918402877F94
:10149000EBCF883F21F4809184028F7EE5CF8D3F92
:1014A00031F480917E028E7F80937E02A0CF8E3FAA
:1014B00021F480917E028D7FF7CF8F3F09F097CF87
:1014C00080917E028B7FF0CF089580917E0280FD17
:1014D00016C081FD16C082FD16C080917C02882353
:1014E000A1F0883280F428E0829FC001112468E2D4
:1014F00070E00E949735862F672B39F0089582E0BF
:10150000089584E0089588E0089581E00895809129
:101510007E0280FD14C081FD14C082FD16C0809142
:101520007D02882381F08E3180F420E5829FC00106
:1015300011246EE170E00E949735862F089584E1B2
:10154000089588E2089588E0089580E50895803F31
:1015500031F40E94870A8195809386020895813F25
:1015600019F40E94870AF8CF823F31F40E94870A5B
:101570008195809385020895833F19F40E94870A1C
:10158000F8CF893F29F40E94650A80938702089565
:101590008A3F21F40E94650A8195F7CF8B3F31F491
:1015A0000E94650A81958093880208958C3F19F402
:1015B0000E94650AF8CF843F31F4809184028160F3
:1015C000809384020895853F21F480918402826093
:1015D000F7CF863F21F4809184028460F1CF873F6A
:1015E00021F4809184028860EBCF883F21F48091C0
:1015F00084028061E5CF8D3F31F480917E0281606D
:1016000080937E0208958E3F21F480917E02826055
:10161000F7CF8F3FB9F780917E028460F1CF80E0F1
:101620000895F894E82FE295EF70F0E031A1282FAB
:101630002F7081E090E001C0880F2A95EAF7982F7B
:101640009095932391A392A1892B82A378940895D6
:1016500090917D0492FF06C0282F28712830F9F45C
:10166000877F846093FF06C0282F28712831F1F40A
:10167000877E846120917E0420FF06C0382F387158
:101680003830D9F4877F816021FF06C0282F287168
:101690002831D1F4877E816194FD877E0895282FBB
:1016A00024712430F9F68B7F8860DCCF282F2471D9
:1016B000243101F78B7E8861DDCF382F31713130D5
:1016C00019F78E7F8860E0CF282F2171213121F713
:1016D0008E7E8861E1CFCF93DF93EC018238910554
:1016E000A9F1D8F58133910509F496C048F58932FE
:1016F000910509F48AC08A9709F495C0C11521E5BE
:10170000D20708F0BCC0C11530E5D30708F014C1FA
:10171000C83ED10508F09CC0C03ED10560F5C83A6E
:10172000D10508F087C0C53AD10508F0FDC0C13029
:10173000D10509F12097F9F0C430D105E0F440C09B
:101740008533910509F45AC0C997C1F680917D048B
:10175000837089F0C0EED0E00EC0833E910599F110
:1017600070F4803E910501F1823E910539F6809139
:101770007D0482FD21C0CE01DF91CF910895863E88
:10178000910561F1873E910571F1843E910509F063
:10179000B5CF80917E0481FFEECF80917D04C7EEAE
:1017A000D0E084FD0DC0E7CF80917D0480FD12C1A3
:1017B00090917E0490FFDFCFC3EED0E084FFDBCFBB
:1017C000D0E0C0E0D8CF80917D0482FD06C1909129
:1017D0007E0490FDBFCF84FFCECFF2CF80917D04F9
:1017E00083FDDDCFC8CF80917D0483FDF9C090914A
:1017F0007E0491FFF0CFC4EED0E0BDCF80917D0498
:1018000085FFB9CFC9E2D0E0B6CF80917D0485FFD6
:10181000B2CFC5E3D0E0AFCF80917D0486FFABCFE0
:10182000CAE2D0E0A8CF80917D0486FFA4CFC1E3B7
:10183000D0E0A1CFCF3BD10518F6C85AD0E0CC0FED
:10184000DD1FCD5DDE4F0990D881C02DD46493CFCC
:10185000C11540E2D40758F4C11581E0D80708F05B
:101860008ACFC03FD10508F4ABCFD06584CFC11576
:1018700090E4D90708F4A4CFDF70D06A7CCFC115FB
:1018800025E5D20700F5C11534E5D30708F08AC075
:10189000C11543E5D40708F071C0C11582E5D8072A
:1018A00008F467C0CE018370992721E030E002C0C0
:1018B000220F331F8A95E2F7C695C69580E2C89F2E
:1018C000E001112452C0C11599E5D907A8F4C1154A
:1018D00028E5D20708F06BC0C11536E5D30708F03C
:1018E0006FCF8C2F0E94280BC82FD0E0DC2FCC2785
:1018F000CC27DF71D0623FCFC1154AE5D40708F489
:101900005BC0CE0190568115904208F059CF8D2FC3
:101910008F710E94280B90E0982F882788279F714D
:101920009C012C2BE901E6CFC55AD0E0C05EDE4F0A
:10193000C881D0E0D0641FCFCE01E4E096958795B2
:10194000EA95E1F783702C2F26952695237040E2C7
:10195000249F90011124382B8C2F8370C1E0D0E09C
:1019600002C0CC0FDD1F8A95E2F7C22BD32BDC68B7
:1019700002CFDC2FCC27C16FD06AFDCECE018370A1
:10198000992721E030E002C0220F331F8A95E2F749
:10199000C695C69590E2C99FE0011124C22BD32BB6
:1019A000DA68E9CEDC2FCC27C46FD06AE4CEDC2F16
:1019B000CC27C06FD06ADFCE8C2F8F700E94280B8F
:1019C00034E0D695C7953A95E1F7CF709C2FEC019E
:1019D000D069D1CEC9E3D0E0CECEC2EED0E0CBCE3E
:1019E000C6EED0E0C8CE80913602882331F0109246
:1019F000360210923502109234020895809590912B
:101A0000BF0398239093BF0308958095909183041A
:101A10009823909383040895109213021092120257
:101A2000109211020895809110029091CF019813A5
:101A300001C008958F5F8770FACFA82FA77023E0A9
:101A4000969587952A95E1F7FC01EE0FFF1FE80FA9
:101A5000F91FE60FF71F50E040E080E0219130E0F1
:101A60000A2E02C0369527950A94E2F72170332793
:101A7000042E01C0220F0A94EAF7822B4F5F5F4FBA
:101A80004330510559F70895903FC9F0963080F4DE
:101A90008730A8F4282F30E065EB71E0A901E7E07A
:101AA0009E9F400D511D1124CA010E941D0D0895D5
:101AB0009C5F923020F462EB71E090E0F6CF80E022
:101AC0000895262F277091E001C0990F2A95EAF713
:101AD00023E0769567952A95E1F7FB01EE0FFF1F4E
:101AE000E60FF71FE40FF51F50E040E0682F70E0AD
:101AF0008191DF0111979B01042E02C03695279535
:101B00000A94E2F7217021952827292328272C936E
:101B10004F5F5F4F4330510559F70895282F862FA7
:101B2000903F79F0963070F4273058F4622F70E0CF
:101B300027E0929F600D711D112445EB51E00E943A
:101B4000610D08959C5F9230E0F7622F70E042EBE8
:101B500051E0F5CF982F92959F7011F0892F94E066
:101B6000282F2695269511F09E5F822F869509F0E5
:101B70009F5F892F08959C013A9521153F4150F5AB
:101B8000FC01EE27F170BC0166277270AC0144279E
:101B900054709C012227387094FF0EC080E1EF2B17
:101BA00009F480E0672B09F08062452B09F080641E
:101BB000232B89F08068089581E0EF2B09F480E001
:101BC000672B09F08260452B09F08460232B19F004
:101BD0008860089580E00895CF93DF93682F81E0B7
:101BE0006A3019F06D3031F480E00E947A0EDF9196
:101BF000CF9108958091C4069091C50626E0FC011E
:101C0000AEEBB6E001900D922A95E1F7603E08F444
:101C100058C026E0FC0111922A95E9F7C091C4064C
:101C2000D091C50646E050E0BE018EEB96E00E94E2
:101C3000CE359E012E5B3440892B41F1C90145E030
:101C4000969587954A95E1F741E050E0BA0102C0C8
:101C5000660F771F8A95E2F7CB016091BC04709103
:101C6000BD04862B972BB9016B5F7F4FE5E076951E
:101C70006795EA95E1F702C0440F551F6A95E2F7B0
:101C8000842B952B9093BD048093BC042A5F3F4F17
:101C90004091BB04642F70E0C9010E944035481B8D
:101CA000463010F4240F311D211572E0370710F073
:101CB00030E020E022543B4F3093C5062093C40609
:101CC00096CFF6E06F9FB00111246859784F46E037
:101CD00050E00E94B835A2CFCF93DF93EC01FE0114
:101CE0008491811103C0DF91CF9108950E94EC0D82
:101CF0002196F5CFCF93382FE091C406F091C50619
:101D0000EE5BF4402091BB04622F70E0CF010E9493
:101D10004035281B822F332361F066E00E948B350B
:101D2000C82FC15010F4CF91089580E20E94EC0DAD
:101D3000F8CF9F01280F311D2115324018F080E0A7
:101D4000F0E0E0E08E0F9F2F911D82549B4F909307
:101D5000C5068093C406E7CF0E946C0E81E00E9406
:101D60007A0E0895B0E0A0E0E8EBFEE00C945E355A
:101D70006C017B0164E670E088E70E945734EC0157
:101D800097FD12C010E000E0F601E00FF11F849112
:101D900064E670E00E94C534EC01892B29F40F5FE2
:101DA0001F4F0E151F0581F70E943C35CE01CDB7A0
:101DB000DEB7E8E00C947A35809115039091160314
:101DC000911103C091E089270895882369F062E0AA
:101DD00070E08FEA96E00E94B20E892B19F0809194
:101DE000150308951092150380911503EBCFCF933F
:101DF000C0911503809116038823D1F00E944608F4
:101E0000605A75418F4F9F4F609311037093120377
:101E10008093130390931403C11108C062E070E033
:101E20008DEA96E00E94B20E892B29F0C09115032D
:101E30008C2FCF91089581E080931503F7CF809385
:101E40007F0470938104609380048091B104843096
:101E5000F9F48093E9008FEF9091E800815095FDAF
:101E600006C095ED9A95F1F700008111F5CF8091AC
:101E7000E80085FF0DC050E040E063E070E08FE7D0
:101E800094E00E94D5068091E8008E778093E80068
:101E90000895BC0184E00E941F0F0895BC0183E0F7
:101EA0000E941F0F08959C0184E08093E9009FEF3A
:101EB0008091E800915085FD06C085ED8A95F1F787
:101EC00000009111F5CF8091E80085FF0CC050E033
:101ED00040E066E070E0C9010E94D5068091E8000C
:101EE0008E778093E8000895CF93DF93EC01809183
:101EF00017018823B1F180917D0487FF32C060E231
:101F000084E08093E9008FEF9091E800815095FD87
:101F100006C095ED9A95F1F700008111F5CF8091FB
:101F2000E80085FF1BC08091170170E050E040E0A1
:101F3000811104C050E040E068E070E0CE010E94F2
:101F4000D5068091E8008E778093E80080E2FE015C
:101F5000A6E8B4E001900D928A95E1F7DF91CF9168
:101F6000089568E081E0CDCF8091B60480FD0AC07D
:101F7000E1E9F2E0118210821282339652E0E93AEE
:101F8000F507C1F7269A35B13F7B25B120644FB7DD
:101F9000F89481E992E0FC015191CF0168E025B904
:101FA000000000C057FF35B9550F000000C000C049
:101FB00000C035B900C06A9591F7F2E0893A9F07F1
:101FC00051F74FBF8FE594E00197F1F700C0000093
:101FD0000895EF92FF921F93CF93DF93EC0181E975
:101FE000E82E82E0F82E10E08C8197014091B90430
:101FF0006091B804810F0E944C09115E83E0E80EE5
:10200000F11C183F89F70E94B40F9A818C8190FFD0
:1020100008C08F5F8C83DF91CF911F91FF90EF906D
:1020200008958150F7CFCF93DF93C7E2D2E060E00D
:10203000CE010E9406362196C11584E0D807B9F773
:10204000DF91CF9108950F931F93CF93DF93142FB8
:10205000022F8430F0F461111CC094E0899FE001EC
:102060001124C958DE4F82E090E0442311F090E043
:1020700080E0632F8C0F9D1F0E94063683E090E066
:10208000112311F081E090E0602F8C0F9D1F0E94C2
:102090000636DF91CF911F910F9108951F93CF9333
:1020A000DF93122F8430E0F46630D0F44730C0F470
:1020B000C42FD0E0CC0FDD1F9EE0699FC00DD11D65
:1020C000112494E5899FC00DD11D1124632FCE01E9
:1020D00087960E940636612FCE0188960E940636AA
:1020E000DF91CF911F910895CF93C82F6FEF81118A
:1020F00062EA83E290E00E9406366FEFC11163E06E
:1021000084E290E00E9406366FEFC11169E885E233
:1021100090E00E940636CF910895A4E1B0E0E3E993
:10212000F0E10C945735C0900B03D0900C0381E084
:1021300090E090930C0380930B038DE4E82E85E0F0
:10214000F82E9DE5A92E95E0B92E10E0450100E09E
:1021500015C0F30125913491452D602F812F0E94E8
:102160004E1082E0680E711C5394E7E05E12F1CFCE
:10217000FEE08F0E911C0F5F063019F03401512CD8
:10218000E8CFF7012591349141E060E0812F0E9472
:102190002310F70132962591349140E060E0812FC1
:1021A0000E94231084E0E80EF11C1F5FE4E5AE0EF0
:1021B000B11C143009F0CACF1A8219821C821B820A
:1021C0001E821D8218861F828AEF90E09A87898777
:1021D00007E811E04AE050E0B801CE0101960E9404
:1021E0002A36065F1F4F073DF1E01F0799F77E0172
:1021F0008BE0E80EF11C8AE0F70111928A95E9F76D
:102200004AE050E0B801C7010E942A36065F1F4F1E
:102210000732F2E01F07A1F7D0920C03C0920B0324
:102220006496EFE00C94733580E00E94741060E0D7
:1022300086E290E00E9406360E948D100E941310E4
:1022400081E00E94741008959B01883070F49AE038
:10225000899FB001112469577E4F4AE050E0C901BF
:102260000E94E23590E080E008958FEF9FEF08959F
:10227000AAE0B0E0EEE3F1E10C945A3502EC13E091
:10228000F12CE12C82E2C82E80E2D82E99E4A92E0E
:1022900090E2B92E24E8822E2FE1922EF801D1820D
:1022A000C082B382A28295828482F58AE48ABE01CA
:1022B0006F5F7F4F8E2D0E942411892B29F4898511
:1022C0009A85F801938B828BFFEFEF1AFF0A0A5E63
:1022D0001F4F88E0E816F10409F72A96ECE00C9409
:1022E0007635AAE0B0E0E7E7F1E10C945E35EBEB80
:1022F000F2E080E5DF011D928A95E9F7EBE7F3E074
:1023000088E3DF011D928A95E9F78BEBC82E82E006
:10231000D82E7F0107ED11E0F701D182C0824AE09B
:1023200050E0B801CE0101960E94E23588E0FE013E
:102330003196D60101900D928A95E1F789859A85AB
:10234000D70113969C938E931297BAE0CB0ED11CB3
:10235000E7E0EE0EF11C065F1F4F0732F2E01F07A9
:10236000D9F62A96E8E00C947A35FF920F931F93E2
:10237000CF93DF93F42E843040F5611126C024E022
:10238000829F8001112409581E4F82E090E044236F
:1023900011F090E080E0800F911F0E94F235C82F6D
:1023A000D0E0DC2FCC2783E090E0FF2011F081E02B
:1023B00090E0800F911F0E94F2359E01282BC901E9
:1023C000CDB7DEB7E5E00C947D3590E080E0F8CF46
:1023D0000F931F93CF93DF93843030F5663020F551
:1023E000473010F5C42FD0E0CC0FDD1F2EE0629FE8
:1023F000C00DD11D112434E5839FC00DD11D1124C2
:10240000CE0187960E94F235082F10E0102F00278A
:10241000CE0188960E94F2359801282BC901DF91E0
:10242000CF911F910F91089590E080E0F8CF462F53
:10243000672F20910F0330911003232BF9F4703F85
:1024400039F4403FD9F480910D0390910E03089523
:102450008430A0F4763028F4473080F40E94E811EC
:1024600008957D3F39F4411109C041E060E00E94C8
:10247000B51108957C3F11F44423C1F390E080E04E
:102480000895CF92DF92FF920F931F93CF93DF9324
:102490006C010091B20480913702082BC7E0D0E0B4
:1024A00010E0FC2EC8010C2E02C0959587950A9469
:1024B000E2F780FD0CC02197A0F7F12C8F2DDF9162
:1024C000CF911F910F91FF90DF90CF900895B601AB
:1024D0008C2F0E9417120E946B0B019761F3EECFB5
:1024E000CF93DF93EC010E944112BE010E941712AC
:1024F0000E946B0BDF91CF910895FC01868197813B
:10250000009791F00E946B0B92959F709630B9F0F6
:1025100080F4925F9F70923080F4803F19F058F4FD
:10252000883E58F481E00895808191810E94701264
:10253000EBCF9A5FEFCF843FA9F380E00895883E08
:1025400088F3813FD1F7EECFA5E0B0E0EAEAF2E10F
:102550000C9463359C01FC01868197810097E1F41E
:1025600085E0DE01119601900D928A95E1F7F9015F
:10257000228189819A81222399F0662389F00E9421
:102580004112182F682F89819A810E948E0D6981CE
:102590007A81812F0E9417122596E3E00C947F35F3
:1025A0000E94440D182FF3CF83E290E00E94F23591
:1025B000823A89F484E290E00E94F235833059F443
:1025C00085E290E00E94F23591E0893809F090E0D0
:1025D000892F8170089580E0FCCFCF92DF92EF9237
:1025E000FF926B017C010E943D09B701A60188E0C2
:1025F00090E00E941836FF90EF90DF90CF90089502
:10260000A3E0B0E0E6E0F3E10C946035182FF62E7D
:10261000042FE22E8091B60480FF36C0E82FE695A5
:10262000F0E0EA58FE4F908190938F028E7F8230C7
:1026300079F59E012F5F3F4F812F0E944C098091B9
:10264000B60480FF0FC08B8199812A81E1E9F2E015
:10265000218390838283339632E0E93AF307C1F70E
:102660000E94B40F1093B704F092B8040093B90419
:10267000EE2051F06091B6047091B7048091B804D7
:102680009091B9040E94ED122396E6E00C947C35FB
:10269000923041F71091B704E5CFE6EBF4E04381C7
:1026A00028E0421B08F440E021E0628181810E9421
:1026B00000130895E6EBF4E0438128E0420F08F4AC
:1026C0004FEF21E0628181810E9400130895E6EBC3
:1026D000F4E0628128E0621B08F460E021E04381BD
:1026E00081810E9400130895E6EBF4E0628128E006
:1026F000620F08F46FEF21E0438181810E94001393
:102700000895E6EBF4E0818121E043816281885005
:102710000E9400130895E6EBF4E0818121E04381FB
:102720006281885F0E94001308958091BA04882313
:1027300019F081508093BA046091B6047091B70487
:102740008091B8049091B9040E94ED12089580918F
:10275000BA04833018F48F5F8093BA046091B60492
:102760007091B7048091B8049091B9040E94ED1261
:102770000895E6EBF4E083E0808311828FEF82839B
:102780008383148260817181828193810E94ED1222
:10279000089568EE7EEF90E080E00E94243660E0CD
:1027A00082E090E00E94063660E083E090E00E94C4
:1027B00006361092370260E084E090E00E94063610
:1027C00064E082E290E00E94063660E085E090E0FE
:1027D0000E94063660E086E090E00E9406366FEFC9
:1027E00087E090E00E94063640E050E0BA0188E0C1
:1027F00090E00E94183660E08DE090E00E9406367E
:1028000040E050E0BA0188E190E00E94183660E0B4
:1028100087E190E00E94063640E050E0BA018CE18A
:1028200090E00E94183670E060E080E290E00E9444
:10283000243640E050E0BA0188E190E00E9418366A
:1028400080E00E9474100E94141140E050E0BA0130
:102850008FE090E00E94183640E050E0BA0183E13A
:1028600090E00E941836089590E080E00E940036C3
:10287000883E9E4F19F40E94D412089580E0089576
:102880001F920F920FB60F9211242F933F934F93E5
:102890005F936F937F938F939F93AF93BF93EF93C8
:1028A000FF938091E10082FF09C08091E20082FFE6
:1028B00005C08091E1008B7F8093E1008091DA0078
:1028C00080FF24C08091D80080FF20C08091DA0072
:1028D0008E7F8093DA008091D90080FF9DC080E1D7
:1028E00089BD82E189BD09B400FEFDCF81E08093FE
:1028F000B10480918204811109C00E9485060E9462
:1029000078078091E20084608093E2008091E1008A
:1029100080FF17C08091E20080FF13C08091E20029
:102920008E7F8093E2008091E20080618093E200DC
:102930008091D80080628093D80019BC85E0809394
:10294000B1048091E10084FF2BC08091E20084FFFC
:1029500027C080E189BD82E189BD89B5982F91703A
:1029600080FFFBCF8091D8008F7D8093D80080912D
:10297000E1008F7E8093E1008091E2008F7E809362
:10298000E2008091E20081608093E2008091A804DF
:10299000882309F447C084E08093B1048091B10496
:1029A0008091E10083FF27C08091E20083FF23C074
:1029B0008091E100877F8093E10082E08093B10401
:1029C0001092A8048091E1008E7F8093E1008091B5
:1029D000E2008E7F8093E2008091E200806180932C
:1029E000E20042E060E080E00E9446078091F00053
:1029F00088608093F000FF91EF91BF91AF919F911C
:102A00008F917F916F915F914F913F912F910F9097
:102A10000FBE0F901F90189519BC1092B104109220
:102A2000820474CF8091E30087FD93E09093B1041A
:102A3000B5CF78941F921FB61F9211248F939F9346
:102A4000AF93BF938091790490917A04A0917B0415
:102A5000B0917C040196A11DB11D809379049093DF
:102A60007A04A0937B04B0937C04BF91AF919F91B3
:102A70008F911F901FBE1F9018959C014FB7F8941F
:102A80008091790490917A04A0917B04B0917C04A8
:102A90004FBF821B930B08952FB7F8948091790450
:102AA00090917A04A0917B04B0917C042FBF08958B
:102AB0006091B604669570E041E050E085E191E0F8
:102AC0000E94C135892B19F481E0809390020E9405
:102AD0004C1590938A028093890208959091B604D0
:102AE00090FF2CC0917081112AC092609093B6041F
:102AF000662351F06091B6047091B7048091B804D8
:102B00009091B9040E94ED126091B604669570E050
:102B100041E050E085E191E00E94C135892BB1F0A0
:102B20001092900281E080938C0220E04091B904E1
:102B30006091B8048091B7040E9400130895883012
:102B400010F09E60D3CF880F982BD0CF0E945815DD
:102B5000E9CF8091B6048695815009F487E061E061
:102B60000E946E1508958091B60486958F5F883017
:102B700008F081E061E00E946E1508958091B6042E
:102B800080FF08C0869582588F77853018F40E94A0
:102B9000B315089561E082E00E946E1508950E94C9
:102BA0004C159C019091850280918602982B21F012
:102BB0003093820220938102909187028091880253
:102BC000982B21F03093800220937F02E0917404CF
:102BD000F0917504309749F082E08093830204807D
:102BE000F581E02D83E892E009950895A6E0B0E034
:102BF000ECEFF5E10C945B358E010F5F1F4F86E023
:102C0000F80111928A95E9F781E5C82E81E0D82E66
:102C1000F12CE12CAA24A394B12CF60181916F012F
:102C20008F3F09F443C0F894E82FE295EF70F0E08D
:102C300021A18F70A50102C0440F551F8A95E2F7AC
:102C4000CA01922F982B91A392A18095892382A3E8
:102C5000789400C0E7E5F1E0912C31E021912F3F1D
:102C600009F46EC0A22FA295AF70B0E090968C913F
:102C700090E02F7002C0959587952A95E2F780FD28
:102C80005FC0832F982A330F51E0EE35F50731F7F7
:102C9000F601319780818F3F11F00E94110B80EA7D
:102CA0008A95F1F7F801EE0DFF1D9082EFEFEE1A15
:102CB000FE0AF6E0EF16F10409F0AFCF46E050E06F
:102CC000B8018BE392E00E94CE35FF24F394009785
:102CD00009F4F12C892BB1F186E0F801ABE3B2E005
:102CE00001900D928A95E1F781E080933A020E946B
:102CF0004C1590933902809338028091380290915C
:102D000039020E943D15059708F180913B0280939E
:102D1000760280913C028093770280913D028093FD
:102D2000780280913E028093790280913F028093E5
:102D30007A028091400280937B0210923A0206C090
:102D400080E0A0CF80913A028111D7CF8F2D2696B7
:102D5000EBE00C947735809183049091BF03892B2D
:102D60008093900180913602882329F10E944C15AE
:102D70002091340230913502821B930B88389341A5
:102D800010F00E94F30C8091900190913602892BF3
:102D900080939001809117018823E1F180917D0457
:102DA00087FF38C08EE1E2E9F1E090E08150A0F5C4
:102DB00091110E94F30C40E250E064E172E080E97E
:102DC00091E00E94CE35892B21F180E2E0E9F1E02B
:102DD000A4E1B2E001900D928A95E1F7E0917404CC
:102DE000F09175043097A9F080911701882359F06C
:102DF00080917D0487FF07C08091900180939101AD
:102E000086E0809390010280F381E02D80E991E0DB
:102E10000995089586E0C7CF2191222339F29F5F5B
:102E2000C5CFEF92FF920F931F93CF93DF93EC01E7
:102E30008A85811134C0EB80FC8087E5F81A26E191
:102E40002E9DC0012F9D900D1124DC01AE53BC4F6F
:102E50001496ED91FC911597309731F054966D9141
:102E60007C9188539C4F099586E18E9D80018F9DB2
:102E7000100D11240E531C4FF80187810E94050D7F
:102E8000F80180850E94FE0C0E94AB1618821986FC
:102E90001B861E821D821092C1031092C003CDB703
:102EA000DEB7E6E00C947C35CF93DF93EC018989A3
:102EB000811119C081E0898B809183049F81892BC6
:102EC000809383048091BF039885892B8093BF03EF
:102ED0000E94AB16EA81FB81309729F06C897D89CD
:102EE000CE0106960995DF91CF91089590E080E09C
:102EF0000E94C70890E080E00E94B1081092BF03D2
:102F00000E94AB1686E0E3E8F2E0DF011D928A95AD
:102F1000E9F710927D0210927C0210927E020E94CC
:102F2000CF1508958093B2040E947617089580917A
:102F3000B204982F9670963021F488600E94921700
:102F40000895877FFBCF21E030E001C0220F8A95F2
:102F5000EAF720958091B20482230E949217089587
:102F6000909113028095892380931302282F277054
:102F700091F4282F082E000C330B9217130659F0EA
:102F800090917E0492FF07C08595859585950E9456
:102F9000A3170E940C0D0895CF93C0917E04C2FB2D
:102FA000992790F9981791F080FBC2F9C0937E049D
:102FB00060917D0484E090E00E9406366C2F82E2EE
:102FC00090E00E94063682E00E94B017CF910895EB
:102FD00021E030E001C0220F8A95EAF78091B20427
:102FE000822B0E9492170895809337020E947617D1
:102FF000089580911701E2E9F1E0882361F0809162
:103000007D0487FF08C08EE1DF011D928A95E9F7F4
:103010000E947617089586E0F7CFAAE2B0E0E3E1D8
:10302000F8E10C94633589EA94E02091F100DC0129
:103030002D93CD01B4E0813B9B07B9F78091AA04A1
:10304000833009F472C0B8F4813009F449C0823089
:1030500009F4B5C08091E80083FF98C28091A9046B
:103060009091AA049A3008F091C2E92FF0E0EC5B4D
:10307000F94C0C94AB358A3009F490C08B3009F4CC
:1030800071C0893039F78091A904813219F7809194
:10309000AD049091AE04009711F00297D9F680919B
:1030A000E800877F8093E8008091E80082FF38C0C5
:1030B0009091F3008091F200029731F48091F10039
:1030C000813011F0863021F48091F10080938504E5
:1030D0008091E8008B778093E8000E942707BACFA1
:1030E0008091A904813A09F0B5CF8091E800877FEB
:1030F0008093E8008091AD049091AE04892B61F437
:1031000060E286E894E070E00E94D3078091E800D6
:103110008B778093E8009ECF60E090E080E0F3CF73
:103120008091B1048111C0CF95CF8091A904813ADB
:1031300009F090CF8091AD049091AE04892B09F0F5
:1031400089CF8091E800877F8093E8008091E80034
:1031500080FFFCCF809117018093F1008091E800FF
:103160008E77B9CF8091A904813209F073CF809115
:10317000AD049091AE04892B09F06CCF8091E800EA
:10318000877F8093E8000E9427078091AB0480939B
:103190001701109283040E94F9175CCF8091A90453
:1031A000813209F057CF8091E800877F8093E80053
:1031B0000E9427078091AC04809384044BCF8091B8
:1031C000A904813A09F046CF8091E800877F809377
:1031D000E8008091E80080FFFCCF80918404BCCFA0
:1031E000803899F0823809F0D1C18091AD048F7098
:1031F000873008F0CBC18093E9008091EB0085FB1C
:10320000882780F91092E90006C08091A604909169
:10321000A704911182609091E800977F9093E80055
:103220008093F1001092F1008091E8008E77AAC19E
:10323000882309F498C1823009F0A8C18091AB04B9
:1032400081119BC18091AD048F702FEF280F263024
:1032500008F09CC18093E9002091EB0020FF8DC114
:10326000933031F48091EB0080628093EB0085C154
:103270009091EB0090619093EB0021E030E001C071
:10328000220F8A95EAF72093EA001092EA008091D3
:10329000EB008860EACF811179C11091AB041F77F0
:1032A0008091E3008078812B8093E3008091E80097
:1032B000877F8093E8000E9427078091E80080FFC5
:1032C000FCCF8091E30080688093E30082E01111DD
:1032D00083E08093B1045AC18058823008F056C10F
:1032E0002091AB043091AC042C3DE3E03E07A1F506
:1032F00083E08A838AE289834FB7F894DE011396CC
:1033000020E03EE051E2E32FF0E050935700E491DB
:1033100020FF03C0E295EF703F5FEF708E2F90E0CB
:10332000EA30C0F0C7968D939D932F5F243159F7F3
:103330004FBF8091E800877F8093E8006AE270E0E9
:10334000CE0101960E94D3078091E8008B7780938D
:10335000E8001CC1C096E7CF8091AD049091AE0407
:10336000432F55274330510509F44AC078F54130C1
:10337000510509F485C08BE590E0E1EBF6E04230C1
:10338000510509F003C12091E800277F2093E80050
:103390002091AF043091B0048217930708F49C0188
:1033A00040E02115310509F070C041116EC08091D7
:1033B000E80082FDC9CF8091B104882329F28530CD
:1033C00019F28091E80083FFF2CFBECF4132510560
:1033D00009F447C04232510509F0D8C08330910545
:1033E00008F0D4C0FC01EE0FFF1FEF57FE4F019015
:1033F000F081E02D82589E4FDC018C9190E01DC041
:10340000332721303105E9F02115310579F02230DB
:103410003105F9F02330310509F0B8C0EEE1F7E0ED
:10342000E4918E2F90E0EEE1F7E007C0E4E6F7E0EC
:10343000E4918E2F90E0E4E6F7E0009709F4A6C04F
:10344000A2CFE0E5F7E0E4918E2F90E0E0E5F7E031
:10345000F4CFECE3F7E0E4918E2F90E0ECE3F7E0BB
:10346000ECCF8330910508F091C0880F991FFC01C3
:10347000E957FE4F0190F081E02D89E090E083CF85
:1034800082E190E0ECE0F7E07ECF8091B104882308
:1034900009F45ACF853009F457CF8091E80083FDB5
:1034A00053CF8091E80082FD82CF8091E80080FFB9
:1034B00078CF9091F3008091F2002115310519F039
:1034C0008830910550F041E0089709F040E0809184
:1034D000E8008E778093E80064CF44914093F10038
:1034E0003196215031090196E8CF803809F04EC05D
:1034F0008091E800877F8093E8008091A804809302
:10350000F10092CE811142C01091AB041230F0F55F
:103510008091E800877F8093E8001093A8040E94C0
:103520002707112311F084E005C08091E30087FD97
:10353000FACF81E08093B10442E061EC81E00E9427
:10354000460742E261EC84E00E94460742E261ECF9
:1035500082E00E94460742E260EC83E00E94460758
:103560008091B10413C08091AB04813079F481E083
:10357000933009F080E08093A7041092E9008091D5
:10358000E800877F8093E8000E9427078091E80089
:1035900083FF0AC08091E800877F8093E8008091D4
:1035A000EB0080628093EB00AA96E3E00C947F35F9
:1035B0001F920F920FB60F9211242F933F934F93A8
:1035C0005F936F937F938F939F93AF93BF93CF93AB
:1035D000DF93EF93FF93D091E900DF708091EC00CF
:1035E000C82FC17080FDC0E81092E9008091F00002
:1035F000877F8093F00078940E940D181092E90064
:103600008091F00088608093F000CD2BCF70C09344
:10361000E900FF91EF91DF91CF91BF91AF919F9121
:103620008F917F916F915F914F913F912F910F906B
:103630000FBE0F901F901895109283040E94F917E7
:103640002FEF84E39CE0215080409040E1F700C0E0
:10365000000088E19AE00FB6F894A8958093600086
:103660000FBE90936000FFCF882321F00E94FE0CD4
:103670000E94AB160895882339F09091BF03982BD0
:103680009093BF030E94AB160895882321F00E94F7
:10369000050D0E94AB160895882339F0909183049C
:1036A000982B909383040E94AB160895882391F180
:1036B0009CEF980F913A40F4682F80E991E00E94C6
:1036C00052080E94AB16089590E2980F983050F47B
:1036D000877091E001C0990F8A95EAF7892F0E94BF
:1036E000050DEFCF9BE5980F933028F490E080E034
:1036F0000E94C708089598E5980F973128F490E044
:1037000080E00E94B1080895803F20F00E94E20905
:103710000E94CF150895CF93C82F8823D1F18CEF45
:103720008C0F813AC0F580911701882311F18091A7
:103730007D0487FF1EC0EC2FE695E695E695F0E048
:10374000E057FE4F828190E04C2F477021E030E03F
:1037500002C0220F331F4A95E2F782239323892B5D
:1037600089F06C2F80E991E00E9452080E94AB160C
:1037700009C0E2E9F1E08191C81799F381E0E839E5
:10378000F807C9F76C2F80E991E00E947C080E943D
:10379000AB16CF91089580E28C0F883068F4C77023
:1037A00021E030E001C0220FCA95EAF7809183043E
:1037B000822B80938304EBCFEBE5EC0FE33040F4F6
:1037C000F0E0E05EFE4F808190E00E94C708E1CF0C
:1037D000E8E5EC0FE73150F4F0E0EE0FFF1FED5D90
:1037E000FE4F808191810E94B108D3CFC03F88F203
:1037F0008C2F0E94A70A0E94CF15CBCF1F93CF9387
:10380000DF93182FCAE0D0E0893311F4C0E5D0E08F
:10381000812F0E948B1B8FE99FE00197F1F700C079
:1038200000002197C1F7812F0E94561BDF91CF9195
:103830001F9108950F931F93CF93DF93C62FD42F1B
:10384000022FFC0182818823A9F06093B5040E94B5
:103850004C159093B4048093B304C77081E001C009
:10386000880FCA95EAF70E944C1BDF91CF911F91F8
:103870000F9108958091B504681332C08091B3040C
:103880009091B4040E943D158A3F910548F510E2DD
:103890001D0FCD17B9F080E28C0F883040F4C7704F
:1038A00081E001C0880FCA95EAF70E94451B1830D5
:1038B00048F481E09D2F977001C0880F9A95EAF730
:1038C0000E944C1B802F0E94FE1B183070F6D77090
:1038D00081E001C0880FDA95EAF70E94451BC5CF49
:1038E000C77081E001C0880FCA95EAF7F6CFB0E053
:1038F000A0E0EDE7FCE10C945C35EC018AE0A82E39
:103900002881222309F48FC02130C9F599818A8149
:10391000913021F422960E94FE1B05C0923029F4BA
:1039200022960E948B1B2196EBCF933021F4229696
:103930000E94561BF8CF943011F02196F4CF2296B6
:1039400030E020E0AE014F5F5F4F8053990B8A302B
:10395000910550F02150310930F38FE99FE0019734
:10396000F1F700C00000F6CFA29EB001A39E700D3B
:1039700011249C01260F371F8981EA01E3CFE22F32
:10398000F0E0E650FE4FB490822F8695869586959E
:1039900090E0FC01E651FE4FE4902770F12C022EDE
:1039A00002C0F594E7940A94E2F731E0E322FF24A1
:1039B000FC01E652FE4FC490D12C022E02C0D594D9
:1039C000C7940A94E2F731E0C322DD24FC01E653F8
:1039D000FE4F049110E002C0159507952A95E2F775
:1039E00001701127E114F10419F081EE0E948B1B84
:1039F000C114D10419F086EE0E948B1B8B2D0E94FE
:103A0000FE1BC114D10419F086EE0E94561BE1146E
:103A1000F10419F081EE0E94561B0115110509F4FD
:103A200082CF8CE278CFCDB7DEB7EAE00C94783560
:103A300090917E0492FF10C098E0899F900111241C
:103A4000622B609313020E94E8170E944C1590931A
:103A500012028093110208950E94E8170895A9E1C7
:103A6000B0E0E5E3FDE10C945435498B5A8B6B8B48
:103A70007C8B8D8B61111092BF031D861E861F8665
:103A8000188A85E0FE017196DE01199601900D926B
:103A90008A95E1F780917E0482FF1CC00E944C153C
:103AA0002091110230911202821B930B88389341AE
:103AB00020F08091130282FFEBC10E944C152091EF
:103AC000340230913502821B930B8838934110F0F9
:103AD0000E94F30C8C859D85892B31F089859A8510
:103AE00089238F3F09F0C0C129853A854B855C85C4
:103AF0006D857E858F8598890E944D28C3C048EFCB
:103B0000C4164CE5D40629F4882379F00E942429B0
:103B1000EBCF69EFC6166CE5D60639F4882329F099
:103B2000809116018111F2CFAFC10BE713E0E12CB8
:103B3000B12CA12C88248394912C2EEF522E442456
:103B40004394F8014081518166246A94762C20E0E8
:103B5000822F90E0FC01EE0FFF1FE40FF51F608144
:103B600071816115710531F0C616D70609F43C0163
:103B70002F5FEECFF12CFFEF6F167F0609F444C0E4
:103B8000F8014481F09016018F2D411180E0F82F4B
:103B9000F170FF2EF801258086819B85992309F419
:103BA000F2C0FF2009F4EFC0211014C0A401062CBC
:103BB00001C0440F0A94EAF7842B8683809117038F
:103BC00090911803C29730F462E370E07093180389
:103BD00060931703C40102C0880F991F2A95E2F76A
:103BE0000197F80126812817190671F48091BD0309
:103BF0009091BE03009709F449C00E943D15C397F8
:103C000008F444C0F8014482EF28FFEFAF1ABF0A5E
:103C1000095F1F4F28E0A216B10409F092CF8B85EF
:103C2000882309F40CC1EE2009F409C10E944C1547
:103C30009093BE038093BD0380911A03883010F5E2
:103C400091E0980F90931A0398E0FE013996DE01F7
:103C5000119601900D929A95E1F73CE0839FC00187
:103C60001124855E9C4F28E0FE013196DC01019015
:103C70000D922A95E1F72FEF3FEFFC013187208766
:103C8000D386C2866996E2E10C9470358091BB03BD
:103C90005091BC03982FF0E0E0E0851314C090939E
:103CA000BB030E171F0709F4AFCF90E0FC01EE0F26
:103CB000FF1FED54FC4FB182A082019683709927BB
:103CC0008093BC03A1CF282E312CF101EE0FFF1FF2
:103CD000ED54FC4F20813181F7E0F29FD001F39F3A
:103CE000B00D1124A558BC4F2D913C911197398FDF
:103CF000288F40E020E030E0E32FF0E0EE0FFF1FE0
:103D0000688D798DE60FF71F6080718061147104F2
:103D1000E1F0F8010190F081E02DFF8BEE8B20E0C7
:103D200005C06616770609F44F2D2F5FE22FF0E0ED
:103D3000EE0FFF1F6E897F89E60FF71F608171818B
:103D40006115710571F73F5FD7CF4423C9F0F801C2
:103D5000231708F0FD0144820E171F0721F49093EA
:103D6000BB03F42E51CF981305C0AE17BF0711F453
:103D70009F5F937091012F5F3F4F822F83708DCF94
:103D8000F0E0E0E0F7CF90E0211020C0B40102C0E5
:103D9000660F771F2A95E2F79B01215031098217A0
:103DA000930731F4442309F448C0C5010E94EA088E
:103DB000C401062C01C0880F0A94EAF7982F909549
:103DC000F801868189238683F22C1ECF9C01062C64
:103DD00002C0359527950A94E2F7A901417055274D
:103DE000BC016150710986239723892B11F5452B5E
:103DF00001F1F80182819381892BC1F01B821C8221
:103E00001D821E8259825A820E944C158160582F51
:103E10009D838C83F801828193818F839887298188
:103E20003A814B816D817E810E944D28F801158277
:103E3000BFCFF22FF1702F2EBBCF2F2CB9CF909187
:103E4000BB038091BC03981731F00E943329EE2008
:103E500009F44ACE17CF0E94BF281092BE031092D9
:103E6000BD030E941809F3CF61E0CE0109960E94BC
:103E7000A4126C018B85F7EFCF16FCE5DF0609F085
:103E80003ECE882309F451CE81E0809316012CCEDA
:103E900082E00E94B01711CEA5E0B0E0E2E5FFE1BC
:103EA0000C9462358C0190930E0380930D030115E1
:103EB00080E21807C0F4802F0E94561BC8010E94A0
:103EC000BB0D9801205E31092830310518F001152D
:103ED000110531F40E94451B2596E4E00C947E35D3
:103EE0000E94341BF9CF80EF89838A831B820E9452
:103EF0004C158160782F9D838C8349815A816B8119
:103F00008D810E942F1DE8CF0F931F93CF93DF93D6
:103F10008C01EB0161EB72E08C2F0E942411892B44
:103F2000A1F48FE39CE90197F1F700C00000DD27C1
:103F3000C755DD4F8881F801108218828330F1F077
:103F400048F4813059F0823081F0DF91CF911F9198
:103F50000F9108958430B9F08530B9F78091B1029E
:103F60009091B202009789F306C08091B3029091BC
:103F7000B402009799F30E944C1FE7CF8091B502DD
:103F80009091B602F6CF8091B7029091B802009757
:103F900091F72091B1023091B2028091B3029091D9
:103FA000B40221153105F1F2009729F7C901E3CFD9
:103FB000A5E0B0E0EEEDFFE10C9462358C0190934A
:103FC0000E0380930D03011580E21807C0F4C801A9
:103FD0000E94BB0D9801205E31092830310518F090
:103FE0000115110549F40E944C1B802F0E948B1B68
:103FF0002596E4E00C947E350E943B1BF6CF80EFC3
:1040000089838A8381E08B830E944C158160782F9D
:104010009D838C8349815A816B818D810E942F1DE4
:10402000E7CFCF93DF93EC010E94D81F8FE39CE989
:104030000197F1F700C00000CE010E944C1FDF91F4
:10404000CF9108950F931F93CF93DF938C01862F09
:1040500061EB72E00E942411892BB1F4C091B1028E
:10406000D091B202209781F0F8018081833051F421
:10407000CE010E941120CE010E941120CE010E948B
:10408000112002C08430D0F7DF91CF911F910F91A2
:1040900008950F931F93CF93DF938C01EB0161EB96
:1040A00072E08C2F0E942411892B09F061C0FE015F
:1040B000FF27D8018C91E755FD4F8130D9F419962F
:1040C0009C911997992311F080830CC01A969C91AA
:1040D0009923D1F382E080838091B3029091B4025E
:1040E0000097D9F48091B1029091B202009709F43F
:1040F0003FC013C08230D1F519968C911997811168
:104100002AC01A968C9181110BC083E08083809124
:10411000B5029091B602009701F10E94D81F28C005
:1041200084E080838091B7029091B8020097A9F74C
:104130008091B1029091B2020097F9F00E94112093
:104140008091B3029091B402009739F78091B10247
:104150009091B202E2CF85E080838091B10290918C
:10416000B202009729F00E941120F0CF86E08083F0
:10417000DF91CF911F910F9108958091B30290919B
:10418000B402B4CFA4E0B0E0E8ECF0E20C945B350C
:104190007C01DC0113968D919C911497892B39F049
:1041A0008C9111969C9189238F3F09F0C4C4249669
:1041B000EBE00C947735D60116968C9116978823F0
:1041C000D1F019968D919C910817190739F48091B7
:1041D000C0039091C1030817190769F0F60197868B
:1041E00014870387C6010E945417C60106960E94D1
:1041F00011171092BF03FFEFAF1ABF0A26E1C20EDC
:10420000D11CB1C4980122513F452031310508F03D
:1042100062C48FEF93E00E94F2358111A6C05EEE7A
:10422000D52ED00E07E212E0D11036C019821A82C4
:104230001B821C8299249A9468014FEFC41AD40AF5
:10424000C8010E94F23589831A82882309F48DC03F
:10425000813009F07FC0580152E0A50EB11CC601A3
:104260000E94F235C82E8A83882309F47EC0C501D6
:104270000E94F235D82E8FEF8C0D8330D8F4580180
:1042800083E0A80EB11CDB82DD2021F0CE01019677
:104290000E94771C8501D0CF011534E0130709F483
:1042A00064C0C8010E94F235811101C0DA940F5F29
:1042B0001F4FBACF8BEF8C0D833030F5C8010396BA
:1042C000DB825C01DD2031F35801A4E0AA0EB11CB1
:1042D0000E94F2358C838823E9F28B819C818130A6
:1042E000BFEF9B0710F0982F8827E6E0CE1631F03D
:1042F000F7E0CF1631F00E941120CCCF0E94D81FDA
:10430000C9CF0E944C1FC6CF24E0C212C3CF5801B0
:1043100034E0A30EB11CC80103960E94F235DD20E3
:1043200021F1882311F18150990B989E9001999E5B
:10433000300D11244D2D4150550BCA01820F931F92
:10434000019708F4A7CFAFE9BFE01197F1F700C0DC
:104350000000F6CFCE0101960E94771C56019ACF3D
:1043600081E00E94E8170E949717809113028770DE
:1043700009F41DCFD70112968C91882309F417CF29
:1043800080917E0482FF13CF82E00E94B0170FCF8E
:1043900081E00E94A317E7CF82E0E3CF2FEFC216A0
:1043A000D10411F008F0ADC361EB72E08C2D0E94D6
:1043B0002411892B29F586E18C9DF0018D9DF00D4E
:1043C0001124EE53FC4F8681813009F07FC080912B
:1043D000B1029091B202892B99F08091B302909131
:1043E000B402892B69F08091B5029091B6022091B8
:1043F000B7023091B802822B932B892B09F470C03D
:1044000080910C0190910D018C159D0524F4D092A2
:104410000D01C0920C01F701828196E19C9D500133
:104420009D9DB00C112495012E533C4F6901D9017B
:1044300050968C935097928116968C91169799234B
:1044400009F45CC01A961C930E9319978F5F169609
:104450008C930E944C15F6019687858780913602D1
:1044600087838091BF0390918304892B808701907B
:10447000F081E02D309741F0D60154966D917C91FA
:10448000C50188539C4F09951093C1030093C00345
:10449000F7018281882309F47EC31092B5040631A6
:1044A000FCE51F0709F0F1C3809183048A7A91E04B
:1044B00009F490E09093B00169E2811165E380E92D
:1044C00091E00E947C080E94AB164FCF823009F029
:1044D00097CF8091B5029091B602892B09F490CFC5
:1044E00026E12C9DC0012D9D900D11248E539C4FD3
:1044F000DC0150961C920E94541782CF882341F20F
:10450000F9018189882321F2C50188539C4F0E94BB
:104510001117BECF053F8CE51807C9F0A0F027E2C0
:1045200045EE66EE063FACE51A0709F0B1CFC701CC
:104530000E941A1C1ACF27E245EE65EEF8CF26E25C
:1045400041EE60EEF4CF27E245EE64EEF0CF26E2D6
:1045500041EE62EEECCF28E241E0EFCF8091B00176
:1045600069E2811165E380E991E00E945208ABCFD6
:1045700081608093B60461E086950E946E15F5CE49
:1045800049EA55E163EB75E10E943609EECE43EB53
:1045900055E169EA75E1F8CF41E853E16BE873E171
:1045A000F3CF4BE853E161E873E1EECF47E653E127
:1045B00064E773E1E9CF44E753E167E673E1E4CFF1
:1045C0004AE553E16DE473E1DFCF45E953E167EA82
:1045D00073E1DACF47EA53E165E973E1D5CF109291
:1045E00083040E94F9175FEF84E39CE05150804000
:1045F0009040E1F700C000000E94350880917E04E1
:1046000082FB882780F991E089270E94CC17F70167
:10461000868197810097C1F10E946B0B8C01F70195
:10462000C280B580B2943FE0B322809113028770BC
:10463000C1F0AC2CCC20B1F0812F807F803421F0F0
:1046400080E2800F883068F080917E0482FF09C08C
:1046500082E00E94B017809113028770AA24A3946D
:104660008111A12C912E92942FE09222FBE0F9155A
:1046700008F47EC0E92DF0E0E25BF94C0C94AB3518
:1046800081E0C3CF80E0C1CF828100811181882386
:1046900069F0C8010E944112D82E682FC8010E94FB
:1046A0008E0DB8018D2D0E941712B6CFC8010E9441
:1046B000440DD82EF6CF212F2F70D22E107F19F057
:1046C000D29490EFD922CC20B9F0DD2069F080E2BD
:1046D000800F883010F0011109C080918304D82A1E
:1046E000D09283040E94AB16802F40C08091BF03FC
:1046F000D82AD092BF03F6CF802F0E94561BDD2010
:10470000B9F180E2800F883010F0011104C08D2DC6
:104710000E94050D03C08D2D0E94FE0C0E94AB1659
:1047200027C0312F3F70D32E107F103219F0D29452
:1047300080EFD822002351F0013009F48DC0CC2045
:1047400009F496C0BB2009F463C0CECF80917E04EB
:1047500082FD37C0CC2079F1DD2039F080918304CF
:10476000D82AD09283040E94AB1680E00E948B1B53
:10477000A92DA850BB0B149710F40E94DD08AA20A5
:10478000A9F08091130280FD11C0F7011282859576
:10479000859585950E94E817C7010E94C2208091E7
:1047A00013028595859585950E94A31760E0C70142
:1047B0000E94A412FCCC80E00E94561BDD20C1F2B6
:1047C000A6CFCC2049F1B11004C0809136028D29CA
:1047D00020C041E0B41210C082FFCACF80913602DF
:1047E000D82AD81629F20E944C159093350280934E
:1047F0003402D0923602BCCF55E0B512E6CF0E940B
:10480000F30C9091B1018D2D892B89138093B10107
:104810008D2D0E944C1BACCFB11003C00E94F30C35
:1048200012C081E0B81213C0809183048D2109F475
:104830009FCF0E94F30C9091B1018D2D809589231B
:1048400089138093B1018D2D0E94451B91CF95E076
:10485000B91609F48DCFE2CFCC2029F0A5E0AB1535
:1048600008F486CFD5CFB4E0BB1508F481CFEBCFE9
:10487000BB2049F3093309F026C1EFEFF7EE23E03F
:10488000E150F0402040E1F700C00000802F0E947E
:10489000561B6ECF812F86958695837061F081308F
:1048A00009F066CFC8019370C11002C090E080E0AB
:1048B0000E94B1085DCFC8019370C11002C090E0A2
:1048C00080E00E94C70854CF802FCC2029F00E949E
:1048D000A70A0E94CF154CCF0E94E209FACF812F80
:1048E000837089F5C11044CF402F4295469547709B
:1048F000440F440F802F8F70042E01C0880F0A943C
:10490000EAF7202F207104FF07C02FE030E001C03C
:10491000220F4A95EAF720951695169513701230D6
:1049200069F050F430913702113029F0822B832343
:104930000E94F4171DCF832B822BFACF282B809156
:1049400037028227F5CF8695CC2011F0812F817018
:10495000882309F40DCF402F429546954770440FA8
:10496000440F802F8F70042E01C0880F0A94EAF73D
:10497000202F207104FF07C02FE030E001C0220F7C
:104980004A95EAF72095169516951370123069F03E
:1049900050F43091B204113029F0822B83230E940D
:1049A0009217E6CE832B822BFACF282B8091B2046C
:1049B0008227F5CF1F70CC2029F0812F0E94E817A5
:1049C000802F27CF802F0E94451B812F0E94A31785
:1049D000CFCE023F89F160F4003FB9F0013F81F092
:1049E000CC2009F464C0B1107FCE812F8F7128C014
:1049F000033F49F1043FA1F780917E0482FD2FC05F
:104A0000812F8F71CC2011F31BC0CC2081F094E05A
:104A10009B1508F4ADCE1F7181E090E0012E01C01E
:104A2000880F0A94EAF79091B2048927B8CFA5E0DD
:104A3000AB1508F49DCEEFCF812F8F71C110C6CF7B
:104A40000E94E81795CE80E0CC2009F4A8CF1F7112
:104A500081E0012E01C0880F0A94EAF7A0CFCC2094
:104A6000C9F0809113028770843041F40E940C0DCC
:104A7000812F8F710E94A317A12C7ACEB4E0BB15B1
:104A8000D8F31F71812F0E94E81763E0812F0E94E5
:104A9000181DF2CFE4E0EB1530F40E940C0D64E039
:104AA000812F8F71F4CF81E00E94B017E5CFBB203A
:104AB00079F0093341F4FFEF27EE33E0F150204065
:104AC0003040E1F7E1CE8FE39CE90197F1F7DCCECE
:104AD000812F8F717BCF0031FFE51F0709F440CC98
:104AE00001312FE5120709F457CC6801E7E5DE1A1A
:104AF000882309F453CCFFEFCF16D10409F008F452
:104B00007FCC033FFCE51F0709F419CD08F002CD67
:104B1000083D3CE5130709F40ECD093D4CE51407AB
:104B200009F419CD073D5CE5150709F0B1CC26E283
:104B300041EE61EEFCCC61E0C7010E94A4128C0141
:104B4000D70112968C918823B1F080910C0190913D
:104B50000D01019681F062ECC62E63E0D62EB12CD9
:104B6000A12C9924939480910C0190910D018A15A8
:104B70009B050CF020CBF7018281811143CB0031E2
:104B80003FE5130709F404CC01314FE5140709F0A0
:104B9000ACCF82E0FECB0631BCE51B0709F4DECCCE
:104BA0008091830482720A3CECE51E0709F408CD6B
:104BB00008F047C0053C2CE5120709F4EDCC58F588
:104BC000033C4CE5140709F4DBCC08F0E0CC023CD4
:104BD0008CE5180709F01BCD8091B60480FFC8CC86
:104BE0008E7F8093B6046091B6047091B704809173
:104BF000B8049091B9040E94ED12109290022FEF28
:104C000030E742E0215030404040E1F700C0000072
:104C10000E94B40FAACB073C9CE5190709F4C6CC47
:104C200008F4BFCC083CBCE51B0709F4C4CC4DE438
:104C300053E16AE573E1093CECE51E0709F4A4CCF5
:104C4000E6CC003DFCE51F0778F40E3C2CE512078E
:104C500008F08BCB0C3C3CE5130709F4BBCC08F403
:104C6000B4CC61E081E089CC063D5CE5150740F4F9
:104C7000013D8CE5180708F078CB0E94BE1575CB76
:104C80000D35100709F471CBC2CC0A35ADE51A0712
:104C900009F4F6CC68F40115ECE51E0709F49FCC85
:104CA0000E3D1C4509F0B3CC0E94C9130E941C1B89
:104CB0000C352DE5120709F4A1CC08F4E3CC073A32
:104CC0001D45A1F3A4CCCF93DF938091CC01807FCD
:104CD00009F049C08091C901882309F444C080913A
:104CE0001002D091CF016091C7017091C801A091CD
:104CF000CA01B091CB01C62FC723D817A1F190E00C
:104D0000109711F0CF3F19F401968770F6CF9C01F0
:104D100043E0220F331F4A95E1F7F901E053FE4FBC
:104D200041814713F1CF40814613EECF42814111BB
:104D3000EBCF438154814A1B5B0B4A3F510520F75F
:104D40008091CC018F7080618093CC01F901EB528E
:104D5000FE4F80818F708061808387EC91E00E949C
:104D6000C2200E94130DDF91CF910895A5E1B0E01C
:104D7000ECEBF6E20C945C358C0185E0F801DE0189
:104D8000519601900D928A95E1F7F801E28067EC67
:104D9000A62E61E0B62E6091CA017091CB0161151B
:104DA000710509F45CC19091C7014091C801892F38
:104DB00084238F3F09F453C120813181C380D48083
:104DC000F090C901F601E61BF70BFF2009F411C1B1
:104DD0008091CC01582F507FEA3FF10508F0C4C004
:104DE000511175C0FE2C43131EC092131CC060915C
:104DF000CD017091CE01F801468157816417750786
:104E000091F4E11010C08F7080618093CC01C501D6
:104E10000E94C2208091CC01F80185838F2D659678
:104E2000EAE00C947835C114D10429F0822F832351
:104E30008F3F09F02FC180E0F82FF170DF2E80FF47
:104E40003CC0809110024091CF01841315C0298B82
:104E50003A8B89899A890E947012292F22952F7086
:104E60002230F8F0243020F59F70F9F0F801958198
:104E7000907FD9F4D12C1FC090E0FC0153E0EE0FDD
:104E8000FF1F5A95E1F7E053FE4F5181351306C0DD
:104E90005081251303C05281E5120FC0019687701F
:104EA000D4CF9F7011F0882329F3805E883010F3EF
:104EB000C8010E94C220FD2CB1CFEE2009F4AECF74
:104EC0008091CC0181608093CC01F12CA7CF43135A
:104ED0001BC0921319C04091CD015091CE01F80131
:104EE000268137814217530779F4E1100DC085837D
:104EF000C8010E94C22088E0F801A7ECB1E001904F
:104F00000D928A95E1F78ACFC8010E947D1288230D
:104F100039F1EE2029F18091CC018032A0F020916E
:104F2000C7013091C8013A8729871B86DD86CC8668
:104F30008E878091CD019091CE01988B8F87CE0185
:104F400009960E94C22088E0F801A7ECB1E0019028
:104F50000D928A95E1F70E946326FF24F3945ECFB9
:104F6000C8010E94C220F9CF51110AC087EC91E01C
:104F70000E94C22088E0F50111928A95E9F7A5CF39
:104F8000431318C0921316C04091CD015091CE0129
:104F9000F801268137814217530761F4E1100AC0F6
:104FA0008583C8010E94C22088E0F50111928A958C
:104FB000E9F734CFC8010E947D12882389F2EE20E0
:104FC00079F28091CC01803208F4BDCF2091C701E5
:104FD0003091C8013A8329831B82DD82CC828E8383
:104FE0008091CD019091CE0198878F83CE0101965B
:104FF000A8CFEA3FF105C0F6FE2CEE2009F4B0CFB1
:1050000043131FC092131DC02091CD013091CE01DA
:10501000F801868197812817390799F49091CC017E
:1050200090FD69CF907F09F466CF8091CC01858394
:10503000903F09F45DCF982F907F905F8F70892B00
:1050400056CFC8010E947D1281117DCF8091CC0185
:1050500081608093CC01C8010E94C220DFCEEE2087
:1050600009F47ECFC8010E947D12F82E882309F42E
:1050700077CF88E0F801A7ECB1E001900D928A9516
:10508000E1F78091C7019091C8010E9470120E94BF
:105090006326C4CE81E08E25CFCEA0E1B0E0E3E56B
:1050A000F8E20C94643529873A874B875C876D87D3
:1050B0007E878F87988BCE0109960E94B626811134
:1050C00012C088E0FE013996DE01119601900D9222
:1050D0008A95E1F78C859D85892B29F089859A85AC
:1050E00089238F3F81F5809110029091CF01891320
:1050F00017C06096E2E00C94803593E0AA0FBB1FC6
:105100009A95E1F7A053BE4F98E0FE0131960190C9
:105110000D929A95E1F78093CF010E94130DE3CF92
:10512000B8E08B9FC001112480539E4F0E94B62689
:105130008823F9F28091100290E0019687709927F8
:1051400080931002D0CFA091CF01B0E0CD010196A5
:1051500087709927209110022817190671F610926E
:1051600083040E94F9171092CF011092100288E078
:10517000E7ECF1E0DF011D928A95E9F7B4CFB0E0EA
:10518000A0E0E5ECF8E20C945F3580911A038823E7
:1051900061F0C0911903D12C1CE080911A03C8174B
:1051A00048F010921A0310921903CDB7DEB7E7E06A
:1051B0000C947B3501E00C0F00931903EC2EF12CBD
:1051C000C19FE0011124C55EDC4F8B819C81892B3E
:1051D00029F08881998189238F3F11F4C02FDDCF79
:1051E0001E9DF0011F9DF00D1124E55EFC4F868190
:1051F0009781892B21F480859185019651F428812E
:1052000039814A815B816C817D818E819F810E9481
:105210004D281E9DF0011F9DF00D1124E55EFC4FF1
:10522000148213821092BF03D110D8CFCE010E94F6
:105230007D128111D3CF8FE39CE90197F1F700C074
:105240000000DD24D394CACF1092BE031092BD0398
:10525000109216018091BC038093BB030E94180931
:105260000E94BF280895B0E0A0E0E9E3F9E20C94C1
:105270005535C091BB0397E0892E01E010E02CE08A
:10528000322E3EEF932E442443948091BC038C1322
:1052900009C00E94BF280E941809CDB7DEB7E1E11E
:1052A0000C947135D0E0FE01EE0FFF1FED54FC4F62
:1052B00080819181889ED001899EB00D1124A558CE
:1052C000BC4F14962C911497211158C050901A037A
:1052D000EBE1F3E030E020E0712C5D01251508F0F2
:1052E0004BC0E284F384D501CD90DC906FEF7FEF6B
:1052F000612C462D50E0DA01AA0FBB1FAC0DBD1D7D
:105300000D90BC91A02D109731F0EA16FB0609F420
:10531000BA016394EECF6F3F7607A9F1D80102C0BE
:10532000AA0FBB1F6A95E2F77A2AB801062C02C0C1
:10533000660F771F0A94E2F7AB01415051097416CA
:105340001506F9F4329EF001339EF00D1124E55E4E
:10535000FC4F889ED001899EB00D1124A558BC4FEA
:1053600012962D913C9113973783268390829182D8
:105370009187808715964C920E94EA082196C37007
:1053800084CF148213822F5F3F4F3C96A7CF1F928A
:105390001FB61F9211248F939F93AF93BF93809159
:1053A0007804811113C08091790490917A04A091BE
:1053B0007B04B0917C044196A11DB11D80937904BA
:1053C00090937A04A0937B04B0937C04BF91AF9137
:1053D0009F918F911F901FBE1F901895CDB7DEB77C
:1053E000CB54D1090FB6F894DEBF0FBECDBF85B741
:1053F000806885BF85B7806885BF84B7877F84BF95
:105400000FB6F894A8958091600088618093600041
:10541000109260000FBE80E890E00FB6F894809381
:105420006100909361000FBE8FE09BE090938F012D
:1054300080938E010E9438110E9471110E9485068E
:105440000E9478078091E20084608093E200789463
:105450008091B1048823A1F01091E9001F70909110
:10546000EC00892F817090FD80E8182B1092E900E4
:105470008091E80083FD0E940D181F701093E900D1
:1054800082E084BD93E095BD9AEF97BD80936E0056
:105490000E94D412811102C00E94141101E511E092
:1054A00057E5E52E51E0F52ED8018D918D018F3F06
:1054B00011F00E94110BE016F106B1F707E511E0BB
:1054C0004EE5E42E41E0F42EF80181918F018F3FEB
:1054D00011F00E94110BE016F106B1F786E0E6E745
:1054E000F2E0DF01282F1D922A95E9F7EBE3F2E0C5
:1054F000DF011D928A95E9F70E943414811102C0E0
:105500000E94C91382E090E00E94F2358093440229
:1055100084E090E00E94F235182F82E290E00E9431
:10552000F235982F812F90937E0480937D040E9402
:10553000F615EFE3FCE93197F1F700C000000E9497
:10554000F6158091760280FF08C06FEF7FEF90E044
:1055500080E00E9424360E94350883E090E00E949B
:10556000F2350E94F41783E080936F0280E280930B
:10557000BB040E9451346DE070E08DE892E00E941F
:10558000B20E892BE9F580916F0263E070E081FD36
:105590004FC18AE892E00E94B20E892B89F56DE036
:1055A00070E08AE792E00E94B20E892B49F50E94D2
:1055B0004608605A75418F4F9F4F60931103709357
:1055C00012038093130390931403EEEBF4E080E056
:1055D00092E0DF019C011D9221503040E1F7F093F1
:1055E000C506E093C4068FEF9FEF9093BD048093B0
:1055F000BC0481E08093160380931503109270021F
:1056000080914102811133C00E943414811104C081
:105610000E94C9130E94B91388E090E00E94FA35F5
:105620006093B6047093B7048093B8049093B90460
:105630006E7F71F40E94B91388E090E00E94FA3501
:105640006093B6047093B7048093B8049093B90440
:105650000E943D09109290028091B60480FF04C020
:1056600060E086950E946E1581E08093410281E0A2
:1056700080934D0252985A9A53985B9A8FE891E022
:105680000197F1F700C0000020914D024EE452E076
:10569000FA018E2F841B821708F4CDC080E091E0C0
:1056A000909375048093740486E792E0A6E0A80FB7
:1056B0002A96AFAF2A978091B104853011F530E476
:1056C000F32EEE24E39400E112E18091B1048530E1
:1056D00009F4BDC0109283040E94F9170E94DD08EE
:1056E0001092430280914202882349F08091B604CF
:1056F00081608093B60460E086950E946E150E94DA
:1057000058150E94F615E82E81110E944608A6E75A
:10571000B2E0E5E4F2E010E000E0302F8D9121915D
:10572000281709F4F1C090E0FF24F3942827422FB2
:105730004F2109F4E4C09FAF21963FAF21978F21FD
:1057400091E009F490E022969FAF22970E944C15B9
:105750008160782F24969FAF8EAF24974FAD21960E
:105760005FAD219722966FAD229724968FAD249737
:105770000E942F1DF801EB5BFD4F8081F826F0821F
:1057800080910C0190910D0110E006E1019609F065
:1057900010C180911601811116C180919002882359
:1057A000D9F180918F02E091B604E695E81BE09371
:1057B0008B02823009F032C1E695F0E0E656FD4FEB
:1057C000E4910E2F10E099EEC92E9FE0D92E809122
:1057D0008C02882361F010928C020E944C159093E9
:1057E0008A028093890210928E0210928D020E948A
:1057F0004C15E0918902F0918A028E1B9F0B8F3F1E
:105800009F4750F40E0F1F1F10938A0200938902C6
:1058100089E892E0F6010995912CF12CA4E0AA2EDA
:10582000B12CBDEF8B2E772473941CEF612E96C1A3
:1058300087E892E0B0CE89B182FB882780F94B9946
:1058400004C090E0892B819324CF92E0FBCF80911C
:10585000B104843009F441C0109290028091430257
:10586000811116C0E09243028091B604982F917086
:10587000909342028E7F8093B604BFEFE0E7F2E0A0
:10588000B150E040F040E1F700C000000E94B40FCA
:105890000E94DC0E1092780428E130E00FB6F894F4
:1058A000A895209360000FBEF092600083B7817FBF
:1058B000846083BF83B7816083BF7894889583B702
:1058C0008E7F83BF0FB6F894A895809160008861A1
:1058D00080936000109260000FBE8091A70488231F
:1058E00009F4F3CE0E94F615E6E7F2E0819181110A
:1058F000ACC72A963FAD2A973E13F8CFE6CE9F5FFE
:10590000FF0C973009F013CF0F5F1F4F06301105C2
:1059100009F003CF8FEF25968FAF259726968FAF8F
:10592000269727961FAE27970E944C158160782FE7
:1059300029969FAF8EAF299725964FAD259726962E
:105940005FAD269727966FAD279729968FAD29973C
:105950000E942F1D15CF089FF001099FF00D112403
:10596000EE53FC4FC288D388C114D10419F42AEF36
:10597000C22ED12C089FF001099FF00D1124EE5387
:10598000FC4F86818823A1F0858596850E943D1570
:10599000C816D90668F4109F60011124C6018E5301
:1059A0009C4F0E945417C60188539C4F0E941117A8
:1059B0001F5F812F90E020910C0130910D0128177D
:1059C00039074CF6E6CE8091BD039091BE03009757
:1059D00009F4E3CE0E943D1520911703309118037E
:1059E0002817390708F0D9CE9091BB038091BC03EA
:1059F000981759F00E943329109218031092170338
:105A00001092BE031092BD03C8CE0E94BF28109210
:105A1000BE031092BD030E941809BFCE00ED17E02F
:105A20008CE3C82E89E0D82ED2CE092D10E0E9B142
:105A3000E2FBEE27E0F94B99D6C080E08E2BD8012F
:105A4000A25BBD4FEC919E2F9370891709F485C01E
:105A5000EE0FEE0FE82BEC93EF70F0E0E25AFE4F02
:105A60009801245B3D4F69018081D9019C91890F88
:105A70008C9320E084308CF1F801E55BFD4F808150
:105A80008F5F80830E944C159DAA6EAA7FAA8160B9
:105A9000782F99AF88AF492D5CEF61E089AD0E9406
:105AA0002F1DEFE3FFE13197F1F700C000000E94E6
:105AB0004C159AAE6BAE1CAE8160782F9EAF8DAF49
:105AC000492D5CEF60E08EAD0E942F1D8FE39FE1BA
:105AD0000197F1F700C0000021E0D6018C918D3FC5
