:100000000C9454060C9471060C9471060C947106B1
:100010000C9471060C9471060C9471060C94710684
:100020000C9471060C9471060C946F140C94241BA0
:100030000C94DC2A0C9471060C9471060C947106D5
:100040000C9471060C9471060C9471060C94710654
:100050000C9471060C9448150C9471060C9471065E
:100060000C9471060C9471060C9471060C94710634
:100070000C9471060C9471060C9471060C94710624
:100080000C9471060C9471060C9471060C94710614
:100090000C9471060C9471060C9471060C94710604
:1000A0000C9471060C9471060C94710605010902FA
:1000B000A10185020901A100050919012905150001
:1000C00025019505750181029501750381010501E1
:1000D000093009311581257F950275088106093897
:1000E0001581257F950175088106050C0A380215D2
:1000F00081257F950175088106C0C005010980A191
:1001000001850319012AB700150126B7009501756D
:10011000108100C0050C0901A101850419012AA064
:1001200002150126A002950175108100C005010984
:1001300006A1018506050719E029E71500250195A7
:1001400008750181020507190029EF1500250195A1
:10015000F0750181020508190129059505750191C0
:1001600002950175039101C00660FF0961A10109B3
:1001700062150026FF0095207508810209631500AD
:1001800026FF00952075089102C005010906A1010E
:10019000050719E029E71500250195087501810279
:1001A0009501750881010507190029FF150026FF33
:1001B0000095067508810005081901290595057542
:1001C000019102950175039101C00000000000003B
:1001D000000000000000000000000000000000001F
:1001E00000000000000000000000000000007E0F82
:1001F00000D4FFFFFFC700000078000000000000EF
:1002000000002A2B28000000000000000000000071
:10021000000000000029000000002C1E34202122D4
:1002200024342627252E362D3738271E1F2021223D
:10023000232425263333362E37381F0405060708B6
:10024000090A0B0C0D0E0F101112131415161718A6
:10025000191A1B1C1D2F3130232D350405060708E4
:10026000090A0B0C0D0E0F10111213141516171886
:10027000191A1B1C1D2F3130354C00DA0281FFD9B1
:10028000F1DB20A4A62EAF00A0C000A1C800AED50F
:1002900080A81FD300408D142000643214208E8F5C
:1002A0009000CACBCCCD00AAABACADAE008A8B8C93
:1002B0008D002020202000534352200020202020A9
:1002C00000434150200020202020004E554D2000AA
:1002D00000556E64656600464E203300464E20325F
:1002E00000464E20310042617365004C61796572B1
:1002F00000FD377A585A000004E6D6B446020021C1
:100300000116000000742FE5A3E0027C011B5D00D4
:100310003D8889C65436C3174FE4DC28DE77AE78B3
:1003200018F546E06C52F081FAE7EA396439721F39
:10033000BEF91A7763CAB732BD67284F93E8F17FD9
:10034000DDBF3DCE8DBD094581986D3CC851666FBE
:10035000506C6EE29B41316EF30F85FC29E60C3F39
:100360003F71E4D30AACE2AA165DC72A96A02C79A5
:10037000DB6A17A1B84A403858182B5431556BD94D
:100380009CAF7F177DBC433241650AA914DA3D5703
:1003900056A6B198C34E5CE6DE3C92E268F52D7439
:1003A000ECEC0744620230DC818BEF5A52BBC8642C
:1003B0008FBE42F56943A30979CEF5A6FA72ADC79F
:1003C00050D9F9E0396A6CD9BEC62D66F093B0C930
:1003D000A6CF149C2466013B3011E824C7B950DF36
:1003E000595EDCEEF0B770135B57D2728B627849BE
:1003F000173049C1497E4CBEDD3E5866226B5D9286
:10040000518A954DBD92F46A7C30801062F55F751B
:10041000402E1E117DFD1D40783B092CF0E1E32F9D
:10042000B8990F0D3F05BDCC1262EF000070E1706E
:10043000F18A6C98610001B702FD040000D6C25F2A
:10044000CDB1C467FB020000000004595A0001014D
:100450000101010101010102020202020202020283
:100460000303030303030303040404040404040553
:100470000505050506060606060707070707080817
:100480000808090909090A0A0A0B0B0B0C0C0C0DC8
:100490000D0D0E0E0E0F0F0F101011111112121361
:1004A000131414151516161717181819191A1A1BDC
:1004B0001B1C1D1D1E1E1F2020212222232424253B
:1004C0002626272829292A2B2C2D2D2E2F30313274
:1004D00032333435363738393A3B3C3D3E3F404184
:1004E00042434445464748494A4C4D4E4F5051536C
:1004F00054555658595A5B5D5E5F61626465666823
:10050000696B6C6D6F7072737577787A7B7D7E80A6
:1005100082838587888A8C8E8F91939596989A9CF2
:100520009EA0A2A3A5A7A9ABADAFB1B3B5B7BABC06
:10053000BEC0C2C4C6C9CBCDCFD1D4D6D8DBDDDFD7
:10054000E2E4E7E9EBEEF0F3F5F8FAFDFFAA00A923
:100550000001000100010001000100010014001A67
:10056000000800150017001C001800040016000702
:100570000009000A000B000D001D611B64066819CC
:10058000002A412C420543A800610060005F00136F
:100590000012000C0062005E005D005C0029000F8C
:1005A000000E002D005B005A0059002872107111D6
:1005B00074010001000100005C010001004600011F
:1005C0000001000100010001000100010001000123
:1005D000000100010001002B00E30053002600256C
:1005E000002400310030002F0027002300220021CA
:1005F000003400330035002E0020001F001E00389C
:100600000037003600010001000100010001000177
:1006100000010001000100010001000100010001D2
:100620000001000100010001004C0001000100393F
:1006300000260225022402310230022F0227022363
:1006400002220221023402330235022E0220021F4E
:10065000021E023802370236023A003B003C003DDF
:10066000003E003F004000010001000100010001C8
:100670000001000100010001000100010001000172
:10068000000100C25C0100450044004300420041FB
:1006900000C35CC95CC75CC55C010001000100C40B
:1006A0005CCA5CC85CC65C01000100010000AF00D0
:1006B000AE09025B00030100A0FA09040000010377
:1006C00001010009211101000122400007058103F9
:1006D00008000109040100020300000009211101C2
:1006E0000001222200070582032000010705030301
:1006F000200001090402000103000000092111018A
:10070000000122BC00070584032000011201000241
:1007100000000008776D0A170101010203011C03A4
:100720007600690061006C003A0066003600340013
:1007300063003200620033006300000012034200D5
:1007400044004500200052006500760032000000A1
:1007500012034D00650063006800570069006C00DB
:1007600064000000040309040000000000003E5B78
:100770004F5B3E003E6B4F6B3E001C3E7C3E1C00C0
:10078000183C7E3C18001C577D571C001C5E7F5E89
:100790001C0000183C180000FFE7C3E7FF0000182A
:1007A00024180000FFE7DBE7FF0030483A060E00A0
:1007B000262979292600407F05050700407F052569
:1007C0003F005A3CE73C5A007F3E1C1C0800081CB6
:1007D0001C3E7F0014227F2214005F5F005F5F00D9
:1007E00006097F017F00006689956A00606060608D
:1007F000600094A2FFA2940008047E040800102068
:100800007E20100008082A1C0800081C2A0808007E
:100810001E10101010000C1E0C1E0C0030383E383C
:100820003000060E3E0E0600000000000000000032
:100830005F000000000700070000147F147F140011
:10084000242A7F2A120023130864620036495620A6
:100850005000000807030000001C22410000004176
:10086000221C00002A1C7F1C2A0008083E080800E1
:100870000080703000000808080808000000606070
:1008800000002010080402003E5149453E0000428D
:100890007F4000007249494946002141494D3300DB
:1008A0001814127F10002745454539003C4A494934
:1008B00031004121110907003649494936004649AE
:1008C00049291E0000001400000000403400000010
:1008D00000081422410014141414140000412214BE
:1008E00008000201590906003E415D594E007C1284
:1008F00011127C007F49494936003E4141412200A6
:100900007F4141413E007F49494941007F09090932
:1009100001003E41415173007F0808087F000041FB
:100920007F4100002040413F01007F081422410028
:100930007F40404040007F021C027F007F0408107F
:100940007F003E4141413E007F09090906003E41CA
:1009500051215E007F091929460026494949320084
:1009600003017F0103003F4040403F001F20402023
:100970001F003F4038403F00631408146300030425
:10098000780403006159494D4300007F4141410013
:10099000020408102000004141417F0004020102CE
:1009A000040040404040400000030708000020547D
:1009B000547840007F284444380038444444280098
:1009C000384444287E0038545454180000087E09E6
:1009D00002001824241C78007F08040478000044D6
:1009E0007D4000002040403D00007F102844000072
:1009F00000417F4000007C04780478007C080404F7
:100A000078003844444438007C1824241800182402
:100A100024187C007C080404080048545454240022
:100A200004043F4424003C4040207C001C20402023
:100A30001C003C4030403C004428102844004C90AE
:100A400090907C004464544C4400000836410000FF
:100A50000000770000000041360800000201020497
:100A600002003C2623263C00000000E0FEFFFEF8CA
:100A7000C00000000000E0FCFFFEF0C0000000002D
:100A800000000000013EE080700E01000000000741
:100A90003CE080780700000000000000000000003B
:100AA00000000000000000E0FEFFFEF8C0000000B3
:100AB0000000E0FCFFFEF00000000000013EE080CE
:100AC000700E0100000000073CE080780700000085
:100AD0000000000000000000000000000000000016
:100AE0000000000000000000000000000000000006
:100AF00000000000000000000000000000000000F6
:100B000000000000000000000000000000000000E5
:100B100000000000000000000000000000000000D5
:100B200000000000000000000000F8FFFF1F071F8A
:100B3000FFFEF0C0F8FFF707077FFFFFF800C0389F
:100B40000C186080000000F00C04F41C0000000091
:100B5000000080C0FCE6C3C1C1C3E6FCC080000049
:100B6000000000000000F8FFF707071FFFFEF0C0BD
:100B7000F83F8F0F3FFFFFFE80F00C04F41C0000D5
:100B80000000000000000000000000000000000065
:100B90000000000000000000000000000000000055
:100BA0000000000000000000000000000000000045
:100BB0000000000000000000000000000000000035
:100BC0000000000000000000000000000000000025
:100BD0000000000000000000000000000000000015
:100BE0000000000000000000001F1F1F07000000A1
:100BF00000031F1F0F010306F800077F3F0EC138D7
:100C0000070E70831C601E03C03E01000000000040
:100C100000003F7FFFFFF9C0C0F9FFFF7F3F0000EA
:100C200000000000001F1F1F0706F80000733F0FA1
:100C3000C138070F7083077F1F03C03E010000000B
:100C400000000000000000000000000000000000A4
:100C50000000000000000000000000000000000094
:100C60000000000000000000000000000000000084
:100C70000000000000000000000000000000000074
:100C80000000000000000000000000000000000064
:100C90000000000000000000000000000000000054
:100CA000000000000000000011241FBECFEFDAE0BA
:100CB000DEBFCDBF11E0A0E0B1E0E2E7FDE602C09B
:100CC00005900D92AE38B107D9F726E0AEE8B1E055
:100CD00001C01D92A23CB207E1F70E94032B0C94C5
:100CE00093360C9400009091B704899FC0011124A1
:100CF000811522E0920714F090E080E086549B4F2B
:100D00009093C1068093C0060895E8EDF0E08081DD
:100D10008E7F80831092E2001092DA001092E10040
:100D2000A0EEB0E08C9181608C9380818F7780837E
:100D300019BCA7EDB0E08C918E7F8C9380818F7E63
:100D4000808310927D0408952091E4003091E500A5
:100D500095E6A9012091EC00822F817020FF06C04A
:100D60008091E80080FF06C080E008952091E800AF
:100D700022FD1AC08091AC04882389F0853089F067
:100D80008091EB0085FD0FC02091E4003091E500DB
:100D900042175307F9F29150E1F684E0089582E09A
:100DA000089583E0089581E00895EF92FF920F93F4
:100DB0001F93CF937C018B010E94A406C82F811141
:100DC00017C08091E80085FD0BC08091E8008E7708
:100DD0008093E8000E94A406882399F3C82F08C0D6
:100DE000F70181917F018093F1000150110949F7CA
:100DF0008C2FCF911F910F91FF90EF900895CF937B
:100E0000FC018091AC04843001F5C091E900CF7001
:100E10002091EC00922F917020FD90E8C92B82E088
:100E20008093E9008091E80080FF0CC050E040E032
:100E300060E270E0CF010E94D5068091E8008E77D5
:100E40008093E800CF70C093E900CF91089580911E
:100E5000A40487FF13C08091E80082FF06C0809140
:100E6000E8008B778093E80004C08091AC04811186
:100E7000F2CF08958091AC048823D9F38091E800E3
:100E800080FFF8CF8091E8008E77ECCF982F909379
:100E9000E900242F762F50E0891731F07091EC0093
:100EA0002091ED005091F00021FD07C09F5F973029
:100EB00071F78093E90081E008953091EB003E7F67
:100EC0003093EB003091ED003D7F3093ED00309199
:100ED000EB0031603093EB007093EC002093ED0059
:100EE0005093F0002091EE0027FDE0CF80E00895C0
:100EF000CF92DF92EF92FF920F931F93CF93DF93E6
:100F0000C8EDD0E088818F7E8883E7EDF0E08081B6
:100F10008160808384E082BF81E080937D0488814A
:100F20008E7F888302EE10E0F80110821092DA00C2
:100F300081EEC82ED12CF601108288818F778883AC
:100F400088818068888388818F7D888319BC10920E
:100F5000AC041092A3041092A2041092A10490EE8B
:100F6000E92EF12CF70180818B7F8083888181605D
:100F7000888342E060E080E00E944607F6018081BD
:100F80008E7F8083F801808181608083808188608A
:100F90008083F70180818E7F808388818061888350
:100FA000DF91CF911F910F91FF90EF90DF90CF9045
:100FB0000895FC018091AA049091AB0486179707CD
:100FC000A0F06115710529F49091E8009E77909347
:100FD000E80090E06115710551F4911108C080910D
:100FE000E80082FF34C080E00895BC01F2CF809118
:100FF000AC048823C1F18530C1F18091E80083FD04
:1010000030C08091E80082FDEACF8091E80080FF47
:10101000E1CF8091F3002091F200382F6115710526
:1010200019F02830310558F091E02830310509F0E9
:1010300090E02091E8002E772093E800CBCF8191BB
:101040008093F100615071092F5F3F4FE7CF80918E
:10105000AC04882341F0853041F08091E80083FFA3
:10106000BECF81E0089582E0089583E00895089559
:1010700080918004089587E797E790930108809313
:10108000000888E19AE00FB6F894A8958093600074
:101090000FBE90936000FFCF2FB7F8946091740457
:1010A0007091750480917604909177042FBF089514
:1010B000209117012223C9F02091780427FF15C041
:1010C000E62FE695E695E695EE31D8F4E80FF92F90
:1010D000F11D677021E030E001C0220F6A95EAF748
:1010E00020958281282322830895FC013296089658
:1010F0002191621303C0DF0111971C92E817F907D1
:10110000B9F70895209117012223C1F020917804A6
:1011100027FF14C0E62FE695E695E695EE31F8F444
:10112000E80FF92FF11D677021E030E001C0220FB8
:101130006A95EAF78281822B82830895FC013296B8
:101140002FEF30E04191641751F02F3F19F4411116
:1011500001C0232F3F5F3630A9F72F3F09F40895D0
:10116000820F911D27FD9A95FC01628308952091BD
:101170007104309172042817390771F0909372044A
:1011800080937104E0916F04F0917004309721F026
:101190000084F185E02D0994089520916D0430912B
:1011A0006E042817390771F090936E0480936D04D4
:1011B000E0916F04F0917004309721F00680F78180
:1011C000E02D09940895E0916F04F0917004309738
:1011D00021F00190F081E02D099480E00895DC0178
:1011E0006091B6038091B703962F891301C00895CB
:1011F000292F30E0F901EE0FFF1FE255FC4F40812F
:1012000051814A175B07A1F487E08A9FA0018B9F59
:10121000500D11244A585C4F81E0FA0184839613E3
:10122000E6CF2F5F3F4F237033272093B6030895F7
:101230002F5F3F4F922F9370D8CF109213031092CD
:101240001203E6E7F3E08581811102C01482168261
:10125000379683E0EE3AF807B1F7089581152CE54B
:10126000920741F42091060330910703232B11F4D8
:1012700090E080E00895FA01811101C0FB0109941A
:1012800008958091B204982F9E7F29F48170826026
:101290008093B20408958031E8F381708E60F8CFB6
:1012A000AF92BF92DF92EF92FF920F931F93CF9373
:1012B000DF93082F162FE901E42FF0E0E35BFB4FEB
:1012C000611110C0E4915E2F4E2F4983E8835A8349
:1012D000DF91CF911F910F91FF90EF90DF90BF9022
:1012E000AF900895E62EF12C4491D42EE42FF0E037
:1012F00026E0829FC00111242FEF30E0B9010E9447
:10130000C835802F90E0880F991F55E5569FD00172
:10131000579FB00D11248A1B9B0B982F990F890F93
:101320005901AE18BF08AE9ED001AF9EB00DBE9E53
:10133000B00D11245B2F189F80011124012F11275C
:101340005901A01AB10AAE9E8001AF9E100DBE9E3B
:10135000100D11245901A81AB108AE9CC001AF9C10
:10136000900DBE9C900D1124892F9927281B390BB5
:101370002E9FC0012F9F900D3E9F900D1124E92FAD
:1013800062307105A1F050F46115710509F49DCF2B
:101390006130710581F0EB2F512F97CF64307105CB
:1013A00069F080F06630710509F48FCFF4CFE42F37
:1013B0004B2F592F8ACFE42F412F87CFEB2F542F5C
:1013C000492F83CF4B2F5D2DE12F7FCF909180024E
:1013D000803F59F48091810287FF0DC010928102F5
:1013E00091110BC01092780208C0813F81F4809166
:1013F000810218169CF3992381F0809182029091CA
:101400008302892B09F064C0109277020895823F0D
:1014100049F497FFF0CF10928002809181028111F0
:10142000ECCFE0CF833F19F41916ACF3E4CF209151
:101430008202893F29F41216F4F610928202DBCF61
:101440008A3F19F427FFD7CFF8CF209183028B3F33
:1014500029F427FFD0CF10928302CDCF8C3F19F40F
:101460001216CCF3C8CF843F31F480917F028E7F77
:1014700080937F02C0CF853F21F480917F028D7FD2
:10148000F7CF863F21F480917F028B7FF1CF873F9A
:1014900021F480917F02877FEBCF883F21F48091F8
:1014A0007F028F7EE5CF8D3F31F4809179028E7F70
:1014B00080937902A0CF8E3F21F4809179028D7FB5
:1014C000F7CF8F3F09F097CF809179028B7FF0CFD4
:1014D00008958091790280FD16C081FD16C082FDBD
:1014E00016C0809177028823A1F0883280F428E02A
:1014F000829FC001112468E270E00E94E835862FC7
:10150000672B39F0089582E0089584E0089588E01B
:10151000089581E008958091790280FD14C081FDD5
:1015200014C082FD16C080917802882381F08E312C
:1015300080F420E5829FC00111246EE170E00E94DA
:10154000E835862F089584E1089588E2089588E0BB
:10155000089580E50895803F31F40E948B0A8195BB
:10156000809381020895813F19F40E948B0AF8CF7D
:10157000823F31F40E948B0A819580938002089506
:10158000833F19F40E948B0AF8CF893F29F40E9407
:10159000690A8093820208958A3F21F40E94690AB1
:1015A0008195F7CF8B3F31F40E94690A8195809332
:1015B000830208958C3F19F40E94690AF8CF843F92
:1015C00031F480917F02816080937F020895853F8E
:1015D00021F480917F028260F7CF863F21F48091D1
:1015E0007F028460F1CF873F21F480917F02886081
:1015F000EBCF883F21F480917F028061E5CF8D3F62
:1016000031F48091790281608093790208958E3F50
:1016100021F4809179028260F7CF8F3FB9F78091F2
:1016200079028460F1CF80E00895F894E82FE29584
:10163000EF70F0E031A1282F2F7081E090E001C021
:10164000880F2A95EAF7982F9095932391A392A15A
:10165000892B82A3789408959091780492FF06C014
:10166000282F28712830F9F4877F846093FF06C003
:10167000282F28712831F1F4877E84612091790424
:1016800020FF06C0382F38713830D9F4877F816049
:1016900021FF06C0282F28712831D1F4877E81616F
:1016A00094FD877E0895282F24712430F9F68B7FCE
:1016B0008860DCCF282F2471243101F78B7E88616C
:1016C000DDCF382F3171313019F78E7F8860E0CF50
:1016D000282F2171213121F78E7E8861E1CFCF93B0
:1016E000DF93EC0182389105A9F1D8F5813391059A
:1016F00009F496C048F58932910509F48AC08A97A1
:1017000009F495C0C11521E5D20708F0BCC0C11588
:1017100030E5D30708F014C1C83ED10508F09CC0DD
:10172000C03ED10560F5C83AD10508F087C0C53A7A
:10173000D10508F0FDC0C130D10509F12097F9F0BD
:10174000C430D105E0F440C08533910509F45AC096
:10175000C997C1F680917804837089F0C0EED0E01B
:101760000EC0833E910599F170F4803E910501F120
:10177000823E910539F68091780482FD21C0CE0128
:10178000DF91CF910895863E910561F1873E9105E5
:1017900071F1843E910509F0B5CF8091790481FF04
:1017A000EECF80917804C7EED0E084FD0DC0E7CF86
:1017B0008091780480FD12C19091790490FFDFCF71
:1017C000C3EED0E084FFDBCFD0E0C0E0D8CF809183
:1017D000780482FD06C19091790490FDBFCF84FF0B
:1017E000CECFF2CF8091780483FDDDCFC8CF80913A
:1017F000780483FDF9C09091790491FFF0CFC4EE95
:10180000D0E0BDCF8091780485FFB9CFC9E2D0E0A8
:10181000B6CF8091780485FFB2CFC5E3D0E0AFCFDB
:101820008091780486FFABCFCAE2D0E0A8CF809148
:10183000780486FFA4CFC1E3D0E0A1CFCF3BD10590
:1018400018F6C85AD0E0CC0FDD1FCD5DDE4F0990F1
:10185000D881C02DD46493CFC11540E2D40758F489
:10186000C11581E0D80708F08ACFC03FD10508F440
:10187000ABCFD06584CFC11590E4D90708F4A4CFCD
:10188000DF70D06A7CCFC11525E5D20700F5C11500
:1018900034E5D30708F08AC0C11543E5D40708F042
:1018A00071C0C11582E5D80708F467C0CE01837006
:1018B000992721E030E002C0220F331F8A95E2F71A
:1018C000C695C69580E2C89FE001112452C0C1159B
:1018D00099E5D907A8F4C11528E5D20708F06BC02F
:1018E000C11536E5D30708F06FCF8C2F0E942C0B63
:1018F000C82FD0E0DC2FCC27CC27DF71D0623FCFC0
:10190000C1154AE5D40708F45BC0CE019056811595
:10191000904208F059CF8D2F8F710E942C0B90E0D0
:10192000982F882788279F719C012C2BE901E6CFEF
:10193000C55AD0E0C05EDE4FC881D0E0D0641FCF72
:10194000CE01E4E096958795EA95E1F783702C2F18
:1019500026952695237040E2249F90011124382B70
:101960008C2F8370C1E0D0E002C0CC0FDD1F8A95C0
:10197000E2F7C22BD32BDC6802CFDC2FCC27C16F60
:10198000D06AFDCECE018370992721E030E002C0FD
:10199000220F331F8A95E2F7C695C69590E2C99F3C
:1019A000E0011124C22BD32BDA68E9CEDC2FCC273F
:1019B000C46FD06AE4CEDC2FCC27C06FD06ADFCEF4
:1019C0008C2F8F700E942C0B34E0D695C7953A95DA
:1019D000E1F7CF709C2FEC01D069D1CEC9E3D0E004
:1019E000CECEC2EED0E0CBCEC6EED0E0C8CE809157
:1019F0003302882331F01092330210923202109297
:101A00003102089580959091BA0398239093BA0378
:101A10000895809590917E04982390937E04089574
:101A20001092100210920F0210920E0208958091EF
:101A30000D02811110920D02089580910C02909177
:101A4000CB01981301C008958F5F8770FACF9E3F36
:101A500049F1E82F27E0929FE00D11249E2F977007
:101A6000E695E695E69583E0E89FF0011124EF54B2
:101A7000FE4F50E040E080E0219130E0092E02C0AE
:101A8000369527950A94E2F721703327042E01C07A
:101A9000220F0A94EAF7822B4F5F5F4F43305105C4
:101AA00059F7089580E008959E3F69F1E82F27E0F7
:101AB000929FE00D11248E2F877041E001C0440FEA
:101AC0008A95EAF7E695E695E69583E0E89FF001CA
:101AD0001124EF54FE4F30E020E070E05191DF011F
:101AE0001197CB01022E02C0969587950A94E2F7D2
:101AF000817081958527842385278C932F5F3F4FA5
:101B00002330310559F70895982F92959F7011F061
:101B1000892F94E0282F2695269511F09E5F822F1D
:101B2000869509F09F5F892F08959C013A952115AC
:101B30003F4150F5FC01EE27F170BC016627727041
:101B4000AC01442754709C012227387094FF0EC0CA
:101B500080E1EF2B09F480E0672B09F08062452BD0
:101B600009F08064232B89F08068089581E0EF2BD1
:101B700009F480E0672B09F08260452B09F084604E
:101B8000232B19F08860089580E00895CF93DF93A8
:101B9000682F81E06A3019F06D3029F480E0DF9120
:101BA000CF910C94550E8091C0069091C10626E00D
:101BB000FC01AAEBB6E001900D922A95E1F7603E98
:101BC00008F45AC026E0FC0111922A95E9F7C09169
:101BD000C006D091C10646E050E0BE018AEB96E017
:101BE0000E941F369E012A5B3440892B41F1C901B6
:101BF00045E0969587954A95E1F741E050E0BA01B6
:101C000002C0660F771F8A95E2F7CB016091B80496
:101C10007091B904862B972BB9016B5F7F4FE5E07C
:101C200076956795EA95E1F702C0440F551F6A95CE
:101C3000E2F7842B952B9093B9048093B8042A5F24
:101C40003F4F4091B704642F70E0C9010E94C8352E
:101C5000481B463010F4240F311D211572E0370760
:101C600010F030E020E026543B4F3093C106209323
:101C7000C006DF91CF910895F6E06F9FB001112467
:101C80006859784F46E050E00E940936A0CFCF93C4
:101C9000DF93EC01FE018491811103C0DF91CF91AC
:101CA00008950E94C60D2196F5CFCF93382FE0916D
:101CB000C006F091C106EA5BF4402091B704622FA0
:101CC00070E0CF010E94C835281B822F332361F0BA
:101CD00066E00E94DC35C82FC15010F4CF91089502
:101CE00080E20E94C60DF8CF9F01280F311D2115FB
:101CF000324018F080E0F0E0E0E08E0F9F2F911D61
:101D000086549B4F9093C1068093C006E7CF0E94F4
:101D1000470E81E00C94550ECF92DF92EF92FF9226
:101D20000F931F93CF93DF936C017B0164E670E008
:101D300088E70E94C734EC0197FD12C010E000E074
:101D4000F601E00FF11F849164E670E00E944135D6
:101D5000EC01892B29F40F5F1F4F0E151F0581F72A
:101D60000E94C435CE01DF91CF911F910F91FF905A
:101D7000EF90DF90CF900895809110039091110320
:101D8000911103C091E089270895882369F062E0EA
:101D900070E08FEA96E00E948C0E892B19F08091FA
:101DA000100308951092100380911003EBCFCF938E
:101DB000C0911003809111038823D1F00E944C0838
:101DC000605A75418F4F9F4F60930C0370930D03C2
:101DD00080930E0390930F03C11108C062E070E07E
:101DE0008DEA96E00E948C0E892B29F0C091100399
:101DF0008C2FCF91089581E080931003F7CF8093CB
:101E00007A0470937C0460937B048091AC048430EA
:101E1000F9F48093E9008FEF9091E800815095FDEF
:101E200006C095ED9A95F1F700008111F5CF8091EC
:101E3000E80085FF0DC050E040E063E070E08AE715
:101E400094E00E94D5068091E8008E778093E800A8
:101E50000895BC0184E00C94FF0EBC0183E00C9457
:101E6000FF0E9C0184E08093E9009FEF8091E800E1
:101E7000915085FD06C085ED8A95F1F7000091111E
:101E8000F5CF8091E80085FF0CC050E040E066E0AF
:101E900070E0C9010E94D5068091E8008E7780939A
:101EA000E8000895CF93DF93EC0180911701882318
:101EB000B1F18091780487FF32C060E284E08093C2
:101EC000E9008FEF9091E800815095FD06C095EDF7
:101ED0009A95F1F700008111F5CF8091E80085FF18
:101EE0001BC08091170170E050E040E0811104C0F8
:101EF00050E040E068E070E0CE010E94D50680919D
:101F0000E8008E778093E80080E2FE01A1E8B4E06B
:101F100001900D928A95E1F7DF91CF91089568E0E5
:101F200081E0CDCF8091B20480FD0AC0ECE8F2E000
:101F3000118210821282339652E0E43AF507C1F71B
:101F4000269A35B13F7B25B120644FB7F8948CE8D1
:101F500092E0FC015191CF0168E025B9000000C07A
:101F600057FF35B9550F000000C000C000C035B99B
:101F700000C06A9591F7F2E0843A9F0751F74FBF8E
:101F80008FE594E00197F1F700C000000895EF920B
:101F9000FF921F93CF93DF93EC018CE8E82E82E051
:101FA000F82E10E08C8197014091B5046091B40443
:101FB000810F0E945009115E83E0E80EF11C183F6A
:101FC00089F70E94920F9A818C8190FF08C08F5FE1
:101FD0008C83DF91CF911F91FF90EF9008958150F6
:101FE000F7CFCF93DF93C7E2D2E060E0CE010E944B
:101FF00057362196C11584E0D807B9F7DF91CF9104
:1020000008951F93CF93DF93122F8430D8F461117A
:1020100019C04230B8F494E0899FE001112450E0E7
:10202000440F551FC40FD51FC958DE4F632FCE0173
:102030000E945736612FCE010196DF91CF911F91FB
:102040000C945736DF91CF911F9108950F931F93F2
:10205000CF93DF938901843048F5663038F54730F7
:1020600028F521153C4531F42091060330910703F2
:10207000232BE1F0C42FD0E0CC0FDD1F9EE0699F41
:10208000C00DD11D112494E5899FC00DD11D1124CF
:10209000612FCE0187960E945736602FCE01889619
:1020A000DF91CF911F910F910C945736DF91CF9113
:1020B0001F910F910895CF93C82F6FEF81116EEE8E
:1020C00083E290E00E9457366FEFC11160E884E22E
:1020D00090E00E9457366FEFC11165E885E290E00D
:1020E000CF910C9457365F926F927F928F929F920E
:1020F000AF92BF92CF92DF92EF92FF920F931F9316
:10210000CF93DF93CDB7DEB764970FB6F894DEBFF9
:102110000FBECDBFC0900603D090070381E090E0D2
:1021200090930703809306038DE4E82E85E0F82E54
:102130009DE5A92E95E0B92E10E0450100E015C0FF
:10214000F30125913491452D602F812F0E94261097
:1021500082E0680E711C5394E7E05E12F1CFFEE05E
:102160008F0E911C0F5F063019F03401512CE8CF0F
:10217000F7012591349140E060E0812F0E94011029
:10218000F70132962591349141E060E0812F0E9461
:10219000011084E0E80EF11C1F5FE4E5AE0EB11CF7
:1021A000143009F0CACF1A8219821C821B821E8247
:1021B0001D8218861F828AEF90E09A87898707E838
:1021C00011E04AE050E0B801CE0101960E947B3652
:1021D000065F1F4F073DF1E01F0799F77E018BE077
:1021E000E80EF11C8AE0F70111928A95E9F74AE0BE
:1021F00050E0B801C7010E947B36065F1F4F0732CF
:10220000F2E01F07A1F7D0920703C092060364967D
:102210000FB6F894DEBF0FBECDBFDF91CF911F91F7
:102220000F91FF90EF90DF90CF90BF90AF909F9075
:102230008F907F906F905F90089580E00E945B1078
:1022400060E086E290E00E9457360E9473100E9480
:10225000F10F81E00C945B109B01883070F49AE0E0
:10226000899FB001112469577E4F4AE050E0C901AF
:102270000E94333690E080E008958FEF9FEF08953D
:102280008F929F92AF92BF92CF92DF92EF92FF9286
:102290000F931F93CF93DF93CDB7DEB72A970FB677
:1022A000F894DEBF0FBECDBF0DEB13E0F12CE12C97
:1022B00081EBC82E80E2D82E9BEDA92E90E2B92E9C
:1022C00021E0822E20E2922EF801D182C082B382D8
:1022D000A28295828482F58AE48ABE016F5F7F4F75
:1022E0008E2D0E942C11892B29F489859A85F8015D
:1022F000938B828BFFEFEF1AFF0A0A5E1F4F88E075
:10230000E816F10409F72A960FB6F894DEBF0FBE5F
:10231000CDBFDF91CF911F910F91FF90EF90DF9094
:10232000CF90BF90AF909F908F900895CF92DF9203
:10233000EF92FF920F931F93CF93DF93CDB7DEB74A
:102340002A970FB6F894DEBF0FBECDBFE6EBF2E0E2
:1023500080E5DF011D928A95E9F7E6E7F3E088E37F
:10236000DF011D928A95E9F786EBC82E82E0D82E10
:102370007F0107ED11E0F701D182C0824AE050E011
:10238000B801CE0101960E94333688E0FE013196F5
:10239000D60101900D928A95E1F789859A85D7013A
:1023A00013969C938E931297BAE0CB0ED11CE7E064
:1023B000EE0EF11C065F1F4F0732F2E01F07D9F641
:1023C0002A960FB6F894DEBF0FBECDBFDF91CF9136
:1023D0001F910F91FF90EF90DF90CF9008950F9392
:1023E0001F93CF93DF93843000F561111EC024E06A
:1023F000829F8001112450E0440F551F040F151FC8
:1024000009581E4FC8010E944336C82FD0E0DC2F68
:10241000CC27C80101960E9443369E01282BC90192
:10242000DF91CF911F910F91089590E080E0F8CF58
:102430000F931F93CF93DF93843030F5663020F5F0
:10244000473010F5C42FD0E0CC0FDD1F2EE0629F87
:10245000C00DD11D112434E5839FC00DD11D112461
:10246000CE0187960E944336082F10E0102F0027D8
:10247000CE0188960E9443369801282BC901DF912E
:10248000CF911F910F91089590E080E0F8CF462FF3
:1024900020910A0330910B03232B91F47E3F39F4F2
:1024A0006E3F71F480910803909109030895843080
:1024B00038F4763028F4673018F4672F0C9418122B
:1024C00090E080E00895CF92DF92FF920F931F93E8
:1024D000CF93DF936C010091AE048091AD04082B83
:1024E000C7E0D0E010E0FC2EC8010C2E02C095958C
:1024F00087950A94E2F780FD0CC02197A0F7F12C94
:102500008F2DDF91CF911F910F91FF90DF90CF9092
:102510000895B6018C2F0E9447120E946F0B0197FD
:1025200061F3EECFCF93DF93EC010E946312BE0103
:102530000E944712DF91CF910C946F0BFC018681B2
:102540009781009791F00E946F0B92959F70963043
:10255000B9F080F4925F9F70923080F4803F19F060
:1025600058F4883E58F481E00895808191810E945A
:102570009212EBCF9A5FEFCF843FA9F380E00895EA
:10258000883E88F3813FD1F7EECF1F93CF93DF933F
:1025900000D000D00F92CDB7DEB7FC012681378185
:1025A0002115310541F525E0DE01119601900D92CE
:1025B0002A95E1F7FC01228189819A812223B9F0D1
:1025C0006623A9F00E946312182F682F89819A81CF
:1025D0000E94540D69817A81812F0F900F900F9086
:1025E0000F900F90DF91CF911F910C9447120E9492
:1025F000270D182FEFCFC9010F900F900F900F905C
:102600000F90DF91CF911F91089583E290E00E9497
:1026100043368E3E89F484E290E00E94433680384F
:1026200059F485E290E00E94433691E0853809F044
:1026300090E0892F8170089580E0FCCFCF92DF92E7
:10264000EF92FF926B017C010E944109B701A60144
:1026500088E090E0FF90EF90DF90CF900C94693687
:10266000EF92FF920F931F93CF93DF9300D00F92BF
:10267000CDB7DEB7182FF62E042FE22E8091B204CC
:1026800080FF36C0E82FE695F0E0EA58FE4F9081D3
:1026900090938A028E7F8230A9F59E012F5F3F4F73
:1026A000812F0E9450098091B20480FF0FC08B815E
:1026B00099812A81ECE8F2E021839083828333962A
:1026C00032E0E43AF307C1F70E94920F1093B3048B
:1026D000F092B4040093B504EE2051F06091B2047E
:1026E0007091B3048091B4049091B5040E941E13BC
:1026F0000F900F900F90DF91CF911F910F91FF904E
:10270000EF900895923011F71091B304DFCFE2EB10
:10271000F4E0438128E0421B08F440E021E06281BC
:1027200081810C943013E2EBF4E0438128E0420F06
:1027300008F44FEF21E0628181810C943013E2EBC9
:10274000F4E0628128E0621B08F460E021E043814C
:1027500081810C943013E2EBF4E0628128E0620F97
:1027600008F46FEF21E0438181810C943013E2EB98
:10277000F4E0818121E04381628188500C94301320
:10278000E2EBF4E0818121E043816281885F0C9477
:1027900030138091B604882319F081508093B604D9
:1027A0006091B2047091B3048091B4049091B50427
:1027B0000C941E138091B604833018F48F5F8093BD
:1027C000B6046091B2047091B3048091B404909106
:1027D000B5040C941E13E2EBF4E083E080831182D5
:1027E0008FEF8283838314826081718182819381E0
:1027F0000C941E1369EE7EEF90E080E00E94753627
:1028000060E082E090E00E94573660E083E090E074
:102810000E9457361092AD0460E084E090E00E9480
:10282000573660E082E290E00E94573660E085E033
:1028300090E00E94573660E086E090E00E945736B4
:102840006FEF87E090E00E94573640E050E0BA0119
:1028500088E090E00E94693660E08DE090E00E94A0
:10286000573640E050E0BA0188E190E00E946936B6
:1028700060E087E190E00E94573640E050E0BA0106
:102880008CE190E00E94693670E060E080E290E0C8
:102890000E94753640E050E0BA0188E190E00E9465
:1028A000693680E00E945B100E941D1140E050E0FC
:1028B000BA018FE090E00E94693640E050E0BA0132
:1028C00083E190E00C94693690E080E00E945136FC
:1028D000893E9E4F11F40C94051380E008951F92D9
:1028E0000F920FB60F9211242F933F934F935F9344
:1028F0006F937F938F939F93AF93BF93EF93FF93C8
:102900008091E10082FF09C08091E20082FF05C052
:102910008091E1008B7F8093E1008091DA0080FF5D
:1029200024C08091D80080FF20C08091DA008E7F83
:102930008093DA008091D90080FF9DC080E189BD3D
:1029400082E189BD09B400FEFDCF81E08093AC0433
:1029500080917D04811109C00E9485060E9478073C
:102960008091E20084608093E2008091E10080FF2A
:1029700017C08091E20080FF13C08091E2008E7F3B
:102980008093E2008091E20080618093E200809178
:10299000D80080628093D80019BC85E08093AC0495
:1029A0008091E10084FF2BC08091E20084FF27C06A
:1029B00080E189BD82E189BD89B5982F917080FF42
:1029C000FBCF8091D8008F7D8093D8008091E1006B
:1029D0008F7E8093E1008091E2008F7E8093E20001
:1029E0008091E20081608093E2008091A3048823BB
:1029F00009F447C084E08093AC048091AC048091DA
:102A0000E10083FF27C08091E20083FF23C0809113
:102A1000E100877F8093E10082E08093AC04109214
:102A2000A3048091E1008E7F8093E1008091E20019
:102A30008E7F8093E2008091E20080618093E200CB
:102A400042E060E080E00E9446078091F0008860EC
:102A50008093F000FF91EF91BF91AF919F918F9183
:102A60007F916F915F914F913F912F910F900FBE8A
:102A70000F901F90189519BC1092AC0410927D0411
:102A800074CF8091E30087FD93E09093AC04B5CFC1
:102A900078941F921FB61F9211248F939F93AF9328
:102AA000BF938091740490917504A0917604B091C5
:102AB00077040196A11DB11D809374049093750451
:102AC000A0937604B0937704BF91AF919F918F91BB
:102AD0001F901FBE1F9018959C014FB7F8948091CE
:102AE000740490917504A0917604B09177044FBF5F
:102AF000821B930B08952FB7F894809174049091E2
:102B00007504A0917604B09177042FBF0895609169
:102B1000B204669570E041E050E085E191E00E94EA
:102B20001236892B19F481E080938B020E947B1569
:102B3000909385028093840208959091B20490FF4F
:102B400036C09170811129C092609093B2046623BF
:102B500051F06091B2047091B3048091B4049091EB
:102B6000B5040E941E136091B204669570E041E0C6
:102B700050E085E191E00E941236892BA9F0109275
:102B80008B0281E08093870220E04091B504609140
:102B9000B4048091B3040C943013883010F09E601C
:102BA000D4CF880F982BD1CF0E948715EACF0895F4
:102BB0008091B2048695815009F487E061E00C941D
:102BC0009D158091B20486958F5F883008F081E072
:102BD00061E00C949D158091B20480FF07C086953A
:102BE00082588F77853010F40C94E11561E082E013
:102BF0000C949D150E947B159C0190918002809100
:102C00008102982B21F030937D0220937C029091D9
:102C1000820280918302982B21F030937B022093D3
:102C20007A02E0916F04F0917004309749F082E0ED
:102C300080937E020480F581E02D8EE792E0099476
:102C400008959F92AF92BF92CF92DF92EF92FF9240
:102C50000F931F93CF93DF9300D000D000D0CDB758
:102C6000DEB78E010F5F1F4F86E0F80111928A9543
:102C7000E9F781E5C82E81E0D82EF12CE12CAA24B9
:102C8000A394B12CF60181916F018F3F09F443C0E9
:102C9000F894E82FE295EF70F0E021A18F70A50184
:102CA00002C0440F551F8A95E2F7CA01922F982B54
:102CB00091A392A18095892382A3789400C0E7E52F
:102CC000F1E0912C31E021912F3F09F46EC0A22F49
:102CD000A295AF70B0E090968C9190E02F7002C0FA
:102CE000959587952A95E2F780FD5FC0832F982AF6
:102CF000330F51E0EE35F50731F7F601319780815A
:102D00008F3F11F00E94150B80EA8A95F1F7F801C8
:102D1000EE0DFF1D9082EFEFEE1AFE0AF6E0EF16C1
:102D2000F10409F0AFCF46E050E0B80187E392E04C
:102D30000E941F36FF24F394009709F4F12C892B8D
:102D4000B1F186E0F801A7E3B2E001900D928A9517
:102D5000E1F781E0809336020E947B159093350263
:102D60008093340280913402909135020E946C1558
:102D7000059708F1809137028093710280913802A3
:102D800080937202809139028093730280913A029B
:102D90008093740280913B028093750280913C0283
:102DA000809376021092360206C080E0A0CF809118
:102DB00036028111D7CF8F2D26960FB6F894DEBF3D
:102DC0000FBECDBFDF91CF911F910F91FF90EF907C
:102DD000DF90CF90BF90AF909F90089580917E0438
:102DE0009091BA03892B80939001809133028823BC
:102DF00029F10E947B152091310230913202821B11
:102E0000930B8838934110F00E94F70C8091900149
:102E100090913302892B8093900180911701882330
:102E2000D9F18091780487FF37C08EE1E2E9F1E0C3
:102E300090E0815098F591110E94F70C40E250E02B
:102E400061E172E080E991E00E941F36892B59F11F
:102E500080E2E0E9F1E0A1E1B2E001900D928A9513
:102E6000E1F7E0916F04F09170043097E1F0809108
:102E70001701882359F08091780487FF07C080915B
:102E800090018093910186E0809390010280F3810C
:102E9000E02D80E991E0099486E0C8CF21912223BA
:102EA00041F29F5FC6CF0895EF92FF920F931F9359
:102EB000CF93DF93EC018A85811134C0EB80FC80D5
:102EC00087E5F81A26E12E9DC0012F9D900D112453
:102ED000DC01A354BC4F1496ED91FC9115973097EB
:102EE00031F054966D917C918D539C4F099586E1FC
:102EF0008E9D80018F9D100D112403541C4FF801ED
:102F000087810E94090DF80180850E94020D0E94B0
:102F1000EE16188219861B861E821D821092BC0333
:102F20001092BB03DF91CF911F910F91FF90EF9013
:102F30000895CF93DF93EC01898981111BC081E053
:102F4000898B80917E049F81892B80937E04809160
:102F5000BA039885892B8093BA030E94EE16EA8102
:102F6000FB81309739F06C897D89CE010696DF911F
:102F7000CF910994DF91CF91089590E080E00E9475
:102F8000CD0890E080E00E94B7081092BA030E943A
:102F9000EE1686E0EEE7F2E0DF011D928A95E9F792
:102FA0001092780210927702109279020C94FA151E
:102FB0008093AE040C94BD178091AE04982F967048
:102FC000963019F488600C94D817877FFCCF21E0E5
:102FD00030E001C0220F8A95EAF720958091AE0477
:102FE00082230C94D81790911002809589238093A6
:102FF0001002282F277091F4282F082E000C330B75
:103000009217130659F09091790492FD07C08595A7
:10301000859585950E94E7170C94100D0895CF9320
:10302000C0917904C2FB992790F9981799F080FB19
:10303000C2F9C09379046091780484E090E00E9422
:1030400057366C2F82E290E00E94573682E0CF9193
:103050000C94F317CF91089521E030E001C0220FC6
:103060008A95EAF78091AE04822B0C94D81780934E
:10307000AD040C94BD1780911701E2E9F1E08823BB
:1030800059F08091780487FF07C08EE1DF011D921F
:103090008A95E9F70C94BD1786E0F8CF1F93CF937C
:1030A000DF93CDB7DEB7AA970FB6F894DEBF0FBE99
:1030B000CDBF84EA94E02091F100DC012D93CD0195
:1030C000B4E08C3A9B07B9F78091A504833009F4EA
:1030D00072C0B8F4813009F449C0823009F4B5C037
:1030E0008091E80083FF98C28091A4049091A50488
:1030F0009A3008F091C2E92FF0E0EB56F94C0C94AD
:10310000FC358A3009F490C08B3009F471C08930E5
:1031100039F78091A404813219F78091A804909125
:10312000A904009711F00297D9F68091E800877FF3
:103130008093E8008091E80082FF38C09091F3000E
:103140008091F200029731F48091F100813011F00A
:10315000863021F48091F100809380048091E80012
:103160008B778093E8000E942707BACF8091A40450
:10317000813A09F0B5CF8091E800877F8093E8001D
:103180008091A8049091A904892B61F460E281E800
:1031900094E070E00E94D9078091E8008B778093DB
:1031A000E8009ECF60E090E080E0F3CF8091AC0437
:1031B0008111C0CF95CF8091A404813A09F090CFBE
:1031C0008091A8049091A904892B09F089CF80915E
:1031D000E800877F8093E8008091E80080FFFCCFC3
:1031E000809117018093F1008091E8008E77B9CF2C
:1031F0008091A404813209F073CF8091A80490914A
:10320000A904892B09F06CCF8091E800877F809317
:10321000E8000E9427078091A6048093170110926E
:103220007E040E943B185CCF8091A404813209F097
:1032300057CF8091E800877F8093E8000E9427079E
:103240008091A70480937F044BCF8091A404813A9E
:1032500009F046CF8091E800877F8093E800809155
:10326000E80080FFFCCF80917F04BCCF803899F0CC
:10327000823809F0D1C18091A8048F70873008F09E
:10328000CBC18093E9008091EB0085FB882780F912
:103290001092E90006C08091A1049091A2049111BE
:1032A00082609091E800977F9093E8008093F1000E
:1032B0001092F1008091E8008E77AAC1882309F46A
:1032C00098C1823009F0A8C18091A60481119BC1E8
:1032D0008091A8048F702FEF280F263008F09CC132
:1032E0008093E9002091EB0020FF8DC1933031F4F1
:1032F0008091EB0080628093EB0085C19091EB00A0
:1033000090619093EB0021E030E001C0220F8A959C
:10331000EAF72093EA001092EA008091EB008860BF
:10332000EACF811179C11091A6041F778091E30043
:103330008078812B8093E3008091E800877F8093E1
:10334000E8000E9427078091E80080FFFCCF809171
:10335000E30080688093E30082E0111183E08093B2
:10336000AC045AC18058823008F056C12091A6049E
:103370003091A7042C3DE3E03E07A1F583E08A836A
:103380008AE289834FB7F894DE01139620E03EE08D
:1033900051E2E32FF0E050935700E49120FF03C087
:1033A000E295EF703F5FEF708E2F90E0EA30C0F053
:1033B000C7968D939D932F5F243159F74FBF80910E
:1033C000E800877F8093E8006AE270E0CE01019612
:1033D0000E94D9078091E8008B778093E8001CC198
:1033E000C096E7CF8091A8049091A904432F552758
:1033F0004330510509F44AC078F54130510509F4CC
:1034000085C08BE590E0E1EBF6E04230510509F034
:1034100003C12091E800277F2093E8002091AA04AF
:103420003091AB048217930708F49C0140E021150A
:10343000310509F070C041116EC08091E80082FD35
:10344000C9CF8091AC04882329F2853019F280918C
:10345000E80083FFF2CFBECF4132510509F447C0E7
:103460004232510509F0D8C08330910508F0D4C02C
:10347000FC01EE0FFF1FEF57FE4F0190F081E02D92
:1034800082589E4FDC018C9190E01DC03327213083
:103490003105E9F02115310579F022303105F9F0D7
:1034A0002330310509F0B8C0EEE1F7E0E4918E2F4A
:1034B00090E0EEE1F7E007C0E4E6F7E0E4918E2F5C
:1034C00090E0E4E6F7E0009709F4A6C0A2CFE0E5BB
:1034D000F7E0E4918E2F90E0E0E5F7E0F4CFECE345
:1034E000F7E0E4918E2F90E0ECE3F7E0ECCF83304F
:1034F000910508F091C0880F991FFC01E957FE4F14
:103500000190F081E02D89E090E083CF82E190E0AE
:10351000ECE0F7E07ECF8091AC04882309F45ACF29
:10352000853009F457CF8091E80083FD53CF809117
:10353000E80082FD82CF8091E80080FF78CF9091F3
:10354000F3008091F2002115310519F088309105C2
:1035500050F041E0089709F040E08091E8008E7754
:103560008093E80064CF44914093F100319621505C
:1035700031090196E8CF803809F04EC08091E8000B
:10358000877F8093E8008091A3048093F10092CE1E
:10359000811142C01091A6041230F0F58091E8002C
:1035A000877F8093E8001093A3040E9427071123CC
:1035B00011F084E005C08091E30087FDFACF81E03F
:1035C0008093AC0442E061EC81E00E94460742E255
:1035D00061EC84E00E94460742E261EC82E00E94D6
:1035E000460742E260EC83E00E9446078091AC040B
:1035F00013C08091A604813079F481E0933009F002
:1036000080E08093A2041092E9008091E800877F17
:103610008093E8000E9427078091E80083FF0AC09A
:103620008091E800877F8093E8008091EB008062C2
:103630008093EB00AA960FB6F894DEBF0FBECDBF05
:10364000DF91CF911F9108951F920F920FB60F92A5
:1036500011242F933F934F935F936F937F938F9397
:103660009F93AF93BF93CF93DF93EF93FF93D0914B
:10367000E900DF708091EC00C82FC17080FDC0E8C8
:103680001092E9008091F000877F8093F000789499
:103690000E944E181092E9008091F000886080939B
:1036A000F000CD2BCF70C093E900FF91EF91DF9137
:1036B000CF91BF91AF919F918F917F916F915F91CA
:1036C0004F913F912F910F900FBE0F901F90189523
:1036D000882321F00E94020D0C94EE160895882391
:1036E00039F09091BA03982B9093BA030C94EE168C
:1036F0000895882321F00E94090D0C94EE16089578
:10370000882339F090917E04982B90937E040C943A
:10371000EE160895882379F19CEF980F913A38F4CA
:10372000682F80E991E00E9458080C94EE1690E210
:10373000980F983050F4877091E001C0990F8A95E6
:10374000EAF7892F0E94090DF0CF9BE5980F93307F
:1037500020F490E080E00C94CD0898E5980F973124
:1037600020F490E080E00C94B708803F20F00E94A5
:10377000E6090C94FA150895CF93C82F882309F40D
:103780006EC08CEF8C0F813AB8F5809117018823B9
:1037900011F18091780487FF1EC0EC2FE695E69525
:1037A000E695F0E0E057FE4F828190E04C2F4770A5
:1037B00021E030E002C0220F331F4A95E2F7822356
:1037C0009323892B89F06C2F80E991E00E9458089F
:1037D0000E94EE1609C0E2E9F1E08191C81799F361
:1037E00081E0E839F807C9F76C2F80E991E00E9481
:1037F0008208CF910C94EE1680E28C0F883068F42A
:10380000C77021E030E001C0220FCA95EAF780912D
:103810007E04822B80937E04ECCFEBE5EC0FE3304B
:1038200040F4F0E0E05EFE4F808190E0CF910C9498
:10383000CD08E8E5EC0FE73150F4F0E0EE0FFF1FA4
:10384000ED5DFE4F80819181CF910C94B708C03F10
:1038500030F08C2F0E94AB0ACF910C94FA15CF91C7
:1038600008951F93CF93DF93182FCAE0D0E08933D8
:1038700011F4C0E5D0E0812F0E94BC1B8FE99FE0CE
:103880000197F1F700C000002197C1F7812FDF9168
:10389000CF911F910C948A1B0F931F93CF93DF93AB
:1038A000C62FD42F022FFC0182818823A1F06093C0
:1038B000B1040E947B159093B0048093AF04C7704D
:1038C00081E001C0880FCA95EAF7DF91CF911F917F
:1038D0000F910C94801B8091B104681335C08091C6
:1038E000AF049091B0040E946C158A3F910560F579
:1038F00010E21D0FCD17B9F080E28C0F883040F434
:10390000C77081E001C0880FCA95EAF70E94791B51
:10391000183048F481E09D2F977001C0880F9A9568
:10392000EAF70E94801B802F0E94311C183098F407
:10393000D77081E001C0880FDA95EAF7DF91CF9167
:103940001F910F910C94791BC77081E001C0880F03
:10395000CA95EAF7F3CFDF91CF911F910F910895A8
:10396000AF92BF92CF92DF92EF92FF920F931F938D
:10397000CF93DF93EC018AE0A82E2881222309F45B
:103980008CC02130C9F599818A81913021F4229629
:103990000E94311C05C0923029F422960E94BC1B63
:1039A0002196EBCF933021F422960E948A1BF8CF08
:1039B000943011F02196F4CF229630E020E0AE0151
:1039C0004F5F5F4F8053990B8A30910550F0215023
:1039D000310930F38FE99FE00197F1F700C0000053
:1039E000F6CFA29EB001A39E700D11249C01260F5C
:1039F000371F8981EA01E3CFE22FF0E0E650FE4F66
:103A0000B490822F86958695869590E0FC01E651CC
:103A1000FE4FE4902770F12C022E02C0F594E7943B
:103A20000A94E2F731E0E322FF24FC01E652FE4F64
:103A3000C490D12C022E02C0D594C7940A94E2F708
:103A400031E0C322DD24FC01E653FE4F049110E077
:103A500002C0159507952A95E2F701701127E11428
:103A6000F10419F081EE0E94BC1BC114D10419F0BD
:103A700086EE0E94BC1B8B2D0E94311CCD2819F0B4
:103A800086EE0E948A1BEF2819F081EE0E948A1BA5
:103A9000012B09F485CF8CE27BCFDF91CF911F9171
:103AA0000F91FF90EF90DF90CF90BF90AF9008956F
:103AB0009091790492FD10C098E0899F90011124A3
:103AC000622B609310020E942C180E947B15909329
:103AD0000F0280930E0208950C942C182F923F929F
:103AE0004F925F926F927F928F929F92AF92BF920E
:103AF000CF92DF92EF92FF920F931F93CF93DF93BA
:103B0000CDB7DEB769970FB6F894DEBF0FBECDBF55
:103B1000498B5A8B6B8B7C8B8D8B61111092BA0306
:103B20001D861E861F86188A85E0FE017196DE01BD
:103B3000199601900D928A95E1F78091790482FDA2
:103B40001CC00E947B1520910E0230910F02821B37
:103B5000930B8838934120F08091100282FFFEC1C0
:103B60000E947B152091310230913202821B930B0F
:103B70008838934110F00E94F70C8C859D85892B25
:103B800031F089859A8589238F3F09F0D3C1298532
:103B90003A854B855C856D857E858F8598890E94E9
:103BA0004029C2C048EFC4164CE5D40629F4882346
:103BB00079F00E94242AEBCF69EFC6166CE5D60691
:103BC00039F4882329F0809116018111F2CFC2C106
:103BD00006E713E0E12CB12CA12C88248394912CCE
:103BE0002EEF522E44244394F801408151816624E3
:103BF0006A94762C20E0822F90E0FC01EE0FFF1FEC
:103C0000E40FF51F608171816115710531F0C616F1
:103C1000D70609F43C012F5FEECFF12CFFEF6F16B2
:103C20007F0609F443C0F8014481F09016018F2DFE
:103C3000411180E0F82FF170FF2EF8012580868178
:103C40009B85992309F406C1FF2009F403C12110C3
:103C500013C0A40101C0440F6A94EAF7842B868341
:103C60008091120390911303C29730F462E370E0E5
:103C70007093130360931203C40102C0880F991F4D
:103C80002A95E2F70197F80126812817190671F4A1
:103C90008091B8039091B903009709F45EC00E9427
:103CA0006C15C39708F459C0F8014482EF28FFEF60
:103CB000AF1ABF0A095F1F4F28E0A216B10409F02E
:103CC00093CF8B85882309F420C1EE2009F41DC110
:103CD0000E947B159093B9038093B80380911503DC
:103CE000883010F591E0980F9093150398E0FE014D
:103CF0003996DE01119601900D929A95E1F73CE01C
:103D0000839FC00111248A5E9C4F28E0FE013196FA
:103D1000DC0101900D922A95E1F72FEF3FEFFC01B6
:103D200031872087D386C28669960FB6F894DEBFA6
:103D30000FBECDBFDF91CF911F910F91FF90EF90FC
:103D4000DF90CF90BF90AF909F908F907F906F90BB
:103D50005F904F903F902F9008958091B6035091BF
:103D6000B703982FF0E0E0E0851314C09093B603FA
:103D70000E171F0709F49ACF90E0FC01EE0FFF1F0A
:103D8000E255FC4FB182A0820196837099278093FF
:103D9000B7038CCF282E312CF101EE0FFF1FE25517
:103DA000FC4F20813181F7E0F29FD001F39FB00DED
:103DB0001124AA58BC4F2D913C911197398F288F0F
:103DC00040E020E030E0E32FF0E0EE0FFF1F688DD1
:103DD000798DE60FF71F6080718061147104E1F046
:103DE000F8010190F081E02DFF8BEE8B20E005C003
:103DF0006616770609F44F2D2F5FE22FF0E0EE0FE5
:103E0000FF1F6E897F89E60FF71F60817181611541
:103E1000710571F73F5FD7CF4423C9F0F80123172D
:103E200008F0FD0144820E171F0721F49093B6039A
:103E3000F42E3CCF981305C0AE17BF0711F49F5F57
:103E4000937091012F5F3F4F822F83708DCFF0E0F1
:103E5000E0E0F7CF90E021101FC0B40102C0660F70
:103E6000771F2A95E2F79B012150310982179307AA
:103E700031F4442309F447C0C5010E94EF08C4018E
:103E800001C0880F6A94EAF7982F9095F80186810F
:103E900089238683F22C0ACF9C01062C02C035951B
:103EA00027950A94E2F7A90141705527BC0161509A
:103EB000710986239723892B11F5452B01F1F80110
:103EC00082819381892BC1F01B821C821D821E82FC
:103ED00059825A820E947B158160582F9D838C8362
:103EE000F801828193818F83988729813A814B8160
:103EF0006D817E810E944029F8011582C0CFF22F8A
:103F0000F1702F2EBCCF2F2CBACF9091B603809199
:103F1000B703981731F00E94322AEE2009F437CE09
:103F200003CF0E94BB291092B9031092B8030E94DC
:103F30001D09F3CF61E0CE0109960E94C5126C0104
:103F40008B85F7EFCF16FCE5DF0609F02BCE882333
:103F500009F43ECE81E08093160119CE82E00E94E2
:103F6000F317FECD0F931F93CF93DF9300D000D0B4
:103F70000F92CDB7DEB78C019093090380930803AD
:103F8000011580E2180720F5802F0E948A1BC801C6
:103F90000E94950D9801205E31092830310510F0FE
:103FA000012B59F40F900F900F900F900F90DF910D
:103FB000CF911F910F910C94791B0F900F900F9040
:103FC0000F900F90DF91CF911F910F910C94681B70
:103FD0008EEF89838A831B820E947B158160782FF4
:103FE0009D838C8349815A816B818D810F900F90C5
:103FF0000F900F900F90DF91CF911F910F910C9424
:104000006E1D0F931F93CF93DF938C01EB016CEA2E
:1040100072E08C2F0E942C11892BA1F48FE39CE974
:104020000197F1F700C00000DD27CC55DD4F8881F6
:10403000F80110821882833009F148F4813059F078
:10404000823081F0DF91CF911F910F9108958430DC
:10405000D1F08530B9F78091AC029091AD02009714
:1040600089F306C08091AE029091AF02009799F358
:10407000DF91CF911F910F910C94B21F8091B002EC
:104080009091B102F3CF8091B2029091B302009768
:1040900079F72091AC023091AD028091AE029091FF
:1040A000AF0221153105D9F2009711F7C901E0CF10
:1040B0000F931F93CF93DF9300D000D00F92CDB713
:1040C000DEB78C019093090380930803011580E209
:1040D0001807E8F4C8010E94950D9801205E310987
:1040E0002830310518F00115110571F40E94801B6C
:1040F000802F0F900F900F900F900F90DF91CF9126
:104100001F910F910C94BC1B0E946F1BF1CF8EEF7F
:1041100089838A8381E08B830E947B158160782F5D
:104120009D838C8349815A816B818D810F900F9083
:104130000F900F900F90DF91CF911F910F910C94E2
:104140006E1DCF93DF93EC010E9458208FE39CE912
:104150000197F1F700C00000CE01DF91CF910C94E0
:10416000B21F0F931F93CF93DF938C01862F6CEABE
:1041700072E00E942C11892BC9F4C091AC02D0913D
:10418000AD02209799F0F8018081833069F4CE0167
:104190000E94A120CE010E94A120CE01DF91CF91EB
:1041A0001F910F910C94A1208430B8F7DF91CF912B
:1041B0001F910F9108950F931F93CF93DF938C015D
:1041C000EB016CEA72E08C2F0E942C11892B09F014
:1041D00064C0FE01FF27D8018C91EC55FD4F813062
:1041E000D9F419969C911997992311F080830CC0EA
:1041F0001A969C919923D1F382E080838091AE023C
:104200009091AF020097D9F48091AC029091AD02E9
:10421000009709F442C013C08230E9F519968C91D9
:10422000199781112DC01A968C9181110EC083E0CF
:1042300080838091B0029091B102009719F1DF91D3
:10424000CF911F910F910C94582084E0808380912E
:10425000B2029091B302009791F78091AC029091D5
:10426000AD020097F9F00E94A1208091AE029091DA
:10427000AF02009721F78091AC029091AD02DFCFA1
:1042800085E080838091AC029091AD02009729F087
:104290000E94A120F0CF86E08083DF91CF911F9113
:1042A0000F9108958091AE029091AF02B1CFCF925D
:1042B000DF92EF92FF921F93CF93DF93182FC0905E
:1042C000AE048091AD04C82AC7E0D0E0D12CF12C17
:1042D000E12CD701C6010C2E04C0B695A795979581
:1042E00087950A94D2F780FF13C0412F60E08C2F8E
:1042F0000E94EF118130910559F00E94A12081E0C8
:10430000DF91CF911F91FF90EF90DF90CF900895B4
:104310002197F8F6412F60E080E00E94EF11EDCF89
:104320009F92AF92BF92CF92DF92EF92FF920F9344
:104330001F93CF93DF9300D000D0CDB7DEB77C01C1
:10434000DC0113968D919C911497892B39F08C91F7
:1043500011969C9189238F3F09F08DC40F900F9087
:104360000F900F90DF91CF911F910F91FF90EF90E1
:10437000DF90CF90BF90AF909F900895D601169692
:104380008C9116978823D1F019968D919C910817DE
:10439000190739F48091BB039091BC0308171907E2
:1043A00069F0F601978614870387C6010E94991762
:1043B000C60106960E9454171092BA03FFEFAF1A77
:1043C000BF0A26E1C20ED11C6EC4980122513F459E
:1043D0002031310508F01FC48FEF93E00E9443366F
:1043E0005EEED52ED00E07E212E08823F9F0809120
:1043F0001002877009F4B2CFD70112968C918823EE
:1044000009F4ACCF8091790482FDA8CF82E00E94AC
:10441000F317A4CF011534E0130749F3C8010E9434
:104420004336811101C0DA940F5F1F4FD110F2CFD4
:1044300019821A821B821C8299249A9468014FEF78
:10444000C41AD40AC8010E94433689831A82882379
:1044500071F2813009F073C0580152E0A50EB11C11
:10446000C6010E944336C82E8A83882309F4BFCF31
:10447000C5010E944336D82E8FEF8C0D833068F42F
:10448000580183E0A80EB11CDB82DD2021F0CE01B3
:1044900001960E94B01C8501D1CF8BEF8C0D83302B
:1044A00030F5C8010396DB825C01DD20A1F35801E1
:1044B000A4E0AA0EB11C0E9443368C83882359F3D2
:1044C0008B819C818130BFEF9B0710F0982F88274C
:1044D000E6E0CE1631F0F7E0CF1631F00E94A120D1
:1044E000DACF0E945820D7CF0E94B21FD4CF24E049
:1044F000C212D1CF580134E0A30EB11CC8010396FB
:104500000E944336DD2009F472CF882309F46FCF6F
:104510008150990B989E9001999E300D11244D2D3C
:104520004150550BCA01820F931F019708F4B3CF76
:10453000AFE9BFE01197F1F700C00000F6CFCE0160
:1045400001960E94B01C5601A6CF81E00E942C1853
:104550000E94DC174CCF81E00E94E717F9CF82E080
:10456000F5CF2FEFC216D10411F008F06AC36CEA40
:1045700072E08C2D0E942C11892B29F586E18C9DEF
:10458000F0018D9DF00D1124E354FC4F86818130A4
:1045900009F07FC08091AC029091AD02892B99F017
:1045A0008091AE029091AF02892B69F08091B002A8
:1045B0009091B1022091B2023091B302822B932BE1
:1045C000892B09F470C080910C0190910D018C151C
:1045D0009D0524F4D0920D01C0920C01F701828157
:1045E00096E19C9D50019D9DB00C11249501235492
:1045F0003C4F6901D90150968C9350979281169641
:104600008C911697992309F45CC01A961C930E930B
:1046100019978F5F16968C930E947B15F6019687EB
:1046200085878091330287838091BA0390917E04BD
:10463000892B80870190F081E02D309741F0D601E1
:1046400054966D917C91C5018D539C4F09951093A3
:10465000BC030093BB03F7018281882309F43BC3A9
:104660001092B1040631FCE51F0709F0ABC380913D
:104670007E048A7A91E009F490E09093B00169E2B7
:10468000811165E380E991E00E9482080E94EE16A4
:10469000AECE823009F097CF8091B0029091B102F6
:1046A000892B09F490CF26E12C9DC0012D9D900D02
:1046B000112483549C4FDC0150961C920E94991740
:1046C00082CF882341F2F9018189882321F2C50133
:1046D0008D539C4F0E945417BECF053F8CE51807A1
:1046E000C9F0A0F027E245EE66EE063FACE51A07FA
:1046F00009F0B1CFC7010E944C1C79CE27E245EEEC
:1047000065EEF8CF26E241EE60EEF4CF27E245EE0B
:1047100064EEF0CF26E241EE62EEECCF28E241E01B
:10472000EFCF8091B00169E2811165E380E991E00A
:104730000E945808ABCF81608093B20461E08695F7
:104740000E949D1554CE48ED55E161EE75E10E9441
:104750003B094DCE41EE55E168ED75E1F8CF47EBF1
:1047600053E160EC73E1F3CF40EC53E167EB73E1AD
:10477000EECF4FE953E16BEA73E1E9CF4BEA53E146
:104780006FE973E1E4CF43E953E167E873E1DFCF19
:1047900049EC53E16AED73E1DACF4AED53E169EC9C
:1047A00073E1D5CF10927E040E943B185FEF84E343
:1047B0009CE0515080409040E1F700C000000E9412
:1047C0003B0881E01FC380E01DC38281008111810D
:1047D000882369F0C8010E946312D82E682FC8018F
:1047E0000E94540DB8018D2D0E94471213C3C801B9
:1047F0000E94270DD82EF6CF212F2F70D22E107F9A
:1048000019F0D29490EFD922CC20B9F0DD2069F0D4
:1048100080E2800F883010F0011109C080917E0481
:10482000D82AD0927E040E94EE16802F40C080913C
:10483000BA03D82AD092BA03F6CF802F0E948A1BDF
:10484000DD20B9F180E2800F883010F0011104C042
:104850008D2D0E94090D03C08D2D0E94020D0E9416
:10486000EE1627C0312F3F70D32E107F103219F073
:10487000D29480EFD822002351F0013009F483C094
:10488000CC2009F48CC0BB2009F461C0CECF80914C
:10489000790482FF37C0CC2079F1DD2039F0809196
:1048A0007E04D82AD0927E040E94EE1680E00E94F8
:1048B000BC1BA92DA850BB0B149710F40E94E30851
:1048C000AA20A9F08091100280FD11C0F701128288
:1048D0008595859585950E942C18C7010E94902189
:1048E000809110028595859585950E94E71760E077
:1048F000C7010E94C51232CD80E00E948A1BDD20D4
:10490000C1F2A6CFCC2039F1B11004C0809133029E
:104910008D291EC041E0B41210C082FDCACF809123
:104920003302D82AD81629F20E947B1590933202BE
:1049300080933102D0923302BCCF55E0B512E6CF5E
:104940000E94F70C80910D02D812D0920D028D2D8D
:104950000E94801BAECFB11006C00E94F70C8D2DB7
:104960000E94791BA6CF81E0B81208C080917E0416
:104970008D2109F49ECF0E94170DEFCF95E0B91657
:1049800009F497CFEACFCC2029F0A5E0AB1508F4C5
:1049900090CFDDCFB4E0BB1508F48BCFE0CFBB20C8
:1049A000F1F2093309F02FC1EFEFF7EE23E0E15008
:1049B000F0402040E1F700C00000802F0E948A1BD9
:1049C00078CF812F86958695837061F0813009F0CC
:1049D00070CFC8019370C11002C090E080E00E94C7
:1049E000B70867CFC8019370C11002C090E080E0A3
:1049F0000E94CD085ECF802FCC2029F00E94AB0A08
:104A00000E94FA1556CF0E94E609FACF812F8370D3
:104A100089F5C1104ECF402F429546954770440FFF
:104A2000440F802F8F70042E01C0880F0A94EAF77C
:104A3000202F207104FF07C02FE030E001C0220FBB
:104A40004A95EAF72095169516951370123069F07D
:104A500050F43091AD04113029F0822B83230E9451
:104A6000371827CF832B822BFACF282B8091AD04C8
:104A70008227F5CF8695CC2011F0812F8170882375
:104A800009F417CF402F429546954770440F440FC5
:104A9000802F8F70042E01C0880F0A94EAF7202F10
:104AA000207104FF07C02FE030E001C0220F4A95BB
:104AB000EAF72095169516951370123069F050F4A8
:104AC0003091AE04113029F0822B83230E94D81735
:104AD000F0CE832B822BFACF282B8091AE04822735
:104AE000F5CF1F70CC2029F0812F0E942C18802F29
:104AF0002FCF802F0E94791B812F0E94E717D9CEDC
:104B0000023F81F160F4003FB9F0013F81F0CC2019
:104B100009F46DC0B11089CE812F8F7127C0033F7A
:104B200041F1043FA1F78091790482FF2DC0812FCC
:104B30008F71CC2011F31AC0CC2079F094E09B1532
:104B400008F4B7CE1F7181E090E001C0880F1A957C
:104B5000EAF79091AE048927B9CFA5E0AB1508F428
:104B6000A8CEF0CF812F8F71C110C7CF0E942C1813
:104B7000A0CE80E0CC2009F4A9CF1F7181E001C054
:104B8000880F1A95EAF7A2CF80910D02CC20D9F0B8
:104B90000E94090D809110028770843041F40E94B8
:104BA000100D812F8F710E94E717A12C82CEB4E0E7
:104BB000BB15D8F31F71812F0E942C1863E0812F41
:104BC0000E94581DF2CF90917E04982B90937E0402
:104BD000E4E0EB1540F40E94100D0E94170D64E014
:104BE000812F8F71EDCF81E00E94F317DECFBB20C4
:104BF00079F0093341F4FFEF27EE33E0F150204024
:104C00003040E1F7D8CE8FE39CE90197F1F7D3CE9E
:104C1000812F8F7172CF0031FFE51F0709F495CC0A
:104C200001312FE5120709F49ACC6801E7E5DE1A95
:104C3000882309F496CCFFEFCF16D10409F008F4CD
:104C4000C2CC033FFCE51F0709F45CCD08F045CD5D
:104C5000083D3CE5130709F451CD093D4CE5140727
:104C600009F45CCD073D5CE5150709F0F4CC26E2BC
:104C700041EE61EE3FCD61E0C7010E94C5128C019B
:104C8000D70112968C918823B1F080910C019091FC
:104C90000D01019681F06DEBC62E63E0D62EB12C8E
:104CA000A12C9924939480910C0190910D018A1567
:104CB0009B050CF063CBF7018281811186CB00311B
:104CC0003FE5130709F447CC01314FE5140709F01C
:104CD000ACCF82E041CC0631BCE51B0709F421CD05
:104CE00080917E0482720A3CECE51E0709F44BCDEC
:104CF00008F045C0053C2CE5120709F430CD50F50D
:104D0000033C4CE5140709F41ECD08F023CD023C0A
:104D10001C4509F079C08091B20480FF0CCD8E7FD4
:104D20008093B2046091B2047091B3048091B40492
:104D30009091B5040E941E1310928B022FEF30E762
:104D400042E0215030404040E1F700C000000E94A6
:104D5000920F4DCB073C9CE5190709F40ACD08F4E6
:104D600003CD083CBCE51B0709F408CD47E853E137
:104D700063E973E1093C1C4509F4E9CC45C0003DF9
:104D8000FCE51F0778F40E3C2CE5120708F02FCB4A
:104D90000C3C3CE5130709F400CD08F4F9CC61E0C4
:104DA00081E0CECC063D5CE5150738F4013D1C459D
:104DB00008F01DCB0E94EB151ACB0D351D4509F4EB
:104DC00016CB22C00A35ADE51A0709F4FACC58F41F
:104DD0000115ECE51E0709F4E5CC0E3D1C45A1F4D8
:104DE0000E94FA1304CB0B352DE5120709F4EBCC26
:104DF0000C351D4549F48091790482FB882780F9A0
:104E000091E089270E940F18F7018681978100970A
:104E100009F4DBCC0E946F0B8C01F701C280B580D6
:104E2000B2943FE0B322809110028770C1F0AC2CA5
:104E3000CC20B1F0812F807F803421F080E2800F80
:104E4000883068F08091790482FD09C082E00E9478
:104E5000F317809110028770AA24A3948111A12CCA
:104E6000912E92942FE09222FBE0F91508F421CDC7
:104E7000E92DF0E0E156F94C0C94FC35CF93DF932B
:104E80008091C801807FA1F48091C501882381F0C1
:104E900080910C02D091CB016091C3017091C4014B
:104EA000A091C601B091C701C62FC723D81303C074
:104EB000DF91CF91089590E0109711F0CF3F19F452
:104EC00001968770F3CF9C0143E0220F331F4A9570
:104ED000E1F7F901E453FE4F41814713F1CF4081DF
:104EE0004613EECF42814111EBCF438154814A1BDF
:104EF0005B0B4A3F510520F78091C8018F7080619C
:104F00008093C801F901EF52FE4F80818F7080615C
:104F1000808383EC91E00E949021DF91CF910C94EB
:104F20001D0DAF92BF92CF92DF92EF92FF920F933F
:104F30001F93CF93DF93CDB7DEB765970FB6F89485
:104F4000DEBF0FBECDBF8C0185E0F801DE015196BA
:104F500001900D928A95E1F7F801E28063ECA62EAC
:104F600061E0B62E6091C6017091C70161157105AF
:104F700009F468C19091C3014091C401892F842331
:104F80008F3F09F45FC120813181C380D480F090CC
:104F9000C501F601E61BF70BFF2009F41DC1809146
:104FA000C801582F507FEA3FF10508F0D0C05111D9
:104FB00081C0FE2C43132BC0921329C06091C901FC
:104FC0007091CA01F8014681578164177507F9F499
:104FD000E1101DC08F7080618093C801C5010E94DF
:104FE00090218091C801F80185838F2D65960FB6B9
:104FF000F894DEBF0FBECDBFDF91CF911F910F910F
:10500000FF90EF90DF90CF90BF90AF900895CD28A4
:1050100029F0822F83238F3F09F02FC180E0F82FE2
:10502000F170DF2E80FF3CC080910C024091CB01DB
:10503000841315C0298B3A8B89899A890E94921210
:10504000292F22952F702230F8F0243020F59F7000
:10505000F9F0F8019581907FD9F4D12C1FC090E030
:10506000FC0153E0EE0FFF1F5A95E1F7E453FE4FAA
:105070005181351306C05081251303C05281E512BA
:105080000FC001968770D4CF9F7011F0882329F349
:10509000805E883010F3C8010E949021FD2CA5CFBE
:1050A000EE2009F4A2CF8091C80181608093C801ED
:1050B000F12C9BCF43131BC0921319C04091C9011F
:1050C0005091CA01F801268137814217530779F4BC
:1050D000E1100DC08583C8010E94902188E0F8018D
:1050E000A3ECB1E001900D928A95E1F77ECFC80163
:1050F0000E949E12882339F1EE2029F18091C80187
:105100008032A0F02091C3013091C4013A872987F1
:105110001B86DD86CC868E878091C9019091CA015D
:10512000988B8F87CE0109960E94902188E0F80124
:10513000A3ECB1E001900D928A95E1F70E943E2721
:10514000FF24F39452CFC8010E949021F9CF51114E
:105150000AC083EC91E00E94902188E0F501119251
:105160008A95E9F7A5CF431318C0921316C0409152
:10517000C9015091CA01F8012681378142175307AE
:1051800061F4E1100AC08583C8010E94902188E083
:10519000F50111928A95E9F728CFC8010E949E1265
:1051A000882389F2EE2079F28091C801803208F4D8
:1051B000BDCF2091C3013091C4013A8329831B8262
:1051C000DD82CC828E838091C9019091CA0198873B
:1051D0008F83CE010196A8CFEA3FF105C0F6FE2CE1
:1051E000EE2009F4B0CF43131FC092131DC02091CD
:1051F000C9013091CA01F8018681978128173907C2
:1052000099F49091C80190FD69CF907F09F466CF21
:105210008091C8018583903F09F45DCF982F907FDE
:10522000905F8F70892B56CFC8010E949E1281110A
:105230007DCF8091C80181608093C801C8010E9420
:105240009021D3CEEE2009F47ECFC8010E949E1299
:10525000F82E882309F477CF88E0F801A3ECB1E0B9
:1052600001900D928A95E1F78091C3019091C4015C
:105270000E9492120E943E27B8CE81E08E25CFCEAA
:10528000CF93DF93CDB7DEB760970FB6F894DEBF4C
:105290000FBECDBF29873A874B875C876D877E8796
:1052A0008F87988BCE0109960E949127811112C099
:1052B00088E0FE013996DE01119601900D928A95E3
:1052C000E1F78C859D85892B29F089859A8589232D
:1052D0008F3FA9F580910C029091CB0189131CC0DE
:1052E00060960FB6F894DEBF0FBECDBFDF91CF91B1
:1052F000089593E0AA0FBB1F9A95E1F7A453BE4F00
:1053000098E0FE01319601900D929A95E1F7809315
:10531000CB010E941D0DDECFB8E08B9FC001112490
:1053200084539E4F0E9491278823D1F280910C02D2
:1053300090E001968770992780930C02CBCFA091C3
:10534000CB01B0E0CD0101968770992720910C0226
:105350002817190671F610927E040E943B181092CD
:10536000CB0110920C0288E0E3ECF1E0DF011D922A
:105370008A95E9F7AFCFDF92EF92FF920F931F93D9
:10538000CF93DF9380911503C0911403D12C1CE0BF
:1053900081111DC0DF91CF911F910F91FF90EF9070
:1053A000DF90089501E00C0F00931403EC2EF12C14
:1053B000C19FE0011124CA5EDC4F8B819C81892B47
:1053C00029F08881998189238F3F51F4C02F8091E2
:1053D0001503C81738F31092150310921403DACF8F
:1053E0001E9DF0011F9DF00D1124EA5EFC4F868189
:1053F0009781892B21F480859185019651F428812C
:1054000039814A815B816C817D818E819F810E947F
:1054100040291E9DF0011F9DF00D1124EA5EFC4FF6
:10542000148213821092BA03D110D0CFCE010E9401
:105430009E128111CBCF8FE39CE90197F1F700C059
:105440000000DD24D394C2CF1092B9031092B803A8
:10545000109216018091B7038093B6030E941D0934
:105460000C94BB293F924F925F926F927F928F92E2
:105470009F92AF92BF92CF92DF92EF92FF920F93E3
:105480001F93CF93DF93C091B60397E0892E01E07D
:1054900010E02CE0322E3EEF932E44244394809172
:1054A000B7038C1315C00E94BB29DF91CF911F91C8
:1054B0000F91FF90EF90DF90CF90BF90AF909F90B3
:1054C0008F907F906F905F904F903F900C941D094C
:1054D000D0E0FE01EE0FFF1FE255FC4F808191816D
:1054E000889ED001899EB00D1124AA58BC4F1496F5
:1054F0002C911497211157C050901503E6E1F3E069
:1055000030E020E0712C5D01251508F04AC0E284EE
:10551000F384D501CD90DC906FEF7FEF612C462DA9
:1055200050E0DA01AA0FBB1FAC0DBD1D0D90BC9160
:10553000A02D109731F0EA16FB0609F4BA01639426
:10554000EECF6F3F7607A1F1D80102C0AA0FBB1FB3
:105550006A95E2F77A2AB80102C0660F771F6A944B
:10556000E2F7AB014150510974161506F9F4329E69
:10557000F001339EF00D1124EA5EFC4F889ED001AD
:10558000899EB00D1124AA58BC4F12962D913C91C2
:10559000139737832683908291829187808715960F
:1055A0004C920E94EF082196C37079CF1482138227
:1055B0002F5F3F4F3C96A8CF1F921FB61F9211241A
:1055C0008F939F93AF93BF9380917304811113C006
:1055D0008091740490917504A0917604B091770441
:1055E0004196A11DB11D8093740490937504A093FE
:1055F0007604B0937704BF91AF919F918F911F90E4
:105600001FBE1F901895CDB7DEB7E9970FB6F89477
:10561000DEBF0FBECDBF84B7877F84BF0FB6F894BF
:10562000A89580916000886180936000109260006E
:105630000FBE80E890E00FB6F894809361009093DD
:1056400061000FBE85B7806885BF85B7806885BF5C
:1056500083E19BE090938F0180938E010E94401123
:105660000E9496110E9485060E9478078091E200B0
:1056700084608093E20078948091AC048823A1F048
:105680001091E9001F709091EC00892F817090FDBE
:1056900080E8182B1092E9008091E80083FD0E94B9
:1056A0004E181F701093E90082E084BD93E095BD11
:1056B0009AEF97BD80936E000E940513811102C07E
:1056C0000E941D1101E511E057E5E52E51E0F52E90
:1056D000D8018D918D018F3F11F00E94150BE016BE
:1056E000F106B1F707E511E04EE5E42E41E0F42EB6
:1056F000F80181918F018F3F11F00E94150BE01688
:10570000F106B1F786E0E1E7F2E0DF01282F1D9214
:105710002A95E9F7E7E3F2E0DF011D928A95E9F7C0
:105720000E946414811102C00E94FA1382E090E08A
:105730000E9443368093400284E090E00E9443360A
:10574000182F82E290E00E944336982F812F909389
:105750007904809378040E942116EFE3FCE93197E5
:10576000F1F700C000000E9421168091710280FFB5
:1057700008C06FEF7FEF90E080E00E9475360E94D6
:105780003B0883E090E00E9443360E94371883E094
:1057900080936A0280E28093B7040E94C1346DE076
:1057A00070E08DE892E00E948C0E892BE9F58091E3
:1057B0006A0263E070E081FDBEC18AE892E00E9467
:1057C0008C0E892B89F56DE070E08AE792E00E94EB
:1057D0008C0E892B49F50E944C08605A75418F4FF9
:1057E0009F4F60930C0370930D0380930E0390936F
:1057F0000F03EAEBF4E080E092E0DF019C011D92F0
:1058000021503040E1F7F093C106E093C0068FEFDE
:105810009FEF9093B9048093B80481E080931103C3
:105820008093100310926B0280913D02811133C06E
:105830000E946414811104C00E94FA130E94EB13A9
:1058400088E090E00E944B366093B2047093B304FA
:105850008093B4049093B5046E7F71F40E94EB13AF
:1058600088E090E00E944B366093B2047093B304DA
:105870008093B4049093B5040E94410910928B0266
:105880008091B20480FF04C060E086950E949D155F
:1058900081E080933D0252985A9A53985B9A8FE820
:1058A00091E00197F1F700C0000089B182FB8827E1
:1058B00080F94B9943C190E0892B8093490280E0A5
:1058C00091E09093700480936F0481E792E036E05A
:1058D000380F3FAB8091AC04853011F530E4F32EE6
:1058E000EE24E39400E112E18091AC04853009F4E8
:1058F00027C110927E040E943B180E94E308109278
:105900003F0280913E02882349F08091B204816079
:105910008093B20460E086950E949D150E948715D1
:105920000E942116E82E81110E944C08A1E7B2E0E6
:10593000E1E4F2E010E000E0302F8D912191281792
:1059400009F459C190E0FF24F3942827422F4F21F6
:1059500009F44CC19BA73CA78F2191E009F490E08A
:105960009DA70E947B158160782F9FA78EA74BA5CE
:105970005CA56DA58FA50E946E1DF801EF5BFD4F24
:105980008081F826F08280910C0190910D0110E049
:1059900006E1019609F074C18091160181117AC166
:1059A00080918B02882309F440C080918A02E091A3
:1059B000B204E695E81BE093860200ED17E0A0E450
:1059C000CA2EA9E0DA2E823059F4E695F0E0E656C8
:1059D000FD4FE4910E2F10E0B7ECCB2EBFE0DB2E95
:1059E00080918702882361F0109287020E947B15C4
:1059F000909385028093840210928902109288020B
:105A00000E947B15E0918402F09185028E1B9F0B12
:105A10008F3F9F4750F40E0F1F1F10938502009376
:105A2000840284E892E0F6010995E0914902EE0FC4
:105A3000EE0FE093490289B182FB882780F98DAB94
:105A40001EAA4B9952C180E02DA93EA9822BE82BBA
:105A5000E0934902EF70F0E0E25AFE4F80819091AE
:105A60004802890F80934802F12C843054F08091D1
:105A700047028F5F8093470280E00E945721FF24F6
:105A8000F394809148028D3F54F4809147028150F5
:105A90008093470281E00E945721FF24F394809174
:105AA0004802082E000C990B64E070E00E94E83573
:105AB00080934802F1100E944C08809111038823C2
:105AC00009F464C180E00E94730680E00E947306BE
:105AD0008DEA92E00E94470E81E00E94730687EAF9
