:100000000C94CB010C94E8010C94E8010C94E801E9
:100010000C94E8010C94E8010C94E8010C94E801BC
:100020000C94E8010C94E8010C9455220C942723BD
:100030000C942E1D0C94E8010C94E8010C94E8013A
:100040000C94E8010C94E8010C94E8010C94E8018C
:100050000C94E8010C94D31D0C94E8010C94E80175
:100060000C94E8010C94E8010C94E8010C94E8016C
:100070000C94E8010C94E8010C94E8010C94E8015C
:100080000C94E8010C94E8010C94E8010C94E8014C
:100090000C94E8010C94E8010C94E8010C94E8013C
:1000A0000C94E8010C94E8010C94E801E504E504E3
:1000B0001105110579059705B406B406A2053B069E
:1000C0004C064C068F23B623AE24B623AE2402245E
:1000D0002524AE247C248B24A8001E001F002000B1
:1000E000210022002300240025002600C55CC45CFA
:1000F000C35C0000000001000100010001000100DC
:1001000001000100010001000100010001000100E7
:1001100000000000010001000100010001000100D9
:1001200001000100010001000100010001000000C8
:1001300000000100010001000100010001000100B8
:1001400001000100010001000100010000000000A9
:10015000000101010101010101010202020202028A
:10016000020202030303030303030304040404045D
:100170000404050505050506060606060707070724
:100180000708080808090909090A0A0A0B0B0B0CD9
:100190000C0C0D0D0D0E0E0E0F0F0F101011111176
:1001A00012121313141415151616171718181919F7
:1001B0001A1A1B1B1C1D1D1E1E1F2020212222235C
:1001C0002424252626272829292A2B2C2D2D2E2F9D
:1001D00030313232333435363738393A3B3C3D3EB4
:1001E0003F404142434445464748494A4C4D4E4FA3
:1001F00050515354555658595A5B5D5E5F61626465
:10020000656668696B6C6D6F7072737577787A7BF1
:100210007D7E8082838587888A8C8E8F9193959648
:10022000989A9C9EA0A2A3A5A7A9ABADAFB1B3B568
:10023000B7BABCBEC0C2C4C6C9CBCDCFD1D4D6D844
:10024000DBDDDFE2E4E7E9EBEEF0F3F5F8FAFDFFE2
:10025000240354007200690073006B0061006900A0
:10026000640065006B0061007000680069006C004C
:1002700069006100000012034D0065006300680022
:10028000570069006C0064000000040309040902BF
:100290003B00020100A0FA09040000010301010073
:1002A0000921110100012240000705810308000116
:1002B00009040100010300000009211101000122CD
:1002C0007B000705820320000112010002000000EC
:1002D00008776D0D1701000102000105010902A157
:1002E0000185020901A10005091901290815002548
:1002F0000195087501810205010930093115812533
:100300007F95027508810609381581257F9501754D
:10031000088106050C0A38021581257F95017508AC
:100320008106C0C005010980A101850319012AB712
:1003300000150126B700950175108100C0050C0954
:1003400001A101850419012AA002150126A0029528
:100350000175108100C005010906A101050719E01A
:1003600029E7150025019508750181029501750899
:1003700081010507190029FF150026FF0095067564
:100380000881000508190129059505750191029557
:100390000175039101C011241FBECFEFDAE0DEBF6B
:1003A000CDBF11E0A0E0B1E0E8EDFBE402C00590B4
:1003B0000D92AC3EB107D9F723E0ACEEB1E001C03D
:1003C0001D92AB33B207E1F70E9480120C94EA252C
:1003D0000C940000882319F0813039F00DC0662399
:1003E00011F089EA07C08AEA05C0662311F08DEB97
:1003F00001C08EEB0E94940481E00895FF920F9358
:100400001F93CF93DF9360915F01709160018091A2
:1004100061010E948C158B01F82ECDE0D0E02F2DCC
:10042000402F612FCE010E94E5152196C231D105E2
:10043000B1F7CDB7DEB7E5E00C94742581E00895FF
:1004400081E008950E942002089508950E942502E7
:100450000895A5E0B0E0EFE2F2E00C945A2549835C
:100460005A833091EF0189819A81311114C066233A
:1004700059F0222349F00E940E09182F682F898114
:100480009A810E94EA0803C00E94FC08182F698123
:100490007A81812F04C00E940E0969817A810E94AD
:1004A00006102596E3E00C947625FC01262F40816A
:1004B00051816281738184810E942902089581E0C3
:1004C0000895CF93DF93EC0160E00E945502BE01D6
:1004D0000E942602DF91CF9108950E94561108953F
:1004E0000E945011089508950E9437070E947302D8
:1004F0002FEF84E39CE0215080409040E1F700C062
:10050000000008950E9474020E94F91D08950E943F
:1005100074020E940A1E08950F931F93CF93DF93D6
:100520008C0161E00E945502EC01B8010E94220298
:10053000882309F447C0B801CE010E94DC1B882340
:1005400009F440C0B801CE010E94F4188823D1F10B
:10055000B801CE010E94421B8823A1F1B801CE014F
:100560000E94B718882371F1F8018281882331F144
:10057000CB358DE5D807E9F050F4C115FCE5DF0770
:1005800079F0CF3DDC45D1F40E94100E0CC0CD3582
:10059000EDE5DE0759F080F0C83ADD4521F00EC0E8
:1005A0000E9482020FC00E9487020CC00E94470D69
:1005B00005C00E94510D02C00E94550DC8010E9445
:1005C0001E0201C080E0DF91CF911F910F9108952D
:1005D0000E94071D0E9456170E940D0381E00E9491
:1005E000961808950E94110380E00E9496180E94B8
:1005F000101D089508950E94FA02089581E008955B
:100600000E94FE0208950895CF93C82F0E94FB0216
:100610008C2F0E940003CF91089580E00E94040374
:1006200008950E94381C0E94040308950E94381CFB
:100630009091EE01891721F08093EE010E9404034E
:100640000895ABE0B0E0E7E2F3E00C945B254F8364
:10065000588769877A878B8761110E948F0C9E016A
:100660002F5F3F4F86E0F90111928A95E9F785E007
:10067000FE013796D90101900D928A95E1F78981A3
:100680009A814C815D81452B31F09F3F31F491E09F
:100690008F3F19F403C091E001C090E090FF09C0C2
:1006A00049815A816B817C818D819E810E94BB0B27
:1006B00005C0C9010E945F028111F2CF2B96E2E0D2
:1006C0000C947725FC01808191810E94480908954E
:1006D000CF93882309F4A3C0C82F8238C1F40E94A5
:1006E000381C81FD9CC069E38091420190914301D7
:1006F0000E94CC1C0E94B30C2FEF81EE94E021509D
:1007000080409040E1F700C0000069E319C08338E1
:1007100001F50E94381C80FD82C063E58091420192
:10072000909143010E94CC1C0E94B30C2FEF81EEEC
:1007300094E0215080409040E1F700C0000063E564
:1007400080914201909143010E94CF1C0E94B30C02
:1007500066C08438C1F40E94381C82FD60C067E422
:1007600080914201909143010E94CC1C0E94B30CE5
:100770002FEF81EE94E0215080409040E1F700C0DF
:10078000000067E4DDCF8CEF8C0F813AD0F46C2F42
:1007900080914201909143010E94961C882349F068
:1007A0006C2F80914201909143010E94CF1C0E94C6
:1007B000B30C6C2F80914201909143010E94CC1C9C
:1007C000C5CF80E28C0F883048F4C77081E001C04B
:1007D000880FCA95EAF70E94720CB8CFEBE5EC0FD0
:1007E000E33040F4F0E0ED56FE4F808190E00E944F
:1007F0005E1C15C0E8E5EC0FE73150F4F0E0EE0FB9
:10080000FF1FEB59FE4F808191810E94741C07C02D
:10081000CD3E28F08C2F0E9405130E94D713CF9154
:100820000895882309F467C0823879F40E94381C3F
:1008300081FF61C069E380914201909143010E9470
:10084000CC1C0E94B30C69E310C08338B9F40E9439
:10085000381C80FF50C063E58091420190914301B4
:100860000E94CC1C0E94B30C63E5809142019091E0
:1008700043010E94CF1C0E94B30C0895843879F480
:100880000E94381C82FF37C067E48091420190913A
:1008900043010E94CC1C0E94B30C67E4E6CF9CEF9E
:1008A000980F913A10F4682FE0CF90E2980F9830AB
:1008B00050F4877091E001C0990F8A95EAF7892F6B
:1008C0000E94780CD8CF9BE5980F933028F480E0F5
:1008D00090E00E945E1C089598E5980F973128F4E7
:1008E00080E090E00E94741C08958D3E20F00E94EC
:1008F00060130E94D71308951F93CF93DF93182F8F
:10090000EB010E946803209741F08FE99FE0019777
:10091000F1F700C000002197F6CF812F0E9411044B
:10092000DF91CF911F910895893319F06AE070E04B
:1009300002C060E570E00E947C040895882321F0E5
:100940000E94720C0E94B30C0895882321F00E942B
:10095000780C0E94B30C0895A0E0B0E0E2EBF4E064
:100960000C9455257C01D62FC72FFC0112810581DF
:1009700002950F700E94680C8823B9F01123A9F02A
:100980008C2F807F803421F080E28D0F883068F0DA
:100990008091BD0282FF09C082E00E94150D0E9475
:1009A000680C91E0D82ED92601C0D12CCC2EC2944F
:1009B0008FE0C8228C2D90E08C30910508F0D4C1D6
:1009C000FC01EA5AFF4F0C9445258C2F807FCF7095
:1009D000882311F0C295C07F112399F0CC2309F42C
:1009E000AAC180E28D0F883010F0D11104C08C2F85
:1009F0000E94720C03C08C2F0E94820C0E94B30CC8
:100A00009AC18D2F0E941104CC2309F4ADC180E25C
:100A10008D0F883038F1DD2329F18C2F0E94880C4E
:100A200024C08C2F807FCF70803211F0C295C07FA0
:100A3000DD2319F0D130A1F13DC08091BD0282FDCE
:100A400017C0112349F0CC2329F08C2F0E94720C7F
:100A50000E94B30C80E070C180E00E941104CC239E
:100A600009F482C18C2F0E94780C0E94B30C7CC1C7
:100A7000112371F0002341F0013031F40E94920CF7
:100A80008C2B0E949C0C70C10E94920C8C2B1DC060
:100A9000002319F0013009F467C10E94A90C25C098
:100AA000112321F0063008F05FC10EC0053008F0B8
:100AB0005BC11BC0112361F0002331F0F701858178
:100AC00080FF39C18F7085838C2F0E949E044CC19A
:100AD000002359F0D93309F03EC1FFEF07EE13E0D0
:100AE000F15000401040E1F73AC18C2F0E94A5045C
:100AF0003BC18C2F86958695837019F0813061F00B
:100B000033C1112321F08D2F9C2F937002C080E000
:100B100090E00E945E1C30C1112321F08D2F9C2F8C
:100B2000937002C080E090E00E94741C25C18D2F5C
:100B3000112319F00E94051302C00E9460130E9445
:100B4000D7131AC18C2F837009F047C0111110C13F
:100B50002D2F229526952770220F220F6D2F6F7053
:100B6000862F90E0A0E0B0E0022E04C0880F991F0D
:100B7000AA1FBB1F0A94D2F7D4FF10C04FE050E069
:100B800060E070E004C0440F551F661F771F2A9570
:100B9000D2F7409550956095709503C040E050E0C5
:100BA000BA01C695C695C3708A019B01082B192B03
:100BB0002A2B3B2BC901B801C23049F058F4C1308F
:100BC00019F00E949E07D4C00E948B07D1C00E94DA
:100BD000B107CEC00E948807CBC0112319F08C2F1B
:100BE000817001C08695882309F4C2C02D2F2295FB
:100BF00026952770220F220F6D2F6F70862F90E0A1
:100C0000A0E0B0E0022E04C0880F991FAA1FBB1FEE
:100C10000A94D2F7D4FF10C04FE050E060E070E0DB
:100C200004C0440F551F661F771F2A95D2F74095C1
:100C300050956095709503C040E050E0BA01C695AC
:100C4000C695C3708A019B01082B192B2A2B3B2BBD
:100C5000C901B801C23049F058F4C13019F00E94FE
:100C60006D0886C00E945A0883C00E94800880C018
:100C70000E94C7077DC0CF70112339F08C2F0E94CE
:100C8000F0078D2F0E949E0473C08D2F0E94A50433
:100C90008C2F0E9412086CC0D23F21F128F4D03F63
:100CA00041F0D13FC1F043C0D33F19F1D43F79F0B7
:100CB0003EC0112341F0053008F056C08C2F8F71D3
:100CC0000E94380851C0063008F04EC0F7CF80911E
:100CD000BD0282FD18C0112339F08C2F8F710E9444
:100CE000F00742C01123C9F38C2F8F710E941208A4
:100CF0003BC0112329F08C2F8F710E94DA0734C07A
:100D00000E94D40731C0112349F0CF718C2F0E946B
:100D1000F00763E08C2F0E94F70C26C081E00E9450
:100D2000150D023008F182E00E94150D1DC011233F
:100D300031F0002391F28D2F0E94680315C000232B
:100D400099F2D93341F41FEF27EE33E011502040E0
:100D50003040E1F704C08FE39CE90197F1F700C050
:100D600000008D2F0E94110488EF8C0D843020F438
:100D70000E94381C0E940403DD2089F00E94640C4C
:100D800080FD0DC0F70112820E945E0C0E94F007E8
:100D9000C7010E94EC060E945E0C0E941208CDB7AB
:100DA000DEB7E8E00C9471250F931F93CF93DF9388
:100DB000EC01688179818A810E9453098C010E942B
:100DC00093080E947307B801CE010E94AC04DF9122
:100DD000CF911F910F910895CF93DF93EC019881EC
:100DE00089812B813C81232B31F08F3F31F481E0CD
:100DF0009F3F19F403C081E001C080E080FD1AC06C
:100E0000CE010E948C0281110FC00E94680C8823C1
:100E100089F08A81882371F08091BD0282FF0AC027
:100E200082E00E94150D06C0CE010E94D406CE01BC
:100E30000E946102DF91CF91089580E090E00E94CE
:100E40005E1C80E090E00E94741C0E948F0C0E9447
:100E5000B30C0E94F0140E94D713089580914201B0
:100E6000909143010E94D21C0E941D0708950E9488
:100E70007F0C0E942E07089592959F70963079F00E
:100E800010F4925001C09A50923068F4803F69F09B
:100E900018F4883E40F409C0843F29F406C0883E17
:100EA00020F0813F11F080E0089581E00895FC0179
:100EB000808191810E9448090E943C070895A5E025
:100EC000B0E0E5E6F7E00C945B252596E2E00C94B3
:100ED0007725A6E0B0E0EFE6F7E00C945B252696D8
:100EE000E2E00C947725089508950E947407089510
:100EF0000E94750708950E9478076093FE01709321
:100F0000FF0180930002909301020E941D07089543
:100F10000E947B0708950F931F930091FE0110918B
:100F2000FF012091000230910102602B712B822B76
:100F3000932B0E947B071F910F9108950F931F938E
:100F40000091FE011091FF012091000230910102F9
:100F500060237123822393230E947B071F910F91AB
:100F600008950F931F930091FE011091FF012091AE
:100F700000023091010260277127822793270E9487
:100F80007B071F910F9108950E94740708950E9496
:100F9000C4076093FA017093FB018093FC01909366
:100FA000FD010E941D07089560E070E0CB010E94E2
:100FB000C70708950F931F9341E050E060E070E091
:100FC0008A019B0104C0000F111F221F331F8A9545
:100FD000D2F7C901B8010E94C7071F910F91089568
:100FE0000F931F9341E050E060E070E004C0440FB5
:100FF000551F661F771F8A95D2F78091FA0190914D
:10100000FB01A091FC01B091FD018A019B01082B1D
:10101000192B2A2B3B2BC901B8010E94C7071F912E
:101020000F9108950F931F9341E050E060E070E04E
:1010300004C0440F551F661F771F8A95D2F740954D
:101040005095609570958091FA019091FB01A09167
:10105000FC01B091FD018A019B01082319232A2379
:101060003B23C901B8010E94C7071F910F91089542
:101070000F931F9341E050E060E070E004C0440F24
:10108000551F661F771F8A95D2F78091FA019091BC
:10109000FB01A091FC01B091FD018A019B01082791
:1010A00019272A273B27C901B8010E94C7071F91AA
:1010B0000F9108950F931F930091FA011091FB0176
:1010C0002091FC013091FD01602B712B822B932B21
:1010D0000E94C7071F910F9108950F931F930091CE
:1010E000FA011091FB012091FC013091FD01602378
:1010F0007123822393230E94C7071F910F910895A4
:101100000F931F930091FA011091FB012091FC01B4
:101110003091FD0160277127822793270E94C7071E
:101120001F910F9108950895962F9770A1E001C027
:10113000AA0F9A95EAF793E0769567959A95E1F765
:1011400095E0969F9001979F300D1124FA01E20FD0
:10115000F31F40E050E0682F70E090819B01042E67
:1011600002C0369527950A94E2F721702195292728
:101170002A23292721934F5F5F4F4530510569F797
:101180000895FB01782F777023E0969587952A952F
:10119000E1F745E0489F9001499F300D1124E20F8F
:1011A000F31F40E050E080E0219130E0072E02C0C4
:1011B000369527950A94E2F721703327042E01C053
:1011C000220F0A94EAF7822B4F5F5F4F453051059B
:1011D00059F70895282F933070F4853060F4862FE6
:1011E000622F70E025E0929F600D711D112440EF89
:1011F00051E00E9494080895933070F4853060F4B3
:10120000292F90E060EF71E035E0239F800D911D64
:1012100011240E94C108089580E00895A0E0B0E084
:10122000E4E1F9E00C9454258C01C090FA01D090CF
:10123000FB01E090FC01F090FD018091FE01909196
:10124000FF01A0910002B0910102C82AD92AEA2A1E
:10125000FB2ACFE1D0E0D701C6010C2E04C0B69521
:10126000A795979587950A94D2F780FD04C021979A
:1012700090F7B12C07C0BC2EB8018C2F0E941F1014
:101280000197A9F38B2DCDB7DEB7E9E00C9470255B
:10129000CF93DF93EC010E940E09BE010E941F1044
:1012A000DF91CF9108951F93CF93DF93EB0190913E
:1012B000EF01992321F0CB010E94480913C0882334
:1012C00049F0CB010E940E09182F682FCE010E9411
:1012D000EA0804C0CB010E94FC08182FBE01812F30
:1012E0000E941F10DF91CF911F9108951F93CF93FC
:1012F000DF93C091020216E080910302C81799F0B3
:10130000D0E01C9FF0011D9FF00D1124EC5FFD4FFC
:101310004081518162817381848195810E94690736
:101320002196C770E9CFDF91CF911F910895409129
:1013300034025091350260913602709137028091EB
:101340003802909139020E94690708950F931F9304
:10135000CF93DF938091390282958F7009F05AC044
:1013600080913602882309F455C0809102021091C1
:1013700003026091340270913502C0913702D0911E
:10138000380291E06F3F09F090E0292F06E08117C5
:1013900009F440C0209721F07F3F21F030E003C0E6
:1013A00031E001C0322F90E030FD31C0089FF001E4
:1013B000099FF00D1124DF01AC5FBD4F11963C91E8
:1013C0001197371324C03C91361321C012963C91DB
:1013D000129731111CC013964D915C9114974C1BC0
:1013E0005D0B483C510598F4809139028F70806103
:1013F00080933902E75FFD4F80818F708061808329
:1014000084E392E00E94EC060E94760903C00196F4
:101410008770BDCFDF91CF911F910F910895A1E10A
:10142000B0E0E5E1FAE00C9452258C0185E0F8018A
:10143000DE011D9601900D928A95E1F7F801E28098
:101440009091340260913502209137023091380238
:101450002115310531F06F3F31F481E09F3F19F4E0
:1014600003C081E001C080E0F82FF1709F2E80FD65
:1014700040C1F80140815181A380B48084E3C82E2B
:1014800082E0D82EF0903602F501E21BF30BFF202C
:1014900009F4DAC080913902E83CF10508F096C001
:1014A000282F207F09F053C0561313C0491311C0D1
:1014B000FE2CE1100EC08F708061809339020E9473
:1014C0009709C6010E94EC0680913902F8018583D4
:1014D0004DC1A114B10431F05F3F31F481E04F3FC1
:1014E00019F403C081E001C080E080FD03C081E009
:1014F0008E2502C080E090E0F82FF170FF2E80FF73
:101500001CC0809102022091030236E0821709F488
:101510000BC190E0389FF001399FF00D1124EC5F72
:10152000FD4F6181561306C06081461303C062817E
:10153000E61203C001968770E9CFFE2CEE2009F475
:1015400015C18091390281608093390254C05613CD
:1015500006C0491304C0E11002C0F80199C0C801D7
:101560000E945707882361F1EE2051F12091390242
:10157000822F82958F7090E0029774F080913402F0
:101580009091350298878F831986BB86AA862C870F
:10159000CE0107960E94EC0686E0F801A4E3B2E0D3
:1015A00001900D928A95E1F70E94A6090E94970981
:1015B0000AC0561711F1C8010E94570781112CC0AB
:1015C000C8010E94EC06FF24F394D0C0282F207F8E
:1015D00081F77A2DB98AA88A6E2D89890E945F07C2
:1015E00084E392E00E94EC0686E0F60111928A956F
:1015F000E9F70E949709F12CB9C04913DCCFE1103B
:10160000DACFF8018583C8010E94EC0686E0F60176
:1016100011928A95E9F7AAC0EE2091F22091390241
:10162000822F82958F7090E002970CF4B5CF809155
:101630003402909135029A8389831B82BD82AC82E9
:101640002E83CE010196A6CFE83CF10508F044C0F8
:10165000FE2CEE2009F4B4CF561330C049132EC02F
:101660002091390220FD21C0822F82958F70482F52
:1016700050E041155105C9F0F80125834F3051055F
:1016800041F08F5F982F9295907F822F8F70892BDA
:101690008583C8010E94EC0686E0F801A4E3B2E06D
:1016A00001900D928A95E1F73CC086E0F801A4E331
:1016B000B2E001900D928A95E1F758C0C8010E94EE
:1016C0005707811169CF8091390281608093390277
:1016D000C8010E94EC064AC07A2DB98AA88A6E2DEC
:1016E00089890E945F0786E0F60111928A95E9F7E1
:1016F00018C0EE2009F464CFC8010E945707F82EE5
:10170000882309F45DCF86E0F801A4E3B2E00190FC
:101710000D928A95E1F784E392E00E9462030E94B1
:10172000A6090E94970922C04D875E878D859E85F8
:101730000E944809292F22952F70223028F49F708B
:1017400039F0811105C00BC0243028F49F7049F492
:10175000805E883020F0C8010E94EC069F2CF92C96
:1017600005C0F8019581907F99F7F9CF8F2D61968B
:10177000EBE00C946E25ACE0B0E0E1ECFBE00C9407
:101780005A254F83588769877A878B879C87CE0134
:1017900007960E940F0A8823D1F09F8188852A85A9
:1017A0003B85232B31F08F3F31F481E09F3F19F4CB
:1017B00003C081E001C080E080FD47C04F815885B3
:1017C00069857A858B859C850E9469073EC086E085
:1017D000FE013796DE01119601900D928A95E1F790
:1017E000FF81E8856A857B856115710531F0EF3FE2
:1017F00031F481E0FF3F19F403C081E001C080E0D3
:1018000080FD23C02091030230E0C901019687705A
:1018100099274091020250E084179507F1F1F9836E
:10182000EA837D836C8396E0929FD001939FB00DF5
:101830001124AC5FBD4FFE01319601900D929A9537
:10184000E1F7809303020E94760916E0809102027C
:1018500090910302891771F1189FC00111248C5FC8
:101860009D4F0E940F0A882329F1E09102021E9FDA
:10187000F0011124EC5FFD4F408151816281738141
:10188000848195810E9469078091020290E001960F
:101890008770992780930202D9CF0E943707109250
:1018A000030210920202E4E3F2E086E0DF011D92FF
:1018B0008A95E9F72C96E3E00C9476258091420214
:1018C0008595859585950895809142028770089544
:1018D00090914202977081E009F480E00895809130
:1018E0004D02089590914D02892B80934D020895E9
:1018F000809590914D02892380934D020895109216
:101900004D02089590914C02892B80934C020895CA
:10191000809590914C02892380934C0208951092F7
:101920004C02089580914302089508950E94950CF9
:1019300008950E94960C08959091BD0292FF08C0F0
:1019400090914302981721F0809343020E94990CD2
:10195000089580914302882329F01092430280E089
:101960000E94990C0895CF93DF93E0914201F0918A
:10197000430180914D028083E0914201F091430147
:10198000908180914C02892B80838091430288232F
:1019900081F0E0914201F09143019081892B808395
:1019A00080914201909143010E948A1C81110E9402
:1019B000A90CC0914201D091430148E050E06AE394
:1019C00072E0CE010E948225892B59F088E0FE0149
:1019D000AAE3B2E001900D928A95E1F7CE010E9450
:1019E000451CDF91CF9108950E94950C0895909128
:1019F000BD0292FF11C098E0899F90011124262B0F
:101A0000209342020E94F0078091420285958595BD
:101A100085950E94F40C08950E94F0070895109295
:101A2000420280E00E94F40C0895209142028095C9
:101A3000822380934202982F977099F430E0482FC8
:101A4000082E000C550B2417350759F09091BD0254
:101A500092FF07C08595859585950E9412080E9482
:101A60000F0D08959091BD0292FB222720F92817AF
:101A700069F080FB92F99093BD028091BC02909135
:101A8000BD020E94860D82E00E94150D089580918E
:101A9000BD0282FB882780F991E089270E94320DE0
:101AA000089581E00E94320D089580E00E94320D79
:101AB00008956FEF7FEF80E090E00E94E4250895A5
:101AC00080E090E00E94B02521E0883E9E4F09F022
:101AD00020E0822F089582E090E00E94A8250895DA
:101AE00083E090E00E94A8250895CF9384E090E0E1
:101AF0000E94A825C82F82E290E00E94A8252C2FE2
:101B000030E0A901582BCA01CF910895CF93C92F76
:101B1000682F84E090E00E94C6256C2F82E290E05E
:101B20000E94C625CF910895AB01BC018FE090E0E3
:101B30000E94D8250895AB01BC0183E190E00E948A
:101B4000D825089560E070E0CB010E949B0D0895B8
:101B500060E070E0CB010E94940D0E94A20D0895F8
:101B600068EE7EEF80E090E00E94E42560E082E095
:101B700090E00E94C62560E083E090E00E94C625C8
:101B80001092FE011092FF011092000210920102C9
:101B900060E084E090E00E94C62564E082E290E08C
:101BA0000E94C62560E085E090E00E94C62560E0C6
:101BB00086E090E00E94C6256FEF87E090E00E94EB
:101BC000C62540E050E0BA0188E090E00E94D825A8
:101BD00060E08DE090E00E94C62540E050E0BA0150
:101BE00088E190E00E94D82560E087E190E00E94C3
:101BF000C62540E050E0BA018CE190E00E94D82573
:101C000060E070E080E290E00E94E42540E050E077
:101C1000BA0188E190E00E94D8250E94A80D08959D
:101C20000E94B00D0895682F8EE090E00E94C625B6
:101C300008950E949C1D6093590270935A028093EC
:101C40005B0290935C0260935502709356028093FE
:101C500057029093580208950E949C1D6093590268
:101C600070935A0280935B0290935C0260935102DE
:101C7000709352028093530290935402089581E02E
:101C800008950E943F0E089508950E94440E0895FD
:101C90000E94FE0108950E94440E08950E944B0E7A
:101CA00008950E94440E08958BEF90E10E942E1C2F
:101CB0000E94510E0E944E0E08950E94450E0E94F1
:101CC000440E08950E9417110E9403030E94601899
:101CD00008950E94871D0E94E7110E94620E0E94D3
:101CE000461A0E94480E0895AAE0B0E0EAE7FEE036
:101CF0000C9451250E94FD11982E81110E94190EFD
:101D00008EE4A82E82E0B82E00E010E0802E802F16
:101D10000E943C11D82EF501C1905F01C826B1F494
:101D20000F5F1F4F0330110589F78FEF89838A8377
:101D30001B820E94901D8160782F9D838C83498136
:101D40005A816B818D810E94210338C080915D0290
:101D500081FD0E944211F12CEE24E3948C2D8E2102
:101D600039F10E94410EDE20882399F0FE828F8295
:101D700081E0D11001C080E088870E94901D8160C1
:101D8000782F9A8789874E815F8168858A850E942E
:101D90002103F801E25BFD4F8081E826E08241E00B
:101DA000D11001C040E06F2D882D0E949E1606C004
:101DB000F394EE0CF5E0FF12D1CFB2CF81E0911099
:101DC00001C080E02A96ECE00C946D250E94740E10
:101DD0000E9456170E94BD1A81110E942C0E0E946B
:101DE000F6130E9416030895CF93DF930E942410E8
:101DF000EC01811521E5920708F045C0811530E519
:101E0000930708F094C0883E910528F5803E91051F
:101E100008F0F8C0883A910570F4853A910508F009
:101E20007CC08130910509F475C008F4E8C00497BE
:101E300008F0E8C0E4C08F3B910508F0E0C0C85A44
:101E4000D0E0CC0FDD1FCA56DE4F0990D881C02DDF
:101E5000CE019464D8C0811540E2940758F48115EE
:101E600051E0950708F0CEC08D3E910508F4C7C03B
:101E70009065C9C0C11580E4D80708F4C0C0DF7000
:101E8000CE01906AC0C0811525E59207A8F481159E
:101E900034E5930708F095C0811543E5940708F0F1
:101EA0007BC0811552E5950708F061C0D82FCC277B
:101EB000CE01816F906AA7C0C11589E5D807A0F44B
:101EC000C11528E5D20708F082C0C11536E5D30751
:101ED00008F095C08C2F0E94B8108F7190E0D82F19
:101EE000CC27CE0190628FC0C1154AE5D40708F413
:101EF00074C0CE0190568115904208F080C08D2F9D
:101F00008F710E94B810DD27D0628F71AE01582BFF
:101F1000CA0179C081E090E076C0C55AD0E0CC53C8
:101F2000DE4F8881C82FD0E0CE0190646CC074E091
:101F3000969587957A95E1F7282F23703C2F33707B
:101F400081E090E002C0880F991F3A95E2F79C6803
:101F5000AC01522B9A019C2F9F709695969550E25A
:101F6000959FE0011124C9018C2B9D2B4CC08370DF
:101F7000992721E030E002C0220F331F8A95E2F753
:101F80009C2F9695969580E2989FE0011124C22B94
:101F9000D32BCE019C6837C08370992721E030E0B5
:101FA00002C0220F331F8A95E2F79C2F96959695D3
:101FB00040E2949FE0011124C22BD32BCE019A68FA
:101FC00022C0D82FCC27CE01846F906A1CC0DC2F92
:101FD000CC27CE01806F906A16C08C2F8F700E9424
:101FE000B81094E0D695C7959A95E1F7CF70D0E0F8
:101FF000DC2FCC27D0699E01282BC90104C080E0CA
:1020000090E001C0CE01DF91CF9108957330A0F42C
:10201000653090F49FE0899FF001112485E0789F5E
:10202000E00DF11D1124E60FF11DEE0FFF1FE85228
:10203000FF4F85919491089580E090E008950E946B
:1020400006100E94F40E08958238910569F1B0F4EB
:102050008133910509F46DC048F48932910509F482
:1020600063C08A32910509F469C0089585339105EA
:1020700009F455C089339105B9F00895833E91055F
:1020800069F138F4803E9105B1F0823E910509F185
:102090000895863E9105A9F1873E9105B9F1843EE8
:1020A000910509F064C023C02091BC0220FD4FC0FF
:1020B00021FD4DC008958091BC0280FD44C08091F7
:1020C000BD0280FF44C08091BC0284FD42C083EE0B
:1020D0004DC08091BC0282FF38C0F5CF8091BC0218
:1020E00082FD33C08091BD0280FD31C0ECCF809174
:1020F000BD0281FF32C08091BC0284FD2AC087EE00
:1021000035C08091BC0283FF26C0F5CF8091BC0210
:1021100083FD21C08091BD0281FD1FC0ECCF809165
:10212000BC0285FD1CC01DC08091BC0285FD19C08C
:1021300016C08091BC0286FD16C017C08091BC02FB
:1021400086FD13C010C089E311C082EE0FC080EE7F
:102150000DC080E00BC086EE09C084EE07C089E2A6
:1021600005C085E303C08AE201C081E390E00895E1
:102170009091BC0292FF0DC0282F2871283019F4CD
:10218000877F846006C0282F2471243011F48B7F50
:10219000886093FF0DC0282F2871283119F4877E9D
:1021A000846106C0282F2471243111F48B7E88614C
:1021B0002091BD0220FF0DC0382F3871383019F43E
:1021C000877F816006C0382F3171313011F48E7FE6
:1021D000886021FF0DC0282F2871283119F4877ECF
:1021E000816106C0282F2171213111F48E7E886112
:1021F00094FD877E089580E008950E94590D08950A
:102200000E94FD118FE39CE90197F1F700C00000E7
:102210000E94FD1180E00E943C1180FF04C00E94DA
:10222000FD100E94F91D08950E94001108950E945A
:10223000600D811102C00E94100E0E946B0D8093F0
:102240005D020E94750D9093BD028093BC020E94B6
:1022500014110E94700D682F70E080E090E00E94E1
:1022600088076091FA017091FB018091FC019091C7
:10227000FD010E94C4070895E82FF0E0EF53FD4FE1
:1022800080810895089580EA8A95F1F7089500C045
:1022900008950E944311089508950E944C110895D5
:1022A0000E944D1108950E944C1108950E945311EF
:1022B0000895F894E82FE295EF70F0E031A1282F0F
:1022C0002F7081E090E001C0880F2A95EAF7982FDF
:1022D0009095932391A392A1892B82A3789408953A
:1022E000CF93DF9386E60E94591185EF0E94591122
:1022F00086EF0E945911C7ECD1E089918F3F11F010
:102300000E94591181E0CC3CD807B9F7DF91CF91F9
:102310000895A0E0B0E0EFE8F1E10C9455258C01C0
:10232000C62FD0E0CE0184539E4F7C01FC019081EA
:102330009F3F09F447C0D62EF894E92FE295EF703D
:10234000F0E081A19F7021E030E001C0220F9A955A
:10235000EAF7822B81A382A12095282322A37894D7
:102360000E944711E7ECF1E04CEC51E031E0C12C68
:1023700021912F3F89F0A22FA295AF70B0E09096E7
:102380008C9190E02F7002C0959587952A95E2F781
:1023900080FD02C0832F01C080E0C82A330F4E1792
:1023A0005F0731F7F70180818F3F11F00E945911CB
:1023B00061E0C11001C060E08D2D0E944911C00F85
:1023C000D11FC882CDB7DEB7E8E00C9471250E941A
:1023D000701183E0E1ECF2E0DF01982F1D929A95F5
:1023E000E9F7EEEBF2E0DF011D928A95E9F783E071
:1023F0000E943C120E946D020895A3E0B0E0E3E069
:10240000F2E10C945A2519821A821B8260E0CE01F7
:1024100001960E94891161E0CE0101960E94891106
:1024200062E0CE0101960E94891143E050E0BE01B6
:102430006F5F7F4F8EEB92E00E94822511E0009744
:1024400009F410E0892B49F089819A81AB8180934E
:10245000BE029093BF02A093C002212F43E061EC23
:1024600072E08EEB92E00E943D120E947002812F7A
:102470002396E3E00C9476250895FF920F931F9323
:10248000CF93DF938C01F62ED72FC42F222349F050
:1024900081E0809360020E94901D90935F02809380
:1024A0005E02809160028823C1F080915E0290916B
:1024B0005F020E94A81D059780F0EF2DFD2FD80127
:1024C0004C2F50E0CD01801B910B841795071CF415
:1024D0008D918193F7CF10926002CDB7DEB7E5E022
:1024E0000C9474250E94AF1F0E94690E0E94BC1FAD
:1024F00008950E94C11F0E94E60E0E94DB1F0895EE
:102500000E94271D0E94951F0E94540E0E94721265
:102510000E9479120E945D0EFBCF8091670280FFBE
:1025200006C06091490170E0660F771F26C081FFE9
:1025300004C06091490184E005C082FF07C060913A
:10254000490188E0689FB001112417C0909166028C
:102550009923D1F060914801961788F7209149019D
:1025600088E0289F90011124929FA001939F500D15
:10257000112470E0CA010E94F0246038710540F413
:102580006115710519F406C068E070E0862F0895A2
:102590008FE7089581E008958091670280FF08C069
:1025A0006091450170E0759567957595679521C0B7
:1025B00081FF06C06091450170E07595679519C06F
:1025C00082FF04C06091450170E010C090916502E7
:1025D000992399F0609144019617A0F780914501E5
:1025E000899FC001112470E00E94F02460387105B9
:1025F00040F46115710519F406C061E070E0862FA2
:1026000008958FE7089581E008958D3E21F40E949A
:102610008D12819504C08E3E29F40E948D12809304
:102620006B0208958F3E21F40E948D12819504C0A3
:10263000803F29F40E948D1280936A020895893F99
:1026400019F40E94CC1205C08A3F31F40E94CC12CA
:10265000819580936C0208958B3F21F40E94CC12E7
:10266000819504C08C3F29F40E94CC1280936D02A6
:1026700008959FE0980F983078F421E030E0A901A8
:1026800002C0440F551F9A95E2F7CA019091690262
:10269000892B8093690208958D3F21F48091670210
:1026A00081600BC08E3F21F480916702826005C07B
:1026B0008F3F29F4809167028460809367020895B8
:1026C0008D3E39F490916B0297FF35C010926B02EA
:1026D00059C08E3E29F490916B021916BCF32BC0A1
:1026E00090916A028F3E29F497FF25C010926A02EA
:1026F00049C0803F19F41916CCF31DC090916C02AB
:10270000893F29F41916BCF410926C023BC08A3F31
:1027100019F497FF10C0F8CF8B3F39F490916D02F8
:1027200097FF09C010926D022DC08C3F21F490914B
:102730006D021916BCF39FE0980F983080F421E0E9
:1027400030E0A90102C0440F551F9A95E2F7CA0173
:1027500080959091690289238093690213C08D3F0F
:1027600021F4809167028E7F0BC08E3F21F480910F
:1027700067028D7F05C08F3F29F4809167028B7FB0
:102780008093670280916A02811106C080916B027A
:10279000811102C01092660280916C02811106C004
:1027A00080916D02811102C01092650208950E940D
:1027B000901D20916A02211104C020916B022223F6
:1027C00021F0909364028093630220916C022111A6
:1027D00004C020916D02222321F090936202809325
:1027E000610288E692E00E94501C0895A6E0B0E0E5
:1027F000ECEFF3E10C945A2586E0E8E6F2E0DE0126
:10280000119601900D928A95E1F710926A0210924A
:102810006B0210926C0210926D028B81811104C0C8
:102820008C81882309F45FC08091630290916402D7
:102830000E94A81DAC0190916602992339F0209165
:102840004A0130E02417350758F04DC020914B0164
:102850008AE0289F900111242417350718F043C0FF
:102860009F3F19F09F5F909366021B81112361F0D7
:102870000E948D12111614F09FEF01C091E0989FF5
:10288000902D112490936A021C81112361F00E9403
:102890008D12111614F09FEF01C091E0989F902DBA
:1028A000112490936B0230916A023323E1F020915E
:1028B0006B022223C1F045EB3403C001112499239C
:1028C00019F090936A0203C081E080936A0235EBAD
:1028D0002303C0011124992319F090936B0203C0C4
:1028E00081E080936B028D81811104C08E818823E9
:1028F00009F45FC080916102909162020E94A81D5C
:10290000AC0190916502992339F02091460130E0A5
:102910002417350758F04DC0209147018AE0289FC1
:10292000900111242417350718F043C09F3F19F078
:102930009F5F909365021D81112361F00E94CC126C
:10294000111614F09FEF01C091E0989F902D112473
:1029500090936C021E81112361F00E94CC1211161B
:1029600014F09FEF01C091E0989F902D1124909357
:102970006D0230916C023323E1F020916D0222232D
:10298000C1F045EB3403C0011124992319F0909351
:102990006C0203C081E080936C0235EB2303C0011D
:1029A0001124992319F090936D0203C081E0809364
:1029B0006D02BE016F5F7F4F88E692E00E94D91CD6
:1029C00081110E94D71386E0FE013196A8E6B2E09D
:1029D00001900D928A95E1F72696E3E00C94762516
:1029E000E8E6F2E086E0DF011D928A95E9F71092B1
:1029F000660210926502109267020895EF92FF92AC
:102A00000F931F93CF93DF938B01682F11110AC08F
:102A1000442329F0E82FF0E0E05BFE4F6491762F2D
:102A2000862F75C0212F30E0E82FF0E0442321F0FD
:102A3000E05BFE4FE491F0E046E0049FC00111240A
:102A4000CFEFD0E0BE010E94DC244BEA4603C00178
:102A5000479F900D1124800F911D800F911D982F7D
:102A6000990F890FAE01421B530B4E9FD0014F9F10
:102A7000B00D5E9FB00D11249B2F189FA001112453
:102A8000452F55278E01041B150B0E9FA0010F9F8C
:102A9000500D1E9F500D11247E01E81AF108E29E90
:102AA0008001E39E100DF29E100D1124212F33277B
:102AB000C21BD30BCE9F9001CF9F300DDE9F300DF8
:102AC000112462307105A9F048F46115710569F0AF
:102AD00061307105C9F48B2F752F0DC064307105FD
:102AE00081F058F06630710579F47E2F8B2F932F8B
:102AF0000DC0832F7B2F9E2F09C08E2F7B2F952FEC
:102B000005C08E2F732F02C07E2F852F692FCDB762
:102B1000DEB7E6E00C94732541E00E94FE140895B0
:102B200020E030E0869F212D969F200D311D11243D
:102B3000C90108954095282F429F412D1124842FCB
:102B400008950E948C150895E4ECF2E089E08083FA
:102B50008091620190916301A091640181839283CD
:102B6000A3838FE784838FEF858346E050E06CE199
:102B700070E0CF010E94B62510926E02089580E0A9
:102B800008950F931F93CF93DF93C82FD62F8A01F9
:102B90000E94BF1595E0C99FF0011124E050FF4F3E
:102BA000ED0FF11D90819F3F29F0F801E80FF11D15
:102BB00090838F5FDF91CF911F910F910895E091E6
:102BC000D501F091D60109950895E091D101F091D8
:102BD000D20109950895A0E0B0E0E1EFF5E10C9491
:102BE00053258C017B01FC01C081CC0FCC0FD4E0BC
:102BF000DC0FD23108F0D1E12091C80231E0230F7F
:102C000008F42FEF30E040E050E06FEF7FEF80E01E
:102C100090E00E9426256901CD1708F041C0AC2E36
:102C2000B12CF501E050FF4F91A9F8018181892372
:102C3000A9F19091CE02915097FD15C0292F092E30
:102C4000000C330BF901E253FD4F8189C813F3CF18
:102C5000220F331FF901E253FD4F218D328D2C15C8
:102C60003D0548F701C096016091C80241E0640F3C
:102C700008F46FEFC9010E949015AC016091C50284
:102C80007091C6028091C702F70109950E94A115B3
:102C9000462F282F672FC5010E94E515CF5FBCCFB7
:102CA00081E0D13108F080E0CDB7DEB7EAE00C94E6
:102CB0006F256AE975E10E94EB150895A0E0B0E088
:102CC000E4E6F6E10C9456258C01DC01CC91CC0FA6
:102CD000CC0FD4E0DC0FD23108F0D1E16091C50215
:102CE0007091C6028091C7020E94A115F62EE72EB0
:102CF000D82ECD17A0F4EC2FF0E0DF01A050BF4F8D
:102D0000D1968C91D80111969C91982331F02D2D5C
:102D10004F2D6E2DCF010E94E515CF5FEACF81E0E8
:102D2000D13108F080E0CDB7DEB7E7E00C94722532
:102D3000E091D301F091D40109950895CF92DF92EB
:102D4000FF920F931F93CF93DF93CDB7DEB72897F2
:102D50000FB6F894DEBF0FBECDBF182F062FF42E8E
:102D60000E943F0E882309F46FC0F11009C0AE0124
:102D70004F5F5F4F602F812F0E94C115F82E01C059
:102D8000F12C0F2D10E080916F029801280F311D5A
:102D9000293031056CF188E090E06C01C01AD10A4D
:102DA000B80160597D4FA60180E792E00E948F250F
:102DB000B80168587D4FA60188E792E00E948F25F0
:102DC000A601440F551FB801660F771F68577D4F46
:102DD00088E892E00E948F25B80160587D4FA601D7
:102DE00080E892E00E948F2588E08F1980936F021F
:102DF00010916F02DE01119640E0842F810FF416CE
:102E000009F190E05D91252F30E0BC0161597D4FC3
:102E1000F901EE0FFF1FE050FF4F0785FB01018313
:102E2000220F331FF901E05FFE4F2081FB01218754
:102E3000518B880F991FFC01E159FD4F128E118EA5
:102E40004F5FDBCF80936F0228960FB6F894DEBFFA
:102E50000FBECDBFDF91CF911F910F91FF90DF90FB
:102E6000CF90089508950E94321708950E94331755
:102E70000E943217089508950E943B170895CF933A
:102E8000DF93FC01C081CC0FCC0FC450D4E0DC0F29
:102E9000D23108F0D1E16D2F8C2F0E943C176D2F9D
:102EA0008C2F0E943B17DF91CF9108954F925F9234
:102EB0006F927F928F929F92AF92BF92CF92DF924A
:102EC000EF92FF92CF936091980270919902809156
:102ED0009A0290919B020E94B71D6B017C010E9497
:102EE0009C1D4B015C016093980270939902809342
:102EF0009A0290939B02A0916F02EFE6F2E08A2F74
:102F000090E04FEF5FEF60E070E04C195D096E09F3
:102F10007F09A91799F0218D328D2901612C712C1F
:102F2000441555056605770510F4815004C02C0D35
:102F30003D1D328F218F9F5F3296EBCF80936F02C2
:102F40008091C402982F937021F0C82FC695C69522
:102F500001C0C0E090914C019130E1F030F092302E
:102F6000D9F1933009F443C09DC010924D01809275
:102F7000CA029092CB02A092CC02B092CD0289E21A
:102F8000EFE6F2E0AEECB2E001900D928A95E1F747
:102F900081E02AC090915001C9130CC0837090E069
:102FA0004091510150E021E08417950709F420E099
:102FB000822F01C081E0817080934F018091C9020E
:102FC00090914E01981799F180934E0140E060E096
:102FD00080E00E9498162BC0C093500183708093AC
:102FE00051010E94DF1583E080934C015BC080910A
:102FF0006E02882351F046E050E06CE170E084EC12
:1030000092E00E94B62510926E026091CA02709101
:10301000CB028091CC029091CD020E94B71D60310D
:10302000710581059105F0F110924C013BC0C13052
:1030300029F48DE491E00E945E1608C0C13008F1C9
:10304000C23051F58DE491E00E94591690914D01E6
:103050009F5F90934D01811111C082E080934C01DC
:1030600080914F0181110AC0CC2309F4BCCF0E948A
:1030700036178DE491E00E943F1714C0CC2391F0E5
:10308000F6CF80914F01882329F040E060E080E096
:103090000E94981680E0DACF80914D018F5F809377
:1030A0004D01DBCFCF91FF90EF90DF90CF90BF909D
:1030B000AF909F908F907F906F905F904F9008950A
:1030C000E091CF01F091D00109951092CE02E7EE88
:1030D000F2E08FEF9FEF8193919322E0E73FF207B9
:1030E000D1F710926F02E8E8F2E08FEF9FEF819343
:1030F000919322E0E839F207D1F70E94600D811127
:1031000004C00E94100E0E94A41546E050E06CE13D
:1031100070E084EC92E00E94982510926E028091FB
:10312000C4028C7F11F40E94A41508950895089597
:10313000FC01EE0FFF1F8E0F9F1FFC01E950FD4F9A
:103140006183408322830895E7EFF2E093E0EA325F
:10315000F90729F08183608342833396F7CF08957E
:1031600061E170E087EF92E00E94C91808959C0128
:10317000FB01828181110CC0233CFCE53F0738F044
:10318000273D9CE5390720F02E353D4509F081E0CB
:103190000895519A2BB12D7F3BB132604FB7F8940F
:1031A000FC01CB01880F991F680F791F6E0F7F1FDD
:1031B000E617F70789F0819198E03BB9000000C05D
:1031C00087FF2BB9880F000000C000C000C02BB9DA
:1031D00000C09A9591F7ECCF4FBF8FE594E001972F
:1031E000F1F700C000000895CF93DF93EC01FB01DD
:1031F0008281882309F43CC1C430FDE5DF0760F417
:10320000CB3F9CE5D90788F49E0122503C452431F0
:10321000310508F02EC109C0C236EDE5DE0729F000
:10322000C63AFDE5DF0709F024C10E94750D9093B1
:10323000BD028093BC02C1318CE5D80709F4C6C039
:1032400008F042C0C930ECE5DE0709F49BC000F588
:10325000C5308CE5D80709F485C078F4C330ECE5B7
:10326000DE0709F478C008F07AC0C230DC4509F006
:10327000F5C08091BC028160EFC0C7309CE5D907E2
:1032800009F478C008F07AC08091BC028061E4C083
:10329000CD30FCE5DF0709F487C058F4CB309CE55E
:1032A000D90709F479C008F07BC08091BC0288601E
:1032B0006FC0CF30FCE5DF0709F480C008F082C0A2
:1032C0008091BC02877FC8C0CE3F9CE5D90709F436
:1032D00071C000F5C531FCE5DF0709F485C068F46D
:1032E000C3319CE5D90709F475C008F095C00E9468
:1032F00037078091BC028F77AFC0CC3FFCE5DF077A
:10330000A9F108F054C0CB3FDC4509F0A7C080917B
:10331000BD0240C0C230EDE5DE0709F489C058F4B3
:10332000C1158DE5D80709F45AC008F069C080912D
:10333000BD0282602FC0C236EDE5DE0709F47CC015
:10334000C63AFDE5DF0709F481C0C330DD4509F069
:1033500085C080E06EC08091BC0282607DC080919B
:10336000BC0216C08091BC02886076C08091BD020C
:1033700082604FC08091BC0280626EC08091BC02AE
:1033800080646AC00E9437078091BC02806864C074
:10339000846062C081603DC08091BC028E7F5CC051
:1033A0008091BC028D7F58C08091BC0216C0809174
:1033B000BD0218C08091BD028D7F2BC08091BC02E0
:1033C0008F7E4AC08091BC028F7D46C08091BC0236
:1033D0008F7B42C08091BC02877F8B7F3DC08091F4
:1033E000BD028D7F8E7F15C08091BC0282FB22279B
:1033F00020F991E0922790FB82F990FB83F92CC091
:103400008091BD02982F909591708E7F892B90FBB3
:1034100081F98093BD0222C00E9437078091BC02CF
:1034200087FB222720F991E0922790FB87F914C0AF
:1034300081E00E94130E12C08091BC0284FB2227FF
:1034400020F991E0922790FB84F906C08091BC029C
:10345000982F909590FB80F98093BC028091BC02DC
:103460009091BD020E94860D0E94370780E001C046
:1034700081E0DF91CF9108958FE891E00197F1F716
:1034800000C0000008950E94EA010895EF92FF92A3
:103490000F931F93CF93DF9382E080939E0209EEF8
:1034A00011E0C7EED1E0AE01D80121E030E08D910E
:1034B000E82FE295EF70F0E061A18F70790102C012
:1034C000EE0CFF1C8A95E2F7C7019E2D909596237E
:1034D00091A392A1892B82A3FA018191AF01E82FD8
:1034E000E295EF70F0E061A18F70790102C0EE0CFF
:1034F000FF1C8A95E2F7C7019E2D9095962391A314
:1035000092A1892B82A381E0AB3EB80781F60E948D
:103510003C1A50919E02E1EAF2E040E0451741F189
:10352000D8012D918D01A22FA295AF70B0E0909699
:103530008C9190E02F7002C0959587952A95E2F7BF
:1035400081709991A92FA295AF70B0E090962C91BF
:1035500030E09F7002C0359527959A95E2F720FDDF
:1035600002C090E001C092E0892B81934F5FD6CFDB
:10357000CDB7DEB7E6E00C947325A0E0B0E0E3EC55
:10358000FAE10C945525F12CE12C84E0C82ED12CC5
:1035900080919E02F81608F06FC00F2D10E0F80120
:1035A000E751FE4F8081E82FE295EF70F0E0E0A157
:1035B000F0E08F7002C0F595E7958A95E2F7E1702B
:1035C000D801A951BE4F2C91A22FA295AF70B0E0A7
:1035D00090968C9190E02F7002C0959587952A95D2
:1035E000E2F780FD02C080E001C082E08E2BD801AE
:1035F000AF55BD4FEC912E2F237030E0482F082E91
:10360000000C550B24173507A9F1EE0FEE0FE82B30
:10361000EC93EF70F0E0E952FE4FE801C156DD4F48
:1036200090818881890F8883843064F0F801E456A2
:10363000FD4F80818F5F808360E08F2D0E94431A51
:1036400021E001C020E088818D3F5CF4F801E45660
:10365000FD4F80818150808361E08F2D0E94431A4D
:1036600021E08881082E000C990BB6010E94F024FD
:103670008883E22AF3948CCF8E2DCDB7DEB7E8E0B5
:103680000C947125CF93DF9386319C4541F5EB0176
:103690000E946F0C982F8A81209142013091430142
:1036A000882379F09A7A81E009F480E08093A3027C
:1036B000911102C069E201C065E3C9010E94CC1CFE
:1036C0000AC08091A302811102C069E201C065E3D2
:1036D000C9010E94CF1C0E94B30C80E001C081E0B0
:1036E000DF91CF9108950F931F93CF93DF93C42F52
:1036F000D22FFC0182818823B1F04093A6020E9460
:10370000901D9093A5028093A40280E28C0F8830D4
:1037100008F04DC0C77081E001C0880FCA95EAF774
:103720000E949E0444C08091A602481330C080913C
:10373000A4029091A5020E94A81D883C910538F52D
:1037400010E21D0FCD17B9F080E28C0F883040F4E5
:10375000C77081E001C0880FCA95EAF70E94A504EE
:10376000183010F581E09D2F977001C0880F9A9551
:10377000EAF70E949E04802F0E9494041830B8F447
:10378000D77081E001C0880FDA95EAF70AC080E2BD
:103790008C0F883060F4C77081E001C0880FCA9533
:1037A000EAF70E94A50403C0802F0E949404DF91D1
:1037B000CF911F910F9108950F939C01CB01243F4E
:1037C0004CE5340731F188F4293DFCE53F07D9F099
:1037D0002A3D4CE5340779F1283D3C45A9F506E240
:1037E00021EE41EE68ED7CE52BC0263FFCE53F076E
:1037F000E1F0A8F0273F3C4539F507E225EE46EE1B
:1038000067EF7CE51DC007E225EE45EE69ED7CE53E
:1038100017C006E221EE40EE64EF7CE511C007E23E
:1038200025EE44EE65EF7CE50BC006E221EE42EEAC
:1038300066EF7CE505C008E221E045EE6AED7CE537
:103840000E94731B80E008C0FC018281882319F06C
:103850001092A60201C081E00F9108959093ED01AE
:103860008093EC0108959093AC028093AB0208958D
:10387000E091AB02F091AC02309729F00190F08119
:10388000E02D0995089580E00895E091AB02F09154
:10389000AC02309721F00280F381E02D0995089564
:1038A000E091AB02F091AC02309739F022E0DC01FC
:1038B0002C930480F581E02D099508952091A902AB
:1038C0003091AA022817390771F09093AA028093C9
:1038D000A902E091AB02F091AC02309721F0068092
:1038E000F781E02D099508952091A7023091A80253
:1038F0002817390771F09093A8028093A702E091EE
:10390000AB02F091AC02309721F00084F185E02DFC
:1039100009950895FC01329697E080E0915029F0D6
:1039200021912223D9F38F5FF9CF0895662349F0BF
:10393000FC01329608962191621729F0E817F907E1
:10394000D1F780E0089581E008959C01FC01329652
:103950009FEF80E04191461789F09F3F19F4411194
:1039600001C0982F8F5F8630A9F79F3F39F0F9018A
:10397000E90FF11D97FDFA956283089508959C0162
:103980002A5F3F4FFC014281461301C0128201961B
:1039900082179307B9F708950E94A51C08950E9405
:1039A000BF1C0895029626E0FC0111922A95E9F7C2
:1039B000089546E050E00E94822521E0892B09F419
:1039C00020E0822F089508950E94E31C089583E06B
:1039D0008093AD020E94E41C0895811102C081E031
:1039E00001C082E08093AD020E94E41C08950E9411
:1039F000ED1C089581E08093AD020E94E41C0895BF
:103A00000E94FA1C089508950E94031D08950E94C3
:103A1000041D08950E94031D08950E94031D08952A
:103A20000E94031D0895CF930E940D1D0E94FD1159
:103A30000E940A1DC0E08C2F0E943C11811104C01D
:103A4000CF5FC330C1F701C081E0CF91089585B742
:103A5000806885BF85B7806885BF08951F920F92E3
:103A60000FB60F9211248F939F93AF93BF938091C2
:103A7000AE02811113C080912A0390912B03A09173
:103A80002C03B0912D034196A11DB11D80932A03F3
:103A900090932B03A0932C03B0932D03BF91AF9170
:103AA0009F918F910F900FBE0F901F90189580914E
:103AB0003203843031F10E94E8021092AE0220E419
:103AC00088E190E00FB6F894A895809360000FBE4F
:103AD0002093600083B7817F846083BF83B7816058
:103AE00083BF7894889583B78E7F83BF0FB6F89491
:103AF000A8958091600088618093600010926000BA
:103B00000FBE08950E9437070E94F202089582E0D6
:103B100084BD93E095BD9AEF97BD80936E000895A4
:103B20002FB7F89480912A0390912B03A0912C0336
:103B3000B0912D032FBF08952FB7F89460912A03F9
:103B400070912B0380912C0390912D032FBF08952A
:103B50009C014FB7F89480912A0390912B03A09178
:103B60002C03B0912D034FBF821B930B0895CF926E
:103B7000DF92EF92FF922FB7F894C0902A03D09073
:103B80002B03E0902C03F0902D032FBFA70196018B
:103B9000261B370B480B590BCA01B901FF90EF9058
:103BA000DF90CF90089578941F920F920FB60F92E6
:103BB00011248F939F93AF93BF9380912A03909189
:103BC0002B03A0912C03B0912D030196A11DB11DD3
:103BD00080932A0390932B03A0932C03B0932D037F
:103BE000BF91AF919F918F910F900FBE0F901F903B
:103BF000189587E797E790930108809300089AE06B
:103C000088E10FB6F894A895809360000FBE90935A
:103C10006000FFCF9AE088E10FB6F894A8958093F2
:103C200060000FBE90936000FFCF8091BA020895AC
:103C3000089522E02093E9002FEF3091E800215011
:103C400035FD06C035ED3A95F1F700002111F5CFAD
:103C50002091E80025FF0BC040E050E066E070E0F6
:103C60000E944E208091E8008E778093E8000895AE
:103C7000CF93DF9321E02093E9002FEF3091E8000C
:103C8000215035FD06C035ED3A95F1F700002111C0
:103C9000F5CF2091E80025FF14C0EC0140E050E092
:103CA00068E070E00E944E208091E8008E7780935B
:103CB000E80088E0FE01A2EBB2E001900D928A9547
:103CC000E1F7DF91CF9108958093AF027093B10235
:103CD0006093B00280913203843001F582E08093DA
:103CE000E9008FEF9091E800815095FD06C095EDB9
:103CF0009A95F1F700008111F5CF8091E80085FFDA
:103D00000DC040E050E063E070E08FEA92E00E9476
:103D10004E208091E8008E778093E8000895BC01E2
:103D200084E00E94641E0895BC0183E00E94641E2A
:103D3000089580913103811109C00E94D9210E9408
:103D400036228091E20084608093E2000895109210
:103D5000310308950E94001D089560912E0381E0B3
:103D6000611101C080E00E94E71C08959091320328
:103D700081E0943009F080E060912E030E94ED1CF8
:103D8000089542E061EC81E00E94522142E261EC40
:103D900082E00E9452219091320381E0943009F038
:103DA00080E060912E030E94F71C089580913403F7
:103DB000833009F461C030F4813071F0823009F44D
:103DC0009BC008958A3009F487C08B3009F46CC019
:103DD000893009F0A9C020C080913303813A09F0ED
:103DE000A3C08091E800877F8093E800809137032B
:103DF00090913803892B21F468E082EB92E003C0B4
:103E000060E080E090E070E00E9493208091E80004
:103E10008B778093E800089580913303813209F015
:103E200083C08091370390913803029708F07CC0DB
:103E30008091E800877F8093E8008091E80082FD10
:103E400005C0809132038111F8CF6EC02091F3003C
:103E50008091F20090E0922B029731F48091F10072
:103E6000813011F0863021F48091F1008093BA0204
:103E70008091E8008B7754C080913303813A09F038
:103E800053C08091370390913803892B09F04CC0BF
:103E90008091E800877F8093E8008091E80080FFB0
:103EA000FCCF80915E0137C0809133038132E1F510
:103EB0008091370390913803892BB1F58091E80008
:103EC000877F8093E8000E9487218091350380934B
:103ED0005E010E943707089580913303813221F5F6
:103EE0008091E800877F8093E8000E94872180917D
:103EF00036038093BB02089580913303813AA1F485
:103F00008091E800877F8093E8008091E80080FF3F
:103F1000FCCF8091BB028093F1008091E8008E7706
:103F20008093E8000E948721089584B7877F84BF2B
:103F30000FB6F894A8958091600088618093600026
:103F4000109260000FBE90E080E80FB6F894809366
:103F50006100909361000FBE0E94FA1C08950E94B8
:103F6000D9210E943622E2EEF0E0808184608083D5
:103F700078940E94C124089582E591E00E94331C48
:103F80000895809132038530A9F480913203853001
:103F900079F40E94571D809130038823B1F30E9469
:103FA000131D882391F30E9438200E943707EDCF1C
:103FB0000E94821D089508950E94DF1F0895292FF1
:103FC000332723303105C9F060F42130310581F009
:103FD0002230310509F044C08BE390E02EE832E056
:103FE00043C021323105E1F02232310549F138C0B8
:103FF00082E190E029EC32E037C0992781309105C9
:1040000049F028F0029761F5E0E5F2E005C0EAE842
:10401000F2E002C0E6E7F2E0849190E09F0124C064
:104020006115710541F061307105D1F489E090E0CE
:1040300029EB32E019C089E090E020EA32E014C0B8
:104040006115710541F06130710551F48BE790E025
:104050002BED32E009C080E490E026E533E004C0B7
:1040600080E090E020E030E0FA0131832083089581
:1040700080E189BD82E189BD09B400FEFDCF809158
:10408000D8008F7D8093D8008091E000826080937B
:10409000E0008091E00081FDFCCF0895A0E0B0E059
:1040A000E4E5F0E20C945525EC018B017A010E94C5
:1040B000A621811133C0E114F10439F0F7018081A8
:1040C0009181081B190BC80FD91FC12CD12C0115C8
:1040D000110519F18091E80085FD16C08091E80076
:1040E0008E778093E800E114F10449F0F7018081B4
:1040F0009181C80ED91ED182C08285E00FC00E9476
:10410000A621882321F30AC089918093F1000150F0
:104110001109FFEFCF1ADF0ADACF80E0CDB7DEB7A3
:10412000E8E00C9471252091390330913A03261769
:10413000370748F06115710539F42091E8002E77B2
:104140002093E80001C0B901FC0120E06115710570
:1041500079F1809132038823F1F18530F1F180917A
:10416000E80083FD3CC08091E80082FD2EC0809174
:10417000E80080FFEBCF2091F3008091F20090E007
:10418000922B6115710551F08830910538F4219119
:104190002093F100615071090196F3CF21E0089757
:1041A00009F020E08091E8008E778093E800CECF80
:1041B0002111CFCF0AC080913203882361F085306E
:1041C00061F08091E80083FD0AC08091E80082FFE1
:1041D000F2CF80E0089582E0089583E0089581E0C1
:1041E00008952091390330913A032617370748F094
:1041F0006115710539F42091E8002E772093E800CD
:1042000001C0B901FC0120E06115710591F18091B7
:104210003203882309F440C0853009F43FC08091FF
:10422000E80083FD3DC08091E80082FD2FC08091B1
:10423000E80080FFE9CF2091F3008091F20090E048
:10424000922B6115710559F08830910540F4249145
:104250002093F1003196615071090196F2CF21E06F
:10426000089709F020E08091E8008E778093E800BD
:10427000CBCF2111CCCF0AC080913203882361F0CB
:10428000853061F08091E80083FD0AC08091E800EC
:1042900082FFF2CF80E0089582E0089583E00895E0
:1042A00081E00895982F973068F59093E90098176A
:1042B00039F07091EC002091ED005091F00003C0B6
:1042C000242F762F50E021FD02C09F5FECCF30916C
:1042D000EB003E7F3093EB003091ED003D7F30935B
:1042E000ED003091EB0031603093EB007093EC0007
:1042F0002093ED005093F0002091EE0027FDE5CFD4
:1043000080E008958F708093E90081E008958091A6
:10431000330387FF11C08091E80082FD05C08091C2
:1043200032038111F8CF11C08091E8008B770BC068
:1043300080913203882349F08091E80080FFF8CF14
:104340008091E8008E778093E80008952091E40042
:104350003091E50095E64091EC00842F817040FF9C
:1043600023C08091E80080FD1DC080913203882326
:1043700099F0853099F08091EB0085FD11C0409156
:10438000E4005091E5002417350729F3915011F00E
:104390009A01E1CF84E0089582E0089583E00895D2
:1043A00081E0089580E008954091E80042FFDDCF6C
:1043B00008950E9448220E945022E0EEF0E08081A1
:1043C00081608083E8EDF0E080818F77808319BC85
:1043D000A7EDB0E08C918E7F8C9380818F7E80835F
:1043E0001092310308950F931F93CF93DF930E9490
:1043F00048220E945022C8EDD0E088818F778883C0
:1044000088818068888388818F7D888319BC109219
:10441000320310922E031092300310922F0300EEFD
:1044200010E0F80180818B7F8083888181608883A0
:1044300042E060E080E00E945221E1EEF0E0808105
:104440008E7F8083E2EEF0E08081816080838081D6
:1044500088608083F80180818E7F8083888180617D
:104460008883DF91CF911F910F910895E8EDF0E0DF
:1044700080818F7E8083E7EDF0E0808181608083A2
:1044800084E082BF81E0809331030E94F32108958C
:10449000E8EDF0E080818E7F80831092E200089545
:1044A0001092DA001092E10008951F920F920FB659
:1044B0000F9211242F933F934F935F936F937F93AA
:1044C0008F939F93AF93BF93EF93FF938091E100FE
:1044D00082FF0BC08091E20082FF07C08091E10063
:1044E0008B7F8093E1000E94C0248091DA0080FFDE
:1044F0001FC08091D80080FF1BC08091DA008E7FA2
:104500008093DA008091D90080FF0DC080E189BDE1
:1045100082E189BD09B400FEFDCF81E080933203C2
:104520000E94991E05C019BC109232030E94A71E5A
:104530008091E10080FF19C08091E20080FF15C0EA
:104540008091E2008E7F8093E2008091E2008061A2
:104550008093E2008091D80080628093D80019BCDB
:1045600085E0809332030E94AD1E8091E10084FFBC
:1045700030C08091E20084FF2CC080E189BD82E1DF
:1045800089BD09B400FEFDCF8091D8008F7D809356
:10459000D8008091E1008F7E8093E1008091E2005D
:1045A0008F7E8093E2008091E20081608093E20040
:1045B00080912E03882311F084E007C08091E300EE
:1045C00087FD02C081E001C083E0809332030E9436
:1045D000B61E8091E10083FF29C08091E20083FF35
:1045E00025C08091E100877F8093E10082E0809385
:1045F000320310922E038091E1008E7F8093E100C0
:104600008091E2008E7F8093E2008091E2008061E1
:104610008093E20042E060E080E00E9452218091BD
:10462000F00088608093F0000E94AA1EFF91EF9135
:10463000BF91AF919F918F917F916F915F914F91BA
:104640003F912F910F900FBE0F901F9018951F92C2
:104650000F920FB60F9211242F933F934F935F93B6
:104660006F937F938F939F93AF93BF93CF93DF937A
:10467000EF93FF93C091E900CF708091EC00D82FA9
:10468000D17080FDD0E81092E9008091F000877F22
:104690008093F00078940E946B231092E90080913F
:1046A000F00088608093F000CD2BCF70C093E900BC
:1046B000FF91EF91DF91CF91BF91AF919F918F913A
:1046C0007F916F915F914F913F912F910F900FBE0E
:1046D0000F901F901895AAE2B0E0E1E7F3E20C9486
:1046E0005A25E3E3F3E08091F100819323E0EB337B
:1046F000F207C9F70E94D61E8091E80083FF2EC101
:104700008091330390913403492F50E04A30510592
:1047100008F024C1FA01EE59FF4F0C94452580386A
:1047200021F0823809F01AC108C080912F039091BE
:104730003003992389F082600FC0809137038F7016
:10474000873008F00BC18093E9008091EB0085FB76
:10475000882780F91092E9009091E800977F909364
:10476000E8008093F1001092F100D1C0282F2D7F36
:1047700009F0F4C0882319F0823061F0EFC0809115
:104780003503813009F0EAC0933009F080E080936E
:1047900030032EC08091350381112AC080913703E8
:1047A0008F702FEF280F263008F0D8C08093E900D3
:1047B0002091EB0020FF1CC0933021F48091EB008E
:1047C000806214C09091EB0090619093EB0021E027
:1047D00030E0A90102C0440F551F8A95E2F74093CB
:1047E000EA001092EA008091EB0088608093EB0071
:1047F0001092E9008091E800877F8093E8000E9492
:104800008721ACC08111AAC0109135031F77809118
:10481000E3008078812B8093E3008091E800877F1C
:104820008093E8000E9487218091E80080FFFCCF00
:104830008091E30080688093E300111102C082E060
:1048400001C083E08093320389C08058823008F031
:1048500085C080913503909136038C3D53E09507D8
:1048600079F583E08A838AE289834FB7F894DE0181
:10487000139620E03EE051E2E32FF0E05093570022
:10488000E49120FF03C0E295EF703F5FEF708E2F41
:1048900090E0EA3010F0C79601C0C0968D939D93CA
:1048A0002F5F243149F74FBF8091E800877F8093C5
:1048B000E8006AE270E0CE0101960E94932016C0E3
:1048C0006091370370913803AE014F5F5F4F0E94D4
:1048D000DC1FBC01892B09F441C09091E800977F4F
:1048E0009093E80089819A810E94F1208091E800EC
:1048F0008B778093E80032C0803881F58091E800A2
:10490000877F8093E80080912E038093F10080914F
:10491000E8008E7772CF811121C08091350390918C
:10492000360399270297D4F48091E800877F80931B
:10493000E8008091350380932E030E9487218091A7
:104940002E03811106C08091E30087FD02C081E043
:1049500001C084E0809332030E94C11E8091E80070
:1049600083FF0AC08091E800877F8093E8008091F0
:10497000EB0080628093EB00AA96E3E00C9476252E
:104980000895CF93809132038823A1F0C091E9006C
:10499000CF709091EC00892F817090FD80E8C82B3A
:1049A0001092E9008091E80083FD0E946B23CF7094
:1049B000C093E900CF910895AA1BBB1B51E107C02A
:1049C000AA1FBB1FA617B70710F0A61BB70B881F9F
:1049D000991F5A95A9F780959095BC01CD0108952E
:1049E00097FB072E16F4009407D077FD09D00E949C
:1049F000DC2407FC05D03EF4909581959F4F0895E7
:104A0000709561957F4F0895A1E21A2EAA1BBB1BDA
:104A1000FD010DC0AA1FBB1FEE1FFF1FA217B3078A
:104A2000E407F50720F0A21BB30BE40BF50B661FA0
:104A3000771F881F991F1A9469F760957095809564
:104A400090959B01AC01BD01CF010895052E97FB08
:104A50001EF400940E943D2557FD07D00E940425B6
:104A600007FC03D04EF40C943D25509540953095AD
:104A700021953F4F4F4F5F4F0895909580957095CA
:104A800061957F4F8F4F9F4F0895EE0FFF1F059049
:104A9000F491E02D09942F923F924F925F926F9282
:104AA0007F928F929F92AF92BF92CF92DF92EF92BE
:104AB000FF920F931F93CF93DF93CDB7DEB7CA1B3F
:104AC000DB0B0FB6F894DEBF0FBECDBF09942A886A
:104AD000398848885F846E847D848C849B84AA8412
:104AE000B984C884DF80EE80FD800C811B81AA819F
:104AF000B981CE0FD11D0FB6F894DEBF0FBECDBF6A
:104B0000ED010895FB01DC0104C08D910190801935
:104B100021F441505040C8F7881B990B0895FB01C0
:104B2000DC0102C001900D9241505040D8F7089529
:104B3000DC01CB01FC01F999FECF06C0F2BDE1BD5D
:104B4000F89A319600B40D9241505040B8F708954C
:104B5000F999FECF92BD81BDF89A992780B5089545
:104B6000A8E1B0E042E050E00C949A25DC01A40FEB
:104B7000B51F4150504048F0CB01840F951F2E9136
:104B80000E94C72541505040D0F70895262FF9992B
:104B9000FECF92BD81BDF89A019700B4021639F09C
:104BA0001FBA20BD0FB6F894FA9AF99A0FBE08956D
:104BB0000396272F0E94C7250E94C625252F0E94F5
:104BC000C725242F0C94C7250196272F0E94C7259F
:084BD0000C94C625F894FFCFF8
:104BD800000102030405060708090A0B0CFFFF0081
:104BE800201220252037204A205D2070208320961F
:104BF80020A820BB20CD20E02000000000000000FD
:104C0800000104040404040404040404040102026A
:104C180002024402280850011E0A14010300FF0082
:104C2800FFFF151E381E191E941E8F1E181E010028
:104C3800FFFF00FFFFE200E900EA00B500B600B799
:104C480000CD008301CC008A019201940121022346
:104C58000224022502260227022A02B300B4006FAA
:104C6800007000818283E200E900EA00B500B60026
:104C7800B700CD008301CC008A0192019401210282
:104C8800230224022502260227022A02B300B400C6
:104C98006F007000818283F4F731333666F5F6973A
:104CA800189818A418B01800FF0100010000FFFFB1
:0C4CB8000000010001FF00923493350061
:00000001FF
