:100000000C94CA060C94E7060C94E7060C94E706D9
:100010000C94E7060C94E7060C94E7060C94E706AC
:100020000C94E7060C94E7060C94C3190C9405197C
:100030000C94AD1D0C94E7060C94E7060C94E706AF
:100040000C94E7060C94E7060C94E7060C94E7067C
:100050000C94E7060C94601D0C94E7060C94E706DC
:100060000C94E7060C94E7060C94E7060C94E7065C
:100070000C94E7060C94E7060C94E7060C94E7064C
:100080000C94E7060C94E7060C94E7060C94E7063C
:100090000C94E7060C94E7060C94E7060C94E7062C
:1000A0000C94E7060C94E7060C94E706B40CB70C26
:1000B000EA0C030D0A0D150D180D180D180D1E0E66
:1000C0001E0E8B0D8D0D920DB60DD70DDA0DDD0DBB
:1000D000FF0D1C1022100D10131028102E103410BC
:1000E0008F1003119710611065109B1068109E10FF
:1000F000A9107310F9107710AD107B10B110DB1040
:100100007F10B510E5108510BB10C5106C10A21043
:100110006F10A5108A10C010D110F110F3105D10EF
:1001200093100C114E124E1281128112FB121913F0
:10013000261426141E139213A313A313551152143D
:1001400057145C14611466146B14701475147A14CB
:100150007F14861489148C148F1492149514981497
:100160009B149E14A3141D174417ED184417ED1883
:100170009017B317ED18A818B81800DA0281FFD944
:10018000F1DB20A4A62EAF00A0C000A1C800AED510
:1001900080A81FD300408D1420005441534B2000F1
:1001A0002903505245562000AC004E4558542000BB
:1001B000AB00504C41592000AE0050727453636D37
:1001C00046005363724C6B003300427265616B00F2
:1001D0004800432D412D44004C05416C74463400C9
:1001E0003D04524553455400007C1E0F0500047F1A
:1001F0003F1F643214643214783C1E1E140A05201A
:100200008E8F9000CACBCCCD00AAABACADAE008A2D
:100210008B8C8D0020202000534352002020202072
:10022000200043415053200020202020004E554DF7
:100230002000204A4F4E4156494E200054656D70B3
:10024000203F3F3F3F0054656D70205247422000E1
:1002500054656D7020464E34200054656D70204604
:100260004E33200054656D7020464E322000546598
:100270006D7020464E200054656D702042415345FC
:1002800000202020202020202020202020200020AE
:1002900020200020574C00203F3F200052474220A2
:1002A00000464E342000464E332000464E32200099
:1002B000464E2000424153450030300005010902FE
:1002C000A10185020901A1000509190129081500EC
:1002D0002501950875018102050109300931158153
:1002E000257F95027508810609381581257F9501BE
:1002F00075088106050C0A38021581257F95017560
:10030000088106C0C005010980A101850319012AE1
:10031000B700150126B700950175108100C0050CC6
:100320000901A101850419012AA002150126A002D4
:10033000950175108100C00660FF0961A101096285
:10034000150026FF00952075088102096315002617
:10035000FF00952075089102C005010906A101055D
:100360000719E029E7150025019508750181029517
:1003700001750881010507190029FF150026FF00F6
:10038000950675088100050819012905950575016F
:100390009102950175039101C009025B0003010000
:1003A000A0FA090400000103010100092111010064
:1003B0000122400007058103080001090401000231
:1003C000030000000921110100012222000705821B
:1003D00003200001070503032000010904020001B6
:1003E00003000000092111010001227B00070584A0
:1003F000032000011201000200000008776D0517BC
:1004000001030102000112034D007500720070002B
:100410006800500061006400000012034D00650098
:1004200063006800570069006C006400000004036A
:1004300009040000000000003E5B4F5B3E003E6B85
:100440004F6B3E001C3E7C3E1C00183C7E3C18005E
:100450001C577D571C001C5E7F5E1C0000183C185A
:100460000000FFE7C3E7FF00001824180000FFE7C3
:10047000DBE7FF0030483A060E00262979292600DE
:10048000407F05050700407F05253F005A3CE73CBB
:100490005A007F3E1C1C0800081C1C3E7F001422D2
:1004A0007F2214005F5F005F5F0006097F017F000D
:1004B000006689956A0060606060600094A2FFA297
:1004C000940008047E04080010207E201000080814
:1004D0002A1C0800081C2A0808001E101010100012
:1004E0000C1E0C1E0C0030383E383000060E3E0E3E
:1004F000060000000000000000005F000000000790
:1005000000070000147F147F1400242A7F2A1200A1
:100510002313086462003649562050000008070380
:100520000000001C224100000041221C00002A1C87
:100530007F1C2A0008083E08080000807030000078
:100540000808080808000000606000002010080487
:1005500002003E5149453E0000427F400000724982
:10056000494946002141494D33001814127F1000BB
:100570002745454539003C4A494931004121110987
:100580000700364949493600464949291E000000FE
:100590001400000000403400000000081422410054
:1005A0001414141414000041221408000201590903
:1005B00006003E415D594E007C1211127C007F49BD
:1005C000494936003E41414122007F4141413E00C0
:1005D0007F49494941007F09090901003E414151D4
:1005E00073007F0808087F0000417F410000204021
:1005F000413F01007F08142241007F4040404000FD
:100600007F021C027F007F0408107F003E414141B1
:100610003E007F09090906003E4151215E007F0925
:100620001929460026494949320003017F01030088
:100630003F4040403F001F2040201F003F403840C7
:100640003F00631408146300030478040300615935
:10065000494D4300007F4141410002040810200041
:10066000004141417F00040201020400404040403B
:1006700040000003070800002054547840007F2801
:1006800044443800384444442800384444287E0018
:1006900038545454180000087E0902001824241C01
:1006A00078007F080404780000447D40000020406A
:1006B000403D00007F102844000000417F400000C2
:1006C0007C04780478007C080404780038444444AE
:1006D00038007C1824241800182424187C007C0876
:1006E0000404080048545454240004043F442400E3
:1006F0003C4040207C001C2040201C003C403040FE
:100700003C004428102844004C9090907C004464A5
:10071000544C4400000836410000000077000000FF
:100720000041360800000201020402003C26232694
:100730003C00000000E0FEFFFEF8C00000000000EA
:10074000E0FCFFFEF0C00000000000000000013EE1
:10075000E080700E0100000000073CE08078070098
:100760000000000000000000000000000000000089
:1007700000E0FEFFFEF8C00000000000E0FCFFFE0D
:10078000F00000000000013EE080700E010000005B
:1007900000073CE080780700000000000000000037
:1007A0000000000000000000000000000000000049
:1007B0000000000000000000000000000000000039
:1007C0000000000000000000000000000000000029
:1007D0000000000000000000000000000000000019
:1007E0000000000000000000000000000000000009
:1007F00000000000F8FFFF1F071FFFFEF0C0F8FF1A
:10080000F707077FFFFFF800C0380C186080000072
:1008100000F00C04F41C00000000000080C0FCE6A6
:10082000C3C1C1C3E6FCC08000000000000000009E
:10083000F8FFF707071FFFFEF0C0F83F8F0F3FFFDD
:10084000FFFE80F00C04F41C00000000000000001B
:100850000000000000000000000000000000000098
:100860000000000000000000000000000000000088
:100870000000000000000000000000000000000078
:100880000000000000000000000000000000000068
:100890000000000000000000000000000000000058
:1008A0000000000000000000000000000000000048
:1008B0000000001F1F1F0700000000031F1F0F0183
:1008C0000306F800077F3F0EC138070E70831C60D7
:1008D0001E03C03E01000000000000003F7FFFFF3C
:1008E000F9C0C0F9FFFF7F3F000000000000001FBB
:1008F0001F1F0706F80000733F0FC138070F7083F2
:10090000077F1F03C03E0100000000000000000040
:1009100000000000000000000000000000000000D7
:1009200000000000000000000000000000000000C7
:1009300000000000000000000000000000000000B7
:1009400000000000000000000000000000000000A7
:100950000000000000000000000000000000000097
:100960000000000000000000000000000000000087
:1009700000002223252628292A2C2D2F303233351A
:1009800036383A3B3D3E4042434547494A4C4E503B
:1009900051535557595A5C5E6062646668696B6D65
:1009A0006F71737577797B7D7F81838587898A8C69
:1009B0008E90929496989A9C9E9FA1A3A5A7A8AA70
:1009C000ACAEAFB1B3B4B6B8B9BBBCBEBFC1C2C3A5
:1009D000C5C6C7C9CACBCCCDCED0D1D2D2D3D4D53F
:1009E000D6D7D7D8D9D9DADADBDBDBDCDCDCDCDC68
:1009F000DDDDDDDDDCDCDCDCDCDBDBDBDADAD9D940
:100A0000D8D7D7D6D5D4D3D2D2D1D0CECDCCCBCACD
:100A1000C9C7C6C5C3C2C1BFBEBCBBB9B8B6B4B3F3
:100A2000B1AFAEACAAA8A7A5A3A19F9E9C9A989689
:100A30009492908E8C8A89878583817F7D7B79775C
:100A40007573716F6D6B6968666462605E5C5A593C
:100A500057555351504E4C4A4947454342403E3DFD
:100A60003B3A3836353332302F2D2C2A292826258B
:100A7000232200AF00AE00000000000000000000D4
:100A80000000000000000000000000000000000066
:100A9000000000000000000000007E0F00D4FFFFF7
:100AA000FFC70000007800000000000000002A2BB3
:100AB000280000000000000000000000000000000E
:100AC0000029000000002C1E342021222434262777
:100AD000252E362D3738271E1F2021222324252698
:100AE0003333362E37381F0405060708090A0B0C66
:100AF0000D0E0F101112131415161718191A1B1CAE
:100B00001D2F3130232D350405060708090A0B0C6B
:100B10000D0E0F101112131415161718191A1B1C8D
:100B20001D2F3130354CC3522A00E700E400E600A7
:100B3000C4525700630036005800C5525600610089
:100B40005E005B00A800550060005D005A00C252C4
:100B500054005F005C005900C15253002B00E500B7
:100B600062000100010001000100010001004600D7
:100B70004700480001000100450042003F003C00E2
:100B8000417E440041003E003B0001004300400024
:100B90003D003A00010001000100010001000100D8
:100BA00001000100010001000100AB000100010093
:100BB00001000100AC00010001000100007CAE005A
:100BC000010001000100010001000100010001001D
:100BD000010001000100010001000100010001000D
:100BE00001000100010001000100010001000100FD
:100BF00001000100010001000100010001000100ED
:100C000001000100010001000100010001000100DC
:100C100001000100010001000100010001000100CC
:100C200001000100010001000100010001000100BC
:100C300001000100010001000100010001000100AC
:100C4000010001000100010001000100010001009C
:100C5000010001000100010001000100010001008C
:100C60002578267800000100010023782178277874
:100C700001000100297820782A78010001002478F9
:100C80002278287801000100010001000100000124
:100C9000010101010101010102020202020202023C
:100CA000020303030303030303040404040404040E
:100CB00005050505050606060606070707070708D2
:100CC000080808090909090A0A0A0B0B0B0C0C0C85
:100CD0000D0D0D0E0E0E0F0F0F101011111112121F
:100CE00013131414151516161717181819191A1A9C
:100CF0001B1B1C1D1D1E1E1F2020212222232424FD
:100D0000252626272829292A2B2C2D2D2E2F303138
:100D10003232333435363738393A3B3C3D3E3F404A
:100D20004142434445464748494A4C4D4E4F505135
:100D30005354555658595A5B5D5E5F6162646566EF
:100D400068696B6C6D6F7072737577787A7B7D7E76
:100D50008082838587888A8C8E8F91939596989AC6
:100D60009C9EA0A2A3A5A7A9ABADAFB1B3B5B7BADE
:100D7000BCBEC0C2C4C6C9CBCDCFD1D4D6D8DBDDB2
:100D8000DFE2E4E7E9EBEEF0F3F5F8FAFDFFFFAAA6
:100D90007F55400011241FBECFEFDAE0DEBFCDBF8C
:100DA00011E0A0E0B1E0ECEEF6E602C005900D9295
:100DB000AC3BB107D9F724E0ACEBB1E001C01D9228
:100DC000AD3FB207E1F70E94E9060C9474330C942E
:100DD0000000A5E2B0E0EFEEF6E00C94D73185B765
:100DE000806885BF85B7806885BF84B7877F84BFEB
:100DF0000FB6F894A8958091600088618093600098
:100E0000109260000FBE90E080E80FB6F8948093D7
:100E10006100909361000FBE86E896E29093BD0159
:100E20008093BC010E9449190E9468198091E200D8
:100E300084608093E20078948091EF018823A1F090
:100E40001091E9001F709091EC00892F817090FD46
:100E500080E8182B1092E9008091E80083FD0E9441
:100E60003A161F701093E90082E084BD93E095BDAF
:100E70009AEF97BD80936E000E948221811102C07B
:100E80000E94722182E08093D301AFE3B1E04DE391
:100E900051E091E4E92E91E0F92E8A019D0161E093
:100EA00070E0F90181919F01E82FE295EF70F0E089
:100EB000D1A08F705B0102C0AA0CBB1C8A95E2F71F
:100EC000C5019A2D90959D2191A392A1892B82A372
:100ED000F80181918F01E82FE295EF70F0E0D1A049
:100EE0008F705B0102C0AA0CBB1C8A95E2F7C5019A
:100EF0009A2D90959D2191A392A1892B82A3E21610
:100F0000F30679F68FE891E00197F1F700C0000051
:100F10007091D30104ED11E060E0671751F12D915C
:100F2000822F82958F7090E0FC0180A190E02F705D
:100F300002C0959587952A95E2F78170FA01919103
:100F4000AF01292F22952F7030E0F90120A130E068
:100F50009F7002C0359527959A95E2F720FF02C051
:100F600092E001C090E0892BF80181938F016F5FBF
:100F7000D4CF02E211E088E2E82E81E0F82ED80119
:100F80008D918D018F3F11F00E946727E016F106C9
:100F9000B1F708E211E0F80181918F018F3F11F064
:100FA0000E946727F1E00D321F07A9F786E0EBEDFD
:100FB000F1E0DF01A82E1D92AA94E9F7EEEBF1E033
:100FC000DF011D928A95E9F70E94A928811102C0CC
:100FD0000E94B52882E090E00E9473328093C8019D
:100FE00084E090E00E9481329093D8018093D701F1
:100FF0000E94F629BFEFE6E7F1E0B150E040F04093
:10100000E1F700C000000E94F6298091DB0181FF1A
:1010100008C06FEF7FEF80E090E00E94A5320E9451
:101020004F1D83E090E00E9473320E9410251092C1
:10103000740480E8809301020E94CF306DE070E07C
:101040008DE891E00E946C15892B89F580917404DC
:1010500063E070E081FD28C08AE891E00E946C1591
:10106000892B29F56DE070E08AE791E00E946C150C
:10107000892BE9F40E94951DDC01CB01805A954132
:10108000AF4FBF4F8093760490937704A09378047A
:10109000B09379040E94392181E080937B0480938E
:1010A0007A041092750403C087E891E0D7CF80914D
:1010B000C401811133C00E94A928811104C00E947B
:1010C000B5280E943B2B88E090E00E947B32609321
:1010D0004F047093500480935104909352046E7F98
:1010E00071F40E943B2B88E090E00E947B32609379
:1010F0004F047093500480935104909352040E94C3
:10110000F12A1092FC0480914F0480FF04C060E03B
:1011100086950E94602D81E08093C4016091C50195
:1011200028E0629FB001112466567E4F48E050E0EF
:1011300089EF91E00E946A320E94471E80FD03C041
:1011400083E50E94692684E091E090938204809375
:10115000810418E1A12EB12C00E4402E7724739471
:1011600055245394CE0101967C018091EF01853086
:1011700009F062C000E112E18091EF01853009F0D1
:101180004CC08091EF01843009F436C00E94BD1F2D
:101190000E94E72A1092FC048091C701811109C0C6
:1011A0005092C70180914F0481708093C6010E94C4
:1011B000E72A0E94BD1F109285040FB6F894A895E7
:1011C000A09260000FBE4092600083B7817F846070
:1011D00083BF83B7816083BF7894889583B78E7F00
:1011E00083BF0FB6F894A8958091600088618093C2
:1011F0006000109260000FBE8091EE01882309F418
:10120000BBCF0E94F629EBEDF1E0819181111FC562
:1012100091E0E13EF907C9F7AFCF0E9413250E9484
:10122000471E1092C7018091C60181110E949B2D1B
:101230000E944A2D0E949B2D0E94F62909EC11E084
:10124000BBEDCB2EB1E0DB2ED601F80191918D9153
:1012500021E0EF3CF20719F09817C1F306C098138C
:1012600004C00E94CE29612C33C0912CD6012D9050
:101270006D01F8013080322409F1812C66246394D9
:10128000862D8321A1F089A29AA291E0862D822148
:1012900009F490E09BA30E94A11D8160782F9DA37B
:1012A0008CA349A15AA16BA18DA10E94112E8394F8
:1012B000660CF5E08F12E4CFD8012C9293940F5F67
:1012C0001F4FB6E09B12D2CF0E94951D66246394F7
:1012D0008091FC04882309F4A5C08091FB04E0916F
:1012E0004F04E695E81BE093F704823059F4F0E0F0
:1012F000E550FE4FE4910E2F10E0AFEFCA2EABE2A7
:10130000DA2E6BC0863059F4F0E0E850FE4FE491DD
:101310000E2F10E0FFEECF2EFBE2DF2E5EC08930F5
:1013200061F4E695F0E0EB50FE4FE4910E2F10E0F3
:10133000E3E1CE2EECE2DE2E50C08F3061F4E69574
:10134000F0E0EE50FE4FE4910E2F10E075E6C72E50
:101350007CE1D72E42C0853159F4F0E0E151FE4FD7
:10136000E4910E2F10E067E1C62E6CE1D62E35C059
:101370008831F9F0833249F4EDEEF1E005911491F2
:1013800053ECC52E5CE1D52E28C08432C9F08532DD
:10139000F1F48E2F63E00E941E33E92FF0E0E65156
:1013A000FE4FE4910E2F10E040EDC42E4AE1D42E02
:1013B00014C008E210E03CE9C32E3BE1D32E0DC07F
:1013C00004EF11E024E6C22E2BE1D22E06C000ED80
:1013D00017E09FE9C92E9AE2D92E8091F80488235C
:1013E00061F01092F8040E94A11D9093F60480937E
:1013F000F5041092FA041092F9040E94A11DE091E4
:10140000F504F091F6048E1B9F0B8F3F9F4750F41D
:101410000E0F1F1F1093F6040093F50485EF94E060
:10142000F6010995312C212C84E0882E912C809195
:10143000D301381608F075C0032D10E0F801E15C07
:10144000FE4F8081E82FE295EF70F0E0E0A1F0E040
:101450008F7002C0F595E7958A95E2F7E170D801A3
:10146000A35CBE4F2C91A22FA295AF70B0E09096D6
:101470008C9190E02F7002C0959587952A95E2F7A0
:1014800080FF02C092E001C090E08E2F892BD8012E
:10149000AC52BE4FEC912E2F237030E0482F082E17
:1014A000000C550B24173507D1F1EE0FEE0FE82B8A
:1014B000EC93EF70F0E0E35DFE4F98012F523E4F4A
:1014C00069019081D9018C91890F8C93843064F0EB
:1014D000F801E153FE4F80818F5F808360E0832DB0
:1014E0000E944B2F21E001C020E0F60180818D3F5A
:1014F0005CF4F801E153FE4F80818150808361E00C
:10150000832D0E944B2F21E0D6018C91082E000CD8
:10151000990BB4010E942A33F6018083222A339466
:1015200086CF21100E94951D80917B04882309F4A9
:10153000DFC060E080E00E942D2060E080E00E943B
:101540002D208FE092E00E94121661E080E00E9460
:101550002D2089E092E00E94121662E080E00E9455
:101560002D2084E092E00E94121663E080E00E9449
:101570002D208FEF91E00E94121662E088E00E9419
:101580002D208091D6018230B9F058F4882389F05B
:101590008130D9F480EB92E00E9412160E9420164E
:1015A00018C0843079F058F0853079F48CE992E0F5
:1015B0000EC084EB92E00BC08BEA92E008C086EA92
:1015C00092E005C081EA92E002C087E992E00E94C1
:1015D00012168091D70184FF03C083E992E002C014
:1015E0008FE892E00E94121663E088E00E942D20AE
:1015F0008091D9010E94AE2E9091D601891303C02B
:1016000081E892E024C08230B9F058F4882389F050
:101610008130D9F48EE692E00E9412160E942016C4
:1016200018C0843079F058F0853079F486E492E07F
:101630000EC087E792E00BC084E692E008C08AE51E
:1016400092E005C080E592E002C08CE392E00E9447
:1016500012160E94471E80FBDD24D0F881FB002774
:1016600000F982FB112710F960E088E00E942D202C
:1016700082E392E00E94121661E088E00E942D2031
:10168000DD2019F08DE292E002C088E292E00E9433
:101690001216002319F082E292E002C08CE192E07F
:1016A0000E941216112319F088E192E002C084E131
:1016B00092E00E9412160E94442080917A048823AE
:1016C000B9F00E94951D0091760410917704209145
:1016D000780430917904DC01CB01801B910BA20BC3
:1016E000B30B8F3F9F4FAF4FBF4710F40E94BD1FFA
:1016F000611001C021100E94D71F86E0EFEEF4E0D8
:10170000D70101900D928A95E1F71092F1041092A1
:10171000F2041092F3041092F4048B81811104C03E
:101720008C81882309F451C08091ED049091EE04DE
:101730000E94861D9C019091E804992309F4A6C299
:101740002531310508F441C09F3F19F09F5F909308
:10175000E8041B81112361F00E942A2D111614F454
:1017600091E001C09FEF899F802D11248093F104A7
:101770001C81112361F00E942A2D111614F491E0AE
:1017800001C09FEF899F802D11248093F204309136
:10179000F1043323D1F02091F2042223B1F045EB80
:1017A0003403C0011124992319F09093F10402C06D
:1017B0007092F10435EB2303C0011124992319F031
:1017C0009093F20402C07092F2048D81811104C0E2
:1017D0008E81882309F451C08091EB049091EC0430
:1017E0000E94861D9C019091E904992309F453C23B
:1017F0002135310508F441C09F3F19F09F5F909358
:10180000E9041D81112361F00E94082D111614F4C2
:1018100091E001C09FEF899F802D11248093F304F4
:101820001E81112361F00E94082D111614F491E01D
:1018300001C09FEF899F802D11248093F404309183
:10184000F3043323D1F02091F4042223B1F045EBCB
:101850003403C0011124992319F09093F30402C0BA
:101860007092F30435EB2303C0011124992319F07E
:101870009093F40402C07092F40446E050E0B70183
:101880008FEE94E00E946733892BA9F48091F104D4
:1018900081110FC08091F20481110BC08091F3047B
:1018A000811107C081E09091F404911103C080E0A0
:1018B00001C081E080FD0E94BA2D86E0F701AFEE05
:1018C000B4E001900D928A95E1F70E94471E909135
:1018D000DA01891721F08093DA010E94951D809129
:1018E000EF01843009F041CC83E08093E9008091DE
:1018F000E80082FF3ACC8091E80085FF1FC00E947B
:101900009A1A811119C000E210E0670108C08091A5
:10191000F100D6018D936D010150110969F080919C
:10192000E80085FDF4CF8091E8008B778093E80094
:101930000E949A1A882399F391E001C090E0809167
:10194000E8008B778093E800992309F40ECC298175
:10195000822F90E0FC013197E331F10508F06EC170
:10196000EA5AFF4F0C943E331A828CE0D9C08A8128
:10197000823009F482C150F4813009F05FC10E94C5
:10198000951D9B838C837D836E835AC1833041F088
:10199000843009F053C11B821C821D821E8250C1FB
:1019A0004B81DE01149680E090E0242F30E0B901F5
:1019B000680F791F6630710508F042C1E42FE80F07
:1019C000F0E0E552FE4F50815D9301968C31910518
:1019D00071F736C18A81823019F0853051F02EC1FD
:1019E0006B817C818D819E810E9444330E944E21B7
:1019F00027C180914F0480FF03C00E94E72A20C1C5
:101A00000E949B2D1DC14C816B818A810E94321FD7
:101A10009D833AC12D813E813227232732274C8175
:101A20006B818A810E94D61E0BC10E94FD1E08C1D7
:101A30008A81823009F002C12830B9F1293009F4D5
:101A40005FC08B818230F9F098F4813009F0F8C0E2
:101A50008C81BFEF8B9FC00111246FEF70E00E945B
:101A6000C331462F20E060915104809150041AC088
:101A70008330A1F0843009F0E3C020E040915204AB
:101A80006D818C810FC08C81882309F4B6CF0E94B0
:101A90009B2D60E08C810E94602DD2C08C81809350
:101AA0005304CEC00E943D2CCBC08B818230E1F02C
:101AB00078F4813009F0C4C080915204EFEF8E9F1A
:101AC000C00111246FEF70E00E94C3316C83B8C075
:101AD000833091F0843009F0B3C0809150048C833E
:101AE000809151048D83ACC080914F0480FF02C06F
:101AF000869504C080E002C0809153048C83A0C00E
:101B000060914F047091500480915104909152045F
:101B10000E94042B95C080E14EC082E08A8382E758
:101B20008B838EC00A811B81102701271027CC8050
:101B3000D12C4701C80182579E4F94012E193F09AD
:101B40002C153D0508F07CC00237F2E01F0730F489
:101B50000E947332D40114968C9302C0F401148253
:101B60000F5F1F4FFFEF8F1A9F0AE4CF0A811B817F
:101B7000102701271027CC80D12C4701C80182579C
:101B80009E4F94012E193F092C153D0508F058C0B1
:101B9000023722E0120728F4D40114966C910E94B7
:101BA00087320F5F1F4FBFEF8B1A9B0AE7CF0E9450
:101BB000C61E46C086E08A8343C00A811B81102767
:101BC00001271027CC80D12C4701C80186969401AB
:101BD0002E193F092C153D0598F50836E1E01E0742
:101BE00030F40E947332D40114968C9302C0F40135
:101BF00014820F5F1F4FFFEF8F1A9F0AE6CF0A81F3
:101C00001B81102701271027CC80D12C4701C80148
:101C1000869694012E193F092C153D0588F4083647
:101C200021E0120728F4D40114966C910E948732A7
:101C30000F5F1F4FBFEF8B1A9B0AE9CF8FEF89838E
:101C400040E250E0B70182E00E94FD1C8ECA09BD4F
:101C500019BD09B400FEFDCF8091D8008F7D80931F
:101C6000D8008091E00082608093E0008091E000E5
:101C700081FDFCCF0E9413257FCA85E290E00E947F
:101C800073321B821C821D828E83DACF2B3031058A
:101C900008F05CCD9ACD2B30310508F0AFCDEDCDFD
:101CA000A8E0B0E0E6E5FEE00C94DA31FC018081CA
:101CB000918123813481232B31F09F3F31F491E0D6
:101CC0008F3F19F403C091E001C090E090FD40C641
:101CD0007F0161E0CF010E94C22E8C01F701828159
:101CE000882309F4E8C0980137572038310508F0F7
:101CF0006FC1D02EFFE0F01708F4ECC28FEF93E035
:101D00000E9473328111E6C20EE811E0DD2071F00D
:101D1000011524E0120709F4DDC2C8010E947332E4
:101D2000811101C0DA940F5F1F4FF0CFCE010196F1
:101D30004C0188E0F40111928A95E9F75AE0552E9A
:101D40006801FFEFCF1ADF0AC8010E94733289834E
:101D50001A82882309F4BEC2813009F042C05801BA
:101D600022E0A20EB11CC6010E9473328A8388232E
:101D700009F4B0C29FEF980F933058F40D5F1F4FD6
:101D8000C5010E9473328B83882309F4A3C21C828D
:101D90002BC0843041F53E0183E0680E711C42E0A7
:101DA000C42ED12C85010F5F1F4FC5010E947332D5
:101DB000F30181933F01882309F48CC28C3741F4ED
:101DC000E2E0F0E0EC0FFD1FEC0DFD1D10820CC0F9
:101DD000FFEFCF1ADF0A580127E0C216D10411F72E
:101DE00079C2860101C085016401F60180818823E2
:101DF00009F4A6CF813009F04EC08181813049F4C9
:101E00005601F2E0AF0EB11CF60182810E946926F4
:101E10000AC0823051F45601F2E0AF0EB11CF60157
:101E200082810E94C425650138C0833049F456017F
:101E3000F2E0AF0EB11CF60182810E946025F3CF63
:101E4000843021F0FFEFCF1ADF0A27C0F60122818C
:101E5000C60102966C0180E090E030E02053310929
:101E60002A30310570F4589EA001599E500D11245E
:101E7000C901840F951FEFEFCE1ADE0AF60120810B
:101E8000ECCF009751F0EFE9FFE03197F1F700C098
:101E900000000197F6CF0E94601FFFEFCF1ADF0A04
:101EA0008BE0815009F4A1CFEFE9FFE03197F1F722
:101EB00000C00000F6CF0134FEE71F0709F4DAC0C6
:101EC0000034EEE71E0731F00234FEE71F0709F485
:101ED0006CC099C0882309F465C029EBA22E22E0CA
:101EE000B22E3AE0932EF5018491882309F4C2C002
:101EF000813009F04FC06501FFEFCF1ADF0AF6010C
:101F00008491813049F46501F2E0CF0ED11CF601D5
:101F100084910E94692641C0823049F46501F2E053
:101F2000CF0ED11CF60184910E94C42536C08330A7
:101F300049F46501F2E0CF0ED11CF60184910E94B4
:101F400060252BC0843049F56501F2E0CF0ED11C2D
:101F5000F601249180E090E030E0205331092A30EE
:101F6000310570F4989EA001999E500D1124C9016D
:101F7000840F951FFFEFCF1ADF0AF6012491ECCFF3
:101F8000009759F0EFE9FFE03197F1F700C000004A
:101F90000197F6CF0E94601F65015601FFEFAF1A4F
:101FA000BF0AA1CF80E49EE710C0882361F0909122
:101FB000D70194FB332730F921E0232720FB94F944
:101FC0009093D7015CC082E49EE70E94032F52C029
:101FD0000134FEE71F0709F073CF8091FF01909154
:101FE00000028115FCE79F0709F086C10E941325B6
:101FF0002FEF84E39CE0215080409040E1F700C047
:1020000000000E944F1DF801E851FC47E730F10540
:1020100088F5E759FF4F0C943E3306E221EE41EE7E
:102020006AE17CE705C007E225EE45EE6BE17CE75F
:10203000C7010E94541E4EC106E221EE40EE68E147
:102040007CE7F6CF07E225EE44EE69E17CE7F0CFCE
:1020500006E221EE42EE6CE17CE7EACF07E225EEF4
:1020600046EE6DE17CE7E4CF08E221E045EE6EE16B
:102070007CE7DECFF7018281882309F450C11092FA
:102080007E04980130572332310508F0DBC084E02C
:1020900090E00E9481329093D8018093D701F8019B
:1020A000E150F047E232F10520F4E059FF4F0C9483
:1020B0003E338091D7018160ACC08091D8018860A7
:1020C000B4C08091D7018260A4C08091D70120C0A4
:1020D0008091D70188609DC08091D8011EC08091F9
:1020E000D8018260A2C08091D701806192C08091A6
:1020F000D70180628EC08091D70180648AC00E941F
:1021000013258091D701806884C08091D7018860B1
:1021100084607FC08091D8018260816086C0809198
:10212000D7018E7F76C08091D801877F7EC0809155
:10213000D7018D7F6EC08091D70120C08091D701DB
:10214000877F67C08091D8011EC08091D8018D7FA4
:102150006CC08091D7018F7E5CC08091D7018F7D4C
:1021600058C08091D7018F7B54C00E941325809165
:10217000D7018F774EC08091D701877F8B7F49C071
:102180008091D8018D7F8E7F50C08091D70182FBD6
:10219000222720F991E0922790FB82F990FB83F9A6
:1021A00038C08091D801982F909591708E7F892B9F
:1021B00090FB81F93AC08091D70186FB222720F954
:1021C00091E0922790FB86F924C00E94132580910C
:1021D000D70187FB222720F991E0922790FB87F90E
:1021E00018C061E001C060E08EE090E00E9487329C
:1021F0001EC08091D70184FB222720F991E092270D
:1022000090FB84F906C08091D701982F909590FBA0
:1022100080F98093D7010BC08091D80183FB2227DE
:1022200020F991E0922790FB83F98093D801609187
:10223000D7017091D80184E090E00E94A5320E94FD
:10224000132548C006312CE7120709F060C09091B1
:10225000E004292F2A7A392F347409F020E0917193
:1022600061F48823A1F081E0211101C080E0809316
:10227000E101222331F065E305C0882341F010928B
:10228000E10169E286E994E00E94E31D0BC08091C0
:10229000E101882311F065E301C069E286E994E079
:1022A0000E94D61D0E94242915C080914F0480FFF2
:1022B000F3C28E7F80934F0460914F04709150045D
:1022C00080915104909152040E94042B1092FC04BE
:1022D0000E94A02A8091D604877009F439C3F701BF
:1022E0008281882309F434C38091D80182FF30C3EE
:1022F00082E00E9460292CC38933910519F460E5BE
:1023000070E002C06AE070E00E941D2F7CCE0737AB
:102310002CE71207C9F48823A9F081E01CC006311C
:10232000ECE71E0709F493CF8091E0048272F80174
:10233000E052F847E531F10508F4AAC207378CE707
:10234000180761F481E010C008379CE71907A1F471
:10235000882349F082E00E94042508C008379CE7E2
:10236000190709F048C082E00E94F72443E062E0C8
:1023700081E00E94D524AECF8823E9F10330FCE749
:102380001F0729F148F401158CE7180791F0013077
:102390009CE7190711F12FC00B35ECE71E0741F13F
:1023A0000C35FCE71F07E1F00A351C4721F581E0F9
:1023B00020C00E9413258FEF94E3ECE08150904001
:1023C000E040E1F700C000000E944F1D83CF6FEF97
:1023D0007FEF80E090E00E94A5320E94ED2E7ACF40
:1023E0008091D80182FB882780F991E0892701C07C
:1023F00080E00E947D29F70182810081118188237C
:1024000049F0C8010E941D22D82E682FC8010E94E1
:102410009D2404C0C8010E946924D82EB8018D2DC6
:102420000E947E270E948C27B82E192F982EF70124
:102430000281A580A2949FE0A9228091D604877092
:10244000E9F00023D9F0812F807F803451F080E2C1
:102450008B0D883098F0A11004C0812F807E8032CF
:1024600069F08091D80182FF09C082E00E94602952
:102470008091D6048770DD24D3948111D12CC12E94
:10248000C2948FE0C8228C2D90E08C30910508F02A
:10249000DDC1FC01EE56FF4F0C943E33812F807F4F
:1024A0001F70882311F01295107F0023B9F01123BB
:1024B00009F4B5C180E28B0D883010F0911006C090
:1024C0009091E004192B1093E00405C09091DF0473
:1024D000192B1093DF040E942429A1C18B2D0E9487
:1024E0006025112309F4B2C180E28B0D883088F198
:1024F000992079F110959091DF0419231093DF044E
:102500002BC0812F807F1F70803211F01295107FB9
:102510008B2D992029F0F1E09F1609F441C04FC09E
:102520008091D80182FD1BC0002369F0112339F08E
:102530009091E004192B1093E0040E94242980E07C
:102540000E94C42583C180E00E946025112309F404
:102550007DC1812F0E941D290E94242977C100235B
:1025600081F08091E104AA2051F021E0A21207C07D
:10257000182B181709F46AC11093E10467C1812B65
:1025800016C0A11003C00E94172931C081E0A8160F
:1025900009F45CC1812F0E944F250E94172956C162
:1025A000002341F092E09A1508F450C1812F0E9457
:1025B00056254CC1E1E0EA1508F448C118C00023D3
:1025C00049F0AA2099F3F701858180FF28C18F7017
:1025D0008583ECCFAA2059F0893309F02EC1FFEF93
:1025E00027EE83E0F15020408040E1F72AC1812F9F
:1025F0000E944F252BC1812F86958695837019F0F7
:10260000813061F023C1002321F08B2D912F937035
:1026100002C080E090E00E94221E1EC1002321F033
:102620008B2D912F937002C080E090E00E94FD1DE1
:1026300013C1602F8B2D0E94F72F0EC1812F837045
:10264000A9F5011107C14B2D429546954770440FDE
:10265000440F8B2D8F7090E09C01042E01C0220F3F
:102660000A94EAF7B4FE08C08FE090E001C0880F3A
:102670004A95EAF7809501C080E01695169513708B
:10268000123069F088F49091E204113019F0822B35
:10269000892302C0922B892B0E941025DBC0822B3C
:1026A0009091E2048927F8CF822BF6CF002319F00E
:1026B000812F817001C08695882309F4CBC04B2DF2
:1026C000429546954770440F440F8B2D8F7090E0D4
:1026D0009C01042E01C0220F0A94EAF7B4FE08C040
:1026E0008FE090E001C0880F4A95EAF7809501C01D
:1026F00080E0169516951370123059F078F4909189
:10270000D901113019F0822B892309C0922B892B12
:1027100006C0822B9091D901892701C0822B0E948B
:10272000D22498C01F70002339F0812F0E94042505
:102730008B2D0E9456258EC08B2D0E944F25812FF8
:102740000E94F72487C08B2DF2EF9F1681F1F915B7
:1027500038F020EF921659F091EF991619F15BC0FD
:10276000E3EF9E1659F1F4EF9F16C1F054C0002319
:1027700081F021E02A1508F469C01F7181E090E022
:10278000012E01C0880F0A94EAF79091D901892798
:1027900020C082E08A1508F459C0EFCF8091D8019B
:1027A00082FD1AC0002329F0812F8F7127C00023DA
:1027B000D9F3812F8F710E94F72448C0002341F084
:1027C0001F7181E0012E01C0880F0A94EAF701C051
:1027D00080E00E94D2243AC0002399F01F71812F1B
:1027E0000E9404258091D80182FF07C0E8E01E9F67
:1027F000C001112483608093D604812F0E94042598
:1028000025C081E00E946029F1E0FA15F8F482E029
:102810000E9460291BC0002321F0AA2029F28B2DE1
:102820008FCEAA2031F2893341F42FEF87EE93E067
:10283000215080409040E1F704C0EFE3FCE931977C
:10284000F1F700C000008B2D0E94602588EF8C0DF1
:10285000843010F40E94471EDD20A9F08091D60438
:1028600080FD11C0F70112828595859585950E949E
:102870000425C7010E94500E8091D6048595859548
:1028800085950E94F72460E0C7010E94C22E60C0B7
:10289000E256FF4F0C943E33816080934F0461E019
:1028A00086954EC045EA5DE26FEA7DE22CC04FEAB4
:1028B0005DE265EA7DE227C045EF5CE264E07DE22F
:1028C00022C044E05DE265EF7CE21DC040ED5CE2C9
:1028D0006DED7CE218C04DED5CE260ED7CE213C072
:1028E00046EB5CE263EC7CE20EC043EC5CE266EB40
:1028F0007CE209C047E15BE269E27BE204C049E2B5
:102900005BE267E17BE20E94AF21E4CC61E081E021
:1029100017C065E082E019C068E086E016C06EE08E
:1029200089E013C064E18FE010C067E185E10DC06C
:1029300061E088E105C062E289E107C061E083E20D
:102940000E94602DC7CC6AE285E20E949B21C2CC26
:102950002896EFE00C94F6318091F10187FF11C0C9
:102960008091E80082FD05C08091EF018111F8CFD0
:1029700011C08091E8008B770BC08091EF01882314
:1029800049F08091E80080FFF8CF8091E8008E77D1
:102990008093E8000895982F973068F59093E900A8
:1029A000981739F07091EC002091ED005091F000F3
:1029B00003C0242F762F50E021FD02C09F5FECCF93
:1029C0003091EB003E7F3093EB003091ED003D7F86
:1029D0003093ED003091EB0031603093EB00709359
:1029E000EC002093ED005093F0002091EE0027FDC5
:1029F000E5CF80E008958F708093E90081E008952D
:102A00002091F7013091F8012617370748F061153A
:102A1000710539F42091E8002E772093E80001C079
:102A2000B901FC0120E06115710579F18091EF0198
:102A30008823F1F18530F1F18091E80083FD3CC0FD
:102A40008091E80082FD2EC08091E80080FFEBCFEE
:102A50002091F3008091F20090E0922B61157105B6
:102A600051F08830910538F421912093F1006150A4
:102A700071090196F3CF21E0089709F020E08091D9
:102A8000E8008E778093E800CECF2111CFCF0AC027
:102A90008091EF01882361F0853061F08091E8003A
:102AA00083FD0AC08091E80082FFF2CF80E00895A4
:102AB00082E0089583E0089581E0089543E050E0C6
:102AC000BC0184E00E94FD1C089546E050E0BC017A
:102AD00084E00E94FD1C0895EF92FF920F931F93D4
:102AE000CF93DF93EC017B0164E670E088E70E94FE
:102AF000D5308C01EC0EFD1ECE15DF0561F017FD03
:102B00000AC0FE01849164E670E00E9448318C01A5
:102B10002196892B89F30E94BF31C801CDB7DEB75A
:102B2000E6E00C94FF31CF93DF93682F8A3011F4E5
:102B300081E003C08D3021F480E00E94FD1F6FC052
:102B400080910A0490910B0426E0FC01A4E0B4E01B
:102B500001900D922A95E1F7603E30F026E0FC01ED
:102B600011922A95E9F70AC0F6E06F9FB00111248F
:102B70006E5C7B4F46E050E00E946A32C0910A04CE
:102B8000D0910B0446E050E0BE0184E094E00E9446
:102B90006733892B49F19E0124503240A90185E019
:102BA000569547958A95E1F781E090E0BC0102C017
:102BB000660F771F4A95E2F7409102025091030297
:102BC000462B572B2B5F3F4F65E0369527956A952F
:102BD000E1F702C0880F991F2A95E2F7842B952B05
:102BE00090930302809302029E012E5F3140409138
:102BF0000102642F70E0C9010E94C331481B4630B6
:102C000010F4240F311D211582E0380710F020E068
:102C100030E02C5F3D4F30930B0420930A04DF918A
:102C2000CF910895CF93DF93EC01FE018491882327
:102C300021F00E9493152196F8CFDF91CF9108954E
:102C40000F931F93CF93DF93C9EFD1E0099000203A
:102C5000E9F7219709EF11E00C171D0730F4F8018F
:102C600081918F010E949315F7CFDF91CF911F9132
:102C70000F910895AAE2B0E0E0E4F6E10C94E631A9
:102C8000E1EFF1E089EF91E02091F10021938E17BF
:102C90009F07D1F78091F201833009F463C030F4CB
:102CA000813071F0823009F49DC0B4C08A3009F4DB
:102CB00089C08B3009F46EC0893009F0ABC020C0E8
:102CC0008091F101813A09F0A5C08091E800877FE9
:102CD0008093E8008091F5019091F601892B21F411
:102CE00068E085EE91E003C060E080E090E070E095
:102CF0000E9400158091E8008B778093E8008AC0DD
:102D00008091F101813209F085C08091F5019091A7
:102D1000F601009719F0029709F07CC08091E80055
:102D2000877F8093E8008091E80082FD05C0809154
:102D3000EF018111F8CF6EC02091F3008091F20075
:102D400090E0922B029731F48091F100813011F0E4
:102D5000863021F48091F1008093E4018091E800B5
:102D60008B7754C08091F101813A09F053C0809172
:102D7000F5019091F601892B09F04CC08091E80093
:102D8000877F8093E8008091E80080FFFCCF8091EE
:102D90000C0137C08091F1018132E1F58091F5019C
:102DA0009091F601892BB1F58091E800877F80939F
:102DB000E8000E94AC148091F30180930C010E9402
:102DC000132528C08091F101813221F58091E8001E
:102DD000877F8093E8000E94AC148091F401809377
:102DE000E30118C08091F101813AA1F48091E800DB
:102DF000877F8093E8008091E80080FFFCCF80917E
:102E0000E3018093F1008091E8008E778093E800E1
:102E10000E94AC148091E80083FFDFC18091F10132
:102E20009091F201492F50E04A30510508F0D5C188
:102E3000FA01ED54FF4F0C943E33803821F0823874
:102E400009F0CBC108C08091ED019091EE0199236A
:102E500089F082600FC08091F5018F70873008F093
:102E6000BCC18093E9008091EB0085FB882780F945
:102E70001092E9009091E800977F9093E80080938A
:102E8000F1001092F10070C1282F2D7F09F0A5C12B
:102E9000882319F0823061F0A0C18091F301813064
:102EA00009F09BC1933009F080E08093EE012EC0C1
:102EB0008091F30181112AC08091F5018F702FEF6D
:102EC000280F263008F089C18093E9002091EB009B
:102ED00020FF1CC0933021F48091EB00806214C06D
:102EE0009091EB0090619093EB0021E030E0A9011C
:102EF00002C0440F551F8A95E2F74093EA001092F2
:102F0000EA008091EB0088608093EB001092E9006A
:102F10008091E800877F8093E8000E94AC145DC137
:102F200081115BC11091F3011F778091E3008078DC
:102F3000812B8093E3008091E800877F8093E800F5
:102F40000E94AC148091E80080FFFCCF8091E300E8
:102F500080688093E300111102C082E001C083E029
:102F60008093EF013AC18058823008F036C1209139
:102F7000F3013091F4012C3D53E0350779F583E0FE
:102F80008A838AE289834FB7F894DE01139620E0A2
:102F90003EE051E2E32FF0E050935700E49120FF30
:102FA00003C0E295EF703F5FEF708E2F90E0EA3044
:102FB00010F0C79601C0C0968D939D932F5F24316A
:102FC00049F74FBF8091E800877F8093E8006AE26D
:102FD00070E0CE0101960E940015B4C08091F50109
:102FE0009091F601432F552743305105A9F068F41D
:102FF0004130510509F400C14230510509F0EDC0DE
:103000008BE590E0E9E9F3E04BC04132510529F14D
:103010004232510589F1E1C0C901992781309105FA
:10302000A1F058F0029709F0D8C0E6E0F4E0E4918E
:103030008E2F90E0E6E0F4E030C0EEE2F4E0E491C0
:103040008E2F90E0EEE2F4E028C0EAE1F4E0E491B3
:103050008E2F90E0EAE1F4E020C08330910508F083
:10306000BCC0880F991FFC01E65BFE4F0190F08108
:10307000E02D89E090E014C08330910508F0ADC0E8
:10308000FC01EE0FFF1FEC5BFE4F0190F081E02D85
:10309000DC01AF5BBE4F8C9190E0009709F49DC0BE
:1030A0002091E800277F2093E8002091F7013091DC
:1030B000F8012817390708F4C90140E0009789F1A1
:1030C0002091EF01222309F43DC02530D9F1209150
:1030D000E80023FD37C02091E80022FD2FC0209199
:1030E000E80020FFEBCF4091F3002091F20030E0A8
:1030F000342B009759F02830310540F44491409327
:10310000F100319601972F5F3F4FF3CF41E0283018
:10311000310509F040E02091E8002E772093E80087
:10312000CDCF4111CDCF0AC08091EF01882351F05E
:10313000853041F08091E80083FD04C08091E80073
:1031400082FFF2CF8091E8008B778093E80045C042
:10315000803809F042C08091E800877F8093E800C2
:103160008091F0018093F1008091E8008E77D3CEBA
:10317000811133C08091F3019091F4019927029756
:1031800064F58091E800877F8093E8001091F30157
:103190001093F0010E94AC14111106C08091E3005D
:1031A00087FD02C081E001C084E08093EF0142E02E
:1031B00061EC81E00E94CB1442E261EC84E00E9469
:1031C000CB1442E261EC82E00E94CB1442E260EC5C
:1031D00083E00E94CB148091EF018091E80083FF8F
:1031E00010C08091E800877F8093E8008091EB0019
:1031F00080628093EB0005C082E190E0E4EFF3E0B1
:103200004FCFAA96E3E00C9402321F920F920FB6B2
:103210000F9211242F933F934F935F936F937F935C
:103220008F939F93AF93BF93CF93DF93EF93FF93CE
:10323000C091E900CF708091EC00D82FD17080FD53
:10324000D0E81092E9008091F000877F8093F00031
:1032500078940E943A161092E9008091F0008860FC
:103260008093F000CD2BCF70C093E900FF91EF91D8
:10327000DF91CF91BF91AF919F918F917F916F918E
:103280005F914F913F912F910F900FBE0F901F9024
:103290001895E8EDF0E080818E7F80831092E20047
:1032A0001092DA001092E100A0EEB0E08C91816003
:1032B0008C9380818F77808319BCA7EDB0E08C91CF
:1032C0008E7F8C9380818F7E80831092E20108959F
:1032D000A0E0B0E0EEE6F9E10C94E131C8EDD0E019
:1032E00088818F7E8883E7EDF0E080818160808334
:1032F00084E082BF81E08093E20188818E7F8883B1
:1033000002EE10E0F80110821092DA0081EEC82E71
:10331000D12CF601108288818F778883888180681C
:10332000888388818F7D888319BC1092EF01109269
:10333000F0011092EE011092ED0190EEE92EF12CC9
:10334000F70180818B7F808388818160888342E060
:1033500060E080E00E94CB14F60180818E7F808344
:10336000F801808181608083808188608083F7019B
:1033700080818E7F8083888180618883CDB7DEB72E
:10338000E8E00C94FD311F920F920FB60F921124BA
:103390002F933F934F935F936F937F938F939F935D
:1033A000AF93BF93EF93FF938091E10082FF09C039
:1033B0008091E20082FF05C08091E1008B7F8093C5
:1033C000E1008091DA0080FF2AC08091D80080FF60
:1033D00026C08091DA008E7F8093DA008091D90038
:1033E00080FF18C080E189BD82E189BD09B400FE7B
:1033F000FDCF81E08093EF018091E20181110FC048
:103400000E9449190E9468198091E20084608093AB
:10341000E20005C019BC1092EF011092E201809108
:10342000E10080FF17C08091E20080FF13C080910F
:10343000E2008E7F8093E2008091E20080618093C1
:10344000E2008091D80080628093D80019BC85E0AA
:103450008093EF018091E10084FF30C08091E20011
:1034600084FF2CC080E189BD82E189BD09B400FEE2
:10347000FDCF8091D8008F7D8093D8008091E100AE
:103480008F7E8093E1008091E2008F7E8093E20046
:103490008091E20081608093E2008091F0018823B6
:1034A00011F084E007C08091E30087FD02C081E055
:1034B00001C083E08093EF018091EF018091E100F2
:1034C00083FF27C08091E20083FF23C08091E10049
:1034D000877F8093E10082E08093EF011092F001FA
:1034E0008091E1008E7F8093E1008091E2008E7FE9
:1034F0008093E2008091E20080618093E20042E0EC
:1035000060E080E00E94CB148091F000886080939E
:10351000F000FF91EF91BF91AF919F918F917F91BB
:103520006F915F914F913F912F910F900FBE0F9030
:103530001F9018952091E4003091E50095E64091A8
:10354000EC00842F817040FF23C08091E80080FD53
:103550001DC08091EF01882399F0853099F080910A
:10356000EB0085FD11C04091E4005091E500241767
:10357000350729F3915011F09A01E1CF84E00895C5
:1035800082E0089583E0089581E0089580E0089541
:103590004091E80042FFDDCF08958091E401089555
:1035A000A0E0B0E0E6EDFAE10C94DC31FC018280B1
:1035B000748081E08483E2E7F9E09490E1EFF9E040
:1035C000E491009152040695015810E0000F111F7C
:1035D000012F1127C7E2D4E02FE0C22E24E0D22E23
:1035E000AA24AA94B12CE919EE2EF12C22E0281578
:1035F00030F0809150048883809151048983711048
:1036000003C01B821A824AC08B818823F9F0815043
:103610008B832FEF829FC00111246C8170E00E9488
:10362000C331FB01FF27EE58F64F8491E82FE919CB
:103630002FEFE29FC0011124B7010E94C331809196
:103640005204689FB00111247A8328C00E945A3224
:10365000B5010E942A338017910704F582E088158E
:1036600088F40E945A32B5010E942A3388830E944E
:103670005A32209151042695622F70E00E942A331D
:10368000280F29831A8280915204843120F0893CCA
:1036900018F088EC01C084E18C838B8396014A8109
:1036A000698188810E944B2B259623E0C20ED11C94
:1036B00084E0CF34D80709F099CF0E94A02ACDB773
:1036C000DEB7EDE00C94F831EF92FF920F931F9369
:1036D000CF93DF938C01CFE0D4E0E12CF12CF80103
:1036E0008481F4E0EF16F1041CF4882339F002C061
:1036F000811104C09E014091520402C09E0140E02D
:1037000060915104809150040E944B2B8FEFE81A76
:10371000F80A239698E0E916F10409F70E94A02A16
:10372000F801848190E00196817099278483CDB758
:10373000DEB7E6E00C94FF31A0E0B0E0E2EAFBE1A6
:103740000C94DD31EC014C81042F10E09801D8017C
:103750000E940F339B01AC010E94DA326B017C01A5
:10376000E0E2F0E0E01BF10BA5E5B0E09B01AC016D
:103770000E94DA324B015C019F01DF010E944B3352
:103780009B01AC010E94E5329B01AC012C0D3D1D5B
:103790004E1D5F1DC501B4010E94ED32822FF22E35
:1037A00099E2921728F093E0299F900111240DC00F
:1037B00025E530E0281B3109C901880F991F280F22
:1037C000391F37FF02C02F5F3F4F35952795122FC6
:1037D00010959FE0C92E94E0D92E00E085E5E82EF3
:1037E000EF1801FD02C08E2D01C08F2D9601412FD3
:1037F000609151040E944B2B0F5F83E0C80ED11CD7
:10380000083079F70E94A02A8C81811102C091E0D2
:1038100003C0803219F49FEF90930F0190910F0134
:10382000890F8C83CDB7DEB7ECE00C94F9310F93A0
:103830001F93CF93DF93CFE0D4E0FE01118210827B
:103840001282339684E0E732F807C1F700E010E017
:1038500080910D04082E000C990B0817190794F09D
:1038600080910E01082E000C990B8017910754F0DF
:103870009E014091520460915104809150040E9435
:103880004B2B03C0198218821A820F5F1F4F239699
:1038900008301105E9F60E94A02A80910D0190914F
:1038A0000D04980F90930D0420910E01280F209382
:1038B0000E01121614F497301CF0819580930D01BF
:1038C000DF91CF911F910F910895A0E0B0E0EBE65A
:1038D000FCE10C94E131FC01828180FF03C0DD2416
:1038E000DA9402C0DD24D394CFE0D4E000E010E00D
:1038F000198218821A8294E0E92EF12CC12C809151
:103900000C048C0D893014F0877002C087FD885F2D
:10391000082E000C990B0817190791F48091520496
:103920008E9DA0018F9D500D11245595479555955D
:1039300047959E0160915104809150040E944B2B49
:10394000CD0CF1E0EF1AF108D1F60F5F1F4F23966F
:103950000830110569F60E94A02A80910C0491E0BC
:10396000D91206C0811102C087E006C0815004C090
:1039700090E001968770992780930C04CDB7DEB74D
:10398000E8E00C94FD31A3E0B0E0E9ECFCE10C943C
:10399000E5318C0180910E0481110AC09E012F5FD8
:1039A0003F4F4FEF6FEF0E944B2B8A8180930E04A5
:1039B000F8018481813051F028F0823061F4409127
:1039C0000E040AC080910E0440E007C060910E040E
:1039D00040E080E003C040E080E060E00E94D62A42
:1039E000F801848190E0019663E070E00E942A3340
:1039F00084832396E4E00C9401320F931F93CF93BA
:103A0000DF938B01EA019091EF01943079F58F708B
:103A10008093E9008FEF9091E800815095FD06C0FA
:103A200095ED9A95F1F700008111F5CF8091E800AE
:103A300085FF1CC00E949A1A882361F08091E800DB
:103A40008E778093E80012C0F80181918F018093F6
:103A5000F1002197209791F38091E80085FDF4CF44
:103A60008091E8008E778093E800E4CFDF91CF91DA
:103A70001F910F910895CF93DF93EC0148E050E040
:103A8000BC0181E00E94FD1C88E0FE01A5EEB1E0D2
:103A900001900D928A95E1F7DF91CF91089587E724
:103AA00097E790930108809300089AE088E10FB6A9
:103AB000F894A895809360000FBE90936000FFCFAC
:103AC00078941F920F920FB60F9211248F939F93A9
:103AD000AF93BF938091860490918704A09188044E
:103AE000B09189040196A11DB11D80938604909325
:103AF0008704A0938804B0938904BF91AF919F91EC
:103B00008F910F900FBE0F901F9018959C014FB78B
:103B1000F8948091860490918704A0918804B091D4
:103B200089044FBF821B930B08952FB7F8946091BF
:103B300086047091870480918804909189042FBF36
:103B400008952FB7F8948091860490918704A091EE
:103B50008804B09189042FBF08951F920F920FB669
:103B60000F9211248F939F93AF93BF9380918504FD
:103B7000811113C08091860490918704A0918804DC
:103B8000B09189044196A11DB11D80938604909344
:103B90008704A0938804B0938904BF91AF919F914B
:103BA0008F910F900FBE0F901F9018959C012A5F68
:103BB0003F4FFC014281461301C0128201968217D9
:103BC0009307B9F708959C01FC0132969FEF80E0BE
:103BD0004191461789F09F3F19F4411101C0982F78
:103BE0008F5F8630A9F79F3F39F0F901E90FF11D8A
:103BF00097FDFA95628308950895A3E0B0E0E3E0AD
:103C0000FEE10C94E731209183043091840428175D
:103C10003907A1F09093840480938304E091810498
:103C2000F0918204309751F024E029839B838A83AA
:103C30000680F781E02DCE01019609952396E2E0FA
:103C40000C940332A3E0B0E0E8E2FEE10C94E7312B
:103C500020917F043091800428173907A1F09093B8
:103C6000800480937F04E0918104F0918204309776
:103C700051F023E029839B838A830680F781E02D1E
:103C8000CE01019609952396E2E00C940332E0916F
:103C90008104F0918204309729F00190F081E02DA9
:103CA0000995089580E00895A0E0B0E0EAE5FEE11E
:103CB0000C94DF317C015B01C42FD22FFC01828187
:103CC0008823B1F040937E040E94A11D90937D044F
:103CD00080937C0480E28C0F883008F052C0C7705B
:103CE00081E001C0880FCA95EAF70E94562549C0B5
:103CF00080917E04481335C080917C0490917D04AE
:103D00000E94861D6C01B701C5010E94E32FC816F1
:103D1000D90638F510E21D0FCD17B9F080E28C0FEF
:103D2000883040F4C77081E001C0880FCA95EAF777
:103D30000E944F25183010F581E09D2F977001C02B
:103D4000880F9A95EAF70E945625802F0E946926CF
:103D50001830B8F4D77081E001C0880FDA95EAF71F
:103D60000AC080E28C0F883060F4C77081E001C027
:103D7000880FCA95EAF70E944F2503C0802F0E9442
:103D80006926CDB7DEB7EAE00C94FB31CF93DF9321
:103D9000CEE8D1E060E0CE010E9487322196C115C5
:103DA00084E0D807B9F7DF91CF9108951F93CF939F
:103DB000DF93962F8630E8F46630D8F44530C8F4A7
:103DC000632F122FC42FD0E0CC0FDD1F2AE0929F6B
:103DD000C00DD11D11249CE3899FC00DD11D11245C
:103DE000CE0186960E948732612FCE0187960E946F
:103DF0008732DF91CF911F910895A0E0B0E0E3E01A
:103E0000FFE10C94DF31A12CE12CF12CB12C00E06E
:103E100010E0C0E0D0E06701C00ED11EFE01EE0F41
:103E2000FF1FEC0DFD1DEA5DF44F259134914C2FE1
:103E30006B2D8A2D0E94D61E2196C530D10571F7B3
:103E4000065F1F4FB39486E0B812E3CF8CE3E80E11
:103E5000F11CA39486E0A812D9CFCDB7DEB7EAE073
:103E60000C94FB310F931F93CF93DF93863008F5AB
:103E70006630F8F44530E8F4C42FD0E0CC0FDD1FF5
:103E80002AE0629FC00DD11D11243CE3839FC00D29
:103E9000D11D1124CE0186960E94733290E0182F16
:103EA0000027CE0187960E9473329801282BC90102
:103EB00002C080E090E0DF91CF911F910F910895B3
:103EC000A0E0B0E0E6E6FFE10C94E231E82FF0E09C
:103ED000EA55F54FD490282F26952695269530E063
:103EE000F901EA56F54F0491877010E0082E02C0E0
:103EF000159507950A94E2F701701127F901EA5721
:103F0000F54FE490F12C082E02C0F594E7940A9442
:103F1000E2F791E0E922FF24F901EA58F54FC49154
:103F2000D0E002C0D595C7958A95E2F7C170DD272C
:103F30000115110519F081EE0E94C425E114F10468
:103F400019F086EE0E94C4258D2D0E946926E11489
:103F5000F10419F086EE0E9460250115110519F093
:103F600081EE0E946025CD2B19F08CE20E9469261B
:103F7000CDB7DEB7E7E00C94FE3180917B049091E1
:103F80007A04882389F0992369F062E070E084E77D
:103F90009AE00E946C15892B19F080917A0408959B
:103FA00010927A0490917A0481E089270895809193
:103FB0007B048823F9F00E94951DDC01CB01805A17
:103FC0009541AF4FBF4F8093760490937704A093B1
:103FD0007804B093790480917A0481110BC062E077
:103FE00070E082E79AE00E946C15892B19F481E059
:103FF00080937A0480917A040895CF93E82F2091DA
:104000000A0430910B042450324040910102642F85
:1040100070E0C9010E94C331481B842FEE2351F088
:1040200066E00E941E33C82FC150A8F080E20E94B3
:104030009315FACFA901480F511D4115524018F0B0
:1040400080E020E030E0280F311D2C5F3D4F3093A1
:104050000B0420930A04CF9108952091010236E0C9
:10406000839FC0011124629F800D911D1124811531
:1040700022E0920714F080E090E08C5F9D4F9093D7
:104080000B0480930A040895A0E0B0E0EAE4F0E2B3
:104090000C94D9318091020290910302892B09F48A
:1040A000E3C080917B04882309F4DEC0809175040D
:1040B0008111DAC00E94D71F2091020230910302C1
:1040C0002115310509F4D0C080E041E050E0082F0F
:1040D00010E02A01082E02C0440C551C0A94E2F795
:1040E000B20162237323672B11F48F5FF0CF90919D
:1040F0007404980165E0220F331F6A95E1F790FF81
:1041000013C055E0369527955A95E1F7220F220FF7
:10411000220F2093120110921501295F20931301A1
:1041200083E08093160111C08295880F807680937A
:104130001201220F232F221F330B319520931501DB
:10414000815E809313011092160124E630E047E06F
:1041500050E060E171E088E70E947731892B09F037
:1041600083C08091740480FF60C080E2E4E5F4E0E5
:10417000DF011D928A95E9F7680135E0CC0CDD1C62
:104180003A95E1F7A4E5B1E040E551E008E511E03A
:10419000772473948D91EA019991AE01B601690F6C
:1041A000711D6C5F7D4F90E08C5A9B4FFC0127E0A6
:1041B000A22E9F01281B390B872C01C0880C2A9541
:1041C000EAF77B01912CE701B9907E01B8202A2DF6
:1041D00029192770622E022E000C330BDB2D01C033
:1041E000DD0F6A94EAF76D2E31952195310927701C
:1041F000332701C0B6942A95EAF7BD2A2081B22A56
:10420000B082939428E09212DECFAA943196CFEF39
:10421000AC12CFCF0A171B0709F0BCCF04E610E0A1
:1042200020E230E044E554E00CC0A80185E0440FF2
:10423000551F8A95E1F74C5F5D4F04E610E020E2E0
:1042400030E060E488E70E949831892B69F4E2014C
:10425000C095D0958091020290910302C823D92382
:10426000D0930302C0930202CDB7DEB7E0E10C9415
:10427000F531E4E0F2E080E092E0DF019C011D9284
:1042800021503040E1F7F0930B04E0930A048FEFE4
:104290009FEF9093030280930202089585E290E0DD
:1042A0000E9487320895CF93C82F811102C06FEF0B
:1042B00001C062E282E290E00E948732C11102C036
:1042C0006FEF01C065E083E290E00E948732C11188
:1042D00002C06FEF01C069E084E290E00E94873283
:1042E000CF91089580E00E94532160E070E0CB01FF
:1042F0000E944E210E94FD1E0E94C61E81E00E9467
:104300005321089582E290E00E947332823281F458
:1043100083E290E00E947332853051F484E290E0B1
:104320000E94733291E0893009F090E0892F01C03A
:1043300080E08170089590914F0490FF04C096959D
:10434000981748F003C0811106C090E0961718F442
:104350000E94AF2D089561E00E94602D089588238A
:1043600011F0FA0101C0FB0109950895A0E0B0E049
:10437000ECEBF1E20C94E0318091A30482958F7014
:1043800009F056C08091A004882309F451C0C0915F
:10439000D50486E0B82E8091A404C81709F448C05B
:1043A000F0909E04E0909F04C090A104D090A204DD
:1043B000A6016E2D8F2D0E94B429D0E08823A9F18B
:1043C000BC9E8001BD9E100D1124F801EB55FB4FE2
:1043D00081818E112AC080818F1127C08281811135
:1043E00024C0E380F480EC18FD0860E08EE994E0DE
:1043F0000E94C22E6EE974E00E94E32FE816F906CF
:10440000A0F48091A3048F7080618093A304F801CD
:10441000E655FB4F80818F70806180838EE994E048
:104420000E94500E0E94C42903C02196C770B3CFCA
:10443000CDB7DEB7E9E00C94FC31CF92DF92FF926A
:104440000F931F93CF93DF936C010091D90180915B
:10445000E204082BC5E0D0E010E0C8010C2E02C039
:10446000959587950A94E2F780FD04C02197A8F7F7
:10447000F12C09C0FC2EB6018C2F0E947E270E94D1
:104480008C27019799F38F2DDF91CF911F910F9179
:10449000FF90DF90CF900895CF93DF93EC010E94BF
:1044A0001D22BE010E947E270E948C27DF91CF91A2
:1044B0000895CF93FC018081918123813481232B46
:1044C00031F09F3F31F491E08F3F19F403C091E048
:1044D00001C090E0C92FC17090FD1CC08081918106
:1044E0000E944C2292959F70963079F010F4925071
:1044F00001C09A50923088F4803F71F018F4883EE1
:1045000060F40AC0843F49F407C0883E28F0813F28
:1045100021F402C0C0E001C0C1E08C2FCF9108950A
:10452000A1E1B0E0E6E9F2E20C94D9318C0185E03A
:10453000F801DE011D9601900D928A95E1F7F801D0
:10454000E2808EE9A82E84E0B82E8090A10490909D
:10455000A204A40160919F0480919E040E94B4294A
:10456000482E882309F496C1F801C380D480F090C6
:10457000A004C601881999094C01FF2009F422C141
:104580005080618060E0C5010E94C22EB5010E948A
:10459000E32F7090A3048816990608F0DFC04091BD
:1045A000A1045091A204B0909E04A0909F04872D76
:1045B000807F6A2D09F07EC08B2D0E94B42988234C
:1045C000C1F0F80181818A1114C080818B1111C062
:1045D000FE2CE1100EC0872D8F7080618093A304A4
:1045E0008EE994E00E94500E8091A304F801858327
:1045F0006BC1A601662D852D0E94B429F82E882353
:1046000019F081E08E2502C080E090E080FF05C0B7
:104610004E2D662D852D0E949429FF2019F081E0F2
:104620008E2502C080E090E0F82FF170DF2E80FF31
:1046300037C04E2D662D852D0E949429F82E8111AC
:104640002FC05D866E868D859E850E944C22292F07
:1046500022952F70243020F49F70223028F009C05A
:104660002A50223088F017C0992351F0811108C0D8
:104670002BC1992329F0F8019581907F09F424C179
:10468000805E883040F420C1803F08F41DC1815F06
:10469000833008F419C1C8010E94500EFD2C14C1CA
:1046A000FE2CEE2009F410C18091A3048160809358
:1046B000A30460C08B2D0E94B429F82E882359F0E2
:1046C000F80181818A1107C080818B1104C0E1103B
:1046D00002C07582BEC0C8010E9459228823C1F160
:1046E000EE20B1F12091A304822F82958F7090E08B
:1046F000029774F080919E0490919F0498878F8315
:104700001986DB86CA862C87CE0107960E94500E3A
:1047100086E0F801AEE9B4E001900D928A95E1F7E8
:104720000E94B621F42CD0C090909E0480909F04EB
:104730004091A1045091A204682D892D0E94B429B2
:10474000F82E811119C0C8010E945922811122C07E
:10475000C8010E94500EFF24F394B6C0872D807FBD
:1047600019F78EE994E00E94500E86E0F50111924F
:104770008A95E9F7F12CA8C0F80181818811E3CF6F
:1047800080818911E0CFE110DECF7582C8010E94DF
:10479000500E7AC0EE20E1F22091A304822F829580
:1047A0008F7090E002970CF4B3CF80919E049091AB
:1047B0009F049A8389831B82DD82CC822E83CE0163
:1047C0000196A4CF60E08EE994E00E94C22E6EE9CB
:1047D00074E00E94E32F8816990608F055C0EE2079
:1047E00009F4B6CF90909E0480909F04A090A104FD
:1047F000B090A204A501682D892D0E94B429F82E3D
:10480000882399F1F801818188112FC08081891155
:104810002CC0CA18DB08F4EBCF16D104E8F4809161
:10482000A30480FD19C082958F70482F50E0411578
:10483000510591F02091A304F80125834F305105D3
:1048400041F08F5F982F9295907F822F8F70892BE8
:104850008583C8010E94500E86E0F801AEE9B4E0FD
:1048600001900D928A95E1F72FC0C8010E9459224C
:1048700081114ECF8091A30481608093A304C8016D
:104880000E94500EFE2C20C086E0F50111928A9500
:10489000E9F71AC0EE2009F45BCFC8010E94592243
:1048A000F82E882309F454CF86E0F801AEE9B4E08D
:1048B00001900D928A95E1F780919E0490919F045A
:1048C0000E944C220E94B6218F2D6196E0E10C944B
:1048D000F531292F963078F5853068F590E035E090
:1048E000239F800D911D1124682F677023E09695FA
:1048F00087952A95E1F7FC01EE0FFF1FE80FF91FDE
:10490000E657FB4F40E050E080E0219130E0062E7A
:1049100002C0369527950A94E2F721703327042EBA
:1049200001C0220F0A94EAF7822B4F5F5F4F43309A
:10493000510559F7089580E00895292F963088F59C
:10494000853078F590E035E0239F800D911D11248E
:10495000282F277051E001C0550F2A95EAF723E070
:10496000969587952A95E1F7FC01EE0FFF1FE80F5A
:10497000F91FE657FB4F20E030E070E04081CB01AB
:10498000022E02C0969587950A94E2F78170819570
:1049900084278523842781932F5F3F4F2330310560
:1049A00069F708958093D90108959091D90121E084
:1049B00030E0F90101C0EE0F8A95EAF7D90102C093
:1049C000AA0FBB1F6A95E2F7BD016E2B01C0220F33
:1049D0004A95EAF7892F8623681303C0892F822B13
:1049E00003C02095822F89230E94D224089521E0BC
:1049F00030E001C0220F8A95EAF720958091D90115
:104A000082230E94D224089521E030E001C0220FC9
:104A10008A95EAF78091D901822B0E94D2240895C9
:104A20008093E2040895CF931092E004C6E0E8E991
:104A3000F4E0DF018C2F1D928A95E9F780E090E089
:104A40000E94221E80E090E00E94FD1D1092DF0473
:104A50000E942429EFEEF4E0DF011D92CA95E9F7E8
:104A60001092E8041092E9041092EA040E94BA2D10
:104A7000CF910895882341F080959091DF04892398
:104A80008093DF040E9424290895882339F09091AF
:104A9000DF04892B8093DF040E9424290895882352
:104AA00021F00E941D290E9424290895882339F0AD
:104AB0009091E004892B8093E0040E9424290895BA
:104AC000882309F460C0823869F40E94471E81FF80
:104AD0005AC069E386E994E00E94E31D0E942429FC
:104AE00069E30EC0833899F40E94471E80FF4BC0D3
:104AF00063E586E994E00E94E31D0E94242963E5B2
:104B000086E994E00E94D61D0E94242908958438E5
:104B100069F40E94471E82FF36C067E486E994E08C
:104B20000E94E31D0E94242967E4EACF9CEF980FBE
:104B3000913A10F4682FE4CF90E2980F983050F437
:104B4000877091E001C0990F8A95EAF7892F0E943A
:104B50001D29DACF9BE5980F933028F480E090E090
:104B60000E94221E089598E5980F9B3128F480E05A
:104B700090E00E94FD1D089593E3980F933118F47F
:104B800060E00E94F72F0895CF93882309F49FC017
:104B9000C82F8238B1F40E94471E81FD98C069E396
:104BA00086E994E00E94E31D0E9424292FEF87EEFE
:104BB00093E0215080409040E1F700C0000069E39D
:104BC00017C08338E1F40E94471E80FD80C063E572
:104BD00086E994E00E94E31D0E9424292FEF81EED4
:104BE00094E0215080409040E1F700C0000063E570
:104BF00086E994E00E94D61D0E94242968C084386A
:104C0000B1F40E94471E82FD62C067E486E994E029
:104C10000E94E31D0E9424292FEF81EE94E0215091
:104C200080409040E1F700C0000067E4E1CF8CEFE6
:104C30008C0F813A80F4E8E9F4E08EE994E0219168
:104C4000C217E9F18E179F07D1F76C2F86E994E020
:104C50000E94E31DD1CF80E28C0F883068F4C770CA
:104C600081E090E001C0880FCA95EAF79091E004D6
:104C7000892B8093E004C0CFEBE5EC0FE33040F4E8
:104C8000F0E0E85AFE4F808190E00E94221E1FC093
:104C9000E8E5EC0FEB3150F4F0E0EE0FFF1FE55AC2
:104CA000FE4F808191810E94FD1D11C083E38C0F16
:104CB000833168F461E08C2F0E94F72F08C06C2FBD
:104CC00086E994E00E94D61D0E942429BECFCF9190
:104CD00008951F93CF93DF93182F893319F0CAE0FB
:104CE000D0E002C0C0E5D0E0812F0E94C4258FE94A
:104CF0009FE00197F1F700C000002197C1F7812FD5
:104D00000E946025DF91CF911F91089580E0089562
:104D10009091D70192FF0DC0282F2871283019F4E7
:104D2000877F846006C0282F2471243011F48B7F84
:104D3000886093FF0DC0282F2871283119F4877ED1
:104D4000846106C0282F2471243111F48B7E886180
:104D50002091D80120FF0DC0382F3871383019F458
:104D6000877F816006C0382F3171313011F48E7F1A
:104D7000886021FF0DC0282F2871283119F4877E03
:104D8000816106C0282F2171213111F48E7E886146
:104D900094FD877E08958238910569F1B0F48133DE
:104DA000910509F475C048F48932910509F467C08A
:104DB0008A32910509F471C008958533910509F48B
:104DC00059C089339105B9F00895833E910589F161
:104DD00038F4803E9105D1F0823E910529F1089585
:104DE000863E9105C9F1873E9105D9F1843E910532
:104DF00009F06CC027C02091D70120FD57C021FDCC
:104E000055C02091D80123FD5BC008958091D70142
:104E100080FD48C08091D80180FF48C08091D701B3
:104E200084FD46C083EE51C08091D70182FF3CC013
:104E3000F5CF8091D70182FD37C08091D80180FDE8
:104E400035C0ECCF8091D80181FF36C08091D70169
:104E500084FD2EC087EE39C08091D70183FF2AC020
:104E6000F5CF8091D70183FD25C08091D80181FDC8
:104E700023C0ECCF8091D70185FD22C01FC0809157
:104E8000D70185FD1BC08091D80183FF19C00AC0DE
:104E90008091D70186FD16C017C08091D70186FD8D
:104EA00013C010C089E311C082EE0FC080EE0DC0A8
:104EB00080E00BC086EE09C084EE07C085E305C024
:104EC00089E203C08AE201C081E390E00895F8948A
:104ED000E82FE295EF70F0E031A1282F2F7081E0EC
:104EE00090E001C0880F2A95EAF7982F90959323B8
:104EF00091A392A1892B82A378940895763048F4E7
:104F0000653038F4863028F4462F672F0E94321F10
:104F1000089580E090E008951F93CF93DF930E945F
:104F2000CB26EC01C11580E5D807E8F5C11590E462
:104F3000D90708F0A8C0C03ED10530F5CD3CD10559
:104F400008F094C0C83AD10578F4C53AD10508F004
:104F500083C0C130D10509F47CC008F4F2C0C4306C
:104F6000D10508F0F1C0EDC0C33CD10508F0E9C09F
:104F7000C85AD0E0CC0FDD1FC55ADE4F0990D8814A
:104F8000C02DCE019464E1C0C11580E2D80708F0BD
:104F9000CBC0C11591E0D90708F06BC0C83ED10560
:104FA00008F4D2C0CEC0C03682E5D80728F5C03498
:104FB00092E5D90708F079C0C03282E5D80708F039
:104FC0006CC0C11592E5D90708F481C04C2F4695F5
:104FD000469580E2489FA0011124C37021E030E093
:104FE000C90102C0880F991FCA95E2F7EA01C82BD0
:104FF000D92BCE019D68A9C0C03A82E5D807B8F484
:105000008C2F8F71C03892E5D90708F07BC0869548
:10501000869590E2899F90011124C37081E090E011
:1050200002C0880F991FCA95E2F79A6868C0C03C11
:1050300082E5D80708F46DC0C03E92E5D90708F0B4
:1050400080C0CF71DD27DC2FCC27CE01806F906A26
:105050007CC081E090E079C0C55AD0E0C85ADE4FEC
:105060008881C82FD0E0CE0190646FC0CE019065DA
:105070006CC08D2F0E948826182FCE0199270E9480
:10508000CB261F715CC0CE0199270E94CB26CC276E
:10509000DF70D06A8C2B9D2B58C0CF71D0E0DC2FF5
:1050A000CC27CE01816F906A50C08C2F8F7186956E
:1050B000869590E2899F90011124C37081E090E071
:1050C00002C0880F991FCA95E2F79C6818C08C2F00
:1050D0008F710E94882695E0D695C7959A95E1F73D
:1050E000CF70D0E0DC2FCC27282F30E084FF05C024
:1050F00084E0220F331F8A95E1F7D069CE01822B1D
:10510000932B23C090E0D82FCC27CE01846F906AD8
:105110001CC08C2F8F710E9488268F7190E0D82F31
:10512000CC27CE01906211C08D2F8F710E948826EE
:10513000182FCE0199270E94CB261F719062912BC8
:1051400004C080E090E001C0CE01DF91CF911F91BB
:10515000089580E090E00E948132873E9E4F19F4CE
:105160000E948221089580E0089567EE7EEF80E03E
:1051700090E00E94A53260E082E090E00E948732D9
:1051800060E083E090E00E9487321092E20460E0E9
:1051900074E184E090E00E94A53260E086E090E057
:1051A0000E9487326FEF87E090E00E94873240E0F4
:1051B00050E0BA0188E090E00E94993260E08DE012
:1051C00090E00E94873240E050E0BA0188E190E030
:1051D0000E94993260E087E190E00E94873240E0CF
:1051E00050E0BA018CE190E00E94993260E070E0FA
:1051F00080E290E00E94A53240E050E0BA0188E1F0
:1052000090E00E94993280E00E9453210E94722116
:1052100040E050E0BA018FE090E00E94993240E017
:1052200050E0BA0183E190E00E94993208958091A4
:10523000E10481111092E104089580959091E004B9
:1052400089238093E00408959091E0048091DF0425
:10525000982B909396048091E104882389F0892B00
:1052600080939604E8E9F4E097E080E0915029F01B
:1052700021912223D9F38F5FF9CF81110E94172941
:1052800048E050E067ED74E086E994E00E946733FF
:10529000892BA9F088E0E6E9F4E0A7EDB4E00190FD
:1052A0000D928A95E1F7E0918104F09182043097A4
:1052B00031F00280F381E02D86E994E009950895AC
:1052C0002091D604809582238093D604982F9770DE
:1052D00099F430E0482F082E000C550B24173507A1
:1052E00059F09091D80192FF07C0859585958595D5
:1052F0000E94F7241092D60408959091D80192FB51
:10530000222720F9281779F080FB92F99093D80191
:105310006091D7017091D80184E090E00E94A5329D
:1053200082E00E94602908952091D5049091A40400
:1053300056E02917A9F030E0529FF001539FF00D7D
:105340001124EB55FB4F7181761306C070817813E1
:1053500003C07281741306C02F5F3F4F2770E9CFDF
:1053600080E0089581E00895452B41F06F3F41F4BE
:1053700091E08F3F09F090E0892F03C081E001C0E8
:1053800080E08095817008958091D5049091A40467
:10539000891719F08F5F8770FBCF0895A5E0B0E003
:1053A000E4EDF9E20C94E5310E94A11D8C0180919D
:1053B000E3049091E40408171907A1F08FEF8983A3
:1053C0008A831B820E94A11D8160782F9D838C831C
:1053D00049815A816B818D810E94112E1093E404C2
:1053E0000093E3042596E4E00C940132A6E0B0E0DB
:1053F000ECEFF9E20C94DE31AE014F5F5F4F7A01C2
:1054000086E0FA0111928A95E9F702E211E06A0159
:10541000AA24A394B12CF80180818F3F09F441C0E4
:10542000F894E82FE295EF70F0E021A18F70A501CC
:1054300002C0440F551F8A95E2F7CA01922F982B9C
:1054400091A392A18095892382A3789400C0E8E279
:10545000F1E0912C31E021912F3F89F0A22FA2950C
:10546000AF70B0E090968C9190E02F7002C095954F
:1054700087952A95E2F780FD02C0832F01C080E066
:10548000982A330F51E0ED32F50729F7F8018081B2
:105490008F3F11F00E946727F0EAFA95F1F7F601C5
:1054A00090820F5F1F4FFFEFCF1ADF0A41E00832F3
:1054B000140709F0B0CF46E050E0B7018EEB91E061
:1054C0000E946733892B89F086E0F701AEEBB1E0EB
:1054D00001900D928A95E1F781E08093E7040E94A4
:1054E000A11D9093E6048093E5048091E704811167
:1054F00002C080E020C08091E5049091E6040E9403
:10550000861D0597B0F346E050E06EEB71E08BED41
:1055100091E00E946733892B59F086E0EEEBF1E0D1
:10552000ABEDB1E001900D928A95E1F781E001C009
:1055300080E01092E7042696EBE00C94FA3108958F
:1055400080914F0480FF0AC0849A81B38F7E91B30B
:1055500090612FB7F894EFE0F4E00BC0EFE0F4E0D7
:10556000118210821282339634E0E732F307C1F7DA
:10557000EBCF34E0E732F30789F0319148E091BB9B
:10558000000000C037FF81BB330F000000C000C027
:1055900000C081BB00C04A9591F7EBCF2FBF8FE5CC
:1055A00094E00197F1F700C00000089590914F0436
:1055B00090FF0CC0EFE0F4E0818360834283339678
:1055C00094E0E732F907C1F70E94A02A0895EFE4BA
:1055D000F4E080818E7F80831092FC040E94A02AD8
:1055E000089580914F04282F269530E0211531052C
:1055F00019F48170826005C02B32310524F081706E
:10560000846580934F040895CF92DF92EF92FF92CA
:105610006B017C010E94F12AB701A60188E090E0AD
:105620000E949932FF90EF90DF90CF900895809183
:105630005304882319F081508093530460914F04E0
:105640007091500480915104909152040E94042B57
:10565000089580915304833018F48F5F809353042E
:1056600060914F04709150048091510490915204C4
:105670000E94042B0895EFE4F4E083E0808311821C
:105680008FEF828383831482608171818281938111
:105690000E94042B0895A0E0B0E0E1E5FBE20C9449
:1056A000DF31E82EF62EE901E42FF0E0611106C0AB
:1056B000E257F34FE4914E2F2E2F71C0062F10E0CA
:1056C000E257F34F4491F42FC42ED12C26E0829F51
:1056D000C00111242FEF30E0B9010E94C3315BEA11
:1056E0005603C001579F900D11248E0D911D8E0DF4
:1056F000911D582F550F580FD901A01BB10BAC9D10
:10570000C001AD9D900DBC9D900D1124E92FF59E1B
:10571000D0011124AB2FBB277901EA1AFB0AEC9CBC
:10572000D001ED9CB00DFC9CB00D11245901A51ABF
:10573000B108A09E7001A19EF00CB09EF00C112447
:10574000EF2CFF242E193F092C9D80012D9D100D5B
:105750003C9D100D1124212F6230710591F048F409
:1057600061157105E1F061307105B9F4242F4B2FFB
:1057700016C06430710569F040F06630710579F04B
:105780000CC0242F492FE12F0AC0492FEF2F2B2FB8
:1057900006C0292FE42F412F02C0292FEB2F498368
:1057A0002883EA83CDB7DEB7EAE00C94FB31A3E0AF
:1057B000B0E0EDEDFBE20C94E73190914F0490FFE7
:1057C0000AC09E012F5F3F4F0E944B2B4B81698186
:1057D0008A810E94D62A2396E2E00C940332CF936A
:1057E000DF93EC01EFE4F4E0438162818C810E945D
:1057F000D72B8C818F5F8C83DF91CF910895CF93CE
:10580000DF93EC01EC81F0E0EE58F64F4491EFE4C9
:10581000F4E0628181810E94D72B8C818F5F8C8321
:10582000DF91CF910895EF92FF921F93CF93DF9373
:10583000EC018FE0E82E84E0F82E10E08C819701D7
:105840004091520460915104810F0E944B2B115ED4
:1058500083E0E80EF11C183F89F70E94A02A9A8184
:105860008C8190FF02C08F5F01C081508C83DF91DB
:10587000CF911F91FF90EF900895A3E0B0E0E3E493
:10588000FCE20C94DC31F82EB62EE42EA22E909180
:105890004F0490FF67C0E92FE695AE2FB0E0AF56FA
:1058A000BE4F8C918093FB049E7F923061F49E01E9
:1058B0002F5F3F4F8F2D0E944B2B4B8169818A8137
:1058C0000E94D62A3DC0823019F4E090520438C0BC
:1058D000863019F4F090500433C08930D9F38931FF
:1058E00079F5E9512E2F2170722EE695F0E0E257FE
:1058F000F24FE4910E2F10E03FE0C32E34E0D32EA0
:10590000812C912CC40123E0969587952A95E1F787
:10591000711002C08F0D03C02F2D281B822F9601FE
:105920004E2D6B2D0E944B2B800E911E83E0C80ED6
:10593000D11C27E2C21624E0D20621F70E94A02A39
:10594000F0925004B0925104E0925204AA2051F017
:1059500060914F04709150048091510490915204D1
:105960000E94042B2396EDE00C94F831EFE4F4E070
:10597000438128E0421B08F440E021E062818181FC
:105980000E943D2C0895EFE4F4E0438128E0420FAB
:1059900008F44FEF21E0628181810E943D2C08953F
:1059A000EFE4F4E0628128E0621B08F460E021E0AB
:1059B000438181810E943D2C0895EFE4F4E06281EF
:1059C00028E0620F08F46FEF21E0438181810E949B
:1059D0003D2C0895EFE4F4E09181282F438162810A
:1059E00088EF890F0E943D2C089581E00E94EA2CE7
:1059F0000895EFE4F4E09181282F4381628188E0EB
:105A0000890F0E943D2C089581E00E94F92C089591
:105A10008091EA0480FD16C081FD16C082FD18C089
:105A20008091E904882391F0883290F428E0829FE5
:105A3000C001112468E270E00E942A33862F672B90
:105A400029F007C082E0089584E0089581E0089578
:105A500088E008958091EA0480FD14C081FD14C09F
:105A600082FD16C08091E804882381F08E3180F495
:105A700020E5829FC00111246EE170E00E942A336C
:105A8000862F089584E1089588E2089588E00895B6
:105A900080E5089560914F04669570E04BE050E01A
:105AA00087E191E00E945A33892B19F481E08093B9
:105AB000FC040E94A11D9093F6048093F5040895C0
:105AC00090914F0490FF36C09170811102C0926096
:105AD00006C08B3210F0946502C0880F982B90930B
