:100000000C94B5050C94D2050C94D2050C94D20531
:100010000C94D2050C94D2050C94D2050C94D20504
:100020000C94D2050C94D2050C940E2E0C94E02E58
:100030000C9439290C94D2050C94D2050C94D20559
:100040000C94D2050C94D2050C94D2050C94D205D4
:100050000C94D2050C94C2290C94D2050C94D205B0
:100060000C94D2050C94D2050C94D2050C94D205B4
:100070000C94D2050C94D2050C94D2050C94D205A4
:100080000C94D2050C94D2050C94D2050C94D20594
:100090000C94D2050C94D2050C94D2050C94D20584
:1000A0000C94D2050C94D2050C94D20584098409D1
:1000B000B009B009130A310A250B250B360AAC0A20
:1000C000BD0ABD0A9C209F20A420AB20B020B520F3
:1000D000BA20BF20C420C920CE20D320D520D820CC
:1000E000DB20DE20E120E420E620E920ED205A2478
:1000F000CC2462242C2430246624332469247424E0
:100100003E24C2244224782446247C24A6244A2463
:100110008024B02450248624902437246D243A244B
:10012000702455248B249C24BC24BE2428245E24C3
:10013000D524F926FF26ED26F32605270B271127C0
:10014000482F6F2F67306F2F6730BB2FDE2F673040
:1001500035304430202020200053435220002020FE
:10016000202000434150200020202020004E554DEB
:10017000200000556E64656600464E203300464EF2
:10018000203200464E20310042617365004C617997
:100190006572008A8B8C8D0DAAABACADAECACBCC90
:1001A000CD0D208E8F9000A900AA00BD00BE0001D9
:1001B0000001000100010001000100010001000137
:1001C000000100010001003E003A003B003C003D00
:1001D000003F00530054005500560040005F00608F
:1001E0000061005700A8005C005D005E0001002176
:1001F0005259005A005B0058002A00620001006357
:1002000000010001000100010001000100010001E6
:100210000001000100010001002478297823780101
:100220000001002278207821780100010028782A36
:100230007827780100010026780100257801000167
:1002400000010001000100010001000100010001A6
:100250000001000100010001000100010001000196
:100260000001000100010001000100010001000186
:100270000001000100010001000100010001000176
:100280000001000100010001000100010001000166
:100290000001000100010001000100010001000156
:1002A0000001000100010001000100010001000146
:1002B000000100010001001E0F0500047F3F1F64C4
:1002C0003214643214783C1E1E140A05222325269B
:1002D00028292A2C2D2F3032333536383A3B3D3EF3
:1002E0004042434547494A4C4E5051535557595A3D
:1002F0005C5E6062646668696B6D6F717375777957
:100300007B7D7F81838587898A8C8E909294969855
:100310009A9C9E9FA1A3A5A7A8AAACAEAFB1B3B467
:10032000B6B8B9BBBCBEBFC1C2C3C5C6C7C9CACBBC
:10033000CCCDCED0D1D2D2D3D4D5D6D7D7D8D9D987
:10034000DADADBDBDBDCDCDCDCDCDDDDDDDDDCDCF0
:10035000DCDCDCDBDBDBDADAD9D9D8D7D7D6D5D40D
:10036000D3D2D2D1D0CECDCCCBCAC9C7C6C5C3C2D9
:10037000C1BFBEBCBBB9B8B6B4B3B1AFAEACAAA82E
:10038000A7A5A3A19F9E9C9A98969492908E8C8AE2
:1003900089878583817F7D7B79777573716F6D6BBD
:1003A0006968666462605E5C5A5957555351504E95
:1003B0004C4A4947454342403E3D3B3A3836353347
:1003C00032302F2D2C2A292826252322FFAA7F55BB
:1003D00040000101010101010101010202020202CA
:1003E00002020202030303030303030304040404DD
:1003F00004040405050505050606060606070707A5
:10040000070708080808090909090A0A0A0B0B0B5B
:100410000C0C0C0D0D0D0E0E0E0F0F0F10101111F8
:10042000111212131314141515161617171818197C
:10043000191A1A1B1B1C1D1D1E1E1F2020212222E3
:10044000232424252626272829292A2B2C2D2D2E26
:100450002F30313232333435363738393A3B3C3D40
:100460003E3F404142434445464748494A4C4D4E31
:100470004F50515354555658595A5B5D5E5F6162F7
:1004800064656668696B6C6D6F7072737577787A86
:100490007B7D7E8082838587888A8C8E8F919395E1
:1004A00096989A9C9EA0A2A3A5A7A9ABADAFB1B305
:1004B000B5B7BABCBEC0C2C4C6C9CBCDCFD1D4D6E5
:1004C000D8DBDDDFE2E4E7E9EBEEF0F3F5F8FAFD87
:1004D000FF00AE00AF00DA0281FFD9F1DB20A4A655
:1004E0002EAF00A0C000A1C800AED580A81FD300C9
:1004F000408D1420000000000000003E5B4F5B3E7A
:10050000003E6B4F6B3E001C3E7C3E1C00183C7E48
:100510003C18001C577D571C001C5E7F5E1C0000B1
:10052000183C180000FFE7C3E7FF0000182418007C
:1005300000FFE7DBE7FF0030483A060E0026297986
:10054000292600407F05050700407F05253F005A0A
:100550003CE73C5A007F3E1C1C0800081C1C3E7FE8
:100560000014227F2214005F5F005F5F0006097F96
:10057000017F00006689956A006060606060009499
:10058000A2FFA2940008047E04080010207E201020
:100590000008082A1C0800081C2A0808001E101061
:1005A0001010000C1E0C1E0C0030383E38300006B7
:1005B0000E3E0E060000000000000000005F00007C
:1005C00000000700070000147F147F1400242A7F16
:1005D0002A12002313086462003649562050000096
:1005E0000807030000001C224100000041221C00FB
:1005F000002A1C7F1C2A0008083E080800008070A2
:1006000030000008080808080000006060000020B2
:1006100010080402003E5149453E0000427F400060
:10062000007249494946002141494D3300181412CE
:100630007F10002745454539003C4A494931004172
:100640002111090700364949493600464949291E02
:1006500000000014000000004034000000000814F6
:100660002241001414141414000041221408000242
:1006700001590906003E415D594E007C1211127C61
:10068000007F49494936003E41414122007F4141B6
:10069000413E007F49494941007F09090901003E67
:1006A00041415173007F0808087F0000417F4100ED
:1006B000002040413F01007F08142241007F40405C
:1006C0004040007F021C027F007F0408107F003E34
:1006D0004141413E007F09090906003E4151215E2A
:1006E000007F091929460026494949320003017F44
:1006F0000103003F4040403F001F2040201F003FBB
:100700004038403F00631408146300030478040376
:10071000006159494D4300007F41414100020408F6
:10072000102000004141417F00040201020400400A
:100730004040404000000307080000205454784027
:10074000007F284444380038444444280038444456
:10075000287E0038545454180000087E09020018FE
:1007600024241C78007F080404780000447D4000A5
:10077000002040403D00007F102844000000417FE1
:100780004000007C04780478007C08040478003879
:1007900044444438007C1824241800182424187C6D
:1007A000007C080404080048545454240004043F06
:1007B0004424003C4040207C001C2040201C003C85
:1007C0004030403C004428102844004C9090907CDD
:1007D000004464544C440000083641000000007797
:1007E0000000000041360800000201020402003C43
:1007F0002623263C00000000E0FEFFFEF8C00000BB
:10080000000000E0FCFFFEF0C0000000000000005F
:1008100000013EE080700E0100000000073CE08017
:100820007807000000000000000000000000000049
:1008300000000000E0FEFFFEF8C00000000000E045
:10084000FCFFFEF00000000000013EE080700E01A1
:1008500000000000073CE080780700000000000076
:100860000000000000000000000000000000000088
:100870000000000000000000000000000000000078
:100880000000000000000000000000000000000068
:100890000000000000000000000000000000000058
:1008A0000000000000000000000000000000000048
:1008B00000000000000000F8FFFF1F071FFFFEF010
:1008C000C0F8FFF707077FFFFFF800C0380C18607B
:1008D00080000000F00C04F41C0000000000008008
:1008E000C0FCE6C3C1C1C3E6FCC08000000000003C
:1008F000000000F8FFF707071FFFFEF0C0F83F8F6A
:100900000F3FFFFFFE80F00C04F41C00000000000D
:1009100000000000000000000000000000000000D7
:1009200000000000000000000000000000000000C7
:1009300000000000000000000000000000000000B7
:1009400000000000000000000000000000000000A7
:100950000000000000000000000000000000000097
:100960000000000000000000000000000000000087
:100970000000000000001F1F1F0700000000031FF1
:100980001F0F010306F800077F3F0EC138070E70E6
:10099000831C601E03C03E01000000000000003FF9
:1009A0007FFFFFF9C0C0F9FFFF7F3F00000000009C
:1009B00000001F1F1F0706F80000733F0FC1380714
:1009C0000F7083077F1F03C03E010000000000007E
:1009D0000000000000000000000000000000000017
:1009E0000000000000000000000000000000000007
:1009F00000000000000000000000000000000000F7
:100A000000000000000000000000000000000000E6
:100A100000000000000000000000000000000000D6
:100A200000000000000000000000000000000000C6
:100A3000000000000012034D007500720070006895
:100A400000500061006400000012034D0065006367
:100A5000006800570069006C00640000000403098E
:100A60000409023B00020100A0FA0904000001038E
:100A70000101000921110100012240000705810345
:100A8000080001090401000103000000092111010F
:100A90000001227B000705820320000112010002F1
:100AA00000000008776D0517010301020001050130
:100AB0000902A10185020901A100050919012908FE
:100AC00015002501950875018102050109300931DC
:100AD0001581257F95027508810609381581257FC6
:100AE000950175088106050C0A38021581257F9548
:100AF0000175088106C0C005010980A1018503199F
:100B0000012AB700150126B700950175108100C0B4
:100B1000050C0901A101850419012AA0021501266D
:100B2000A002950175108100C005010906A101050B
:100B30000719E029E715002501950875018102953F
:100B400001750881010507190029FF150026FF001E
:100B50009506750881000508190129059505750197
:100B60009102950175039101C00011241FBECFEFC2
:100B7000DAE0DEBFCDBF11E0A0E0B1E0E4E9F4E6E9
:100B800002C005900D92A63FB107D9F725E0A6EF68
:100B9000B1E001C01D92A934B207E1F70E94CC1662
:100BA0000C9448320C94000083E00895CF93DF93B7
:100BB0000E94D623D82F882309F456C060E083E929
:100BC00091E00E94892266E080E00E94AA2160E014
:100BD0008DE891E00E949B22809112029091130275
:100BE0000E944907813069F040F0823071F0833013
:100BF00081F460E089E791E00FC060E088E891E06F
:100C00000BC060E083E891E007C060E08EE791E010
:100C100003C060E083E791E00E949B2260E082E7EE
:100C200091E00E949B220E942F28C82F80FD03C0C4
:100C300088E691E002C08DE691E060E00E949B2290
:100C4000C1FD03C08EE591E002C083E691E060E063
:100C50000E949B22C2FD03C084E591E002C089E5A9
:100C600091E060E00E949B228D2FDF91CF9108954B
:100C70008430B0F46630A0F4453090F49EE1899F52
:100C8000F001112485E0689FE00DF11D1124E40FAF
:100C9000F11DEE0FFF1FE953FE4F859194910895CA
:100CA00081E090E008950E94380608958430A8F409
:100CB000623098F470E0680F711D680F711DFB01C0
:100CC000EE0FFF1F81E04827E40FF11DEE0FFF1F1D
:100CD000E955FE4F85919491089581E090E0089543
:100CE0000E945606089581E0089581E008950E94CB
:100CF0007506089508950E947A060895A5E0B0E06B
:100D0000E4E8F6E00C94313149835A833091FD01D7
:100D100089819A81311114C0662359F0222349F048
:100D20000E94120D182F682F89819A810E94DF0C72
:100D300003C00E94F90C182F69817A81812F04C0A9
:100D40000E94120D69817A810E9446142596E3E083
:100D50000C944D31FC01262F4081518162817381B9
:100D600084810E947E06089581E00895CF93DF93E9
:100D7000EC0160E00E94AA06BE010E947B06DF91A2
:100D8000CF91089508950E94A80B0E94C2062FEFEC
:100D900084E39CE0215080409040E1F700C00000D7
:100DA00008950E94C3060E94E82908950E94C30680
:100DB0000E94F92908950F931F93CF93DF938C011D
:100DC00061E00E94AA06EC01B8010E947706882320
:100DD00009F449C0B801CE010E94E126882309F434
:100DE00042C0B801CE010E9404248823E1F1B80179
:100DF000CE010E9447268823B1F1B801CE010E949E
:100E00008620882381F1F8018281882341F1C33053
:100E10008CE7D807D1F040F4C115FCE7DF0791F06B
:100E2000C130DC47A1F01BC0CB35ECE7DE07A9F0F1
:100E3000CC35FCE7DF0771F0CA35DC4781F40E944E
:100E40007F110DC00E94D1060EC00E9487110E9422
:100E5000D60609C00E94751102C00E948311C80104
:100E60000E94730601C080E0DF91CF911F910F9126
:100E700008950E9412290E948C070E94EA1E0E9477
:100E8000BC2308950E9490070E94C11F0E941B2945
:100E90000895292F33272115310519F0C90148E09C
:100EA00001C040E09C0164E0369527956A95E1F722
:100EB0002115310511F04C5FC9019C01369527952C
:100EC000369527952115310511F04E5FC9019C011A
:100ED00036952795232B09F04F5F842F08950895A9
:100EE00081E008950895CF93DF93D82F0E94700773
:100EF000C82F882319F08D2F0E9472078C2FDF9145
:100F0000CF9108950895CF93C82F0E946F078C2F1B
:100F10000E947307CF91089580E00E94830708958F
:100F20000E9422280E9483070895CF930E942228BE
:100F3000C82F8091F801C81779F0C093F8010E947A
:100F4000A7296093F9017093FA018093FB019093B4
:100F5000FC018C2F0E948307CF910895ABE0B0E095
:100F6000E4EBF7E00C9432314F83588769877A8736
:100F70008B8761110E94BD109E012F5F3F4F86E05D
:100F8000F90111928A95E9F785E0FE013796D901BA
:100F900001900D928A95E1F789819A814C815D815A
:100FA000452B31F09F3F31F491E08F3F19F403C09E
:100FB00091E001C090E090FF09C049815A816B81A6
:100FC0007C818D819E810E94E90F05C0C9010E942C
:100FD000B4068111F2CF2B96E2E00C944E31FC0165
:100FE000808191810E94440D0895662319F00E942A
:100FF000511702C00E94AC170E9423180895CF9386
:10100000882309F4A4C0C82F8238C1F40E94222882
:1010100081FD9DC069E380910401909105010E94CA
:10102000D7280E94E1102FEF87EE93E021508040F7
:101030009040E1F700C0000069E319C0833801F572
:101040000E94222880FD83C063E580910401909175
:1010500005010E94D7280E94E1102FEF81EE94E055
:10106000215080409040E1F700C0000063E580918E
:101070000401909105010E94DA280E94E11067C0E6
:101080008438C1F40E94222882FD61C067E4809107
:101090000401909105010E94D7280E94E1102FEFD2
:1010A00081EE94E0215080409040E1F700C00000C4
:1010B00067E4DDCF8CEF8C0F813AD0F46C2F8091F8
:1010C0000401909105010E94A128882349F06C2F0A
:1010D00080910401909105010E94DA280E94E1109C
:1010E0006C2F80910401909105010E94D728C5CFF3
:1010F00080E28C0F883048F4C77081E001C0880F0F
:10110000CA95EAF70E94A010B8CFEBE5EC0FE330E8
:1011100040F4F0E0E959FE4F808190E00E944B28B6
:1011200016C0E8E5EC0FEB3150F4F0E0EE0FFF1FD6
:10113000EF5CFE4F808191810E94702808C083E39C
:101140008C0F833120F461E08C2F0E94F507CF9142
:101150000895882309F468C0823879F40E9422280F
:1011600081FF62C069E380910401909105010E94B2
:10117000D7280E94E11069E310C08338B9F40E94B7
:10118000222880FF51C063E5809104019091050100
:101190000E94D7280E94E11063E58091040190919C
:1011A00005010E94DA280E94E1100895843879F43C
:1011B0000E94222882FF38C067E480910401909148
:1011C00005010E94D7280E94E11067E4E6CF9CEF5A
:1011D000980F913A10F4682FE0CF90E2980F983072
:1011E00050F4877091E001C0990F8A95EAF7892F32
:1011F0000E94A610D8CF9BE5980F933028F480E08A
:1012000090E00E944B28089598E5980F9B3128F4B0
:1012100080E090E00E947028089593E3980F933146
:1012200018F460E00E94F50708951F93CF93DF93B1
:10123000182FEB010E94FF07209741F08FE99FE0F4
:101240000197F1F700C000002197F6CF812F0E948F
:10125000A908DF91CF911F910895893319F06AE0B1
:1012600070E002C060E570E00E94150908958823CF
:1012700021F00E94A0100E94E1100895882321F01F
:101280000E94A6100E94E1100895A0E0B0E0EBE4F7
:10129000F9E00C942C317C01162FC72FFC01D28170
:1012A000058102950F700E9496108823E9F0DD23D6
:1012B000D9F08C2F807F803451F080E2810F88300C
:1012C00098F0011104C08C2F807E803269F08091EB
:1012D000080382FF09C082E00E9443110E94961019
:1012E00091E0D82ED92601C0D12CCC2EC2948FE00B
:1012F000C8228C2D90E08C30910508F0A6C1FC012D
:10130000EA5AFF4F0C94EB308C2F807FCF708823EC
:1013100011F0C295C07FDD2399F0CC2309F47CC184
:1013200080E2810F883010F0111104C08C2F0E94D0
:10133000A01003C08C2F0E94B0100E94E1106CC15D
:10134000812F0E94A908CC2309F47FC180E2810F7C
:10135000883038F1112329F18C2F0E94B61024C057
:101360008C2F807FCF70803211F0C295C07F112307
:1013700019F01130D1F143C08091080382FD17C0EC
:10138000DD2349F0CC2329F08C2F0E94A0100E946D
:10139000E11080E042C180E00E94A908CC2309F45A
:1013A00054C18C2F0E94A6100E94E1104EC1DD2373
:1013B00071F0002341F0013031F40E94C0108C2BF9
:1013C0000E94CA1042C10E94C0108C2B23C0011180
:1013D00003C00E94D71023C0013009F436C18C2FFE
:1013E0000E943E090E94D71030C1DD2321F0063053
:1013F00008F02BC10EC0053008F027C110C0DD2356
:1014000061F0002331F0F701858180FF05C18F7005
:1014100085838C2F0E94370918C1011103C18C2FBD
:101420000E943E0912C18C2F86958695837019F013
:10143000813061F00AC1DD2321F0812F9C2F937050
:1014400002C080E090E00E944B2807C1DD2321F01C
:10145000812F9C2F937002C080E090E00E94702842
:10146000FCC06D2F812F0E94F507F7C08C2F837071
:10147000B1F5D111EEC0412F429546954770440F0A
:10148000440F812F8F7090E09C01042E02C0220F28
:10149000331F0A94E2F714FF0AC08FE090E002C005
:1014A000880F991F4A95E2F78095909502C080E0D9
:1014B00090E0C695C695C370822B932BC23049F03D
:1014C00058F4C13019F00E94120CC3C00E94090CDC
:1014D000C0C00E941B0CBDC00E94060CBAC0DD2318
:1014E00019F08C2F817001C08695882309F4B1C052
:1014F000412F429546954770440F440F812F8F70BE
:1015000090E09C01042E02C0220F331F0A94E2F7E0
:1015100014FF0AC08FE090E002C0880F991F4A951F
:10152000E2F78095909502C080E090E0C695C69560
:10153000C370822B932BC23049F058F4C13019F09C
:101540000E947A0C86C00E94710C83C00E94830C9A
:1015500080C00E94270C7DC0CF70DD2339F08C2F16
:101560000E943F0C812F0E94370973C0812F0E9477
:101570003E098C2F0E944F0C6CC0123F21F128F4C1
:10158000103F41F0113FC1F043C0133F19F1143F28
:1015900079F03EC0DD2341F0053008F056C08C2FB5
:1015A0008F710E94610C51C0063008F04EC0F7CF19
:1015B0008091080382FD18C0DD2339F08C2F8F71D4
:1015C0000E943F0C42C0DD23C9F38C2F8F710E9413
:1015D0004F0C3BC0DD2329F08C2F8F710E94330C00
:1015E00034C00E942E0C31C0DD2349F0CF718C2F06
:1015F0000E943F0C63E08C2F0E94251126C081E0E1
:101600000E944311023008F182E00E9443111DC084
:10161000DD2331F0002391F2812F0E94FF0715C0D6
:10162000002399F2193341F4FFEF27EE83E0F150E4
:1016300020408040E1F704C0EFE3FCE93197F1F787
:1016400000C00000812F0E94A90888EF8C0D843013
:1016500020F40E9422280E948307DD2089F00E9446
:10166000921080FD0DC0F70112820E948C100E9422
:101670003F0CC7010E945D0B0E948C100E944F0C12
:10168000CDB7DEB7E8E00C9448310F931F93CF93AA
:10169000DF93EC01688179818A810E944F0D8C0172
:1016A0000E948C0C0E94F70BB801CE010E944509E4
:1016B000DF91CF911F910F910895CF93DF93EC01AC
:1016C000988189812B813C81232B31F08F3F31F42C
:1016D00081E09F3F19F403C081E001C080E080FDFC
:1016E0001AC0CE010E94DB0681110FC00E94961025
:1016F000882389F08A81882371F08091080382FF12
:101700000AC082E00E94431106C0CE010E94450B30
:10171000CE010E94B606DF91CF91089580E090E05F
:101720000E944B2880E090E00E9470280E94BD102B
:101730000E94E1100E9442180E942318089580918F
:101740000401909105010E94DD280E948E0B0895EE
:101750000E94AD100E949F0B089592959F70963045
:1017600079F010F4925001C09A50923068F4803FA2
:1017700069F018F4883E40F409C0843F29F406C09B
:10178000883E20F0813F11F080E0089581E00895C7
:10179000FC019081818123813481232B31F08F3FA3
:1017A00031F481E09F3F19F403C081E001C080E083
:1017B00080FD07C0808191810E94440D0E94AD0B85
:1017C000089580E00895A5E0B0E0E9EEFBE00C9418
:1017D00032312596E2E00C944E31A6E0B0E0E3EF22
:1017E000FBE00C9432312696E2E00C944E310895E1
:1017F00008950E94F80B08950E94F90B08950E9425
:10180000FC0B909315028093140208950E94FF0B25
:1018100008952091140230911502822B932B0E947F
:10182000FF0B089520911402309115028223932317
:101830000E94FF0B08952091140230911502822717
:1018400093270E94FF0B08950E94F80B08950E94B1
:10185000240C9093130280931202089580E090E08C
:101860000E94270C089521E030E0A90102C0440F36
:10187000551F8A95E2F7CA010E94270C089521E0BE
:1018800030E002C0220F331F8A95E2F780911202E6
:1018900090911302822B932B0E94270C089521E034
:1018A00030E002C0220F331F8A95E2F72095309571
:1018B0008091120290911302822393230E94270C9D
:1018C000089521E030E002C0220F331F8A95E2F72D
:1018D0008091120290911302822793270E94270C75
:1018E00008952091120230911302822B932B0E94B3
:1018F000270C089520911202309113028223932322
:101900000E94270C08952091120230911302822721
:1019100093270E94270C08950895962F9770A1E0B1
:1019200001C0AA0F9A95EAF793E0769567959A9584
:10193000E1F7660F771F660F771FFA01E60FF71FB3
:1019400040E050E0682F70E090819B01042E02C0BF
:10195000369527950A94E2F72170219529272A23A5
:10196000292721934F5F5F4F4430510569F7089550
:10197000FB01782F777023E0969587952A95E1F7FC
:10198000880F991F880F991FE80FF91F40E050E05A
:1019900080E0219130E0072E02C0369527950A9409
:1019A000E2F721703327042E01C0220F0A94EAF7D0
:1019B000822B4F5F5F4F4430510559F70895282F10
:1019C000862F963060F4253050F4622F70E025E0C9
:1019D000929F600D711D112442E052E007C09C5F90
:1019E000923030F4622F70E04EEF51E00E948D0C87
:1019F0000895292F963058F4853048F490E062E03D
:101A000072E035E0239F800D911D112406C02C5FEC
:101A1000223030F46EEF71E090E00E94B80C08952F
:101A200080E00895A0E0B0E0E8E1FDE00C942B3107
:101A30007C01009112021091130280911402909186
:101A40001502082B192BCFE0D0E0CC24C394D12C65
:101A5000C6010C2E02C0880F991F0A94E2F780235A
:101A60009123892B21F4219798F7B12C07C0BC2E24
:101A7000B7018C2F0E9460140197A9F38B2DCDB76D
:101A8000DEB7E9E00C944731CF93DF93EC010E947D
:101A9000120DBE010E946014DF91CF9108951F9333
:101AA000CF93DF93EB019091FD01992321F0CB01BE
:101AB0000E94440D13C0882349F0CB010E94120DEF
:101AC000182F682FCE010E94DF0C04C0CB010E94AA
:101AD000F90C182FBE01812F0E946014DF91CF9165
:101AE0001F9108951F93CF93DF93C091160216E0C4
:101AF00080911702C81799F0D0E01C9FF0011D9F3C
:101B0000F00D1124E85EFD4F4081518162817381A7
:101B1000848195810E94ED0B2196C770E9CFDF91FA
:101B2000CF911F91089540914802509149026091D0
:101B30004A0270914B0280914C0290914D020E949A
:101B4000ED0B0895209116029091170256E0291787
:101B5000A9F030E0529FF001539FF00D1124E85E90
:101B6000FD4F7181761306C07081781303C07281B6
:101B7000741306C02F5F3F4F2770E9CF80E00895B0
:101B800081E008950F931F93CF93DF9380914D02CF
:101B900082958F7009F05AC080914A02882309F417
:101BA00055C0809116021091170260914802709101
:101BB0004902C0914B02D0914C0291E06F3F09F075
:101BC00090E0292F06E0811709F440C0209721F00A
:101BD0007F3F21F030E003C031E001C0322F90E0C0
:101BE00030FD31C0089FF001099FF00D1124DF0185
:101BF000A85EBD4F11963C911197371324C03C91BC
:101C0000361321C012963C91129731111CC01396C5
:101C10004D915C9114974C1B5D0B483C510598F419
:101C200080914D028F70806180934D02E35EFD4F85
:101C300080818F708061808388E492E00E945D0BD8
:101C40000E94720D03C001968770BDCFDF91CF91C6
:101C50001F910F910895A1E1B0E0E1E3FEE00C9443
:101C600028318C0185E0F801DE011D9601900D926E
:101C70008A95E1F7F801E2809091480220914902AB
:101C800040914B0250914C024115510531F02F3FCC
:101C900031F481E09F3F19F403C081E001C080E08E
:101CA00080FD78C1F801C080D1808380948088E471
:101CB000A82E82E0B82EF0904A02B401641B750B86
:101CC000FF2009F411C180914D02382F307F683C0C
:101CD000710508F0CBC031118AC0D21213C0C912ED
:101CE00011C0FE2CE1100EC08F70806180934D02F8
:101CF0000E94930DC5010E945D0B80914D02F80179
:101D0000858362C18114910439F0FFEFDF1206C0B0
:101D100081E0CF1203C003C081E001C080E080FDFC
:101D200003C081E08E2502C080E090E080FF05C006
:101D30004E2D6D2D8C2D0E94A20D8114910439F031
:101D40002FEFD21206C081E0C21203C003C081E0AF
:101D500001C080E080FD03C081E08E2502C080E0EC
:101D600090E0682F6170B62E80FF37C04E2D6D2D2C
:101D70008C2D0E94A20DF82E81112FC0CD86DE86FB
:101D80008D859E850E94440D292F22952F70243029
:101D900020F49F70223028F009C02A50223088F0A9
:101DA00017C0992351F0811108C00EC1992329F061
:101DB000F8019581907F09F407C1805E883040F476
:101DC00003C1803F08F400C1815F833008F4FCC088
:101DD000C8010E945D0BFB2CF7C0FE2CEE2009F41D
:101DE000F3C080914D02816080934D0254C0D212A5
:101DF00006C0C91204C0E11002C0F80199C0C801B0
:101E00000E94C80B882361F1EE2051F120914D0210
:101E1000822F82958F7090E0029774F08091480233
:101E20009091490298878F8319869B868A862C8792
:101E3000CE0107960E945D0B86E0F801A8E4B2E0AF
:101E400001900D928A95E1F70E94C20D0E94930DB8
:101E50000AC0D21611F1C8010E94C80B81112CC012
:101E6000C8010E945D0BFF24F394AEC03111F1CF85
:101E7000782D998A888AA6016E2D89890E94E30BA4
:101E800088E492E00E945D0B86E0F50111928A954C
:101E9000E9F70E94930DF12C97C0C912DCCFE11035
:101EA000DACFF8018583C8010E945D0B86E0F50159
:101EB00011928A95E9F788C0EE2091F220914D02A7
:101EC000822F82958F7090E002970CF4B5CF8091AD
:101ED0004802909149029A8389831B829D828C8259
:101EE0002E83CE010196A6CF683C710508F044C050
:101EF000FE2CEE2009F4B4CFD21230C0C9122EC08D
:101F000020914D0220FD21C0822F82958F70482F95
:101F100050E041155105C9F0F80125834F305105B6
:101F200041F08F5F982F9295907F822F8F70892B31
:101F30008583C8010E945D0B86E0F801A8E4B2E049
:101F400001900D928A95E1F73DC086E0F801A8E482
:101F5000B2E001900D928A95E1F736C0C8010E9467
:101F6000C80B811169CF80914D02816080934D0231
:101F7000C8010E945D0B28C0782D998A888AA60125
:101F80006E2D89890E94E30B86E0F50111928A95F6
:101F9000E9F718C0EE2009F463CFC8010E94C80B0E
:101FA000F82E882309F45CCF86E0F801A8E4B2E0BB
:101FB00001900D928A95E1F788E492E00E94EF0784
:101FC0000E94C20D0E94930D8F2D6196ECE00C943F
:101FD0004431ACE0B0E0EFEEFFE00C9431314F83E0
:101FE000588769877A878B879C87CE0107960E94DE
:101FF0002B0E8823D1F09F8188852A853B85232B52
:1020000031F08F3F31F481E09F3F19F403C081E04C
:1020100001C080E080FD47C04F81588569857A8581
:102020008B859C850E94ED0B3EC086E0FE013796B5
:10203000DE01119601900D928A95E1F7FF81E88506
:102040006A857B856115710531F0EF3F31F481E0E0
:10205000FF3F19F403C081E001C080E080FD23C090
:102060002091170230E0C9010196877099274091AD
:10207000160250E084179507F1F1F983EA837D8316
:102080006C8396E0929FD001939FB00D1124A85EBF
:10209000BD4FFE01319601900D929A95E1F7809324
:1020A00017020E94720D16E080911602909117029D
:1020B000891771F1189FC0011124885E9D4F0E94FD
:1020C0002B0E882329F1E09116021E9FF0011124A6
:1020D000E85EFD4F408151816281738184819581E9
:1020E0000E94ED0B8091160290E00196877099276F
:1020F00080931602D9CF0E94A80B1092170210925B
:102100001602E8E4F2E086E0DF011D928A95E9F725
:102110002C96E3E00C944D3180915602859585957F
:102120008595089580915602877008959091560282
:10213000977081E009F480E008958091610208952C
:1021400090916102892B809361020895809590910E
:1021500061028923809361020895109261020895BB
:1021600090916002892B80936002089580959091F0
:10217000600289238093600208951092600208959E
:1021800080915702089508950E94C31008950E94F7
:10219000C41008959091080392FF08C090915702CF
:1021A000981721F0809357020E94C71008958091DC
:1021B0005702882329F01092570280E00E94C7102E
:1021C0000895CF93DF93E0910401F0910501809190
:1021D00061028083E0910401F0910501908180917A
:1021E0006002892B808380915702882381F0E091DF
:1021F0000401F09105019081892B80838091040175
:10220000909105010E94952881110E94D710C091DC
:102210000401D091050148E050E06EE472E0CE0187
:102220000E94CB31892B59F088E0FE01AEE4B2E088
:1022300001900D928A95E1F7CE010E943228DF913C
:10224000CF9108950E94C31008959091080392FFC2
:1022500011C098E0899F90011124262B20935602EB
:102260000E943F0C809156028595859585950E9428
:10227000221108950E943F0C08951092560280E0AA
:102280000E94221108952091560280958223809306
:102290005602982F977099F430E0482F082E000CC2
:1022A000550B2417350759F09091080392FF07C08A
:1022B0008595859585950E944F0C0E943D11089546
:1022C0009091080392FB222720F9281769F080FBE0
:1022D00092F99093080380910703909108030E945C
:1022E000A81182E00E94431108958091080382FBA7
:1022F000882780F991E089270E946011089581E084
:102300000E946011089580E00E94601108956FEFAF
:102310007FEF80E090E00E941332089580E090E02B
:102320000E94EF3121E0873E9E4F09F020E0822F8E
:10233000089582E090E00E94E131089583E090E00A
:102340000E94E131089584E090E00E94EF31089509
:10235000BC0184E090E00E9413320895AB01BC01FF
:102360008FE090E00E9407320895AB01BC0183E149
:1023700090E00E940732089560E070E0CB010E9477
:10238000B511089560E070E0CB010E94AE110E948B
:10239000BC11089567EE7EEF80E090E00E9413325A
:1023A00060E082E090E00E94F53160E083E090E040
:1023B0000E94F531109215021092140260E074E14F
:1023C00084E090E00E94133260E086E090E00E949A
:1023D000F5316FEF87E090E00E94F53140E050E08A
:1023E000BA0188E090E00E94073260E08DE090E062
:1023F0000E94F53140E050E0BA0188E190E00E948F
:10240000073260E087E190E00E94F53140E050E063
:10241000BA018CE190E00E94073260E070E080E257
:1024200090E00E94133240E050E0BA0188E190E071
:102430000E9407320E94C21108950E94CA11089595
:10244000682F8EE090E00E94F5310895A5E0B0E09D
:10245000ECE2F2E10C9430310E949B298C018091D6
:1024600062029091630208171907A1F08FEF898328
:102470008A831B820E949B298160782F9D838C8395
:1024800049815A816B818D810E94AE07109363024E
:10249000009362022596E4E00C944C310E94A72937
:1024A000609372027093730280937402909375022A
:1024B00060936E0270936F0280937002909371022A
:1024C00008950E94A729609372027093730280930B
:1024D00074029093750260936A0270936B0280930A
:1024E0006C0290936D02089581E0089581E0089553
:1024F0000E947612089508950E947B1208950E940A
:102500007B1208950E947F1208950E947B12089505
:102510000E94851208950E947B12089584E495E13B
:102520000E9418280E948B120E94881208950E940F
:102530007C120E947B1208950E9463150E948207FC
:1025400008950E9492290E94F5240E9433160E9449
:102550009C1280E00E9460210E94851F0E948212CE
:102560000895A5E0B0E0E7EBF2E10C9429310E9478
:102570007412B82E811104C00E942612B12C52C0D0
:102580000E94491684E6E82E82E0F82E670100E0FA
:10259000F60111916F01802F0E94811581270F5F35
:1025A000063019F08823A1F302C0882329F3809113
:1025B000760281FD0E9487150E947812982E10E005
:1025C000812F0E948115A82EF701C080C82611F125
:1025D00000E0DD24D3948C2D8D21B1F09920A1F061
:1025E00009831A8391E08A2D8D2109F490E09B8361
:1025F0000E949B298160782F9D838C8349815A8119
:102600006B818D810E94AE070F5FDD0C053019F7DD
:10261000F701A0821F5FFFEFEF1AFF0A163081F665
:102620000E944E120E94CB1F0E946C25182F811110
:102630000E9461120E94D823B11001C011110E94A2
:10264000A1220E9464180E9495072596EBE00C9445
:1026500045311F93CF93DF930E946514EC01C115A0
:1026600080E5D807E8F5C11590E4D90708F0A8C0BF
:10267000C03ED10530F5CD3CD10508F094C0C83A34
:10268000D10578F4C53AD10508F083C0C130D10531
:1026900009F47CC008F4F2C0C430D10508F0F1C0E0
:1026A000EDC0C33CD10508F0E9C0C85AD0E0CC0F5A
:1026B000DD1FC659DE4F0990D881C02DCE0194642C
:1026C000E1C0C11580E2D80708F0CBC0C11591E088
:1026D000D90708F06BC0C83ED10508F4D2C0CEC0FF
:1026E000C03682E5D80728F5C03492E5D90708F04E
:1026F00079C0C03282E5D80708F06CC0C11592E5F8
:10270000D90708F481C04C2F4695469580E2489F32
:10271000A0011124C37021E030E0C90102C0880F7C
:10272000991FCA95E2F7EA01C82BD92BCE019D6803
:10273000A9C0C03A82E5D807B8F48C2F8F71C03891
:1027400092E5D90708F07BC08695869590E2899F2F
:1027500090011124C37081E090E002C0880F991F9E
:10276000CA95E2F79A6868C0C03C82E5D80708F4C9
:102770006DC0C03E92E5D90708F080C0CF71DD275B
:10278000DC2FCC27CE01806F906A7CC081E090E086
:1027900079C0C55AD0E0C056DE4F8881C82FD0E03E
:1027A000CE0190646FC0CE0190656CC08D2F0E94E9
:1027B0000115182FCE0199270E9465141F715CC066
:1027C000CE0199270E946514CC27DF70D06A8C2B2C
:1027D0009D2B58C0CF71D0E0DC2FCC27CE01816F6C
:1027E000906A50C08C2F8F718695869590E2899F54
:1027F00090011124C37081E090E002C0880F991FFE
:10280000CA95E2F79C6818C08C2F8F710E94011541
:1028100095E0D695C7959A95E1F7CF70D0E0DC2F7B
:10282000CC27282F30E084FF05C084E0220F331F1F
:102830008A95E1F7D069CE01822B932B23C090E0DB
:10284000D82FCC27CE01846F906A1CC08C2F8F713B
:102850000E9401158F7190E0D82FCC27CE01906295
:1028600011C08D2F8F710E940115182FCE0199274D
:102870000E9465141F719062912B04C080E090E06B
:1028800001C0CE01DF91CF911F910895763038F4C9
:10289000653098F4462F672F0E94530608957D3FB8
:1028A00021F4623050F441E005C07C3F31F46230E5
:1028B00020F440E00E947006089580E090E00895C2
:1028C0000E9446140E94291308958238910569F1E7
:1028D000B0F48133910509F475C048F4893291054B
:1028E00009F467C08A32910509F471C008958533EF
:1028F000910509F459C089339105B9F00895833ED3
:10290000910589F138F4803E9105D1F0823E910520
:1029100029F10895863E9105C9F1873E9105D9F1C7
:10292000843E910509F06CC027C02091070320FD6B
:1029300057C021FD55C02091080323FD5BC00895B9
:102940008091070380FD48C08091080380FF48C044
:102950008091070384FD46C083EE51C08091070338
:1029600082FF3CC0F5CF8091070382FD37C0809184
:10297000080380FD35C0ECCF8091080381FF36C08D
:102980008091070384FD2EC087EE39C08091070334
:1029900083FF2AC0F5CF8091070383FD25C0809176
:1029A000080381FD23C0ECCF8091070385FD22C081
:1029B0001FC08091070385FD1BC08091080383FF22
:1029C00019C00AC08091070386FD16C017C0809108
:1029D000070386FD13C010C089E311C082EE0FC04B
:1029E00080EE0DC080E00BC086EE09C084EE07C00B
:1029F00085E305C089E203C08AE201C081E390E07B
:102A000008959091070392FF0DC0282F2871283058
:102A100019F4877F846006C0282F2471243011F4B4
:102A20008B7F886093FF0DC0282F2871283119F4FF
:102A3000877E846106C0282F2471243111F48B7E97
:102A400088612091080320FF0DC0382F387138307D
:102A500019F4877F816006C0382F3171313011F44D
:102A60008E7F886021FF0DC0282F2871283119F42E
:102A7000877E816106C0282F2171213111F48E7E5D
:102A8000886194FD877E089580E008950E948711F3
:102A900008950E9449162FEF86E791E0215080406B
:102AA0009040E1F700C000000E94491680E00E94BB
:102AB000811581FF04C00E9446150E94E8290895EF
:102AC0000E94491508950E948E11811102C00E9432
:102AD0001D120E949911809376020E94A311909377
:102AE0000803809307030E9460150E949E1190E0E6
:102AF0000E94060C80911202909113020E94240CF5
:102B00000895E82FF0E0E15FFC4F8081089508957B
:102B100080EA8A95F1F7089500C008950E9488150B
:102B2000089508950E94911508950E9492150895A0
:102B30000E94911508950E9498150895F894E82F21
:102B4000E295EF70F0E031A1282F2F7081E090E046
:102B500001C0880F2A95EAF7982F9095932391A3A7
:102B600092A1892B82A3789408950F931F93CF93FA
:102B7000DF93C8EAD1E089918F3F11F00E949E1542
:102B800081E0CE3AD807B9F7C3EAD1E008EA11E00C
:102B900089918F3F11F00E949E150C171D07C1F7F8
:102BA000DF91CF911F910F910895A0E0B0E0EBED80
:102BB000F5E10C942C318C01C62FD0E0CE01885564
:102BC0009E4F7C01FC0190819F3F09F447C0D62EA7
:102BD000F894E92FE295EF70F0E081A19F7021E079
:102BE00030E001C0220F9A95EAF7822B81A382A1DF
:102BF0002095282322A378940E948C15E3EAF1E023
:102C000048EA51E031E0C12C21912F3F89F0A22FF9
:102C1000A295AF70B0E090968C9190E02F7002C0BA
:102C2000959587952A95E2F780FD02C0832F01C014
:102C300080E0C82A330F4E175F0731F7F701808114
:102C40008F3F11F00E949E1561E0C11001C060E04D
:102C50008D2D0E948E15C00FD11FC882CDB7DEB753
:102C6000E8E00C9448310E94B51586E0EFE0F3E00F
:102C7000DF01982F1D929A95E9F7E9E0F3E0DF0173
:102C80001D928A95E9F786E00E9484160E949B15A2
:102C90000895A6E0B0E0EFE4F6E10C942F318E0148
:102CA0000F5F1F4F86E0F80111928A95E9F7F12C2A
:102CB0006F2DC8010E94D515F394F6E0FF12F8CFEE
:102CC00046E050E0B80189E093E00E94CB3121E07A
:102CD000009709F420E0892B41F086E0F801A9E093
:102CE000B3E001900D928A95E1F746E06FE073E062
:102CF00089E093E00E948516182F0E949515812F78
:102D00002696E5E00C944B310895EF92FF920F93D5
:102D10001F93CF93DF937C018B01C42F222349F0B3
:102D200081E0809379020E949B299093780280939E
:102D3000770280917902811102C080E01AC08091EF
:102D40007702909178020E94B3290597B0F3D0E002
:102D5000AE01B701C8010E94CB31892B39F0AE0119
:102D6000B701C8010E94D83181E001C080E0109213
:102D70007902CDB7DEB7E6E00C944A310E94632BAE
:102D80000E94A1120E94702B08950E94752B0E9430
:102D9000B1120E948F2B08950E9432290E94492B64
:102DA0000E948E120E94BE160E94C5160E949712A3
:102DB000FBCF8091800280FF06C060910B0170E024
:102DC000660F771F26C081FF04C060910B0184E06D
:102DD00005C082FF07C060910B0188E0689FB001C9
:102DE000112417C090917F029923D1F060910A01BC
:102DF000961788F720910B0188E0289F90011124F5
:102E0000929FA001939F500D112470E0CA010E946F
:102E1000B5306038710540F46115710519F406C0CC
:102E200068E070E0862F08958FE7089581E00895A7
:102E30008091800280FF08C06091070170E0759565
:102E400067957595679521C081FF06C06091070160
:102E500070E07595679519C082FF04C06091070105
:102E600070E010C090917E02992399F06091060164
:102E70009617A0F780910701899FC001112470E087
:102E80000E94B5306038710540F46115710519F480
:102E900006C061E070E0862F08958FE7089581E015
:102EA00008958D3C21F40E94D916819504C08E3C72
:102EB00029F40E94D9168093840208958F3C21F44E
:102EC0000E94D916819504C0803D29F40E94D9162C
:102ED000809383020895893D19F40E94181705C054
:102EE0008A3D31F40E9418178195809385020895D8
:102EF0008B3D21F40E941817819504C08C3D29F464
:102F00000E9418178093860208959FE2980F9830C8
:102F100078F421E030E0A90102C0440F551F9A95D2
:102F2000E2F7CA0190918202892B80938202089570
:102F30008D3D21F48091800281600BC08E3D21F493
:102F400080918002826005C08F3D29F480918002CB
:102F500084608093800208958D3C39F490918402BE
:102F600097FF35C01092840259C08E3C29F490918D
:102F700084021916BCF32BC0909183028F3C29F474
:102F800097FF25C01092830249C0803D19F419169D
:102F9000CCF31DC090918502893D29F41916BCF42B
:102FA000109285023BC08A3D19F497FF10C0F8CFFC
:102FB0008B3D39F49091860297FF09C010928602EA
:102FC0002DC08C3D21F4909186021916BCF39FE22E
:102FD000980F983080F421E030E0A90102C0440F3E
:102FE000551F9A95E2F7CA01809590918202892334
:102FF0008093820213C08D3D21F4809180028E7FE8
:103000000BC08E3D21F4809180028D7F05C08F3DE5
:1030100029F4809180028B7F8093800280918302CB
:10302000811106C080918402811102C010927F023A
:1030300080918502811106C080918602811102C0B3
:1030400010927E0208950E949B29209183022111F3
:1030500004C020918402222321F090937D0280936A
:103060007C0220918502211104C020918602222336
:1030700021F090937B0280937A0281E892E00E9493
:103080003D280895E1E8F2E086E0DF011D928A958F
:10309000E9F710927F0210927E021092800208954A
:1030A000FC01828181110DC0838181110AC084815C
:1030B000811107C091E08581811101C090E0892FC5
:1030C00001C081E081700895A6E0B0E0EAE6F8E191
:1030D0000C94313186E0E1E8F2E0DE0111960190D6
:1030E0000D928A95E1F71092830210928402109259
:1030F0008502109286028B81811104C08C81882305
:1031000009F45FC080917C0290917D020E94B329F6
:10311000AC0190917F02992339F020910C0130E0AD
:103120002417350758F04DC020910D018AE0289FE3
:10313000900111242417350718F043C09F3F19F060
:103140009F5F90937F021B81112361F00E94D9162B
:10315000111614F09FEF01C091E0989F902D11245B
:10316000909383021C81112361F00E94D9161116DD
:1031700014F09FEF01C091E0989F902D112490933F
:103180008402309183023323E1F0209184022223D0
:10319000C1F045EB3403C0011124992319F0909339
:1031A000830203C081E08093830235EB2303C001D7
:1031B0001124992319F09093840203C081E0809335
:1031C00084028D81811104C08E81882309F45FC03F
:1031D00080917A0290917B020E94B329AC01909178
:1031E0007E02992339F02091080130E02417350739
:1031F00058F04DC0209109018AE0289F90011124C8
:103200002417350718F043C09F3F19F09F5F909334
:103210007E021D81112361F00E941817111614F00F
:103220009FEF01C091E0989F902D1124909385020B
:103230001E81112361F00E941817111614F09FEFE0
:1032400001C091E0989F902D1124909386023091B7
:1032500085023323E1F0209186022223C1F045EB61
:103260003403C0011124992319F09093850203C0FF
:1032700081E08093850235EB2303C001112499235B
:1032800019F09093860203C081E080938602BE010C
:103290006F5F7F4F81E892E00E94E428811105C0B2
:1032A00081E892E00E94501881110E94231886E064
:1032B000FE013196A1E8B2E001900D928A95E1F706
:1032C0002696E3E00C944D31EF92FF920F931F93FB
:1032D000CF93DF938B01682F11110AC0442329F08B
:1032E000E82FF0E0EF52FC4F6491762F862F75C0E7
:1032F000212F30E0E82FF0E0442321F0EF52FC4F83
:10330000E491F0E046E0049FC0011124CFEFD0E04B
:10331000BE010E94A1304BEA4603C001479F900DB9
:103320001124800F911D800F911D982F990F890FE7
:10333000AE01421B530B4E9FD0014F9FB00D5E9FBD
:10334000B00D11249B2F189FA0011124452F552744
:103350008E01041B150B0E9FA0010F9F500D1E9F89
:10336000500D11247E01E81AF108E29E8001E39ECF
:10337000100DF29E100D1124212F3327C21BD30BE9
:10338000CE9F9001CF9F300DDE9F300D1124623013
:103390007105A9F048F46115710569F06130710596
:1033A000C9F48B2F752F0DC06430710581F058F072
:1033B0006630710579F47E2F8B2F932F0DC0832FEC
:1033C0007B2F9E2F09C08E2F7B2F952F05C08E2F10
:1033D000732F02C07E2F852F692FCDB7DEB7E6E0B1
:1033E0000C944A3141E00E946419089508950E94A6
:1033F000F2190895CF93DF93762FE901682F842F78
:103400000E94F719798368838A83DF91CF910895A9
:1034100080911503282F269530E02115310519F4E8
:103420008170826005C02B32310524F08170846583
:1034300080931503089588E090E00E94E931089593
:10344000CF92DF92EF92FF926B017C010E94081AEB
:10345000B701A60188E090E00E940732FF90EF904C
:10346000DF90CF900895E5E1F3E083E0808311825F
:103470008FEF828383831482608171818281938143
:103480000E94201A08958091150380FF02C086953E
:10349000089580E0089590911903933018F49F5F88
:1034A00090931903882351F06091150370911603CE
:1034B00080911703909118030E94201A089581E0CB
:1034C0000E944B1A089590911903992319F0915075
:1034D00090931903882351F060911503709116039E
:1034E00080911703909118030E94201A089581E09B
:1034F0000E94631A089570E00E94F8200895609178
:1035000012018091150380FF0BC08091110123E00F
:10351000829FC0011124865E9C4F0E947B1A0895F1
:103520008091130190911401891778F7E82FF0E04A
:103530009F01220F331FE20FF31FE65EFC4F118243
:10354000108212828F5FF0CF9091150390FF16C00A
:103550009091130120911401921770F4E92FF0E07B
:10356000DF01AA0FBB1FEA0FFB1FE65EFC4F818342
:10357000608342839F5FF0CF0E947F1A0895A3E08B
:10358000B0E0E5ECFAE10C9432319091150390FF34
:103590000AC09E012F5F3F4F0E94FA194B8169813B
:1035A0008A810E94A41A2396E2E00C944E31CF93B4
:1035B000DF93EC01EC81F0E0E453FD4F4491E5E151
:1035C000F3E0628181810E94BF1A8C818F5F8C83BE
:1035D000DF91CF910895CF93DF93EC01E5E1F3E024
:1035E000438162818C810E94BF1A8C818F5F8C83A2
:1035F000DF91CF910895A3E0B0E0E1E0FBE10C940E
:1036000030318C018091870281110AC09E012F5FA9
:103610003F4F4FEF6FEF0E94FA198A818093870224
:10362000F8018481813051F028F0823061F44091BA
:1036300087020AC08091870240E007C0609187023C
:1036400040E080E003C040E080E060E00E94A41A17
:10365000F801848190E0019663E070E00E94B5304B
:1036600084832396E4E00C944C31A3E0B0E0EBE3D8
:10367000FBE10C942B31082FE62EF42ED22E9091E4
:10368000150390FF67C0E92FE695AE2FB0E0A25575
:10369000BE4F8C918093BB029E7F923061F49E015D
:1036A0002F5F3F4F802F0E94FA194B8169818A81D9
:1036B0000E94A41A3DC0823019F4F090180338C05B
:1036C000863019F40091160333C08930D9F389315B
:1036D00079F5E9518E2F8170C82EE695F0E0E4531C
:1036E000FC4F1491B12C60911501B616F8F4B19EFF
:1036F000C001112470E00E94A130802FC11002C0CF
:10370000860F01C0861B909113012B2D30E0290FED
:10371000311DA901440F551F240F351F265E3C4F54
:103720004F2D6E2D0E94FA19B394DDCF0E947F1A9F
:1037300000931603E0921703F0921803DD2051F076
:1037400060911503709116038091170390911803EF
:103750000E94201A2396E9E00C944731E5E1F3E05A
:103760009181282F4381628188E0890F0E94351B57
:10377000089581E00E94AE1B0895E5E1F3E0918198
:10378000282F4381628188EF890F0E94351B08959D
:1037900081E00E94BD1B0895E5E1F3E0628128E02D
:1037A000620F08F46FEF282F438181810E94351B3F
:1037B000089581E00E94CC1B0895E5E1F3E0628169
:1037C00028E0621B08F460E0282F438181810E9479
:1037D000351B089581E00E94DD1B0895E5E1F3E0CB
:1037E000438128E0420F08F44FEF282F6281818146
:1037F0000E94351B089581E00E94EE1B0895E5E1CB
:10380000F3E0438128E0421B08F440E0282F628166
:1038100081810E94351B089581E00E94FF1B08955D
:1038200020E00E94351B0895FF920F931F93CF93C2
:10383000DF93EC01F12C0FEF10E060911501F6160B
:10384000F0F4809113012F2D30E0280F311DC901B4
:10385000880F991F280F391F265E3C4F70E0C80162
:103860000E94B530962F8C81409118036091170308
:10387000F99E800D11240E94FA19F394DECF0E9464
:103880007F1A9A818C8190FF02C08F5F01C08150A6
:103890008C83CDB7DEB7E5E00C944B31A0E0B0E00F
:1038A000E4E5FCE10C942B31FC01828180FF02C035
:1038B0000FEF01C001E010E080911501181708F02A
:1038C00040C080911301C12ED12CE601C80FD11D3B
:1038D000CE01880F991FC80FD91FC65EDC4F198211
:1038E00018821A8234E0E32EF12CB12C80918902E7
:1038F0008B0D893014F0877005C087FF03C090914D
:103900001501890F082E000C990BC816D90691F4E1
:10391000809118038E9DA0018F9D500D1124559507
:103920004795559547959E01609117038091160321
:103930000E94FA19B00EF1E0EF1AF108B9F61F5F14
:10394000BBCF0E947F1A80918902013031F481112E
:1039500002C080911501815007C090E001966091EE
:10396000150170E00E94B53080938902CDB7DEB7B3
:10397000E9E00C944731CF938091130190911401A9
:10398000891770F4E82FF0E09F01220F331FE20F38
:10399000F31FE65EFC4F1182108212828F5FF0CF20
:1039A000C0E060911501C617C0F5EC2FF0E070E0A3
:1039B000CF010E94B53020911301820F209188021F
:1039C000022E000C330B90E0E217F307CCF02091AD
:1039D0001001022E000C330B2E173F078CF09C01B8
:1039E000220F331F820F931F9C01265E3C4F409194
:1039F000180360911703809116030E94FA190BC0F7
:103A0000FC01EE0FFF1F8E0F9F1FFC01E65EFC4FB7
:103A1000118210821282CF5FC4CF0E947F1A209140
:103A20000F0180918802820F80938802909110018B
:103A3000920F9093100119165CF4082E000C990B4C
:103A40004091150150E041505109841795071CF031
:103A5000219520930F01CF910895A0E0B0E0E3E31A
:103A6000FDE10C9428318C01FC014481C42FD0E08D
:103A70009E01DE010E94F9309B01AC010E940F31D2
:103A80006B017C01E0E2F0E0EC1BFD0BA5E5B0E092
:103A90009B01AC010E940F314B015C019F01DF01D2
:103AA0000E94F1309B01AC010E941A319B01AC01D4
:103AB0002C0D3D1D4E1D5F1DC501B4010E94C93076
:103AC000C22FD22F2A3228F4F3E02F9F9001112425
:103AD0000DC025E530E02C1B3109C901880F991F65
:103AE000280F391F37FF02C02F5F3F4F35952795AD
:103AF000C22FC095F12C85E5E82EED1A80911501B5
:103B0000F816C8F4F1FC02C08E2D01C08D2F9091E3
:103B100013012F2D30E0290F311DA901440F551F2E
:103B2000240F351F265E3C4F4C2F609117030E94D7
:103B3000FA19F394E3CF0E947F1AF801848181116E
:103B400002C091E003C0803219F49FEF90930E0100
:103B500090910E01890FF8018483CDB7DEB7ECE0B8
:103B60000C9444310F931F93CF93DF93EC0100E04B
:103B700010E080911501282F30E00217130724F57B
:103B8000909113019801290F311DA901440F551F70
:103B9000240F351F265E3C4F869590E04C81081718
:103BA00019071CF4442331F002C0411103C04091B5
:103BB000180301C040E060911703809116030E9432
:103BC000FA190F5F1F4FD5CF0E947F1A8C8190E0AA
:103BD0000196817099278C83DF91CF911F910F916E
:103BE00008952F923F925F926F927F928F929F9251
:103BF000AF92BF92CF92DF92EF92FF920F931F93FB
:103C0000CF93DF93FC016280548081E08483ECECED
:103C1000F2E07490EBE4F3E0E491C0911803C695F0
:103C2000C158D0E0CC0FDD1F2D2E3324812C75E040
:103C3000972EAA24AA94B12CE719EE2EF12C80918C
:103C40001501881608F098C0C82CD12C22E0261542
:103C500068F09C9CF0019D9CF00D1124E657FD4FEF
:103C600080911603808380911703818351100AC0CD
:103C70009C9CF0019D9CF00D1124E657FD4F138292
:103C8000128260C09C9C80019D9C100D1124E80153
:103C9000C657DD4F8B818823F9F081508B832FEF3E
:103CA000829FC00111246C8170E00E94A130FB0151
:103CB000FF27E453FD4F8491E82FE7192FEFE29F90
:103CC000C0011124B7010E94A13080911803689FA0
:103CD000B00111247A8336C00E94A531B5010E943B
:103CE000B5308215930574F582E0861588F40E943C
:103CF000A531B5010E94B53088830E94A53120917D
:103D000017032695622F70E00E94B530280F298393
:103D10009C9CF0019D9CF00D1124E657FD4F1282F2
:103D200080911803843120F0893C18F088EC01C0A0
:103D300084E19C9CF0019D9CF00D1124E657FD4F01
:103D400084838383809113019601280F311DC9015B
:103D5000880F991F280F391F265E3C4F9C9CF0014D
:103D60009D9CF00D1124E657FD4F428161818081B9
:103D70000E94FA19839463CF0E947F1ADF91CF913A
:103D80001F910F91FF90EF90DF90CF90BF90AF9079
:103D90009F908F907F906F905F903F902F900895AD
:103DA000E5E1F3E080818E7F808360817181828193
:103DB00093810E94201A1092BC020E947F1A0895DB
:103DC000E5E1F3E080818E7F80831092BC020E9447
:103DD0007F1A08951092BC028091B90281110AC025
:103DE00081E08093B9028091150381708093B802BD
:103DF0000E94E01E089560911503669570E04BE007
:103E000050E086E191E00E94BE31892B19F481E0F7
:103E10008093BC020E949B299093B3028093B202CC
:103E200008959091150390FF35C09170811102C0E3
:103E3000926006C08B3210F0946502C0880F982BF8
:103E400090931503662351F060911503709116034A
:103E500080911703909118030E94201A6091150316
:103E6000669570E04BE050E086E191E00E94BE3143
:103E7000892B19F01092BC0202C00E94FB1E81E047
:103E80008093B50240911803609117038091160347
:103E90000E94101C0895682F90911503969581E05B
:103EA000890F8B3208F081E00E94111F089581E094
:103EB0000E944B1F0895682F9091150396958FEFE0
:103EC000890F09F48AE20E94111F089581E00E947F
:103ED0005B1F089561E00E94111F0895E5E1F3E082
:103EE00080818160808386950E946A1F08958091F9
:103EF000150380FF03C00E94D01E08950E946E1F0C
:103F0000089560E00E94111F08958091BA02811106
:103F10002EC00E948E11811104C00E941D120E94A9
:103F2000331A0E941B1A6093150370931603809333
:103F30001703909318036E7F61F40E94331A0E9456
:103F40001B1A6093150370931603809317039093C5
:103F500018030E94081A1092BC028091150380FF7A
:103F600003C086950E94811F81E08093BA02089564
:103F7000E5E1F3E080818160808386950E94811F66
:103F800008951092B9028091B80281110E94B81F61
:103F90000E94FB1E08950F931F93CF93DF93809190
:103FA000BC02882309F491C08091BB02E091150303
:103FB000E695E81BE093B402823049F4F0E0E85360
:103FC000FD4FE491CE2FD0E007ED1AE159C08630C5
:103FD00049F4F0E0EB53FD4FE491CE2FD0E00BEE2F
:103FE0001AE14EC0893051F4E695F0E0EE53FD4FF2
:103FF000E491CE2FD0E004E11CE142C08F3051F4B7
:10400000E695F0E0E154FD4FE491CE2FD0E00EE4D0
:104010001CE136C0853149F4F0E0E454FD4FE491F1
:10402000CE2FD0E00BEB1CE12BC08831D9F08332CE
:1040300039F4EAEBF2E0C591D4910BEF1AE120C01C
:104040008432A9F08532C1F48E2F63E00E9495304E
:10405000E92FF0E0E954FD4FE491CE2FD0E001EFDD
:104060001DE10EC0C8E2D0E00DE21DE109C0C4EFC1
:10407000D1E002EB1DE104C0C0EDD7E006EF19E18D
:104080008091B502882361F01092B5020E949B29AD
:104090009093B3028093B2021092B7021092B602CC
:1040A0000E949B29E091B202F091B3028E1B9F0BFC
:1040B0008F3F9F4750F4EC0FFD1FF093B302E09346
:1040C000B20282EB92E0F8010995DF91CF911F9146
:1040D0000F910895882311F0FA0101C0FB010995A1
:1040E0000895CF93DF93C82FD62F0E94431A8C17C1
:1040F00038F00E94431A8D1718F40E94571F03C00E
:104100008C2F0E946A1FDF91CF9108951F93CF9348
:10411000DF93FB011281111166C0EC010E949D101A
:104120008272FE01E052F847E531F10508F05AC00D
:10413000EE59FF4F0C94EB300E94771F54C046E6B7
:104140005FE167E57FE104C047E55FE166E67FE1A7
:104150000E946A2048C048EC5BE169EB7BE1F8CF44
:1041600049EB5BE168EC7BE1F3CF4AEE5BE169EDA3
:104170007BE1EECF49ED5BE16AEE7BE1E9CF4CE01C
:104180005CE16BEF7BE1E4CF4BEF5BE16CE07CE16A
:10419000DFCF47E75AE16FE57AE1DACF4FE55AE141
:1041A00067E77AE1D5CF81E015C065E082E017C00E
:1041B00068E086E014C06EE089E011C064E18FE041
:1041C0000EC067E185E10BC088E104C062E289E1CD
:1041D00006C083E20E946A1F06C06AE285E20E946E
:1041E000712001C011E0812FDF91CF911F910895BF
:1041F000849A21B32F7E31B330614FB7F894FC011C
:10420000CB01880F991F680F791F6E0F7F1FE6176C
:10421000F70789F0819198E031BB000000C087FF6B
:1042200021BB880F000000C000C000C021BB00C03F
:104230009A9591F7ECCF4FBF8FE594E00197F1F796
:1042400000C000000895EF92FF920F931F93CF9349
:10425000DF93EC017B0164E670E088E70E942A2787
:104260008C01EC0EFD1ECE15DF0561F017FD0AC0B6
:10427000FE01849164E670E00E949D278C012196E6
:10428000892B89F30E941428C801CDB7DEB7E6E078
:104290000C944A310895E2E3F3E080E092E0DF011C
:1042A0009C011D9221503040E1F7F0933705E093D7
:1042B00036058FEF9FEF9093E9028093E80208950F
:1042C0000E94D4050E944A218093E40280FD02C02E
:1042D00080E801C080E28093E3020E9424276DE021
:1042E00070E088EE94E00E942321892B11F080E099
:1042F00008958091E40263E070E081FD03C085EEE3
:1043000094E002C082EE94E00E942321892B79F789
:104310006DE070E085ED94E00E942321892B39F750
:104320000E94A729DC01CB01805A9541AF4FBF4FB6
:104330008093320590933305A0933405B0933505EF
:104340000E944B2181E08093E7028093E602109265
:10435000E50208952091E30236E0839FC001112415
:10436000629F800D911D1124811522E0920714F0A7
:1043700080E090E08E5C9C4F9093370580933605EB
:10438000089520913605309137052C5233404091E5
:10439000E302642F70E0C9010E94A130481B46303F
:1043A00010F4240F311D211582E0380710F020E0B1
:1043B00030E02E5C3C4F309337052093360508954E
:1043C0001F93CF93DF93162F8A3011F481E003C03F
:1043D0008D3021F480E00E94582266C0C0913605DD
:1043E000D091370596E0FE01ADEBB2E001900D9261
:1043F0009A95E1F7803E30F086E0FE0111928A95B1
:10440000E9F70BC0F6E08F9FB00111246B507B4F92
:1044100046E050E0CE010E94B531111135C0C09187
:104420003605D091370546E050E0BE018DEB92E0B5
:104430000E94CB31892BB1F1C253D3409E0185E05C
:10444000369527958A95E1F781E090E0AC0102C0AE
:10445000440F551F2A95E2F72091E8023091E902B6
:10446000242B352B259645E0D695C7954A95E1F73F
:1044700002C0880F991FCA95E2F7822B932B909365
:10448000E9028093E8020EC0E0913605F09137050D
:104490009F012A5F3F4F2E173F0709F280818095C9
:1044A0008193F9CF0E94C121DF91CF911F9108958F
:1044B000CF93E82F209136053091370522533340B2
:1044C0004091E302642F70E0C9010E94A130481BB3
:1044D000842FEE2359F066E00E949530C82FC1501A
:1044E000B0F060E080E20E94E021F9CFA901480F1E
:1044F000511D4115524018F080E020E030E0280FB7
:10450000311D2E5C3C4F3093370520933605CF91FB
:1045100008951F93CF93DF93EC01162FFE01849132
:10452000882329F0612F0E94E0212196F7CFDF91A7
:10453000CF911F9108950E94892281E00E94582204
:1045400008958091E7028823F9F00E94A729DC01F1
:10455000CB01805A9541AF4FBF4F80933205909366
:104560003305A0933405B09335058091E60281119F
:104570000BC062E070E083ED94E00E942321892B60
:1045800019F481E08093E6028091E6020895A0E0AC
:10459000B0E0EDECF2E20C9424318091E8029091CD
:1045A000E902892B09F4E3C08091E702882309F42A
:1045B000DEC08091E5028111DAC00E94A122209123
:1045C000E8023091E9022115310509F4D0C080E0FC
:1045D00041E050E0082F10E02A01082E02C0440CF0
:1045E000551C0A94E2F7B20162237323672B11F47E
:1045F0008F5FF0CF9091E402980165E0220F331FA6
:104600006A95E1F790FF13C055E0369527955A95C6
:10461000E1F7220F220F220F20932301109226018F
:10462000295F2093240183E08093270111C08295A4
:10463000880F807680932301220F232F221F330BB4
:10464000319520932601815E8093240110922701E9
:1046500024E630E047E050E061E271E088E70E9444
:10466000CC27892B09F083C08091E40280FF60C0D1
:1046700080E2E3ECF2E0DF011D928A95E9F7680140
:1046800035E0CC0CDD1C3A95E1F7ADEDB1E049ED3C
:1046900051E001EE11E0772473948D91EA01999134
:1046A000AE01B601690F711D6E5C7C4F90E08D53B9
:1046B0009D4FFC0127E0A22E9F01281B390B872C60
:1046C00001C0880C2A95EAF77B01912CE701B9908B
:1046D0007E01B8202A2D29192770622E022E000C87
:1046E000330BDB2D01C0DD0F6A94EAF76D2E319597
:1046F000219531092770332701C0B6942A95EAF72E
:10470000BD2A2081B22AB082939428E09212DECF93
:10471000AA943196CFEFAC12CFCF0A171B0709F03E
:10472000BCCF04E610E020E230E043EC52E00CC0E5
:10473000A80185E0440F551F8A95E1F74E5C5C4F58
:1047400004E610E020E230E060E488E70E94ED2714
:10475000892B69F4E201C095D0958091E80290918F
:10476000E902C823D923D093E902C093E802CDB768
:10477000DEB7E0E10C9440318091E7029091E602CF
:10478000882389F0992369F062E070E081ED94E07C
:104790000E942321892B19F08091E602089510923E
:1047A000E6029091E60281E08927089581E008956C
:1047B0000F931F938091E702882319F160E080E056
:1047C0000E94AA210E94D6050E94C7228091E6027B
:1047D0008823B9F00E94A729009132051091330572
:1047E0002091340530913505DC01CB01801B910B04
:1047F000A20BB30B8F3F9F4FAF4FBF4710F40E94E8
:10480000BC231F910F910895CF93DF93FC01DB012F
:1048100012968C91882309F4DDC09F013057233212
:10482000310508F0D8C0EF010E94A311909308034E
:1048300080930703FE01E150F047E232F10520F4D6
:10484000E958FF4F0C94EB30809107038160AAC0B8
:10485000809108038860B2C0809107038260A2C083
:104860008091070320C08091070388609BC08091DE
:1048700008031EC0809108038260A0C080910703D6
:10488000806190C08091070380628CC08091070393
:10489000806488C00E94A80B80910703806882C052
:1048A00080910703886084607DC0809108038260E6
:1048B000816084C0809107038E7F74C0809108035B
:1048C000877F7CC0809107038D7F6CC08091070338
:1048D00020C080910703877F65C0809108031EC0B8
:1048E000809108038D7F6AC0809107038F7E5AC034
:1048F000809107038F7D56C0809107038F7B52C044
:104900000E94A80B809107038F774CC0809107030A
:10491000877F8B7F47C0809108038D7F8E7F4EC03D
:104920008091070382FB222720F991E0922790FBD8
:1049300082F990FB83F936C080910803982F9095F7
:1049400091708E7F892B90FB81F938C0809107038D
:1049500086FB222720F991E0922790FB86F922C05E
:104960000E94A80B8091070387FB222720F991E082
:10497000922790FB87F916C081E001C080E00E9479
:1049800020121EC08091070384FB222720F991E0AA
:10499000922790FB84F906C080910703982F909589
:1049A00090FB80F9809307030BC08091080383FB81
:1049B000222720F991E0922790FB83F98093080346
:1049C00080910703909108030E94A8110E94A80BF0
:1049D00080E001C081E0DF91CF9108958FE891E000
:1049E0000197F1F700C000000895EF92FF920F9336
:1049F0001F93CF93DF9382E08093EC0203EF11E0EB
:104A0000C1EFD1E0AE01D80121E030E08D91E82F77
:104A1000E295EF70F0E061A18F70790102C0EE0CB9
:104A2000FF1C8A95E2F7C7019E2D9095962391A3CE
:104A300092A1892B82A3FA018191AF01E82FE2951F
:104A4000EF70F0E061A18F70790102C0EE0CFF1CE5
:104A50008A95E2F7C7019E2D9095962391A392A186
:104A6000892B82A381E0A53FB80781F60E94EE243E
:104A70005091EC02EFEEF2E040E0451741F1D80131
:104A80002D918D01A22FA295AF70B0E090968C91E0
:104A900090E02F7002C0959587952A95E2F7817076
:104AA0009991A92FA295AF70B0E090962C9130E02B
:104AB0009F7002C0359527959A95E2F720FD02C0B8
:104AC00090E001C092E0892B81934F5FD6CFCDB7A4
:104AD000DEB7E6E00C944A31A4E1B0E0E2E7F5E2AB
:104AE0000C94273110E000E084E0C82ED12C9DEF1B
:104AF000992E882483942CEF722E8091EC02181743
:104B000008F0C0C0E12EF12CF701ED50FE4F80817E
:104B1000E82FE295EF70F0E0E0A1F0E08F7002C0C6
:104B2000F595E7958A95E2F7E170D701AF50BE4F52
:104B30002C91A22FA295AF70B0E090968C9190E04E
:104B40002F7002C0959587952A95E2F780FD02C0E7
:104B500080E001C082E08E2BD701A151BD4FEC91C6
:104B60002E2F237030E0482F082E000C550B2417F1
:104B7000350709F485C0EE0FEE0FE82BEC93EF70CC
:104B8000F0E0EF51FE4FC70183519D4F5C019081D2
:104B9000F5018081890F8083843094F1F701E6511B
:104BA000FD4F80818F5F80830E949B291B877C86BD
:104BB0008D868160782F9F878E87412F5CEF61E023
:104BC0008F850E94AE078FE39CE90197F1F700C043
:104BD00000000E949B29188B798A1A8A8160782F9D
:104BE0009C8B8B8B412F5CEF60E08C890E94AE0721
:104BF000EFE3FCE93197F1F700C0000021E001C0CC
:104C000020E0F50180818D3F8CF5F701E651FD4FE5
:104C10008081815080830E949B2919839A828B8294
:104C20008160782F9D838C83412F5DEF61E08D81C2
:104C30000E94AE078FE39CE90197F1F700C00000E6
:104C40000E949B291E839F8218868160782F9A87F5
:104C50008987412F5DEF60E08A850E94AE07EFE310
:104C6000FCE93197F1F700C0000021E0F5018081F7
:104C7000082E000C990BB6010E94B5308083022BE0
:104C80001F5F3BCF802F6496EDE00C944331CF93B0
:104C9000DF9386319C4741F5EB010E949D10982FD0
:104CA0008A812091040130910501882379F09A7A54
:104CB00081E009F480E08093F102911102C069E281
:104CC00001C065E3C9010E94D7280AC08091F102A2
:104CD000811102C069E201C065E3C9010E94DA28BE
:104CE0000E94E11080E001C081E0DF91CF91089542
:104CF0000F931F93CF93DF93C42FD22FFC01828198
:104D00008823B1F04093F4020E949B299093F30210
:104D10008093F20280E28C0F883008F04DC0C7709B
:104D200081E001C0880FCA95EAF70E94370944C0A4
:104D30008091F402481330C08091F2029091F30206
:104D40000E94B329883C910538F510E21D0FCD175C
:104D5000B9F080E28C0F883040F4C77081E001C068
:104D6000880FCA95EAF70E943E09183010F581E0D5
:104D70009D2F977001C0880F9A95EAF70E94370916
:104D8000802F0E942D091830B8F4D77081E001C03F
:104D9000880FDA95EAF70AC080E28C0F883060F459
:104DA000C77081E001C0880FCA95EAF70E943E09EA
:104DB00003C0802F0E942D09DF91CF911F910F9189
:104DC00008950F93FC01E851FC47E730F10590F599
:104DD000CB01E756FF4F0C94EB3006E221EE41EE9B
:104DE0006AE17CE723C007E225EE45EE6BE17CE754
:104DF0001DC006E221EE40EE68E17CE717C007E245
:104E000025EE44EE69E17CE711C006E221EE42EEB8
:104E10006CE17CE70BC007E225EE46EE6DE17CE736
:104E200005C008E221E045EE6EE17CE70E947826AD
:104E300080E008C0FB018281882319F01092F402FF
:104E400001C081E00F9108951092B9008CE0809329
:104E5000B8000895A0E0B0E0E0E3F7E20C94293157
:104E6000B82EEB010E949B296C01C431D10558F08A
:104E7000CF3F8FEFD80759F0CE0164E170E00E9478
:104E8000A1307B0107C0EE24E394F12C03C025E0A0
:104E9000E22EF12C84E8A82E94EA992E1092BC0000
:104EA0009092BC000E949B298C018091BC0087FDE0
:104EB00007C0C8010E94B329E816F906B0F729C057
:104EC0008091B900887F883041F08091B900887F57
:104ED000803119F00FEF1FEF1EC0B092BB00A092FF
:104EE000BC000E949B298C018091BC0087FD07C0FB
:104EF000C8010E94B329E816F906B0F70AC08091EC
:104F0000B900887F883111F0803421F700E010E08B
:104F10000EC00EEF1FEFCF3F8FEFD80709F4BECFC3
:104F2000C6010E94B329C817D90708F0B7CFC80136
:104F3000CDB7DEB7EBE00C9445310F931F93CF93C1
:104F4000DF93EB018093BB0084E88093BC000E9458
:104F50009B298C018091BC0087FD0DC0CF3F8FEF56
:104F6000D807C1F3C8010E94B329C817D90790F721
:104F70008EEF9FEF0CC02091B900287F81E090E078
:104F8000283211F480E090E0919581959109DF91AC
:104F9000CF911F910F910895A0E0B0E0E2EDF7E20C
:104FA0000C942C316B018A017901B9010E942A27E6
:104FB000E6010C0D1D1DC017D10741F424E9209313
:104FC000BC00CDB7DEB7E8E00C94483197FDF6CFD2
:104FD000B70189910E949D27EECFA0E0B0E0E3EFFA
:104FE000F7E20C942C31C62F6A017901B8010E94B6
:104FF0002A2797FD11C0B8018C2F0E949D27E6013A
:10500000EC0CFD1CCE15DF0539F097FD05C0B8018D
:1050100089910E949D27F6CF24E92093BC00CDB74B
:10502000DEB7E8E00C94483184E98093BC00089531
:105030009093F7018093F60108959093FA0280937C
:10504000F9020895E091F902F091FA02309729F0FF
:105050000190F081E02D0995089580E008950E9467
:1050600022280895E091F902F091FA02309721F098
:105070000280F381E02D09950895E091F902F09105
:10508000FA02309739F022E0DC012C930480F5819C
:10509000E02D09950895A3E0B0E0E1E5F8E20C9475
:1050A00032312091F7023091F80228173907A1F028
:1050B0009093F8028093F702E091F902F091FA02DE
:1050C000309751F023E029839B838A830680F78100
:1050D000E02DCE01019609952396E2E00C944E3125
:1050E000A3E0B0E0E6E7F8E20C9432312091F5025B
:1050F0003091F60228173907A1F09093F6028093B9
:10510000F502E091F902F091FA02309751F024E0B3
:1051100029839B838A830680F781E02DCE01019647
:1051200009952396E2E00C944E31FC01329697E00B
:1051300080E0915029F021912223D9F38F5FF9CF9C
:105140000895662349F0FC01329608962191621772
:1051500029F0E817F907D1F780E0089581E0089574
:105160009C01FC0132969FEF80E04191461789F047
:105170009F3F19F4411101C0982F8F5F8630A9F726
:105180009F3F39F0F901E90FF11D97FDFA95628310
:10519000089508959C012A5F3F4FFC014281461308
:1051A00001C01282019682179307B9F708950E94F1
:1051B000B02808950E94CA280895029626E0FC01AE
:1051C00011922A95E9F7089546E050E00E94CB310C
:1051D00021E0892B09F420E0822F089508950E9490
:1051E000EE28089583E08093FB020E94EF28089543
:1051F000811102C081E001C082E08093FB020E9425
:10520000EF2808950E94F828089581E08093FB021A
:105210000E94EF2808950E940529089508950E948C
:105220000E2908950E940F2908950E940E290895BD
:105230000E940E2908950E940E290895CF930E947E
:1052400018290E9449160E941529C0E08C2F0E943F
:105250008115811104C0CF5FC630C1F701C081E064
:10526000CF91089585B7806885BF85B7806885BF71
:1052700008951F920F920FB60F9211248F939F9350
:10528000AF93BF938091FC02811113C080913805C8
:1052900090913905A0913A05B0913B054196A11D29
:1052A000B11D8093380590933905A0933A05B093CA
:1052B0003B05BF91AF919F918F910F900FBE0F90C3
:1052C0001F90189580914005843031F10E94390774
:1052D0001092FC0220E488E190E00FB6F894A895C3
:1052E000809360000FBE2093600083B7817F84604D
:1052F00083BF83B7816083BF7894889583B78E7F9F
:1053000083BF0FB6F894A895809160008861809360
:105310006000109260000FBE08950E94A80B0E94CA
:105320004207089582E084BD93E095BD9AEF97BD52
:1053300080936E0008952FB7F8948091380590916E
:105340003905A0913A05B0913B052FBF08952FB7BD
:10535000F894609138057091390580913A059091E3
:105360003B052FBF08959C014FB7F89480913805F5
:1053700090913905A0913A05B0913B054FBF821B32
:10538000930B089578941F920F920FB60F921124E9
:105390008F939F93AF93BF93809138059091390578
:1053A000A0913A05B0913B050196A11DB11D8093D6
:1053B000380590933905A0933A05B0933B05BF910A
:1053C000AF919F918F910F900FBE0F901F901895E6
:1053D00087E797E790930108809300089AE088E1B7
:1053E0000FB6F894A895809360000FBE909360006C
:1053F000FFCF9AE088E10FB6F894A89580936000FB
:105400000FBE90936000FFCF8091050308959B012C
:10541000909140059430F1F48F708093E9008FEF04
:105420009091E800815095FD06C095ED9A95F1F7B1
:1054300000008111F5CF8091E80085FF0BC0BA0113
:10544000C90140E050E00E94072C8091E8008E776F
:105450008093E800089543E050E0BC0182E00E94A0
:10546000072A089546E050E0BC0182E00E94072A26
:105470000895CF93DF93EC0148E050E0BC0181E058
:105480000E94072A88E0FE01ADEFB2E001900D9284
:105490008A95E1F7DF91CF91089580913F058111C1
:1054A00009C00E94922D0E94EF2D8091E20084603D
:1054B0008093E200089510923F0508950E940B2901
:1054C000089560913C0581E0611101C080E00E9477
:1054D000F22808959091400581E0943009F080E031
:1054E00060913C050E94F828089542E061EC81E05B
:1054F0000E940B2D42E261EC82E00E940B2D909104
:10550000400581E0943009F080E060913C050E9404
:105510000229089580914205833009F461C030F476
:10552000813071F0823009F49BC008958A3009F40B
:1055300087C08B3009F46CC0893009F0A9C020C045
:1055400080914105813A09F0A3C08091E800877FEE
:105550008093E8008091450590914605892B21F4C0
:1055600068E08DEF92E003C060E080E090E070E0E2
:105570000E944C2C8091E8008B778093E80008957E
:1055800080914105813209F083C080914505909159
:105590004605029708F07CC08091E800877F8093E1
:1055A000E8008091E80082FD05C0809140058111EE
:1055B000F8CF6EC02091F3008091F20090E0922B22
:1055C000029731F48091F100813011F0863021F49E
:1055D0008091F100809305038091E8008B7754C09F
:1055E00080914105813A09F053C080914505909121
:1055F0004605892B09F04CC08091E800877F809395
:10560000E8008091E80080FFFCCF8091300137C036
:10561000809141058132E1F58091450590914605E3
:10562000892BB1F58091E800877F8093E8000E9484
:10563000402D80914305809330010E94A80B08956E
:1056400080914105813221F58091E800877F809328
:10565000E8000E94402D8091440580930603089540
:1056600080914105813AA1F48091E800877F809381
:10567000E8008091E80080FFFCCF809106038093D2
:10568000F1008091E8008E778093E8000E94402D21
:10569000089584B7877F84BF0FB6F894A89580914A
:1056A0006000886180936000109260000FBE90E0FF
:1056B00080E80FB6F89480936100909361000FBE6C
:1056C0000E94052908950E94922D0E94EF2DE2EE7E
:1056D000F0E080818460808378940E947A3008951D
:1056E00088E291E00E941D28089580914005853050
:1056F000A9F480914005853079F40E946229809157
:105700003E058823B1F30E941E29882391F30E944D
:10571000F12B0E94A80BEDCF0E948D2908950895CA
:105720009A0140914705509148050E94982B089591
:10573000492F552743305105C9F060F441305105D8
:1057400081F04230510509F044C08BE390E041E61E
:105750005AE043C041325105E1F04232510549F16E
:1057600038C082E190E04CE95AE037C09927813097
:10577000910549F028F0029761F5E5E3FAE005C0EC
:10578000EDE5FAE002C0E9E4FAE0849190E0AF01CF
:1057900024C06115710541F061307105D1F489E0D3
:1057A00090E04CE85AE019C089E090E043E75AE005
:1057B00014C06115710541F06130710551F48BE73A
:1057C00090E04EEA5AE009C080E490E049E25BE0F4
:1057D00004C080E090E040E050E0F9015183408354
:1057E000089580E189BD82E189BD09B400FEFDCF45
:1057F0008091D8008F7D8093D8008091E0008260F6
:105800008093E0008091E00081FDFCCF0895A0E04E
:10581000B0E0EDE0FCE20C942C31EC018B017A015C
:105820000E945F2D811133C0E114F10439F0F701BA
:1058300080819181081B190BC80FD91FC12CD12C55
:105840000115110519F18091E80085FD16C08091C0
:10585000E8008E778093E800E114F10449F0F70145
:1058600080819181C80ED91ED182C08285E00FC08F
:105870000E945F2D882321F30AC089918093F10053
:1058800001501109FFEFCF1ADF0ADACF80E0CDB760
:10589000DEB7E8E00C944831209147053091480587
:1058A0002617370748F06115710539F42091E80093
:1058B0002E772093E80001C0B901FC0120E06115BA
:1058C000710579F1809140058823F1F18530F1F17E
:1058D0008091E80083FD3CC08091E80082FD2EC0ED
:1058E0008091E80080FFEBCF2091F3008091F200DF
:1058F00090E0922B6115710551F08830910538F4D4
:1059000021912093F100615071090196F3CF21E0BC
:10591000089709F020E08091E8008E778093E800F6
:10592000CECF2111CFCF0AC080914005882361F0EE
:10593000853061F08091E80083FD0AC08091E80025
:1059400082FFF2CF80E0089582E0089583E0089519
:1059500081E00895209147053091480526173707C3
:1059600048F06115710539F42091E8002E772093F5
:10597000E80001C0B901FC0120E06115710591F159
:1059800080914005882309F440C0853009F43FC068
:105990008091E80083FD3DC08091E80082FD2FC02A
:1059A0008091E80080FFE9CF2091F3008091F20020
:1059B00090E0922B6115710559F08830910540F403
:1059C00024912093F1003196615071090196F2CF34
:1059D00021E0089709F020E08091E8008E7780931D
:1059E000E800CBCF2111CCCF0AC08091400588239D
:1059F00061F0853061F08091E80083FD0AC08091FC
:105A0000E80082FFF2CF80E0089582E0089583E00D
:105A1000089581E00895982F973068F59093E900F4
:105A2000981739F07091EC002091ED005091F00042
:105A300003C0242F762F50E021FD02C09F5FECCFE2
:105A40003091EB003E7F3093EB003091ED003D7FD5
:105A50003093ED003091EB0031603093EB007093A8
:105A6000EC002093ED005093F0002091EE0027FD14
:105A7000E5CF80E008958F708093E90081E008957C
:105A80008091410587FF11C08091E80082FD05C02B
:105A9000809140058111F8CF11C08091E8008B778B
:105AA0000BC080914005882349F08091E80080FF79
:105AB000F8CF8091E8008E778093E80008952091D8
:105AC000E4003091E50095E64091EC00842F817070
:105AD00040FF23C08091E80080FD1DC080914005FB
