:100000000C9461070C947E070C947E070C947E0779
:100010000C9412340C947E070C947E070C947E078B
:100020000C947E070C947E070C9444170C94A71B29
:100030000C942D290C947E070C947E070C947E075B
:100040000C947E070C947E070C947E070C947E071C
:100050000C947E070C941D180C947E070C947E075C
:100060000C947E070C947E070C947E070C947E07FC
:100070000C947E070C947E070C947E070C947E07EC
:100080000C947E070C947E070C947E070C947E07DC
:100090000C947E070C947E070C947E070C947E07CC
:1000A0000C947E070C947E070C947E0705010902D0
:1000B000A10185020901A100050919012905150001
:1000C00025019505750181029501750381010501E1
:1000D000093009311581257F950275088106093897
:1000E0001581257F950175088106050C0A380215D2
:1000F00081257F950175088106C0C005010980A191
:1001000001850319012AB700150126B7009501756D
:10011000108100C0050C0901A101850419012AA064
:1001200002150126A002950175108100C00660FF2E
:100130000961A1010962150026FF0095207508815B
:10014000020963150026FF00952075089102C0057D
:10015000010906A101050719E029E7150025019508
:1001600008750181029501750881010507190029AB
:10017000FF150026FF009506750881000508190186
:100180002905950575019102950175039101C0003E
:10019000000000000000000000000000000000005F
:1001A000000000000000000000000000000000004F
:1001B0000000007E0F00D4FFFFFFC70000007800A2
:1001C000000000000000002A2B28000000000000B2
:1001D0000000000000000000000029000000002CCA
:1001E0001E3420212224342627252E362D37382769
:1001F0001E1F202122232425263333362E37381F75
:100200000405060708090A0B0C0D0E0F1011121336
:100210001415161718191A1B1C1D2F3130232D35D4
:100220000405060708090A0B0C0D0E0F1011121316
:100230001415161718191A1B1C1D2F3130354C00B8
:10024000DA0281FFD9F1DB20A4A62EAF00A0C00006
:10025000A1C800AED580A81FD300408D1420006433
:100260003214783C1E208E8F9000CACBCCCD00AAD1
:10027000ABACADAE008A8B8C8D00202020200053CB
:100280004352200020202020004341502000202005
:100290002020004E554D200000556E6465660046D6
:1002A0004E203300464E203200464E20310042613F
:1002B0007365004C6179657200FD377A585A000009
:1002C00004E6D6B4460200210116000000742FE5B2
:1002D000A3E00777026F5D003D8889C65436C317D7
:1002E0004FE4E2A41EBE23B1C76ABBF4BDA1A72B95
:1002F00045BFC091E793FFD7565F991B20FE933708
:100300006A23BB42C4F995CF78285AC8D8965F4172
:100310009FA38CBC0CC3BBBD72DE8E122B8EEB0C6C
:100320009EB5DF0CE1ED3F53BA935657EFECA49D19
:10033000C27449112C381959288962AE7194365A01
:1003400003A96DE9C0C16A22609F37EB8E52BC20C1
:10035000E08CECBABD30A1B5EE65047042BE18B9B0
:100360000FA1EAEF436D14D679B02F9405A55284FE
:10037000BC9B5901427CAAE5922C4FC84723F7E564
:10038000A9D81FBF7D445AC94D07A9CC88F21017C0
:10039000C1509621420F83FFDB566DA0A7CEDE80B1
:1003A00008955DF4C1E49FE560DEE76C10807A6C2F
:1003B000694FDDECDF069613F463E4EE918D7FE088
:1003C00082C5B3C5539362D6A12B270E918723B95B
:1003D000C12B5604B520ECF59415B0C812ED84C6B7
:1003E0006F7060D754FDD2392385C2B7650F8D99E0
:1003F0002D8948FEDBC385D4C0959D1D4D814C35AC
:100400009A2680169215ABA9AB6D78812FC75470D0
:1004100009BCE923FAFE4E5E4809198DA8668827B3
:100420000DBE8CF5B3DE819D03CC51602B4D8583D1
:10043000AEC16DDDC860DF48965F5E50B154BCA1AF
:10044000F111472AF8D0A29E96D7A721013C94CC5F
:1004500075CFCDDEF4029D602DAEC3080C64C3F4ED
:10046000AE8A41909B535AC182AACCBABC66F34271
:100470007343DE56D1C9C9D695EFA3D87272AA4488
:10048000E89317931533DD939F7BC3A26A5D56F6FD
:100490006CB325C93135027048A425368E7436D91F
:1004A0004ED2EB4D45DB2B38AE8425ACDD47AC8A14
:1004B00010DEC8CF82C39C2BEB177A0FA8A07B6EEF
:1004C0009F9FA6550FEDC99D13B9D83A6876A248EB
:1004D000B0BFD4C758B9BC5BF2FBE87C41E241BB7A
:1004E000A8A1250A63447E2B3C5B4C25BC7BC90735
:1004F0006F9345972F321EFA13F408B25620A210BC
:1005000017683BD46CBDFB1F20C1B777B2653EFEB8
:10051000D4791C4669C370A4732DD35BFB341A6372
:1005200018E966BDE96250ACD7D238F79C955F6890
:10053000C2058552922E6D3ACFF9BF806BACDBE8D5
:10054000CA0B20A90495000000C7AFBAFE8D44AACB
:100550002800018B05F80E0000F4AC8E36B1C4679C
:10056000FB020000000004595A00010101010101D1
:10057000010101020202020202020202030303035A
:10058000030303030404040404040405050505052A
:1005900006060606060707070707080808080909E8
:1005A00009090A0A0A0B0B0B0C0C0C0D0D0D0E0E93
:1005B0000E0F0F0F10101111111212131314141526
:1005C0001516161717181819191A1A1B1B1C1D1D9A
:1005D0001E1E1F20202122222324242526262728F0
:1005E00029292A2B2C2D2D2E2F3031323233343520
:1005F000363738393A3B3C3D3E3F40414243444523
:10060000464748494A4C4D4E4F5051535455565801
:10061000595A5B5D5E5F616264656668696B6C6DAB
:100620006F7072737577787A7B7D7E808283858721
:10063000888A8C8E8F91939596989A9C9EA0A2A35F
:10064000A5A7A9ABADAFB1B3B5B7BABCBEC0C2C464
:10065000C6C9CBCDCFD1D4D6D8DBDDDFE2E4E7E924
:10066000EBEEF0F3F5F8FAFDFFAA00A90001000196
:100670000001000100010001004B004E00010001DB
:10068000000100010001000100165C1E001F002097
:1006900000210022002B0014001A0008001500178A
:1006A00000015104001600070009000A00E10001E2
:1006B000001D001B0006001900E000E300E200023C
:1006C000512C412C42C45C0500A8000B001C0023E7
:1006D000002500260027002D0001002A001C00181C
:1006E000000C001200130031000B000D000E000F73
:1006F000003400280011001000360037005200E5D9
:10070000002C422C410251500051004F0024003374
:10071000000500A800C35C000045003A003B003C17
:10072000003D003E00010001000100010001000148
:1007300000010001000100010001000100010001B1
:1007400000010001000100010001000100010001A1
:100750000001000100010001000100010001003F53
:100760000041004200430044004C00010001000130
:100770000001002F00300001000100010001000114
:1007800000010033000100010001003800010001F8
:100790000001000100010001000100010040000112
:1007A0000001000100010000000100010001000142
:1007B0000001000100010001000100010001000131
:1007C0000001000100010001000100010001000121
:1007D0000001000100010001000100010001000111
:1007E0000001000100010001000100010001000101
:1007F00000010001000100010001000100010001F1
:1008000000010001000100010001000100010001E0
:1008100000010001000100010001000100010001D0
:1008200000010001000100010001000100010001C0
:1008300000010001000100000001000100010001B1
:1008400000010001000100010001000100010001A0
:100850000001000100010001000100010001000190
:100860000001000100010001000100010001000180
:10087000000100010001000100C35C010001000152
:100880000001000100010001000100010001000160
:100890000001000100010001000100010001000150
:1008A0000001000100010001000100010001000140
:1008B0000001000100010001000100010001000130
:1008C00000010001000100000000AF00AE09025B62
:1008D00000030100A0FA090400000103010100095E
:1008E00021110100012240000705810308000109D0
:1008F000040100020300000009211101000122226D
:1009000000070582032000010705030320000109F9
:1009100004020001030000000921110100012281ED
:1009200000070584032000011201000200000008F6
:10093000776D0B170301010203011C0376006900A8
:1009400061006C003A00660036003400630032003B
:10095000620033006300000010034D006F006B0065
:1009600075006C0075006100000012034D00650009
:1009700063006800570069006C0064000000040315
:1009800009040000000000003E5B4F5B3E003E6B30
:100990004F6B3E001C3E7C3E1C00183C7E3C180009
:1009A0001C577D571C001C5E7F5E1C0000183C1805
:1009B0000000FFE7C3E7FF00001824180000FFE76E
:1009C000DBE7FF0030483A060E0026297929260089
:1009D000407F05050700407F05253F005A3CE73C66
:1009E0005A007F3E1C1C0800081C1C3E7F0014227D
:1009F0007F2214005F5F005F5F0006097F017F00B8
:100A0000006689956A0060606060600094A2FFA241
:100A1000940008047E04080010207E2010000808BE
:100A20002A1C0800081C2A0808001E1010101000BC
:100A30000C1E0C1E0C0030383E383000060E3E0EE8
:100A4000060000000000000000005F00000000073A
:100A500000070000147F147F1400242A7F2A12004C
:100A6000231308646200364956205000000807032B
:100A70000000001C224100000041221C00002A1C32
:100A80007F1C2A0008083E08080000807030000023
:100A90000808080808000000606000002010080432
:100AA00002003E5149453E0000427F40000072492D
:100AB000494946002141494D33001814127F100066
:100AC0002745454539003C4A494931004121110932
:100AD0000700364949493600464949291E000000A9
:100AE00014000000004034000000000814224100FF
:100AF00014141414140000412214080002015909AE
:100B000006003E415D594E007C1211127C007F4967
:100B1000494936003E41414122007F4141413E006A
:100B20007F49494941007F09090901003E4141517E
:100B300073007F0808087F0000417F4100002040CB
:100B4000413F01007F08142241007F4040404000A7
:100B50007F021C027F007F0408107F003E4141415C
:100B60003E007F09090906003E4151215E007F09D0
:100B70001929460026494949320003017F01030033
:100B80003F4040403F001F2040201F003F40384072
:100B90003F006314081463000304780403006159E0
:100BA000494D4300007F41414100020408102000EC
:100BB000004141417F0004020102040040404040E6
:100BC00040000003070800002054547840007F28AC
:100BD00044443800384444442800384444287E00C3
:100BE00038545454180000087E0902001824241CAC
:100BF00078007F080404780000447D400000204015
:100C0000403D00007F102844000000417F4000006C
:100C10007C04780478007C08040478003844444458
:100C200038007C1824241800182424187C007C0820
:100C30000404080048545454240004043F4424008D
:100C40003C4040207C001C2040201C003C403040A8
:100C50003C004428102844004C9090907C00446450
:100C6000544C4400000836410000000077000000AA
:100C70000041360800000201020402003C2623263F
:100C80003C00000000E0FEFFFEF8C0000000000095
:100C9000E0FCFFFEF0C00000000000000000013E8C
:100CA000E080700E0100000000073CE08078070043
:100CB0000000000000000000000000000000000034
:100CC00000E0FEFFFEF8C00000000000E0FCFFFEB8
:100CD000F00000000000013EE080700E0100000006
:100CE00000073CE0807807000000000000000000E2
:100CF00000000000000000000000000000000000F4
:100D000000000000000000000000000000000000E3
:100D100000000000000000000000000000000000D3
:100D200000000000000000000000000000000000C3
:100D300000000000000000000000000000000000B3
:100D400000000000F8FFFF1F071FFFFEF0C0F8FFC4
:100D5000F707077FFFFFF800C0380C18608000001D
:100D600000F00C04F41C00000000000080C0FCE651
:100D7000C3C1C1C3E6FCC080000000000000000049
:100D8000F8FFF707071FFFFEF0C0F83F8F0F3FFF88
:100D9000FFFE80F00C04F41C0000000000000000C6
:100DA0000000000000000000000000000000000043
:100DB0000000000000000000000000000000000033
:100DC0000000000000000000000000000000000023
:100DD0000000000000000000000000000000000013
:100DE0000000000000000000000000000000000003
:100DF00000000000000000000000000000000000F3
:100E00000000001F1F1F0700000000031F1F0F012D
:100E10000306F800077F3F0EC138070E70831C6081
:100E20001E03C03E01000000000000003F7FFFFFE6
:100E3000F9C0C0F9FFFF7F3F000000000000001F65
:100E40001F1F0706F80000733F0FC138070F70839C
:100E5000077F1F03C03E01000000000000000000EB
:100E60000000000000000000000000000000000082
:100E70000000000000000000000000000000000072
:100E80000000000000000000000000000000000062
:100E90000000000000000000000000000000000052
:100EA0000000000000000000000000000000000042
:100EB0000000000000000000000000000000000032
:100EC000000011241FBECFEFDAE0DEBFCDBF11E07E
:100ED000A0E0B1E0E0E2FCE602C005900D92A43E85
:100EE000B107D9F725E0A4EEB1E001C01D92A63804
:100EF000B207E1F70E9454290C94EA350C940000E3
:100F000090917B03899FC0011124811522E09207F3
:100F100014F090E080E082589C4F90938505809378
:100F200084050895E8EDF0E080818E7F8083109243
:100F3000E2001092DA001092E100A0EEB0E08C9195
:100F400081608C9380818F77808319BCA7EDB0E09E
:100F50008C918E7F8C9380818F7E80831092600332
:100F600008952091E4003091E50095E6A9012091D3
:100F7000EC00822F817020FF06C08091E80080FF86
:100F800006C080E008952091E80022FD1AC08091FB
:100F90007603882389F0853089F08091EB0085FD08
:100FA0000FC02091E4003091E50042175307F9F299
:100FB0009150E1F684E0089582E0089583E0089579
:100FC00081E00895EF92FF920F931F93CF937C01DE
:100FD0008B010E94B107C82F811117C08091E800D2
:100FE00085FD0BC08091E8008E778093E8000E9419
:100FF000B107882399F3C82F08C0F70181917F01B9
:101000008093F1000150110949F78C2FCF911F9166
:101010000F91FF90EF900895CF93FC01809176039C
:10102000843001F5C091E900CF702091EC00922F3F
:10103000917020FD90E8C92B82E08093E9008091B7
:10104000E80080FF0CC050E040E060E270E0CF01BB
:101050000E94E2078091E8008E778093E800CF70CD
:10106000C093E900CF91089580916E0387FF13C06C
:101070008091E80082FF06C08091E8008B77809322
:10108000E80004C0809176038111F2CF0895809129
:1010900076038823D9F38091E80080FFF8CF809110
:1010A000E8008E77ECCF982F9093E900242F762FCD
:1010B00050E0891731F07091EC002091ED005091D3
:1010C000F00021FD07C09F5F973071F78093E90022
:1010D00081E008953091EB003E7F3093EB0030913A
:1010E000ED003D7F3093ED003091EB0031603093A7
:1010F000EB007093EC002093ED005093F0002091F2
:10110000EE0027FDE0CF80E00895CF92DF92EF92CE
:10111000FF920F931F93CF93DF93C8EDD0E08881A8
:101120008F7E8883E7EDF0E080818160808384E0BA
:1011300082BF81E08093600388818E7F888302EE86
:1011400010E0F80110821092DA0081EEC82ED12C46
:10115000F601108288818F778883888180688883F0
:1011600088818F7D888319BC1092760310926D035D
:1011700010926C0310926B0390EEE92EF12CF701A4
:1011800080818B7F808388818160888342E060E0FA
:1011900080E00E945308F60180818E7F8083F801F1
:1011A000808181608083808188608083F701808175
:1011B0008E7F8083888180618883DF91CF911F91AA
:1011C0000F91FF90EF90DF90CF900895FC018091F8
:1011D00074039091750386179707A0F06115710548
:1011E00029F49091E8009E779093E80090E06115D3
:1011F000710551F4911108C08091E80082FF34C05C
:1012000080E00895BC01F2CF809176038823C1F17C
:101210008530C1F18091E80083FD30C08091E80005
:1012200082FDEACF8091E80080FFE1CF8091F3005A
:101230002091F200382F6115710519F02830310521
:1012400058F091E02830310509F090E02091E80055
:101250002E772093E800CBCF81918093F1006150ED
:1012600071092F5F3F4FE7CF80917603882341F0CC
:10127000853041F08091E80083FFBECF81E0089582
:1012800082E0089583E008950895809162030895AF
:1012900087E797E7909301088093000888E19AE038
:1012A0000FB6F894A895809360000FBE90936000ED
:1012B000FFCF2FB7F8946091590370915A03809132
:1012C0005B0390915C032FBF08959C01FC01329653
:1012D0009FEF80E04191461751F09F3F19F4411173
:1012E00001C0982F8F5F8630A9F79F3F09F40895BA
:1012F000290F311D97FD3A95F901628308952091D8
:101300005603309157032817390771F0909357030C
:1013100080935603E0915403F0915503309721F0E8
:101320000084F185E02D09940895209152033091B5
:1013300053032817390771F0909353038093520396
:10134000E0915403F0915503309721F00680F78126
:10135000E02D09940895FC01680F791F8FEF91E348
:101360002191822728E030E087FF09C0880F892774
:1013700021503109C9F7E617F70791F70895880F4B
:10138000F7CFFA01811101C0FB0109940895ECE047
:10139000F3E01182828184608283089580913F030B
:1013A000982F9E7F29F48170826080933F03089577
:1013B0008631E8F381708461F8CFAF92BF92DF92FB
:1013C000EF92FF920F931F93CF93DF93082F162F67
:1013D000E901E42FF0E0E759FA4F611110C0E49100
:1013E0005E2F4E2F4983E8835A83DF91CF911F915F
:1013F0000F91FF90EF90DF90BF90AF900895E62E91
:10140000F12C4491D42EE42FF0E026E0829FC0011D
:1014100011242FEF30E0B9010E942E35802F90E08B
:10142000880F991F55E5569FD001579FB00D112485
:101430008A1B9B0B982F990F890F5901AE18BF0873
:10144000AE9ED001AF9EB00DBE9EB00D11245B2F9D
:10145000189F80011124012F11275901A01AB10AE8
:10146000AE9E8001AF9E100DBE9E100D112459013D
:10147000A81AB108AE9CC001AF9C900DBE9C900D07
:101480001124892F9927281B390B2E9FC0012F9FCC
:10149000900D3E9F900D1124E92F62307105A1F04F
:1014A00050F46115710509F49DCF6130710581F02B
:1014B000EB2F512F97CF6430710569F080F06630C3
:1014C000710509F48FCFF4CFE42F4B2F592F8ACF1A
:1014D000E42F412F87CFEB2F542F492F83CF4B2F52
:1014E0005D2DE12F7FCF90910203803F59F48091D1
:1014F000030387FF0DC01092030391110BC01092DC
:10150000FA0208C0813F81F48091030318169CF30E
:10151000992381F08091040390910503892B09F0B0
:1015200064C01092F9020895823F49F497FFF0CF0A
:1015300010920203809103038111ECCFE0CF833F2F
:1015400019F41916ACF3E4CF20910403893F29F470
:101550001216F4F610920403DBCF8A3F19F427FF2A
:10156000D7CFF8CF209105038B3F29F427FFD0CFA9
:1015700010920503CDCF8C3F19F41216CCF3C8CFCF
:10158000843F31F4809101038E7F80930103C0CFAB
:10159000853F21F4809101038D7FF7CF863F21F4B1
:1015A000809101038B7FF1CF873F21F4809101036C
:1015B000877FEBCF883F21F4809101038F7EE5CFB9
:1015C0008D3F31F48091FB028E7F8093FB02A0CF90
:1015D0008E3F21F48091FB028D7FF7CF8F3F09F082
:1015E00097CF8091FB028B7FF0CF08958091FB0213
:1015F00080FD16C081FD16C082FD16C08091F902E3
:101600008823A1F0883280F428E0829FC001112451
:1016100068E270E00E944E35862F672B39F00895FE
:1016200082E0089584E0089588E0089581E00895B7
:101630008091FB0280FD14C081FD14C082FD16C0A4
:101640008091FA02882381F08E3180F420E5829F18
:10165000C00111246EE170E00E944E35862F08957E
:1016600084E1089588E2089588E0089580E508956A
:10167000803F31F40E94180B8195809303030895F5
:10168000813F19F40E94180BF8CF823F31F40E9479
:10169000180B8195809302030895833F19F40E94EB
:1016A000180BF8CF893F29F40E94F60A80930403AF
:1016B00008958A3F21F40E94F60A8195F7CF8B3F67
:1016C00031F40E94F60A81958093050308958C3FBA
:1016D00019F40E94F60AF8CF843F31F48091010397
:1016E0008160809301030895853F21F48091010377
:1016F0008260F7CF863F21F4809101038460F1CFAF
:10170000873F21F4809101038860EBCF883F21F46B
:10171000809101038061E5CF8D3F31F48091FB0220
:1017200081608093FB0208958E3F21F48091FB023B
:101730008260F7CF8F3FB9F78091FB028460F1CFD1
:1017400080E0089578940895F894E82FE295EF707A
:10175000F0E031A1282F2F7081E090E001C0880FC8
:101760002A95EAF7982F9095932391A392A1892B1C
:1017700082A30C94A20B9091A90292FF06C0282F7D
:1017800028712830F9F4877F846093FF06C0282FE2
:1017900028712831F1F4877E84612091AA0220FF0C
:1017A00006C0382F38713830D9F4877F816021FF27
:1017B00006C0282F28712831D1F4877E816194FDDD
:1017C000877E0895282F24712430F9F68B7F886056
:1017D000DCCF282F2471243101F78B7E8861DDCF87
:1017E000382F3171313019F78E7F8860E0CF282F84
:1017F0002171213121F78E7E8861E1CFCF93DF9374
:10180000EC018238910581F1B0F58133910509F43D
:1018100091C020F58932910509F485C08A9709F4B1
:1018200090C0C11520E5D20708F0A7C0C11530E46B
:10183000D30708F0F6C0CF3BD10508F089C0C83AFD
:10184000D10508F0E1C0C53AD10508F0D5C0C430D3
:10185000D105F8F4C130D105E1F040C085339105E0
:1018600009F45AC0C997E9F68091A902837089F0FA
:10187000C0EED0E00EC0833E910599F170F4803E39
:10188000910501F1823E910561F68091A90282FDE8
:1018900021C0CE01DF91CF910895863E910561F17F
:1018A000873E910571F1843E910509F0BACF809190
:1018B000AA0281FFEECF8091A902C7EED0E084FD9D
:1018C0000DC0E7CF8091A90280FDFEC09091AA02D1
:1018D00090FFDFCFC3EED0E084FFDBCFD0E0C0E0ED
:1018E000D8CF8091A90282FDF2C09091AA0290FD0A
:1018F000BFCF84FFCECFF2CF8091A90283FDDDCF91
:10190000C8CF8091A90283FDE5C09091AA0291FF02
:10191000F0CFC4EED0E0BDCF8091A90285FFB9CF52
:10192000C9E2D0E0B6CF8091A90285FFB2CFC5E36E
:10193000D0E0AFCF8091A90286FFABCFCAE2D0E062
:10194000A8CF8091A90286FFA4CFC1E3D0E0A1CFA8
:10195000CF3FD10509F058F4C03FD10508F05FC072
:10196000CE01805E9109089708F493CFB7CFC115D7
:1019700040E2D40708F48DCFB1CFC11584E5D80774
:10198000A0F4C11593E5D90708F07CC0C11522E584
:10199000D20708F066C0C11531E5D30708F444C08A
:1019A000DC2FCC27C16FD06A74CFC1154AE5D407AC
:1019B00078F4C11589E5D80708F078C0C11598E515
:1019C000D90708F48BCFDC2FCC27C06FD06A61CF4A
:1019D000CE0190568115904208F080CF8D2F8F71E7
:1019E0000E94BB0B90E0982F882788279F719C014D
:1019F0002C2BE901D0624DCFC55AD0E0CD58DE4F37
:101A0000C881D0E0D06445CFC85AD0E0CC0FDD1FEC
:101A1000CA58DE4F0990D881C02DD4643ACFD06522
:101A200038CFDF70D06A35CFCE0164E096958795C8
:101A30006A95E1F783702C2F26952695237040E256
:101A4000249F90011124382B8C2F8370C1E0D0E0AB
:101A500002C0CC0FDD1F8A95E2F7C22BD32BDC68C6
:101A600018CFCE018370992721E030E002C0220F09
:101A7000331F8A95E2F7C695C69580E2C89FE001BC
:101A80001124EBCFCE018370992721E030E002C012
:101A9000220F331F8A95E2F7C695C69590E2C99F3B
:101AA000E0011124C22BD32BDA68F3CE8C2F8F7078
:101AB0000E94BB0B34E0D695C7953A95E1F7CF70FD
:101AC0009C2FEC01D069E5CEC9E3D0E0E2CEC2EEB6
:101AD000D0E0DFCEC6EED0E0DCCE0C945909809188
:101AE000410290911002981301C008958F5F877092
:101AF000FACF9E3F51F1292F220FE22FE90FEE0F6F
:101B0000E80F9E2F9770E695E695E69583E0E89FAF
:101B1000F0011124E151FE4F50E040E080E02191BE
:101B200030E0092E02C0369527950A94E2F721701D
:101B30003327042E01C0220F0A94EAF7822B4F5F4D
:101B40005F4F4330510559F7089580E008959E3F57
:101B500071F1292F220FE22FE90FEE0FE80F8E2FE0
:101B6000877041E001C0440F8A95EAF7E695E69553
:101B7000E69583E0E89FF0011124E151FE4F30E04B
:101B800020E070E05191DF011197CB01022E02C0DD
:101B9000969587950A94E2F781708195852784232D
:101BA00085278C932F5F3F4F2330310559F70895D8
:101BB000982F92959F7011F0892F94E0282F2695E9
:101BC000269511F09E5F822F869509F09F5F892FE1
:101BD00008959C013A9521153F4150F5FC01EE27EF
:101BE000F170BC0166277270AC01442754709C01EF
:101BF0002227387094FF0EC080E1EF2B09F480E0BB
:101C0000672B09F08062452B09F08064232B89F053
:101C10008068089581E0EF2B09F480E0672B09F0DC
:101C20008260452B09F08460232B19F088600895A9
:101C300080E00895CF93DF93682F81E06A3019F038
:101C40006D3029F480E0DF91CF910C94A90E809142
:101C500084059091850526E0FC01AEE7B5E0019092
:101C60000D922A95E1F7603E08F45AC026E0FC0187
:101C700011922A95E9F7C0918405D091850546E037
:101C800050E0BE018EE795E00E9485359E012E57FB
:101C90003340892B41F1C90145E0969587954A95D6
:101CA000E1F741E050E0BA0102C0660F771F8A9564
:101CB000E2F7CB0160917C0370917D03862B972B1B
:101CC000B9016B5F7F4FE5E076956795EA95E1F79F
:101CD00002C0440F551F6A95E2F7842B952B909311
:101CE0007D0380937C032A5F3F4F40917B03642FE9
:101CF00070E0C9010E942E35481B463010F4240FB5
:101D0000311D211572E0370710F030E020E0225835
:101D10003C4F3093850520938405DF91CF91089542
:101D2000F6E06F9FB00111246E57764F46E050E009
:101D30000E946F35A0CFCF93DF93EC01FE01849119
:101D4000811103C0DF91CF9108950E941A0E219650
:101D5000F5CFCF93382FE0918405F0918505EE57AC
:101D6000F34020917B03622F70E0CF010E942E355B
:101D7000281B822F332361F066E00E944235C82F72
:101D8000C15010F4CF91089580E20E941A0EF8CF4E
:101D90009F01280F311D2115324018F080E0F0E03E
:101DA000E0E08E0F9F2F911D82589C4F90938505E8
:101DB00080938405E7CF0E949B0E81E00C94A90ECE
:101DC00080914B0290914A02892B8093E60148E072
:101DD00050E062E472E086EE91E00E948535892B46
:101DE000A9F088E0E6EEF1E0A2E4B2E001900D9205
:101DF0008A95E1F7E0915403F0915503309731F063
:101E00000280F381E02D86EE91E009940895882305
:101E100041F0809590914A02892380934A020C9464
:101E2000E00E0895882339F090914A02982B909300
:101E30004A020C94E00E0895882341F08095909119
:101E40004B02892380934B020C94E00E0895882363
:101E500039F090914B02982B90934B020C94E00E2A
:101E60000895CF92DF92EF92FF920F931F93CF933B
:101E7000DF936C017B0164E670E088E70E946932C1
:101E8000EC0197FD12C010E000E0F601E00FF11F39
:101E9000849164E670E00E94E332EC01892B29F41E
:101EA0000F5F1F4F0E151F0581F70E946633CE018D
:101EB000DF91CF911F910F91FF90EF90DF90CF9026
:101EC000089580914F0390915003911103C091E0C8
:101ED00089270895882369F062E070E08BEC98E030
:101EE0000E94310F892B19F080914F0308951092B1
:101EF0004F0380914F03EBCFCF93C0914F0380915D
:101F000050038823D1F00E945909605A75418F4FC0
:101F10009F4F60934B0370934C0380934D039093BA
:101F20004E03C11108C062E070E089EC98E00E94A5
:101F3000310F892B29F0C0914F038C2FCF91089539
:101F400081E080934F03F7CF80935D0370935F032D
:101F500060935E03809176038430F9F48093E90006
:101F60008FEF9091E800815095FD06C095ED9A9510
:101F7000F1F700008111F5CF8091E80085FF0DC0D9
:101F800050E040E063E070E08DE593E00E94E207FE
:101F90008091E8008E778093E8000895BC0184E08A
:101FA0000C94A40FBC0183E00C94A40F9C0184E06A
:101FB0008093E9009FEF8091E800915085FD06C075
:101FC00085ED8A95F1F700009111F5CF8091E80039
:101FD00085FF0CC050E040E066E070E0C9010E945F
:101FE000E2078091E8008E778093E8000895CF9310
:101FF000DF93EC0181E08093E9008FEF9091E8009E
:10200000815095FD06C095ED9A95F1F7000081117C
:10201000F5CF8091E80085FF14C050E040E068E013
:1020200070E0CE010E94E2078091E8008E778093F5
:10203000E80088E0FE01A3E6B3E001900D928A95E6
:10204000E1F7DF91CF9108956091660180913F03A0
:1020500080FF20C08091650143E0849FC00111246E
:10206000815F9C4F269A25B12F7B35B130645FB7D5
:10207000F894FC01649FE00DF11D1124BF01681765
:102080007907D1F45FBF8FE594E00197F1F700C0C5
:1020900000000895809167019091680123E0829F7C
:1020A000F0011124E15FFC4F8917A0F61182108224
:1020B00012828F5F3396F8CFFC014191CF01E8E0A7
:1020C00035B9000000C047FF25B9440F000000C02B
:1020D00000C000C025B900C0EA9591F7D0CFEF92BB
:1020E000FF921F93CF93DF93EC0110E0EE24EA946C
:1020F000F12C60916901161770F00E9424109A81EA
:102100008C8190FF27C08F5F8C83DF91CF911F91CF
:10211000FF90EF90089520916701422F410F5527BE
:10212000551FCA019A01220F331F280F391F215F43
:102130003C4F70E0C7010E944E35962F8C81409134
:10214000420360914103199F800D11240E94DD0913
:102150001F5FCFCF8150D8CF90913F0390FF14C025
:10216000909167012091680133E0939FF001112461
:10217000E15FFC4F921710F00C9424108183608370
:1021800042839F5F3396F6CF08950F931F93CF93AB
:10219000DF9300D00F92CDB7DEB78C0180913F0363
:1021A00080FF10C09E012F5F3F4F4091420360911E
:1021B0004103F80184810E94DD094B8169818A8194
:1021C0000E94AC10F80184818F5F84830F900F9080
:1021D0000F90DF91CF911F910F910895EFE3F3E0FE
:1021E00080818E7F80830E94C709ECE0F3E08281CA
:1021F000816082832FEF80E792E021508040904001
:10220000E1F700C000000C9424109F92AF92BF929F
:10221000CF92DF92EF92FF920F931F93CF93DF93B2
:102220007C015B016A018091960201E010E08A3036
:1022300010F40AE010E0C1E0D0E0F894B501C70165
:10224000F6010995982E0E94A20B911004C02196C8
:102250000C171D076CF4892DDF91CF911F910F9101
:10226000FF90EF90DF90CF90BF90AF909F90089538
:10227000CC9F9001CD9F300D300D112490E080E077
:1022800045E34A95F1F70000019682179307C1F7DD
:10229000D4CF80915602811110C08091D800806106
:1022A0008093D8008AE18A95F1F700C08091D90027
:1022B00080FF0AC081E08093560281E0909156022F
:1022C000913009F080E0089582E0809356020E94E8
:1022D000920710927603F1CF0E944911811103C039
:1022E000809151030895E0915403F0915503309784
:1022F00021F00190F081E02D099480E008950F9382
:102300001F930E944911882321F01F910F910C9473
:1023100059090E9459090091970210919802209141
:10232000990230919A02600F711F821F931F1F91B3
:102330000F910895CF93DF93C7E8D2E060E0CE011C
:102340000E94B6352196C11584E0D807B9F7DF9110
:10235000CF9108951F93CF93DF93122F843010F500
:10236000623000F54230F0F428E0829FC001112471
:1023700024E0629FE00111248C0F9D1FC42FD0E048
:10238000CC0FDD1FC80FD91FC959DD4F632FCE01F8
:102390000E94B635612FCE010196DF91CF911F913A
:1023A0000C94B635DF91CF911F9108950F931F9331
:1023B000CF93DF938901843048F56C3038F546308F
:1023C00028F521153C4531F4209145033091460311
:1023D000232BE1F0C42FD0E0CC0FDD1F9CE0699FE0
:1023E000C00DD11D112490E9899FC00DD11D11246C
:1023F000612FCE0187960E94B635602FCE01889658
:10240000DF91CF911F910F910C94B635DF91CF9151
:102410001F910F9108956F927F928F929F92AF922A
:10242000BF92CF92DF92EF92FF920F931F93CF93C1
:10243000DF93A0904503B090460381E090E0909335
:1024400046038093450389E6C82E86E0D82E99E896
:10245000E92E96E0F92EC0E0470110E014C0F30128
:10246000259134914D2F612F8C2F0E94D61182E03F
:10247000680E711CDF5FD63091F78CE0880E911CDE
:102480001F5F1C3019F03401D0E0E9CF8601D0E0A5
:10249000F8012591349140E06D2F8C2F0E94AA11F4
:1024A000F80132962591349141E06D2F8C2F0E94D6
:1024B000AA110C5F1F4FD130E9F488E0C80ED11C7F
:1024C000CF5F80E9E80EF11CC43009F0C5CFB092AF
:1024D0004603A0924503DF91CF911F910F91FF908A
:1024E000EF90DF90CF90BF90AF909F908F907F90B4
:1024F0006F900895D1E0CCCFCF93C82F6FEF8111AB
:1025000062EA83E290E00E94B6356FEFC11163E0AA
:1025100084E290E00E94B6356FEFC11169E885E270
:1025200090E0CF910C94B63580E00E947C1260E080
:1025300086E290E00E94B6350E940B120E949A112A
:1025400081E00C947C120F931F93CF93DF93843020
:1025500038F5623028F528E0829FC001112434E06C
:10256000639FB0011124860F971FC42FD0E0CC0FBA
:10257000DD1FC80FD91FC959DD4FCE010E94A235FA
:10258000082F10E0102F0027CE0101960E94A235DF
:102590009801282BC901DF91CF911F910F910895C8
:1025A00090E080E0F8CF0F931F93CF93DF938430B8
:1025B00030F56C3020F5463010F5C42FD0E0CC0F4C
:1025C000DD1F2CE0629FC00DD11D112430E9839FD7
:1025D000C00DD11D1124CE0187960E94A235082F6F
:1025E00010E0102F0027CE0188960E94A235980196
:1025F000282BC901DF91CF911F910F91089590E091
:1026000080E0F8CF462F2091490330914A03232BD5
:1026100091F47E3F39F46E3F71F4809147039091BD
:1026200048030895843038F47C3028F4663018F478
:10263000672F0C94D31290E080E00895CF92DF9240
:10264000FF920F931F93CF93DF936C0100917A0356
:1026500080914403082BC7E0D0E010E0FC2EC801B5
:102660000C2E02C0959587950A94E2F780FD0CC068
:102670002197A0F7F12C8F2DDF91CF911F910F9112
:10268000FF90DF90CF900895B6018C2F0E94021327
:102690000E94FE0B019761F3EECFCF93DF93EC0125
:1026A0000E941E13BE010E940213DF91CF910C9471
:1026B000FE0BFC01808191810E944D1392959F70C9
:1026C000963091F058F4925F9F70923058F4803FAA
:1026D00019F030F4883E30F481E008959A5FF4CF29
:1026E000843FD1F380E00895883EB0F3813FD1F775
:1026F000F3CF83E290E00E94A235823A89F484E22B
:1027000090E00E94A235833059F485E290E00E9467
:10271000A23591E0893809F090E0892F8170089501
:1027200080E0FCCFCF9384E090E00E94A235C82FD8
:1027300082E290E00E94A235982F8C2FCF910895CD
:10274000CF92DF92EF92FF926B017C010E94CE0943
:10275000B701A60188E090E0FF90EF90DF90CF9066
:102760000C94C835EF92FF920F931F93CF93DF9392
:1027700000D00F92CDB7DEB7182FF62E042FE22E21
:1027800080913F0380FF39C0E82FE695F0E0E653E3
:10279000FE4F908190930C038E7F8230C1F59E0195
:1027A0002F5F3F4F812F0E94DD094B8169818A8114
:1027B0000E94AC1080914003811308C080914103B6
:1027C0008F1104C080914203801729F080910E037D
:1027D000826080930E0310934003F09241030093B4
:1027E0004203EE2051F060913F03709140038091CD
:1027F0004103909142030E94A0130F900F900F90FD
:10280000DF91CF911F910F91FF90EF9008958091EC
:102810004003923011F0953069F6182FCBCFEFE3DB
:10282000F3E0438128E0421B08F440E021E06281AC
:1028300081810C94B213EFE3F3E0438128E0420F6F
:1028400008F44FEF21E0628181810C94B213EFE331
:10285000F3E0628128E0621B08F460E021E043813C
:1028600081810C94B213EFE3F3E0628128E0620F00
:1028700008F46FEF21E0438181810C94B213EFE300
:10288000F3E0818121E04381628188500C94B2138E
:10289000EFE3F3E0818121E043816281885F0C9462
:1028A000B21380914303882319F08150809343032E
:1028B00060913F03709140038091410390914203E6
:1028C0000C94A01380914303833018F48F5F80939E
:1028D000430360913F0370914003809141039091C5
:1028E00042030C94A013EFE3F3E083E080831182B2
:1028F0008FEF828383831482ACE0B3E012968C91D5
:102900001297836012968C9360817181828193818A
:102910000C94A01369EE7EEF90E080E00E94D43525
:1029200060E082E090E00E94B63560E083E090E0F5
:102930000E94B6351092440360E084E090E00E946B
:10294000B63560E082E290E00E94B63560E085E056
:1029500090E00E94B63560E086E090E00E94B635D7
:102960006FEF87E090E00E94B63540E050E0BA019A
:1029700088E090E00E94C83560E08DE090E00E9421
:10298000B63540E050E0BA0188E190E00E94C835D9
:1029900060E087E190E00E94B63540E050E0BA0187
:1029A0008CE190E00E94C83570E060E080E290E049
:1029B0000E94D43540E050E0BA0188E190E00E94E6
:1029C000C83580E00E947C120E94941240E050E0E2
:1029D000BA018FE090E00E94C83540E050E0BA01B3
:1029E00083E190E00C94C8351F93CF93DF9300D020
:1029F00000D0CDB7DEB740917E0250917F0260914A
:102A00008002709181022FB7F894809159039091C0
:102A10005A03A0915B03B0915C032FBF841B950BFD
:102A2000A60BB70B11E084369105A105B10570F135
:102A30000E947F116E5F7F4F8F4F9F4F69837A8314
:102A40008B839C8380912101909122018B599D4F12
:102A50004091200150E04530510510F044E050E035
:102A6000BE016F5F7F4F0E94923584E090E00E942C
:102A7000B834182F882351F00E94590960937E02C0
:102A800070937F028093800290938102812F0F9038
:102A90000F900F900F90DF91CF911F9108954F925B
:102AA0005F926F927F928F929F92AF92BF92EF92BE
:102AB000FF920F931F93CF93DF937B01FB01408025
:102AC0005180628073809FB7F894809059039090F2
:102AD0005A03A0905B03B0905C039FBF84189508D5
:102AE000A608B708F4E68F169104A104B10418F4FF
:102AF000C1E0442329F1C82F880FDD0BFE0183E0DC
:102B0000EE0FFF1F8A95E1F7E050FF4F8181928120
:102B10008B599D4F408150E00417150708F4A80118
:102B2000B9010E949235CE010E94B834C82F882383
:102B300039F00E945909F70160837183828393837E
:102B40008C2FDF91CF911F910F91FF90EF90BF904D
:102B5000AF909F908F907F906F905F904F9008956F
:102B60000F931F93CF93DF930F92CDB7DEB7809172
:102B70004F03898320917D0290E041E028171906D8
:102B800009F440E001E010E09E012F5F3F4F62E951
:102B900072E089E00E944F150F90DF91CF911F9155
:102BA0000F9108950F931F93CF93DF93CDB7DEB7A7
:102BB00028970FB6F894DEBF0FBECDBF85E0EFE3D8
:102BC000F3E0DE01119601900D928A95E1F7809174
:102BD0000C0390910D03A0910E038E839F83A88711
:102BE00041E08885811101C040E008E010E09E01CD
:102BF0002F5F3F4F6EE872E088E00E944F15811111
:102C000010920E0328960FB6F894DEBF0FBECDBF0C
:102C1000DF91CF911F910F9108950F931F93CF9341
:102C2000DF930F92CDB7DEB70E946C11898341E02C
:102C300090917402981301C040E001E010E09E0101
:102C40002F5F3F4F6AE872E087E00E944F150F90B8
:102C5000DF91CF911F910F9108950F931F9341E042
:102C60009091720280917A03981301C040E001E0D4
:102C700010E02AE733E066E872E085E00E944F1535
:102C8000882389F041E09091730280914403981366
:102C900001C040E001E010E024E433E062E872E0CB
:102CA00086E00E944F151F910F9108954F925F92F9
:102CB0007F928F929F92AF92BF92CF92DF92EF92CC
:102CC000FF920F931F93CF93DF930F92CDB7DEB791
:102CD000C62E4A015901482E880F5508C2010E948C
:102CE000B834782E882309F480C0C20133E0880FFD
:102CF000991F3A95E1F7FC01E050FF4F438150E006
:102D00004115510511F041E050E080509F4FFC010A
:102D1000648175816B597D4FCE0101960E94923579
:102D2000F40140815181628173812FB7F8948091C1
:102D3000590390915A03A0915B03B0915C032FBF9C
:102D4000841B950BA60BB70B84369105A105B10525
:102D500040F4B701C8010E94AB099981891709F4B1
:102D600044C00C2C000CDD08C6010E94B834782E3B
:102D7000811113C0712C872D0F90DF91CF911F917E
:102D80000F91FF90EF90DF90CF90BF90AF909F900A
:102D90008F907F905F904F900895C60123E0880F39
:102DA000991F2A95E1F7FC01E050FF4F438150E065
:102DB000E416F50608F4A70180509F4FFC016481DA
:102DC00075816B597D4FC5010E949235B701C801CD
:102DD0000E94AB0999818913CDCF0E945909F40152
:102DE0006083718382839383C6CFA701B801C50135
:102DF0000E949235C0CFCF92DF92EF92FF920F9355
:102E00001F93CF93DF9300D000D000D0CDB7DEB7B3
:102E10006B0186E0E82EF12C06E612E09E012F5FA2
:102E20003F4F4DE552E061E080E00E945616882356
:102E300049F096E0FE013196A7E5B2E001900D92CF
:102E40009A95E1F796E0E7E5F2E0D60101900D9260
:102E50009A95E1F726960FB6F894DEBF0FBECDBF68
:102E6000DF91CF911F910F91FF90EF90DF90CF9066
:102E7000089590E080E00E94B035893E9E4F11F4A5
:102E80000C94791380E008951F920F920FB60F9261
:102E900011242F933F934F935F936F937F938F935F
:102EA0009F93AF93BF93EF93FF938091E10082FFD5
:102EB00009C08091E20082FF05C08091E1008B7F14
:102EC0008093E1008091DA0080FF24C08091D800D7
:102ED00080FF20C08091DA008E7F8093DA0080919D
:102EE000D90080FF9DC080E189BD82E189BD09B420
:102EF00000FEFDCF81E08093760380916003811115
:102F000009C00E9492070E9485088091E2008460B7
:102F10008093E2008091E10080FF17C08091E20081
:102F200080FF13C08091E2008E7F8093E200809149
:102F3000E20080618093E2008091D80080628093FB
:102F4000D80019BC85E0809376038091E10084FF6E
:102F50002BC08091E20084FF27C080E189BD82E11F
:102F600089BD89B5982F917080FFFBCF8091D800E3
:102F70008F7D8093D8008091E1008F7E8093E10067
:102F80008091E2008F7E8093E2008091E200816078
:102F90008093E20080916D03882309F447C084E0A8
:102FA00080937603809176038091E10083FF27C0B0
:102FB0008091E20083FF23C08091E100877F8093AE
:102FC000E10082E08093760310926D038091E1002E
:102FD0008E7F8093E1008091E2008E7F8093E200FB
:102FE0008091E20080618093E20042E060E080E056
:102FF0000E9453088091F00088608093F000FF9158
:10300000EF91BF91AF919F918F917F916F915F9160
:103010004F913F912F910F900FBE0F901F901895D9
:1030200019BC109276031092600374CF8091E30074
:1030300087FD93E090937603B5CF78941F921FB6E7
:103040001F9211248F939F93AF93BF938091590345
:1030500090915A03A0915B03B0915C030196A11D6E
:10306000B11D8093590390935A03A0935B03B093CF
:103070005C03BF91AF919F918F911F901FBE1F90D6
:1030800018959C014FB7F8948091590390915A0379
:10309000A0915B03B0915C034FBF821B930B08951B
:1030A0002FB7F8948091590390915A03A0915B0334
:1030B000B0915C032FBF08950E9450189C0190911D
:1030C000020380910303982B21F03093FF02209399
:1030D000FE029091040380910503982B21F0309318
:1030E000FD022093FC02E0915403F09155033097C8
:1030F00049F082E0809300030480F581E02D80E0B8
:1031000093E00994089590E080E00E94950990E092
:1031100080E00E947F0910924A020E94E00E86E041
:10312000E0E0F3E0DF011D928A95E9F71092FA02E0
:103130001092F9021092FB020C945C1880937A03AF
:103140000C94831880917A03982F9670963019F416
:1031500088600C949E18877FFCCF21E030E001C08E
:10316000220F8A95EAF7209580917A0382230C94A6
:103170009E1821E030E001C0220F8A95EAF7809185
:103180007A03822B0C949E18809344030C9483182A
:1031900010924B02E8EEF1E086E0DF011D928A9585
:1031A000E9F70C9483181F93CF93DF93CDB7DEB765
:1031B000AA970FB6F894DEBF0FBECDBF8EE693E0A0
:1031C0002091F100DC012D93CD01B3E086379B0700
:1031D000B9F780916F03833009F472C0B8F481307D
:1031E00009F449C0823009F4B3C08091E80083FF3C
:1031F00096C280916E0390916F039A3008F08FC24F
:10320000E92FF0E0E451FA4C0C9462358A3009F46D
:103210008EC08B3009F471C0893039F780916E030C
:10322000813219F78091720390917303009711F026
:103230000297D9F68091E800877F8093E80080911B
:10324000E80082FF38C09091F3008091F20002976D
:1032500031F48091F100813011F0863021F48091B9
:10326000F100809362038091E8008B778093E800FF
:103270000E943408BACF80916E03813A09F0B5CF2D
:103280008091E800877F8093E8008091720390919D
:103290007303892B61F468E083E693E070E00E9499
:1032A000E6088091E8008B778093E8009ECF60E08D
:1032B00090E080E0F3CF809176038111C0CF95CF6D
:1032C00080916E03813A09F090CF809172039091C2
:1032D0007303892B09F089CF8091E800877F809361
:1032E000E8008091E80080FFFCCF80916A01809324
:1032F000F1008091E8008E77B9CF80916E03813222
:1033000009F073CF8091720390917303892B09F0B8
:103310006CCF8091E800877F8093E8000E9434089A
:103320008091700380936A010E94C8185ECF8091DB
:103330006E03813209F059CF8091E800877F809336
:10334000E8000E94340880917103809361034DCF9F
:1033500080916E03813A09F048CF8091E800877F21
:103360008093E8008091E80080FFFCCF80916103AA
:10337000BECF803899F0823809F0D1C180917203B4
:103380008F70873008F0CBC18093E9008091EB000B
:1033900085FB882780F91092E90006C080916B03B5
:1033A00090916C03911182609091E800977F9093C7
:1033B000E8008093F1001092F1008091E8008E7790
:1033C000AAC1882309F498C1823009F0A8C180916C
:1033D000700381119BC1809172038F702FEF280FB2
:1033E000263008F09CC18093E9002091EB0020FF7B
:1033F0008DC1933031F48091EB0080628093EB00BB
:1034000085C19091EB0090619093EB0021E030E05A
:1034100001C0220F8A95EAF72093EA001092EA0091
:103420008091EB008860EACF811179C1109170031F
:103430001F778091E3008078812B8093E300809157
:10344000E800877F8093E8000E9434088091E800BC
:1034500080FFFCCF8091E30080688093E30082E0EE
:10346000111183E0809376035AC18058823008F0AE
:1034700056C120917003309171032C3DE3E03E076B
:10348000A1F583E08A838AE289834FB7F894DE014D
:10349000139620E03EE051E2E32FF0E05093570016
:1034A000E49120FF03C0E295EF703F5FEF708E2F35
:1034B00090E0EA30C0F0C7968D939D932F5F243142
:1034C00059F74FBF8091E800877F8093E8006AE258
:1034D00070E0CE0101960E94E6088091E8008B77AB
:1034E0008093E8001CC1C096E7CF80917203909151
:1034F0007303432F55274330510509F44AC078F52B
:103500004130510509F485C08BE590E0EDECF8E021
:103510004230510509F003C12091E800277F209334
:10352000E80020917403309175038217930708F423
:103530009C0140E02115310509F070C041116EC0B9
:103540008091E80082FDC9CF80917603882329F21B
:10355000853019F28091E80083FFF2CFBECF41326F
:10356000510509F447C04232510509F0D8C08330F3
:10357000910508F0D4C0FC01EE0FFF1FE852FE4F8A
:103580000190F081E02D8B529E4FDC018C9190E0F8
:103590001DC0332721303105E9F02115310579F0BF
:1035A00022303105F9F02330310509F0B8C0EAE3E3
:1035B000F9E0E4918E2F90E0EAE3F9E007C0EEE74E
:1035C000F9E0E4918E2F90E0EEE7F9E0009709F43E
:1035D000A6C0A2CFEAE6F9E0E4918E2F90E0EAE6F9
:1035E000F9E0F4CFE8E5F9E0E4918E2F90E0E8E52A
:1035F000F9E0ECCF8330910508F091C0880F991F56
:10360000FC01E252FE4F0190F081E02D89E090E054
:1036100083CF82E190E0E8E2F9E07ECF809176030B
:10362000882309F45ACF853009F457CF8091E800F8
:1036300083FD53CF8091E80082FD82CF8091E80026
:1036400080FF78CF9091F3008091F2002115310531
:1036500019F08830910550F041E0089709F040E0FA
:103660008091E8008E778093E80064CF4491409386
:10367000F1003196215031090196E8CF803809F0E8
:103680004EC08091E800877F8093E80080916D03B1
:103690008093F10092CE811142C0109170031230DC
:1036A000F0F58091E800877F8093E80010936D0328
:1036B0000E943408112311F084E005C08091E300DA
:1036C00087FDFACF81E08093760342E061EC81E0F0
:1036D0000E94530842E261EC84E00E94530842E2F7
:1036E00061EC82E00E94530842E260EC83E00E94B9
:1036F00053088091760313C080917003813079F470
:1037000081E0933009F080E080936C031092E9002F
:103710008091E800877F8093E8000E9434088091C0
:10372000E80083FF0AC08091E800877F8093E8006B
:103730008091EB0080628093EB00AA960FB6F8941C
:10374000DEBF0FBECDBFDF91CF911F9108951F92B5
:103750000F920FB60F9211242F933F934F935F93C5
:103760006F937F938F939F93AF93BF93CF93DF9389
:10377000EF93FF93D091E900DF708091EC00C82FA8
:10378000C17080FDC0E81092E9008091F000877F51
:103790008093F00078940E94D3181092E9008091F1
:1037A000F00088608093F000CD2BCF70C093E900CB
:1037B000FF91EF91DF91CF91BF91AF919F918F9149
:1037C0007F916F915F914F913F912F910F900FBE1D
:1037D0000F901F9018958823F1F19CEF980F913A64
:1037E00078F4E8EEF1E02EEE31E09191891303C018
:1037F000DF0111971C922E173F07B9F70C94E00ECA
:1038000090E2980F983088F4877021E030E0A901A9
:1038100002C0440F551F8A95E2F7CA018095909126
:103820004B02892380934B02E9CF9BE5980F93309D
:1038300020F490E080E00C94950998E5980F97317A
:1038400020F490E080E00C947F09803F20F00E94FB
:10385000730A0C945C180895CF93C82F882309F439
:1038600056C08CEF8C0F813AF8F4E8EEF1E08EEE62
:1038700091E0DF012D91C21759F08A179B07D1F70C
:103880006C2F86EE91E00E946509CF910C94E00EBA
:103890002191C21303C0DF0111971C928E179F075D
:1038A000B9F70E94E00EECCF80E28C0F883068F40C
:1038B000C77021E030E001C0220FCA95EAF780917D
:1038C0004B02822B80934B02E0CFEBE5EC0FE33011
:1038D00040F4F0E0ED58FE4F808190E0CF910C94E1
:1038E0009509E8E5EC0FE73150F4F0E0EE0FFF1F2B
:1038F000EA58FE4F80819181CF910C947F09C03F9F
:1039000030F08C2F0E94380BCF910C945C18CF9123
:1039100008951F93CF93DF93182FCAE0D0E0893327
:1039200011F4C0E5D0E0812F0E942C1C8FE99FE0AC
:103930000197F1F700C000002197C1F7812FDF91B7
:10394000CF911F910C94EB1B0F931F93CF93DF9399
:10395000C62FD42F022FFC0182818823A1F060930F
:1039600079030E9450189093780380937703C7706F
:1039700081E001C0880FCA95EAF7DF91CF911F91CE
:103980000F910C94270F80917903681335C08091B3
:103990007703909178030E944118883C910560F567
:1039A00010E21D0FCD17B9F080E28C0F883040F483
:1039B000C77081E001C0880FCA95EAF70E941C0F0A
:1039C000183048F481E09D2F977001C0880F9A95B8
:1039D000EAF70E94270F802F0E94891C183098F464
:1039E000D77081E001C0880FDA95EAF7DF91CF91B7
:1039F0001F910F910C941C0FC77081E001C0880FBC
:103A0000CA95EAF7F3CFDF91CF911F910F910895F7
:103A1000AF92BF92CF92DF92EF92FF920F931F93DC
:103A2000CF93DF93EC018AE0A82E2881222309F4AA
:103A30008CC02130C9F599818A81913021F4229678
:103A40000E94891C05C0923029F422960E942C1CE9
:103A50002196EBCF933021F422960E94EB1BF8CFF6
:103A6000943011F02196F4CF229630E020E0AE01A0
:103A70004F5F5F4F8053990B8A30910550F0215072
:103A8000310930F38FE99FE00197F1F700C00000A2
:103A9000F6CFA29EB001A39E700D11249C01260FAB
:103AA000371F8981EA01E3CFE22FF0E0E154FE4FB6
:103AB000B490822F86958695869590E0FC01E1551D
:103AC000FE4FE4902770F12C022E02C0F594E7948B
:103AD0000A94E2F731E0E322FF24FC01E156FE4FB5
:103AE000C490D12C022E02C0D594C7940A94E2F758
:103AF00031E0C322DD24FC01E157FE4F049110E0C8
:103B000002C0159507952A95E2F701701127E11477
:103B1000F10419F081EE0E942C1CC114D10419F09B
:103B200086EE0E942C1C8B2D0E94891CCD2819F03A
:103B300086EE0E94EB1BEF2819F081EE0E94EB1B32
:103B4000012B09F485CF8CE27BCFDF91CF911F91C0
:103B50000F91FF90EF90DF90CF90BF90AF900895BE
:103B60000E94491181110C9450180E947F11CB01C1
:103B7000089560913F03669570E041E050E084E66F
:103B800091E00E947835892B19F481E080930D0330
:103B90000E94B01D909307038093060380910E034B
:103BA000846080930E03089590913F0390FF3BC083
:103BB000917081112EC0926090933F0380910E030B
:103BC000816080930E03662351F060913F037091F2
:103BD000400380914103909142030E94A0136091A1
:103BE0003F03669570E041E050E084E691E00E947A
:103BF0007835892BA9F00E94C70981E080930903D9
:103C000020E04091420360914103809140030C9475
:103C1000B2138B3010F09461CFCF880F982BCCCF9C
:103C20000E94B91DEACF089580913F038695815087
:103C300009F48AE061E00C94D41D80913F038695DD
:103C40008F5F8B3008F081E061E00C94D41D90917F
:103C50003F0390FF07C09695981720F0961710F431
:103C60000C941D1E61E00C94D41DAF92BF92CF92B4
:103C7000DF92EF92FF920F931F93CF93DF9300D0C9
:103C800000D00F92CDB7DEB77C01FC018381948117
:103C9000892B31F08081918189238F3F09F04FC4B6
:103CA0000F900F900F900F900F90DF91CF911F9179
:103CB0000F91FF90EF90DF90CF90BF90AF9008955D
:103CC0000E941E13182F682F89819A810E94A70DC8
:103CD00069817A81812F0E9402138C01F701928100
:103CE000992309F421C4980122513F45203131051F
:103CF00008F0F3C38FEF93E00E94A235025137E83A
:103D0000A32E32E0B32E8111CBCF011135C0198221
:103D10001A821B821C82DD24DA9485010F5F1F4FFB
:103D2000C5010E94A23589831A82882309F4B8CF7D
:103D3000813009F07FC0750142E0E40EF11CC8013A
:103D40000E94A235082F8A83882309F4A9CFC701CE
:103D50000E94A235182F8FEF800F8330E0F4750199
:103D600053E0E50EF11C1B83112321F0CE010196D7
:103D70000E94081D5701D1CFA114F4E0BF0609F439
:103D80008FCFC5010E94A235811101C001502FEFD4
:103D9000A21AB20ABACF8BEF800F833020F5C5018B
:103DA00003961B837C01112329F37501E4E0EE0ED9
:103DB000F11C0E94A2358C838823E1F28B819C81C7
:103DC0008130FFEF9F0710F0982F8827063029F0E9
:103DD000073031F00E946B26CDCF0E942226CACF39
:103DE0000E94D325C7CF043029F6750124E0E20EE6
:103DF000F11CC50103960E94A235112309F450CF8E
:103E0000882309F44DCF8150990BD89E9001D99EFB
:103E1000300D1124412F4150550BCA01820F931FC1
:103E2000019708F4A7CFEFE9FFE03197F1F700C061
:103E30000000F6CFCE0101960E94081D78019ACFAE
:103E400081E00E94B91803C081E00E94AD180E9471
:103E5000A21826CF82E0F5CF053FFCE51F0709F445
:103E600061C008F45BC0063F4CE5140709F45EC06E
:103E7000992309F475C31092790303305DE51507A2
:103E800008F05BC00A3F8CE5180738F4980122500F
:103E90003C452431310508F05AC00E94921390939A
:103EA000AA028093A90201312CE5120709F424C16A
:103EB00008F0A1C009305CE5150709F40FC108F04E
:103EC0006BC005309CE5190709F4FCC008F056C02A
:103ED0000330FCE51F0709F4EBC008F0EFC0809148
:103EE000A902816002301C4509F4E5C06091A90275
:103EF0001091AA0284E090E00E94B635612F82E220
:103F000090E00E94B6350E94C818CACE27E245EE5E
:103F100065EE06C326E241EE60EE02C327E245EEFF
:103F200064EEFEC226E241EE62EEFAC227E245EE00
:103F300066EEF6C228E241E0EBCF0136EDE51E0762
:103F400009F4ABCF053AFDE51F0709F4A6CF06310A
:103F5000ECE51E0709F01CC380914B028A7A91E0C0
:103F600009F490E09093EE0169E2811165E386EE39
:103F700091E00E9465090E94E00E92CE8091A90214
:103F8000806207305CE5150709F495C008F4A2C00B
:103F90008091A90280648FC08091A9028B7F0D302F
:103FA0009CE5190709F487C098F48091A9028E7FD7
:103FB0000B30FCE51F0709F47EC08091A9028C60DC
:103FC0000C301C4508F477C08091A9028D7F73C026
:103FD0008091A9028F7E0F304CE5140709F46BC065
:103FE0008091A902877F00311C4508F464C080914C
:103FF000A9028F7D60C00D3F8CE5180709F478C0D9
:1040000050F50531ECE51E0709F480C098F4809165
:10401000A902837F03312CE5120709F44CC008F490
:104020006FC00E94C8189091A902892F97FB87F949
:10403000805841C00B3F5CE5150709F447C008F004
:1040400053C08091AA0281600A3F1C4509F04ECFFF
:104050008093AA024BCF0130EDE51E0709F462C040
:10406000B8F48091AA028C7F0F3F2CE5120781F3F0
:104070008091AA02836001151D4550F38091AA0228
:10408000982F909591708E7F892B90FB81F9E0CFCE
:1040900001365DE5150709F44BC0053A8DE51807B3
:1040A00009F44DC002301D4509F020CF60E03BC04F
:1040B0008091A90282608093A90218CF8091A90201
:1040C0008460F9CF8091A9028860F5CF8091AA021F
:1040D0008260BECF8091A9028061EDCF0E94C81896
:1040E0008091A9028068E7CF8091AA028E7FB0CF2D
:1040F0008091AA028D7FACCF8091A9028F7BDBCF0C
:104100000E94C8188091A9028F77D5CF8091A9020B
:1041100082FB992790F921E0922790FB82F990FB8E
:1041200083F9C9CF61E08EE090E00E94B635DECE23
:104130009091A902892F8F7E94FF8061BCCF9091CE
:10414000A902892F8E7F90FF8160B5CF85E312C2CF
:10415000816080933F0361E086950E94D41DA0CDCD
:1041600044E15EE16DE17EE10E94C10999CD4DE13E
:104170005EE164E17EE1F8CF4FE354E168E474E18D
:10418000F3CF48E454E16FE374E1EECF47E254E14A
:1041900063E374E1E9CF43E354E167E274E1E4CF20
:1041A0004BE154E16FE074E1DFCF41E554E162E6B9
:1041B00074E1DACF42E654E161E574E1D5CF61E024
:1041C00081E0CBCF64E082E00E94271E69CD0E948F
:1041D000C8185FEF84E39CE0515080409040E1F7C5
:1041E00000C000000E9448090E948A1459CDC801ED
:1041F0000E94790DD82EE3C1092F0F70907F11F026
:104200000295007F812F2223C9F0002369F090E2FC
:10421000910F983010F011110BC080914B02082BB8
:1042200000934B020E94E00E812F0E942C1C17C0AD
:1042300080914A02082B00934A02F4CF0E94EB1BA4
:10424000002369F00095105E183010F0B11012C014
:1042500080914B02082300934B020E94E00E98E0ED
:10426000C91AD108E4E0CE16D10408F019CD0E9495
:104270006C1116CD80914A02082300934A02EDCFBB
:10428000892F8F70907F903211F08295807FF1E0BE
:10429000BF120CC0222329F0363008F70E94270FE6
:1042A000DECF3530E0F60E941C0FD9CF222341F03B
:1042B0003323A1F340FFB8CF4F70F7014583EECF12
:1042C000332389F3193309F000C1FFEF27EE43E0F0
:1042D000F15020404040E1F700C00000812F0E94D3
:1042E000EB1BBDCF892F86958695837061F0813059
:1042F00009F0B5CF812F9370211102C090E080E0CA
:104300000E947F09ACCF812F9370211102C090E0F1
:1043100080E00E949509A3CF812F222329F00E94DB
:10432000380B0E945C189BCF0E94730AFACF892F2A
:104330008370A1F5211193CF812F82958695877087
:10434000880F880F412F4F70082E01C0440F0A9428
:10435000EAF7212F207114FF07C02FE030E001C0E1
:10436000220F8A95EAF7209596959695937092304C
:1043700081F0822F842B933030F48091440391306C
:1043800029F0242B82230E94C41869CF842B822B0E
:10439000FACF242B809144038227F5CF86952223E0
:1043A00011F0892F8170882309F459CF812F8295CC
:1043B00086958770880F880F412F4F70082E01C097
:1043C000440F0A94EAF7212F207114FF07C02FE051
:1043D00030E001C0220F8A95EAF7209596959695D0
:1043E0009370923081F0822F842B933030F480913F
:1043F0007A03913029F0242B82230E949E182FCF1C
:10440000842B822BFACF242B80917A038227F5CF3D
:10441000092F0F70222329F0802F0E94B918812FB5
:104420003DCF812F0E941C0F802F0E94AD1817CF07
:10443000812FE1EF1E1789F1E11750F0F0EF1F1700
:10444000B9F02223B1F13111EFCE892F8F7129C03C
:1044500042EF141749F153EF1513F3CF80E02223F5
:1044600061F29F7181E001C0880F9A95EAF7C5CF8C
:10447000222379F0353008F0F2CE292F2F7181E018
:1044800090E001C0880F2A95EAF790917A03892776
:10449000B4CF363008F0E3CEF0CF892F8F712223CE
:1044A00021F20E94B918DBCE892F8F712223C9F324
:1044B000BCCF332379F0893341F48FEF97EEE3E0FB
:1044C00081509040E040E1F707CF8FE39CE90197EE
:1044D000F1F702CF892F8F71A8CF0031FFE51F07B9
:1044E00009F4AECC01312FE5120709F4B3CC033F38
:1044F0002CE5120709F40ECD08F0AECC083D5CE5C2
:10450000150709F403CD093D8CE5180709F412CD10
:10451000073DECE51E0709F0ABCC26E241EE61EE6B
:10452000C7010E94A41CBCCB00314FE5140709F45D
:104530008BCC01315FE51507D1F682E086CC85E0B2
:10454000DE01119601900D928A95E1F7F701228123
:1045500089819A812111B4CB0E94790D182FB8CB93
:104560000631FCE51F0709F045C08091EE0181117D
:10457000EDCD89E2E8EEF1E02EEE31E09191891384
:1045800003C0DF0111971C922E173F07B9F7F3CC38
:1045900001152CE5120709F41ACE0E3D1C4509F44D
:1045A00023CEF70100811181992309F420CEC8019F
:1045B0000E941E13D82E682FC8010E94A70DB801B3
:1045C0008D2D0E9402130E94FE0B182FB82EF701AA
:1045D00022814581342F32953F70892F82958F70CB
:1045E000C82ED12C8C3008F03ACEF601EA50FA4CA5
:1045F0000C94623580914B0282720A3C5CE515078F
:1046000009F4CECD08F04AC0053CFCE51F0709F4CB
:10461000B3CD78F5033C4CE5140709F4A1CD08F0BF
:10462000A6CD023C1C4509F0BCCF80913F0380FF22
:104630008FCD8E7F80933F0360913F037091400345
:1046400080914103909142030E94A0130E94C709E8
:1046500080910E03816080930E03FFEF20E742E01C
:10466000F15020404040E1F700C000000E942410BB
:1046700017CB073CECE51E0709F488CD08F481CD83
:10468000083C2CE5120709F486CD093C1C4509F0CD
:1046900088CF4FE054E16BE174E166CD0F3C5CE5FF
:1046A000150709F48FCD88F40C3CFCE51F0709F4CD
:1046B00081CD08F47ACD0D3C4CE5140709F47FCD8B
:1046C0000E3C1C4509F4ECCA6CCF063D8CE518077E
:1046D00038F46AE085E0013D1C4508F475CDE0CA78
:1046E0000D351D4509F4DCCA5CCF1F93CF93DF93D2
:1046F00080910F02807FA9F480910C02882389F0B9
:1047000080914102D091100260910A0270910B02D7
:10471000A0910D02B0910E02C62FC72316E0D81348
:1047200004C0DF91CF911F91089590E0109711F090
:10473000CF3F19F401968770F2CF189F9001199F0F
:10474000300D1124F901EF5EFD4F41814713F2CF87
:1047500040814613EFCF42814111ECCF4381548118
:104760004A1B5B0B483C510528F780910F028F7064
:10477000806180930F02F901EA5EFD4F80818F70A6
:10478000806180838AE092E00E94351EDF91CF91A4
:104790001F910C946F0DAF92BF92CF92DF92EF9268
:1047A000FF920F931F93CF93DF93CDB7DEB761973F
:1047B0000FB6F894DEBF0FBECDBF8C0185E0F801C7
:1047C000DE011D9601900D928A95E1F7F801E280D5
:1047D0008AE0A82E82E0B82E60910D0270910E0240
:1047E0006115710509F432C190910A0240910B02E2
:1047F000892F84238F3F09F429C120813181C3800F
:10480000D480F0900C02F601E61BF70BFF2009F4B0
:10481000E8C080910F02582F507FE83CF10508F066
:10482000ABC0511177C0FE2C431321C092131FC09F
:10483000E1101DC08F70806180930F02C5010E943E
:10484000351E80910F02F80185838F2D61960FB67A
:10485000F894DEBF0FBECDBFDF91CF911F910F91B6
:10486000FF90EF90DF90CF90BF90AF900895CD284C
:1048700029F0822F83238F3F09F003C180E0F82FB6
:10488000F170DF2E80FF3CC0809141024091100208
:1048900056E0841315C02D873E878D859E850E9426
:1048A0004D13292F22952F702230F0F0243018F567
:1048B0009F70F1F0F8019581907FD1F4D12C1EC04A
:1048C00090E0589FF001599FF00D1124EF5EFD4FCD
:1048D0006181361306C06081261303C06281E6122F
:1048E0000FC001968770D5CF9F7011F0882331F3E8
:1048F000805E883018F3C8010E94351EFD2CA5CFBC
:10490000EE2009F4A2CF80910F02816080930F0204
:10491000F12C9BCF431306C0921304C0F801EE2084
:1049200009F479C0C8010E945913882309F1EE20C7
:10493000F9F080910F02803270F020910A023091DC
:104940000B0238872F831986DB86CA868C87CE01B7
:1049500007960E94351E86E0F801AAE0B2E00190B9
:104960000D928A95E1F70E947523FF24F3946DCF91
:10497000C8010E94351EF9CF51110AC08AE092E0A9
:104980000E94351E86E0F50111928A95E9F7C0CFA5
:1049900043130FC092130DC0E1100BC0F8018583C3
:1049A000C8010E94351E86E0F50111928A95E9F74B
:1049B0004CCFC8010E9459138823D1F2EE20C1F2D6
:1049C00080910F02803238F220910A0230910B025E
:1049D0003A8329831B82DD82CC828E83CE010196AD
:1049E000B8CFE83CF105F8F6FE2CEE2009F24313AF
:1049F0001FC092131DC080910F0280FD10C0982F20
:104A0000907F69F0F8018583903F31F0982F907F77
:104A1000905F8F70892B8583C8010E94351E86E0C8
:104A2000F801AAE0B2E001900D928A95E1F70DCF6E
:104A3000C8010E94591381118ECF80910F028160AD
:104A400080930F02C8010E94351EFFCEEE2009F4AC
:104A50008FCFC8010E945913F82E882309F488CFFC
:104A600086E0F801AAE0B2E001900D928A95E1F7A4
:104A700080910A0290910B020E944D130E947523AF
:104A8000E4CE81E08E25FBCE1F93CF93DF93CDB78D
:104A9000DEB767970FB6F894DEBF0FBECDBF4B8B66
:104AA0005C8B6D8B7E8B8F8B611110924A021A8A00
:104AB000198A85E0FE017396DE011D9601900D9224
:104AC0008A95E1F786E0FE013D96DE01179601909A
:104AD0000D928A95E1F7CE0107960E94CB238111B2
:104AE00012C086E0FE013796DE01119601900D920C
:104AF0008A95E1F78A859B85892B29F088859F8196
:104B000089238F3FB1F516E0809141029091100208
:104B100089131DC067960FB6F894DEBF0FBECDBFD8
:104B2000DF91CF911F91089596E0929FD001939FBE
:104B3000B00D1124AF5EBD4FFE01319601900D9274
:104B40009A95E1F7809310020E946F0DDCCF819F50
:104B5000C00111248F5E9D4F0E94CB238823D1F288
:104B60008091410290E001968770992780934102DD
:104B7000CBCF2091100230E0C901019687709927B0
:104B8000409141024817190679F60E94C818109200
:104B900010021092410286E0EAE0F2E0DF011D928D
:104BA0008A95E9F7B0CF0F931F93CF93DF9300D08F
:104BB00000D00F92CDB7DEB78C019093480380935D
:104BC0004703011580E2180720F5802F0E94EB1B98
:104BD000C8010E94E90D9801205E31092830310595
:104BE00010F0012B59F40F900F900F900F900F9031
:104BF000DF91CF911F910F910C941C0F0F900F908C
:104C00000F900F900F90DF91CF911F910F910C9407
:104C1000070F8EEF89838A831B820E945018816060
:104C2000782F9D838C8349815A816B818D810F9070
:104C30000F900F900F900F90DF91CF911F910F91D8
:104C40000C9444250F931F93CF93DF9300D000D093
:104C50000F92CDB7DEB78C01909348038093470342
:104C6000011580E21807E8F4C8010E94E90D9801D7
:104C7000205E31092830310518F00115110571F455
:104C80000E94270F802F0F900F900F900F900F9082
:104C9000DF91CF911F910F910C942C1C0E94120F49
:104CA000F1CF8EEF89838A8381E08B830E94501835
:104CB0008160782F9D838C8349815A816B818D819E
:104CC0000F900F900F900F900F90DF91CF911F9149
:104CD0000F910C944425CF93DF93EC010E94222680
:104CE0008FE39CE90197F1F700C00000CE01DF914E
:104CF000CF910C94D325CF92DF92EF92FF920F9336
:104D00001F93CF93DF93182F062FC0907A038091C3
:104D10004403C82AC7E0D0E0D12CF12CE12CD70104
:104D2000C6010C2E04C0B695A795979587950A9451
:104D3000D2F780FF14C0402F612F8C2F0E94A31246
:104D40008130910561F00E946B2681E0DF91CF9167
:104D50001F910F91FF90EF90DF90CF9008952197D2
:104D6000F0F6402F612F80E00E94A312ECCFCF928B
:104D7000DF92EF92FF920F931F93CF93DF930F92E7
:104D8000CDB7DEB7EE24E394F12C0DE612E09E01E0
:104D90002F5F3F4F41E652E063E082E00E945616EB
:104DA000082F882321F1C090AC028C2D90E09C014B
:104DB00021543D4F79011981F9018081181BD12EB1
:104DC00080E00AC0DA94F70180818F5F808360E021
:104DD0008C2D0E947B26802F1D14A4F3912F17FD8C
:104DE00090E0191B11110EC081110E946D0D802FD2
:104DF0000F90DF91CF911F910F91FF90EF90DF9077
:104E0000CF9008951F5FF70180818150808361E01A
:104E10008C2D0E947B26802FE5CF7F928F929F92D0
:104E2000AF92BF92CF92DF92EF92FF920F931F93B8
:104E3000CF93DF93CDB7DEB762970FB6F894DEBF9E
:104E40000FBECDBF8E010F5F1F4F8CE0D8011D92AA
:104E50008A95E9F786EAC82E81E0D82EF12CE12C5C
:104E6000AA24A394B12C22EB822E21E0922EF601EB
:104E700081916F018F3F09F443C0F894E82FE295C8
:104E8000EF70F0E021A18F70A50102C0440F551F03
:104E90008A95E2F7CA01922F982B91A392A180954F
:104EA000892382A30E94A20B00C0ECEAF1E0712CDE
:104EB00031E021912F3F09F47AC0A22FA295AF7063
:104EC000B0E090968C9190E02F7002C095958795F8
:104ED0002A95E2F780FD6BC0832F782A330F8E1658
:104EE0009F0639F7F601319780818F3F11F00E94BC
:104EF000A40B50EA5A95F1F7F801EE0DFF1D7082F0
:104F00008FEFE81AF80A96E0E916F10409F0AFCF3E
:104F10004CE050E0B8018BE992E00E9485357C01BD
:104F2000892B41F08CE0F801ABE9B2E001900D92E1
:104F30008A95E1F71091A802E114F104D1F181E022
:104F400080934E020E94501890934D0280934C0221
:104F500080914C0290914D020E944118059778F083
:104F6000ABE9B2E0E12FF0E0E351FD4F81EA92E0DE
:104F70002D9121938A179B07D9F710924E0281E059
:104F800090E0EF28D1F062960FB6F894DEBF0FBE26
:104F9000CDBFDF91CF911F910F91FF90EF90DF90E8
:104FA000CF90BF90AF909F908F907F90089580E0BA
:104FB00094CF80914E028111CBCF0E944911D82EFF
:104FC000E091A802DE011D967D01882309F490C0BE
:104FD00086E01D928A95E9F70E2F10E003511D4FD0
:104FE000809196028A3008F04FC04BEF56E1B7012E
:104FF000C8010E940511882309F456C047EB56E208
:10500000B701C8010E940511882309F44DC044EF7F
:1050100054E1B701C8010E940511882309F444C076
:105020004DE256E1B701C8010E9405118823E1F164
:105030004DE056E1B701C8010E9405118823A1F196
:1050400042ED55E1B701C8010E940511882361F1C5
:1050500040EB55E1B701C8010E940511882321F1F9
:10506000109296028091A70290E046E050E0B701CE
:1050700083519D4F0E94853521E020935502892B55
:1050800051F5D12C8D2D7FCF80914F029091500200
:105090000E944118843F914008F0A7CF80915502AB
:1050A000811112C080E06FCF809196028F3F29F06E
:1050B0008F5F809396028A30A8F20E9450189093D6
:1050C000500280934F02EACF86E0F70111928A9551
:1050D000E9F710925502A091A702B0E0A351BD4F8D
:1050E00086E0FE013D9601900D928A95E1F7CACFC8
:1050F000F0E0E351FD4FF89486E0A6E6B2E00190BF
:105100000D928A95E1F766E070E086E692E00E94F3
:10511000AB09809365020E94A20BF894E091C20251
:10512000F0E0E154FD4F80818D8780936D0261E056
:1051300070E0C7010E94AB0980936C020E94A20B31
:10514000F894C0906E02D0906F02E0907002F090E0
:1051500071028091510290915202A0915302B0913C
:105160005402C816D906EA06FB06D1F0C0925102D5
:10517000D0925202E0925302F09254020E944911DE
:1051800081110EC00E945909C61AD70AE80AF90A05
:10519000C0929702D0929802E0929902F0929A02FD
:1051A0000E94A20BF8948091720280937A038091FE
:1051B0007302809344030E94A20BF89480917402BE
:1051C000809351030E94A20BF89480917C02882363
:1051D00079F180FF0DC08091750280FF35C09091FC
:1051E0003F03916090933F0360E086950E94D41D39
:1051F00080917C0281FF09C020E04091780260919B
:105200007702809176020E94B21380917C0282FF25
:1052100006C080917B028823D1F00E94B91D809145
:105220007C0283FF03C081E08093090310927C021B
:105230000E94A20BF89480917D02882359F00E946D
:105240007C0F0E94A20B2ECF0E94EE10D1CF0E94A5
:10525000C709E5CF0E94610FF4CF1F921FB61F92BE
:1052600011248F939F93AF93BF9380915803811123
:1052700013C08091590390915A03A0915B03B091A0
:105280005C034196A11DB11D8093590390935A036D
:10529000A0935B03B0935C03BF91AF919F918F91FB
:1052A0001F901FBE1F901895CDB7DEB7E9970FB6B8
:1052B000F894DEBF0FBECDBF84B7877F84BF0FB623
:1052C000F894A895809160008861809360001092A6
:1052D00060000FBE80E890E00FB6F8948093610004
:1052E000909361000FBE85B7806885BF85B78068E1
:1052F00085BF80EA9BE09093E5018093E4010E94E2
:1053000092070E9485088091E20084608093E20009
:105310007894809176038823A1F01091E9001F70A2
:105320009091EC00892F817090FD80E8182B1092ED
:10533000E9008091E80083FD0E94D3181F7010934C
:10534000E90082E084BD93E095BD9AEF97BD80931C
:105350006E00109297021092980210929902109289
:105360009A020E947913811102C00E9494120E9435
:1053700049118093500180915001882309F46DC038
:105380001092650188E0809366010E9449118111A5
:105390000E94CB33809150018091500196E08111A1
:1053A00090E09093A80286E0891B8093A70206EA0A
:1053B00011E09CEAE92E91E0F92ED8018D918D0142
:1053C0008F3F11F00E94A40BE016F106B1F70CEA32
:1053D00011E082EBE82E81E0F82EF80181918F0137
:1053E0008F3F11F00E94A40BE016F106B1F78CE09C
:1053F000EDEEF2E0DF01282F1D922A95E9F7EBE9A7
:10540000F2E0DF011D928A95E9F70E9439178111B8
:1054100002C00E948A1482E090E00E94A23580932C
:10542000AF020E9492139093AA028093A9020E9455
:105430000D27EFE3FCE93197F1F700C000000E946F
:105440000D278091ED0280FF0CC06FEF7FEF90E0A1
:1054500080E00E94D4350E94480988E0809365016D
:1054600092CF83E090E00E94A2350E94C41883E0AE
:105470008093E40280E280937B030E9463326DE0BC
:1054800070E082E592E00E94310F892BE9F580916E
:10549000E40263E070E081FDFCC28FE492E00E94D0
:1054A000310F892B89F56DE070E08FE392E00E9467
:1054B000310F892B49F50E945909605A75418F4F68
:1054C0009F4F60934B0370934C0380934D039093D5
:1054D0004E03EEE7F3E080E092E0DF019C011D92D5
:1054E00021503040E1F7F0938505E09384058FEF7C
:1054F0009FEF90937D0380937C0381E08093500322
:1055000080934F031092E5028091AB02811138C065
:105510000E943917811104C00E948A140E947314DA
:1055200088E090E00E94AA3560933F0370934003A7
:10553000809341039093420380910E038360809394
:105540000E036E7F71F40E94731488E090E00E9455
:10555000AA3560933F037093400380934103909377
:1055600042030E94CE090E94C70980913F0380FF39
:1055700004C060E086950E94D41D81E08093AB0258
:1055800052985A9A22982A9AEFE8F1E03197F1F767
:1055900000C0000089B182FB882780F91A997CC27B
:1055A00090E0892B8093C3029091500181E098276D
:1055B0009093C202891B8093AC020E944911811111
:1055C00002C00E94CE3381E591E090935503809311
:1055D00054038DEE92E03CE0380F3FABCE010196D4
:1055E0001C0180917603853001F500E4F02EEE2455
:1055F000E39400E112E180917603853009F44EC214
:105600000E94C8180E946C111092AE028091AD02E7
:10561000882349F080913F03816080933F0360E0DD
:1056200086950E94D41D0E94B91D0E940D27E82E68
:1056300081110E9459091DEE412E12E0512EE0EB1E
:10564000F2E0D20110E000E0B02EDD9081918D15E6
:1056500009F472C2C12CFF24F3948D25982F9F2149
:1056600009F465C20E944911882399F0C9A6BAA617
:10567000DF2081E009F480E08BA70E945018816050
:10568000782F9DA78CA749A55AA56BA58DA50E942B
:105690004425F801E055FD4F8081F826F0820E94F4
:1056A000491180910D03882309F464C080910C0393
:1056B000E0913F03E695E81BE0930803823009F090
:1056C00052C2F0E0EE59FD4FE4910E2F10E0B5EC20
:1056D000CB2EB0E1DB2E80910903882361F010927C
:1056E00009030E94B01D9093070380930603109254
:1056F0000B0310920A030E94B01DE0910603F09183
:1057000007039C012E1B3F0B2F3F3F4798F520912D
:10571000BE022223B1F01092BE022091BC02309151
:10572000BD02821B930B8F3F9F4758F4205D3A4880
:105730003093BD022093BC0280910E038860809359
:105740000E03A0900A03B0900B030E0F1F1F1093BF
:1057500007030093060386E093E0F6010995809124
:105760000A0390910B03892B29F4AB2819F081E0EF
:105770008093BE02E091C302EE0FEE0FE093C302EE
:1057800089B182FB882780F98BAB1CAA1A9900C2C9
:1057900080E02BA93CA9822BE82BE093C302109157
:1057A000C202EF70F0E0EE54FE4F80819091C10292
:1057B000890F8093C102F12C84306CF0E12FF0E06E
:1057C000E154FD4F80818F5F808360E0812F0E94D4
:1057D0007B26FF24F3948091C1028D3F6CF4E12F6E
:1057E000F0E0E154FD4F80818150808361E0812FA2
:1057F0000E947B26FF24F3948091C102082E000CA6
:10580000990B64E070E00E944E358093C102F11064
:105810000E946D0D80915003882351F18091E60222
:105820009091E7020E944118C29708F0B4C12091FC
:105830007C0330917D032115310509F019C2809157
:105840004F038823A9F00E94590900914B0310913E
:105850004C0320914D0330914E03601B710B820B62
:10586000930B6F3F7F4F8F4F9F4710F40E94610F44
:10587000E11001C0F1100E947C0F86E0E0E0F3E04F
:10588000D10101900D928A95E1F7F0900203E0902A
:105890000303109104030091050310920203109278
:1058A000030310920403109205038F2D8E2909F42F
:1058B00048C08091FE029091FF020E9441189C0115
:1058C0009091FA02992309F4F9C525313105C8F1FF
:1058D0009F3F19F09F5F9093FA02FF2059F00E94BA
:1058E000180B9FEF1F140CF491E0899F802D112459
:1058F00080930203EE2059F00E94180B9FEF1E14B4
:105900000CF491E0899F802D112480930303309142
:1059100002033323B1F020910303222391F045EBDE
:105920003403C0011124992309F476C29093020331
:1059300045EB240390011124332309F471C2309301
:105940000303812F802B09F448C08091FC029091C1
:10595000FD020E9441189C019091F902992309F4DB
:10596000A8C521353105C8F19F3F19F09F5F90937D
:10597000F902112359F00E94F60A9FEF11160CF458
:1059800091E0899F802D112480930403002359F016
:105990000E94F60A9FEF10160CF491E0899F802D6B
:1059A000112480930503309104033323B1F0209137
:1059B0000503222391F045EB3403C0011124992300
:1059C00009F432C29093040345EB2403900111249F
:1059D000332309F42DC23093050380910203909183
:1059E0000303892B90910403892B90910503892B44
:1059F00011F00E945C1886E0F101A0E0B3E0019094
:105A00000D928A95E1F70E946C119091E80289133A
:105A10008093E80280917603843009F0E2CD83E040
:105A20008093E9008091E80082FFDBCD8091E8005F
:105A300090E085FF0AC00E94B10740E2E42EF12CFD
:105A40008101882309F402C291E08091E8008B77FC
:105A50008093E800992309F4C4CD00914903109183
:105A60004A0389810115110509F4FEC18E3F09F031
:105A70008DC28A81833020F08550833008F086C241
:105A8000EA81EE3008F082C2F0E0EE5FF94C0C944F
:105A900062358CE492E003CD92E083CD8091760371
:105AA000843009F434C00E94C7098091AE0281118C
:105AB00009C0E092AE0280913F0381708093AD02F5
:105AC0000E94EE100E94610F10925803A8E1B0E00E
:105AD0000FB6F894A895A09360000FBEF0926000F6
