:100000000C9441020C945E020C945E020C945E020D
:100010000C945E020C945E020C945E020C945E02E0
:100020000C945E020C945E020C94CF200C94A121DF
:100030000C94EA1B0C945E020C945E020C945E021B
:100040000C945E020C945E020C945E020C945E02B0
:100050000C945E020C94731C0C945E020C945E0271
:100060000C945E020C945E020C945E020C945E0290
:100070000C945E020C945E020C945E020C945E0280
:100080000C945E020C945E020C945E020C945E0270
:100090000C945E020C945E020C945E020C945E0260
:1000A0000C945E020C945E020C945E02F904F90456
:1000B000250525059305B105A006A006B6052C0665
:1000C0003D063D06BC152E16C4158E159215C81595
:1000D0009515CB15D615A0152416A415DA15A81557
:1000E000DE150816AC15E2151216B215E815F21554
:1000F0009915CF159C15D215B715ED15FE151E16C1
:1001000020168A15C015371660176317661769170A
:100110006C176F17721775177E178117841778176A
:100120007B171D1A231A111A171A291A2F1A351A92
:10013000092230222823302228237C229F222823B0
:10014000F6220523A900AA004F0050004D004A00E6
:10015000BD00BE0029001E001F002000210022005B
:100160002300A8002B0014001A0008001500170037
:100170001C001800215204001600070009000A00A4
:100180000B000D00E10038001D001B0006001900E7
:1001900005001100E000E300E2002C002C00E60066
:1001A0002252E40000000E000F0028002A00130075
:1001B00012000C000000000000000000E500370005
:1001C0003600100035003A003B003C003D003E0088
:1001D0003F00427C01001E001F0020002100220081
:1001E00023002400010001000100010001000100C2
:1001F00001002F00010001000100010001000100C9
:100200000100010001000100010001000100500097
:1002100051004F0000003000330034004C00270034
:1002200026002500000000000000000038005200F9
:100230002E002D00007C01000100010001000100E2
:1002400001000100010001000100010001000100A6
:100250000100010001000100010001000100010096
:100260000100010001000100010001000100010086
:100270000100010001000100010001000100010076
:100280000100010000000100010001000100010067
:10029000010001000000000000000000010001005A
:1002A0000100010001000100010001000100010046
:1002B0000100010001000100010001000100010036
:1002C0000100010001000100010001000100010026
:1002D0000100010001000100010001000100010016
:1002E0000100010001000100010001000100010006
:1002F00001000100000001000100010001000100F7
:1003000001000100000000000000000001000100E9
:1003100001000100100343006C0075006E006B00CB
:1003200065007200000012034D0065006300680064
:10033000570069006C00640000000403090409020E
:100340003B00020100A0FA090400000103010100C2
:100350000921110100012240000705810308000165
:10036000090401000103000000092111010001221C
:10037000B600070582032000011201000200000000
:1003800008776D111730010102000105010902A172
:100390000185020901A10005091901290815002597
:1003A0000195087501810205010930093115812582
:1003B0007F95027508810609381581257F9501759D
:1003C000088106050C0A38021581257F95017508FC
:1003D0008106C0C005010980A101850319012AB762
:1003E00000150126B700950175108100C0050C09A4
:1003F00001A101850419012AA002150126A0029578
:100400000175108100C005010906A10185060507D7
:1004100019E029E7150025019508750181020507F6
:10042000190029EF1500250195F0750181020508D5
:100430001901290595057501910295017503910131
:10044000C005010906A101050719E029E7150025E6
:10045000019508750181029501750881010507194B
:100460000029FF150026FF00950675088100050884
:1004700019012905950575019102950175039101F1
:10048000C00011241FBECFEFDAE0DEBFCDBF11E008
:10049000A0E0B1E0E6E3F8E402C005900D92A63AD0
:1004A000B107D9F722E0A6EAB1E001C01D92A03D54
:1004B000B207E1F70E9441120C9419240C94000039
:1004C0008430C8F46730B8F44830A8F4E62FF0E080
:1004D00097E0899FE00DF11D112483E0EE0FFF1FCF
:1004E0008A95E1F7E40FF11DEE0FFF1FEC5AFE4F66
:1004F00085919491089581E090E008950E946002B2
:100500000895843088F461110FC0E82FF0E0EE0FF9
:10051000FF1F81E04827E40FF11DEE0FFF1FEC5B8A
:10052000FE4F85919491089581E090E008950E9496
:100530008102089581E0089581E008950E949C025F
:10054000089508950E94A1020895A5E0B0E0EBEAA5
:10055000F2E00C947F2349835A833091AD01898165
:100560009A81311114C0662359F0222349F00E9468
:100570008D08182F682F89819A810E945A0803C01C
:100580000E947408182F69817A81812F04C00E940B
:100590008D0869817A810E94BB0F2596E3E00C9457
:1005A0009B23FC01262F40815181628173818481CC
:1005B0000E94A502089581E00895CF93DF93EC0196
:1005C00060E00E94D102BE010E94A202DF91CF91A1
:1005D000089508950E9423070E94E9022FEF84E303
:1005E0009CE0215080409040E1F700C000000E9454
:1005F000991908950E94EA020E94991C08950E9488
:10060000EA020E94AA1C08950F931F93CF93DF93D1
:100610008C0161E00E94D102EC01B8010E944D17EB
:10062000882309F449C0B801CE010E949E028823A4
:1006300009F442C0B801CE010E94051A8823E1F1F5
:10064000B801CE010E9466158823B1F1B801CE0130
:100650000E941A17882381F1F8018281882341F1D1
:10066000C3308CE7D807D1F040F4C115FCE7DF07B1
:1006700091F0C130DC47A1F01BC0CB35ECE7DE07C1
:10068000A9F0CC35FCE7DF0771F0CA35DC4781F40F
:100690000E94FA0C0DC00E94FA020EC00E94020DC8
:1006A0000E94FF0209C00E94F00C02C00E94FE0CD2
:1006B000C8010E949A0201C080E0DF91CF911F9192
:1006C0000F9108950E94C31B0E94890308950E9400
:1006D0008D030E94CC1B0895089581E0089508952C
:1006E000CF93DF93D82F0E946D03C82F882319F072
:1006F0008D2F0E946F038C2FDF91CF910895089565
:10070000CF93C82F0E946C038C2F0E947003CF914F
:10071000089580E00E94800308950E94521A0E946A
:1007200080030895CF930E94521AC82F8091A80188
:10073000C81779F0C093A8010E94581C6093A901C2
:100740007093AA018093AB019093AC018C2F0E940F
:100750008003CF910895ABE0B0E0E1EBF3E00C94BF
:1007600080234F83588769877A878B8761110E941E
:10077000380C9E012F5F3F4F86E0F90111928A9558
:10078000E9F785E0FE013796D90101900D928A952F
:10079000E1F789819A814C815D81452B31F09F3F42
:1007A00031F491E08F3F19F403C091E001C090E073
:1007B00090FF09C049815A816B817C818D819E8126
:1007C0000E94640B05C0C9010E94DB028111F2CFB7
:1007D0002B96E2E00C949C23FC01808191810E9485
:1007E000BF080895662319F00E94C61202C00E9435
:1007F00021130E9498130895CF93882309F450C0C1
:10080000C82F8CEF8C0F813AD0F46C2F80910001AF
:10081000909101010E94E71A882349F06C2F809182
:100820000001909101010E94751B0E945C0C6C2FCD
:1008300080910001909101010E94671B0CC080E231
:100840008C0F883058F4C77081E001C0880FCA95BA
:10085000EAF70E941B0C0E945C0C22C0EBE5EC0F37
:10086000E33040F4F0E0E65BFE4F808190E00E94D0
:10087000871A16C0E8E5EC0FEB3150F4F0E0EE0F0C
:10088000FF1FEC5EFE4F808191810E94AC1A08C070
:1008900083E38C0F833120F461E08C2F0E94F203FC
:1008A000CF9108958823A9F19CEF980F913A40F4D5
:1008B000682F80910001909101010E94751B0DC06D
:1008C00090E2980F983060F4877091E001C0990F22
:1008D0008A95EAF7892F0E94210C0E945C0C0895EA
:1008E0009BE5980F933028F480E090E00E94871AEF
:1008F000089598E5980F9B3128F480E090E00E94DD
:10090000AC1A089593E3980F933118F460E00E94B5
:10091000F20308951F93CF93DF93182FEB010E94EA
:10092000FC03209741F08FE99FE00197F1F700C0A9
:1009300000002197F6CF812F0E945204DF91CF91C2
:100940001F910895893319F060E070E002C060E5FE
:1009500070E00E948A040895882321F00E941B0CF5
:100960000E945C0C0895882321F00E94210C0E94B3
:100970005C0C0895A0E0B0E0E0ECF4E00C947A2385
:100980007C01162FC72FFC01D281058102950F70C3
:100990000E94110C8823E9F0DD23D9F08C2F807F91
:1009A000803451F080E2810F883098F0011104C04A
:1009B0008C2F807E803269F08091AC0282FF09C06A
:1009C00082E00E94BE0C0E94110C91E0D82ED92624
:1009D00001C0D12CCC2EC2948FE0C8228C2D90E087
:1009E0008C30910508F0ACC1FC01EA5AFF4F0C9421
:1009F0006A238C2F807FCF70882311F0C295C07F2F
:100A0000DD2399F0CC2309F487C180E2810F88307F
:100A100010F0111104C08C2F0E941B0C03C08C2FEE
:100A20000E942B0C0E945C0C77C1812F0E94520403
:100A3000CC2309F485C180E2810F883038F111237D
:100A400029F18C2F0E94310C24C08C2F807FCF7015
:100A5000803211F0C295C07F112319F01130D1F10D
:100A600043C08091AC0282FD17C0DD2349F0CC2346
:100A700029F08C2F0E941B0C0E945C0C80E04DC161
:100A800080E00E945204CC2309F45AC18C2F0E94AA
:100A9000210C0E945C0C54C1DD2371F0002341F055
:100AA000013031F40E943B0C8C2B0E94450C48C154
:100AB0000E943B0C8C2B23C0011103C00E94520CDE
:100AC0002EC0013009F43CC18C2F0E94B3040E9457
:100AD000520C36C1DD2321F0063008F031C10EC0C2
:100AE000053008F02DC11BC0DD2361F0002331F07B
:100AF000F701858180FF10C18F7085838C2F0E9444
:100B0000AC041EC1002359F0193309F016C1FFEFE0
:100B100027EE83E0F15020408040E1F70CC18C2F9C
:100B20000E94B3040DC18C2F86958695837019F0B1
:100B3000813061F005C1DD2321F0812F9C2F93705E
:100B400002C080E090E00E94871A02C1DD2321F0FC
:100B5000812F9C2F937002C080E090E00E94AC1A1D
:100B6000F7C06D2F812F0E94F203F2C08C2F83708B
:100B7000B1F5D111E9C0412F429546954770440F18
:100B8000440F812F8F7090E09C01042E02C0220F31
:100B9000331F0A94E2F714FF0AC08FE090E002C00E
:100BA000880F991F4A95E2F78095909502C080E0E2
:100BB00090E0C695C695C370822B932BC23049F046
:100BC00058F4C13019F00E948D07BEC00E948407FE
:100BD000BBC00E949607B8C00E948107B5C0DD2344
:100BE00019F08C2F817001C08695882309F4ACC060
:100BF000412F429546954770440F440F812F8F70C7
:100C000090E09C01042E02C0220F331F0A94E2F7E9
:100C100014FF0AC08FE090E002C0880F991F4A9528
:100C2000E2F78095909502C080E090E0C695C69569
:100C3000C370822B932BC23049F058F4C13019F0A5
:100C40000E94F50781C00E94EC077EC00E94FE074B
:100C50007BC00E94A20778C0CF70DD2339F08C2FB3
:100C60000E94BA07812F0E94AC046EC0812F0E949F
:100C7000B3048C2F0E94CA0767C0123F21F128F4E9
:100C8000103F41F0113FC1F043C0133F19F1143F31
:100C900079F03EC0DD2341F0053008F051C08C2FC3
:100CA0008F710E94DC074CC0063008F049C0F7CFB6
:100CB0008091AC0282FD18C0DD2339F08C2F8F713A
:100CC0000E94BA073DC0DD23C9F38C2F8F710E94AB
:100CD000CA0736C0DD2329F08C2F8F710E94AE0722
:100CE0002FC00E94A9072CC0DD2349F0CF718C2FA3
:100CF0000E94BA0763E08C2F0E94A00C21C081E003
:100D00000E94BE0C0230E0F082E00E94BE0C18C0CF
:100D1000DD2331F0002391F2812F0E94FC0310C0EB
:100D2000002399F2193349F49FEFE7EEF3E0915075
:100D3000E040F040E1F700C00000812F0E94520423
:100D400088EF8C0D843020F40E94521A0E94800398
:100D5000DD2089F00E940D0C80FD0DC0F70112828C
:100D60000E94070C0E94BA07C7010E94D8060E9481
:100D7000070C0E94CA07CDB7DEB7E8E00C949623B3
:100D80000F931F93CF93DF93EC01688179818A8160
:100D90000E94CA088C010E9407080E947207B801CD
:100DA000CE010E94BA04DF91CF911F910F91089557
:100DB000CF93DF93EC01988189812B813C81232B98
:100DC00031F08F3F31F481E09F3F19F403C081E09F
:100DD00001C080E080FD1AC0CE010E940403811191
:100DE0000FC00E94110C882389F08A81882371F03A
:100DF0008091AC0282FF0AC082E00E94BE0C06C055
:100E0000CE010E94C006CE010E94DD02DF91CF918B
:100E1000089580E090E00E94871A80E090E00E94B0
:100E2000AC1A0E94380C0E945C0C0E94B7130E94FE
:100E30009813089580910001909101010E94831BF5
:100E40000E94090708950E94280C0E941A0708951D
:100E500092959F70963079F010F4925001C09A509C
:100E6000923068F4803F69F018F4883E40F409C07D
:100E7000843F29F406C0883E20F0813F11F080E0D5
:100E8000089581E00895FC0190818181238134815E
:100E9000232B31F08F3F31F481E09F3F19F403C0E1
:100EA00081E001C080E080FD07C0808191810E94C7
:100EB000BF080E942807089580E00895A5E0B0E0EB
:100EC000E4E6F7E00C9480232596E2E00C949C2362
:100ED000A6E0B0E0EEE6F7E00C9480232696E2E090
:100EE0000C949C23089508950E94730708950E940E
:100EF000740708950E9477079093D1018093D001E1
:100F000008950E947A0708952091D0013091D1016F
:100F1000822B932B0E947A0708952091D001309163
:100F2000D101822393230E947A0708952091D00152
:100F30003091D101822793270E947A0708950E9459
:100F4000730708950E949F079093CF018093CE016D
:100F5000089580E090E00E94A207089521E030E02B
:100F6000A90102C0440F551F8A95E2F7CA010E94E9
:100F7000A207089521E030E002C0220F331F8A95B6
:100F8000E2F78091CE019091CF01822B932B0E94AA
:100F9000A207089521E030E002C0220F331F8A9596
:100FA000E2F7209530958091CE019091CF01822378
:100FB00093230E94A207089521E030E002C0220F8F
:100FC000331F8A95E2F78091CE019091CF0182275D
:100FD00093270E94A20708952091CE013091CF015E
:100FE000822B932B0E94A20708952091CE0130916D
:100FF000CF01822393230E94A20708952091CE015E
:101000003091CF01822793270E94A2070895089567
:10101000962F9770A1E001C0AA0F9A95EAF793E086
:10102000769567959A95E1F7660F771F660F771F9C
:10103000FA01E60FF71F40E050E0682F70E0908162
:101040009B01042E02C0369527950A94E2F7217081
:10105000219529272A23292721934F5F5F4F443069
:10106000510569F70895FB01782F777023E0969575
:1010700087952A95E1F7880F991F880F991FE80F28
:10108000F91F40E050E080E0219130E0072E02C0DF
:10109000369527950A94E2F721703327042E01C074
:1010A000220F0A94EAF7822B4F5F5F4F44305105BD
:1010B00059F70895282F862F973060F4283050F480
:1010C000622F70E028E0929F600D711D112442EBA9
:1010D00051E007C09C5F923030F4622F70E04EEA1E
:1010E00051E00E9408080895292F973058F488305D
:1010F00048F490E062EB71E038E0239F800D911D91
:10110000112406C02C5F223030F46EEA71E090E0CA
:101110000E943308089580E00895A0E0B0E0E3E97C
:10112000F8E00C9479237C010091CE011091CF015D
:101130008091D0019091D101082B192BCFE0D0E004
:10114000CC24C394D12CC6010C2E02C0880F991F49
:101150000A94E2F780239123892B21F4219798F7B1
:10116000B12C07C0BC2EB7018C2F0E94D50F019760
:10117000A9F38B2DCDB7DEB7E9E00C949523CF937F
:10118000DF93EC010E948D08BE010E94D50FDF9114
:10119000CF9108951F93CF93DF93EB019091AD0111
:1011A000992321F0CB010E94BF0813C0882349F086
:1011B000CB010E948D08182F682FCE010E945A087B
:1011C00004C0CB010E947408182FBE01812F0E9419
:1011D000D50FDF91CF911F9108951F93CF93DF9388
:1011E000C091D20116E08091D301C81799F0D0E0E8
:1011F0001C9FF0011D9FF00D1124EC52FE4F408109
:10120000518162817381848195810E946807219652
:10121000C770E9CFDF91CF911F91089540910402EB
:1012200050910502609106027091070280910802B8
:10123000909109020E94680708952091D20190912F
:10124000D30156E02917A9F030E0529FF001539FD7
:10125000F00D1124EC52FE4F7181761306C070819F
:10126000781303C07281741306C02F5F3F4F27703D
:10127000E9CF80E0089581E008950F931F93CF9305
:10128000DF938091090282958F7009F05AC0809196
:101290000602882309F455C08091D2011091D30130
:1012A0006091040270910502C0910702D09108027A
:1012B00091E06F3F09F090E0292F06E0811709F4D3
:1012C00040C0209721F07F3F21F030E003C031E0A3
:1012D00001C0322F90E030FD31C0089FF001099F1E
:1012E000F00D1124DF01AC52BE4F11963C911197C5
:1012F000371324C03C91361321C012963C911297AB
:1013000031111CC013964D915C9114974C1B5D0BD1
:10131000483C510598F4809109028F708061809358
:101320000902E752FE4F80818F708061808384E0E4
:1013300092E00E94D8060E94ED0803C001968770D3
:10134000BDCFDF91CF911F910F910895A1E1B0E042
:10135000ECEAF9E00C9476238C0185E0F801DE01DB
:101360001D9601900D928A95E1F7F801E280909127
:101370000402209105024091070250910802411594
:10138000510531F02F3F31F481E09F3F19F403C044
:1013900081E001C080E080FD78C1F801C080D1808B
:1013A0008380948084E0A82E82E0B82EF09006021C
:1013B000B401641B750BFF2009F411C1809109026F
:1013C000382F307F683C710508F0CBC031118AC0DE
:1013D000D21213C0C91211C0FE2CE1100EC08F70C2
:1013E0008061809309020E940E09C5010E94D806FF
:1013F00080910902F801858362C18114910439F05A
:10140000FFEFDF1206C081E0CF1203C003C081E00E
:1014100001C080E080FD03C081E08E2502C080E035
:1014200090E080FF05C04E2D6D2D8C2D0E941D0972
:101430008114910439F02FEFD21206C081E0C2125C
:1014400003C003C081E001C080E080FD03C081E0F3
:101450008E2502C080E090E0682F6170B62E80FF7C
:1014600037C04E2D6D2D8C2D0E941D09F82E811137
:101470002FC0CD86DE868D859E850E94BF08292FD0
:1014800022952F70243020F49F70223028F009C05C
:101490002A50223088F017C0992351F0811108C0DA
:1014A0000EC1992329F0F8019581907F09F407C1B5
:1014B000805E883040F403C1803F08F400C1815F42
:1014C000833008F4FCC0C8010E94D806FB2CF7C08A
:1014D000FE2CEE2009F4F3C0809109028160809314
:1014E000090254C0D21206C0C91204C0E11002C0E1
:1014F000F80199C0C8010E944307882361F1EE20DA
:1015000051F120910902822F82958F7090E002970D
:1015100074F0809104029091050298878F83198658
:101520009B868A862C87CE0107960E94D80686E085
:10153000F801A4E0B2E001900D928A95E1F70E94D3
:101540003D090E940E090AC0D21611F1C8010E947D
:10155000430781112CC0C8010E94D806FF24F394D0
:10156000AEC03111F1CF782D998A888AA6016E2DEF
:1015700089890E945E0784E092E00E94D80686E096
:10158000F50111928A95E9F70E940E09F12C97C096
:10159000C912DCCFE110DACFF8018583C8010E94BF
:1015A000D80686E0F50111928A95E9F788C0EE2009
:1015B00091F220910902822F82958F7090E002971C
:1015C0000CF4B5CF80910402909105029A8389832F
:1015D0001B829D828C822E83CE010196A6CF683C11
:1015E000710508F044C0FE2CEE2009F4B4CFD212ED
:1015F00030C0C9122EC02091090220FD21C0822FC7
:1016000082958F70482F50E041155105C9F0F801BF
:1016100025834F30510541F08F5F982F9295907F31
:10162000822F8F70892B8583C8010E94D80686E09F
:10163000F801A4E0B2E001900D928A95E1F73DC077
:1016400086E0F801A4E0B2E001900D928A95E1F7FE
:1016500036C0C8010E944307811169CF80910902F9
:10166000816080930902C8010E94D80628C0782DA5
:10167000998A888AA6016E2D89890E945E0786E074
:10168000F50111928A95E9F718C0EE2009F463CFAD
:10169000C8010E944307F82E882309F45CCF86E036
:1016A000F801A4E0B2E001900D928A95E1F784E0A0
:1016B00092E00E94EC030E943D090E940E098F2DCA
:1016C0006196ECE00C949223ACE0B0E0EAE6FBE03B
:1016D0000C947F234F83588769877A878B879C87F1
:1016E000CE0107960E94A6098823D1F09F818885A4
:1016F0002A853B85232B31F08F3F31F481E09F3FDA
:1017000019F403C081E001C080E080FD47C04F8133
:10171000588569857A858B859C850E9468073EC0BF
:1017200086E0FE013796DE01119601900D928A95B2
:10173000E1F7FF81E8856A857B856115710531F0E8
:10174000EF3F31F481E0FF3F19F403C081E001C0B5
:1017500080E080FD23C02091D30130E0C9010196D3
:10176000877099274091D20150E084179507F1F1D5
:10177000F983EA837D836C8396E0929FD001939FE7
:10178000B00D1124AC52BE4FFE01319601900D9266
:101790009A95E1F78093D3010E94ED0816E08091BD
:1017A000D2019091D301891771F1189FC0011124C2
:1017B0008C529E4F0E94A609882329F1E091D20104
:1017C0001E9FF0011124EC52FE4F40815181628135
:1017D0007381848195810E9468078091D20190E095
:1017E0000196877099278093D201D9CF0E94230751
:1017F0001092D3011092D201E4E0F2E086E0DF0122
:101800001D928A95E9F72C96E3E00C949B23809136
:101810002A02859585958595089580912A0287707D
:10182000089590912A02977081E009F480E008956C
:1018300080914D02089590914D02892B80934D0225
:101840000895809590914D02892380934D020895CB
:1018500010924D02089590914C02892B80934C0276
:101860000895809590914C02892380934C020895AD
:1018700010924C02089580912B02089508950E94C1
:101880003E0C08950E943F0C08959091AC0292FF87
:1018900008C090912B02981721F080932B020E9490
:1018A000420C089580912B02882329F010922B027C
:1018B00080E00E94420C0895CF93DF93E0910001F5
:1018C000F091010180914D028083E0910001F0913F
:1018D0000101908180914C02892B808380912B02A1
:1018E000882381F0E0910001F09101019081892B22
:1018F000808380910001909101010E94D11A811191
:101900000E94520CC0910001D091010140E250E0D0
:101910006AE072E0CE010E94BB23892B59F080E27D
:10192000FE01AAE0B2E001900D928A95E1F7CE01A6
:101930000E945F1ADF91CF9108950E943E0C089596
:101940009091AC0292FF11C098E0899F9001112400
:10195000262B20932A020E94BA0780912A0285959D
:10196000859585950E949D0C08950E94BA0708955B
:1019700010922A0280E00E949D0C089520912A0274
:101980008095822380932A02982F977099F430E0F3
:10199000482F082E000C550B2417350759F090914D
:1019A000AC0292FF07C08595859585950E94CA0770
:1019B0000E94B80C08959091AC0292FB222720F966
:1019C000281769F080FB92F99093AC028091AB02EA
:1019D0009091AC020E94230D82E00E94BE0C0895FB
:1019E0008091AC0282FB882780F991E089270E94D0
:1019F000DB0C089581E00E94DB0C089580E00E94DA
:101A0000DB0C08956FEF7FEF80E090E00E940324ED
:101A1000089580E090E00E94DF2321E0873E9E4F02
:101A200009F020E0822F089582E090E00E94D12307
:101A3000089583E090E00E94D123089584E090E02F
:101A40000E94DF230895BC0184E090E00E940324FB
:101A50000895AB01BC018FE090E00E94F723089548
:101A6000AB01BC0183E190E00E94F723089560E0A0
:101A700070E0CB010E94300D089560E070E0CB0172
:101A80000E94290D0E94370D089567EE7EEF80E0D9
:101A900090E00E94032460E082E090E00E94E52351
:101AA00060E083E090E00E94E5231092D101109263
:101AB000D00160E074E184E090E00E94032460E0E3
:101AC00086E090E00E94E5236FEF87E090E00E94BF
:101AD000E52340E050E0BA0188E090E00E94F7235F
:101AE00060E08DE090E00E94E52340E050E0BA0124
:101AF00088E190E00E94F72360E087E190E00E9497
:101B0000E52340E050E0BA018CE190E00E94F72329
:101B100060E070E080E290E00E9403240E94F617EB
:101B20000E943D0D08950E94450D089588E190E0C2
:101B30000E94D9230895AB01BC0188E190E00E9486
:101B4000F7230895682F8EE090E00E94E523089522
:101B5000A5E0B0E0EEEAFDE00C947E230E944C1C70
:101B60008C0180914E0290914F0208171907A1F045
:101B70008FEF89838A831B820E944C1C8160782F9F
:101B80009D838C8349815A816B818D810E94AB0337
:101B900010934F0200934E022596E4E00C949A2392
:101BA0000E94581C60935F027093600280936102F0
:101BB0009093620260935B0270935C0280935D027B
:101BC00090935E0208950E94581C60935F02709388
:101BD0006002809361029093620260935702709357
:101BE00058028093590290935A02089581E0089513
:101BF00081E008950E94F80D089508950E94FD0D5A
:101C000008950E94FD0D08950E94010E08950E94FE
:101C1000FD0D08950E94070E08950E94FD0D089580
:101C200089EB90E10E94481A0E940D0E0E940A0E54
:101C300008950E94FE0D0E94FD0D08950E94D81087
:101C40000E947F030E94161808950E94431C0E9460
:101C500057160E94A8110E941E0E0E94040E08959D
:101C6000A5E0B0E0E6E3FEE00C9478230E94F60DD8
:101C7000811103C00E94A80D52C00E94BE1180E5D0
:101C8000E82E82E0F82E670100E0F60111916F0165
:101C9000802F0E94F61081270F5F073019F08823EC
:101CA000A1F302C0882331F38091630281FD0E9479
:101CB000FC100E94FA0DA82E10E0812F0E94F61051
:101CC000B82EF701C080C82611F100E0DD24D394BE
:101CD0008C2D8D21B1F0AA20A1F009831A8391E007
:101CE0008B2D8D2109F490E09B830E944C1C816018
:101CF000782F9D838C8349815A816B818D810E94CD
:101D0000AB030F5FDD0C083019F7F701B0821F5FDE
:101D1000FFEFEF1AFF0A173081F60E94D00D0E94E4
:101D2000A4170E94751681110E94E30D0E94D91319
:101D30000E9492032596EAE00C9494231F93CF937C
:101D4000DF930E94DA0FEC01C11580E5D807E8F5B2
:101D5000C11590E4D90708F0A8C0C03ED10530F500
:101D6000CD3CD10508F094C0C83AD10578F4C53A05
:101D7000D10508F083C0C130D10509F47CC008F456
:101D8000F2C0C430D10508F0F1C0EDC0C33CD105AC
:101D900008F0E9C0C85AD0E0CC0FDD1FC35BDE4FAE
:101DA0000990D881C02DCE019464E1C0C11580E2B4
:101DB000D80708F0CBC0C11591E0D90708F06BC077
:101DC000C83ED10508F4D2C0CEC0C03682E5D807DF
:101DD00028F5C03492E5D90708F079C0C03282E511
:101DE000D80708F06CC0C11592E5D90708F481C086
:101DF0004C2F4695469580E2489FA0011124C37060
:101E000021E030E0C90102C0880F991FCA95E2F7AE
:101E1000EA01C82BD92BCE019D68A9C0C03A82E542
:101E2000D807B8F48C2F8F71C03892E5D90708F025
:101E30007BC08695869590E2899F90011124C3709E
:101E400081E090E002C0880F991FCA95E2F79A6876
:101E500068C0C03C82E5D80708F46DC0C03E92E57A
:101E6000D90708F080C0CF71DD27DC2FCC27CE0149
:101E7000806F906A7CC081E090E079C0C55AD0E064
:101E8000CD57DE4F8881C82FD0E0CE0190646FC05F
:101E9000CE0190656CC08D2F0E947610182FCE0158
:101EA00099270E94DA0F1F715CC0CE0199270E940A
:101EB000DA0FCC27DF70D06A8C2B9D2B58C0CF71E6
:101EC000D0E0DC2FCC27CE01816F906A50C08C2FE0
:101ED0008F718695869590E2899F90011124C37039
:101EE00081E090E002C0880F991FCA95E2F79C68D4
:101EF00018C08C2F8F710E94761095E0D695C795EB
:101F00009A95E1F7CF70D0E0DC2FCC27282F30E076
:101F100084FF05C084E0220F331F8A95E1F7D06962
:101F2000CE01822B932B23C090E0D82FCC27CE015B
:101F3000846F906A1CC08C2F8F710E9476108F71F5
:101F400090E0D82FCC27CE01906211C08D2F8F71D9
:101F50000E947610182FCE0199270E94DA0F1F7168
:101F60009062912B04C080E090E001C0CE01DF912F
:101F7000CF911F910895462F672F773028F448306E
:101F800088F40E947E0208957D3F21F441110AC029
:101F900041E004C07C3F31F4411104C060E00E9484
:101FA0009702089580E090E008950E94BB0F0E9480
:101FB0009E0E08958238910569F1B0F48133910540
:101FC00009F475C048F48932910509F467C08A3272
:101FD000910509F471C008958533910509F459C03C
:101FE00089339105B9F00895833E910589F138F45C
:101FF000803E9105D1F0823E910529F10895863EFB
:102000009105C9F1873E9105D9F1843E910509F00A
:102010006CC027C02091AB0220FD57C021FD55C0E8
:102020002091AC0223FD5BC008958091AB0280FD3E
:1020300048C08091AC0280FF48C08091AB0284FD13
:1020400046C083EE51C08091AB0282FF3CC0F5CF09
:102050008091AB0282FD37C08091AC0280FD35C01B
:10206000ECCF8091AC0281FF36C08091AB0284FD41
:102070002EC087EE39C08091AB0283FF2AC0F5CF16
:102080008091AB0283FD25C08091AC0281FD23C00D
:10209000ECCF8091AB0285FD22C01FC08091AB02C6
:1020A00085FD1BC08091AC0283FF19C00AC08091DE
:1020B000AB0286FD16C017C08091AB0286FD13C02F
:1020C00010C089E311C082EE0FC080EE0DC080E029
:1020D0000BC086EE09C084EE07C085E305C089E227
:1020E00003C08AE201C081E390E008959091AB02C1
:1020F00092FF0DC0282F2871283019F4877F846043
:1021000006C0282F2471243011F48B7F886093FF40
:102110000DC0282F2871283119F4877E846106C0EC
:10212000282F2471243111F48B7E88612091AC0218
:1021300020FF0DC0382F3871383019F4877F816047
:1021400006C0382F3171313011F48E7F886021FF45
:102150000DC0282F2871283119F4877E816106C0AF
:10216000282F2171213111F48E7E886194FD877EA4
:10217000089580E008950E94020D08950E94BE1106
:102180002FEF86E791E0215080409040E1F700C0BA
:1021900000000E94BE1180E00E94F61080FF04C083
:1021A0000E94BB100E94991C08950E94BE100895C1
:1021B0000E94090D811102C00E94930D0E94140D0E
:1021C000809363020E941E0D9093AC028093AB0239
:1021D0000E94D5100E94190D90E00E948107809105
:1021E000CE019091CF010E949F070895E82FF0E063
:1021F000EC54FD4F80810895089580EA8A95F1F7A7
:10220000089500C008950E94FD10089508950E9449
:10221000061108950E94071108950E94061108955D
:102220000E940D110895F894E82FE295EF70F0E008
:1022300031A1282F2F7081E090E001C0880F2A95EE
:10224000EAF7982F9095932391A392A1892B82A3CB
:10225000789408950F931F93CF93DF93CEE8D1E046
:1022600089918F3F11F00E94131181E0C539D80781
:10227000B9F7C6E8D1E00EE811E089918F3F11F07F
:102280000E9413110C171D07C1F7DF91CF911F9109
:102290000F910895A0E0B0E0E0E5F1E10C947A231D
:1022A0008C01C62FD0E0CE0182579E4F7C01FC01ED
:1022B00090819F3F09F447C0D62EF894E92FE2950C
:1022C000EF70F0E081A19F7021E030E001C0220FAB
:1022D0009A95EAF7822B81A382A12095282322A335
:1022E00078940E940111E6E8F1E04EE851E031E017
:1022F000C12C21912F3F89F0A22FA295AF70B0E0A1
:1023000090968C9190E02F7002C0959587952A95B4
:10231000E2F780FD02C0832F01C080E0C82A330F9E
:102320004E175F0731F7F70180818F3F11F00E9450
:10233000131161E0C11001C060E08D2D0E940311F6
:10234000C00FD11FC882CDB7DEB7E8E00C9496234A
:102350000E942A1187E0E4EBF2E0DF01982F1D9242
:102360009A95E9F7EDEAF2E0DF011D928A95E9F727
:1023700087E00E94F9110E9410110895A7E0B0E0D3
:10238000E4ECF1E10C947D238E010F5F1F4F87E099
:10239000F80111928A95E9F7F12C6F2DC8010E947E
:1023A0004A11F394F7E0FF12F8CF47E050E0B8018C
:1023B0008DEA92E00E94BB2321E0009709F420E01F
:1023C000892B41F087E0F801ADEAB2E001900D926F
:1023D0008A95E1F747E064EB72E08DEA92E00E94B3
:1023E000FA11182F0E940A11812F2796E5E00C940C
:1023F00099230895EF92FF920F931F93CF93DF934A
:102400007C018B01C42F222349F081E08093660276
:102410000E944C1C90936502809364028091660236
:10242000811102C080E01AC080916402909165021F
:102430000E94641C0597B0F3D0E0AE01B701C8015B
:102440000E94BB23892B39F0AE01B701C8010E945D
:10245000C82381E001C080E010926602CDB7DEB7EC
:10246000E6E00C9498230E94241E0E94250E0E94F0
:10247000311E08950E94361E0E94300E0E94501E8A
:1024800008950E94E31B0E940A1E0E94100E0E94E3
:1024900033120E943A120E94190EFBCF80916D02F6
:1024A00080FF06C06091070170E0660F771F26C0AD
:1024B00081FF04C06091070184E005C082FF07C06E
:1024C0006091070188E0689FB001112417C09091C6
:1024D0006C029923D1F060910601961788F720913C
:1024E000070188E0289F90011124929FA001939FEB
:1024F000500D112470E0CA010E9456236038710506
:1025000040F46115710519F406C068E070E0862F8B
:1025100008958FE7089581E0089580916D0280FF0E
:1025200008C06091030170E0759567957595679592
:1025300021C081FF06C06091030170E07595679529
:1025400019C082FF04C06091030170E010C0909137
:102550006B02992399F0609102019617A0F7809180
:102560000301899FC001112470E00E945623603846
:10257000710540F46115710519F406C061E070E061
:10258000862F08958FE7089581E008958D3C21F40A
:102590000E944E12819504C08E3C29F40E944E1276
:1025A0008093710208958F3C21F40E944E12819510
:1025B00004C0803D29F40E944E1280937002089559
:1025C000893D19F40E948D1205C08A3D31F40E94A4
:1025D0008D1281958093720208958B3D21F40E94A3
:1025E0008D12819504C08C3D29F40E948D12809338
:1025F000730208959FE2980F983078F421E030E05C
:10260000A90102C0440F551F9A95E2F7CA019091A3
:102610006F02892B80936F0208958D3D21F4809184
:102620006D0281600BC08E3D21F480916D0282604D
:1026300005C08F3D29F480916D02846080936D0206
:1026400008958D3C39F49091710297FF35C0109236
:10265000710259C08E3C29F4909171021916BCF395
:102660002BC0909170028F3C29F497FF25C01092E7
:10267000700249C0803D19F41916CCF31DC0909129
:102680007202893D29F41916BCF4109272023BC003
:102690008A3D19F497FF10C0F8CF8B3D39F4909123
:1026A000730297FF09C0109273022DC08C3D21F474
:1026B000909173021916BCF39FE2980F983080F442
:1026C00021E030E0A90102C0440F551F9A95E2F7BE
:1026D000CA01809590916F02892380936F0213C085
:1026E0008D3D21F480916D028E7F0BC08E3D21F4D3
:1026F00080916D028D7F05C08F3D29F480916D0220
:102700008B7F80936D0280917002811106C0809151
:102710007102811102C010926C02809172028111CB
:1027200006C080917302811102C010926B0208955D
:102730000E944C1C20917002211104C02091710252
:10274000222321F090936A02809369022091720201
:10275000211104C020917302222321F0909368027A
:10276000809367028EE692E00E94791A0895EEE661
:10277000F2E086E0DF011D928A95E9F710926C0283
:1027800010926B0210926D020895FC0182818111FA
:102790000DC0838181110AC08481811107C091E03D
:1027A0008581811101C090E0892F01C081E0817095
:1027B0000895A6E0B0E0EFEDF3E10C947F2386E00E
:1027C000EEE6F2E0DE01119601900D928A95E1F7B6
:1027D00010927002109271021092720210927302A3
:1027E0008B81811104C08C81882309F45FC08091A2
:1027F000690290916A020E94641CAC0190916C0283
:10280000992339F02091080130E02417350758F05A
:102810004DC0209109018AE0289F900111242417BE
:10282000350718F043C09F3F19F09F5F90936C02EB
:102830001B81112361F00E944E12111614F09FEFBC
:1028400001C091E0989F902D1124909370021C81FB
:10285000112361F00E944E12111614F09FEF01C077
:1028600091E0989F902D1124909371023091700205
:102870003323E1F0209171022223C1F045EB3403B0
:10288000C0011124992319F09093700203C081E0D4
:102890008093700235EB2303C0011124992319F0B2
:1028A0009093710203C081E0809371028D81811148
:1028B00004C08E81882309F45FC0809167029091E3
:1028C00068020E94641CAC0190916B02992339F05C
:1028D0002091040130E02417350758F04DC02091B5
:1028E00005018AE0289F900111242417350718F06C
:1028F00043C09F3F19F09F5F90936B021D8111238E
:1029000061F00E948D12111614F09FEF01C091E04A
:10291000989F902D1124909372021E81112361F0D3
:102920000E948D12111614F09FEF01C091E0989F44
:10293000902D112490937302309172023323E1F0B1
:10294000209173022223C1F045EB3403C00111240E
:10295000992319F09093720203C081E08093720270
:1029600035EB2303C0011124992319F090937302CE
:1029700003C081E080937302BE016F5F7F4F8EE6DC
:1029800092E00E94951B811105C08EE692E00E94A4
:10299000C51381110E94981386E0FE013196AEE6C0
:1029A000B2E001900D928A95E1F72696E3E00C944F
:1029B0009B2380930A01089590E0FC01EC58FD4FA1
:1029C0002081211102C08C9A01C08C98FC01E8582A
:1029D000FD4F1082FC01E958FD4F10820895CF93FE
:1029E000DF939091BC02C82FD0E0FE0192FD03C09E
:1029F000E858FD4F02C0E958FD4F808181111AC08F
:102A0000FE01E858FD4F81E08083FE01E958FD4F4B
:102A100080830E944C1CFE01EE0FFF1FEB58FD4F00
:102A200091838083CC58DD4F8881882311F08C9A64
:102A300001C08C98DF91CF91089580E00E94EF143F
:102A4000089580917802882379F1809175029091A0
:102A500076020E94641C20910A0130E02817390791
:102A600020F480E00E94DC1408952091BC0222FF33
:102A70001BC08770992720917702049750F4211189
:102A800013C081E08093770280917402882359F00B
:102A900008C0222349F010927702809174028111BC
:102AA00002C08C9A08958C98089581E080937402F6
:102AB0008C98849A80E00E94EF14089580917402AB
:102AC000811102C08C9A08958C980895CF93DF935A
:102AD000FC01DB0112968C91882309F4DDC09F0173
:102AE00030572332310508F0D8C0EF010E941E0D87
:102AF0009093AC028093AB02FE01E150F047E232CA
:102B0000F10520F4EE59FF4F0C946A238091AB023B
:102B10008160AAC08091AC028860B2C08091AB0293
:102B20008260A2C08091AB0220C08091AB0288601D
:102B30009BC08091AC021EC08091AC028260A0C09C
:102B40008091AB02806190C08091AB0280628CC0AA
:102B50008091AB02806488C00E9423078091AB0201
:102B6000806882C08091AB02886084607DC0809163
:102B7000AC028260816084C08091AB028E7F74C0A1
:102B80008091AC02877F7CC08091AB028D7F6CC04E
:102B90008091AB0220C08091AB02877F65C080919D
:102BA000AC021EC08091AC028D7F6AC08091AB02E6
:102BB0008F7E5AC08091AB028F7D56C08091AB0250
:102BC0008F7B52C00E9423078091AB028F774CC04D
:102BD0008091AB02877F8B7F47C08091AC028D7F55
:102BE0008E7F4EC08091AB0282FB222720F991E0BC
:102BF000922790FB82F990FB83F936C08091AC025A
:102C0000982F909591708E7F892B90FB81F938C019
:102C10008091AB0286FB222720F991E0922790FB5E
:102C200086F922C00E9423078091AB0287FB2227EE
:102C300020F991E0922790FB87F916C081E001C04E
:102C400080E00E94A20D1EC08091AB0284FB22276F
:102C500020F991E0922790FB84F906C08091AB02A5
:102C6000982F909590FB80F98093AB020BC08091D8
:102C7000AC0283FB222720F991E0922790FB83F995
:102C80008093AC028091AB029091AC020E94230D24
:102C90000E94230780E001C081E0DF91CF91089579
:102CA0008FE891E00197F1F700C00000089581E0FE
:102CB00080937A0252985A9A53985B9A0E945016BF
:102CC00030917A02ECE7F2E090E0931769F089B175
:102CD00082FB882780F94B9902C020E001C022E0E6
:102CE000822B81939F5FF1CF0895A4E1B0E0EBE7E1
:102CF000F6E10C94752310E000E084E0C82ED12C9E
:102D00009DEF992E882483942CEF722E80917A0265
:102D1000181708F08AC0E12EF12CE9B1E2FBEE278A
:102D2000E0F94B9902C080E001C082E08E2BD70110
:102D3000A458BD4FEC912E2F237030E0482F082E61
:102D4000000C550B2417350709F46DC0EE0FEE0F7C
:102D5000E82BEC93EF70F0E0EB56FE4FC70185587F
:102D60009D4F5C019081F5018081890F80838430C3
:102D700034F1F701E758FD4F80818F5F80830E9417
:102D80004C1C1B877C868D868160782F9F878E8761
:102D9000412F5CEF61E08F850E94AB030E944C1CC9
:102DA000188B798A1A8A8160782F9C8B8B8B412FA4
:102DB0005CEF60E08C890E94AB0321E001C020E061
:102DC000F50180818D3F2CF5F701E758FD4F80819B
:102DD000815080830E944C1C19839A828B8281606F
:102DE000782F9D838C83412F5DEF61E08D810E9460
:102DF000AB030E944C1C1E839F8218868160782F33
:102E00009A878987412F5DEF60E08A850E94AB0336
:102E100021E0F5018081082E000C990BB6010E947B
:102E200056238083022B1F5F71CF802F6496EDE0C5
:102E30000C949123CF93DF9386319C4741F5EB01AE
:102E40000E94180C982F8A81209100013091010175
:102E5000882379F09A7A81E009F480E080937D02FA
:102E6000911102C069E201C065E3C9010E94671BBC
:102E70000AC080917D02811102C069E201C065E350
:102E8000C9010E94751B0E945C0C80E001C081E0BA
:102E9000DF91CF91089581E008950F931F93CF9311
:102EA000DF938C01EB018A81882381F1F801E054E2
:102EB000FC47ED30F10550F5EC57FF4F0C946A23B9
:102EC0000E94A71723C00E94B71720C00E94C717EF
:102ED0001DC00E94F6171AC00E94DB1717C00E947F
:102EE000C61814C00E94711811C00E9482180EC02A
:102EF0000E94F2180BC00E94171908C00E946419A2
:102F000005C00E946E1902C00E9482190E943719E2
:102F10008823A1F08A81882369F00E943B198230BE
:102F200068F4BE01C8010E944B17882339F00E9443
:102F3000961904C00E943B198111F3CF81E0DF9103
:102F4000CF911F910F9108950E9421150895EBEBE9
:102F5000F2E08081816080836091BB027091BC024D
:102F60008091BD029091BE020E949B0D0895EBEBF3
:102F7000F2E080818E7F80836091BB027091BC0201
:102F80008091BD029091BE020E949B0D0895809198
:102F9000BB0280FF03C00E94B71702C00E94A717A0
:102FA0006091BB027091BC028091BD029091BE0203
:102FB0000E949B0D08959091BB02892F86958F5F8B
:102FC0008370997F833029F0880F892B8093BB020F
:102FD00002C09093BB026091BB027091BC028091D1
:102FE000BD029091BE020E949B0D0895EBEBF2E0B2
:102FF00080818160897F8083ECEBF2E08081877043
:10300000ADEBB2E09C919C7F9C9380668B7F80832C
:103010008CE00E94D9146091BB027091BC02809137
:10302000BD029091BE020E949B0D08950E94090D61
:10303000811102C00E94930D0E94960D6093BB0205
:103040007093BC028093BD029093BE029091BC022B
:103050009695969596958091BD0283708295880F7E
:10306000807E892B0E94D9148091BB029091BC0272
:10307000A091BD02B091BE02892B8A2B8B2B71F0DF
:103080008091BC02982F9695969596958091BD0259
:1030900083708295880F807E892B11F40E94F61729
:1030A0000E9455150895EBEBF2E0282F220F220F16
:1030B000220F90819770922B9083829586958370D2
:1030C000ECEBF2E090819C7F892B80836091BB02C6
:1030D0007091BC028091BD029091BE020E949B0D36
:1030E00008958091BB02982F96959695969580911C
:1030F000BC0283708295880F807E892B8F5F0E942F
:10310000531808958091BB02982F969596959695A1
:103110008091BC0283708295880F807E892B8150BC
:103120000E9453180895EDEBF2E0282F220F220F92
:10313000220F90819770922B9083EEEBF2E08295B4
:10314000869587709081987F892B80836091BB02E0
:103150007091BC028091BD029091BE020E949B0DB5
:10316000089591E0811101C090E08091BC0290FB34
:1031700082F98093BC026091BB027091BC02809185
:10318000BD029091BE020E949B0D0895ECEBF2E00F
:10319000908192FB222720F981E0822780FB92F91F
:1031A00090830E94B1180895ECEBF2E0282F220FD3
:1031B000220F220F90819770922B90838295869593
:1031C0008370EDEBF2E090819C7F892B808360918E
:1031D000BB027091BC028091BD029091BE020E9420
:1031E0009B0D0895CF93DF93C091BC028C2F8695E1
:1031F00086958695C091BD02C370C295CC0FC07EE6
:10320000C82BD0E0C436D1053CF42196C536D10593
:103210002CF0C4E6D0E002C0C4E0D0E08C2F0E94C5
:10322000D9148C2F0E94D418DF91CF910895CF9399
:10323000DF93C091BC028C2F869586958695C091B0
:10324000BD02C370C295CC0FC07EC82BD0E0C53084
:10325000D10514F0219702C0C4E6D0E08C2F0E9463
:10326000D9148C2F0E94D418DF91CF9108958091AA
:10327000BB02817008958091BB0280FF03C08695D8
:103280008370089580E00895EDEBF2E08081846022
:1032900080836091BB027091BC028091BD029091CD
:1032A000BE020E949B0D0895EDEBF2E080818B7FC2
:1032B00080836091BB027091BC028091BD029091AD
:1032C000BE020E949B0D08958091BD0282FF03C043
:1032D0000E94541908950E94441908958091BD02D6
:1032E000982F9695969596958091BE028295880F17
:1032F000807E892B883710F4865F01C088E70E94A2
:10330000931808958091BD02982F9695969596955D
:103310008091BE028295880F807E892B843110F0C7
:103320008A5001C084E10E94931808950E941D15DF
:1033300008950E945E1508950F931F93CF93DF9316
:10334000C42FD22FFC0182818823B1F040938002E8
:103350000E944C1C90937F0280937E0280E28C0F2F
:10336000883008F04DC0C77081E001C0880FCA9551
:10337000EAF70E94AC0444C080918002481330C038
:1033800080917E0290917F020E94641C883C91058E
:1033900038F510E21D0FCD17B9F080E28C0F8830A0
:1033A00040F4C77081E001C0880FCA95EAF70E9417
:1033B000B304183010F581E09D2F977001C0880F7D
:1033C0009A95EAF70E94AC04802F0E94A20418305C
:1033D000B8F4D77081E001C0880FDA95EAF70AC027
:1033E00080E28C0F883060F4C77081E001C0880FE4
:1033F000CA95EAF70E94B30403C0802F0E94A2047A
:10340000DF91CF911F910F9108950F93FC01E85127
:10341000FC47E730F10590F5CB01EF56FF4F0C94D8
:103420006A2306E221EE41EE6AE17CE723C007E26F
:1034300025EE45EE6BE17CE71DC006E221EE40EE95
:1034400068E17CE717C007E225EE44EE69E17CE71E
:1034500011C006E221EE42EE6CE17CE70BC007E210
:1034600025EE46EE6DE17CE705C008E221E045EE81
:103470006EE17CE70E949C1980E008C0FB0182811C
:10348000882319F01092800201C081E00F91089505
:103490009093A7018093A60108959093860280934C
:1034A00085020895E0918502F0918602309729F017
:1034B0000190F081E02D0995089580E00895FC01C8
:1034C000A0918502B0918602109791F0809113012E
:1034D000882341F08091AB0287FF04C08081818303
:1034E00086E08083CF011296ED91FC9113970995A8
:1034F0000895E0918502F0918602309739F022E03C
:10350000DC012C930480F581E02D09950895A3E05A
:10351000B0E0EDE8FAE10C94802320918302309131
:10352000840228173907A1F09093840280938302C4
:10353000E0918502F0918602309751F023E02983D3
:103540009B838A830680F781E02DCE010196099541
:103550002396E2E00C949C23A3E0B0E0E2EBFAE1D6
:103560000C94802320918102309182022817390720
:10357000A1F09093820280938102E0918502F09104
:103580008602309751F024E029839B838A8306804A
:10359000F781E02DCE01019609952396E2E00C9487
:1035A0009C23FC01329680911301882331F0809195
:1035B000AB0287FF02C09EE101C096E080E091501F
:1035C00028F021912223D9F38F5FF9CF0895662344
:1035D00051F1209113012223E9F02091AB0227FF42
:1035E00019C0462F4695469546954E31E0F46770D2
:1035F00021E030E002C0220F331F6A95E2F7FC01A0
:10360000E40FF11D828190E02823392381E0232BF0
:1036100069F409C0FC01329608962191621729F0DD
:10362000E817F907D1F780E0089581E008959C013B
:10363000FC0132969FEF80E04191461789F09F3F51
:1036400019F4411101C0982F8F5F8630A9F79F3F71
:1036500039F0F901E90FF11D97FDFA95628308959C
:1036600008959C012A5F3F4FFC014281461301C02F
:103670001282019682179307B9F70895262F26958F
:10368000269526952E3168F4FC01E20FF11D677036
:1036900021E030E001C0220F6A95EAF78281282BF1
:1036A00022830895262F2695269526952E3170F48F
:1036B000FC01E20FF11D677021E030E001C0220F34
:1036C0006A95EAF720958281282322830895209124
:1036D0001301222339F02091AB0227FF03C00E947F
:1036E0003E1B08950E94171B089520911301222369
:1036F00039F02091AB0227FF03C00E94521B0895AE
:103700000E94311B089520911301FC01329622235F
:1037100031F08091AB0287FF02C08EE101C086E0EC
:10372000DF011D928A95E9F7089546E050E00E9476
:10373000BB2321E0892B09F420E0822F089508950E
:103740000E949F1B089583E0809387020E94A01B24
:103750000895811102C081E001C082E08093870258
:103760000E94A01B08950E94A91B089581E08093E8
:1037700087020E94A01B08950E94B61B0895089519
:103780000E94BF1B08950E94C01B08950E94BF1B8A
:1037900008950E94BF1B08950E94BF1B0895CF93F8
:1037A0000E94C91B0E94BE110E94C61BC0E08C2F44
:1037B0000E94F610811104C0CF5FC730C1F701C06D
:1037C00081E0CF91089585B7806885BF85B780680F
:1037D00085BF08951F920F920FB60F9211248F93F9
:1037E0009F93AF93BF9380918802811113C0809102
:1037F000BF029091C002A091C102B091C202419655
:10380000A11DB11D8093BF029093C002A093C1027D
:10381000B093C202BF91AF919F918F910F900FBE55
:103820000F901F9018958091C702843031F10E944B
:1038300062031092880220E488E190E00FB6F894C9
:10384000A895809360000FBE2093600083B7817FAE
:10385000846083BF83B7816083BF7894889583B782
:103860008E7F83BF0FB6F894A89580916000886121
:1038700080936000109260000FBE08950E9423079D
:103880000E946703089582E084BD93E095BD9AEF9E
:1038900097BD80936E0008952FB7F8948091BF0272
:1038A0009091C002A091C102B091C2022FBF0895B1
:1038B0002FB7F8946091BF027091C0028091C1024D
:1038C0009091C2022FBF08959C014FB7F894809148
:1038D000BF029091C002A091C102B091C2024FBF3D
:1038E000821B930B089578941F920F920FB60F923C
:1038F00011248F939F93AF93BF938091BF029091B8
:10390000C002A091C102B091C2020196A11DB11DD9
:103910008093BF029093C002A093C102B093C202F1
:10392000BF91AF919F918F910F900FBE0F901F90FD
:10393000189587E797E790930108809300089AE02D
:1039400088E10FB6F894A895809360000FBE90931D
:103950006000FFCF9AE088E10FB6F894A8958093B5
:1039600060000FBE90936000FFCF8091A902089580
:103970009B019091C7029430F1F48F708093E9001D
:103980008FEF9091E800815095FD06C095ED9A95D6
:10399000F1F700008111F5CF8091E80085FF0BC0A1
:1039A000BA01C90140E050E00E94C81E8091E800C1
:1039B0008E778093E800089543E050E0BC0182E0F8
:1039C0000E94B81C089546E050E0BC0182E00E94CD
:1039D000B81C0895CF93DF93EC01809113018111FE
:1039E00005C048E050E0BE0181E00BC08091AB0211
:1039F00087FF03C040E282E002C048E081E050E07F
:103A0000BE010E94B81C80E2FE01A9E8B2E001906C
:103A10000D928A95E1F7DF91CF9108958091C602CA
:103A2000811109C00E9453200E94B0208091E200C1
:103A300084608093E20008951092C60208950E9467
:103A4000BC1B08956091C30281E0611101C080E058
:103A50000E94A31B08959091C70281E0943009F061
:103A600080E06091C3020E94A91B089542E061ECCE
:103A700081E00E94CC1F42E261EC82E00E94CC1FF8
:103A80009091C70281E0943009F080E06091C30218
:103A90000E94B31B08958091C902833009F461C06C
:103AA00030F4813071F0823009F49BC008958A307F
:103AB00009F487C08B3009F46CC0893009F0A9C0C3
:103AC00020C08091C802813A09F0A3C08091E8002B
:103AD000877F8093E8008091CC029091CD02892B62
:103AE00021F460E289E892E003C060E080E090E0C9
:103AF00070E00E940D1F8091E8008B778093E800B2
:103B000008958091C802813209F083C08091CC026F
:103B10009091CD02029708F07CC08091E800877FE9
:103B20008093E8008091E80082FD05C08091C70283
:103B30008111F8CF6EC02091F3008091F20090E0E7
:103B4000922B029731F48091F100813011F0863090
:103B500021F48091F1008093A9028091E8008B7795
:103B600054C08091C802813A09F053C08091CC02C0
:103B70009091CD02892B09F04CC08091E800877F9D
:103B80008093E8008091E80080FFFCCF80911301D2
:103B900037C08091C8028132E1F58091CC029091CA
:103BA000CD02892BB1F58091E800877F8093E800F2
:103BB0000E9401208091CA02809313010E94230772
:103BC00008958091C802813221F58091E800877FB5
:103BD0008093E8000E9401208091CB028093AA028A
:103BE00008958091C802813AA1F48091E800877F0E
:103BF0008093E8008091E80080FFFCCF8091AA02CA
:103C00008093F1008091E8008E778093E8000E9415
:103C10000120089584B7877F84BF0FB6F894A895D4
:103C200080916000886180936000109260000FBEF8
:103C300090E080E80FB6F894809361009093610063
:103C40000FBE0E94B61B08950E9453200E94B02010
:103C5000E2EEF0E080818460808378940E943B23D0
:103C600008958BE091E00E944D1A08958091C7025B
:103C70008530A9F48091C702853079F40E94131C25
:103C80008091C5028823B1F30E94CF1B882391F352
:103C90000E94B21E0E942307EDCF0E943E1C089591
:103CA00008959A014091CE025091CF020E94591E70
:103CB0000895492F552743305105C9F060F441302C
:103CC000510581F04230510509F044C08BE390E08A
:103CD0004EE353E043C041325105E1F04232510519
:103CE00049F138C082E190E049E753E037C09927B5
:103CF0008130910549F028F0029761F5E4E1F3E0A5
:103D000005C0EAE3F3E002C0E6E2F3E0849190E06C
:103D1000AF0124C06115710541F061307105D1F426
:103D200089E090E049E653E019C089E090E040E581
:103D300053E014C06115710541F06130710551F413
:103D400086EB90E04BE853E009C080E490E041E46A
:103D500054E004C080E090E040E050E0F90151837D
:103D60004083089580E189BD82E189BD09B400FEE8
:103D7000FDCF8091D8008F7D8093D8008091E000A6
:103D800082608093E0008091E00081FDFCCF089587
:103D9000A0E0B0E0EEECFEE10C947A23EC018B01A4
:103DA0007A010E942020811133C0E114F10439F01E
:103DB000F70180819181081B190BC80FD91FC12CF5
:103DC000D12C0115110519F18091E80085FD16C06F
:103DD0008091E8008E778093E800E114F10449F0C7
:103DE000F70180819181C80ED91ED182C08285E001
:103DF0000FC00E942020882321F30AC0899180935C
:103E0000F10001501109FFEFCF1ADF0ADACF80E08D
:103E1000CDB7DEB7E8E00C9496232091CE02309126
:103E2000CF022617370748F06115710539F4209144
:103E3000E8002E772093E80001C0B901FC0120E0E2
:103E40006115710579F18091C7028823F1F1853000
:103E5000F1F18091E80083FD3CC08091E80082FD93
:103E60002EC08091E80080FFEBCF2091F30080917D
:103E7000F20090E0922B6115710551F088309105A8
:103E800038F421912093F100615071090196F3CF2C
:103E900021E0089709F020E08091E8008E77809378
:103EA000E800CECF2111CFCF0AC08091C70288236E
:103EB00061F0853061F08091E80083FD0AC0809157
:103EC000E80082FFF2CF80E0089582E0089583E069
:103ED000089581E008952091CE023091CF022617F7
:103EE000370748F06115710539F42091E8002E7705
:103EF0002093E80001C0B901FC0120E061157105C3
:103F000091F18091C702882309F440C0853009F4FB
:103F10003FC08091E80083FD3DC08091E80082FDB4
:103F20002FC08091E80080FFE9CF2091F3008091BD
:103F3000F20090E0922B6115710559F088309105DF
:103F400040F424912093F10031966150710901965B
:103F5000F2CF21E0089709F020E08091E8008E7709
:103F60008093E800CBCF2111CCCF0AC08091C7024B
:103F7000882361F0853061F08091E80083FD0AC0FC
:103F80008091E80082FFF2CF80E0089582E00895FA
:103F900083E0089581E00895982F973068F5909315
:103FA000E900981739F07091EC002091ED005091E4
:103FB000F00003C0242F762F50E021FD02C09F5F48
:103FC000ECCF3091EB003E7F3093EB003091ED0071
:103FD0003D7F3093ED003091EB0031603093EB008A
:103FE0007093EC002093ED005093F0002091EE00D0
:103FF00027FDE5CF80E008958F708093E90081E090
:1040000008958091C80287FF11C08091E80082FD69
:1040100005C08091C7028111F8CF11C08091E800DE
:104020008B770BC08091C702882349F08091E8000C
:1040300080FFF8CF8091E8008E778093E8000895A4
:104040002091E4003091E50095E64091EC00842F4A
:10405000817040FF23C08091E80080FD1DC08091E9
:10406000C702882399F0853099F08091EB0085FD97
:1040700011C04091E4005091E5002417350729F361
:10408000915011F09A01E1CF84E0089582E0089503
:1040900083E0089581E0089580E008954091E8006C
:1040A00042FFDDCF08950E94C2200E94CA20E0EEA8
:1040B000F0E0808181608083E8EDF0E080818F779F
:1040C000808319BCA7EDB0E08C918E7F8C938081AA
:1040D0008F7E80831092C60208950F931F93CF9313
:1040E000DF930E94C2200E94CA20C8EDD0E08881E0
:1040F0008F77888388818068888388818F7D888393
:1041000019BC1092C7021092C3021092C5021092FD
:10411000C40200EE10E0F80180818B7F80838881EB
:104120008160888342E060E080E00E94CC1FE1EE85
:10413000F0E080818E7F8083E2EEF0E0808181601C
:104140008083808188608083F80180818E7F808376
:10415000888180618883DF91CF911F910F910895AD
:10416000E8EDF0E080818F7E8083E7EDF0E08081F4
:104170008160808384E082BF81E08093C6020E94D8
:104180006D200895E8EDF0E080818E7F80831092AD
:10419000E20008951092DA001092E10008951F9253
:1041A0000F920FB60F9211242F933F934F935F936B
:1041B0006F937F938F939F93AF93BF93EF93FF93EF
:1041C0008091E10082FF0BC08091E20082FF07C076
:1041D0008091E1008B7F8093E1000E943A238091DF
:1041E000DA0080FF1FC08091D80080FF1BC0809143
:1041F000DA008E7F8093DA008091D90080FF0DC0B5
:1042000080E189BD82E189BD09B400FEFDCF81E076
:104210008093C7020E940E1D05C019BC1092C702F0
:104220000E941C1D8091E10080FF19C08091E20076
:1042300080FF15C08091E2008E7F8093E200809124
:10424000E20080618093E2008091D80080628093D8
:10425000D80019BC85E08093C7020E94221D80917E
:10426000E10084FF30C08091E20084FF2CC080E137
:1042700089BD82E189BD09B400FEFDCF8091D800DF
:104280008F7D8093D8008091E1008F7E8093E10044
:104290008091E2008F7E8093E2008091E200816055
:1042A0008093E2008091C302882311F084E007C06C
:1042B0008091E30087FD02C081E001C083E080932C
:1042C000C7020E942B1D8091E10083FF29C08091CD
:1042D000E20083FF25C08091E100877F8093E100A9
:1042E00082E08093C7021092C3028091E1008E7F2A
:1042F0008093E1008091E2008E7F8093E2008091C4
:10430000E20080618093E20042E060E080E00E9491
:10431000CC1F8091F00088608093F0000E941F1DE8
:10432000FF91EF91BF91AF919F918F917F916F918D
:104330005F914F913F912F910F900FBE0F901F9063
:1043400018951F920F920FB60F9211242F933F933F
:104350004F935F936F937F938F939F93AF93BF938D
:10436000CF93DF93EF93FF93C091E900CF708091DB
:10437000EC00D82FD17080FDD0E81092E900809138
:10438000F000877F8093F00078940E94E5211092DE
:10439000E9008091F00088608093F000CD2BCF7011
:1043A000C093E900FF91EF91DF91CF91BF91AF9161
:1043B0009F918F917F916F915F914F913F912F913D
:1043C0000F900FBE0F901F901895AAE2B0E0EBEE91
:1043D000F1E20C947F23E8ECF2E08091F10081930C
:1043E00022E0E03DF207C9F70E944B1D8091E800F2
:1043F00083FF2EC18091C8029091C902492F50E0DD
:104400004A30510508F024C1FA01E856FF4F0C94D8
:104410006A23803821F0823809F01AC108C08091DF
:10442000C4029091C502992389F082600FC08091E7
:10443000CC028F70873008F00BC18093E900809127
:10444000EB0085FB882780F91092E9009091E80045
:10445000977F9093E8008093F1001092F100D1C013
:10446000282F2D7F09F0F4C0882319F0823061F0E5
:10447000EFC08091CA02813009F0EAC0933009F0A0
:1044800080E08093C5022EC08091CA0281112AC0AB
:104490008091CC028F702FEF280F263008F0D8C003
:1044A0008093E9002091EB0020FF1CC0933021F4A1
:1044B0008091EB00806214C09091EB00906190932A
:1044C000EB0021E030E0A90102C0440F551F8A959E
:1044D000E2F74093EA001092EA008091EB008860D6
:1044E0008093EB001092E9008091E800877F809331
:1044F000E8000E940120ACC08111AAC01091CA023C
:104500001F778091E3008078812B8093E300809176
:10451000E800877F8093E8000E9401208091E800F6
:1045200080FFFCCF8091E30080688093E30011114D
:1045300002C082E001C083E08093C70289C0805836
:10454000823008F085C08091CA029091CB028C3DE8
:1045500053E0950779F583E08A838AE289834FB730
:10456000F894DE01139620E03EE051E2E32FF0E004
:1045700050935700E49120FF03C0E295EF703F5F36
:10458000EF708E2F90E0EA3010F0C79601C0C09611
:104590008D939D932F5F243149F74FBF8091E800A1
:1045A000877F8093E8006AE270E0CE0101960E9466
:1045B0000D1F16C06091CC027091CD02AE014F5F0D
:1045C0005F4F0E94511EBC01892B09F441C090919C
:1045D000E800977F9093E80089819A810E946B1F81
:1045E0008091E8008B778093E80032C0803881F5B5
:1045F0008091E800877F8093E8008091C3028093D8
:10460000F1008091E8008E7772CF811121C08091F6
:10461000CA029091CB0299270297D4F48091E800C6
:10462000877F8093E8008091CA028093C3020E9432
:1046300001208091C302811106C08091E30087FDB3
:1046400002C081E001C084E08093C7020E94361D51
:104650008091E80083FF0AC08091E800877F809303
:10466000E8008091EB0080628093EB00AA96E3E083
:104670000C949B230895CF938091C7028823A1F0C7
:10468000C091E900CF709091EC00892F817090FD6E
:1046900080E8C82B1092E9008091E80083FD0E9419
:1046A000E521CF70C093E900CF91089597FB072EC5
:1046B00016F4009407D077FD09D00E94A72307FCC9
:1046C00005D03EF4909581959F4F08957095619522
:1046D0007F4F0895EE0FFF1F0590F491E02D099490
:1046E0002F923F924F925F926F927F928F929F9202
:1046F000AF92BF92CF92DF92EF92FF920F931F93F0
:10470000CF93DF93CDB7DEB7CA1BDB0B0FB6F894A0
:10471000DEBF0FBECDBF09942A88398848885F84E0
:104720006E847D848C849B84AA84B984C884DF8051
:10473000EE80FD800C811B81AA81B981CE0FD11D35
:104740000FB6F894DEBF0FBECDBFED010895AA1BD2
:10475000BB1B51E107C0AA1FBB1FA617B70710F06C
:10476000A61BB70B881F991F5A95A9F7809590959E
:10477000BC01CD010895FB01DC0104C08D910190C5
:10478000801921F441505040C8F7881B990B0895B7
:10479000FB01DC0102C001900D9241505040D8F75E
:1047A0000895F999FECF92BD81BDF89A992780B5F9
:1047B0000895A6E1B0E044E050E00C940B24A8E199
:1047C000B0E042E050E00C940B24262FF999FECF84
:1047D00092BD81BDF89A019700B4021639F01FBA54
:1047E00020BD0FB6F894FA9AF99A0FBE0895039671
:1047F000272F0E94E6230E94E523252F0E94E6230F
:10480000242F0C94E6230196272F0E94E6230C9474
:10481000E523DC01CB01FC01F999FECF06C0F2BD16
:10482000E1BDF89A319600B40D9241505040B8F76E
:064830000895F894FFCF8B
:104836002C02280850011E0A14010CB51CEA1CE3C0
:104846001CDC1C01E200E900EA00B500B600B70076
:10485600CD008301CC008A0192019401210223023A
:1048660024022502260227022A02B300B4006F00A2
:1048760070009F01CB019F02A002818283E200E9C2
:1048860000EA00B500B600B700CD008301CC008A6F
:104896000192019401210223022402250226022705
:1048A600022A02B300B4006F0070009F01CB019F83
:1048B60002A0028182839190946697C63435F5F6FC
:1048C60033F732313600FF0100010000FFFF000020
:0648D600010001FF0000DB
:00000001FF
