:100000000C9441020C945E020C945E020C945E020D
:100010000C945E020C945E020C945E020C945E02E0
:100020000C945E020C945E020C9472200C94442199
:100030000C94921B0C945E020C945E020C945E0273
:100040000C945E020C945E020C945E020C945E02B0
:100050000C945E020C941B1C0C945E020C945E02C9
:100060000C945E020C945E020C945E020C945E0290
:100070000C945E020C945E020C945E020C945E0280
:100080000C945E020C945E020C945E020C945E0270
:100090000C945E020C945E020C945E020C945E0260
:1000A0000C945E020C945E020C945E02FC04FC0450
:1000B000280528059605B405A306A306B9052F064D
:1000C000400640066415D6156C1536153A157015A0
:1000D0003D1573157E154815CC154C158215501518
:1000E0008615B01554158A15BA155A1590159A1516
:1000F0004115771544157A155F159515A615C61582
:10010000C81532156815DF1508170B170E171117CC
:10011000141717171A171D17261729172C1720172A
:100120002317C519CB19B919BF19D119D719DD1959
:10013000AC21D321CB22D321CB221F224222CB229E
:100140009922A822A900AA004F0050004D004A00A1
:10015000BD00BE0029001E001F002000210022005B
:100160002300A8002B0014001A0008001500170037
:100170001C001800215204001600070009000A00A4
:100180000B000D00E10038001D001B0006001900E7
:1001900005001100E000E300E2002C002C00E60066
:1001A0002252E40000000E000F0028002A00130075
:1001B00012000C000000000000000000E500370005
:1001C0003600100035003A003B003C003D003E0088
:1001D0003F00427C01001E001F0020002100220081
:1001E00023002400010001000100010001000100C2
:1001F00001002F00010001000100010001000100C9
:100200000100010001000100010001000100500097
:1002100051004F0000003000330034004C00270034
:1002200026002500000000000000000038005200F9
:100230002E002D00007C01000100010001000100E2
:1002400001000100010001000100010001000100A6
:100250000100010001000100010001000100010096
:100260000100010001000100010001000100010086
:100270000100010001000100010001000100010076
:100280000100010000000100010001000100010067
:10029000010001000000000000000000010001005A
:1002A0000100010001000100010001000100010046
:1002B0000100010001000100010001000100010036
:1002C0000100010001000100010001000100010026
:1002D0000100010001000100010001000100010016
:1002E0000100010001000100010001000100010006
:1002F00001000100000001000100010001000100F7
:1003000001000100000000000000000001000100E9
:1003100001000100100343006C0075006E006B00CB
:1003200065007200000012034D0065006300680064
:10033000570069006C00640000000403090409020E
:100340003B00020100A0FA090400000103010100C2
:100350000921110100012240000705810308000165
:10036000090401000103000000092111010001221C
:10037000B600070582032000011201000200000000
:1003800008776D111730010102000105010902A172
:100390000185020901A10005091901290815002597
:1003A0000195087501810205010930093115812582
:1003B0007F95027508810609381581257F9501759D
:1003C000088106050C0A38021581257F95017508FC
:1003D0008106C0C005010980A101850319012AB762
:1003E00000150126B700950175108100C0050C09A4
:1003F00001A101850419012AA002150126A0029578
:100400000175108100C005010906A10185060507D7
:1004100019E029E7150025019508750181020507F6
:10042000190029EF1500250195F0750181020508D5
:100430001901290595057501910295017503910131
:10044000C005010906A101050719E029E7150025E6
:10045000019508750181029501750881010507194B
:100460000029FF150026FF00950675088100050884
:1004700019012905950575019102950175039101F1
:10048000C00011241FBECFEFDAE0DEBFCDBF11E008
:10049000A0E0B1E0ECE7F7E402C005900D92AE39C0
:1004A000B107D9F722E0AEE9B1E001C01D92A83C46
:1004B000B207E1F70E94E9110C94BC230C940000F0
:1004C0008430C8F46730B8F44830A8F4E62FF0E080
:1004D00097E0899FE00DF11D112483E0EE0FFF1FCF
:1004E0008A95E1F7E40FF11DEE0FFF1FEC5AFE4F66
:1004F00085919491089580E090E008950E946002B3
:100500000895843088F461110FC0E82FF0E0EE0FF9
:10051000FF1F81E04827E40FF11DEE0FFF1FEC5B8A
:10052000FE4F85919491089580E090E008950E9497
:100530008102089581E0089581E008950E949C025F
:10054000089508950E94A1020895A5E0B0E0EBEAA5
:10055000F2E00C94222349835A833091A5018981CA
:100560009A81311114C0662359F0222349F00E9468
:100570009008182F682F89819A810E945D0803C016
:100580000E947708182F69817A81812F04C00E9408
:10059000900869817A810E94630F2596E3E00C94AC
:1005A0003E23FC01262F4081518162817381848129
:1005B0000E94A502089581E00895CF93DF93EC0196
:1005C00060E00E94D102BE010E94A202DF91CF91A1
:1005D00008950E94B81008950E94B21008950895D9
:1005E0000E9426070E94EF022FEF84E39CE0215037
:1005F00080409040E1F700C000000E94411908953A
:100600000E94F0020E94411C08950E94F0020E9484
:10061000521C08950F931F93CF93DF938C0161E0D9
:100620000E94D102EC01B8010E94F516882309F45A
:1006300049C0B801CE010E949E02882309F442C03D
:10064000B801CE010E94AD198823E1F1B801CE01B5
:100650000E940E158823B1F1B801CE010E94C21686
:10066000882381F1F8018281882341F1C3308CE72E
:10067000D807D1F040F4C115FCE7DF0791F0C13095
:10068000DC47A1F01BC0CB35ECE7DE07A9F0CC3589
:10069000FCE7DF0771F0CA35DC4781F40E94CB0C20
:1006A0000DC00E9400030EC00E94D30C0E940503DF
:1006B00009C00E94C10C02C00E94CF0CC8010E9458
:1006C0009A0201C080E0DF91CF911F910F910895B0
:1006D0000E946B1B0E94920308950E9496030E9441
:1006E000741B089508950E947203089581E008958F
:1006F0000895CF93DF93D82F0E947603C82F8823C5
:1007000019F08D2F0E9478038C2FDF91CF910895DF
:100710000895CF93C82F0E9473038C2F0E947903F2
:10072000CF91089580E00E94890308950E94FA19EC
:100730000E9489030895CF930E94FA19C82F8091CF
:10074000A001C81779F0C093A0010E94001C60931B
:10075000A1017093A2018093A3019093A4018C2F17
:100760000E948903CF910895ABE0B0E0EAEBF3E09B
:100770000C9423234F83588769877A878B8761116D
:100780000E94090C9E012F5F3F4F86E0F9011192F4
:100790008A95E9F785E0FE013796D90101900D921F
:1007A0008A95E1F789819A814C815D81452B31F0F1
:1007B0009F3F31F491E08F3F19F403C091E001C0F5
:1007C00090E090FF09C049815A816B817C818D81C5
:1007D0009E810E94350B05C0C9010E94DB02811178
:1007E000F2CF2B96E2E00C943F23FC0180819181B3
:1007F0000E94C2080895662319F00E946E1202C07A
:100800000E94C9120E9440130895CF93882309F4CF
:1008100050C0C82F8CEF8C0F813AD0F46C2F809190
:100820000001909101010E948F1A882349F06C2FDA
:1008300080910001909101010E941D1B0E942D0CCE
:100840006C2F80910001909101010E940F1B0CC040
:1008500080E28C0F883058F4C77081E001C0880FA7
:10086000CA95EAF70E94EC0B0E942D0C22C0EBE522
:10087000EC0FE33040F4F0E0EA5BFE4F808190E063
:100880000E942F1A16C0E8E5EC0FE93150F4F0E0B1
:10089000EE0FFF1FEC5EFE4F808191810E94541A83
:1008A00008C083E38C0F833120F461E08C2F0E9419
:1008B000FB03CF9108958823A9F19CEF980F913AFB
:1008C00040F4682F80910001909101010E941D1B4E
:1008D0000DC090E2980F983060F4877091E001C0ED
:1008E000990F8A95EAF7892F0E94F20B0E942D0C2E
:1008F00008959BE5980F933028F480E090E00E94E3
:100900002F1A089598E5980F993128F480E090E027
:100910000E94541A089593E3980F933118F460E0FD
:100920000E94FB0308951F93CF93DF93182FEB01D1
:100930000E940504209741F08FE99FE00197F1F7AD
:1009400000C000002197F6CF812F0E945B04DF9149
:10095000CF911F910895893319F060E070E002C0D3
:1009600060E570E00E9493040895882321F00E94BE
:10097000EC0B0E942D0C0895882321F00E94F20BAD
:100980000E942D0C0895A0E0B0E0E9ECF4E00C9496
:100990001D237C01162FC72FFC01D28105810295F2
:1009A0000F700E94E20B8823B9F0DD23A9F08C2F91
:1009B000807F803421F080E2810F883068F0809160
:1009C000A40282FF09C082E00E948F0C0E94E20B09
:1009D00091E0D82ED92601C0D12CCC2EC2948FE024
:1009E000C8228C2D90E08C30910508F0ACC1FC0140
:1009F000EA5AFF4F0C940D238C2F807FCF708823F1
:100A000011F0C295C07FDD2399F0CC2309F487C192
:100A100080E2810F883010F0111104C08C2F0E94E9
:100A2000EC0B03C08C2F0E94FC0B0E942D0C77C195
:100A3000812F0E945B04CC2309F485C180E2810FE1
:100A4000883038F1112329F18C2F0E94020C24C028
:100A50008C2F807FCF70803211F0C295C07F112320
:100A600019F01130D1F143C08091A40282FD17C06A
:100A7000DD2349F0CC2329F08C2F0E94EC0B0E943F
:100A80002D0C80E04DC180E00E945B04CC2309F472
:100A90005AC18C2F0E94F20B0E942D0C54C1DD23F1
:100AA00071F0002341F0013031F40E940C0C8C2BCA
:100AB0000E94160C48C10E940C0C8C2B23C0011103
:100AC00003C00E94230C2EC0013009F43CC18C2FBE
:100AD0000E94BC040E94230C36C1DD2321F00630A5
:100AE00008F031C10EC0053008F02DC11BC0DD2358
:100AF00061F0002331F0F701858180FF10C18F7014
:100B000085838C2F0E94B5041EC1002359F0193330
:100B100009F016C1FFEF27EE83E0F150204080403E
:100B2000E1F70CC18C2F0E94BC040DC18C2F86955F
:100B30008695837019F0813061F005C1DD2321F0C5
:100B4000812F9C2F937002C080E090E00E942F1AAA
:100B500002C1DD2321F0812F9C2F937002C080E021
:100B600090E00E94541AF7C06D2F812F0E94FB0362
:100B7000F2C08C2F8370B1F5D111E9C0412F42959D
:100B800046954770440F440F812F8F7090E09C0171
:100B9000042E02C0220F331F0A94E2F714FF0AC08A
:100BA0008FE090E002C0880F991F4A95E2F7809588
:100BB000909502C080E090E0C695C695C370822BE8
:100BC000932BC23049F058F4C13019F00E949007BD
:100BD000BEC00E948707BBC00E949907B8C00E9490
:100BE0008407B5C0DD2319F08C2F817001C0869574
:100BF000882309F4ACC0412F429546954770440FB5
:100C0000440F812F8F7090E09C01042E02C0220FB0
:100C1000331F0A94E2F714FF0AC08FE090E002C08D
:100C2000880F991F4A95E2F78095909502C080E061
:100C300090E0C695C695C370822B932BC23049F0C5
:100C400058F4C13019F00E94F80781C00E94EF07E4
:100C50007EC00E9401087BC00E94A50778C0CF70AB
:100C6000DD2339F08C2F0E94BD07812F0E94B5042F
:100C70006EC0812F0E94BC048C2F0E94CD0767C0DC
:100C8000123F21F128F4103F41F0113FC1F043C061
:100C9000133F19F1143F79F03EC0DD2341F00530D8
:100CA00008F051C08C2F8F710E94DF074CC00630B6
:100CB00008F049C0F7CF8091A40282FD18C0DD235F
:100CC00039F08C2F8F710E94BD073DC0DD23C9F321
:100CD0008C2F8F710E94CD0736C0DD2329F08C2F19
:100CE0008F710E94B1072FC00E94AC072CC0DD237A
:100CF00049F0CF718C2F0E94BD0763E08C2F0E94BA
:100D0000710C21C081E00E948F0C0230E0F082E083
:100D10000E948F0C18C0DD2331F0002391F2812F47
:100D20000E94050410C0002399F2193349F49FEF83
:100D3000E7EEF3E09150E040F040E1F700C0000042
:100D4000812F0E945B0488EF8C0D843020F40E9478
:100D5000FA190E948903DD2089F00E94DE0B80FDD4
:100D60000DC0F70112820E94D80B0E94BD07C70177
:100D70000E94DB060E94D80B0E94CD07CDB7DEB7DC
:100D8000E8E00C9439230F931F93CF93DF93EC018A
:100D9000688179818A810E94CD088C010E940A08AD
:100DA0000E947507B801CE010E94C304DF91CF9164
:100DB0001F910F910895CF93DF93EC019881898162
:100DC0002B813C81232B31F08F3F31F481E09F3F19
:100DD00019F403C081E001C080E080FD1AC0CE019B
:100DE0000E940A0381110FC00E94E20B882389F040
:100DF0008A81882371F08091A40282FF0AC082E078
:100E00000E948F0C06C0CE010E94C306CE010E9434
:100E1000DD02DF91CF91089580E090E00E942F1ACB
:100E200080E090E00E94541A0E94090C0E942D0C50
:100E30000E945F130E9440130895809100019091D9
:100E400001010E942B1B0E940C0708950E94F90BC0
:100E50000E941D07089592959F70963079F010F4C6
:100E6000925001C09A50923068F4803F69F018F4B3
:100E7000883E40F409C0843F29F406C0883E20F033
:100E8000813F11F080E0089581E00895FC01908198
:100E9000818123813481232B31F08F3F31F481E034
:100EA0009F3F19F403C081E001C080E080FD07C0CE
:100EB000808191810E94C2080E942B07089580E0E2
:100EC0000895A5E0B0E0E7E6F7E00C94232325962B
:100ED000E2E00C943F23A6E0B0E0E1E7F7E00C94F9
:100EE00023232696E2E00C943F23089508950E9460
:100EF000760708950E94770708950E947A079093D5
:100F0000C9018093C80108950E947D07089520912A
:100F1000C8013091C901822B932B0E947D0708954F
:100F20002091C8013091C901822393230E947D073B
:100F300008952091C8013091C901822793270E940A
:100F40007D0708950E94760708950E94A207909356
:100F5000C7018093C601089580E090E00E94A50734
:100F6000089521E030E0A90102C0440F551F8A9581
:100F7000E2F7CA010E94A507089521E030E002C00F
:100F8000220F331F8A95E2F78091C6019091C70125
:100F9000822B932B0E94A507089521E030E002C028
:100FA000220F331F8A95E2F7209530958091C60174
:100FB0009091C701822393230E94A507089521E001
:100FC00030E002C0220F331F8A95E2F78091C601FC
:100FD0009091C701822793270E94A5070895209129
:100FE000C6013091C701822B932B0E94A50708955B
:100FF0002091C6013091C701822393230E94A50747
:1010000008952091C6013091C701822793270E943D
:10101000A50708950895962F9770A1E001C0AA0F23
:101020009A95EAF793E0769567959A95E1F7660FBA
:10103000771F660F771FFA01E60FF71F40E050E0B9
:10104000682F70E090819B01042E02C03695279591
:101050000A94E2F72170219529272A232927219331
:101060004F5F5F4F4430510569F70895FB01782FBA
:10107000777023E0969587952A95E1F7880F991F59
:10108000880F991FE80FF91F40E050E080E02191A0
:1010900030E0072E02C0369527950A94E2F72170BA
:1010A0003327042E01C0220F0A94EAF7822B4F5FE8
:1010B0005F4F4430510559F70895282F862F9730F8
:1010C00060F4283050F4622F70E028E0929F600DA9
:1010D000711D11244AEA51E007C09C5F923030F440
:1010E000622F70E046EA51E00E940B080895292F14
:1010F000973058F4883048F490E06AEA71E038E0BC
:10110000239F800D911D112406C02C5F223030F4E6
:1011100066EA71E090E00E943608089580E0089544
:10112000A0E0B0E0E6E9F8E00C941C237C0100911B
:10113000C6011091C7018091C8019091C901082B87
:10114000192BCFE0D0E0CC24C394D12CC6010C2EB7
:1011500002C0880F991F0A94E2F780239123892BFC
:1011600021F4219798F7B12C07C0BC2EB7018C2F22
:101170000E947D0F0197A9F38B2DCDB7DEB7E9E073
:101180000C943823CF93DF93EC010E949008BE01AA
:101190000E947D0FDF91CF9108951F93CF93DF932E
:1011A000EB019091A501992321F0CB010E94C20887
:1011B00013C0882349F0CB010E949008182F682F94
:1011C000CE010E945D0804C0CB010E947708182F51
:1011D000BE01812F0E947D0FDF91CF911F91089555
:1011E0001F93CF93DF93C091CA0116E08091CB018A
:1011F000C81799F0D0E01C9FF0011D9FF00D11243D
:10120000E453FE4F408151816281738184819581D5
:101210000E946B072196C770E9CFDF91CF911F9194
:1012200008954091FC015091FD016091FE01709183
:10123000FF0180910002909101020E946B070895C6
:101240000F931F93CF93DF938091010282958F704C
:1012500009F05AC08091FE01882309F455C080919D
:10126000CA011091CB016091FC017091FD01C09108
:10127000FF01D091000291E06F3F09F090E0292F2B
:1012800006E0811709F440C0209721F07F3F21F04C
:1012900030E003C031E001C0322F90E030FD31C0BA
:1012A000089FF001099FF00D1124DF01A453BE4FE8
:1012B00011963C911197371324C03C91361321C0ED
:1012C00012963C91129731111CC013964D915C916E
:1012D00014974C1B5D0B483C510598F4809101021A
:1012E0008F70806180930102EF52FE4F80818F707A
:1012F000806180838CEF91E00E94DB060E94F00801
:1013000003C001968770BDCFDF91CF911F910F91E0
:101310000895A1E1B0E0EFE8F9E00C941A238C0104
:1013200085E0F801DE011D9601900D928A95E1F7A6
:10133000F801E2809091FC016091FD012091FF0194
:10134000309100022115310531F06F3F31F481E019
:101350009F3F19F403C081E001C080E0F82FF170D5
:101360009F2E80FD40C1F80140815181A380B4804F
:101370008CEFC82E81E0D82EF090FE01F501E21B23
:10138000F30BFF2009F4DAC080910102E83CF1057B
:1013900008F096C0282F207F09F053C0561313C0C1
:1013A000491311C0FE2CE1100EC08F708061809334
:1013B00001020E941109C6010E94DB068091010210
:1013C000F80185834DC1A114B10431F05F3F31F4C0
:1013D00081E04F3F19F403C081E001C080E080FD4F
:1013E00003C081E08E2502C080E090E0F82FF1700C
:1013F000FF2E80FF1CC08091CA012091CB0136E0F6
:10140000821709F40BC190E0389FF001399FF00D6D
:101410001124E453FE4F6181561306C060814613C8
:1014200003C06281E61203C001968770E9CFFE2CEB
:10143000EE2009F415C180910102816080930102C0
:1014400054C0561306C0491304C0E11002C0F8018D
:1014500099C0C8010E944607882361F1EE2051F12E
:1014600020910102822F82958F7090E0029774F094
:101470008091FC019091FD0198878F831986BB862E
:10148000AA862C87CE0107960E94DB0686E0F8012B
:10149000ACEFB1E001900D928A95E1F70E9420092E
:1014A0000E9411090AC0561711F1C8010E9446078F
:1014B00081112CC0C8010E94DB06FF24F394D0C028
:1014C000282F207F81F77A2DB98AA88A6E2D8989E5
:1014D0000E9461078CEF91E00E94DB0686E0F60136
:1014E00011928A95E9F70E941109F12CB9C04913AC
:1014F000DCCFE110DACFF8018583C8010E94DB065A
:1015000086E0F60111928A95E9F7AAC0EE2091F2E1
:1015100020910102822F82958F7090E002970CF447
:10152000B5CF8091FC019091FD019A8389831B8244
:10153000BD82AC822E83CE010196A6CFE83CF10598
:1015400008F044C0FE2CEE2009F4B4CF561330C08E
:1015500049132EC02091010220FD21C0822F8295C7
:101560008F70482F50E041155105C9F0F8012583CF
:101570004F30510541F08F5F982F9295907F822FC9
:101580008F70892B8583C8010E94DB0686E0F801F5
:10159000ACEFB1E001900D928A95E1F73CC086E096
:1015A000F801ACEFB1E001900D928A95E1F758C0D7
:1015B000C8010E944607811169CF809101028160B4
:1015C00080930102C8010E94DB064AC07A2DB98AC5
:1015D000A88A6E2D89890E94610786E0F601119222
:1015E0008A95E9F718C0EE2009F464CFC8010E947B
:1015F0004607F82E882309F45DCF86E0F801ACEFAA
:10160000B1E001900D928A95E1F78CEF91E00E9494
:10161000F5030E9420090E94110922C04D875E87B0
:101620008D859E850E94C208292F22952F70223019
:1016300028F49F7039F0811105C00BC0243028F4C4
:101640009F7049F4805E883020F0C8010E94DB065C
:101650009F2CF92C05C0F8019581907F99F7F9CF5F
:101660008F2D6196EBE00C943623ACE0B0E0EBE319
:10167000FBE00C9422234F83588769877A878B87F6
:101680009C87CE0107960E9489098823D1F09F810B
:1016900088852A853B85232B31F08F3F31F481E00B
:1016A0009F3F19F403C081E001C080E080FD47C086
:1016B0004F81588569857A858B859C850E946B074B
:1016C0003EC086E0FE013796DE01119601900D9234
:1016D0008A95E1F7FF81E8856A857B85611571054B
:1016E00031F0EF3F31F481E0FF3F19F403C081E0B6
:1016F00001C080E080FD23C02091CB0130E0C90112
:101700000196877099274091CA0150E08417950788
:10171000F1F1F983EA837D836C8396E0929FD00197
:10172000939FB00D1124A453BE4FFE01319601903A
:101730000D929A95E1F78093CB010E94F00816E094
:101740008091CA019091CB01891771F1189FC00156
:10175000112484539E4F0E948909882329F1E09126
:10176000CA011E9FF0011124E453FE4F40815181B4
:1017700062817381848195810E946B078091CA0187
:1017800090E00196877099278093CA01D9CF0E9473
:1017900026071092CB011092CA01ECEFF1E086E02F
:1017A000DF011D928A95E9F72C96E3E00C943E2325
:1017B00080912202859585958595089580912202D4
:1017C0008770089590912202977081E009F480E07B
:1017D000089580914502089590914502892B809348
:1017E0004502089580959091450289238093450292
:1017F000089510924502089590914402892B809398
:101800004402089580959091440289238093440274
:101810000895109244020895809123020895089536
:101820000E940F0C08950E94100C08959091A4023C
:1018300092FF08C090912302981721F08093230211
:101840000E94130C089580912302882329F010929E
:10185000230280E00E94130C0895CF93DF93E09160
:101860000001F0910101809145028083E091000127
:10187000F0910101908180914402892B80838091B5
:101880002302882381F0E0910001F0910101908111
:10189000892B808380910001909101010E94791A27
:1018A00081110E94230CC0910001D091010140E2FE
:1018B00050E062E072E0CE010E945E23892B59F075
:1018C00080E2FE01A2E0B2E001900D928A95E1F77C
:1018D000CE010E94071ADF91CF9108950E940F0C4C
:1018E00008959091A40292FF11C098E0899F900101
:1018F0001124262B209322020E94BD0780912202F0
:101900008595859585950E946E0C08950E94BD076A
:1019100008951092220280E00E946E0C089520919A
:1019200022028095822380932202982F977099F447
:1019300030E0482F082E000C550B2417350759F0BE
:101940009091A40292FF07C08595859585950E9488
:10195000CD070E94890C08959091A40292FB222742
:1019600020F9281769F080FB92F99093A4028091E6
:10197000A3029091A4020E94F40C82E00E948F0CBA
:1019800008958091A40282FB882780F991E089273D
:101990000E94AC0C089581E00E94AC0C089580E098
:1019A0000E94AC0C08956FEF7FEF80E090E00E9402
:1019B000A623089580E090E00E94822321E0873EE4
:1019C0009E4F09F020E0822F089582E090E00E946F
:1019D0007423089583E090E00E947423089584E0C6
:1019E00090E00E9482230895BC0184E090E00E9470
:1019F000A6230895AB01BC018FE090E00E949A23DA
:101A00000895AB01BC0183E190E00E949A23089500
:101A100060E070E0CB010E94010D089560E070E08D
:101A2000CB010E94FA0C0E94080D089567EE7EEF2C
:101A300080E090E00E94A62360E082E090E00E94B7
:101A4000882360E083E090E00E9488231092C9011F
:101A50001092C80160E074E184E090E00E94A62347
:101A600060E086E090E00E9488236FEF87E090E0DE
:101A70000E94882340E050E0BA0188E090E00E9494
:101A80009A2360E08DE090E00E94882340E050E0DF
:101A9000BA0188E190E00E949A2360E087E190E03B
:101AA0000E94882340E050E0BA018CE190E00E945F
:101AB0009A2360E070E080E290E00E94A6230E94FA
:101AC0009E170E940E0D08950E94160D089588E13C
:101AD00090E00E947C230895AB01BC0188E190E076
:101AE0000E949A230895682F8EE090E00E94882338
:101AF00008950E94001C60935702709358028093CF
:101B0000590290935A026093530270935402809347
:101B100055029093560208950E94001C609357024C
:101B2000709358028093590290935A0260934F0227
:101B3000709350028093510290935202089581E075
:101B400008950E949F0D089508950E94A40D089580
:101B50000E94A40D08950E94A80D08950E94A40D4E
:101B600008950E94AE0D08950E94A40D089581E687
:101B700090E10E94F0190E94B40D0E94B10D0895E9
:101B80000E94A50D0E94A40D08950E9480100E943D
:101B900088030E94BE1708950E94EB1B0E94FF1548
:101BA0000E9450110E94C50D0E94AB0D0895AAE03D
:101BB000B0E0EDEDFDE00C941B230E94661188E47B
:101BC000E82E82E0F82E670100E0F60111916F0126
:101BD000802F0E949E1081270F5F073019F0882305
:101BE000A1F322C0811120C00E94F41B8C018091BE
:101BF0004602909147020817190709F450C08FEF69
:101C000089838A831B820E94F41B8160782F9D83C5
:101C10008C8349815A816B818D810E94B40310931A
:101C20004702009346023BC080915B0281FD0E9407
:101C3000A4100E94A10DA82E10E0812F0E949E10DA
:101C4000B82EF701C080C82611F100E0DD24D3943E
:101C50008C2D8D21B1F0AA20A1F00E831F8391E07D
:101C60008B2D8D2109F490E098870E94F41B8160F0
:101C7000782F9A8789874E815F8168858A850E943F
:101C8000B4030F5FDD0C083019F7F701B0821F5F56
:101C9000FFEFEF1AFF0A173081F60E94790D0E94BC
:101CA0004C170E941D1681110E948C0D0E948113F9
:101CB0000E949B032A96EAE00C943723CF93DF938C
:101CC0000E94820FEC01811520E59207E0F5811555
:101CD00030E4930708F09FC0803E910528F58D3CC5
:101CE000910508F096C0883A910570F4853A9105FF
:101CF00008F085C08130910509F47EC008F4DCC08D
:101D0000049708F0DCC0D8C0813C910508F0D4C02D
:101D1000C85AD0E0CC0FDD1FC75BDE4F0990D881D9
:101D2000C02DCE019464CCC0811540E2940708F028
:101D3000B8C0811551E0950708F0C1C0883E9105F3
:101D400008F4BDC0B9C0803662E5960720F580343E
:101D500072E5970708F06CC0C03282E5D80708F03A
:101D60005EC0C11592E5D90708F489C02C2F2695CD
:101D7000269560E2269F90011124C37081E090E0D7
:101D800002C0880F991FCA95E2F7E901C82BD92B29
:101D9000CE019D6895C0803A22E59207E0F48F71EC
:101DA000C03832E5D30708F059C08695869570E2B1
:101DB000879F900111249C2F9370C1E0D0E0AE0169
:101DC00002C0440F551F9A95E2F7EA01DA68C9018B
:101DD0008C2B9D2B75C0803C42E5940708F445C0D0
:101DE000803E924508F068C0CF71DD27DC2FCC27FC
:101DF000CE01806F906A64C081E090E061C0C55AF6
:101E0000D0E0C558DE4F8881C82FD0E0CE01906465
:101E100057C0906555C0DF70CE01906A51C0CF7138
:101E20008C2F90E0D82FCC27CE01816F906A48C0CC
:101E30008F718695869570E2879FA00111249C2F53
:101E4000937021E030E0B90102C0660F771F9A95C8
:101E5000E2F7CB019C68842B952B32C090E0D82F01
:101E6000CC27CE01846F906A2BC08F710E941E1008
:101E70008F7190E0D82FCC27CE01906221C08C2F9B
:101E80008F710E941E1095E0D695C7959A95E1F73F
:101E9000CF70D0E0DC2FCC27D069BE01682BCB01FE
:101EA0000FC08D2F8F710E941E10DD27D0628F71A1
:101EB0009E01382BC90104C080E090E001C0CE0132
:101EC000DF91CF910895462F672F773028F448305F
:101ED00088F40E947E0208957D3F21F441110AC0DA
:101EE00041E004C07C3F31F4411104C060E00E9435
:101EF0009702089580E090E008950E94630F0E9489
:101F00005E0E08958238910569F1B0F48133910530
:101F100009F475C048F48932910509F467C08A3222
:101F2000910509F471C008958533910509F459C0EC
:101F300089339105B9F00895833E910589F138F40C
:101F4000803E9105D1F0823E910529F10895863EAB
:101F50009105C9F1873E9105D9F1843E910509F0BB
:101F60006CC027C02091A30220FD57C021FD55C0A1
:101F70002091A40223FD5BC008958091A30280FDFF
:101F800048C08091A40280FF48C08091A30284FDD4
:101F900046C083EE51C08091A30282FF3CC0F5CFC2
:101FA0008091A30282FD37C08091A40280FD35C0DC
:101FB000ECCF8091A40281FF36C08091A30284FD02
:101FC0002EC087EE39C08091A30283FF2AC0F5CFCF
:101FD0008091A30283FD25C08091A40281FD23C0CE
:101FE000ECCF8091A30285FD22C01FC08091A30287
:101FF00085FD1BC08091A40283FF19C00AC0809197
:10200000A30286FD16C017C08091A30286FD13C0EF
:1020100010C089E311C082EE0FC080EE0DC080E0D9
:102020000BC086EE09C084EE07C085E305C089E2D7
:1020300003C08AE201C081E390E008959091A30279
:1020400092FF0DC0282F2871283019F4877F8460F3
:1020500006C0282F2471243011F48B7F886093FFF1
:102060000DC0282F2871283119F4877E846106C09D
:10207000282F2471243111F48B7E88612091A402D1
:1020800020FF0DC0382F3871383019F4877F8160F8
:1020900006C0382F3171313011F48E7F886021FFF6
:1020A0000DC0282F2871283119F4877E816106C060
:1020B000282F2171213111F48E7E886194FD877E55
:1020C000089580E008950E94D30C08950E9466113F
:1020D0002FEF86E791E0215080409040E1F700C06B
:1020E00000000E94661180E00E949E1080FF04C0E4
:1020F0000E9463100E94411C08950E94661008957A
:102100000E94DA0C811102C00E94640D0E94E50C4D
:1021100080935B020E94EF0C9093A4028093A30231
:102120000E947D100E94EA0C90E00E94840780913A
:10213000C6019091C7010E94A2070895E82FF0E020
:10214000E455FD4F80810895089580EA8A95F1F75E
:10215000089500C008950E94A510089508950E9452
:10216000AE1008950E94AF1008950E94AE10089519
:102170000E94B5100895F894E82FE295EF70F0E012
:1021800031A1282F2F7081E090E001C0880F2A959F
:10219000EAF7982F9095932391A392A1892B82A37C
:1021A000789408950F931F93CF93DF93C6E8D1E0FF
:1021B00089918F3F11F00E94BB1081E0CD38D80784
:1021C000B9F7CEE7D1E006E811E089918F3F11F031
:1021D0000E94BB100C171D07C1F7DF91CF911F9113
:1021E0000F910895A0E0B0E0E8EFF0E10C941D231A
:1021F0008C01C62FD0E0CE018A579E4F7C01FC0196
:1022000090819F3F09F447C0D62EF894E92FE295BC
:10221000EF70F0E081A19F7021E030E001C0220F5B
:102220009A95EAF7822B81A382A12095282322A3E5
:1022300078940E94A910EEE7F1E046E851E031E021
:10224000C12C21912F3F89F0A22FA295AF70B0E051
:1022500090968C9190E02F7002C0959587952A9565
:10226000E2F780FD02C0832F01C080E0C82A330F4F
:102270004E175F0731F7F70180818F3F11F00E9401
:10228000BB1061E0C11001C060E08D2D0E94AB1059
:10229000C00FD11FC882CDB7DEB7E8E00C94392358
:1022A0000E94D21087E0ECEAF2E0DF01982F1D9245
:1022B0009A95E9F7E5EAF2E0DF011D928A95E9F7E0
:1022C00087E00E94A1110E94E9020895A7E0B0E012
:1022D000ECE6F1E10C9420238E010F5F1F4F87E0A5
:1022E000F80111928A95E9F7F12C6F2DC8010E942F
:1022F000F210F394F7E0FF12F8CF47E050E0B80196
:1023000085EA92E00E945E2321E0009709F420E034
:10231000892B41F087E0F801A5EAB2E001900D9227
:102320008A95E1F747E06CEA72E085EA92E00E9464
:10233000A211182F0E94EC02812F2796E5E00C9441
:102340003C230895EF92FF920F931F93CF93DF9357
:102350007C018B01C42F222349F081E080935E022F
:102360000E94F41B90935D0280935C0280915E0258
:10237000811102C080E01AC080915C0290915D02E0
:102380000E940C1C0597B0F3D0E0AE01B701C80164
:102390000E945E23892B39F0AE01B701C8010E946B
:1023A0006B2381E001C080E010925E02CDB7DEB702
:1023B000E6E00C943B230E94CC1D0E94CC0D0E94B1
:1023C000D91D08950E94DE1D0E94D70D0E94F81DA0
:1023D00008950E948B1B0E94B21D0E94B70D0E949F
:1023E000DB110E94E2110E94C00DFBCF80916502BB
:1023F00080FF06C06091070170E0660F771F26C05E
:1024000081FF04C06091070184E005C082FF07C01E
:102410006091070188E0689FB001112417C0909176
:1024200064029923D1F060910601961788F72091F4
:10243000070188E0289F90011124929FA001939F9B
:10244000500D112470E0CA010E94F9226038710514
:1024500040F46115710519F406C068E070E0862F3C
:1024600008958FE7089581E008958091650280FFC7
:1024700008C06091030170E0759567957595679543
:1024800021C081FF06C06091030170E075956795DA
:1024900019C082FF04C06091030170E010C09091E8
:1024A0006302992399F0609102019617A0F7809139
:1024B0000301899FC001112470E00E94F922603855
:1024C000710540F46115710519F406C061E070E012
:1024D000862F08958FE7089581E008958D3C21F4BB
:1024E0000E94F611819504C08E3C29F40E94F611D9
:1024F0008093690208958F3C21F40E94F611819522
:1025000004C0803D29F40E94F6118093680208956A
:10251000893D19F40E94351205C08A3D31F40E94AC
:102520003512819580936A0208958B3D21F40E94B3
:102530003512819504C08C3D29F40E943512809398
:102540006B0208959FE2980F983078F421E030E014
:10255000A90102C0440F551F9A95E2F7CA01909154
:102560006702892B8093670208958D3D21F4809145
:10257000650281600BC08E3D21F48091650282600E
:1025800005C08F3D29F480916502846080936502C7
:1025900008958D3C39F49091690297FF35C01092EF
:1025A000690259C08E3C29F4909169021916BCF356
:1025B0002BC0909168028F3C29F497FF25C01092A0
:1025C000680249C0803D19F41916CCF31DC09091E2
:1025D0006A02893D29F41916BCF410926A023BC0C4
:1025E0008A3D19F497FF10C0F8CF8B3D39F49091D4
:1025F0006B0297FF09C010926B022DC08C3D21F435
:1026000090916B021916BCF39FE2980F983080F4FA
:1026100021E030E0A90102C0440F551F9A95E2F76E
:10262000CA0180959091670289238093670213C045
:102630008D3D21F4809165028E7F0BC08E3D21F48B
:10264000809165028D7F05C08F3D29F480916502E0
:102650008B7F8093650280916802811106C0809112
:102660006902811102C01092640280916A02811194
:1026700006C080916B02811102C01092630208951E
:102680000E94F41B20916802211104C0209169026C
:10269000222321F0909362028093610220916A02CA
:1026A000211104C020916B02222321F0909360023B
:1026B00080935F0286E692E00E94211A0895E6E682
:1026C000F2E086E0DF011D928A95E9F7109264023C
:1026D00010926302109265020895FC0182818111BB
:1026E0000DC0838181110AC08481811107C091E0EE
:1026F0008581811101C090E0892F01C081E0817046
:102700000895A6E0B0E0E7E8F3E10C94222386E028
:10271000E6E6F2E0DE01119601900D928A95E1F76E
:10272000109268021092690210926A0210926B0273
:102730008B81811104C08C81882309F45FC0809152
:102740006102909162020E940C1CAC0190916402A3
:10275000992339F02091080130E02417350758F00B
:102760004DC0209109018AE0289F9001112424176F
:10277000350718F043C09F3F19F09F5F90936402A4
:102780001B81112361F00E94F611111614F09FEFC6
:1027900001C091E0989F902D1124909368021C81B4
:1027A000112361F00E94F611111614F09FEF01C081
:1027B00091E0989F902D11249093690230916802C6
:1027C0003323E1F0209169022223C1F045EB340369
:1027D000C0011124992319F09093680203C081E08D
:1027E0008093680235EB2303C0011124992319F06B
:1027F0009093690203C081E0809369028D81811109
:1028000004C08E81882309F45FC080915F0290919B
:1028100060020E940C1CAC0190916302992339F074
:102820002091040130E02417350758F04DC0209165
:1028300005018AE0289F900111242417350718F01C
:1028400043C09F3F19F09F5F909363021D81112346
:1028500061F00E943512111614F09FEF01C091E053
:10286000989F902D112490936A021E81112361F08C
:102870000E943512111614F09FEF01C091E0989F4D
:10288000902D112490936B0230916A023323E1F072
:1028900020916B022223C1F045EB3403C0011124C7
:1028A000992319F090936A0203C081E080936A0231
:1028B00035EB2303C0011124992319F090936B0287
:1028C00003C081E080936B02BE016F5F7F4F86E69D
:1028D00092E00E943D1B811105C086E692E00E94B5
:1028E0006D1381110E94401386E0FE013196A6E629
:1028F000B2E001900D928A95E1F72696E3E00C9400
:102900003E2380930A01089590E0FC01E459FD4FB5
:102910002081211102C08C9A01C08C98FC01E059E1
:10292000FD4F1082FC01E159FD4F10820895CF93B5
:10293000DF939091B402C82FD0E0FE0192FD03C056
:10294000E059FD4F02C0E159FD4F808181111AC04D
:10295000FE01E059FD4F81E08083FE01E159FD4F0A
:1029600080830E94F41BFE01EE0FFF1FE359FD4F11
:1029700091838083C459DD4F8881882311F08C9A1C
:1029800001C08C98DF91CF91089580E00E94971448
:10299000089580917002882379F180916D02909161
:1029A0006E020E940C1C20910A0130E028173907A2
:1029B00020F480E00E94841408952091B40222FF44
:1029C0001BC08770992720916F02049750F4211142
:1029D00013C081E080936F0280916C02882359F0CC
:1029E00008C0222349F010926F0280916C0281117D
:1029F00002C08C9A08958C98089581E080936C02AF
:102A00008C98849A80E00E949714089580916C02BB
:102A1000811102C08C9A08958C980895CF93DF930A
:102A2000FC01DB0112968C91882309F4DDC09F0123
:102A300030572332310508F0D8C0EF010E94EF0C67
:102A40009093A4028093A302FE01E150F047E2328A
:102A5000F10520F4EE59FF4F0C940D238091A30251
:102A60008160AAC08091A4028860B2C08091A30254
:102A70008260A2C08091A30220C08091A3028860DE
:102A80009BC08091A4021EC08091A4028260A0C05D
:102A90008091A302806190C08091A30280628CC06B
:102AA0008091A302806488C00E9426078091A302BF
:102AB000806882C08091A302886084607DC080911C
:102AC000A4028260816084C08091A3028E7F74C062
:102AD0008091A402877F7CC08091A3028D7F6CC00F
:102AE0008091A30220C08091A302877F65C080915E
:102AF000A4021EC08091A4028D7F6AC08091A302AF
:102B00008F7E5AC08091A3028F7D56C08091A30210
:102B10008F7B52C00E9426078091A3028F774CC002
:102B20008091A302877F8B7F47C08091A4028D7F15
:102B30008E7F4EC08091A30282FB222720F991E074
:102B4000922790FB82F990FB83F936C08091A40212
:102B5000982F909591708E7F892B90FB81F938C0CA
:102B60008091A30286FB222720F991E0922790FB17
:102B700086F922C00E9426078091A30287FB2227A4
:102B800020F991E0922790FB87F916C081E001C0FF
:102B900080E00E94730D1EC08091A30284FB222757
:102BA00020F991E0922790FB84F906C08091A3025E
:102BB000982F909590FB80F98093A3020BC0809191
:102BC000A40283FB222720F991E0922790FB83F94E
:102BD0008093A4028091A3029091A4020E94F40C1D
:102BE0000E94260780E001C081E0DF91CF91089527
:102BF0008FE891E00197F1F700C00000089581E0AF
:102C00008093720252985A9A53985B9A0E94F815D0
:102C100030917202E4E7F2E090E0931769F089B135
:102C200082FB882780F94B9902C020E001C022E096
:102C3000822B81939F5FF1CF0895A4E1B0E0E3E29E
:102C4000F6E10C94182310E000E084E0C82ED12CAB
:102C50009DEF992E882483942CEF722E809172021E
:102C6000181708F08AC0E12EF12CE9B1E2FBEE273B
:102C7000E0F94B9902C080E001C082E08E2BD701C1
:102C8000AC58BD4FEC912E2F237030E0482F082E0A
:102C9000000C550B2417350709F46DC0EE0FEE0F2D
:102CA000E82BEC93EF70F0E0E357FE4FC7018D582F
:102CB0009D4F5C019081F5018081890F8083843074
:102CC00034F1F701EF58FD4F80818F5F80830E94C0
:102CD000F41B1B877C868D868160782F9F878E876B
:102CE000412F5CEF61E08F850E94B4030E94F41BCA
:102CF000188B798A1A8A8160782F9C8B8B8B412F55
:102D00005CEF60E08C890E94B40321E001C020E008
:102D1000F50180818D3F2CF5F701EF58FD4F808143
:102D2000815080830E94F41B19839A828B82816078
:102D3000782F9D838C83412F5DEF61E08D810E9410
:102D4000B4030E94F41B1E839F8218868160782F33
:102D50009A878987412F5DEF60E08A850E94B403DE
:102D600021E0F5018081082E000C990BB6010E942C
:102D7000F9228083022B1F5F71CF802F6496EDE0D4
:102D80000C943423CF93DF9386319C4741F5EB01BC
:102D90000E94E90B982F8A81209100013091010156
:102DA000882379F09A7A81E009F480E080937502B3
:102DB000911102C069E201C065E3C9010E940F1BC5
:102DC0000AC080917502811102C069E201C065E309
:102DD000C9010E941D1B0E942D0C80E001C081E0F2
:102DE000DF91CF91089581E008950F931F93CF93C2
:102DF000DF938C01EB018A81882381F1F801E05493
:102E0000FC47ED30F10550F5EC57FF4F0C940D23C6
:102E10000E944F1723C00E945F1720C00E946F17A7
:102E20001DC00E949E171AC00E94831717C00E94DF
:102E30006E1814C00E94191811C00E942A180EC0E2
:102E40000E949A180BC00E94BF1808C00E940C195B
:102E500005C00E94161902C00E942A190E94DF189C
:102E60008823A1F08A81882369F00E94E3188230C8
:102E700068F4BE01C8010E94F316882339F00E944D
:102E80003E1904C00E94E3188111F3CF81E0DF9165
:102E9000CF911F910F9108950E94C9140895E3EBFB
:102EA000F2E08081816080836091B3027091B4020E
:102EB0008091B5029091B6020E946C0D0895E3EBEB
:102EC000F2E080818E7F80836091B3027091B402C2
:102ED0008091B5029091B6020E946C0D0895809188
:102EE000B30280FF03C00E945F1702C00E944F1709
:102EF0006091B3027091B4028091B5029091B602D4
:102F00000E946C0D08959091B302892F86958F5F72
:102F10008370997F833029F0880F892B8093B302C7
:102F200002C09093B3026091B3027091B402809199
:102F3000B5029091B6020E946C0D0895E3EBF2E0A9
:102F400080818160897F8083E4EBF2E080818770FB
:102F5000A5EBB2E09C919C7F9C9380668B7F8083E5
:102F60008CE00E9481146091B3027091B402809150
:102F7000B5029091B6020E946C0D08950E94DA0C81
:102F8000811102C00E94640D0E94670D6093B3021C
:102F90007093B4028093B5029093B6029091B402FC
:102FA0009695969596958091B50283708295880F37
:102FB000807E892B0E9481148091B3029091B4028B
:102FC000A091B502B091B602892B8A2B8B2B71F0A0
:102FD0008091B402982F9695969596958091B5021A
:102FE00083708295880F807E892B11F40E949E1732
:102FF0000E94FD140895E3EBF2E0282F220F220F28
:10300000220F90819770922B908382958695837082
:10301000E4EBF2E090819C7F892B80836091B30286
:103020007091B4028091B5029091B6020E946C0D2D
:1030300008958091B302982F9695969596958091D4
:10304000B40283708295880F807E892B8F5F0E94E7
:10305000FB1708958091B302982F969596959695B3
:103060008091B40283708295880F807E892B815075
:103070000E94FB170895E5EBF2E0282F220F220FA4
:10308000220F90819770922B9083E6EBF2E082956D
:10309000869587709081987F892B80836091B30299
:1030A0007091B4028091B5029091B6020E946C0DAD
:1030B000089591E0811101C090E08091B40290FBED
:1030C00082F98093B4026091B3027091B40280914E
:1030D000B5029091B6020E946C0D0895E4EBF2E007
:1030E000908192FB222720F981E0822780FB92F9D0
:1030F00090830E9459180895E4EBF2E0282F220FE4
:10310000220F220F90819770922B90838295869543
:103110008370E5EBF2E090819C7F892B8083609146
:10312000B3027091B4028091B5029091B6020E94F0
:103130006C0D0895CF93DF93C091B4028C2F8695C8
:1031400086958695C091B502C370C295CC0FC07E9E
:10315000C82BD0E0C436D1053CF42196C536D10544
:103160002CF0C4E6D0E002C0C4E0D0E08C2F0E9476
:1031700081148C2F0E947C18DF91CF910895CF93FA
:10318000DF93C091B4028C2F869586958695C09169
:10319000B502C370C295CC0FC07EC82BD0E0C5303D
:1031A000D10514F0219702C0C4E6D0E08C2F0E9414
:1031B00081148C2F0E947C18DF91CF91089580910B
:1031C000B302817008958091B30280FF03C0869599
:1031D0008370089580E00895E5EBF2E080818460DB
:1031E00080836091B3027091B4028091B502909196
:1031F000B6020E946C0D0895E5EBF2E080818B7FB2
:1032000080836091B3027091B4028091B502909175
:10321000B6020E946C0D08958091B50282FF03C032
:103220000E94FC1808950E94EC1808958091B50240
:10323000982F9695969596958091B6028295880FCF
:10324000807E892B883710F4865F01C088E70E9452
:103250003B1808958091B502982F9695969596956E
:103260008091B6028295880F807E892B843110F080
:103270008A5001C084E10E943B1808950E94C51441
:1032800008950E94061508950F931F93CF93DF931F
:10329000C42FD22FFC0182818823B1F040937802A1
:1032A0000E94F41B909377028093760280E28C0F49
:1032B000883008F04DC0C77081E001C0880FCA9502
:1032C000EAF70E94B50444C080917802481330C0E8
:1032D00080917602909177020E940C1C883C9105A7
:1032E00038F510E21D0FCD17B9F080E28C0F883051
:1032F00040F4C77081E001C0880FCA95EAF70E94C8
:10330000BC04183010F581E09D2F977001C0880F24
:103310009A95EAF70E94B504802F0E94AB041830FA
:10332000B8F4D77081E001C0880FDA95EAF70AC0D7
:1033300080E28C0F883060F4C77081E001C0880F94
:10334000CA95EAF70E94BC0403C0802F0E94AB0418
:10335000DF91CF911F910F9108950F93FC01E851D8
:10336000FC47E730F10590F5CB01EF56FF4F0C9489
:103370000D2306E221EE41EE6AE17CE723C007E27D
:1033800025EE45EE6BE17CE71DC006E221EE40EE46
:1033900068E17CE717C007E225EE44EE69E17CE7CF
:1033A00011C006E221EE42EE6CE17CE70BC007E2C1
:1033B00025EE46EE6DE17CE705C008E221E045EE32
:1033C0006EE17CE70E94441980E008C0FB01828125
:1033D000882319F01092780201C081E00F910895BE
:1033E00090939F0180939E01089590937E02809315
:1033F0007D020895E0917D02F0917E02309729F0E0
:103400000190F081E02D0995089580E00895FC0178
:10341000A0917D02B0917E02109791F080911301EE
:10342000882341F08091A30287FF04C080818183BB
:1034300086E08083CF011296ED91FC911397099558
:103440000895E0917D02F0917E02309739F022E0FC
:10345000DC012C930480F581E02D09950895A3E00B
:10346000B0E0E5E3FAE10C94232320917B02309154
:103470007C0228173907A1F090937C0280937B028D
:10348000E0917D02F0917E02309751F023E0298394
:103490009B838A830680F781E02DCE0101960995F2
:1034A0002396E2E00C943F23A3E0B0E0EAE5FAE1E2
:1034B0000C9423232091790230917A02281739073E
:1034C000A1F090937A0280937902E0917D02F091CD
:1034D0007E02309751F024E029839B838A83068003
:1034E000F781E02DCE01019609952396E2E00C9438
:1034F0003F23FC01329680911301882331F08091A3
:10350000A30287FF02C09EE101C096E080E09150D7
:1035100028F021912223D9F38F5FF9CF08956623F4
:1035200051F1209113012223E9F02091A30227FFFA
:1035300019C0462F4695469546954E31E0F4677082
:1035400021E030E002C0220F331F6A95E2F7FC0150
:10355000E40FF11D828190E02823392381E0232BA1
:1035600069F409C0FC01329608962191621729F08E
:10357000E817F907D1F780E0089581E008959C01EC
:10358000FC0132969FEF80E04191461789F09F3F02
:1035900019F4411101C0982F8F5F8630A9F79F3F22
:1035A00039F0F901E90FF11D97FDFA95628308954D
:1035B00008959C012A5F3F4FFC014281461301C0E0
:1035C0001282019682179307B9F70895262F269540
:1035D000269526952E3168F4FC01E20FF11D6770E7
:1035E00021E030E001C0220F6A95EAF78281282BA2
:1035F00022830895262F2695269526952E3170F440
:10360000FC01E20FF11D677021E030E001C0220FE4
:103610006A95EAF7209582812823228308952091D4
:103620001301222339F02091A30227FF03C00E9437
:10363000E61A08950E94BF1A0895209113012223CB
:1036400039F02091A30227FF03C00E94FA1A0895BF
:103650000E94D91A089520911301FC013296222369
:1036600031F08091A30287FF02C08EE101C086E0A5
:10367000DF011D928A95E9F7089546E050E00E9427
:103680005E2321E0892B09F420E0822F089508951C
:103690000E94471B089583E080937F020E94481B8D
:1036A0000895811102C081E001C082E080937F0211
:1036B0000E94481B08950E94511B089581E0809349
:1036C0007F020E94481B08950E945E1B0895089582
:1036D0000E94671B08950E94681B08950E94671B43
:1036E00008950E94671B08950E94671B0895CF9359
:1036F0000E94711B0E9466110E946E1BC0E08C2FFD
:103700000E949E10811104C0CF5FC730C1F701C075
:1037100081E0CF91089585B7806885BF85B78068BF
:1037200085BF08951F920F920FB60F9211248F93A9
:103730009F93AF93BF9380918002811113C08091BA
:10374000B7029091B802A091B902B091BA02419625
:10375000A11DB11D8093B7029093B802A093B90246
:10376000B093BA02BF91AF919F918F910F900FBE0E
:103770000F901F9018958091BF02843031F10E9404
:1037800068031092800220E488E190E00FB6F8947C
:10379000A895809360000FBE2093600083B7817F5F
:1037A000846083BF83B7816083BF7894889583B733
:1037B0008E7F83BF0FB6F894A895809160008861D2
:1037C00080936000109260000FBE08950E9426074B
:1037D0000E946D03089582E084BD93E095BD9AEF49
:1037E00097BD80936E0008952FB7F8948091B7022B
:1037F0009091B802A091B902B091BA022FBF08957A
:103800002FB7F8946091B7027091B8028091B90215
:103810009091BA022FBF08959C014FB7F894809100
:10382000B7029091B802A091B902B091BA024FBF0D
:10383000821B930B089578941F920F920FB60F92EC
:1038400011248F939F93AF93BF938091B702909170
:10385000B802A091B902B091BA020196A11DB11DA2
:103860008093B7029093B802A093B902B093BA02C2
:10387000BF91AF919F918F910F900FBE0F901F90AE
:10388000189587E797E790930108809300089AE0DE
:1038900088E10FB6F894A895809360000FBE9093CE
:1038A0006000FFCF9AE088E10FB6F894A895809366
:1038B00060000FBE90936000FFCF8091A102089539
:1038C0009B019091BF029430F1F48F708093E900D6
:1038D0008FEF9091E800815095FD06C095ED9A9587
:1038E000F1F700008111F5CF8091E80085FF0BC052
:1038F000BA01C90140E050E00E946B1E8091E800CF
:103900008E778093E800089543E050E0BC0182E0A8
:103910000E94601C089546E050E0BC0182E00E94D5
:10392000601C0895CF93DF93EC0180911301811106
:1039300005C048E050E0BE0181E00BC08091A302C9
:1039400087FF03C040E282E002C048E081E050E02F
:10395000BE010E94601C80E2FE01A1E8B2E001907D
:103960000D928A95E1F7DF91CF9108958091BE0283
:10397000811109C00E94F61F0E9453208091E2002D
:1039800084608093E20008951092BE0208950E9420
:10399000641B08956091BB0281E0611101C080E069
:1039A0000E944B1B08959091BF0281E0943009F072
:1039B00080E06091BB020E94511B089542E061ECDF
:1039C00081E00E946F1F42E261EC82E00E946F1F63
:1039D0009091BF0281E0943009F080E06091BB02D9
:1039E0000E945B1B08958091C102833009F461C07D
:1039F00030F4813071F0823009F49BC008958A3030
:103A000009F487C08B3009F46CC0893009F0A9C073
:103A100020C08091C002813A09F0A3C08091E800E3
:103A2000877F8093E8008091C4029091C502892B22
:103A300021F460E281E892E003C060E080E090E081
:103A400070E00E94B01E8091E8008B778093E800C0
:103A500008958091C002813209F083C08091C40230
:103A60009091C502029708F07CC08091E800877FA2
:103A70008093E8008091E80082FD05C08091BF023C
:103A80008111F8CF6EC02091F3008091F20090E098
:103A9000922B029731F48091F100813011F0863041
:103AA00021F48091F1008093A1028091E8008B774E
:103AB00054C08091C002813A09F053C08091C40281
:103AC0009091C502892B09F04CC08091E800877F56
:103AD0008093E8008091E80080FFFCCF8091130183
:103AE00037C08091C0028132E1F58091C40290918B
:103AF000C502892BB1F58091E800877F8093E800AB
:103B00000E94A41F8091C202809313010E94260785
:103B100008958091C002813221F58091E800877F6D
:103B20008093E8000E94A41F8091C3028093A202A8
:103B300008958091C002813AA1F48091E800877FC6
:103B40008093E8008091E80080FFFCCF8091A20282
:103B50008093F1008091E8008E778093E8000E94C6
:103B6000A41F089584B7877F84BF0FB6F894A895E3
:103B700080916000886180936000109260000FBEA9
:103B800090E080E80FB6F894809361009093610014
:103B90000FBE0E945E1B08950E94F61F0E945320D4
:103BA000E2EEF0E080818460808378940E94DE22DF
:103BB00008958BE091E00E94F51908958091BF026D
:103BC0008530A9F48091BF02853079F40E94BB1B37
:103BD0008091BD028823B1F30E94771B882391F363
:103BE0000E94551E0E942607EDCF0E94E61B0895F5
:103BF00008950E94FC1D0895292F33272330310595
:103C0000C9F060F42130310581F02230310509F02E
:103C100044C08BE390E02EE333E043C02132310512
:103C2000E1F02232310549F138C082E190E029E724
:103C300033E037C099278130910549F028F0029789
:103C400061F5E4E1F3E005C0EAE3F3E002C0E6E297
:103C5000F3E0849190E09F0124C06115710541F06B
:103C600061307105D1F489E090E029E633E019C0B4
:103C700089E090E020E533E014C06115710541F062
:103C80006130710551F486EB90E02BE833E009C018
:103C900080E490E021E434E004C080E090E020E0A3
:103CA00030E0FA0131832083089580E189BD82E10B
:103CB00089BD09B400FEFDCF8091D8008F7D80932F
:103CC000D8008091E00082608093E0008091E00065
:103CD00081FDFCCF0895A0E0B0E0E1E7FEE10C94A7
:103CE0001D23EC018B017A010E94C31F811133C097
:103CF000E114F10439F0F70180819181081B190B5F
:103D0000C80FD91FC12CD12C0115110519F18091B3
:103D1000E80085FD16C08091E8008E778093E8006A
:103D2000E114F10449F0F70180819181C80ED91E98
:103D3000D182C08285E00FC00E94C31F882321F377
:103D40000AC089918093F10001501109FFEFCF1A49
:103D5000DF0ADACF80E0CDB7DEB7E8E00C94392394
:103D60002091C6023091C7022617370748F0611527
:103D7000710539F42091E8002E772093E80001C006
:103D8000B901FC0120E06115710579F18091BF0254
:103D90008823F1F18530F1F18091E80083FD3CC08A
:103DA0008091E80082FD2EC08091E80080FFEBCF7B
:103DB0002091F3008091F20090E0922B6115710543
:103DC00051F08830910538F421912093F100615031
:103DD00071090196F3CF21E0089709F020E0809166
:103DE000E8008E778093E800CECF2111CFCF0AC0B4
:103DF0008091BF02882361F0853061F08091E800F6
:103E000083FD0AC08091E80082FFF2CF80E0089530
:103E100082E0089583E0089581E008952091C6022C
:103E20003091C7022617370748F06115710539F43C
:103E30002091E8002E772093E80001C0B901FC0131
:103E400020E06115710591F18091BF02882309F48A
:103E500040C0853009F43FC08091E80083FD3DC03B
:103E60008091E80082FD2FC08091E80080FFE9CFBB
:103E70002091F3008091F20090E0922B6115710582
:103E800059F08830910540F424912093F100319647
:103E9000615071090196F2CF21E0089709F020E006
:103EA0008091E8008E778093E800CBCF2111CCCFB2
:103EB0000AC08091BF02882361F0853061F0809153
:103EC000E80083FD0AC08091E80082FFF2CF80E025
:103ED000089582E0089583E0089581E00895982F81
:103EE000973068F59093E900981739F07091EC00DD
:103EF0002091ED005091F00003C0242F762F50E068
:103F000021FD02C09F5FECCF3091EB003E7F3093EC
:103F1000EB003091ED003D7F3093ED003091EB00F0
:103F200031603093EB007093EC002093ED005093E0
:103F3000F0002091EE0027FDE5CF80E008958F701E
:103F40008093E90081E008958091C00287FF11C04D
:103F50008091E80082FD05C08091BF028111F8CFF9
:103F600011C08091E8008B770BC08091BF0288233D
:103F700049F08091E80080FFF8CF8091E8008E77CB
:103F80008093E80008952091E4003091E50095E6E3
:103F90004091EC00842F817040FF23C08091E800A5
:103FA00080FD1DC08091BF02882399F0853099F073
:103FB0008091EB0085FD11C04091E4005091E50037
:103FC0002417350729F3915011F09A01E1CF84E0CD
:103FD000089582E0089583E0089581E0089580E0E7
:103FE00008954091E80042FFDDCF08950E946520CA
:103FF0000E946D20E0EEF0E0808181608083E8ED3A
:10400000F0E080818F77808319BCA7EDB0E08C91C0
:104010008E7F8C9380818F7E80831092BE02089564
:104020000F931F93CF93DF930E9465200E946D2012
:10403000C8EDD0E088818F77888388818068888305
:1040400088818F7D888319BC1092BF021092BB02B9
:104050001092BD021092BC0200EE10E0F8018081C7
:104060008B7F808388818160888342E060E080E08C
:104070000E946F1FE1EEF0E080818E7F8083E2EE90
:10408000F0E0808181608083808188608083F80196
:1040900080818E7F8083888180618883DF91CF914A
:1040A0001F910F910895E8EDF0E080818F7E80836D
:1040B000E7EDF0E080818160808384E082BF81E071
:1040C0008093BE020E9410200895E8EDF0E0808108
:1040D0008E7F80831092E20008951092DA00109291
:1040E000E10008951F920F920FB60F9211242F93A3
:1040F0003F934F935F936F937F938F939F93AF9370
:10410000BF93EF93FF938091E10082FF0BC08091FA
:10411000E20082FF07C08091E1008B7F8093E10085
:104120000E94DD228091DA0080FF1FC08091D800BC
:1041300080FF1BC08091DA008E7F8093DA0080912F
:10414000D90080FF0DC080E189BD82E189BD09B43D
:1041500000FEFDCF81E08093BF020E94B61C05C027
:1041600019BC1092BF020E94C41C8091E10080FF24
:1041700019C08091E20080FF15C08091E2008E7F1F
:104180008093E2008091E20080618093E200809160
:10419000D80080628093D80019BC85E08093BF026C
:1041A0000E94CA1C8091E10084FF30C08091E2002F
:1041B00084FF2CC080E189BD82E189BD09B400FE85
:1041C000FDCF8091D8008F7D8093D8008091E10051
:1041D0008F7E8093E1008091E2008F7E8093E200E9
:1041E0008091E20081608093E2008091BB0288238D
:1041F00011F084E007C08091E30087FD02C081E0F8
:1042000001C083E08093BF020E94D31C8091E10033
:1042100083FF29C08091E20083FF25C08091E100E7
:10422000877F8093E10082E08093BF021092BB02FF
:104230008091E1008E7F8093E1008091E2008E7F8B
:104240008093E2008091E20080618093E20042E08E
:1042500060E080E00E946F1F8091F0008860809392
:10426000F0000E94C71CFF91EF91BF91AF919F9109
:104270008F917F916F915F914F913F912F910F900F
:104280000FBE0F901F9018951F920F920FB60F92AE
:1042900011242F933F934F935F936F937F938F934B
:1042A0009F93AF93BF93CF93DF93EF93FF93C0910F
:1042B000E900CF708091EC00D82FD17080FDD0E85C
:1042C0001092E9008091F000877F8093F00078944D
:1042D0000E9488211092E9008091F000886080930C
:1042E000F000CD2BCF70C093E900FF91EF91DF91EB
:1042F000CF91BF91AF919F918F917F916F915F917E
:104300004F913F912F910F900FBE0F901F901895D6
:10431000AAE2B0E0EEE8F1E20C942223E0ECF2E055
:104320008091F100819322E0E83CF207C9F70E94F6
:10433000F31C8091E80083FF2EC18091C002909110
:10434000C102492F50E04A30510508F024C1FA015A
:10435000E856FF4F0C940D23803821F0823809F085
:104360001AC108C08091BC029091BD02992389F0C6
:1043700082600FC08091C4028F70873008F00BC13B
:104380008093E9008091EB0085FB882780F91092EB
:10439000E9009091E800977F9093E8008093F10006
:1043A0001092F100D1C0282F2D7F09F0F4C088238E
:1043B00019F0823061F0EFC08091C202813009F0C3
:1043C000EAC0933009F080E08093BD022EC0809156
:1043D000C20281112AC08091C4028F702FEF280F72
:1043E000263008F0D8C08093E9002091EB0020FF30
:1043F0001CC0933021F48091EB00806214C0909136
:10440000EB0090619093EB0021E030E0A90102C045
:10441000440F551F8A95E2F74093EA001092EA0094
:104420008091EB0088608093EB001092E90080910E
:10443000E800877F8093E8000E94A41FACC0811130
:10444000AAC01091C2021F778091E3008078812B6F
:104450008093E3008091E800877F8093E8000E94CA
:10446000A41F8091E80080FFFCCF8091E30080686A
:104470008093E300111102C082E001C083E08093C9
:10448000BF0289C08058823008F085C08091C20286
:104490009091C3028C3D53E0950779F583E08A83C0
:1044A0008AE289834FB7F894DE01139620E03EE05C
:1044B00051E2E32FF0E050935700E49120FF03C056
:1044C000E295EF703F5FEF708E2F90E0EA3010F0D2
:1044D000C79601C0C0968D939D932F5F243149F7F5
:1044E0004FBF8091E800877F8093E8006AE270E028
:1044F000CE0101960E94B01E16C06091C402709158
:10450000C502AE014F5F5F4F0E94F91DBC01892BB0
:1045100009F441C09091E800977F9093E800898169
:104520009A810E940E1F8091E8008B778093E800AB
:1045300032C0803881F58091E800877F8093E80061
:104540008091BB028093F1008091E8008E7772CF5A
:10455000811121C08091C2029091C30299270297D4
:10456000D4F48091E800877F8093E8008091C202B4
:104570008093BB020E94A41F8091BB02811106C0E0
:104580008091E30087FD02C081E001C084E0809358
:10459000BF020E94DE1C8091E80083FF0AC0809168
:1045A000E800877F8093E8008091EB008062809331
:1045B000EB00AA96E3E00C943E230895CF938091FC
:1045C000BF028823A1F0C091E900CF709091EC0068
:1045D000892F817090FD80E8C82B1092E9008091AE
:1045E000E80083FD0E948821CF70C093E900CF913D
:1045F000089597FB072E16F4009407D077FD09D095
:104600000E944A2307FC05D03EF4909581959F4F68
:104610000895709561957F4F0895EE0FFF1F0590E7
:10462000F491E02D09942F923F924F925F926F92F6
:104630007F928F929F92AF92BF92CF92DF92EF9232
:10464000FF920F931F93CF93DF93CDB7DEB7CA1BB3
:10465000DB0B0FB6F894DEBF0FBECDBF09942A88DE
:10466000398848885F846E847D848C849B84AA8486
:10467000B984C884DF80EE80FD800C811B81AA8113
:10468000B981CE0FD11D0FB6F894DEBF0FBECDBFDE
:10469000ED010895AA1BBB1B51E107C0AA1FBB1F58
:1046A000A617B70710F0A61BB70B881F991F5A95BE
:1046B000A9F780959095BC01CD010895FB01DC011F
:1046C00004C08D910190801921F441505040C8F7E9
:1046D000881B990B0895FB01DC0102C001900D922B
:1046E00041505040D8F70895F999FECF92BD81BD51
:1046F000F89A992780B50895A6E1B0E044E050E02B
:104700000C94AE23A8E1B0E042E050E00C94AE235C
:10471000262FF999FECF92BD81BDF89A019700B47A
:10472000021639F01FBA20BD0FB6F894FA9AF99A1A
:104730000FBE08950396272F0E9489230E94882385
:10474000252F0E948923242F0C9489230196272F3B
:104750000E9489230C948823DC01CB01FC01F99988
:10476000FECF06C0F2BDE1BDF89A319600B40D92BD
:0C47700041505040B8F70895F894FFCF76
:10477C002402280850011E0A14010C5D1C921C8B8B
:10478C001C841C01E200E900EA00B500B600B70089
:10479C00CD008301CC008A019201940121022302F5
:1047AC0024022502260227022A02B300B4006F005D
:1047BC0070009F01CB01818283E200E900EA00B521
:1047CC0000B600B700CD008301CC008A01920194A1
:1047DC00012102230224022502260227022A02B307
:1047EC0000B4006F0070009F01CB01818283919017
:1047FC00946697C63435F5F633F732313600FF013F
:0E480C0000010000FFFF0000010001FF00009E
:00000001FF
