:100000000C94CE010C94EB010C94EB010C94EB01DD
:100010000C94EB010C94EB010C94EB010C94EB01B0
:100020000C94EB010C94EB010C94A91D0C947B1E19
:100030000C9489180C94EB010C94EB010C94EB01DB
:100040000C94EB010C94EB010C94EB010C94EB0180
:100050000C94EB010C9412190C94EB010C94EB0131
:100060000C94EB010C94EB010C94EB010C94EB0160
:100070000C94EB010C94EB010C94EB010C94EB0150
:100080000C94EB010C94EB010C94EB010C94EB0140
:100090000C94EB010C94EB010C94EB010C94EB0130
:1000A0000C94EB010C94EB010C94EB01A504A5045A
:1000B000D104D10433055105690669065C05F505CF
:1000C00006060606E31E0A1F02200A1F0220561F0C
:1000D000791F0220D01FDF1F14001A00080015002E
:1000E00017001C0018000C00120013002700240049
:1000F0002500260004001600070009000A000B0076
:100100000D000E000F00290028002100220023000E
:100110001D611B64066819002A422C4105431174B5
:100120001071E50000001E001F002000010001000A
:100130000100005C01002D002E002F003000310076
:1001400043004000410042000100010001000100A5
:100150000100360037003800330034002B003D002A
:100160003E003F0001000100E30001004C000100DF
:100170005000510052004F0000003A003B003C008C
:10018000010001000100010001002D022E022F02DA
:1001900030023102010001000100010001000100F4
:1001A0000100010001003602370238023302340236
:1001B0000100010001000100010001000100010037
:1001C000010046004A004E004B004D000000440074
:1001D00045000100C65CC85CCA5CC45C010001004B
:1001E0000100010001000100CE5CD55CD65C01007D
:1001F000C75CC95CCB5CC55C01000100010001006B
:1002000001000100C35CD25CD35CD45C010001003E
:1002100001000100010001000100010001000100D6
:100220000000CF5CD05CD15C160342004400450066
:100230002000520069006700680074007900000027
:1002400012034D00650063006800570069006C00F0
:10025000640000000403090409023B00020100A03D
:10026000FA09040000010301010009211101000144
:100270002240000705810308000109040100010371
:1002800000000009211101000122B60007058203C8
:100290002000011201000200000008776D02170320
:1002A000020102000105010902A10185020901A163
:1002B0000005091901290815002501950875018116
:1002C000020501093009311581257F9502750881E4
:1002D0000609381581257F950175088106050C0AE8
:1002E00038021581257F950175088106C0C005017A
:1002F0000980A101850319012AB700150126B7005D
:10030000950175108100C0050C0901A10185041932
:10031000012AA002150126A002950175108100C0D6
:1003200005010906A1018506050719E029E7150061
:1003300025019508750181020507190029EF1500AF
:10034000250195F07501810205081901290595051A
:1003500075019102950175039101C005010906A17E
:1003600001050719E029E7150025019508750181A8
:10037000029501750881010507190029FF1500265E
:10038000FF009506750881000508190129059505E6
:1003900075019102950175039101C00011241FBEE2
:1003A000CFEFDAE0DEBFCDBF11E0A0E0B1E0ECECD2
:1003B000F1E402C005900D92AA38B107D9F722E006
:1003C000AAE8B1E001C01D92AF39B207E1F70E947F
:1003D00052120C94E4200C94000081E0089581E016
:1003E00008950E94EF01089508950E94F401089570
:1003F000A5E0B0E0EEEFF1E00C94592049835A8378
:1004000030918D0189819A81311114C0662359F090
:10041000222349F00E94C308182F682F89819A81EE
:100420000E949F0803C00E94B108182F69817A8139
:10043000812F04C00E94C30869817A810E94A70F9E
:100440002596E3E00C947520FC01262F4081518114
:100450006281738184810E94F801089581E008958A
:10046000CF93DF93EC0160E00E942402BE010E9462
:10047000F501DF91CF9108950E94FA1008950E942E
:10048000F410089508950E94EC060E9442022FEF96
:1004900084E39CE0215080409040E1F700C00000E0
:1004A00008950E9443020E94381908950E94430251
:1004B0000E94491908950F931F93CF93DF938C01E6
:1004C00061E00E942402EC01B8010E94F10188233E
:1004D00009F440C0B801CE010E94B2168823D1F1C0
:1004E000B801CE010E94D0148823A1F1B801CE0139
:1004F0000E941816882371F1F8018281882331F156
:10050000CB358DE5D807E9F050F4C115FCE5DF07E0
:1005100079F0CF3DDC45D1F40E94C50D0CC0CD353E
:10052000EDE5DE0759F080F0C83ADD4521F00EC058
:100530000E9451020FC00E9456020CC00E94FC0C87
:1005400005C00E94060D02C00E940A0DC8010E944B
:10055000ED0101C080E0DF91CF911F910F910895CF
:100560000E9461180E94CD0208950E94D1020E944B
:100570006A18089508950E94BA02089581E00895C6
:100580000E94BE0208950895CF93C82F0E94BB0217
:100590008C2F0E94C002CF91089580E00E94C40277
:1005A00008950E940E170E94C40208950E940E171B
:1005B00090918C01891721F080938C010E94C402D4
:1005C0000895ABE0B0E0E7EEF2E00C945A204F83E0
:1005D000588769877A878B8761110E94440C9E0136
:1005E0002F5F3F4F86E0F90111928A95E9F785E088
:1005F000FE013796D90101900D928A95E1F7898124
:100600009A814C815D81452B31F09F3F31F491E01F
:100610008F3F19F403C091E001C090E090FF09C042
:1006200049815A816B817C818D819E810E94700BF2
:1006300005C0C9010E942E028111F2CF2B96E2E083
:100640000C947620FC01808191810E94FD08089520
:10065000CF93882309F4A3C0C82F8238C1F40E9425
:100660000E1781FD9CC069E380910001909101010A
:100670000E9405180E94680C2FEF81EE94E0215033
:1006800080409040E1F700C0000069E319C0833862
:1006900001F50E940E1780FD82C063E58091000184
:1006A000909101010E9405180E94680C2FEF81EEC5
:1006B00094E0215080409040E1F700C0000063E5E5
:1006C00080910001909101010E9413180E94680C12
:1006D00066C08438C1F40E940E1782FD60C067E4D2
:1006E00080910001909101010E9405180E94680C00
:1006F0002FEF81EE94E0215080409040E1F700C060
:10070000000067E4DDCF8CEF8C0F813AD0F46C2FC2
:1007100080910001909101010E948517882349F082
:100720006C2F80910001909101010E9413180E948A
:10073000680C6C2F80910001909101010E940518B6
:10074000C5CF80E28C0F883048F4C77081E001C0CB
:10075000880FCA95EAF70E94270CB8CFEBE5EC0F9B
:10076000E33040F4F0E0EB5BFE4F808190E00E94CC
:10077000431715C0E8E5EC0FE73150F4F0E0EE0F59
:10078000FF1FE95EFE4F808191810E94591707C0CB
:10079000CD3E28F08C2F0E94D7120E94A913CF9132
:1007A0000895882309F467C0823879F40E940E17EF
:1007B00081FF61C069E380910001909101010E9475
:1007C00005180E94680C69E310C08338B9F40E94D0
:1007D0000E1780FF50C063E58091000190910101E8
:1007E0000E9405180E94680C63E5809100019091B9
:1007F00001010E9413180E94680C0895843879F44E
:100800000E940E1782FF37C067E48091000190912B
:1008100001010E9405180E94680C67E4E6CF9CEF76
:10082000980F913A10F4682FE0CF90E2980F98302B
:1008300050F4877091E001C0990F8A95EAF7892FEB
:100840000E942D0CD8CF9BE5980F933028F480E0C0
:1008500090E00E944317089598E5980F973128F487
:1008600080E090E00E94591708958D3E20F00E948C
:1008700032130E94A91308951F93CF93DF93182F6B
:10088000EB010E942803209741F08FE99FE0019738
:10089000F1F700C000002197F6CF812F0E94D1030D
:1008A000DF91CF911F910895893319F060E070E0D6
:1008B00002C060E570E00E943C040895882321F0A6
:1008C0000E94270C0E94680C0895882321F00E9442
:1008D0002D0C0E94680C0895A0E0B0E0E2E7F4E07F
:1008E0000C9454207C01D62FC72FFC011281058166
:1008F00002950F700E941D0C8823B9F01123A9F0F6
:100900008C2F807F803421F080E28D0F883068F05A
:100910008091810282FF09C082E00E94CA0C0E947D
:100920001D0C91E0D82ED92601C0D12CCC2EC2941A
:100930008FE0C8228C2D90E08C30910508F0C9C161
:10094000FC01EA5AFF4F0C9444208C2F807FCF701B
:10095000882311F0C295C07F112399F0CC2309F4AC
:10096000A4C180E28D0F883010F0D11104C08C2F0B
:100970000E94270C03C08C2F0E94370C0E94680C29
:1009800094C18D2F0E94D103CC2309F4A2C180E22F
:100990008D0F883038F1DD2329F18C2F0E943D0C1A
:1009A00024C08C2F807FCF70803211F0C295C07F21
:1009B000DD2319F0D130A1F140C08091810282FD88
:1009C00017C0112349F0CC2329F08C2F0E94270C4B
:1009D0000E94680C80E06AC180E00E94D103CC23B1
:1009E00009F477C18C2F0E942D0C0E94680C71C1F4
:1009F000112371F0002341F0013031F40E94470CC3
:100A00008C2B0E94510C65C10E94470C8C2B0EC090
:100A1000002319F0013009F45CC10E945E0C1FC074
:100A2000112339F0063008F054C18C2F0E945E0467
:100A300050C1053008F04DC112C0112319F0002338
:100A4000A1F333C1002359F0D93309F03FC1FFEFBF
:100A500007EE13E0F15000401040E1F735C18C2F54
:100A60000E94650436C18C2F86958695837019F097
:100A7000813061F02EC1112321F08D2F9C2F9370B6
:100A800002C080E090E00E9443172BC1112321F0A7
:100A90008D2F9C2F937002C080E090E00E94591728
:100AA00020C18D2F112319F00E94D71202C00E947D
:100AB00032130E94A91315C18C2F837009F047C00F
:100AC00011110BC12D2F229526952770220F220F71
:100AD0006D2F6F70862F90E0A0E0B0E0022E04C072
:100AE000880F991FAA1FBB1F0A94D2F7D4FF10C00A
:100AF0004FE050E060E070E004C0440F551F661FF7
:100B0000771F2A95D2F7409550956095709503C050
:100B100040E050E0BA01C695C695C3708A019B01BA
:100B2000082B192B2A2B3B2BC901B801C23049F0E5
:100B300058F4C13019F00E945307CFC00E944007FB
:100B4000CCC00E946607C9C00E943D07C6C01123E1
:100B500019F08C2F817001C08695882309F4BDC0DF
:100B60002D2F229526952770220F220F6D2F6F7043
:100B7000862F90E0A0E0B0E0022E04C0880F991FFD
:100B8000AA1FBB1F0A94D2F7D4FF10C04FE050E059
:100B900060E070E004C0440F551F661F771F2A9560
:100BA000D2F7409550956095709503C040E050E0B5
:100BB000BA01C695C695C3708A019B01082B192BF3
:100BC0002A2B3B2BC901B801C23049F058F4C1307F
:100BD00019F00E94220881C00E940F087EC00E9466
:100BE00035087BC00E947C0778C0CF70112339F094
:100BF0008C2F0E94A5078D2F0E945E046EC08D2F42
:100C00000E9465048C2F0E94C70767C0D23F21F164
:100C100028F4D03F41F0D13FC1F043C0D33F19F198
:100C2000D43F79F03EC0112341F0053008F051C0A7
:100C30008C2F8F710E94ED074CC0063008F049C020
:100C4000F7CF8091810282FD18C0112339F08C2FDB
:100C50008F710E94A5073DC01123C9F38C2F8F719E
:100C60000E94C70736C0112329F08C2F8F710E9474
:100C70008F072FC00E9489072CC0112349F0CF7124
:100C80008C2F0E94A50763E08C2F0E94AC0C21C022
:100C900081E00E94CA0C0230E0F082E00E94CA0C9F
:100CA00018C0112331F0002391F28D2F0E942803E8
:100CB00010C0002399F2D93349F41FEF27EE33E037
:100CC000115020403040E1F700C000008D2F0E94FD
:100CD000D10388EF8C0D843020F40E940E170E94FF
:100CE000C402DD2089F00E94190C80FD0DC0F701BF
:100CF00012820E94130C0E94A507C7010E94A10640
:100D00000E94130C0E94C707CDB7DEB7E8E00C9431
:100D100070200F931F93CF93DF93EC01688179814B
:100D20008A810E9408098C010E9448080E942807B5
:100D3000B801CE010E946C04DF91CF911F910F91F9
:100D40000895CF93DF93EC01988189812B813C81B9
:100D5000232B31F08F3F31F481E09F3F19F403C022
:100D600081E001C080E080FD1AC0CE010E945B02DC
:100D700081110FC00E941D0C882389F08A8188236D
:100D800071F08091810282FF0AC082E00E94CA0C49
:100D900006C0CE010E948906CE010E943002DF917A
:100DA000CF91089580E090E00E94431780E090E0AA
:100DB0000E9459170E94440C0E94680C0E94C214A1
:100DC0000E94A913089580910001909101010E9451
:100DD00021180E94D20608950E94340C0E94E30656
:100DE000089592959F70963079F010F4925001C05A
:100DF0009A50923068F4803F69F018F4883E40F4CD
:100E000009C0843F29F406C0883E20F0813F11F0DC
:100E100080E0089581E00895FC01808191810E9425
:100E2000FD080E94F1060895A5E0B0E0EAE1F7E0D0
:100E30000C945A202596E2E00C947620A6E0B0E0CF
:100E4000E4E2F7E00C945A202696E2E00C94762037
:100E5000089508950E94290708950E942A07089579
:100E60000E942D076093B0017093B1018093B2018D
:100E70009093B3010E94D20608950E94300708950E
:100E80000F931F930091B0011091B1012091B20115
:100E90003091B301602B712B822B932B0E94300772
:100EA0001F910F9108950F931F930091B00110911E
:100EB000B1012091B2013091B301602371238223EB
:100EC00093230E9430071F910F9108950F931F9352
:100ED0000091B0011091B1012091B2013091B301A4
:100EE00060277127822793270E9430071F910F9157
:100EF00008950E94290708950E9479076093AC0124
:100F00007093AD018093AE019093AF010E94D20621
:100F1000089560E070E0CB010E947C0708950F9374
:100F20001F9341E050E060E070E08A019B0104C043
:100F3000000F111F221F331F8A95D2F7C901B80174
:100F40000E947C071F910F9108950F931F9341E01A
:100F500050E060E070E004C0440F551F661F771F2B
:100F60008A95D2F78091AC019091AD01A091AE012C
:100F7000B091AF018A019B01082B192B2A2B3B2B27
:100F8000C901B8010E947C071F910F9108950F932A
:100F90001F9341E050E060E070E004C0440F551F33
:100FA000661F771F8A95D2F740955095609570958A
:100FB0008091AC019091AD01A091AE01B091AF01D3
:100FC0008A019B01082319232A233B23C901B80165
:100FD0000E947C071F910F9108950F931F9341E08A
:100FE00050E060E070E004C0440F551F661F771F9B
:100FF0008A95D2F78091AC019091AD01A091AE019C
:10100000B091AF018A019B01082719272A273B27A6
:10101000C901B8010E947C071F910F9108950F9399
:101020001F930091AC011091AD012091AE01309160
:10103000AF01602B712B822B932B0E947C071F9199
:101040000F9108950F931F930091AC011091AD0182
:101050002091AE013091AF0160237123822393234D
:101060000E947C071F910F9108950F931F93009189
:10107000AC011091AD012091AE013091AF0160271C
:101080007127822793270E947C071F910F91089553
:101090000895962F9770A1E001C0AA0F9A95EAF7DC
:1010A00093E0769567959A95E1F795E0969F900184
:1010B000979F300D1124FA01E20FF31F40E050E03A
:1010C000682F70E090819B01042E02C03695279511
:1010D0000A94E2F72170219529272A2329272193B1
:1010E0004F5F5F4F4530510569F70895FB01782F39
:1010F000777023E0969587952A95E1F745E0489F1C
:101100009001499F300D1124E20FF31F40E050E0A1
:1011100080E0219130E0072E02C0369527950A9491
:10112000E2F721703327042E01C0220F0A94EAF758
:10113000822B4F5F5F4F4530510559F70895282F97
:10114000933070F48E3060F4862F622F70E02EE0C2
:10115000929F600D711D11244EE851E00E944908D4
:101160000895933070F48E3060F4292F90E06EE88B
:1011700071E03EE0239F800D911D11240E947608AE
:10118000089580E00895A0E0B0E0E9ECF8E00C9468
:1011900053208C01C090AC01D090AD01E090AE0125
:1011A000F090AF018091B0019091B101A091B20196
:1011B000B091B301C82AD92AEA2AFB2ACFE1D0E0AC
:1011C000D701C6010C2E04C0B695A79597958795B3
:1011D0000A94D2F780FD04C0219790F7B12C07C084
:1011E000BC2EB8018C2F0E94C00F0197A9F38B2D44
:1011F000CDB7DEB7E9E00C946F20CF93DF93EC011D
:101200000E94C308BE010E94C00FDF91CF910895D4
:101210001F93CF93DF93EB0190918D01992321F0E0
:10122000CB010E94FD0813C0882349F0CB010E9426
:10123000C308182F682FCE010E949F0804C0CB015D
:101240000E94B108182FBE01812F0E94C00FDF91AC
:10125000CF911F9108951F93CF93DF93C091B40155
:1012600016E08091B501C81799F0D0E01C9FF001FD
:101270001D9FF00D1124EA54FE4F4081518162817F
:101280007381848195810E941E072196C770E9CFE2
:10129000DF91CF911F9108954091E6015091E701B0
:1012A0006091E8017091E9018091EA019091EB0170
:1012B0000E941E0708950F931F93CF93DF93809191
:1012C000EB0182958F7009F05AC08091E801882364
:1012D00009F455C08091B4011091B5016091E60107
:1012E0007091E701C091E901D091EA0191E06F3F6F
:1012F00009F090E0292F06E0811709F440C02097FB
:1013000021F07F3F21F030E003C031E001C0322FF7
:1013100090E030FD31C0089FF001099FF00D1124CD
:10132000DF01AA54BE4F11963C911197371324C088
:101330003C91361321C012963C91129731111CC07A
:1013400013964D915C9114974C1B5D0B4A3F5105D0
:1013500098F48091EB018F7080618093EB01E554EC
:10136000FE4F80818F708061808386EE91E00E94C5
:10137000A1060E942B0903C001968770BDCFDF91A3
:10138000CF911F910F910895A1E1B0E0EAECF9E04F
:101390000C9451208C0185E0F801DE011D9601902E
:1013A0000D928A95E1F7F801E2809091E601609153
:1013B000E7012091E9013091EA012115310531F071
:1013C0006F3F31F481E09F3F19F403C081E001C019
:1013D00080E0F82FF1709F2E80FD40C1F801408120
:1013E0005181A380B48086EEC82E81E0D82EF09083
:1013F000E801F501E21BF30BFF2009F4DAC080914C
:10140000EB01EA3FF10508F096C0282F207F09F094
:1014100053C0561313C0491311C0FE2CE1100EC067
:101420008F7080618093EB010E944C09C6010E947D
:10143000A1068091EB01F80185834DC1A114B1048F
:1014400031F05F3F31F481E04F3F19F403C081E098
:1014500001C080E080FD03C081E08E2502C080E0F5
:1014600090E0F82FF170FF2E80FF1CC08091B40136
:101470002091B50136E0821709F40BC190E0389F46
:10148000F001399FF00D1124EA54FE4F618156138B
:1014900006C06081461303C06281E61203C0019654
:1014A0008770E9CFFE2CEE2009F415C18091EB0185
:1014B00081608093EB0154C0561306C0491304C0E9
:1014C000E11002C0F80199C0C8010E940C078823EE
:1014D00061F1EE2051F12091EB01822F82958F7006
:1014E00090E0029774F08091E6019091E70198876F
:1014F0008F831986BB86AA862C87CE0107960E9409
:10150000A10686E0F801A6EEB1E001900D928A9561
:10151000E1F70E945B090E944C090AC0561711F1BD
:10152000C8010E940C0781112CC0C8010E94A106AD
:10153000FF24F394D0C0282F207F81F77A2DB98A19
:10154000A88A6E2D89890E94140786EE91E00E9478
:10155000A10686E0F60111928A95E9F70E944C09EE
:10156000F12CB9C04913DCCFE110DACFF801858343
:10157000C8010E94A10686E0F60111928A95E9F75A
:10158000AAC0EE2091F22091EB01822F82958F70FC
:1015900090E002970CF4B5CF8091E6019091E701BD
:1015A0009A8389831B82BD82AC822E83CE010196F1
:1015B000A6CFEA3FF10508F044C0FE2CEE2009F466
:1015C000B4CF561330C049132EC02091EB0120FD3B
:1015D00021C0822F82958F70482F50E04115510510
:1015E000C9F0F80125834F30510541F08F5F982FE6
:1015F0009295907F822F8F70892B8583C8010E94DE
:10160000A10686E0F801A6EEB1E001900D928A9560
:10161000E1F73CC086E0F801A6EEB1E001900D9242
:101620008A95E1F758C0C8010E940C07811169CF63
:101630008091EB0181608093EB01C8010E94A106BB
:101640004AC07A2DB98AA88A6E2D89890E9414070A
:1016500086E0F60111928A95E9F718C0EE2009F4A8
:1016600064CFC8010E940C07F82E882309F45DCFCF
:1016700086E0F801A6EEB1E001900D928A95E1F7BF
:1016800086EE91E00E9422030E945B090E944C09B1
:1016900022C04D875E878D859E850E94FD08292F7B
:1016A00022952F70223028F49F7039F0811105C0E7
:1016B0000BC0243028F49F7049F4805E883020F0FD
:1016C000C8010E94A1069F2CF92C05C0F801958144
:1016D000907F99F7F9CF8F2D6196EBE00C946D20F8
:1016E000ACE0B0E0E6E7FBE00C9459204F8358876C
:1016F00069877A878B879C87CE0107960E94C409E9
:101700008823D1F09F8188852A853B85232B31F062
:101710008F3F31F481E09F3F19F403C081E001C0A5
:1017200080E080FD47C04F81588569857A858B852B
:101730009C850E941E073EC086E0FE013796DE01B2
:10174000119601900D928A95E1F7FF81E8856A85EF
:101750007B856115710531F0EF3F31F481E0FF3F8A
:1017600019F403C081E001C080E080FD23C0209116
:10177000B50130E0C9010196877099274091B40105
:1017800050E084179507F1F1F983EA837D836C8338
:1017900096E0929FD001939FB00D1124AA54BE4FA2
:1017A000FE01319601900D929A95E1F78093B50173
:1017B0000E942B0916E08091B4019091B501891720
:1017C00071F1189FC00111248A549E4F0E94C409D0
:1017D000882329F1E091B4011E9FF0011124EA54FD
:1017E000FE4F4081518162817381848195810E9485
:1017F0001E078091B40190E001968770992780932D
:10180000B401D9CF0E94EC061092B5011092B40138
:10181000E6EEF1E086E0DF011D928A95E9F72C966D
:10182000E3E00C94752080910C0285958595859553
:10183000089580910C028770089590910C02977022
:1018400081E009F480E0089580912F02089590913D
:101850002F02892B80932F020895809590912F025B
:10186000892380932F02089510922F02089590915A
:101870002E02892B80932E020895809590912E023E
:10188000892380932E02089510922E02089580914C
:101890000D02089508950E944A0C08950E944B0C71
:1018A00008959091810292FF08C090910D029817BF
:1018B00021F080930D020E944E0C089580910D023C
:1018C000882329F010920D0280E00E944E0C0895AA
:1018D000CF93DF93E0910001F091010180912F02FD
:1018E0008083E0910001F0910101908180912E02AE
:1018F000892B808380910D02882381F0E091000183
:10190000F09101019081892B808380910001909159
:1019100001010E946F1781110E945E0CC0910001AD
:10192000D091010140E250E06CEE71E0CE010E94E6
:101930009520892B59F080E2FE01ACEEB1E00190D8
:101940000D928A95E1F7CE010E941B17DF91CF918E
:1019500008950E944A0C08959091810292FF11C04F
:1019600098E0899F90011124262B20930C020E945D
:10197000A50780910C028595859585950E94A90CF7
:1019800008950E94A507089510920C0280E00E941D
:10199000A90C089520910C028095822380930C025B
:1019A000982F977099F430E0482F082E000C550BB3
:1019B0002417350759F09091810292FF07C0859551
:1019C000859585950E94C7070E94C40C0895909143
:1019D000810292FB222720F9281769F080FB92F9F7
:1019E0009093810280918002909181020E943B0D30
:1019F00082E00E94CA0C08958091810282FB8827B0
:101A000080F991E089270E94E70C089581E00E9407
:101A1000E70C089580E00E94E70C08956FEF7FEFD8
:101A200080E090E00E94CE20089580E090E00E9447
:101A3000AA2021E0883E9E4F09F020E0822F0895E1
:101A400082E090E00E94A220089583E090E00E944E
:101A5000A2200895CF9384E090E00E94A220C82F96
:101A600082E290E00E94A2202C2F30E0A901582BA6
:101A7000CA01CF910895CF93C92F682F84E090E0D9
:101A80000E94B0206C2F82E290E00E94B020CF91A3
:101A90000895AB01BC018FE090E00E94C220089540
:101AA000AB01BC0183E190E00E94C220089560E098
:101AB00070E0CB010E94500D089560E070E0CB0112
:101AC0000E94490D0E94570D089568EE7EEF80E058
:101AD00090E00E94CE2060E082E090E00E94B02082
:101AE00060E083E090E00E94B0201092B00110927C
:101AF000B1011092B2011092B30160E084E090E075
:101B00000E94B02064E082E290E00E94B02060E099
:101B100085E090E00E94B02060E086E090E00E94C6
:101B2000B0206FEF87E090E00E94B02040E050E0EE
:101B3000BA0188E090E00E94C22060E08DE090E071
:101B40000E94B02040E050E0BA0188E190E00E949D
:101B5000C22060E087E190E00E94B02040E050E0C9
:101B6000BA018CE190E00E94C22060E070E080E267
:101B700090E00E94CE2040E050E0BA0188E190E081
:101B80000E94C2200E945D0D08950E94650D089577
:101B9000682F8EE090E00E94B02008950E94F71810
:101BA00060933A0270933B0280933C0290933D0213
:101BB0006093360270933702809338029093390213
:101BC000089581E008950E94E10D089508950E940E
:101BD000E60D08950E94E60D08950E94EA0D08950D
:101BE0000E94E60D08950E94F00D08950E94E60DF2
:101BF00008958CE990E10E9404170E94F60D0E945E
:101C0000F30D08950E94E70D0E94E60D08950E94CD
:101C1000B8100E94C30208950E94E2180E94A21107
:101C20000E94070E0E94ED0D0895AAE0B0E0EBE1DE
:101C3000FEE00C944D200E94B811C82E81110E9424
:101C4000CE0D30E3832E32E0932E00E010E0502ED4
:101C5000802F0E94DD105C01F401619071904F01B2
:101C60006826792661147104B1F40F5F1F4F0330A9
:101C7000110569F78FEF89838A831B820E94EB1815
:101C80008160782F9D838C8349815A816B818D81FE
:101C90000E94E1023BC080913E0281FD0E94E6105D
:101CA000D12CEE24E394F12CC3018E219F21892BAA
:101CB00031F10E94E30D8823B1F0DE825F82AE2015
:101CC000BF2081E0A114B10409F480E088870E945C
:101CD000EB188160782F9A8789874E815F816885AC
:101CE0008A850E94E102000F111FF801E05DFD4F9F
:101CF00080819181E826F926F182E08207C0D394A1
:101D0000EE0CFF1CFEE0DF12CFCFAFCF81E0C110A1
:101D100001C080E02A96EFE00C9469200E94150E25
:101D20000E94C8130E94D6020895CF93DF930E94A9
:101D3000C50FEC01811521E5920708F045C081151A
:101D400030E5930708F094C0883E910528F5803E61
:101D5000910508F0F8C0883A910570F4853A91052C
:101D600008F07CC08130910509F475C008F4E8C022
:101D7000049708F0E8C0E4C08F3B910508F0E0C08C
:101D8000C85AD0E0CC0FDD1FC85BDE4F0990D88168
:101D9000C02DCE019464D8C0811540E2940758F458
:101DA000811551E0950708F0CEC08D3E910508F4ED
:101DB000C7C09065C9C0C11580E4D80708F4C0C089
:101DC000DF70CE01906AC0C0811525E59207A8F4A6
:101DD000811534E5930708F095C0811543E5940714
:101DE00008F07BC0811552E5950708F061C0D82F37
:101DF000CC27CE01816F906AA7C0C11589E5D807AD
:101E0000A0F4C11528E5D20708F082C0C11536E557
:101E1000D30708F095C08C2F0E9459108F7190E065
:101E2000D82FCC27CE0190628FC0C1154AE5D407C8
:101E300008F474C0CE0190568115904208F080C01D
:101E40008D2F8F710E945910DD27D0628F71AE01E6
:101E5000582BCA0179C081E090E076C0C55AD0E025
:101E6000CA58DE4F8881C82FD0E0CE0190646CC084
:101E700074E0969587957A95E1F7282F23703C2F8B
:101E8000337081E090E002C0880F991F3A95E2F725
:101E90009C68AC01522B9A019C2F9F709695969549
:101EA00050E2959FE0011124C9018C2B9D2B4CC061
:101EB0008370992721E030E002C0220F331F8A95FA
:101EC000E2F79C2F9695969580E2989FE001112469
:101ED000C22BD32BCE019C6837C08370992721E099
:101EE00030E002C0220F331F8A95E2F79C2F9695AF
:101EF000969540E2949FE0011124C22BD32BCE0192
:101F00009A6822C0D82FCC27CE01846F906A1CC05B
:101F1000DC2FCC27CE01806F906A16C08C2F8F707B
:101F20000E94591094E0D695C7959A95E1F7CF7025
:101F3000D0E0DC2FCC27D0699E01282BC90104C03A
:101F400080E090E001C0CE01DF91CF910895733021
:101F5000A0F46E3090F49AE2899FF00111248EE093
:101F6000789FE00DF11D1124E60FF11DEE0FFF1F0C
:101F7000E852FF4F85919491089580E090E0089594
:101F80000E94A70F0E94950E08958238910569F16D
:101F9000B0F48133910509F46DC048F4893291059C
:101FA00009F463C08A32910509F469C00895853344
:101FB000910509F455C089339105B9F00895833E20
:101FC000910569F138F4803E9105B1F0823E9105AA
:101FD00009F10895863E9105A9F1873E9105B9F171
:101FE000843E910509F064C023C02091800220FD49
:101FF0004FC021FD4DC008958091800280FD44C0F6
:102000008091810280FF44C08091800284FD42C0A3
:1020100083EE4DC08091800282FF38C0F5CF809161
:10202000800282FD33C08091810280FD31C0ECCFFF
:102030008091810281FF32C08091800284FD2AC09C
:1020400087EE35C08091800283FF26C0F5CF809156
:10205000800283FD21C08091810281FD1FC0ECCFF1
:102060008091800285FD1CC01DC08091800285FD8D
:1020700019C016C08091800286FD16C017C08091DD
:10208000800286FD13C010C089E311C082EE0FC02C
:1020900080EE0DC080E00BC086EE09C084EE07C064
:1020A00089E205C085E303C08AE201C081E390E0D4
:1020B00008959091800292FF0DC0282F287128303A
:1020C00019F4877F846006C0282F2471243011F40E
:1020D0008B7F886093FF0DC0282F2871283119F459
:1020E000877E846106C0282F2471243111F48B7EF1
:1020F00088612091810220FF0DC0382F387138305F
:1021000019F4877F816006C0382F3171313011F4A6
:102110008E7F886021FF0DC0282F2871283119F487
:10212000877E816106C0282F2171213111F48E7EB6
:10213000886194FD877E089580E008950E940E0DC9
:1021400008950E94B8118FE39CE90197F1F700C050
:1021500000000E94B81180E00E94DD1080FF04C0E2
:102160000E949E100E94381908950E94A11008959F
:102170000E94150D811102C00E94C50D0E94200D04
:1021800080933E020E942A0D9093810280938002E8
:102190000E94B5100E94250D682F70E080E090E04D
:1021A0000E943D076091AC017091AD018091AE013C
:1021B0009091AF010E9479070895E82FF0E0EE0FAB
:1021C000FF1FE857FD4F808191810895089580EAAF
:1021D0008A95F1F7089500C008950E94E7100895C8
:1021E00008950E94F01008950E94F11008950E9431
:1021F000F01008950E94F7100895F894E82FE295E2
:10220000EF70F0E031A1282F2F7081E090E001C045
:10221000880F2A95EAF7982F9095932391A392A17E
:10222000892B82A378940895CF93DF93C9E7D1E0F7
:1022300089918F3F11F00E94FD1081E0C738D807C7
:10224000B9F781E90E94FD1087E90E94FD1083E93A
:102250000E94FD10DF91CF910895AF92BF92DF925F
:10226000EF92FF920F931F93CF93DF93C62FD0E08F
:10227000C758DE4F28812F3F09F45AC08A01F62E35
:10228000E92ED82EF894E22FE295EF70F0E091A1BC
:10229000822F8F7021E030E001C0220F8A95EAF78B
:1022A000892F822B81A382A12095282322A37894B1
:1022B0000E94EB1087E8A82E81E0B82EED2DFE2DB0
:1022C0009F012A5F3F4FE12CA80140955095D50111
:1022D0006D915D016F3FC9F0862F82958F7090E000
:1022E000DC0190968C9190E06F7002C09595879577
:1022F0006A95E2F780FD09C080819181802B912B46
:1023000091838083EE24E39406C0808191818423AD
:102310009523918380833296E217F307C1F6888173
:102320008F3F11F00E94FD106E2D8F2D0E94ED1039
:10233000DF91CF911F910F91FF90EF90DF90BF90B1
:10234000AF9008950E94141186E0E8E8F2E0DF0102
:10235000982F1D929A95E9F7E2E8F2E0DF011D92CD
:102360008A95E9F783E00E940A120E943C020895D0
:10237000CF92DF92FF920F931F93CF93DF9300D002
:1023800000D000D0CDB7DEB78E010F5F1F4F86E0C3
:10239000F80111928A95E9F7F12CCC24C394D12C41
:1023A000A6016F2DC8010E942D11F394CC0CDD1CE9
:1023B000FEE0FF12F5CF46E050E0B80182E892E07F
:1023C0000E949520FF24F394009709F4F12C892BA7
:1023D00041F086E0F801A2E8B2E001900D928A9502
:1023E000E1F72F2D43E068E872E082E892E00E9476
:1023F0000B120E943F028F2D26960FB6F894DEBF77
:102400000FBECDBFDF91CF911F910F91FF90DF9055
:10241000CF9008950895FF920F931F93CF93DF936A
:10242000F82E092F162FD72FC42F222349F081E031
:10243000809341020E94EB189093400280933F02E8
:10244000809141028823D9F080913F02909140020F
:102450000E940319059798F0EF2DF02FA12FBD2FA3
:1024600080E090E04C2F50E08417950734F42191E0
:1024700031912D933D930196F7CF10924102CDB744
:10248000DEB7E5E00C9473200E94031B0E940C0E43
:102490000E94101B08950E94151B0E948E0E0E9420
:1024A0002F1B08950E9482180E94E91A0E94F90DBC
:1024B0000E9444120E944B120E94020EFBCF809198
:1024C000480280FF06C06091070170E0660F771F29
:1024D00026C081FF04C06091070184E005C082FF2F
:1024E00007C06091070188E0689FB001112417C000
:1024F000909147029923D1F060910601961788F7D1
:102500002091070188E0289F90011124929FA0014B
:10251000939F500D112470E0CA010E943020603852
:10252000710540F46115710519F406C068E070E0AA
:10253000862F08958FE7089581E0089580914802DD
:1025400080FF08C06091030170E0759567957595EF
:10255000679521C081FF06C06091030170E0759509
:10256000679519C082FF04C06091030170E010C03C
:1025700090914602992399F0609102019617A0F775
:1025800080910301899FC001112470E00E943020D6
:102590006038710540F46115710519F406C061E0F9
:1025A00070E0862F08958FE7089581E008958D3EAD
:1025B00021F40E945F12819504C08E3E29F40E948E
:1025C0005F1280934C0208958F3E21F40E945F12A7
:1025D000819504C0803F29F40E945F1280934B02D2
:1025E0000895893F19F40E949E1205C08A3F31F474
:1025F0000E949E12819580934D0208958B3F21F495
:102600000E949E12819504C08C3F29F40E949E1264
:1026100080934E0208959FE0980F983078F421E05F
:1026200030E0A90102C0440F551F9A95E2F7CA0194
:1026300090914A02892B80934A0208958D3F21F49C
:102640008091480281600BC08E3F21F48091480246
:10265000826005C08F3F29F4809148028460809396
:10266000480208958D3E39F490914C0297FF35C091
:1026700010924C0259C08E3E29F490914C021916CA
:10268000BCF32BC090914B028F3E29F497FF25C0DD
:1026900010924B0249C0803F19F41916CCF31DC0AB
:1026A00090914D02893F29F41916BCF410924D0205
:1026B0003BC08A3F19F497FF10C0F8CF8B3F39F425
:1026C00090914E0297FF09C010924E022DC08C3F90
:1026D00021F490914E021916BCF39FE0980F9830A8
:1026E00080F421E030E0A90102C0440F551F9A9503
:1026F000E2F7CA01809590914A02892380934A02A9
:1027000013C08D3F21F4809148028E7F0BC08E3F15
:1027100021F4809148028D7F05C08F3F29F480917C
:1027200048028B7F8093480280914B02811106C042
:1027300080914C02811102C01092470280914D029B
:10274000811106C080914E02811102C01092460292
:1027500008950E94EB1820914B02211104C0209192
:102760004C02222321F09093450280934402209151
:102770004D02211104C020914E02222321F090939A
:1027800043028093420289E492E00E943517089543
:10279000A6E0B0E0EEECF3E10C94592086E0E9E429
:1027A000F2E0DE01119601900D928A95E1F7109208
:1027B0004B0210924C0210924D0210924E028B81ED
:1027C000811104C08C81882309F45FC08091440288
:1027D000909145020E940319AC0190914702992300
:1027E00039F02091080130E02417350758F04DC02A
:1027F000209109018AE0289F9001112424173507B0
:1028000018F043C09F3F19F09F5F909347021B81D0
:10281000112361F00E945F12111614F09FEF01C0A6
:1028200091E0989F902D112490934B021C811123CD
:1028300061F00E945F12111614F09FEF01C091E049
:10284000989F902D112490934C0230914B0233238A
:10285000E1F020914C022223C1F045EB3403C0018A
:102860001124992319F090934B0203C081E08093C7
:102870004B0235EB2303C0011124992319F09093E7
:102880004C0203C081E080934C028D81811104C011
:102890008E81882309F45FC08091420290914302A7
:1028A0000E940319AC0190914602992339F02091BE
:1028B000040130E02417350758F04DC02091050180
:1028C0008AE0289F900111242417350718F043C08F
:1028D0009F3F19F09F5F909346021D81112361F085
:1028E0000E949E12111614F09FEF01C091E0989F74
:1028F000902D112490934D021E81112361F00E94AE
:102900009E12111614F09FEF01C091E0989F902D38
:10291000112490934E0230914D023323E1F0209127
:102920004E022223C1F045EB3403C0011124992348
:1029300019F090934D0203C081E080934D0235EB76
:102940002303C0011124992319F090934E0203C070
:1029500081E080934E02BE016F5F7F4F89E492E079
:102960000E94331881110E94A91386E0FE0131965E
:10297000A9E4B2E001900D928A95E1F72696E3E092
:102980000C947520E9E4F2E086E0DF011D928A955F
:10299000E9F71092470210924602109248020895F9
:1029A000CF93DF93EC01FB018281882309F43CC1C2
:1029B000C430FDE5DF0760F4CB3F9CE5D90788F420
:1029C0009E0122503C452431310508F02EC109C03A
:1029D000C236EDE5DE0729F0C63AFDE5DF0709F06E
:1029E00024C10E942A0D9093810280938002C131FC
:1029F0008CE5D80709F4C6C008F042C0C930ECE540
:102A0000DE0709F49BC000F5C5308CE5D80709F452
:102A100085C078F4C330ECE5DE0709F478C008F02F
:102A20007AC0C230DC4509F0F5C080918002816037
:102A3000EFC0C7309CE5D90709F478C008F07AC028
:102A4000809180028061E4C0CD30FCE5DF0709F4AD
:102A500087C058F4CB309CE5D90709F479C008F059
:102A60007BC08091800288606FC0CF30FCE5DF07BB
:102A700009F480C008F082C080918002877FC8C0BE
:102A8000CE3F9CE5D90709F471C000F5C531FCE5DE
:102A9000DF0709F485C068F4C3319CE5D90709F460
:102AA00075C008F095C00E94EC06809180028F7777
:102AB000AFC0CC3FFCE5DF07A9F108F054C0CB3F25
:102AC000DC4509F0A7C08091810240C0C230EDE52D
:102AD000DE0709F489C058F4C1158DE5D80709F45B
:102AE0005AC008F069C08091810282602FC0C2364E
:102AF000EDE5DE0709F47CC0C63AFDE5DF0709F421
:102B000081C0C330DD4509F085C080E06EC0809192
:102B1000800282607DC08091800216C08091800218
:102B2000886076C08091810282604FC0809180026F
:102B300080626EC08091800280646AC00E94EC0650
:102B400080918002806864C0846062C081603DC002
:102B5000809180028E7F5CC0809180028D7F58C002
:102B60008091800216C08091810218C080918102FC
:102B70008D7F2BC0809180028F7E4AC08091800221
:102B80008F7D46C0809180028F7B42C08091800201
:102B9000877F8B7F3DC0809181028D7F8E7F15C0A6
:102BA0008091800282FB222720F991E0922790FBFE
:102BB00082F990FB83F92CC080918102982F909527
:102BC00091708E7F892B90FB81F98093810222C0C6
:102BD0000E94EC068091800287FB222720F991E079
:102BE000922790FB87F914C081E00E94C80D12C0A3
:102BF0008091800284FB222720F991E0922790FBAC
:102C000084F906C080918002982F909590FB80F9FE
:102C10008093800280918002909181020E943B0DFE
:102C20000E94EC0680E001C081E0DF91CF91089521
:102C3000CF93DF9386319C4541F5EB010E94240C34
:102C4000982F8A812091000130910101882379F029
:102C50009A7A81E009F480E080934F02911102C0DA
:102C600069E201C065E3C9010E9405180AC08091AC
:102C70004F02811102C069E201C065E3C9010E94EF
:102C800013180E94680C80E001C081E0DF91CF91B1
:102C900008950F931F93CF93DF93C42FD22FFC017E
:102CA00082818823B1F0409352020E94EB189093E6
:102CB00051028093500280E28C0F883008F04DC0A2
:102CC000C77081E001C0880FCA95EAF70E945E04D0
:102CD00044C080915202481330C0809150029091BC
:102CE00051020E9403198A3F910538F510E21D0F29
:102CF000CD17B9F080E28C0F883040F4C77081E0C6
:102D000001C0880FCA95EAF70E946504183010F5D3
:102D100081E09D2F977001C0880F9A95EAF70E9475
:102D20005E04802F0E9454041830B8F4D77081E0FC
:102D300001C0880FDA95EAF70AC080E28C0F88306C
:102D400060F4C77081E001C0880FCA95EAF70E945D
:102D5000650403C0802F0E945404DF91CF911F911E
:102D60000F9108950F939C01CB01243F4CE534074C
:102D700031F188F4293DFCE53F07D9F02A3D4CE5C7
:102D8000340779F1283D3C45A9F506E221EE41EEF4
:102D900068ED7CE52BC0263FFCE53F07E1F0A8F09D
:102DA000273F3C4539F507E225EE46EE67EF7CE527
:102DB0001DC007E225EE45EE69ED7CE517C006E291
:102DC00021EE40EE64EF7CE511C007E225EE44EE13
:102DD00065EF7CE50BC006E221EE42EE66EF7CE596
:102DE00005C008E221E045EE6AED7CE50E94491647
:102DF00080E008C0FC018281882319F01092520201
:102E000001C081E00F91089590938B0180938A0116
:102E1000089590935802809357020895E0915702C5
:102E2000F0915802309729F00190F081E02D09953A
:102E3000089580E00895FC01A0915702B0915802D6
:102E4000109791F080911601882341F080918002C3
:102E500087FF04C08081818386E08083CF01129642
:102E6000ED91FC91139709950895E0915702F09127
:102E70005802309739F022E0DC012C930480F58170
:102E8000E02D09950895209155023091560228179A
:102E9000390771F09093560280935502E0915702E2
:102EA000F0915802309721F00680F781E02D0995C6
:102EB000089520915302309154022817390771F078
:102EC0009093540280935302E0915702F09158027C
:102ED000309721F00084F185E02D09950895FC01DB
:102EE000329680911601882331F08091800287FF0D
:102EF00002C09EE101C096E080E0915028F021914F
:102F00002223D9F38F5FF9CF0895662351F12091E1
:102F100016012223E9F02091800227FF19C0462FD5
:102F20004695469546954E31E0F4677021E030E0D5
:102F300002C0220F331F6A95E2F7FC01E40FF11D76
:102F4000828190E02823392381E0232B69F409C092
:102F5000FC01329608962191621729F0E817F907CB
:102F6000D1F780E0089581E008959C01FC0132963C
:102F70009FEF80E04191461789F09F3F19F441117E
:102F800001C0982F8F5F8630A9F79F3F39F0F90174
:102F9000E90FF11D97FDFA956283089508959C014C
:102FA0002A5F3F4FFC014281461301C01282019605
:102FB00082179307B9F70895262F2695269526950B
:102FC0002E3168F4FC01E20FF11D677021E030E062
:102FD00001C0220F6A95EAF78281282B2283089587
:102FE000262F2695269526952E3170F4FC01E20FAA
:102FF000F11D677021E030E001C0220F6A95EAF709
:10300000209582812823228308952091160122236E
:1030100039F02091800227FF03C00E94DC17089539
:103020000E94B517089520911601222339F02091AE
:10303000800227FF03C00E94F01708950E94CF1757
:10304000089520911601FC013296222331F08091DF
:10305000800287FF02C08EE101C086E0DF011D9281
:103060008A95E9F7089546E050E00E94952021E016
:10307000892B09F420E0822F089508950E943D18BD
:10308000089583E0809359020E943E1808958111AB
:1030900002C081E001C082E0809359020E943E1884
:1030A00008950E944718089581E0809359020E9474
:1030B0003E1808950E945418089508950E945D18BE
:1030C00008950E945E1808950E945D1808950E9458
:1030D0005D1808950E945D180895CF930E946718A7
:1030E0000E94B8110E946418C0E08C2F0E94DD106D
:1030F000892B29F4CF5FC330C1F780E001C081E0A4
:10310000CF91089585B7806885BF85B7806885BFF2
:1031100008951F920F920FB60F9211248F939F93D1
:10312000AF93BF9380915A02811113C080918E0298
:1031300090918F02A0919002B09191024196A11DB1
:10314000B11D80938E0290938F02A0939002B09352
:103150009102BF91AF919F918F910F900FBE0F90F1
:103160001F90189580919602843031F10E94B00230
:1031700010925A0220E488E190E00FB6F894A895E6
:10318000809360000FBE2093600083B7817F8460CE
:1031900083BF83B7816083BF7894889583B78E7F20
:1031A00083BF0FB6F894A8958091600088618093E2
:1031B0006000109260000FBE08950E94EC060E940D
:1031C000B502089582E084BD93E095BD9AEF97BD66
:1031D00080936E0008952FB7F89480918E0290919D
:1031E0008F02A0919002B09191022FBF08952FB746
:1031F000F89460918E0270918F028091900290916C
:1032000091022FBF08959C014FB7F89480918E02D0
:1032100090918F02A0919002B09191024FBF821BBA
:10322000930B089578941F920F920FB60F9211246A
:103230008F939F93AF93BF9380918E0290918F0253
:10324000A0919002B09191020196A11DB11D8093B1
:103250008E0290938F02A0939002B0939102BF913F
:10326000AF919F918F910F900FBE0F901F90189567
:1032700087E797E790930108809300089AE088E138
:103280000FB6F894A895809360000FBE90936000ED
:10329000FFCF9AE088E10FB6F894A895809360007C
:1032A0000FBE90936000FFCF80917E020895089535
:1032B00022E02093E9002FEF3091E800215035FD06
:1032C00006C035ED3A95F1F700002111F5CF2091B8
:1032D000E80025FF0BC040E050E066E070E00E948F
:1032E000A21B8091E8008E778093E8000895CF9329
:1032F000DF9320911601222339F02091800227FFCD
:1033000003C060E222E002C068E021E02093E9000F
:103310002FEF3091E800215035FD06C035ED3A958C
:10332000F1F700002111F5CF2091E80025FF1DC025
:10333000EC0180911601811105C040E050E068E089
:1033400070E003C070E040E050E0CE010E94A21B9C
:103350008091E8008E778093E80080E2FE01AEE580
:10336000B2E001900D928A95E1F7DF91CF91089537
:1033700080935B0270935D0260935C028091960281
:10338000843001F582E08093E9008FEF9091E800AE
:10339000815095FD06C095ED9A95F1F700008111D9
:1033A000F5CF8091E80085FF0DC040E050E063E07C
:1033B00070E08BE592E00E94A21B8091E8008E777E
:1033C0008093E8000895BC0184E00E94B819089534
:1033D000BC0183E00E94B819089580919502811183
:1033E00009C00E942D1D0E948A1D8091E200846008
:1033F0008093E20008951092950208950E945A1851
:1034000008956091920281E0611101C080E00E9404
:10341000411808959091960281E0943009F080E07F
:10342000609192020E944718089542E061EC81E0A9
:103430000E94A61C42E261EC82E00E94A61C9091D0
:10344000960281E0943009F080E0609192020E943F
:103450005118089580919802833009F461C030F4C6
:10346000813071F0823009F49BC008958A3009F4EC
:1034700087C08B3009F46CC0893009F0A9C020C026
:1034800080919702813A09F0A3C08091E800877F7C
:103490008093E80080919B0290919C02892B21F4FB
:1034A00060E28EE592E003C060E080E090E070E0D2
:1034B0000E94E71B8091E8008B778093E8000895D5
:1034C00080919702813209F083C080919B02909194
:1034D0009C02029708F07CC08091E800877F80936F
:1034E000E8008091E80082FD05C08091960281117C
:1034F000F8CF6EC02091F3008091F20090E0922B03
:10350000029731F48091F100813011F0863021F47E
:103510008091F10080937E028091E8008B7754C007
:1035200080919702813A09F053C080919B0290915B
:103530009C02892B09F04CC08091E800877F809322
:10354000E8008091E80080FFFCCF8091160137C031
:10355000809197028132E1F580919B0290919C02CB
:10356000892BB1F58091E800877F8093E8000E9465
:10357000DB1C80919902809316010E94EC0608954D
:1035800080919702813221F58091E800877F8093B6
:10359000E8000E94DB1C80919A0280937F020895CC
:1035A00080919702813AA1F48091E800877F80930F
:1035B000E8008091E80080FFFCCF80917F0280933B
:1035C000F1008091E8008E778093E8000E94DB1C78
:1035D000089584B7877F84BF0FB6F894A89580912B
:1035E0006000886180936000109260000FBE90E0E0
:1035F00080E80FB6F89480936100909361000FBE4D
:103600000E94541808950E942D1D0E948A1DE2EE0A
:10361000F0E080818460808378940E941520089572
:103620008AE091E00E940917089580919602853002
:10363000A9F480919602853079F40E94B2188091A5
:1036400094028823B1F30E946D18882391F30E949D
:103650008C1B0E94EC06EDCF0E94DD1808950895A2
:103660000E94331B0895292F332723303105C9F0D9
:1036700060F42130310581F02230310509F044C079
:103680008BE390E028E532E043C021323105E1F0E0
:103690002232310549F138C082E190E023E932E07D
:1036A00037C099278130910549F028F0029761F5DC
:1036B000E8E2F2E005C0E4E5F2E002C0E0E4F2E0B6
:1036C000849190E09F0124C06115710541F0613043
:1036D0007105D1F489E090E023E832E019C089E077
:1036E00090E02AE632E014C06115710541F06130C6
:1036F000710551F486EB90E025EA32E009C080E4E0
:1037000090E02BE533E004C080E090E020E030E082
:10371000FA0131832083089580E189BD82E189BD6A
:1037200009B400FEFDCF8091D8008F7D8093D80032
:103730008091E00082608093E0008091E00081FD54
:10374000FCCF0895A0E0B0E0E8EAFBE10C9454203F
:10375000EC018B017A010E94FA1C811133C0E11443
:10376000F10439F0F70180819181081B190BC80F12
:10377000D91FC12CD12C0115110519F18091E80038
:1037800085FD16C08091E8008E778093E800E114F3
:10379000F10449F0F70180819181C80ED91ED182D0
:1037A000C08285E00FC00E94FA1C882321F30AC062
:1037B00089918093F10001501109FFEFCF1ADF0AC0
:1037C000DACF80E0CDB7DEB7E8E00C94702020912E
:1037D0009D0230919E022617370748F0611571054A
:1037E00039F42091E8002E772093E80001C0B90158
:1037F000FC0120E06115710579F180919602882322
:10380000F1F18530F1F18091E80083FD3CC08091B9
:10381000E80082FD2EC08091E80080FFEBCF209170
:10382000F3008091F20090E0922B6115710551F048
:103830008830910538F421912093F100615071098D
:103840000196F3CF21E0089709F020E08091E8008D
:103850008E778093E800CECF2111CFCF0AC0809120
:103860009602882361F0853061F08091E80083FD45
:103870000AC08091E80082FFF2CF80E0089582E0E4
:10388000089583E0089581E0089520919D0230918C
:103890009E022617370748F06115710539F420910B
:1038A000E8002E772093E80001C0B901FC0120E078
:1038B0006115710591F180919602882309F440C049
:1038C000853009F43FC08091E80083FD3DC08091C0
:1038D000E80082FD2FC08091E80080FFE9CF2091B1
:1038E000F3008091F20090E0922B6115710559F080
:1038F0008830910540F424912093F1003196615075
:1039000071090196F2CF21E0089709F020E080913B
:10391000E8008E778093E800CBCF2111CCCF0AC08E
:1039200080919602882361F0853061F08091E800F3
:1039300083FD0AC08091E80082FFF2CF80E0089505
:1039400082E0089583E0089581E00895982F9730EC
:1039500068F59093E900981739F07091EC00209188
:10396000ED005091F00003C0242F762F50E021FD90
:1039700002C09F5FECCF3091EB003E7F3093EB00B5
:103980003091ED003D7F3093ED003091EB003160E0
:103990003093EB007093EC002093ED005093F00017
:1039A0002091EE0027FDE5CF80E008958F70809391
:1039B000E90081E008958091970287FF11C080910E
:1039C000E80082FD05C0809196028111F8CF11C0F8
:1039D0008091E8008B770BC080919602882349F094
:1039E0008091E80080FFF8CF8091E8008E77809387
:1039F000E80008952091E4003091E50095E64091BB
:103A0000EC00842F817040FF23C08091E80080FD8E
:103A10001DC080919602882399F0853099F080919D
:103A2000EB0085FD11C04091E4005091E5002417A2
:103A3000350729F3915011F09A01E1CF84E0089500
:103A400082E0089583E0089581E0089580E008957C
:103A50004091E80042FFDDCF08950E949C1D0E9426
:103A6000A41DE0EEF0E0808181608083E8EDF0E06D
:103A700080818F77808319BCA7EDB0E08C918E7F19
:103A80008C9380818F7E80831092950208950F938E
:103A90001F93CF93DF930E949C1D0E94A41DC8ED2D
:103AA000D0E088818F778883888180688883888147
:103AB0008F7D888319BC1092960210929202109208
:103AC00094021092930200EE10E0F80180818B7F47
:103AD000808388818160888342E060E080E00E948A
:103AE000A61CE1EEF0E080818E7F8083E2EEF0E0C4
:103AF000808181608083808188608083F8018081FB
:103B00008E7F8083888180618883DF91CF911F9130
:103B10000F910895E8EDF0E080818F7E8083E7EDDE
:103B2000F0E080818160808384E082BF81E08093C7
:103B300095020E94471D0895E8EDF0E080818E7F98
:103B400080831092E20008951092DA001092E10052
:103B500008951F920F920FB60F9211242F933F9347
:103B60004F935F936F937F938F939F93AF93BF9385
:103B7000EF93FF938091E10082FF0BC08091E20000
:103B800082FF07C08091E1008B7F8093E1000E945B
:103B900014208091DA0080FF1FC08091D80080FF40
:103BA0001BC08091DA008E7F8093DA008091D9006B
:103BB00080FF0DC080E189BD82E189BD09B400FEAE
:103BC000FDCF81E0809396020E94ED1905C019BCDB
:103BD000109296020E94FB198091E10080FF19C0AB
:103BE0008091E20080FF15C08091E2008E7F80937B
:103BF000E2008091E20080618093E2008091D80031
:103C000080628093D80019BC85E0809396020E9460
:103C1000011A8091E10084FF30C08091E20084FFAE
:103C20002CC080E189BD82E189BD09B400FEFDCFD1
:103C30008091D8008F7D8093D8008091E1008F7EA5
:103C40008093E1008091E2008F7E8093E20080917A
:103C5000E20081608093E20080919202882311F05B
:103C600084E007C08091E30087FD02C081E001C0CD
:103C700083E0809396020E940A1A8091E10083FFFC
:103C800029C08091E20083FF25C08091E100877FF9
:103C90008093E10082E080939602109292028091DC
:103CA000E1008E7F8093E1008091E2008E7F80931F
:103CB000E2008091E20080618093E20042E060E0F7
:103CC00080E00E94A61C8091F00088608093F00044
:103CD0000E94FE19FF91EF91BF91AF919F918F913B
:103CE0007F916F915F914F913F912F910F900FBEF8
:103CF0000F901F9018951F920F920FB60F921124DC
:103D00002F933F934F935F936F937F938F939F93E3
:103D1000AF93BF93CF93DF93EF93FF93C091E900ED
:103D2000CF708091EC00D82FD17080FDD0E8109238
:103D3000E9008091F000877F8093F00078940E94E2
:103D4000BF1E1092E9008091F00088608093F0001F
:103D5000CD2BCF70C093E900FF91EF91DF91CF9110
:103D6000BF91AF919F918F917F916F915F914F9193
:103D70003F912F910F900FBE0F901F901895AAE2C0
:103D8000B0E0E5ECFEE10C945920E7E9F2E0809127
:103D9000F100819322E0EF39F207C9F70E942A1A55
:103DA0008091E80083FF2EC1809197029091980244
:103DB000492F50E04A30510508F024C1FA01EE596C
:103DC000FF4F0C944420803821F0823809F01AC14A
:103DD00008C08091930290919402992389F08260A7
:103DE0000FC080919B028F70873008F00BC18093C9
:103DF000E9008091EB0085FB882780F91092E900AB
:103E00009091E800977F9093E8008093F1001092E2
:103E1000F100D1C0282F2D7F09F0F4C0882319F0BC
:103E2000823061F0EFC080919902813009F0EAC0E0
:103E3000933009F080E0809394022EC08091990223
:103E400081112AC080919B028F702FEF280F26309E
:103E500008F0D8C08093E9002091EB0020FF1CC03F
:103E6000933021F48091EB00806214C09091EB00BC
:103E700090619093EB0021E030E0A90102C0440F73
:103E8000551F8A95E2F74093EA001092EA0080916C
:103E9000EB0088608093EB001092E9008091E800CD
:103EA000877F8093E8000E94DB1CACC08111AAC010
:103EB000109199021F778091E3008078812B809385
:103EC000E3008091E800877F8093E8000E94DB1C7C
:103ED0008091E80080FFFCCF8091E30080688093B0
:103EE000E300111102C082E001C083E080939602DA
:103EF00089C08058823008F085C0809199029091E5
:103F00009A028C3D53E0950779F583E08A838AE233
:103F100089834FB7F894DE01139620E03EE051E22A
:103F2000E32FF0E050935700E49120FF03C0E295A7
:103F3000EF703F5FEF708E2F90E0EA3010F0C79681
:103F400001C0C0968D939D932F5F243149F74FBFD9
:103F50008091E800877F8093E8006AE270E0CE01FC
:103F600001960E94E71B16C060919B0270919C0213
:103F7000AE014F5F5F4F0E94301BBC01892B09F4DB
:103F800041C09091E800977F9093E80089819A81E1
:103F90000E94451C8091E8008B778093E80032C036
:103FA000803881F58091E800877F8093E8008091D8
:103FB00092028093F1008091E8008E7772CF811198
:103FC00021C08091990290919A0299270297D4F486
:103FD0008091E800877F8093E80080919902809328
:103FE00092020E94DB1C80919202811106C0809196
:103FF000E30087FD02C081E001C084E08093960267
:104000000E94151A8091E80083FF0AC08091E800A1
:10401000877F8093E8008091EB0080628093EB00C3
:10402000AA96E3E00C9475200895CF9380919602B0
:104030008823A1F0C091E900CF709091EC00892F06
:10404000817090FD80E8C82B1092E9008091E80013
:1040500083FD0E94BF1ECF70C093E900CF910895E9
:1040600097FB072E16F4009407D077FD09D00E9425
:10407000812007FC05D03EF4909581959F4F0895CF
:10408000709561957F4F0895EE0FFF1F0590F49195
:10409000E02D09942F923F924F925F926F927F9200
:1040A0008F929F92AF92BF92CF92DF92EF92FF9248
:1040B0000F931F93CF93DF93CDB7DEB7CA1BDB0BF4
:1040C0000FB6F894DEBF0FBECDBF09942A88398899
:1040D00048885F846E847D848C849B84AA84B984A0
:1040E000C884DF80EE80FD800C811B81AA81B981AC
:1040F000CE0FD11D0FB6F894DEBF0FBECDBFED01C0
:104100000895AA1BBB1B51E107C0AA1FBB1FA6171E
:10411000B70710F0A61BB70B881F991F5A95A9F770
:1041200080959095BC01CD010895FB01DC0104C090
:104130008D910190801921F441505040C8F7881B9F
:10414000990B0895F999FECF92BD81BDF89A9927F0
:1041500080B50895A8E1B0E042E050E00C94D6208C
:10416000262FF999FECF92BD81BDF89A019700B430
:10417000021639F01FBA20BD0FB6F894FA9AF99AD0
:104180000FBE08950396272F0E94B1200E94B020F1
:10419000252F0E94B120242F0C94B1200196272FA7
:1041A0000E94B1200C94B020DC01CB01FC01F999F4
:1041B000FECF06C0F2BDE1BDF89A319600B40D9273
:0C41C00041505040B8F70895F894FFCF2C
:1041CC000E02280850011E0A1401541977195819A7
:1041DC00E819E319571901E200E900EA00B500B645
:1041EC0000B700CD008301CC008A0192019401211B
:1041FC0002230224022502260227022A02B300B45B
:10420C00006F007000818283E200E900EA00B500D3
:10421C00B600B700CD008301CC008A019201940155
:10422C002102230224022502260227022A02B300BD
:10423C00B4006F0070008182833435C6669490F4AC
:0A424C00F5F636333231F7919793FF
:00000001FF
