:100000000C9469060C9486060C94A1060C94860642
:100010000C9486060C9486060C94372B0C9486065A
:100020000C9486060C9486060C9486060C94860620
:100030000C9486060C9486060C9492140C948606F6
:100040000C9486060C9486060C9486060C94860600
:100050000C9486060C9486060C9486060C948606F0
:100060000C9486060C948606000000000000000038
:100070000000000000000000000000000000000080
:100080000000000000000000000000007E0F00D40F
:10009000FFFFFFC700000078000000000000000024
:1000A0002A2B2800000000000000000000000000D3
:1000B00000000029000000002C1E342021222434DE
:1000C0002627252E362D3738271E1F2021222324B0
:1000D00025263333362E37381F0405060708090A4C
:1000E0000B0C0D0E0F101112131415161718191AE8
:1000F0001B1C1D2F3130232D350405060708090A66
:100100000B0C0D0E0F101112131415161718191AC7
:100110001B1C1D2F3130354C00DA0281FFD9F1DB79
:1001200020A4A62EAF00A0C000A1C800AED580A814
:100130001FD300408D142000B6B6B6B6B6B6B6B61C
:10014000B6B6B6B6B6B6B695B596D5B6B680818211
:10015000838485868788898A8B8C8D8E8F909192F7
:100160009394A0A1A2A3A4A5A6A7A8A9AAABACAD4D
:10017000AEAFB0B1B2B3B4C0C1C2C3C4C5C6C7C8C4
:10018000C9CACBCCCDCECFD0D1D2D3D400FD377A13
:10019000585A000004E6D6B44602002101160000B9
:1001A00000742FE5A3E0046001975D003D8889C6D7
:1001B0005436C3174FE4E2A41EBE23B1C76ABBF88E
:1001C000D6B49690171D2F519136D14970CA6B6ED7
:1001D000D791B88158C26BEE9A34104F4A0DB6567B
:1001E00067A4905D1973BDB7E2901CCD5AAEE9EEDD
:1001F0001C1CBAE0C430F83F1941DFDAA27FA2A884
:100200000E7C50F110031C5B3602C2D188501A9D3F
:10021000AF78ACAC930EAD053663E15B9A8164E3D5
:100220000367E456EFEDE6003916937FAA672FA91E
:100230003DDCF8CDA933F78A4D8D9888475F44C2DD
:10024000827C3238703B276303A427D44478AC4DBA
:10025000B2C9FBCF8248A7D4C7C885119724F80438
:10026000DA512CF56C67D5944A8AE7DB4792F6D5CC
:100270000E2DB2055C6B4C608D6747B5B7F94683B0
:10028000E378B821281FB49F1EE914BBD69E000E48
:10029000C06C151849885FE638AF5E6EA4F1BC6487
:1002A0001CD68AE30A72FF500D35F0B6D2544307CC
:1002B00026D73DF3B359F09372261C4EB5B43EFADF
:1002C0006B89A659E63F565F9DA4BA66B0BD4D71D5
:1002D00085EFEB616F280AE1915A9CCD4888B9D42B
:1002E000CA32B06A52D0A330918B2C60F04FBA2A38
:1002F000752B46DAE11513E748DEB638EE455BFCB0
:10030000F8E1698D4B4D91CB8F1525F415DBE5DBBD
:100310007A79EFDFEF321C659B347C077794A92E46
:1003200067AB35DC4BB1F9CA1148AAE7CAC5A4B717
:10033000E4E8BCB81627E0EED5D35F69DC3ED1ED2A
:10034000804E000000765E38EC16DDF3140001B339
:1003500003E108000033B87B78B1C467FB020000FA
:10036000000004595AAA00A900010001000100017F
:1003700000010001002B0014001A000800150017EE
:10038000001C00015104001600070009000A000BC0
:1003900000E1003800E4001B00060019000500E041
:1003A00000E2000251E6002C002C002C000000347A
:1003B00000A800130012000C0018000000E3002A3F
:1003C0000028000F000E000D0000001D00E50037A2
:1003D0000036001000110029001E001F002000211F
:1003E000002200230001000100350031000100015E
:1003F000000100010001004F0001000100010001A7
:100400000001000100510050004A0001004D0000B1
:100410000001000100270026002500240000000143
:10042000004C003400330030002F00000001005267
:100430000038002E002D00010001003A003B003C76
:10044000003D003E003F00390001000100010001B5
:100450000001000100010001000100010001000194
:100460000001000100010001000100010001000184
:100470000000000100010043004200410040000074
:100480000001000100010001000100010000000165
:100490000001000100010001000100010001000154
:1004A0000001000100010001000100010001000144
:1004B0000001000100010001000100010001000134
:1004C0000001000100010001000100010001000124
:1004D0000001000000010001000100010001000115
:1004E0000000000100010001000100010001000006
:1004F00000010001000100010001000100010001F4
:1005000000A603F2122513000002000200A203F26B
:10051000122513000003000100A703F212251300A7
:1005200000040002008C03F2122513C40905000127
:1005300000A803F21225130000060002008E03F249
:10054000122513000007000200A403F21225130075
:100550000008000100A903F212251300000900029F
:10056000009003F21225139F090A0002009203F281
:100570001225139F090B0002009403F21225139F0A
:10058000090C0002009603F21225139F090D0002C8
:10059000009803F21225139F090E0002009A03F23D
:1005A0001225139F090F0002009C03F21225139FCE
:1005B00009100002009E03F21225139F0911000288
:1005C00000A003F21225139F0912000200AA03F2F1
:1005D000122513000013000200AC03F212251300D1
:1005E0000014000100AE03F21225130000150000F4
:1005F0000000001C09B918000000AF00AE05010999
:1006000002A10185020901A10005091901290815A6
:100610000025019508750181020501093009311590
:1006200081257F95027508810609381581257F95FA
:100630000175088106050C0A38021581257F950190
:1006400075088106C0C005010980A1018503190153
:100650002AB700150126B700950175108100C00565
:100660000C0901A101850419012AA002150126A087
:1006700002950175108100C00660FF0961A10109A2
:1006800062150026FF009520750881020963150098
:1006900026FF00952075089102C005010906A101F9
:1006A000050719E029E71500250195087501810264
:1006B0009501750881030507190029FF150026FF1C
:1006C000009506750881000508190129059505752D
:1006D000019102950175039103C01C037600690026
:1006E00061006C003A00660036003400630032009E
:1006F000620033006300000012034D0065007200C9
:1007000063007500740069006F00000012034D0063
:10071000650063006800570069006C006400000019
:100720000403090409025B00030100A0FA090400A4
:10073000000103010100092101010001224000071D
:1007400005810308000109040100020300000009FB
:10075000210101000122220007058403080001078E
:100760000504030800010904020001030000000958
:100770002101010001227B0007058303080001120B
:1007800001100100000008776D031700010102034A
:10079000010000000000003E5B4F5B3E003E6B4FDF
:1007A0006B3E001C3E7C3E1C00183C7E3C18001C2E
:1007B000577D571C001C5E7F5E1C0000183C180013
:1007C00000FFE7C3E7FF00001824180000FFE7DB85
:1007D000E7FF0030483A060E002629792926004016
:1007E0007F05050700407F05253F005A3CE73C5A3E
:1007F000007F3E1C1C0800081C1C3E7F0014227F4A
:100800002214005F5F005F5F0006097F017F000028
:100810006689956A0060606060600094A2FFA2949F
:100820000008047E04080010207E20100008082A1A
:100830001C0800081C2A0808001E10101010000CCC
:100840001E0C1E0C0030383E383000060E3E0E06E0
:100850000000000000000000005F00000000070032
:10086000070000147F147F1400242A7F2A1200231B
:100870001308646200364956205000000807030040
:1008800000001C224100000041221C00002A1C7FA5
:100890001C2A0008083E080800008070300000088C
:1008A000080808080000006060000020100804022A
:1008B000003E5149453E0000427F400000724949D8
:1008C0004946002141494D33001814127F1000277A
:1008D00045454539003C4A49493100412111090744
:1008E00000364949493600464949291E000000148E
:1008F00000000000403400000000081422410014F1
:1009000014141414000041221408000201590906AD
:10091000003E415D594E007C1211127C007F494916
:100920004936003E41414122007F4141413E007F26
:1009300049494941007F09090901003E414151737C
:10094000007F0808087F0000417F410000204041EF
:100950003F01007F08142241007F40404040007F5B
:10096000021C027F007F0408107F003E4141413E8F
:10097000007F09090906003E4151215E007F0919E7
:1009800029460026494949320003017F0103003FFF
:100990004040403F001F2040201F003F4038403F64
:1009A00000631408146300030478040300615949C8
:1009B0004D4300007F414141000204081020000027
:1009C0004141417F00040201020400404040404098
:1009D000000003070800002054547840007F28449A
:1009E000443800384444442800384444287E0038C1
:1009F000545454180000087E0902001824241C785E
:100A0000007F080404780000447D4000002040403E
:100A10003D00007F102844000000417F4000007C22
:100A200004780478007C080404780038444444388E
:100A3000007C1824241800182424187C007C080446
:100A400004080048545454240004043F4424003C47
:100A50004040207C001C2040201C003C4030403C9A
:100A6000004428102844004C9090907C004464542A
:100A70004C440000083641000000007700000000F0
:100A800041360800000201020402003C2623263CF5
:100A900000000000000080C0E0F0F0300000C06006
:100AA000F0F0F0300080C020F0F0F02000000000F6
:100AB0000080C0E0703018B8F8F00000000000DCE2
:100AC0007E3FBEF0F0E000000000000080C0E0705B
:100AD000101818F8F06000000000C060F0F8F8305E
:100AE00000000080E0F0F8F8300000000080E0F046
:100AF000FCFF3F0F0100000080C0E0F0F87800002C
:100B000000000080C060309040203070E0C00000E5
:100B10004040404040404040404040000000E0FE37
:100B2000FFFEF8C00000000000E0FCFFFEF0000047
:100B300000000000000000013EE080700E01000097
:100B40000000073CE0807807000000000000000083
:100B50000000180C06C3F9FE3FC7711806C3F07CED
:100B60001FC7711806C3F8FE3F0F0180C0F0F8FEE2
:100B7000DF47636030381E0F07814020180603816D
:100B8000F0FC7F1F0780C0E0F8FC3E0F030100006F
:100B9000000003018060100806E3FCFF3F0701C06E
:100BA000308CE3FF7F1F0380C030188CE3F9FF3FD8
:100BB000070180C030180CC3F1FC7F0F0380C0F028
:100BC000FCFE3F0701003EC18080E0FC3F8F4040BB
:100BD000C0F0FC7E4E0000000000000000F8FFFFA7
:100BE0001F071FFFFEF0C0F8FF7F0F077FFFFEFC0F
:100BF00004047880000000C0380C1C6080000000F5
:100C0000F00C04F41C80C0FCE6C3C1C1C3E6FCC008
:100C1000800000383F3F1F07030000383E3F1F0E93
:100C2000030000307F7F3F190C0603010F1F3F7147
:100C300060607030180804020100000000387E7FF8
:100C40003F3B18040301000F1F3120202020101803
:100C5000080402010000001C3F7F7F3118060318C2
:100C60003E3F3F1B0804020100001E3F3F3F1008AB
:100C70000402010000183E3F3F190C060301000F5B
:100C80001F3160606030181C0F0703010100000075
:100C9000183C3C1C00000000000000001F1F1F0744
:100CA00000000000031F1F0F0100000000071F1FAE
:100CB0001EF8000F70300EC138070E70831C601EC6
:100CC00003C03E01003F7FFFFFF9C0C0F9FFFF7F77
:100CD0003F0011241FBECFEFD8E0DEBFCDBF27E01D
:100CE000A2E8B1E001C01D92A538B207E1F711E01A
:100CF000A0E0B1E0E2ECFCE602C005900D92A23863
:100D0000B107D9F70E945E2B0C9445360C94000075
:100D1000A82FB92F80E090E041E050EA609530E0E4
:100D200009C02D9182279795879510F084279527E4
:100D3000305EC8F36F5FA8F30895EADF8D939D934B
:100D40000895CF93CFB7CF93DF93C3954B9BE9F72C
:100D50004B9B10C04B9B0EC04B9B0CC04B9B0AC0C7
:100D60004B9B08C04B9B06C0C0915F07C395C093C7
:100D70005F078EC06F93C0915E07DD27CD59D84FB6
:100D80002F9365E54B9B03C02F916F91E1CF0F939C
:100D90001F934F9320E040E15F9309B10C7003FB78
:100DA00027F93F9350E03BE039C01C7040642F7737
:100DB000012F5F5F1EC0406819B11C702F77525021
:100DC0001FC0406409B12F770C70D1F15F5F00C084
:100DD00023C0406219B12F771C7091F15F5F00C092
:100DE00025C00C701027515012F45D5F00001150A7
:100DF00027952C3F19B1C8F61C7001270150279583
:100E00002C3FC8F64227499309B10C7010274F7345
:100E1000115027952C3FA8F64695469519B11C70A0
:100E200079F00127015027952C3F98F66B5A60F313
:100E3000315009B1B0F600C012E01CBB00271CC045
:100E40003B503195C31BD04012E01CBB0881033CD2
:100E500021F10B3411F120915C071981110F12134C
:100E6000EDCF4A81441F093679F10D3211F0013E70
:100E700029F74F7009F0042F009362073F915F91AB
:100E80004F911F910F912F916F91CCB3C1FD5DCF09
:100E9000DF91CF91CFBFCF91189520916207222388
:100EA00069F310916007112309F049C034300AF446
:100EB00048C03093600720935D0710915E073BE0C8
:100EC000311B30935E073DC0009160070130BCF5D7
:100ED0000AE54F7049F43091220134FD33C000938C
:100EE0002201C9E3D7E032C0433059F0443091F0D9
:100EF0003091440734FD26C000934407C5E4D7E091
:100F000025C03091790734FD1DC000937907CAE7E9
:100F1000D7E01CC03091500734FD14C00093500737
:100F2000C1E5D7E013C0052710E000C000000BB9F1
:100F30001AC0052710E0221F1DC010E021C04AE59D
:100F400002C032ED432FC4E1D0E032E01AB11C60A0
:100F50005B9A0BB11AB95CE020E865E320FF052736
:100F60000BB9279517951C3FF0F66695B8F7B1F7C2
:100F700020FF05270BB9279517951C3FD0F627951D
:100F8000179517FF052700001C3F0BB9B0F62991F4
:100F90003A9519F7037F10916107110FC651D040A0
:100FA0000BB911F010935C0712E01CBB08601AB17A
:100FB000137F402F437F54E05A95F1F70BB91AB9CC
:100FC0004BB95CCFFC018381833089F130F48130EF
:100FD000F1F0823021F180E00895813209F446C0B9
:100FE0008232C9F7248135812130310509F45CC092
:100FF0002115310509F450C02230310561F78DEF1C
:1010000095E090930A05809309058BE708958FE793
:1010100097E090930A058093090582E1089584E2A0
:1010200097E090930A05809309058BE508958281E6
:101030008130B1F0882361F08230A9F0833059F615
:101040008AED96E090930A05809309058CE1089556
:1010500080E297E090930A058093090584E0089563
:101060008CE097E0D6CF88EF96E0D3CF82818130B5
:1010700081F0882331F0823009F0ADCF8FE697E020
:1010800002C086E397E090930A058093090589E002
:1010900008958FE497E0F7CF8AE996E090930A05E8
:1010A0008093090580E4089528E736E030930A0527
:1010B000209309050895089580910405089588E115
:1010C00098E00FB6F894A895809360000FBE9093B7
:1010D0006000A895F894D8E0CEEF28E3299320E0AB
:1010E000299314BEFFCF08952FB7F89460916D0433
:1010F00070916E0480916F04909170042FBF0895D9
:101100009C01FC0132969FEF80E04191461751F01F
:101110009F3F19F4411101C0982F8F5F8630A9F7C6
:101120009F3F09F40895290F311D97FD3A95F90164
:10113000628308952091690430916A042817390761
:1011400071F090936A0480936904E0916704F091D0
:101150006804309721F00084F185E02D099408950A
:1011600020916504309166042817390771F0909337
:10117000660480936504E0916704F09168043097F9
:1011800021F00680F781E02D09940895E09167042D
:10119000F0916804309721F00190F081E02D0994DE
:1011A00080E00895452B39F0682381E06F3F09F016
:1011B00080E08170089581E0FCCFDC0160918803BC
:1011C00080918903962F891301C00895292F30E05B
:1011D000F901EE0FFF1FE058FC4F408151814A1783
:1011E0005B07A1F487E08A9FA0018B9F500D11241B
:1011F000485B5C4F81E0FA0184839613E6CF2F5F52
:101200003F4F237033272093880308952F5F3F4F6C
:10121000922F9370D8CF1092E5021092E402E8E486
:10122000F3E08581811102C014821682379683E033
:10123000E038F807B1F70895AF92BF92CF92DF92EE
:10124000EF92FF920F931F93CF93DF938FEF9FEF58
:101250004430510508F468C04091B70241FB88272B
:1012600080F990E0880F991F42FB002700F910E0F9
:10127000000F111F000F111F802B912B40FBCC245E
:10128000C0F8D12C8C299D2943FB222720F9C22F9D
:10129000E0E0DE2F53E0CC0FDD1F5A95E1F78C2BF9
:1012A0009D2B44FBAA27A0F9B0E0E4E0AA0FBB1FE6
:1012B000EA95E1F78A2B9B2B45FBEE27E0F9F0E05E
:1012C000A5E0EE0FFF1FAA95E1F78E2B9F2B46FBA3
:1012D000222720F930E0B6E0220F331FBA95E1F75C
:1012E000822B932B47FB222720F930E03695322FB3
:1012F000222737952795822B932B2091B802322FE6
:101300003170F32EF92A26952170B22EBB0CA82E2F
:10131000BF28C501BB0CAA0BBB0BFB0180839183CB
:10132000A283B38390E080E0DF91CF911F910F9172
:10133000FF90EF90DF90CF90BF90AF900895ECE8D2
:10134000F3E0848195812AE030E0B9010E94843580
:1013500060931C01868180931B01828580931A0112
:1013600084858093190186859785B9010E9484350B
:1013700060931801808980931701828980931601F8
:10138000848980931501089580918C0390918D0339
:1013900090931E0180931D01089581152CE59207FD
:1013A00041F42091B1023091B202232B11F490E06C
:1013B00080E0089590914B02803F59F480914C0257
:1013C00087FF0DC010924C0291110BC01092430286
:1013D00008C0813F81F480914C0218169CF3992338
:1013E00081F080914D0290914E02892B09F064C0EA
:1013F000109242020895823F49F497FFF0CF109275
:101400004B0280914C028111ECCFE0CF833F19F465
:101410001916ACF3E4CF20914D02893F29F412163E
:10142000F4F610924D02DBCF8A3F19F427FFD7CF95
:10143000F8CF20914E028B3F29F427FFD0CF109296
:101440004E02CDCF8C3F19F41216CCF3C8CF843F97
:1014500031F480914A028E7F80934A02C0CF853F4B
:1014600021F480914A028D7FF7CF863F21F480914D
:101470004A028B7FF1CF873F21F480914A02877F18
:10148000EBCF883F21F480914A028F7EE5CF8D3FDC
:1014900031F4809144028E7F80934402A0CF8E3F2E
:1014A00021F4809144028D7FF7CF8F3F09F097CFD1
:1014B000809144028B7FF0CF08958091440280FF99
:1014C0000CC06091160170E07595679575956795EC
:1014D0006115710549F1862F089581FF06C060915D
:1014E000160170E075956795F3CF6091160182FD46
:1014F0000BC0909142029923A1F060911501809157
:101500001601961738F0682F70E06038710500F307
:101510008FE70895899FC001112470E00E94A435CF
:10152000F4CF61E070E0D7CF81E00895809144026C
:10153000609194037091950380FF16C020911A0169
:10154000269FC001279F900D1124BC0176956795B9
:10155000769567956038710508F043C0611571058F
:1015600009F441C0862F089581FF0BC020911A0114
:10157000269FC001279F900D1124BC017695679589
:10158000E9CF82FF09C080911A019B01829FB001BF
:10159000839F700D1124DECF209143022223D1F2CC
:1015A0009091190180911A01482F50E0291748F0B5
:1015B000CB01849FB001859F700D949F700D112405
:1015C000C9CF289F90011124269FA001279F500D6D
:1015D000369F500D1124692F70E0CA010E94843596
:1015E000B9CF8FE7089581E00895803F31F40E94DC
:1015F000960A819580934C020895813F19F40E94C8
:10160000960AF8CF823F31F40E94960A8195809322
:101610004B020895833F19F40E94960AF8CF893F40
:1016200029F40E945D0A80934D0208958A3F21F4B7
:101630000E945D0A8195F7CF8B3F31F40E945D0ACD
:10164000819580934E0208958C3F19F40E945D0AA3
:10165000F8CF843F31F480914A02816080934A023E
:101660000895853F21F480914A028260F7CF863F3A
:1016700021F480914A028460F1CF873F21F4809168
:101680004A028860EBCF883F21F480914A02806152
:10169000E5CF8D3F31F48091440281608093440214
:1016A00008958E3F21F4809144028260F7CF8F3FEE
:1016B000B9F7809144028460F1CF80E00895F894F6
:1016C000E82FE295EF70F0E031A1282F2F7081E034
:1016D00090E001C0880F2A95EAF7982F9095932300
:1016E00091A392A1892B82A3789408959091B70237
:1016F00092FF06C0282F28712830F9F4877F846074
:1017000093FF06C0282F28712831F1F4877E846169
:101710002091B80220FF06C0382F38713830D9F434
:10172000877F816021FF06C0282F28712831D1F4DE
:10173000877E816194FD877E0895282F247124304F
:10174000F9F68B7F8860DCCF282F2471243101F7D4
:101750008B7E8861DDCF382F3171313019F78E7F64
:101760008860E0CF282F2171213121F78E7E88619A
:10177000E1CFCF93DF93EC0182389105A9F1D8F541
:101780008133910509F496C048F58932910509F431
:101790008AC08A9709F495C0C11521E5D20708F0DF
:1017A000BCC0C11530E5D30708F014C1C83ED1054F
:1017B00008F09CC0C03ED10560F5C83AD10508F0DC
:1017C00087C0C53AD10508F0FDC0C130D10509F187
:1017D0002097F9F0C430D105E0F440C0853391057D
:1017E00009F45AC0C997C1F68091B702837089F095
:1017F000C0EED0E00EC0833E910599F170F4803EBA
:10180000910501F1823E910539F68091B70282FD82
:1018100021C0CE01DF91CF910895863E910561F1FF
:10182000873E910571F1843E910509F0B5CF809115
:10183000B80281FFEECF8091B702C7EED0E084FD01
:101840000DC0E7CF8091B70280FD12C19091B80220
:1018500090FFDFCFC3EED0E084FFDBCFD0E0C0E06D
:10186000D8CF8091B70282FD06C19091B80290FD59
:10187000BFCF84FFCECFF2CF8091B70283FDDDCF03
:10188000C8CF8091B70283FDF9C09091B80291FF53
:10189000F0CFC4EED0E0BDCF8091B70285FFB9CFC5
:1018A000C9E2D0E0B6CF8091B70285FFB2CFC5E3E1
:1018B000D0E0AFCF8091B70286FFABCFCAE2D0E0D5
:1018C000A8CF8091B70286FFA4CFC1E3D0E0A1CF1B
:1018D000CF3BD10518F6C85AD0E0CC0FDD1FC25D52
:1018E000DE4F0990D881C02DD46493CFC11540E25A
:1018F000D40758F4C11581E0D80708F08ACFC03F5B
:10190000D10508F4ABCFD06584CFC11590E4D907D9
:1019100008F4A4CFDF70D06A7CCFC11525E5D207CB
:1019200000F5C11534E5D30708F08AC0C11543E5B9
:10193000D40708F071C0C11582E5D80708F467C064
:10194000CE018370992721E030E002C0220F331FBF
:101950008A95E2F7C695C69580E2C89FE0011124FA
:1019600052C0C11599E5D907A8F4C11528E5D207D9
:1019700008F06BC0C11536E5D30708F06FCF8C2F88
:101980000E94760BC82FD0E0DC2FCC27CC27DF714C
:10199000D0623FCFC1154AE5D40708F45BC0CE0141
:1019A00090568115904208F059CF8D2F8F710E946B
:1019B000760B90E0982F882788279F719C012C2B0D
:1019C000E901E6CFC55AD0E0C55DDE4FC881D0E061
:1019D000D0641FCFCE01E4E096958795EA95E1F7B4
:1019E00083702C2F26952695237040E2249F90012A
:1019F0001124382B8C2F8370C1E0D0E002C0CC0FB3
:101A0000DD1F8A95E2F7C22BD32BDC6802CFDC2FD7
:101A1000CC27C16FD06AFDCECE018370992721E01B
:101A200030E002C0220F331F8A95E2F7C695C695B3
:101A300090E2C99FE0011124C22BD32BDA68E9CED2
:101A4000DC2FCC27C46FD06AE4CEDC2FCC27C06F4C
:101A5000D06ADFCE8C2F8F700E94760B34E0D69543
:101A6000C7953A95E1F7CF709C2FEC01D069D1CEA4
:101A7000C9E3D0E0CECEC2EED0E0CBCEC6EED0E011
:101A8000C8CE8091F401882331F01092F4011092B5
:101A9000F3011092F2010895809590912D059823FD
:101AA00090932D05089580959091BF02982390936F
:101AB000BF0208959091BF02892B8093BF020895C1
:101AC0001092F1011092F0011092EF0108958091AF
:101AD000EE0181111092EE0108952091ED01909197
:101AE000AC01291302C080E0089530E0F90153E011
:101AF000EE0FFF1F5A95E1F7E355FE4F5181561344
:101B000006C05081581303C05281541304C02F5F84
:101B10003F4F2770E6CF81E008958091ED019091CD
:101B2000AC01981301C008958F5F8770FACF9E3F74
:101B300049F1E82F27E0929FE00D11249E2F977026
:101B4000E695E695E69583E0E89FF0011124E157DC
:101B5000FE4F50E040E080E0219130E0092E02C0CD
:101B6000369527950A94E2F721703327042E01C099
:101B7000220F0A94EAF7822B4F5F5F4F43305105E3
:101B800059F7089580E008959E3F69F1E82F27E016
:101B9000929FE00D11248E2F877041E001C0440F09
:101BA0008A95EAF7E695E695E69583E0E89FF001E9
:101BB0001124E157FE4F30E020E070E05191DF0149
:101BC0001197CB01022E02C0969587950A94E2F7F1
:101BD000817081958527842385278C932F5F3F4FC4
:101BE0002330310559F7089592959F70963091F002
:101BF00058F4925F9F70923058F4803F19F030F49F
:101C0000883E30F481E008959A5FF4CF843FD1F3A9
:101C100080E00895883EB0F3813FD1F7F3CF9C0177
:101C20003A9521153F4150F5FC01EE27F170BC01BA
:101C300066277270AC01442754709C0122273870CB
:101C400094FF0EC080E1EF2B09F480E0672B09F0D0
:101C50008062452B09F08064232B89F08068089509
:101C600081E0EF2B09F480E0672B09F08260452BBF
:101C700009F08460232B19F08860089580E00895AE
:101C8000CF93DF93C0913707D09138078A30C1F4E2
:101C900020912E05CE0181539540622F70E00E9465
:101CA0008435281B822F66E00E949835C82FC150CA
:101CB00018F4DF91CF91089580E20E94400EF7CF93
:101CC0008D30E9F4C153D54020912E05622F70E08C
:101CD000CE010E948435281B822F9E01280F311DC2
:101CE0002115324018F080E0D0E0C0E0C80FD11DCF
:101CF000CF5CDA4FD0933807C0933707DACF96E03E
:101D0000FE01A1E3B7E001900D929A95E1F7803EC4
:101D100008F458C086E0FE0111928A95E9F7C09157
:101D20003707D091380746E050E0BE0181E397E0E5
:101D30000E94CE359E0121533540892B41F1C901C6
:101D400045E0969587954A95E1F741E050E0BA0164
:101D500002C0660F771F8A95E2F7CB0160912F05CD
:101D600070913005862B972BB9016B5F7F4FE5E0B3
:101D700076956795EA95E1F702C0440F551F6A957D
:101D8000E2F7842B952B9093300580932F052A5FE3
:101D90003F4F40912E05642F70E0C9010E948435A9
:101DA000481B463010F4240F311D211572E037070F
:101DB00010F030E020E02F5C3A4F3093380720934A
:101DC000370777CFF6E08F9FB00111246F56784F19
:101DD00046E050E0CE010E94C535A1CFCF92DF9200
:101DE000EF92FF920F931F93CF93DF936C017B01D0
:101DF00064E670E088E70E948334EC0197FD12C02E
:101E000010E000E0F601E00FF11F849164E670E05D
:101E10000E94FD34EC01892B29F40F5F1F4F0E1532
:101E20001F0581F70E948035CE01DF91CF911F9170
:101E30000F91FF90EF90DF90CF9008958091BD02B9
:101E40009091BE02911103C091E0892708958823E3
:101E500069F062E070E08BEF95E00E94EE0E892B56
:101E600019F08091BD0208951092BD028091BD02CB
:101E7000EBCF80916C04882331F10E941E0F1092E9
:101E80006B0488E190E020E40FB6F894A895809365
:101E900060000FBE2093600083B7817F846083BFA2
:101EA00083B7816083BF7894889583B78E7F83BF23
:101EB0000FB6F894A89580916000886180936000C7
:101EC000109260000FBE0895CF93C091BD02809123
:101ED000BE028823D1F00E947408605A75418F4F6A
:101EE0009F4F6093B9027093BA028093BB029093A4
:101EF000BC02C11108C062E070E089EF95E00E9469
:101F0000EE0E892B29F0C091BD028C2FCF91089540
:101F100081E08093BD02F7CF019708F40895EFE9BF
:101F2000FFE03197F1F700C00000F6CFCF93DF93C9
:101F300080916007835087FD14C090915E07CCE0CC
:101F4000D0E0C91BD109CD59D84F90915D07903190
:101F500008F06BC0883009F453C01092F904109255
:101F600060078091220184FF3EC0809121018F3F54
:101F7000D1F1C82F893008F0C8E0982F9C1B9093AE
:101F800021019091390728E89227909339078823F7
:101F9000E9F08091090590910A052091080526FF36
:101FA00006C1FC012C2FAAE3B7E034913D93319692
:101FB0002150D9F79C012F5F3F4F8FEF8C0F820F7D
:101FC000932F911D90930A05809309056C2F8AE346
:101FD00097E00E949D06CC5FCC3019F08FEF809384
:101FE0002101C093220184E199B19C7031F48150A8
:101FF000D9F71092610710925C07DF91CF91089595
:102000008091F904893108F0A8CFE82FF0E0E55F6E
:10201000FA4F9E01285F3F4F99919193C217D307C2
:10202000D9F7885F8093F9049ACF9D3209F0A3C055
:10203000883009F094CF83EC809339078AE5809348
:102040002201109208058881807609F447C0803209
:1020500029F58981813099F48C819D81892BF1F456
:102060008BEF94E090930A058093090588E09F81A7
:10207000911131C09E81981770F5892F2CC0823044
:1020800041F48AEF94E090930A058093090581E07A
:10209000EECF8A3029F48B818093FA0480E0E7CF79
:1020A0008930E1F78A819B818115924069F48C81A6
:1020B0009D81892B49F481E0809307058E819F8162
:1020C0009093060580930505888187FF52C08E8115
:1020D00090E8909308058093210141CF2A811092C6
:1020E0004207998191110AC01092430722E437E018
:1020F00082E030930A0520930905B9CF953029F481
:102100002093610722E437E0F4CF9630C1F49B813D
:10211000913049F4CE010E94E20790E490930805C3
:102120008F3F91F2A4CF9230A9F3933099F391327B
:1021300089F3923279F390E49093080598CF983020
:1021400089F0993019F420930305DCCF9A3071F0AF
:102150009B30C1F69BE49093450790937A07909348
:102160005107D0CF23E035E081E0C3CF22E437E050
:10217000FBCF8FEFADCF8091080587FFF0CE809128
:10218000050590910605892B71F080910705813036
:1021900051F488818093040510920605109205057C
:1021A00010922101DCCE8EE180932201D8CEDC0199
:1021B0002C2FEAE3F7E03D9131932150E1F7FACE7D
:1021C0001F93CF93DF93E82F792F162FEA01888191
:1021D00084FF1CC0298188E828272983CE01029624
:1021E000DC012E2F372F512F5E0FF90121912D93F6
:1021F0009F01452F4E1B1416C4F3612F0E949D06AC
:102200001C5F1883DF91CF911F9108958AE5888321
:10221000E5CFCF93DF93CBE0D5E08091500784FFEB
:1022200018C040E557E068E0CE010E94E010289613
:1022300085E0CB32D80789F78091500784FF0CC026
:1022400040E557E060E090E080E0DF91CF910C94B2
:10225000E0100E94960FE1CF0E94960FEDCF2091E3
:10226000790724FF05C049E757E066E00C94E010C9
:1022700008959091F804981307C02091F6043091C6
:10228000F70426173707B9F08093F8047093F70422
:102290006093F6048093F3047093F5046093F40460
:1022A0008091790784FF07C049E757E063E083EF37
:1022B00094E00C94E0100895BC0184E00C94391172
:1022C000BC0183E00C943911CF93DF93CAE0D0E0D6
:1022D0008091440784FF1CC08091F1049091F20426
:1022E000981799F028E0829FC001112444E457E038
:1022F00068E08F589B4F0E94E0108091F10490E0BD
:1023000001968F7099278093F104DF91CF91089502
:102310000E94960F8FE99FE00197F1F700C000003F
:102320002197B1F6F2CFCF93DF93EC01A091F204A5
:10233000B0E0CD0101968F7099272091F104281704
:1023400079F093E0AA0FBB1F9A95E1F7AF58BB4F06
:1023500098E0FE0101900D929A95E1F78093F204C6
:102360000E94960F0E94641188E0FE01ABEFB4E07A
:1023700001900D928A95E1F7DF91CF9108950F9327
:102380001F93CF93DF930CE813E0CFEBD1E0CE01A6
:102390000E94FB35F80181938F012196C33EF1E045
:1023A000DF07A9F7C7E0D5E0FE018591949100977A
:1023B00011F0FC0109952C96F6E0C330DF07A1F778
:1023C000DF91CF911F910F9108950F931F93CF939A
:1023D000DF93843000F561111EC024E0829F8001EC
:1023E000112450E0440F551F040F151F01551E4FB7
:1023F000C8010E94FB35C82FD0E0DC2FCC27C801D4
:1024000001960E94FB359E01282BC901DF91CF91D7
:102410001F910F91089590E080E0F8CF0F931F93E4
:10242000CF93DF93843030F5673020F5473010F5D7
:10243000C42FD0E0CC0FDD1F2EE0629FC00DD11D58
:10244000112432E6839FC00DD11D1124CE01879641
:102450000E94FB35082F10E0102F0027CE01889630
:102460000E94FB359801282BC901DF91CF911F9164
:102470000F91089590E080E0F8CF462F2091B502AB
:102480003091B602232B91F47E3F39F46E3F71F404
:102490008091B3029091B4020895843038F477307B
:1024A00028F4673018F4672F0C940E1290E080E047
:1024B0000895CF92DF92FF920F931F93CF93DF93F4
:1024C0006C0100912C0580912B05082BC7E0D0E012
:1024D00010E0FC2EC8010C2E02C0959587950A9439
:1024E000E2F780FD0CC02197A0F7F12C8F2DDF9132
:1024F000CF911F910F91FF90DF90CF900895B6017B
:102500008C2F0E943D120E94B90B019761F3EECF10
:10251000CF93DF93EC010E945912BE010E943D123D
:10252000DF91CF910C94B90BFC01868197810097C4
:1025300021F00E94B90B0C94F40D808191810E94CE
:102540008812F9CF1F93CF93DF9300D000D00F9262
:10255000CDB7DEB749835A8389819A816623B9F062
:102560002223A9F00E945912182F682F89819A817D
:102570000E94C40D69817A81812F0F900F900F9076
:102580000F900F90DF91CF911F910C943D120E94FC
:10259000970D182FEFCFFC01262F8681978100978A
:1025A00039F4408151816281738184810C94A2123B
:1025B000089583E290E00E94FB358E3E89F484E228
:1025C00090E00E94FB35803859F485E290E00E944B
:1025D000FB3591E0853809F090E0892F81700895EE
:1025E00080E0FCCFDB01FC0132962591349142174B
:1025F000530758F0FC01349665917491A901CD01FF
:102600000E94DB3590E080E008958FEF9FEF089502
:102610000F931F93CF93DF930CE813E0CFEBD1E040
:10262000CE010E94FB35F80161918F01681719F006
:10263000CE010E9409362196C33EF1E0DF0781F703
:10264000DF91CF911F910F910895DA019C012E5FC8
:102650003F4FF90145915491F90125913491A21709
:10266000B30758F0FC013496859194910E94DB35B4
:102670000E94081390E080E008958FEF9FEF089587
:10268000CF93DF93C3E8D2E060E0CE010E94093629
:102690002196C11584E0D807B9F7DF91CF9108954D
:1026A0001F93CF93DF93122F8430D8F4611119C098
:1026B0004230B8F494E0899FE001112450E0440FC7
:1026C000551FC40FD51FC155DE4F632FCE010E9489
:1026D0000936612FCE010196DF91CF911F910C94A5
:1026E0000936DF91CF911F9108950F931F93CF93D8
:1026F000DF938901843048F5673038F5473028F595
:1027000021153C4531F42091B1023091B202232BC6
:10271000E1F0C42FD0E0CC0FDD1F9EE0699FC00D1B
:10272000D11D112492E6899FC00DD11D1124612F66
:10273000CE0187960E940936602FCE018896DF91E0
:10274000CF911F910F910C940936DF91CF911F917A
:102750000F910895CF93C82F6FEF81116EEE83E232
:1027600090E00E9409366FEFC11160E884E290E0CA
:102770000E9409366FEFC11165E885E290E0CF91C4
:102780000C940936CF93C92F682F84E090E00E9403
:1027900009366C2F82E290E0CF910C9409369B01B0
:1027A000883070F49AE0899FB00111246D517E4FFA
:1027B0004AE050E0C9010E94EB3590E080E00895C6
:1027C0008FEF9FEF08958F929F92AF92BF92CF921B
:1027D000DF92EF92FF920F931F93CF93DF93CDB7CA
:1027E000DEB72A970FB6F894DEBF0FBECDBF05EB5C
:1027F00013E0F12CE12C84E8C82E8FE1D82E9EEA5C
:10280000A92E9FE1B92E2CE9822E2EE1922EF801FD
:10281000D182C082B382A28295828482F58AE48AC0
:10282000BE016F5F7F4F8E2D0E94CF13892B29F43D
:1028300089859A85F801938B828BFFEFEF1AFF0A47
:102840000A5E1F4F88E0E816F10409F72A960FB6D2
:10285000F894DEBF0FBECDBFDF91CF911F910F91D6
:10286000FF90EF90DF90CF90BF90AF909F908F90B0
:102870000895CF92DF92EF92FF920F931F93CF9321
:10288000DF93CDB7DEB72A970FB6F894DEBF0FBE41
:10289000CDBFE1E6F2E080E5DF011D928A95E9F720
:1028A000E8E4F3E088E3DF011D928A95E9F781E629
:1028B000C82E82E0D82E7F0103E312E0F701D18217
:1028C000C0824AE050E0B801CE0101960E94EB358B
:1028D00088E0FE013196D60101900D928A95E1F7CC
:1028E00089859A85D70113969C938E931297BAE0A7
:1028F000CB0ED11CE7E0EE0EF11C065F1F4F033834
:10290000F2E01F07D9F62A960FB6F894DEBF0FBE85
:10291000CDBFDF91CF911F910F91FF90EF90DF908E
:10292000CF90089578941F921FB61F9211248F9311
:102930009F93AF93BF9380916D0490916E04A0918B
:102940006F04B09170040196A11DB11D80936D04B8
:1029500090936E04A0936F04B0937004BF91AF91F5
:102960009F918F911F901FBE1F9018959C014FB78C
:10297000F89480916D0490916E04A0916F04B091D1
:1029800070044FBF821B930B08952FB7F89480916A
:102990006D0490916E04A0916F04B09170042FBFEC
:1029A00008950E94C5149C0190914B0280914C02A5
:1029B000982B21F0309348022093470290914D02CA
:1029C00080914E02982B21F03093460220934502CD
:1029D000E0916704F0916804309749F082E08093B9
:1029E00049020480F581E02D89E492E0099408957C
:1029F0009F92AF92BF92CF92DF92EF92FF920F938E
:102A00001F93CF93DF9300D000D000D00F92CDB7AB
:102A1000DEB78E010F5F1F4F87E0F80111928A9594
:102A2000E9F78CE5C82E81E0D82EF12CE12CAA2400
:102A3000A394B12CF60181916F018F3F09F443C03B
:102A4000F894E82FE295EF70F0E021A18F70A501D6
:102A500002C0440F551F8A95E2F7CA01922F982BA6
:102A600091A392A18095892382A3789400C0E3E684
:102A7000F1E0912C31E021912F3F09F472C0A22F97
:102A8000A295AF70B0E090968C9190E02F7002C04C
:102A9000959587952A95E2F780FD63C0832F982A44
:102AA000330F51E0EA36F50731F7F60131978081AF
:102AB0008F3F11F00E945F0B80EA8A95F1F7F801D1
:102AC000EE0DFF1D9082EFEFEE1AFE0AF7E0EF1613
:102AD000F10409F0AFCF47E050E0B80188EF91E092
:102AE0000E94CE35FF24F394009709F4F12C892B32
:102AF000D1F187E0F801A8EFB1E001900D928A953D
:102B0000E1F781E08093F7010E94C5149093F601EC
:102B10008093F5018091F5019091F6010E94B61421
:102B2000059728F18091F801809339028091F9018D
:102B300080933A028091FA0180933B028091FB01DD
:102B400080933C028091FC0180933D028091FD01C5
:102B500080933E028091FE0180933F021092F70124
:102B600006C080E09CCF8091F7018111D3CF8F2DDB
:102B700027960FB6F894DEBF0FBECDBFDF91CF9181
:102B80001F910F91FF90EF90DF90CF90BF90AF908B
:102B90009F900895CF93C82F8091B80282FD0CC0FA
:102BA0008091F4018C1741F00E94C5149093F301B9
:102BB0008093F201C093F401CF91089580918E0328
:102BC00090918F03892B89F00E94C5142091F20106
:102BD0003091F301AC01421B530B81E020918E0335
:102BE00030918F034217530708F480E081700895F5
:102BF0008091BF0290912D05892B80938401809153
:102C0000F401882309F180918E0390918F03892B21
:102C100029F00E94DE1581110E94410D80918401EE
:102C20009091F401892B8093840120E086E891E063
:102C3000FC013191CF0131112F5FF1E08C389F07FA
:102C4000B9F721110E94410DE0916704F0916804E9
:102C5000309731F00280F381E02D84E891E009940F
:102C60000895EF92FF920F931F93CF93DF93EC01A0
:102C70008A85811134C0EB80FC8087E5F81A26E153
:102C80002E9DC0012F9D900D1124DC01AB54BC4F33
:102C90001496ED91FC911597309731F054966D9103
:102CA0007C9185549C4F099586E18E9D80018F9D76
:102CB000100D11240B541C4FF80187810E94530DF5
:102CC000F80180850E944C0D0E94F8151882198623
:102CD0001B861E821D821092B4031092B303DF91F3
:102CE000CF911F910F91FF90EF900895CF93DF93B5
:102CF000EC018989811118C081E0898B8F810E9444
:102D00005A0D80912D059885892B80932D050E9461
:102D1000F815EA81FB81309739F06C897D89CE0105
:102D20000696DF91CF910994DF91CF91089580911C
:102D30001F01877F80931F0182E00E944C0D8091CC
:102D40001F0184FF06C08F7E80931F0182E00E94D6
:102D50005A0D80911F0185FF06C08F7D80931F0152
:102D600080E20E945A0D0C94F81590E080E00E94D9
:102D7000B00890E080E00E949A0810922D050E9411
:102D8000F81586E0E9E4F2E0DF011D928A95E9F7A3
:102D90001092430210924202109244020C94D114F9
:102DA00080932C050C94B51680912C05982F967065
:102DB000963019F488600C94D016877FFCCF21E000
:102DC00030E001C0220F8A95EAF7209580912C050A
:102DD00082230C94D0169091F101809589238093E1
:102DE000F101282F277091F4282F082E000C330BA7
:102DF0009217130659F09091B80292FD07C085957D
:102E0000859585950E94DF160C94600D089590912C
:102E1000B80292FB222720F9281769F080FB92F96B
:102E20009093B8028091B7029091B8020E94C213A9
:102E300082E00C94EB16089521E030E001C0220FEF
:102E40008A95EAF780912C05822B0C94D0169091EC
:102E5000B80292FD10C098E0899F90011124622B66
:102E60006093F1010E941C170E94C5149093F00119
:102E70008093EF0108950C941C1780932B050C94FC
:102E8000B516E6E8F1E086E0DF011D928A95E9F7E4
:102E90000C94B516ECE8F3E0128E138E8FEA90E0F6
:102EA0009183808325E0248F88E893E19383828354
:102EB0008AE090E09583848344E150E05783468321
:102EC00068E070E071876087938782874EE150E009
:102ED000558744879787868740E550E0518B408B24
:102EE000738B628B68E270E0758B648B62E370E0D9
:102EF000778B668B68EC70E0718F608F158E978F83
:102F0000868F51A340A322A30E9408131092BF02F0
:102F10000E9441171092B8021092B70290E080E030
:102F20000E94C2130C94BF115F926F927F928F9296
:102F30009F92AF92BF92CF92DF92EF92FF920F9348
:102F40001F93CF93DF93CDB7DEB764970FB6F89496
:102F5000DEBF0FBECDBFC090B102D090B20281E003
:102F600090E09093B2028093B10285E6E82E83E070
:102F7000F82E95E7A92E93E0B92E10E0450100E068
:102F800015C0F30125913491452D602F812F0E94AA
:102F9000751382E0680E711C5394E7E05E12F1CF66
:102FA000FEE08F0E911C0F5F073019F03401512C99
:102FB000E8CFF7012591349140E060E0812F0E9435
:102FC0005013F70132962591349141E060E0812F52
:102FD0000E94501384E0E80EF11C1F5FE2E6AE0E83
:102FE000B11C143009F0CACF0E944A171A82198204
:102FF0001C821B821E821D8218861F8288EC90E034
:103000009A87898703EE11E04AE050E0B801CE01CB
:1030100001960E942D36065F1F4F0333F2E01F0713
:1030200099F77E018BE0E80EF11C8AE0F70111921E
:103030008A95E9F74AE050E0B801C7010E942D36B1
:10304000065F1F4F0338F2E01F07A1F7D092B202CC
:10305000C092B10264960FB6F894DEBF0FBECDBF2A
:10306000DF91CF911F910F91FF90EF90DF90CF9064
:10307000BF90AF909F908F907F906F905F900895DA
:1030800080E00E94AA1360E086E290E00E94093688
:103090000E9494170E94401381E00C94AA1369EED9
:1030A0007EEF90E080E00E94273660E082E090E0D2
:1030B0000E94093660E083E090E00E940936109299
:1030C0002B0560E084E090E00E94093660E082E237
:1030D00090E00E94093660E085E090E00E940936A9
:1030E00060E086E090E00E9409366FEF87E090E0B4
:1030F0000E94093640E050E0BA0188E090E00E946A
:103100001B3660E08DE090E00E94093640E050E020
:10311000BA0188E190E00E941B3660E087E190E010
:103120000E94093640E050E0BA018CE190E00E9434
:103130001B3670E060E080E290E00E94273640E0BD
:1031400050E0BA0188E190E00E941B3680E00E94C6
:10315000AA130E94401840E050E0BA018FE090E0CE
:103160000E941B3640E050E0BA0183E190E00C94ED
:103170001B36CF92DF92EF92FF928FEF9FEF44309A
:10318000510508F46CC0FB01C080D180E280F3805F
:103190001092BF020E9441178091B702C0FA80F9D5
:1031A000B701A601769567955795479540FB81F93C
:1031B000B701A60122E076956795579547952A9520
:1031C000D1F740FB82F9B701A60133E07695679508
:1031D000579547953A95D1F740FB83F9B701A6017A
:1031E000E4E07695679557954795EA95D1F740FBCA
:1031F00084F9B701A601F5E076956795579547954F
:10320000FA95D1F740FB85F9B701A601A6E07695BE
:10321000679557954795AA95D1F740FB86F9B70171
:10322000A601B7E07695679557954795BA95D1F77A
:1032300040FB87F98093B7028091B802D0FA80F9F9
:10324000D1FACC24C0F8C0FA81F98093B8028091F9
:10325000B7029091B8020E94C21390E080E0FF9004
:10326000EF90DF90CF900895882321F00E944C0DBD
:103270000C94F8150895882339F090912D05982B1A
:1032800090932D050C94F8150895882321F00E9441
:10329000530D0C94F8150895882321F00E945A0DBF
:1032A0000C94F81508958823B1F19CEF980F913A8A
:1032B00070F4E6E8F1E09191891303C0DF01119702
:1032C0001C9291E0EC38F907B1F70C94F81590E2F4
:1032D000980F983050F4877091E001C0990F8A954B
:1032E000EAF7892F0E94530DF0CF9BE5980F93309A
:1032F00020F490E080E00C94B00898E5980F9731A6
:1033000020F490E080E00C949A08803F20F00E9426
:10331000DA090C94D1140895CF93DF93EC010E9445
:103320005319CE010E940F0E9E01205E31092830F4
:10333000310510F0CD2B21F4DF91CF910C9445197C
:10334000DF91CF910C943419CF93C82F882309F4BF
:1033500052C08CEF8C0F813AF8F4E6E8F1E08CE88B
:1033600091E0DF012D91C21759F08A179B07D1F721
:103370006C2F84E891E00E948008CF910C94F8159E
:103380002191C21303C0DF0111971C928E179F0772
:10339000B9F70E94F815ECCF80E28C0F883048F422
:1033A000C77081E001C0880FCA95EAF70E945A0DE4
:1033B000E4CFEBE5EC0FE33040F4F0E0E55DFE4FE9
:1033C000808190E0CF910C94B008E8E5EC0FE731F4
:1033D00050F4F0E0EE0FFF1FE25DFE4F808191811F
:1033E000CF910C949A08C03F30F08C2F0E94F50AC0
:1033F000CF910C94D114CF9108951F93CF93DF9365
:10340000182FC091AC03D091AD03893321F0C09146
:10341000AA03D091AB03812F0E94A419209731F405
:10342000812FDF91CF911F910C9453198FE99FE069
:103430000197F1F700C000002197F0CF0F931F9381
:10344000CF93DF93C42FD22FFC0182818823A1F078
:103450004093B2030E94C5149093B1038093B003CC
:10346000C77081E001C0880FCA95EAF7DF91CF915C
:103470001F910F910C944C191091B203141339C081
:103480008091B0039091B1030E94B6142091A403DF
:103490003091A5038217930760F5C0E2CD0F1D1789
:1034A000B9F080E2810F883040F4177081E001C0EC
:1034B000880F1A95EAF70E944519C83048F481E050
:1034C0009D2F977001C0880F9A95EAF70E944C19BA
:1034D000802F0E94FD19C83098F4D77081E001C098
:1034E000880FDA95EAF7DF91CF911F910F910C9435
:1034F0004519C77081E001C0880FCA95EAF7F3CF7C
:10350000DF91CF911F910F910895AF92BF92CF920B
:10351000DF92EF92FF920F931F93CF93DF93EC0113
:103520008AE0A82E2881222309F48CC02130C9F515
:1035300099818A81913021F422960E94FD1905C05B
:10354000923029F422960E94A4192196EBCF933051
:1035500021F422960E945319F8CF943011F021964D
:10356000F4CF229630E020E0AE014F5F5F4F8053F2
:10357000990B8A30910550F02150310930F38FE9D1
:103580009FE00197F1F700C00000F6CFA29EB001C6
:10359000A39E700D11249C01260F371F8981EA011B
:1035A000E3CFE22FF0E0E856FF4FB490822F8695EC
:1035B0008695869590E0FC01E857FF4FE4902770D0
:1035C000F12C022E02C0F594E7940A94E2F731E060
:1035D000E322FF24FC01E858FF4FC490D12C022EB7
:1035E00002C0D594C7940A94E2F731E0C322DD24E7
:1035F000FC01E859FF4F049110E002C015950795B2
:103600002A95E2F701701127E114F10419F081EE17
:103610000E94A419C114D10419F086EE0E94A419C5
:103620008B2D0E94FD19CD2819F086EE0E945319AA
:10363000EF2819F081EE0E945319012B09F485CF70
:103640008CE27BCFDF91CF911F910F91FF90EF9094
:10365000DF90CF90BF90AF900895CF93DF93EC01B0
:103660000E940F0E9E01205E31092830310510F0B6
:10367000209739F40E944C198C2FDF91CF910C9434
:10368000A4190E943B19F8CF662329F020912D053B
:10369000226020932D059C013056211540E234070D
:1036A00020F0305E2115304108F499270C942D1B31
:1036B000DF92EF92FF920F931F93CF93DF937C01E2
:1036C0008B01D42E80911F0182FF8CC0C091E20239
:1036D000D091E302CE15DF0521F0E114F10409F0E9
:1036E00081C080911F018B7F80931F0181FD73C07A
:1036F0008091E0029091E102A801481B590B81E002
:1037000020911D0130911E014217530708F480E0FB
:103710008170F82E80911F01F0FA81F980931F01CA
:10372000FE0183E0F695E7958A95E1F7EE71FF27B4
:10373000E054FD4F20813181AE014F70552781E06B
:1037400090E002C0880F991F4A95E2F7FF2009F424
:1037500044C0822B932B918380838091BF0281FF91
:1037600008C080911F01806180931F0182E00E9448
:10377000530D8091BF0285FF08C080911F018062B8
:1037800080931F0180E20E94530D6F2DCE010E9495
:10379000441BDD2031F08091A70385FF02C086FF26
:1037A0003BC08091AA039091AB030E948C0F809143
:1037B000E2029091E3029C013056211540E2340769
:1037C00020F0305E2115304108F499270E948C19B1
:1037D0000E9497161DC081E09BCF80959095822313
:1037E0009323B9CFC701992797013056211540E29D
:1037F000340728F0305E2115304108F0C7010E94DF
:103800008C198091E2029091E3028E159F0501F3DD
:103810001093E1020093E002DF91CF911F910F918D
:10382000FF90EF90DF9008952F923F924F925F921A
:103830006F927F928F929F92AF92BF92CF92DF92C0
:10384000EF92FF920F931F93CF93DF93CDB7DEB725
:1038500069970FB6F894DEBF0FBECDBF942F498B8A
:10386000252F5A8B6B8B7C8B8D8B4C895D89622FBE
:10387000892F0E94D208811109C080918D019091F9
:103880008E01019690938E0180938D018B89811119
:1038900010922D051D861E861F86188A85E0FE0162
:1038A0007196DE01199601900D928A95E1F780914B
:1038B000B80282FD1EC080918E0390918F03892BE8
:1038C000C1F00E94C5142091EF013091F001821BDC
:1038D000930B20918E0330918F038217930720F072
:1038E0008091F10182FFF5C10E94DE1581110E94D5
:1038F000410D4C855D856A8589850E94D2088111BC
:1039000011C061E0CE0109960E94CB126C018B853B
:1039100027EFC2162CE5D20681F4882321F181E03D
:103920008093200129853A854B855C856D857E8550
:103930008F8598890E94A429C5C038EFC3163CE53D
:10394000D30629F4882379F00E947F2AEBCF49EF30
:10395000C4164CE5D40639F4882329F0809120015F
:103960008111F2CFDCCF08E413E0512CB12CA12C53
:1039700022242394312C2EEF422EF80140815181D4
:1039800088248A94982C20E0822F90E0FC01EE0F8E
:10399000FF1FE40FF51F608171816115710531F022
:1039A000C616D70609F44C012F5FEECFF12CFFEFBE
:1039B0008F169F0609F448C0F8014481F090200159
:1039C0008F2D411180E0F82FF170FF2EF801E58076
:1039D00086819B85992309F40CC1FF2009F409C154
:1039E0006090A2037090A303E11012C0A10101C076
:1039F000440F8A94EAF7842B86838091E4029091A5
:103A0000E5028615970520F47092E5026092E402C3
:103A1000C10102C0880F991F2A95E2F70197F801AA
:103A200026812817190681F480918A0390918B03CF
:103A3000009709F460C00E94B6146816790608F071
:103A40005AC021E0F80124835F28FFEFAF1ABF0AB4
:103A5000095F1F4F28E0A216B10409F08ECF8B85B5
:103A6000882309F421C1552009F41EC10E94C51400
:103A700090938B0380938A038091E702883010F53E
:103A800091E0980F9093E70298E0FE013996DE01ED
:103A9000119601900D929A95E1F73CE0839FC00149
:103AA000112488519D4F28E0FE013196DC010190E0
:103AB0000D922A95E1F72FEF3FEFFC013187208728
:103AC000D386C28669960FB6F894DEBF0FBECDBF0F
:103AD000DF91CF911F910F91FF90EF90DF90CF90EA
:103AE000BF90AF909F908F907F906F905F904F901E
:103AF0003F902F9008958091880350918903982FCB
:103B0000F0E0E0E0851314C090938803E017F1071C
:103B100009F49ACF90E0FC01EE0FFF1FE058FC4F34
:103B2000B182A082019683709927809389038CCFFC
:103B3000682E712CF301EE0FFF1FE058FC4F20811F
:103B4000318147E0429FD001439FB00D1124A85B13
:103B5000BC4F6D917C911197798F688F40E020E088
:103B600030E0E32FF0E0EE0FFF1F688D798DE60F58
:103B7000F71F8080918081149104E1F0F801019099
:103B8000F081E02DFF8BEE8B20E005C086169706B6
:103B900009F44F2D2F5FE22FF0E0EE0FFF1F6E892B
:103BA0007F89E60FF71F608171816115710571F7DB
:103BB0003F5FD7CF4423D1F0F801231708F0FD0170
:103BC00021E024830E171F0721F490938803F42E1D
:103BD0003BCF981305C0AE17BF0711F49F5F9370DA
:103BE00093012F5F3F4F822F83708CCFF0E0E0E096
:103BF000F7CF90E0E1101FC0B10102C0660F771F40
:103C00002A95E2F79B01215031098217930731F47D
:103C1000442309F447C0C5010E94DD08C10101C069
:103C2000880F8A94EAF7982F9095F8018681892366
:103C30008683FE2C09CF9C01082C02C03595279560
:103C40000A94E2F7A90141705527BC01615071093E
:103C500086239723892B11F5452B01F1F8018281E9
:103C60009381892BC1F01B821C821D821E82498296
:103C70004A820E94C5148160582F9D838C83F8016D
:103C8000828193818F83988729813A814B816D81CD
:103C90007E810E94A429F8011582C0CFF22FF17015
:103CA000EF2EBCCFEF2CBACF90918803809189037F
:103CB000981731F00E948D2A552009F433CE02CF97
:103CC0000E941D2A10928B0310928A030E940B09F6
:103CD000F3CF82E00E94EB1607CECF93DF9300D0A4
:103CE00000D00F92CDB7DEB79093B4028093B302A9
:103CF000811520E2920748F40F900F900F900F90DB
:103D00000F90DF91CF910C948C198EEF89838A8369
:103D10001B820E94C5148160782F9D838C8349810A
:103D20005A816B818D810F900F900F900F900F90A3
:103D3000DF91CF910C94141C0F931F93CF93DF93BB
:103D40008C01EB0167E572E08C2F0E94CF13892B69
:103D5000A1F48091AA039091AB030E948C0FDD2700
:103D6000C15BDD4F8881F80110821882833009F130
:103D700048F4813059F0823081F0DF91CF911F916A
:103D80000F9108958430D1F08530B9F780915702B2
:103D900090915802009789F306C080915902909142
:103DA0005A02009799F3DF91CF911F910F910C94D4
:103DB0006D1E80915B0290915C02F3CF80915D0259
:103DC00090915E02009779F7209157023091580246
:103DD0008091590290915A0221153105D9F200972C
:103DE00011F7C901E0CFCF93DF9300D000D00F923D
:103DF000CDB7DEB79093B4028093B302811520E271
:103E0000920748F40F900F900F900F900F90DF9152
:103E1000CF910C942D1B8EEF89838A8381E08B8355
:103E20000E94C5148160782F9D838C8349815A81BB
:103E30006B818D810F900F900F900F900F90DF91FD
:103E4000CF910C94141CBF92CF92DF92EF92FF920D
:103E50000F931F93CF93DF93B82EC0902C058091C2
:103E60002B05C82AC7E0D0E0D12CF12CE12CD701DA
:103E7000C6010C2E04C0B695A795979587950A9410
:103E8000D2F780FF1FC04B2D60E08C2F0E94E51100
:103E90008C0181309105B1F00E94F31E8FE39CE903
:103EA0000197F1F700C00000C8010E946D1E81E07B
:103EB000DF91CF911F910F91FF90EF90DF90CF9006
:103EC000BF900895219798F64B2D60E080E00E9406
:103ED000E511EC010E94F31E8FE39CE90197F1F7D5
:103EE00000C00000CE01E1CFCF93DF93EC010E9430
:103EF000F31E8091AA039091AB030E948C0FCE0118
:103F0000DF91CF910C946D1E0F931F93CF93DF938E
:103F10008C01862F67E572E00E94CF13892BC9F4CC
:103F2000C0915702D0915802209799F0F8018081F2
:103F3000833069F4CE010E94741FCE010E94741F69
:103F4000CE01DF91CF911F910F910C94741F84309B
:103F5000B8F7DF91CF911F910F9108950F931F93A1
:103F6000CF93DF938C01EB0167E572E08C2F0E9409
:103F7000CF13892B09F064C0FE01FF27D8018C9173
:103F8000E15BFD4F8130D9F419969C9119979923E3
:103F900011F080830CC01A969C919923D1F382E092
:103FA00080838091590290915A020097D9F48091B0
:103FB000570290915802009709F442C013C0823012
:103FC000E9F519968C91199781112DC01A968C914B
:103FD00081110EC083E0808380915B0290915C022E
:103FE000009719F1DF91CF911F910F910C94F31E5F
:103FF00084E0808380915D0290915E02009791F74A
:1040000080915702909158020097F9F00E94741F16
:104010008091590290915A02009721F7809157029E
:1040200090915802DFCF85E0808380915702909174
:104030005802009729F00E94741FF0CF86E0808319
:10404000DF91CF911F910F91089580915902909126
:104050005A02B1CF9F92AF92BF92CF92DF92EF926E
:10406000FF920F931F93CF93DF9300D000D0CDB773
:10407000DEB77C01DC0113964D915C91149711968B
:104080006C9111978C910E94D208811178C061E0E7
:10409000C7010E94CB128C01F7018281811111C0EE
:1040A000D70112968C91811149C00031FFE51F079D
:1040B00009F416C101312FE5120709F047C682E065
:1040C00010C180910C0190910D01019649F375EB9F
:1040D000C72E73E0D72EB12CA12C992493948091F4
:1040E0000C0190910D018A159B05D4F2F601868191
:1040F0008823E9F0818592850817190739F48091A2
:10410000B3039091B4030817190789F0D6011F96DD
:104110009C921F971C961C930E931B97C6010E949E
:104120007616C60106960E94311610922D05BFEF35
:10413000AB1ABB0AE6E1CE0ED11CD1CF98012251B9
:104140003F452031310508F0F7C58FEF93E00E941D
:10415000FB356EEED62ED00E03E812E0882359F11F
:104160008091F101877059F0F7018281882339F03D
:104170008091B80282FD03C082E00E94EB160F908E
:104180000F900F900F90DF91CF911F910F91FF90A3
:10419000EF90DF90CF90BF90AF909F900895011562
:1041A000F4E01F07E9F2C8010E94FB35811101C04C
:1041B000DA940F5F1F4FD110F2CF19821A821B823F
:1041C0001C8299249A9468012FEFC21AD20AC8015E
:1041D0000E94FB3589831A82882311F2813009F00D
:1041E00073C0580132E0A30EB11CC6010E94FB351A
:1041F000C82E8A83882309F4B3CFC5010E94FB35FA
:10420000D82E8FEF8C0D833068F4580143E0A40E54
:10421000B11CDB82DD2021F0CE0101960E94851ABF
:104220008501D1CF8BEF8C0D833030F5C80103961B
:10423000DB825C01DD20A1F3580154E0A50EB11C26
:104240000E94FB358C83882359F38B819C818130BC
:10425000AFEF9A0710F0982F8827B6E0CB1631F011
:10426000E7E0CE1631F00E94741FDACF0E94F31EF1
:10427000D7CF0E946D1ED4CFF4E0CF12D1CF58011A
:1042800024E0A20EB11CC80103960E94FB35DD207C
:1042900009F466CF882309F463CF8150990B989E67
:1042A0009001999E300D11244D2D4150550BCA019E
:1042B000820F931F019708F4B3CFAFE9BFE01197C6
:1042C000F1F700C00000F6CFCE0101960E94851ADA
:1042D0005601A6CF81E00E941C170E94D41640CF41
:1042E00081E00E94DF16F9CF82E0F5CF2FEFC216F2
:1042F000D10411F008F036C567E572E08C2D0E94FC
:10430000CF13892B29F586E18C9DF0018D9DF00D51
:104310001124EB54FC4F8681813009F062C08091FA
:10432000570290915802892B99F0809159029091EF
:104330005A02892B69F080915B0290915C02209176
:104340005D0230915E02822B932B892B09F453C0BE
:1043500080910C0190910D018C159D0524F4D09253
:104360000D01C0920C01F701828196E19C9D5001E4
:104370009D9DB00C112495012B543C4F6901D9012E
:1043800050968C935097928116968C9116979923FC
:1043900009F43FC01A961C930E9319978F5F1696D7
:1043A0008C930E94C514F601968785878091F4014D
:1043B000878380912D059091BF02892B8087019082
:1043C000F081E02D309741F0D60154966D917C91AB
:1043D000C50185549C4F09951093B4030093B30312
:1043E000C1C4823009F0B4CF80915B0290915C022D
:1043F000892B09F4ADCF26E12C9DC0012D9D900D98
:1044000011248B549C4FDC0150961C920E9476160E
:104410009FCF882309F4A6C4F9018189882309F470
:10442000A1C4C50185549C4F0E9431169BC4809144
:104430001F01816080931F01C3C480911F018E7F83
:1044400080931F010E949716BBC480911F018F7E2D
:10445000013E110531F0053E1105C9F480911F019F
:104460008F7D80931F0180911F0180FFB8C4D70109
:1044700012968C910832110528F50E31110508F0BD
:1044800074C00430110580F58111A5C4A8C4C80109
:104490009056811540E2940720F0905E811590417E
:1044A00010F780911F0182FF9AC48091A90381FDBA
:1044B00096C427E032E040E0B60190E080E00E9440
:1044C000581B8DC40933110558F40D32110518F429
:1044D0000B321105C9F69091A70392FDD5CF08C004
:1044E00004361105C1F3D0CF9091A70394FDCCCF32
:1044F000882309F4A1C09091BF028091F401282F74
:10450000292B322F3D7FB1F11092E3021092E2028B
:104510003091A70331FD2EC0F80143E0F695E795F1
:104520004A95E1F7EE71FF27E054FD4F98012F7097
:10453000332781E090E002C0880F991F2A95E2F7A7
:10454000809590952081318182239323918380836C
:1045500060E0C8010E94441B8091F4018D7F0E949D
:10456000CA1582E00E94EB16FBCD9091A70393FD44
:104570008BCFBECF38E0F701A7E0B2E001900D92FB
:104580003A95E1F71092090210920B0210920A027A
:10459000A090E202B090E3020A151B05B1F530913C
:1045A000A70335FF32C040911F0141FB992490F8C9
:1045B00041FF02C036FF29C04091E0025091E10264
:1045C000B601641B750B4091A4035091A5036417B9
:1045D0007507D8F491FF08C080911F018061809316
:1045E0001F0182E00E94530D8091BF0285FF08C029
:1045F00080911F01806280931F0180E20E94530D11
:10460000692DC5010E94441BABCD90911F0121FB78
:1046100091F990931F018D7F0E94CA151093E302B8
:104620000093E202D092E102C092E00280911F0169
:10463000846080931F0195CF970140E0B601C801C7
:104640000E94581B8DCD053F4CE5140709F456C058
:1046500008F44EC0063F8CE5180709F455C0D70191
:1046600012963C91332309F45BC01092B2030631D9
:10467000BCE51B0709F0ACC08091BF02982F9A7A65
:104680002091A60320FF04C0482F447409F090E055
:1046900021FF04C0482F417109F090E022FF04C0BF
:1046A000482F487809F090E023FF03C0827209F098
:1046B00090E0332309F477C081E0911101C080E0DC
:1046C00080938C0169E2911165E384E891E00E9496
:1046D00080080E94F81544CD07E225EE45EE68ED0E
:1046E0007CE598C306E221EE40EE63EF7CE592C3E1
:1046F00007E225EE44EE64EF7CE58CC306E221EE92
:1047000042EE65EF7CE586C307E225EE46EE66EFF6
:104710007CE580C308E221E045EE69ED7CE57AC3E3
:1047200006311C4509F4A8CFD70116968D919C91AE
:10473000009709F483C00E94B90B182F092FD701E5
:104740001296DC9012971596CC90C2943FE0C3224B
:104750008091F1018770C1F0AD2CDD20B1F0892F7F
:10476000807F803421F080E2810F883068F0809172
:10477000B80282FD09C082E00E94EB168091F1012F
:104780008770AA24A3948111A12C902E92942FE0DB
:104790009222BBE0B91508F4DFC0E92DF0E0E95B37
:1047A000F94C0C94B83580918C0181110FC089E2CD
:1047B000E6E8F1E02CE831E09191891303C0DF01D4
:1047C00011971C922E173F07B9F783CF85E3F0CFDF
:1047D0000A35FDE51F0771F158F401153CE5130793
:1047E000C9F00E3D1C4509F09FCF0E944F18B8CC70
:1047F0000B355DE5150701F10C351D4509F094CF2A
:104800008091B80282FB882780F991E089270E9475
:1048100007178ACF1092BF020E9441179FEFA4E3AF
:10482000BCE09150A040B040E1F700C000000E9401
:104830005F0896CC81E0EBCF80E0E9CFF701828181
:1048400000811181882369F0C8010E945912D82E75
:10485000682FC8010E94C40DB8018D2D0E943D1221
:104860006ACFC8010E94970DD82EF6CFE02FEF70C7
:10487000BE2E802F807F19F0B29490EFB922DD20F8
:10488000A9F0BB2059F080E2810F883010F011119F
:1048900007C08B2D0E945A0D0E94F815812F5AC017
:1048A00080912D05B82AB0922D05F6CF812F0E9458
:1048B0005319BB2009F450C080E2810F883010F0FA
:1048C000111104C08B2D0E94530D03C08B2D0E942B
:1048D0004C0D0E94F81540C0F02FFF70BF2E802FA6
:1048E000807F803219F0B29480EFB822112321F139
:1048F000113009F4A4C0DD2009F4ADC0CC2009F4C6
:104900007DC020E0D7014C9111965C9111971296D1
:104910006C91129713967C91139714968C910E9428
:10492000A2128091A90381FDB9CFF701858180FF93
:10493000B5CF8F70858362C08091B80282FF40C07E
:10494000DD20C1F1BB2029F08B2D0E945A0D0E9461
:10495000F81580E00E94A419A92DA850BB0B14974C
:1049600010F40E94C608812F902F0E94F40D81112F
:10497000C4C110928E0110928D01AA20B1F08091D5
:10498000F10180FD12C0D70112961C928595859584
:1049900085950E941C17C7010E942A208091F10171
:1049A0008595859585950E94DF1660E0C7010E9478
:1049B000CB12E5CB80E00E945319BB2069F282CF75
:1049C000DD2001F1C11004C08091F4018B2917C0D2
:1049D00021E0C21206C08091F4018B290E94CA1501
:1049E000BBCF8091A803823078F3C812EDCF0E942C
:1049F000410D8091EE01B812B092EE018B2D0E9414
:104A00004C19AACFC11006C00E94410D8B2D0E94E7
:104A10004519A2CF8091A80331E0C3120BC08230A8
:104A200008F49ACF8091BF028B2109F495CF0E94A0
:104A3000670DEACF823040F3C812E6CF8DCF809168
:104A4000AE03DD2021F08C1508F486CFD7CFC81631
:104A500008F082CFDBCFCC20C9F28091AC039091DB
:104A6000AD03193321F08091AA039091AB030E940A
:104A70008C0F812F0E9453196FCF802F86958695BA
:104A8000837069F0813009F067CF812F902F937088
:104A9000D11002C090E080E00E949A085DCF812F83
:104AA000902F9370D11002C090E080E00E94B00877
:104AB00053CF812FDD2029F00E94F50A0E94D114E6
:104AC0004BCF0E94DA09FACF802F837091F5D11075
:104AD00043CF412F429546954770440F440F812F95
:104AE0008F70042E01C0880F0A94EAF7212F2071DD
:104AF00014FF07C02FE030E001C0220F4A95EAF70B
:104B00002095302F369536953370323069F050F459
:104B100040912B05313029F0822B84230E943D17D0
:104B20001BCF842B822BFACF282B80912B05822739
:104B3000F5CF8695DD2011F0802F8170882309F450
:104B40000BCF412F429546954770440F440F812F5C
:104B50008F70042E01C0880F0A94EAF7212F20716C
:104B600014FF07C02FE030E001C0220F4A95EAF79A
:104B70002095302F369536953370323069F050F4E9
:104B800040912C05313029F0822B84230E94D016CD
:104B9000E3CE842B822BFACF282B80912C05822701
:104BA000F5CFF02FFF70BF2EDD2029F08F2F0E9450
:104BB0001C17812F24CF812F0E9445198B2D0E9415
:104BC000DF16CACE123F89F160F4103FB9F0113FF1
:104BD00081F0DD2009F48CC0C11060CE802F8F7170
:104BE00028C0133F49F1143FA1F78091B80282FF1A
:104BF0002FC0802F8F71DD2011F31BC08091AE0379
:104C0000DD2079F0C81608F0A7CE202F2F7181E0A3
:104C100090E001C0880F2A95EAF790912C0589272A
:104C2000B5CF8C1508F498CEF0CF802F8F71D110AE
:104C3000C6CF0E941C1790CE80E0DD2009F4A6CFDD
:104C400081E0902F9F7101C0880F9A95EAF79ECF5F
:104C50008091A8038230A0F18091EE01DD20F1F077
:104C60000E94530D8091F1018770843041F40E94BD
:104C7000600D802F8F710E94DF16A12C6DCE809168
:104C8000A803C816D0F7202F2F71B22E822F0E94B2
:104C90001C1763E08B2D0E942717EFCF0E945A0D3F
:104CA0008091A803C81640F00E94600D0E94670D15
:104CB00064E0802F8F71EFCF81E00E94EB16DDCF93
:104CC000DD2059F0302F3F71B32E832F0E941C1727
:104CD00063E08B2D0E9427173FCE81E00E94EB16E8
:104CE00041E04C1508F038CE82E00E94EB1634CE3D
:104CF000C110B3CE802F8F7162CFDD2019F0C110AB
:104D000038CE3BCEC11035CE20E0F7014081518135
:104D10006281738184810E94A2128091A90383FF22
:104D200028CE80918D0190918E01029709F021CEBD
:104D3000812F0E94FD191DCE0031BFE51B0709F42C
:104D4000C9CA0131EFE51E0709F4CECA6801E7E5DB
:104D5000DE1A882309F4CACAFFEFCF16D10409F07E
:104D600008F4F6CA8091A70380FF39C00E94C514D9
:104D70006C01D70112968C91882309F466CB80913F
:104D80001F0182FF08C027E032E040E0B60190E05A
:104D900080E00E94581B0B31BCE51B0709F447CB90
:104DA0000C31ECE51E0709F448CB90911F01892FC7
:104DB0008E7F90FF81600A31FCE51F0709F440CB2C
:104DC000C8019056811520E2920728F0905E811567
:104DD000904108F048CB1092E3021092E202033FA8
:104DE000BCE51B0709F47ECC08F02DCC083DFCE5A2
:104DF0001F0709F471CC093D2CE5120709F48ACC90
:104E0000073D3CE5130709F02ACC06E221EE41EE0E
:104E100067ED7CE5C7010E941E1AA2C9CF92DF92FE
:104E2000EF92FF920F931F93CF93DF938091A9018D
:104E3000807F31F48091A601C091ED0181110BC0FA
:104E4000DF91CF911F910F91FF90EF90DF90CF9066
:104E500008952196C7708091AC018C1789F3F0906A
:104E6000A401E090A501C090A701D090A801A601DF
:104E70006E2D8F2D0E94D208D0E08111EACF8E01D5
:104E800083E0000F111F8A95E1F7F801E355FE4F0B
:104E900081818E11DECF80818F11DBCF82818111E4
:104EA000D8CFE380F480EC18FD0860E084EA91E05C
:104EB0000E94CB128091A4039091A503E816F906F5
:104EC00040F68091A9018F7080618093A901F8015B
:104ED000EE54FE4F80818F708061808384EA91E080
:104EE0000E942A20DF91CF911F910F91FF90EF90A8
:104EF000DF90CF900C948D0D3F924F925F926F9206
:104F00007F928F929F92AF92BF92CF92DF92EF9259
:104F1000FF920F931F93CF93DF93CDB7DEB76597C3
:104F20000FB6F894DEBF0FBECDBF8C0185E0F8014F
:104F3000DE01519601900D928A95E1F7D8014C90CF
:104F400011965C9011971296EC9012971396CD9053
:104F5000DC9060E084EA91E00E94CB1284EAA82E03
:104F600081E0B82E8090A7019090A801A4016091E3
:104F7000A5018091A4010E94D2088111CAC1F090BC
:104F8000A601F601E819F9094F0160E0FF2009F4D4
:104F90006DC1C5010E94CB126090A4037090A5035F
:104FA0003090A9018614970408F013C14091A7011D
:104FB0005091A801B090A401A090A501832D807FFD
:104FC0006A2D09F0ADC08B2D0E94D208FE2C8111F4
:104FD0003BC0D80111968C9111978A1135C08C91E4
:104FE0008B1132C02091AA013091AB0116968D91A0
:104FF0009C912817390741F5E11026C0832D8F7049
:1050000080618093A90184EA91E00E942A20809126
:10501000A901F80185838F2D65960FB6F894DEBF40
:105020000FBECDBFDF91CF911F910F91FF90EF90F9
:10503000DF90CF90BF90AF909F908F907F906F90B8
:105040005F904F903F900895F4EF6F16F1E07F0668
:1050500020F48091A90380FF21C0A601652D842D35
:105060000E94D208811118C081E08E2580FF16C0F1
:105070004E2D652D842D0E946D0D882379F084EAD4
:1050800091E00E942A2088E0E4EAF1E0DF011D922D
:105090008A95E9F7F12CBFCF80E0E8CFA601652D16
:1050A000842D0E94D208811124C081E08E25B82F62
:1050B000B170CB2E80FF2BC04E2D652D842D0E940C
:1050C0006D0DD82E811123C0498A5A8A89899A89FF
:1050D0000E948812292F22952F70223060F02430F0
:1050E00088F49F7061F0F8019581907F41F4FD2C68
:1050F00092CF80E0DCCF9F7011F08823C1F3805EF7
:105100008830A8F3C8010E942A20DC2CF0CFEE20C2
:1051100009F481CF8091A90181608093A901BACF60
:105120008B2D0E94D208811124C0D80111968C9138
:1051300011978A111EC08C918B111BC02091AA015E
:105140003091AB0116968D919C91179728173907CE
:1051500081F4E1100EC015963C92C8010E942A20ED
:1051600088E0F801A4EAB1E001900D928A95E1F798
:1051700052CFC8010E949412882339F1EE2029F100
:105180008091A9018032A0F02091A4013091A50165
:105190003A8729871B86DD86CC868E878091AA0177
:1051A0009091AB01988B8F87CE0109960E942A209F
:1051B00088E0F801A4EAB1E001900D928A95E1F748
:1051C0000E940E27FF24F39426CFC8010E942A20B4
:1051D000F9CF832D807F09F452CF9090A401809065
:1051E000A5014091A7015091A801682D892D0E9429
:1051F000D20881111CC0F8018181881118C08081FA
:10520000891115C02091AA013091AB018681978147
:105210002817390761F4E1100AC03582C8010E94DD
:105220002A2088E0D5011D928A95E9F7F4CEC801BD
:105230000E949412882349F2EE2039F28091A9014C
:10524000803208F4B5CF2091A4013091A5013A83B2
:1052500029831B82DD82CC828E838091AA0190916A
:10526000AB0198878F83CE010196A0CF84EA91E0AD
:105270000E94CB128091A4039091A50388169906F1
:1052800080F6FE2CEE2009F4A0CFE090A401D0908F
:10529000A5014091A7015091A8016D2D8E2D0E946E
:1052A000D208811128C0F80181818D1124C080812C
:1052B0008E1121C02091AA013091AB018681978186
:1052C00028173907C1F48091A90382FD49CF909135
:1052D000A90190FD45CF907F09F442CF8091A901AB
:1052E0008583903F09F439CF982F907F905F8F701E
:1052F000892B858332CFC8010E949412811158CF27
:105300008091A90181608093A901C8010E942A208F
:1053100082CEEE2009F459CFC8010E949412F82ED3
:10532000882309F452CF88E0F801A4EAB1E00190A3
:105330000D928A95E1F78091A4019091A5010E94B8
:1053400088120E940E2767CECF93DF93CDB7DEB7CA
:1053500060970FB6F894DEBF0FBECDBF29873A879E
:105360004B875C876D877E878F87988BCE010996E8
:105370000E947C2781112FC088E0FE013996DE0152
:10538000119601900D928A95E1F74C855D856A85AD
:1053900089850E94D20881111EC0A091AC01B0E0A5
:1053A000CD010196877099272091ED0128171906E4
:1053B00009F193E0AA0FBB1F9A95E1F7A355BE4FE1
:1053C00098E0FE01319601900D929A95E1F7809355
:1053D000AC010E948D0D8091ED019091AC0189137B
:1053E00019C060960FB6F894DEBF0FBECDBFDF9137
:1053F000CF9108951092BF020E9441171092AC0104
:105400001092ED0188E0E4EAF1E0DF011D928A9557
:10541000E9F7E1CFB8E08B9FC001112483559E4F7F
:105420000E947C278823E9F28091ED0190E00196AB
:10543000877099278093ED01CECFDF92EF92FF9294
:105440000F931F93CF93DF938091E702882369F036
:10545000C091E602E12C8CE0F82E8091E702C8179B
:1054600060F01092E7021092E602DF91CF911F9157
:105470000F91FF90EF90DF900895DD24D394DC0E20
:10548000D092E6020C2F10E0CF9DE0011124C8510C
:10549000DD4F4B815C81698188810E94D208811136
:1054A0002CC08E819F81892B21F488859985019656
:1054B00051F4288139814A815B816C817D818E81A3
:1054C0009F810E94A429F09EF001F19EF00D11240D
:1054D000E851FD4F1482138210922D05E1100DC08A
:1054E000CE010E949412811108C08FE39CE90197BC
:1054F000F1F700C00000EE24E394CD2DAECF109262
:105500008B0310928A03109220018091890380936B
:1055100088030E940B090C941D2A3F924F925F92C0
:105520006F927F928F929F92AF92BF92CF92DF92B3
:10553000EF92FF920F931F93CF93DF93C091880355
:1055400097E0892E01E010E02CE0322E3EEF932E02
:1055500044244394809189038C1315C00E941D2A12
:10556000DF91CF911F910F91FF90EF90DF90CF903F
:10557000BF90AF909F908F907F906F905F904F9073
:105580003F900C940B09D0E0FE01EE0FFF1FE05896
:10559000FC4F80819181889ED001899EB00D11249D
:1055A000A85BBC4F14962C911497211157C05090B2
:1055B000E702E8EEF2E030E020E0712C5D01251515
:1055C00008F04AC0E284F384D501CD90DC906FEFFF
:1055D0007FEF612C462D50E0DA01AA0FBB1FAC0D06
:1055E000BD1D0D90BC91A02D109731F0EA16FB0661
:1055F00009F4BA016394EECF6F3F7607A1F1D801A9
:1056000002C0AA0FBB1F6A95E2F77A2AB80102C04E
:10561000660F771F6A94E2F7AB0141505109741687
:105620001506F9F4329EF001339EF00D1124E85175
:10563000FD4F889ED001899EB00D1124A85BBC4F00
:1056400012962D913C9113973783268390829182F5
:105650009187808715964C920E94DD082196C37031
:1056600079CF148213822F5F3F4F3C96A8CF1F92B1
:105670001FB61F9211248F939F93AF93BF93809176
:105680006B04811113C080916D0490916E04A09100
:105690006F04B09170044196A11DB11D80936D04FB
:1056A00090936E04A0936F04B0937004BF91AF9178
:1056B0009F918F911F901FBE1F901895CDB7DEB799
:1056C00068970FB6F894DEBF0FBECDBF0E94C51419
:1056D000909341028093400280E890E00FB6F894E6
:1056E00080936100909361000FBE8DE59BE09093E5
:1056F0008301809382010E94E3130E9439140E9467
:10570000BF1180916900886080936900E99A8BE4F9
:105710008093450780937A07809351078AE58093A9
:1057200044078093790780935007539A80E0815013
:1057300009F0E4C25398789482E084BD93E095BD6B
:105740009AEF97BD80936E000E94D912811102C01A
:105750000E9440180CE511E093E6E92E91E0F92E45
:10576000F80181918F018F3F11F00E945F0BE016CD
:10577000F106B1F703E611E08AE6E82E81E0F82EA3
:10578000D8018D918D018F3F11F00E945F0BE016C3
:10579000F106B1F787E0E9E3F2E0DF01282F1D927F
:1057A0002A95E9F7E8EFF1E0DF011D928A95E9F724
:1057B00090E080E00E940336893E9E4F21F40E94D3
:1057C000D912811102C00E944F1882E090E00E941D
:1057D000FB358093FF0184E090E00E94FB35182F99
:1057E00082E290E00E94FB35982F812F9093B802BF
:1057F0008093B7020E94F814EFE3FCE93197F1F7C8
:1058000000C000000E94F8148091390280FF08C097
:105810006FEF7FEF90E080E00E9427360E945F08E4
:1058200083E090E00E94FB350E943D1782E0809368
:10583000320280E880932E050E947D346DE070E096
:105840008BE291E00E94EE0E892BE9F58091320205
:1058500063E070E081FD5AC288E291E00E94EE0EA2
:10586000892B89F56DE070E088E191E00E94EE0EF1
:10587000892B49F50E947408605A75418F4F9F4FDC
:105880006093B9027093BA028093BB029093BC02FA
:10589000E1E3F5E080E092E0DF019C011D92215000
:1058A0003040E1F7F0933807E09337078FEF9FEF31
:1058B0009093300580932F0581E08093BE02809302
:1058C000BD021092330224982C9A25982D9AAFE8A5
:1058D000B1E01197F1F700C0000083B182958170AB
:1058E0001D9917C290E0892B8093110280E091E00E
:1058F00090936804809367043FEF40E752E0315093
:1059000040405040E1F700C00000CE0101961C016C
:1059100080915F0710916C04882309F4FCC11092F8
:105920005F070E94C51490934102809340021123A7
:1059300061F010926C041092BF020E9441170E9405
:10594000C60880916C048111E8C10E94960F809175
:105950000305882309F4A1C18091440784FF9DC1F8
:105960000E94F814E82E81110E947408A9E3B2E0A5
:10597000E0E0F2E010E000E0302F8D912191281757
:1059800009F4EEC190E0FF24F3942827422F4F2121
:1059900009F4E1C19B873C878F2191E009F490E0F5
:1059A0009D870E94C5148160782F9F878E874B85C5
:1059B0005C856D858F850E94141CF801E050FE4FB8
:1059C0008081F826F08280910C0190910D01F12CDC
:1059D000019609F00EC280912001811114C28091BC
:1059E000A70380FF1EC080911F0182FF1AC00E9482
:1059F000C5142091E0023091E102AC01421B530B2F
:105A000020911D0130911E014217530750F027E0ED
:105A100032E041E0BC018091E2029091E3020E94F9
:105A2000581BE0911102EE0FEE0FE093110283B1CB
:105A3000829581708D8B1E8A1D9910C280E04D89E0
:105A40005E89842BE82BE0931102EF70F0E0E659B9
:105A5000FE4F808190911002890F80931002F12CEB
:105A6000843054F080910F028F5F80930F0280E0AA
:105A70000E94231FFF24F394809110028D3F54F461
:105A800080910F02815080930F0281E00E94231FBA
:105A9000FF24F39480911002082E000C990B64E00F
:105AA00070E00E94A43580931002F1100E947408E7
:105AB0008091BE02882309F48CC081E395E0909325
:105AC000380780933707E8E3F1E084918F01811173
:105AD000C8C18091BE02882309F462C020912F05BD
