:100000000C94C3050C94E0050C94FB050C94E005DE
:100010000C94E0050C94E0050C9432260C94E00559
:100020000C94E0050C94E0050C94E0050C94E005BC
:100030000C94E0050C94E0050C94BB260C94E005B0
:100040000C94E0050C94E0050C94E0050C94E0059C
:100050000C94E0050C94E0050C94E0050C94E0058C
:100060000C94E0050C94E0057C0B7C0BA80BA80B12
:100070000B0C290C0F0D0F0D2E0C960CA70CA70CBA
:10008000B11BB41BEB1BFE1B061C111C141C141C07
:10009000141C5C1C5C1C191C1C1C211C2E1C3B1CF5
:1000A0003E1C421C4F1C951F07209D1F671F6B1F86
:1000B000A11F6E1FA41FAF1F791FFD1F7D1FB31F40
:1000C000811FB71FE11F851FBB1FEB1F8B1FC11FA8
:1000D000CB1F721FA81F751FAB1F901FC61FD71FF6
:1000E000F71FF91F631F991F1020CD23D323C123AE
:1000F000C723D923DF23E523B6B6B6B6B6B6B6B660
:10010000B6B6B6B6B6B6B695B596D5B6B680818251
:10011000838485868788898A8B8C8D8E8F90919237
:100120009394A0A1A2A3A4A5A6A7A8A9AAABACAD8D
:10013000AEAFB0B1B2B3B4C0C1C2C3C4C5C6C7C804
:10014000C9CACBCCCDCECFD0D1D2D3D400B6B6B6DF
:100150009B9C9D9E00D7D8D9DADBDCDDB600B7B812
:10016000B9BABBBCBD009798999A00B6B6B6B6B6F8
:10017000B6B6B6B6B6B6B6B6B6B695B596D5B6B642
:10018000808182838485868788898A8B8C8D8E8FF7
:100190009091929394A0A1A2A3A4A5A6A7A8A9AA6E
:1001A000ABACADAEAFB0B1B2B3B4C0C1C2C3C4C5E5
:1001B000C6C7C8C9CACBCCCDCECFD0D1D2D3D4003C
:1001C00020202020200043415053200020202020C8
:1001D00020004E4C434B2000202020202000534381
:1001E000524C4B0054656D70204C61796572203F14
:1001F0000054656D70204C61796572203300546540
:100200006D70204C6179657220320054656D7020EC
:100210004C6179657220310054656D70204C6179B4
:100220006572203000202020202020202020202047
:1002300020004C6F636B204C61796572203F004C4D
:100240006F636B204C617965722033004C6F636B78
:10025000204C617965722032004C6F636B204C61D9
:100260007965722031004C6F636B204C6179657247
:100270002030002B0014001A000800150017001C85
:1002800000215204001600070009000A000B00E1DB
:10029000003800E4001B00060019000500E000E241
:1002A000002252E6002C002C002C0000003400A894
:1002B00000130012000C0018000000E3002A0028C0
:1002C000000F000E000D0000001D00E50037003695
:1002D000001000110029001E001F00200021002234
:1002E0000023000100010035003100010001000180
:1002F00000010001004F00010001000100010001A8
:10030000000100510050004A0001004D00000001B2
:100310000001002700260025002400000001004CF9
:10032000003400330030002F00000001005200387C
:10033000002E002D00010001003A003B003C003D72
:10034000003E003F003900010001000100010001F2
:100350000001000100010001000100010001000195
:100360000001000100010001000100010001000086
:100370000001000100430042004100400000000174
:100380000001000100010001000100000001000166
:100390000001000100010001000100010001000155
:1003A0000001000100010001000100010001000145
:1003B0000001000100010001000100010001000135
:1003C0000001000100010001000100010001000125
:1003D0000000000100010001000100010001000017
:1003E0000001000100010001000100010000000106
:1003F000000100010001000100010000AE00AF009B
:10040000DA0281FFD9F1DB20A4A62EAF00A0C00044
:10041000A1C800AED580A81FD300408D14200000D5
:1004200000000000003E5B4F5B3E003E6B4F6B3EAA
:10043000001C3E7C3E1C00183C7E3C18001C577D76
:10044000571C001C5E7F5E1C0000183C180000FF5B
:10045000E7C3E7FF00001824180000FFE7DBE7FF11
:100460000030483A060E00262979292600407F05EB
:10047000050700407F05253F005A3CE73C5A007FB6
:100480003E1C1C0800081C1C3E7F0014227F221406
:10049000005F5F005F5F0006097F017F00006689E3
:1004A000956A0060606060600094A2FFA2940008FA
:1004B000047E04080010207E20100008082A1C0872
:1004C00000081C2A0808001E10101010000C1E0C3A
:1004D0001E0C0030383E383000060E3E0E0600007E
:1004E000000000000000005F00000000070007009F
:1004F00000147F147F1400242A7F2A12002313087B
:1005000064620036495620500000080703000000CE
:100510001C224100000041221C00002A1C7F1C2AD2
:100520000008083E08080000807030000008080835
:100530000808000000606000002010080402003E6F
:100540005149453E0000427F4000007249494946FA
:10055000002141494D33001814127F1000274545F2
:100560004539003C4A49493100412111090700360B
:100570004949493600464949291E00000014000037
:10058000000040340000000008142241001414143C
:100590001414000041221408000201590906003E0B
:1005A000415D594E007C1211127C007F4949493649
:1005B000003E41414122007F4141413E007F494987
:1005C0004941007F09090901003E41415173007F03
:1005D0000808087F0000417F4100002040413F01A2
:1005E000007F08142241007F40404040007F021CF1
:1005F000027F007F0408107F003E4141413E007FA2
:1006000009090906003E4151215E007F091929466A
:100610000026494949320003017F0103003F404061
:10062000403F001F2040201F003F4038403F0063F4
:1006300014081463000304780403006159494D430E
:1006400000007F41414100020408102000004141A8
:10065000417F00040201020400404040404000008D
:1006600003070800002054547840007F2844443891
:1006700000384444442800384444287E0038545408
:1006800054180000087E0902001824241C78007FFA
:10069000080404780000447D4000002040403D00F4
:1006A000007F102844000000417F4000007C047857
:1006B0000478007C08040478003844444438007C02
:1006C0001824241800182424187C007C080404082A
:1006D0000048545454240004043F4424003C404047
:1006E000207C001C2040201C003C4030403C00444A
:1006F00028102844004C9090907C004464544C4452
:10070000000008364100000000770000000041367C
:100710000800000201020402003C2623263C0000DF
:100720000000000080C0E0F0F0300000C060F0F099
:10073000F0300080C020F0F0F020000000000080C9
:10074000C0E0703018B8F8F00000000000DC7E3F18
:10075000BEF0F0E000000000000080C0E070101863
:1007600018F8F06000000000C060F0F8F8300000F9
:100770000080E0F0F8F8300000000080E0F0FCFFBE
:100780003F0F0100000080C0E0F0F878000000009A
:100790000080C060309040203070E0C000004040D9
:1007A000404040404040404040000000E0FEFFFE2E
:1007B000F8C00000000000E0FCFFFEF000000000B8
:1007C0000000000000013EE080700E01000000000B
:1007D000073CE080780700000000000000000000F7
:1007E000180C06C3F9FE3FC7711806C3F07C1FC77B
:1007F000711806C3F8FE3F0F0180C0F0F8FEDF4716
:10080000636030381E0F0781402018060381F0FC1A
:100810007F1F0780C0E0F8FC3E0F030100000000CE
:1008200003018060100806E3FCFF3F0701C0308C25
:10083000E3FF7F1F0380C030188CE3F9FF3F0701FF
:1008400080C030180CC3F1FC7F0F0380C0F0FCFEA9
:100850003F0701003EC18080E0FC3F8F4040C0F078
:10086000FC7E4E0000000000000000F8FFFF1F07A4
:100870001FFFFEF0C0F8FF7F0F077FFFFEFC0404A0
:100880007880000000C0380C1C6080000000F00C74
:1008900004F41C80C0FCE6C3C1C1C3E6FCC08000F8
:1008A00000383F3F1F07030000383E3F1F0E030084
:1008B00000307F7F3F190C0603010F1F3F716060FE
:1008C0007030180804020100000000387E7F3F3BB2
:1008D00018040301000F1F312020202010180804E5
:1008E00002010000001C3F7F7F31180603183E3FC5
:1008F0003F1B0804020100001E3F3F3F1008040296
:10090000010000183E3F3F190C060301000F1F3184
:1009100060606030181C0F07030101000000183CE4
:100920003C1C00000000000000001F1F1F0700000B
:100930000000031F1F0F0100000000071F1F1EF80B
:10094000000F70300EC138070E70831C601E03C08C
:100950003E01003F7FFFFFF9C0C0F9FFFF7F3F006E
:10096000000000000000002A2B280000000000000A
:100970000000000000000000000029000000002C22
:100980001E3420212224342627252E362D373827C1
:100990001E1F202122232425263333362E37381FCD
:1009A0000405060708090A0B0C0D0E0F101112138F
:1009B0001415161718191A1B1C1D2F3130232D352D
:1009C0000405060708090A0B0C0D0E0F101112136F
:1009D0001415161718191A1B1C1D2F3130354C0011
:1009E0000000000000000000000000000000000007
:1009F00000000000000000000000000000000000F7
:100A00000000007E0F00D4FFFFFFC7000000780940
:100A1000025B00030100A0FA0904000001030101C8
:100A2000000921010100012240000705810308009F
:100A30000109040100020300000009210101000175
:100A400022220007058403080001070504030800AB
:100A50000109040200010300000009210101000155
:100A6000227B00070583030800011201100100002A
:100A70000008776D031700010102000112034D0009
:100A80006500720063007500740069006F0000006B
:100A900012034D00650063006800570069006C0098
:100AA00064000000040309040660FF0961A1010954
:100AB00062150026FF009520750881020963150064
:100AC00026FF00952075089102C005010902A101C9
:100AD00085020901A1000509190129081500250150
:100AE0009508750181020501093009311581257FBD
:100AF00095027508810609381581257F95017508CD
:100B00008106050C0A38021581257F95017508813B
:100B100006C0C005010980A101850319012AB7009B
:100B2000150126B700950175108100C0050C09015B
:100B3000A101850419012AA002150126A002950130
:100B400075108100C005010906A101050719E029FA
:100B5000E715002501950875018102950175088149
:100B6000030507190029FF150026FF0095067508E3
:100B70008100050819012905950575019102950166
:100B800075039103C00011241FBECFEFD8E0DEBF74
:100B9000CDBF11E0A0E0B1E0E8E5F6E502C00590C8
:100BA0000D92A63BB107D9F725E0A6EBB1E001C055
:100BB0001D92AA39B207E1F70E947A180C942A2BE9
:100BC0000C940000A82FB92F80E090E041E050EA9B
:100BD000609530E009C02D9182279795879510F098
:100BE00084279527305EC8F36F5FA8F30895EADF86
:100BF0008D939D930895CF93CFB7CF93DF93C395F4
:100C00004B9BE9F74B9B10C04B9B0EC04B9B0CC002
:100C10004B9B0AC04B9B08C04B9B06C0C091710503
:100C2000C395C09371058EC06F93C0917005DD2789
:100C3000C858DA4F2F9365E54B9B03C02F916F91F6
:100C4000E1CF0F931F934F9320E040E15F9309B1F1
:100C50000C7003FB27F93F9350E03BE039C01C7058
:100C600040642F77012F5F5F1EC0406819B11C7070
:100C70002F7752501FC0406409B12F770C70D1F10B
:100C80005F5F00C023C0406219B12F771C7091F1E3
:100C90005F5F00C025C00C701027515012F45D5FDB
:100CA0000000115027952C3F19B1C8F61C70012780
:100CB000015027952C3FC8F64227499309B10C7083
:100CC00010274F73115027952C3FA8F6469546954F
:100CD00019B11C7079F00127015027952C3F98F627
:100CE0006B5A60F3315009B1B0F600C012E01CBB82
:100CF00000271CC03B503195C31BD04012E01CBBE9
:100D00000881033C21F10B3411F120916D0519810B
:100D1000110F1213EDCF4A81441F093679F10D32BC
:100D200011F0013E29F74F7009F0042F009376056A
:100D30003F915F914F911F910F912F916F91CCB384
:100D4000C1FD5DCFDF91CF91CFBFCF91189520919D
:100D50007605222369F310917405112309F049C027
:100D600034300AF448C03093740520936F05109115
:100D700070053BE0311B309370053DC00091740558
:100D80000130BCF50AE54F7049F430911D0134FD86
:100D900033C000931D01CAE4D5E032C0433059F09E
:100DA000443091F03091550534FD26C0009355052F
:100DB000C6E5D5E025C030918E0534FD1DC00093F9
:100DC0008E05CFE8D5E01CC03091610534FD14C01C
:100DD00000936105C2E6D5E013C0052710E000C00E
:100DE00000000BB91AC0052710E0221F1DC010E03B
:100DF00021C04AE502C032ED432FC4E1D0E032E029
:100E00001AB11C605B9A0BB11AB95CE020E865E38B
:100E100020FF05270BB9279517951C3FF0F666951F
:100E2000B8F7B1F720FF05270BB9279517951C3F99
:100E3000D0F62795179517FF052700001C3F0BB923
:100E4000B0F629913A9519F7037F10917505110FA6
:100E5000C651D0400BB911F010936D0512E01CBBC8
:100E600008601AB1137F402F437F54E05A95F1F781
:100E70000BB91AB94BB95CCF1F93CF93DF93182FDF
:100E8000D62F0E946407C82F882349F0111107C08C
:100E9000DD2311F089EA01C08AEA0E94250B8C2F1C
:100EA000DF91CF911F91089582E00895CF930E9422
:100EB0009707C82F882329F060E088EF90E00E9410
:100EC000CC1D8C2FCF910895CF93DF93D82FC62FB1
:100ED0000E948E1C0E94041ED11123C08091B90172
:100EE000CC2369F0833048F4E0910001F0910101D6
:100EF000908191FF02C08F5F0CC089EA10C08823E7
:100F000069F0E0910001F0910101908191FF06C02C
:100F100081508093B9010E940F0E03C08AEA0E949B
:100F2000250B80E0DF91CF91089582E00895CF9363
:100F30000E944E2580FD15C081FD13C08091B9012E
:100F400081110FC08091D5010E945309811109C000
:100F500060E08BE691E00E94CC1D81E08093B801B7
:100F6000A9C08091B801882331F00E948E1C0E9494
:100F7000041E1092B80160E080E00E94ED1C60E069
:100F800086E691E00E94CC1D61E080E00E94ED1CAD
:100F900060E08EE591E00E94CC1D62E080E00E945E
:100FA000ED1C60E085E591E00E94CC1D63E080E0EF
:100FB0000E94ED1C60E08DE491E00E94CC1D62E097
:100FC00088E00E94ED1C8091B901813069F040F009
:100FD000823071F0833081F460E08FE392E00FC0E3
:100FE00060E086E692E00BC060E089E592E007C031
:100FF00060E08CE492E003C060E082E392E00E9453
:10100000CC1D63E088E00E94ED1C8091D5010E9418
:1010100053099091B901891304C060E085E292E020
:101020001EC08091D5010E945309813069F040F0C3
:10103000823071F0833081F460E081EF91E00FC085
:1010400060E088E192E00BC060E08BE092E007C0D6
:1010500060E08EEF91E003C060E084EE91E00E94DA
:10106000CC1D0E944E25C82F60E088E00E94ED1C38
:10107000C2FD03C088ED91E002C08EED91E060E01A
:101080000E94CC1D61E088E00E94ED1CC0FD03C001
:101090008CEC91E002C082ED91E060E00E94CC1DFA
:1010A000C1FD03C080EC91E002C086EC91E060E0FD
:1010B0000E94CC1D80E0CF91089584E00895843093
:1010C000B0F46730A0F4473090F491E3899FF001C9
:1010D000112487E0689FE00DF11D1124E40FF11D3C
:1010E000EE0FFF1FED58FD4F85919491089581E01B
:1010F00090E0089581E0089581E008950E947C08C1
:10110000089508950E9481080895A5E0B0E0EBE8F5
:10111000F8E00C94A12A49835A833091BF01898158
:101120009A81311114C0662359F0222349F00E949C
:10113000C90E182F682F89819A810E94A50E03C0BD
:101140000E94B70E182F69817A81812F04C00E94F6
:10115000C90E69817A810E940C162596E3E00C94F1
:10116000BD2AFC01262F40815181628173818481D7
:101170000E948508089581E00895CF93DF93EC01E4
:1011800060E00E94B108BE010E948208DF91CF9109
:10119000089508950E94920D0E94C9082FEF84E3DC
:1011A0009CE0215080409040E1F700C0000008958D
:1011B0000E94CA080E94E12608950E94CA080E945F
:1011C000F62608950F931F93CF93DF938C0161E070
:1011D0000E94B108EC01B8010E947E1B882309F42B
:1011E00050C0B801CE010E947E08882309F449C08E
:1011F000B801CE010E94B523882309F442C0B8018A
:10120000CE010E943F1F8823E1F1B801CE010E9468
:101210001B238823B1F1B801CE010E94F823882353
:1012200081F1F8018281882341F1C3308CE7D8072E
:10123000D1F040F4C115FCE7DF0791F0C130DC4785
:10124000A1F01BC0CB35ECE7DE07A9F0CC35FCE7FD
:10125000DF0771F0CA35DC4781F40E9443130DC0EB
:101260000E94D8080EC00E944B130E94DD0809C0DE
:101270000E94391302C00E944713C8010E947A08D5
:1012800001C080E0DF91CF911F910F9108950E94DE
:1012900011260E9484090E94F91E08950E9488095F
:1012A0000E941A260895982F92959F7019F0892F01
:1012B00024E001C020E0982F9695969511F02E5FBE
:1012C000892F982F969509F02F5F822F0895089502
:1012D00081E008950895CF93DF93D82F0E94680985
:1012E000C82F882319F08D2F0E946A098C2FDF9157
:1012F000CF9108950895CF93C82F0E9467098C2F2E
:101300000E946B09CF91089580E00E947B090895A7
:101310000E9441250E947B090895CF930E94412598
:10132000C82F8091BA01C81779F0C093BA010E9402
:10133000A0266093BB017093BC018093BD01909384
:10134000BE018C2F0E947B09CF910895ABE0B0E0E5
:10135000ECEAF9E00C94A22A4F83588769877A87D0
:101360008B8761110E9497129E012F5F3F4F86E08D
:10137000F90111928A95E9F785E0FE013796D901C6
:1013800001900D928A95E1F789819A814C815D8166
:10139000452B31F09F3F31F491E08F3F19F403C0AA
:1013A00091E001C090E090FF09C049815A816B81B2
:1013B0007C818D819E810E94C31105C0C9010E945C
:1013C000BB088111F2CF2B96E2E00C94BE2AFC01FF
:1013D000808191810E94F60E0895662319F00E9483
:1013E000FF1802C00E945A190E94D1190895CF9384
:1013F000882309F4A4C0C82F8238C1F40E94412573
:1014000081FD9DC069E380910001909101010E94DE
:10141000F6250E94BB122FEF87EE93E0215080400B
:101420009040E1F700C0000069E319C0833801F57E
:101430000E94412580FD83C063E580910001909169
:1014400001010E94F6250E94BB122FEF81EE94E06D
:10145000215080409040E1F700C0000063E580919A
:101460000001909101010E94F9250E94BB1267C002
:101470008438C1F40E94412582FD61C067E48091F7
:101480000001909101010E94F6250E94BB122FEFEE
:1014900081EE94E0215080409040E1F700C00000D0
:1014A00067E4DDCF8CEF8C0F813AD0F46C2F809104
:1014B0000001909101010E94C025882349F06C2F02
:1014C00080910001909101010E94F9250E94BB12B8
:1014D0006C2F80910001909101010E94F625C5CFEB
:1014E00080E28C0F883048F4C77081E001C0880F1B
:1014F000CA95EAF70E947A12B8CFEBE5EC0FE33019
:1015000040F4F0E0EC5AFE4F808190E00E946A25A2
:1015100016C0E8E5EC0FEB3150F4F0E0EE0FFF1FE2
:10152000E25EFE4F808191810E948F2508C083E397
:101530008C0F833120F461E08C2F0E94ED09CF9154
:101540000895882309F468C0823879F40E944125FF
:1015500081FF62C069E380910001909101010E94C6
:10156000F6250E94BB1269E310C08338B9F40E94CB
:10157000412580FF51C063E58091000190910101F8
:101580000E94F6250E94BB1263E5809100019091B4
:1015900001010E94F9250E94BB120895843879F454
:1015A0000E94412582FF38C067E48091000190913C
:1015B00001010E94F6250E94BB1267E4E6CF9CEF72
:1015C000980F913A10F4682FE0CF90E2980F98307E
:1015D00050F4877091E001C0990F8A95EAF7892F3E
:1015E0000E948012D8CF9BE5980F933028F480E0BA
:1015F00090E00E946A25089598E5980F9B3128F4A1
:1016000080E090E00E948F25089593E3980F933136
:1016100018F460E00E94ED0908951F93CF93DF93C3
:10162000182FEB010E94F709209741F08FE99FE006
:101630000197F1F700C000002197F6CF812F0E949B
:10164000A10ADF91CF911F910895893319F06AE0C3
:1016500070E002C060E570E00E940D0B08958823E1
:1016600021F00E947A120E94BB120895882321F073
:101670000E9480120E94BB120895A0E0B0E0E3E453
:10168000FBE00C949C2A7C01162FC72FFC01D28111
:10169000058102950F700E9470128823E9F0DD2306
:1016A000D9F08C2F807F803451F080E2810F883018
:1016B00098F0011104C08C2F807E803269F08091F7
:1016C000310382FF09C082E00E9407130E9470125A
:1016D00091E0D82ED92601C0D12CCC2EC2948FE017
:1016E000C8228C2D90E08C30910508F098C1FC0147
:1016F000EC5CFF4F0C94852A8C2F807FCF70882361
:1017000011F0C295C07FDD2399F0CC2309F46EC19E
:1017100080E2810F883010F0111104C08C2F0E94DC
:101720007A1203C08C2F0E948A120E94BB125EC1E3
:10173000812F0E94A10ACC2309F471C180E2810F9C
:10174000883038F1112329F18C2F0E94901224C087
:101750008C2F807FCF70803211F0C295C07F112313
:1017600019F01130D1F143C08091310382FD17C0CF
:10177000DD2349F0CC2329F08C2F0E947A120E949D
:10178000BB1280E034C180E00E94A10ACC2309F49E
:1017900046C18C2F0E9480120E94BB1240C1DD23E3
:1017A00071F0002341F0013031F40E949A128C2B29
:1017B0000E94A41234C10E949A128C2B23C00111E2
:1017C00003C00E94B11223C0013009F428C18C2F3C
:1017D0000E94360B0E94B11222C1DD2321F0063097
:1017E00008F01DC10EC0053008F019C110C0DD237E
:1017F00061F0002331F0F701858180FFF7C08F7021
:1018000085838C2F0E942F0B0AC10111F5C08C2FEC
:101810000E94360B04C18C2F86958695837019F033
:10182000813061F0FCC0DD2321F0812F9C2F93706B
:1018300002C080E090E00E946A25F9C0DD2321F01B
:10184000812F9C2F937002C080E090E00E948F2532
:10185000EEC06D2F812F0E94ED09E9C08C2F83709F
:1018600079F5D111E0C0412F429546954770440F5C
:10187000440F212F2F70042E01C0220F0A94EAF783
:1018800014FF08C08FE090E001C0880F4A95EAF786
:10189000809501C080E0C695C695C370822BC2308A
:1018A00049F058F4C13019F00E94F70DBCC00E94F5
:1018B000F10DB9C00E94FD0DB6C00E94EE0DB3C07F
:1018C000DD2319F08C2F817001C08695882309F4DF
:1018D000AAC0412F429546954770440F440F212FCF
:1018E0002F70042E01C0220F0A94EAF714FF08C0DB
:1018F0008FE090E001C0880F4A95EAF7809501C01B
:1019000080E0C695C695C370822BC23049F058F46A
:10191000C13019F00E94430E86C00E943D0E83C064
:101920000E94490E80C00E94060E7DC0CF70DD234C
:1019300039F08C2F0E94180E812F0E942F0B73C03C
:10194000812F0E94360B8C2F0E94240E6CC0123FF8
:1019500021F128F4103F41F0113FC1F043C0133F83
:1019600019F1143F79F03EC0DD2341F0053008F055
:1019700056C08C2F8F710E94310E51C0063008F076
:101980004EC0F7CF8091310382FD18C0DD2339F0BE
:101990008C2F8F710E94180E42C0DD23C9F38C2F4B
:1019A0008F710E94240E3BC0DD2329F08C2F8F7194
:1019B0000E940F0E34C00E940B0E31C0DD2349F08F
:1019C000CF718C2F0E94180E63E08C2F0E94E912B9
:1019D00026C081E00E940713023008F182E00E94D5
:1019E00007131DC0DD2331F0002391F2812F0E94E7
:1019F000F70915C0002399F2193341F4FFEF27EEE0
:101A000083E0F15020408040E1F704C0EFE3FCE9BF
:101A10003197F1F700C00000812F0E94A10A88EFE2
:101A20008C0D843020F40E9441250E947B09DD202A
:101A300089F00E946C1280FD0DC0F70112820E9495
:101A400066120E94180EC7010E94470D0E9466127E
:101A50000E94240ECDB7DEB7E8E00C94B82A0F93AD
:101A60001F93CF93DF93EC01688179818A810E9473
:101A7000010F8C010E944F0E0E94E10DB801CE01B2
:101A80000E943D0BDF91CF911F910F910895CF934D
:101A9000DF93EC01988189812B813C81232B31F0EC
:101AA0008F3F31F481E09F3F19F403C081E001C012
:101AB00080E080FD1AC0CE010E94E20881110FC0B3
:101AC0000E947012882389F08A81882371F08091A6
:101AD000310382FF0AC082E00E94071306C0CE01D4
:101AE0000E942F0DCE010E94BD08DF91CF91089575
:101AF00080E090E00E946A2580E090E00E948F25BF
:101B00000E9497120E94BB120E94F0190E94D119E4
:101B1000089580910001909101010E94FC250E948E
:101B2000780D08950E9487120E94890D089592955C
:101B30009F70963079F010F4925001C09A50923014
:101B400068F4803F69F018F4883E40F409C0843F8F
:101B500029F406C0883E20F0813F11F080E008950E
:101B600081E00895FC019081818123813481232BC0
:101B700031F08F3F31F481E09F3F19F403C081E0E1
:101B800001C080E080FD07C0808191810E94F60E37
:101B90000E94970D089580E00895A5E0B0E0E3ED80
:101BA000FDE00C94A22A2596E2E00C94BE2AA6E061
:101BB000B0E0EDEDFDE00C94A22A2696E2E00C9454
:101BC000BE2A089508950E94E20D08950E94E30D33
:101BD00008950E94E60D8093D60108950E94E90DB4
:101BE00008959091D601892B0E94E90D0895909156
:101BF000D60189230E94E90D08959091D601892785
:101C00000E94E90D08950E94E20D08950E94030EBE
:101C10008093D501089580E00E94060E089591E01A
:101C200001C0990F8A95EAF7892F0E94060E089540
:101C300021E030E001C0220F8A95EAF78091D501BA
:101C4000822B0E94060E089521E030E001C0220F91
:101C50008A95EAF720958091D50182230E94060E8D
:101C6000089521E030E001C0220F8A95EAF78091C3
:101C7000D50182270E94060E08959091D501892BE7
:101C80000E94060E08959091D50189230E94060EA8
:101C900008959091D50189270E94060E0895089510
:101CA000962F9770A1E001C0AA0F9A95EAF793E0EA
:101CB000769567959A95E1F7FB01EE0FFF1F6E0F82
:101CC0007F1FFA01E60FF71F40E050E0682F70E039
:101CD00090819B01042E02C0369527950A94E2F765
:101CE0002170219529272A23292721934F5F5F4FB0
:101CF0004330510569F708959B01782F777043E0D1
:101D0000969587954A95E1F7FC01EE0FFF1F8E0F20
:101D10009F1FF901E80FF91F40E050E080E021919A
:101D200030E0072E02C0369527950A94E2F721701D
:101D30003327042E01C0220F0A94EAF7822B4F5F4B
:101D40005F4F4330510559F70895282F973070F4AD
:101D5000873060F4862F622F70E027E0929F600D3D
:101D6000711D112440EC51E00E94500E08959730EF
:101D700070F4873060F4292F90E060EC71E037E078
:101D8000239F800D911D11240E947C0E089580E0F8
:101D90000895CF92DF92FF920F931F93CF93DF931B
:101DA0006C010091D5018091D601082BC3E0D0E0F1
:101DB00010E0C8010C2E02C0959587950A94E2F7B1
:101DC00080FD04C02197A8F7F12C07C0FC2EB601B6
:101DD0008C2F0E9418160197A9F38F2DDF91CF91B8
:101DE0001F910F91FF90DF90CF900895CF93DF93D5
:101DF000EC010E94C90EBE010E941816DF91CF911E
:101E000008951F93CF93DF93EB019091BF01992326
:101E100021F0CB010E94F60E13C0882349F0CB01BC
:101E20000E94C90E182F682FCE010E94A50E04C073
:101E3000CB010E94B70E182FBE01812F0E941816E9
:101E4000DF91CF911F910895E1E0F0E0DF0102C042
:101E5000AA0FBB1F6A95E2F7BD01DF0102C0AA0FFE
:101E6000BB1F4A95E2F7AD01462B01C0EE0F2A9544
:101E7000EAF7942F9823491302C08E2B0895E0951A
:101E80008E230895242F462F682F8091D5010E941C
:101E9000240F0E94060E08951F93CF93DF93C091E5
:101EA000D70116E08091D801C81799F0D0E01C9FA7
:101EB000F0011D9FF00D1124E752FE4F408151812A
:101EC00062817381848195810E94D70D2196C770AC
:101ED000E9CFDF91CF911F91089540910902509170
:101EE0000A0260910B0270910C0280910D02909198
:101EF0000E020E94D70D08952091D7019091D8012C
:101F000056E02917A9F030E0529FF001539FF00DE1
:101F10001124E752FE4F7181761306C07081781349
:101F200003C07281741306C02F5F3F4F2770E9CF43
:101F300080E0089581E008950F931F93CF93DF937E
:101F400080910E0282958F7009F05AC080910B0229
:101F5000882309F455C08091D7011091D801609170
:101F6000090270910A02C0910C02D0910D0291E019
:101F70006F3F09F090E0292F06E0811709F440C077
:101F8000209721F07F3F21F030E003C031E001C015
:101F9000322F90E030FD31C0089FF001099FF00D15
:101FA0001124DF01A752BE4F11963C9111973713B0
:101FB00024C03C91361321C012963C9112973111E6
:101FC0001CC013964D915C9114974C1B5D0B483CC3
:101FD000510598F480910E028F70806180930E02FB
:101FE000E252FE4F80818F708061808389E092E0B1
:101FF0000E94470D0E944C0F03C001968770BDCF11
:10200000DF91CF911F910F910895A1E1B0E0EBE036
:10201000F0E10C94982A8C0185E0F801DE011D9610
:1020200001900D928A95E1F7F801E2809091090202
:1020300020910A0240910C0250910D024115510568
:1020400031F02F3F31F481E09F3F19F403C081E06C
:1020500001C080E080FD78C1F801C080D18083801C
:10206000948089E0A82E82E0B82EF0900B02B40193
:10207000641B750BFF2009F411C180910E02382FEB
:10208000307F683C710508F0CBC031118AC0D21294
:1020900013C0C91211C0FE2CE1100EC08F708061F8
:1020A00080930E020E946D0FC5010E94470D809122
:1020B0000E02F801858362C18114910439F0FFEFAB
:1020C000DF1206C081E0CF1203C003C081E001C06F
:1020D00080E080FD03C081E08E2502C080E090E0BA
:1020E00080FF05C04E2D6D2D8C2D0E947C0F81141C
:1020F000910439F02FEFD21206C081E0C21203C062
:1021000003C081E001C080E080FD03C081E08E2536
:1021100002C080E090E0682F6170B62E80FF37C06B
:102120004E2D6D2D8C2D0E947C0FF82E81112FC00D
:10213000CD86DE868D859E850E94F60E292F2295FE
:102140002F70243020F49F70223028F009C02A50CC
:10215000223088F017C0992351F0811108C00EC1B8
:10216000992329F0F8019581907F09F407C1805ED9
:10217000883040F403C1803F08F400C1815F8330A0
:1021800008F4FCC0C8010E94470DFB2CF7C0FE2CD0
:10219000EE2009F4F3C080910E02816080930E025C
:1021A00054C0D21206C0C91204C0E11002C0F80126
:1021B00099C0C8010E94B20D882361F1EE2051F14F
:1021C00020910E02822F82958F7090E0029774F01A
:1021D0008091090290910A0298878F8319869B86C5
:1021E0008A862C87CE0107960E94470D86E0F8016B
:1021F000A9E0B2E001900D928A95E1F70E949C0F50
:102200000E946D0F0AC0D21611F1C8010E94B20DD2
:1022100081112CC0C8010E94470DFF24F394AEC069
:102220003111F1CF782D998A888AA6016E2D89897E
:102230000E94CD0D89E092E00E94470D86E0F501F5
:1022400011928A95E9F70E946D0FF12C97C0C9127F
:10225000DCCFE110DACFF8018583C8010E94470D79
:1022600086E0F50111928A95E9F788C0EE2091F297
:1022700020910E02822F82958F7090E002970CF4CD
:10228000B5CF8091090290910A029A8389831B82BB
:102290009D828C822E83CE010196A6CF683C71056B
:1022A00008F044C0FE2CEE2009F4B4CFD21230C0A6
:1022B000C9122EC020910E0220FD21C0822F8295CE
:1022C0008F70482F50E041155105C9F0F801258362
:1022D0004F30510541F08F5F982F9295907F822F5C
:1022E0008F70892B8583C8010E94470D86E0F80115
:1022F000A9E0B2E001900D928A95E1F73DC086E039
:10230000F801A9E0B2E001900D928A95E1F736C09C
:10231000C8010E94B20D811169CF80910E028160C7
:1023200080930E02C8010E94470D28C0782D998A1B
:10233000888AA6016E2D89890E94CD0D86E0F5015F
:1023400011928A95E9F718C0EE2009F463CFC8010D
:102350000E94B20DF82E882309F45CCF86E0F801C4
:10236000A9E0B2E001900D928A95E1F789E092E050
:102370000E94E7090E949C0F0E946D0F8F2D6196AD
:10238000ECE00C94B42AACE0B0E0E9ECF1E10C94A0
:10239000A12A4F83588769877A878B879C87CE01CC
:1023A00007960E9405108823D1F09F8188852A8591
:1023B0003B85232B31F08F3F31F481E09F3F19F4AF
:1023C00003C081E001C080E080FD47C04F81588597
:1023D00069857A858B859C850E94D70D3EC086E0F5
:1023E000FE013796DE01119601900D928A95E1F774
:1023F000FF81E8856A857B856115710531F0EF3FC6
:1024000031F481E0FF3F19F403C081E001C080E0B6
:1024100080FD23C02091D80130E0C901019687706A
:1024200099274091D70150E084179507F1F1F9837E
:10243000EA837D836C8396E0929FD001939FB00DD9
:102440001124A752BE4FFE01319601900D929A952C
:10245000E1F78093D8010E944C0F16E08091D701DC
:102460009091D801891771F1189FC00111248752EA
:102470009E4F0E940510882329F1E091D7011E9FED
:10248000F0011124E752FE4F408151816281738136
:10249000848195810E94D70D8091D70190E00196AB
:1024A000877099278093D701D9CF0E94920D1092FF
:1024B000D8011092D701E9E0F2E086E0DF011D9239
:1024C0008A95E9F72C96E3E00C94BD2A80910F02DF
:1024D000859585958595089580910F02877008955B
:1024E00090910F02977081E009F480E00895809147
:1024F0001A02089590911A02892B80931A02089566
:10250000809590911A02892380931A02089510925F
:102510001A02089590911902892B80931902089547
:102520008095909119028923809319020895109241
:102530001902089580911002089508950E949D1235
:1025400008950E949E1208959091310392FF08C051
:1025500090911002981721F0809310020E94A1120E
:10256000089580911002882329F01092100280E0D3
:102570000E94A1120895E0910001F0910101809163
:102580001A028083E0910001F09101019081809115
:102590001902892B808380911002882381F0E091B9
:1025A0000001F09101019081892B808380910001CD
:1025B000909101010E94B42581110E94B112809175
:1025C0000001909101010E94512508950E949D12E1
:1025D00008959091310392FF11C098E0899F900176
:1025E0001124262B20930F020E94180E80910F02B7
:1025F0008595859585950E94E61208950E94180E8E
:10260000089510920F0280E00E94E6120895209132
:102610000F028095822380930F02982F977099F470
:1026200030E0482F082E000C550B2417350759F0C1
:102630009091310392FF07C08595859585950E94FD
:10264000240E0E94011308959091310392FB2227DA
:1026500020F9281769F080FB92F99093310380915B
:102660003003909131030E946D1382E00E940713A2
:1026700008958091310382FB882780F991E08927B2
:102680000E942413089581E00E942413089580E09D
:102690000E94241308956FEF7FEF80E090E00E9486
:1026A000142B089580E090E00E94F02A873E9E4F10
:1026B00019F40E94121B089580E0089582E090E0D2
:1026C0000E94E82A089583E090E00E94E82A089595
:1026D00084E090E00E94F02A0895BC0184E090E03C
:1026E0000E94142B0895AB01BC018FE090E00E9482
:1026F000082B0895AB01BC0183E190E00E94082BF8
:10270000089560E070E0CB010E947A13089560E0C4
:1027100070E0CB010E9473130E948113089567EE4D
:102720007EEF80E090E00E94142B60E082E090E079
:102730000E94F62A60E083E090E00E94F62A109260
:10274000D60160E074E184E090E00E94142B60E028
:1027500086E090E00E94F62A6FEF87E090E00E940A
:10276000F62A40E050E0BA0188E090E00E94082B91
:1027700060E08DE090E00E94F62A40E050E0BA016F
:1027800088E190E00E94082B60E087E190E00E94E1
:10279000F62A40E050E0BA018CE190E00E94082B5C
:1027A00060E070E080E290E00E94142B40E050E096
:1027B000BA0188E190E00E94082B80E00E942B1B68
:1027C0000E94601B0E94871308950E948F13089532
:1027D000682F8EE090E00E94F62A0895A5E0B0E010
:1027E000E4EFF3E10C94A02A0E9494268C018091DE
:1027F0001B0290911C0208171907A1F08FEF898323
:102800008A831B820E9494268160782F9D838C830B
:1028100049815A816B818D810E94A60910931C0207
:1028200000931B022596E4E00C94BC2A0E94A0268B
:1028300060932C0270932D0280932E0290932F02AE
:10284000609328027093290280932A0290932B02AE
:1028500008950E94A02660932C0270932D0280930D
:102860002E0290932F02609324027093250280938E
:10287000260290932702089581E0089581E008954B
:102880000E943E14089508950E94431408950E94E2
:10289000431408950E94471408950E944314089514
:1028A0000E944D1408950E94431408958CEF96E100
:1028B0000E9437250E9453140E94501408950E94CC
:1028C00044140E94431408950E941B170E947A0921
:1028D00008950E948B260E94701B0E94F4200E9483
:1028E000E8170E94641480E00E94A31C0E944A140E
:1028F0000895A5E0B0E0EFE7F4E10C94992A0E9476
:102900003C14B82E811104C00E94EE13B12C52C0A9
:102910000E94FE178DE1E82E82E0F82E670100E0AC
:10292000F60111916F01802F0E94361781270F5FEA
:10293000073019F08823A1F302C0882329F380917E
:10294000300281FD0E943C170E944014982E10E036
:10295000812F0E943617A82EF701C080C82611F1DA
:1029600000E0DD24D3948C2D8D21B1F09920A1F0CD
:1029700009831A8391E08A2D8D2109F490E09B83CD
:102980000E9494268160782F9D838C8349815A818F
:102990006B818D810E94A6090F5FDD0C073019F74E
:1029A000F701A0821F5FFFEFEF1AFF0A173081F6D1
:1029B0000E9416140E941121182F81110E942914BF
:1029C0000E94131FB11001C011110E94DE1D0E9450
:1029D000121A0E948D092596EBE00C94B52A1F93DC
:1029E000CF93DF930E941D16EC01C11580E5D80737
:1029F000E8F5C11590E4D90708F0A8C0C03ED1059C
:102A000030F5CD3CD10508F094C0C83AD10578F432
:102A1000C53AD10508F083C0C130D10509F47CC0A6
:102A200008F4F2C0C430D10508F0F1C0EDC0C33CD9
:102A3000D10508F0E9C0C85AD0E0CC0FDD1FC95A53
:102A4000DE4F0990D881C02DCE019464E1C0C1153C
:102A500080E2D80708F0CBC0C11591E0D90708F093
:102A60006BC0C83ED10508F4D2C0CEC0C03682E5E6
:102A7000D80728F5C03492E5D90708F079C0C032EC
:102A800082E5D80708F06CC0C11592E5D90708F4B3
:102A900081C04C2F4695469580E2489FA0011124A5
:102AA000C37021E030E0C90102C0880F991FCA95A8
:102AB000E2F7EA01C82BD92BCE019D68A9C0C03A24
:102AC00082E5D807B8F48C2F8F71C03892E5D9070A
:102AD00008F07BC08695869590E2899F900111242D
:102AE000C37081E090E002C0880F991FCA95E2F799
:102AF0009A6868C0C03C82E5D80708F46DC0C03E43
:102B000092E5D90708F080C0CF71DD27DC2FCC27F4
:102B1000CE01806F906A7CC081E090E079C0C55A98
:102B2000D0E0C357DE4F8881C82FD0E0CE0190643B
:102B30006FC0CE0190656CC08D2F0E94B916182F02
:102B4000CE0199270E941D161F715CC0CE019927E6
:102B50000E941D16CC27DF70D06A8C2B9D2B58C08D
:102B6000CF71D0E0DC2FCC27CE01816F906A50C0AE
:102B70008C2F8F718695869590E2899F9001112404
:102B8000C37081E090E002C0880F991FCA95E2F7F8
:102B90009C6818C08C2F8F710E94B91695E0D6954D
:102BA000C7959A95E1F7CF70D0E0DC2FCC27282F7E
:102BB00030E084FF05C084E0220F331F8A95E1F7DF
:102BC000D069CE01822B932B23C090E0D82FCC2745
:102BD000CE01846F906A1CC08C2F8F710E94B91631
:102BE0008F7190E0D82FCC27CE01906211C08D2F2D
:102BF0008F710E94B916182FCE0199270E941D16B9
:102C00001F719062912B04C080E090E001C0CE0162
:102C1000DF91CF911F910895773038F4673028F411
:102C2000462F672F0E943322089580E090E0089598
:102C30000E940C160E94EF1408958238910569F1E4
:102C4000B0F48133910509F475C048F489329105D7
:102C500009F467C08A32910509F471C0089585337B
:102C6000910509F459C089339105B9F00895833E5F
:102C7000910589F138F4803E9105D1F0823E9105AD
:102C800029F10895863E9105C9F1873E9105D9F154
:102C9000843E910509F06CC027C02091300320FDCF
:102CA00057C021FD55C02091310323FD5BC008951D
:102CB0008091300380FD48C08091310380FF48C07F
:102CC0008091300384FD46C083EE51C08091300373
:102CD00082FF3CC0F5CF8091300382FD37C08091E8
:102CE000310380FD35C0ECCF8091310381FF36C0C8
:102CF0008091300384FD2EC087EE39C0809130036F
:102D000083FF2AC0F5CF8091300383FD25C08091D9
:102D1000310381FD23C0ECCF8091300385FD22C0BB
:102D20001FC08091300385FD1BC08091310383FF5C
:102D300019C00AC08091300386FD16C017C080916B
:102D4000300386FD13C010C089E311C082EE0FC0AE
:102D500080EE0DC080E00BC086EE09C084EE07C097
:102D600085E305C089E203C08AE201C081E390E007
:102D700008959091300392FF0DC0282F28712830BC
:102D800019F4877F846006C0282F2471243011F441
:102D90008B7F886093FF0DC0282F2871283119F48C
:102DA000877E846106C0282F2471243111F48B7E24
:102DB00088612091310320FF0DC0382F38713830E1
:102DC00019F4877F816006C0382F3171313011F4DA
:102DD0008E7F886021FF0DC0282F2871283119F4BB
:102DE000877E816106C0282F2171213111F48E7EEA
:102DF000886194FD877E089580E008950E944B13BA
:102E000008950E94FE172FEF86E791E02150804041
:102E10009040E1F700C000000E94FE1780E00E9491
:102E2000361780FF04C00E94FE160E94E126089516
:102E30000E94011708950E945213811102C00E943E
:102E4000E5130E945E13809330020E9468139093F2
:102E50003103809330030E9418170E9463130E946D
:102E6000EE0D8091D5010E94030E0895E82FF0E049
:102E7000E75CFC4F80810895089580EA8A95F1F718
:102E8000089500C008950E943D17089508950E9476
:102E9000461708950E94471708950E9446170895FF
:102EA0000E944D170895F894E82FE295EF70F0E036
:102EB00031A1282F2F7081E090E001C0880F2A9562
:102EC000EAF7982F9095932391A392A1892B82A33F
:102ED000789408950F931F93CF93DF93C7E9D1E0C0
:102EE00089918F3F11F00E94531781E0CE39D807A6
:102EF000B9F7C0E9D1E007E911E089918F3F11F0FE
:102F00000E9453170C171D07C1F7DF91CF911F9136
:102F10000F910895A0E0B0E0E0E9F7E10C949C2A5D
:102F20008C01C62FD0E0CE0189569E4F7C01FC015A
:102F300090819F3F09F447C0D62EF894E92FE2957F
:102F4000EF70F0E081A19F7021E030E001C0220F1E
:102F50009A95EAF7822B81A382A12095282322A3A8
:102F600078940E944117E0E9F1E047E951E031E04F
:102F7000C12C21912F3F89F0A22FA295AF70B0E014
:102F800090968C9190E02F7002C0959587952A9528
:102F9000E2F780FD02C0832F01C080E0C82A330F12
:102FA0004E175F0731F7F70180818F3F11F00E94C4
:102FB000531761E0C11001C060E08D2D0E944317DE
:102FC000C00FD11FC882CDB7DEB7E8E00C94B82A95
:102FD0000E946A1787E0E9E3F3E0DF01982F1D9272
:102FE0009A95E9F7E2E3F3E0DF011D928A95E9F7AC
:102FF00087E00E9439180E9450170895A7E0B0E0BA
:10300000E4E0F8E10C949F2A8E010F5F1F4F87E0E8
:10301000F80111928A95E9F7F12C6F2DC8010E94F1
:103020008A17F394F7E0FF12F8CF47E050E0B801B9
:1030300082E393E00E94D22A21E0009709F420E085
:10304000892B41F087E0F801A2E3B3E001900D92F3
:103050008A95E1F747E069E373E082E393E00E9439
:103060003A18182F0E944A17812F2796E5E00C94F2
:10307000BB2A0895EF92FF920F931F93CF93DF9394
:103080007C018B01C42F222349F081E0809333021D
:103090000E949426909332028093310280913302F1
:1030A000811102C080E01AC08091310290913202F9
:1030B0000E94AC260597B0F3D0E0AE01B701C8017D
:1030C0000E94D22A892B39F0AE01B701C8010E94B3
:1030D000DF2A81E001C080E010923302CDB7DEB775
:1030E000E6E00C94BA2A0E9411270E9469140E94FB
:1030F000222708950E9431260E9401270E9456141B
:103100000E9473180E9430270E945F14FBCF8091A9
:103110003A0280FF06C06091070170E0660F771FDA
:1031200026C081FF04C06091070184E005C082FFD2
:1031300007C06091070188E0689FB001112417C0A3
:10314000909139029923D1F060910601961788F782
:103150002091070188E0289F90011124929FA001EF
:10316000939F500D112470E0CA010E94712A6038AB
:10317000710540F46115710519F406C068E070E04E
:10318000862F08958FE7089581E0089580913A028F
:1031900080FF08C06091030170E075956795759593
:1031A000679521C081FF06C06091030170E07595AD
:1031B000679519C082FF04C06091030170E010C0E0
:1031C00090913802992399F0609102019617A0F727
:1031D00080910301899FC001112470E00E94712A2F
:1031E0006038710540F46115710519F406C061E09D
:1031F00070E0862F08958FE7089581E008958D3C53
:1032000021F40E948718819504C08E3C29F40E9405
:10321000871880933E0208958F3C21F40E948718FE
:10322000819504C0803D29F40E94871880933D0257
:103230000895893D19F40E94C61805C08A3D31F4ED
:103240000E94C618819580933F0208958B3D21F41A
:103250000E94C618819504C08C3D29F40E94C618AE
:103260008093400208959FE2980F983078F421E00F
:1032700030E0A90102C0440F551F9A95E2F7CA0138
:1032800090913C02892B80933C0208958D3D21F45E
:1032900080913A0281600BC08E3D21F480913A0208
:1032A000826005C08F3D29F480913A02846080934A
:1032B0003A0208958D3C39F490913E0297FF35C053
:1032C00010923E0259C08E3C29F490913E0219168C
:1032D000BCF32BC090913D028F3C29F497FF25C091
:1032E00010923D0249C0803D19F41916CCF31DC05F
:1032F00090913F02893D29F41916BCF410923F02C7
:103300003BC08A3D19F497FF10C0F8CF8B3D39F4CC
:103310009091400297FF09C0109240022DC08C3D51
:1033200021F4909140021916BCF39FE2980F983057
:1033300080F421E030E0A90102C0440F551F9A95A6
:10334000E2F7CA01809590913C02892380933C0268
:1033500013C08D3D21F480913A028E7F0BC08E3DCB
:1033600021F480913A028D7F05C08F3D29F4809130
:103370003A028B7F80933A0280913D02811106C010
:1033800080913E02811102C01092390280913F0269
:10339000811106C080914002811102C01092380252
:1033A00008950E94942620913D02211104C020918D
:1033B0003E02222321F0909337028093360220911F
:1033C0003F02211104C020914002222321F090935A
:1033D0003502809334028BE392E00E945C250895CD
:1033E000EBE3F2E086E0DF011D928A95E9F71092A7
:1033F00039021092380210923A020895FC0182813B
:1034000081110DC0838181110AC08481811107C09F
:1034100091E08581811101C090E0892F01C081E098
:1034200081700895A6E0B0E0E8E1FAE10C94A12AE9
:1034300086E0EBE3F2E0DE01119601900D928A95B1
:10344000E1F710923D0210923E0210923F0210925C
:1034500040028B81811104C08C81882309F45FC0F4
:1034600080913602909137020E94AC26AC01909177
:103470003902992339F02091080130E024173507EB
:1034800058F04DC0209109018AE0289F9001112435
:103490002417350718F043C09F3F19F09F5F9093A2
:1034A00039021B81112361F00E948718111614F054
:1034B0009FEF01C091E0989F902D112490933D02C1
:1034C0001C81112361F00E948718111614F09FEFE0
:1034D00001C091E0989F902D112490933E0230916D
:1034E0003D023323E1F020913E022223C1F045EB5F
:1034F0003403C0011124992319F090933D0203C0B5
:1035000081E080933D0235EB2303C0011124992310
:1035100019F090933E0203C081E080933E028D81BA
:10352000811104C08E81882309F45FC08091340228
:10353000909135020E94AC26AC01909138029923FB
:1035400039F02091040130E02417350758F04DC0C0
:10355000209105018AE0289F900111242417350746
:1035600018F043C09F3F19F09F5F909338021D8170
:10357000112361F00E94C618111614F09FEF01C0CC
:1035800091E0989F902D112490933F021E8111236A
:1035900061F00E94C618111614F09FEF01C091E06F
:1035A000989F902D11249093400230913F02332335
:1035B000E1F0209140022223C1F045EB3403C00129
:1035C0001124992319F090933F0203C081E0809366
:1035D0003F0235EB2303C0011124992319F0909386
:1035E000400203C081E080934002BE016F5F7F4FC5
:1035F0008BE392E00E940326811105C08BE392E0E9
:103600000E94FE1981110E94D11986E0FE013196B7
:10361000ABE3B2E001900D928A95E1F72696E3E0E4
:103620000C94BD2A82E290E00E94E82A823281F462
:1036300083E290E00E94E82A853051F484E290E031
:103640000E94E82A91E0893009F090E0892F01C0BA
:1036500080E081700895CF93C82F811102C06FEF71
:1036600001C062E282E290E00E94F62AC11102C02B
:103670006FEF01C065E083E290E00E94F62AC1117D
:1036800002C06FEF01C069E084E290E00E94F62A78
:10369000CF910895089585E290E00E94E82A682F6E
:1036A00070E080E090E008950895CF93C62F0E94C7
:1036B000541B6C2F85E290E00E94F62ACF9108956A
:1036C00080E00E942B1B60E070E0CB010E94551B44
:1036D0000E94C6210E94882281E00E942B1B08952F
:1036E0000E944A1B0E944B1B0E94541B0E94121BEB
:1036F000811102C00E94601B089508959C01FB0186
:103700008281882351F0A90157574038510530F480
:10371000C9010E94982280E0089581E008952FEF6A
:10372000FC01208308950E948F1B089580E0089576
:10373000A0E0B0E0EEE9FBE10C949A2AEC01F62E51
:103740000E94961B8111BEC0E8818E2F90E0FC0183
:103750003197E331F10508F0AFC0E05CFF4F0C9406
:10376000852A19828CE06BC08981823089F030F41F
:10377000813009F0A1C00E94A0260CC0833079F0EE
:10378000843009F099C01A821B821C821D8296C067
:103790000E944B1B9A838B837C836D838FC0EA804E
:1037A0006E0183E0C80ED11C00E010E0AE2CB12CFD
:1037B000C501800F911F079708F080C08E2D800FE4
:1037C0000E943617F60181936F010F5F1F4F0C3176
:1037D000110571F773C08981823039F0853009F0A5
:1037E0006BC08A810E947D1B69C06A817B818C814C
:1037F0009D810E948B2A0E94551B60C04B816A816B
:1038000089810E948A219C838D8358C02C813D81AF
:103810003227232732274B816A8189810E94AB217D
:103820004DC00E94C6214AC06F2DCE010E94931B3D
:1038300045C00E943F2224C00E94412299838A836E
:103840003DC06B8170E089819A81AE014C5F5F4F12
:103850009827892798270E94442230C06B8170E006
:1038600089819A81AE014C5F5F4F982789279827FD
:103870000E94672223C00E94882220C00E947721D4
:1038800089831CC06B8170E089819A81AE014C5F95
:103890005F4F9827892798270E94F1210FC06B81DD
:1038A00070E089819A81AE014C5F5F4F982789272C
:1038B00098270E94132202C08FEF88836F2DCE01BC
:1038C0000E94FF27CDB7DEB7EAE00C94B62AEF924C
:1038D000FF920F931F93CF93DF93EC017B0164E67C
:1038E00070E088E70E9449248C01EC0EFD1ECE1585
:1038F000DF0561F017FD0AC0FE01849164E670E007
:103900000E94BC248C012196892B89F30E943325C7
:10391000C801CDB7DEB7E6E00C94BA2AE0E4F3E0E4
:1039200080E092E0DF019C011D9221503040E1F7E0
:10393000F0934505E09344058FEF9FEF90936D0260
:1039400080936C0208950E9454070E94950780930B
:10395000680280FD02C080E801C080E280936702B7
:103960000E9443246DE070E082E194E00E94671CB5
:10397000892B11F080E008958091680263E070E087
:1039800081FD03C08FE094E002C08CE094E00E94CF
:10399000671C892B79F76DE070E08FEF93E00E9450
:1039A000671C892B39F70E94A026DC01CB01805AC5
:1039B0009541AF4FBF4F8093400590934105A09331
:1039C0004205B09343050E948E1C81E080936B02F8
:1039D00080936A021092690208952091670236E08E
:1039E000839FC0011124629F800D911D11248115B8
:1039F00022E0920714F080E090E0805C9C4F90936E
:103A0000450580934405089520914405309145056E
:103A10002A53334040916702642F70E0C9010E942D
:103A20005D2A481B463010F4240F311D211582E019
:103A3000380710F020E030E0205C3C4F3093450523
:103A40002093440508951F93CF93DF93162F8A3058
:103A500011F481E003C08D3021F480E00E949B1DB1
:103A600066C0C0914405D091450596E0FE01A1E4F1
:103A7000B2E001900D929A95E1F7803E30F086E039
:103A8000FE0111928A95E9F70BC0F6E08F9FB00115
:103A90001124615E7B4F46E050E0CE010E94C92AAE
:103AA000111135C0C0914405D091450546E050E064
:103AB000BE0181E492E00E94D22A892BB1F1C05468
:103AC000D3409E0185E0369527958A95E1F781E000
:103AD00090E0AC0102C0440F551F2A95E2F72091F7
:103AE0006C0230916D02242B352B259645E0D6953E
:103AF000C7954A95E1F702C0880F991FCA95E2F76A
:103B0000822B932B90936D0280936C020EC0E091F8
:103B10004405F09145059F012A5F3F4F2E173F074F
:103B200009F2808180958193F9CF0E94041DDF9175
:103B3000CF911F910895CF93E82F209144053091A4
:103B400045052054334040916702642F70E0C9015D
:103B50000E945D2A481B842FEE2359F066E00E94E4
:103B6000512AC82FC150B0F060E080E20E94231DAE
:103B7000F9CFA901480F511D4115524018F080E0BE
:103B800020E030E0280F311D205C3C4F309345058C
:103B900020934405CF9108951F93CF93DF93EC01B9
:103BA000162FFE018491882329F0612F0E94231D86
:103BB0002196F7CFDF91CF911F91089580916B02ED
:103BC0008823F9F00E94A026DC01CB01805A9541A0
:103BD000AF4FBF4F8093400590934105A09342059E
:103BE000B093430580916A0281110BC062E070E0DE
:103BF0008DEF93E00E94671C892B19F481E080937C
:103C00006A0280916A020895A0E0B0E0EAE0FEE175
:103C10000C94942A80916C0290916D02892B09F486
:103C2000E3C080916B02882309F4DEC080916902B1
:103C30008111DAC00E94DE1D20916C0230916D026C
:103C40002115310509F4D0C080E041E050E0082F93
:103C500010E02A01082E02C0440C551C0A94E2F719
:103C6000B20162237323672B11F48F5FF0CF909121
:103C70006802980165E0220F331F6A95E1F790FF13
:103C800013C055E0369527955A95E1F7220F220F7C
:103C9000220F20930C0110920F01295F20930D0138
:103CA00083E08093100111C08295880F8076809305
:103CB0000C01220F232F221F330B319520930F016C
:103CC000815E80930D011092100124E630E047E000
:103CD00050E06AE071E088E70E94EB24892B09F04C
:103CE00083C08091680280FF60C080E2E7E4F2E078
:103CF000DF011D928A95E9F7680135E0CC0CDD1CE7
:103D00003A95E1F7A2EAB1E04EE951E006EA11E0A6
:103D1000772473948D91EA019991AE01B601690FF0
:103D2000711D605C7C4F90E0895B9D4FFC0127E03A
:103D3000A22E9F01281B390B872C01C0880C2A95C5
:103D4000EAF77B01912CE701B9907E01B8202A2D7A
:103D500029192770622E022E000C330BDB2D01C0B7
:103D6000DD0F6A94EAF76D2E3195219531092770A0
:103D7000332701C0B6942A95EAF7BD2A2081B22ADA
:103D8000B082939428E09212DECFAA943196CFEFBE
:103D9000AC12CFCF0A171B0709F0BCCF04E610E026
:103DA00020E230E047E452E00CC0A80185E0440F77
:103DB000551F8A95E1F7405C5C4F04E610E020E275
:103DC00030E060E488E70E940C25892B69F4E20169
:103DD000C095D09580916C0290916D02C823D92333
:103DE000D0936D02C0936C02CDB7DEB7E0E10C94C6
:103DF000B02A80916B0290916A02882389F09923FE
:103E000069F062E070E08BEF93E00E94671C892B01
:103E100019F080916A02089510926A0290916A02E4
:103E200081E0892708950F931F9380916B02882367
:103E300019F160E080E00E94ED1C0E9456070E948C
:103E4000041E80916A028823B9F00E94A026009186
:103E50004005109141052091420530914305DC0158
:103E6000CB01801B910BA20BB30B8F3F9F4FAF4F2A
:103E7000BF4710F40E94F91E1F910F910895CF9330
:103E8000DF93FC01DB0112968C91882309F4DDC0DD
:103E90009F0130572332310508F0D8C0EF010E944E
:103EA00068139093310380933003FE01E150F04793
:103EB000E232F10520F4ED5AFF4F0C94852A8091EF
:103EC00030038160AAC0809131038860B2C08091C4
:103ED00030038260A2C08091300320C08091300303
:103EE00088609BC0809131031EC080913103826045
:103EF000A0C080913003806190C0809130038062C7
:103F00008CC080913003806488C00E94920D8091A3
:103F10003003806882C080913003886084607DC0F7
:103F2000809131038260816084C0809130038E7FF4
:103F300074C080913103877F7CC0809130038D7F76
:103F40006CC08091300320C080913003877F65C0B2
:103F5000809131031EC0809131038D7F6AC08091B2
:103F600030038F7E5AC0809130038F7D56C0809180
:103F700030038F7B52C00E94920D809130038F7767
:103F80004CC080913003877F8B7F47C08091310385
:103F90008D7F8E7F4EC08091300382FB222720F9D7
:103FA00091E0922790FB82F990FB83F936C08091D3
:103FB0003103982F909591708E7F892B90FB81F91A
:103FC00038C08091300386FB222720F991E09227A8
:103FD00090FB86F922C00E94920D8091300387FBEE
:103FE000222720F991E0922790FB87F916C081E003
:103FF00001C080E00E94E8131EC08091300384FB62
:10400000222720F991E0922790FB84F906C0809145
:104010003003982F909590FB80F9809330030BC06C
:104020008091310383FB222720F991E0922790FBB6
:1040300083F98093310380913003909131030E9482
:104040006D130E94920D80E001C081E0DF91CF915D
:104050000895A0E0B0E0EFE2F0E20C949D2AE82F92
:10406000F0E0E15AF64FD490282F26952695269514
:1040700030E0F901E150F64F0491877010E0082E0E
:1040800002C0159507950A94E2F701701127F9010E
:10409000E151F64FE490F12C082E02C0F594E7941C
:1040A0000A94E2F791E0E922FF24F901E152F64F88
:1040B000C491D0E002C0D595C7958A95E2F7C1704A
:1040C000DD270115110519F081EE0E94F709E114B1
:1040D000F10419F086EE0E94F7098D2D0E94250B40
:1040E000E114F10419F086EE0E94A10A01151105F0
:1040F00019F081EE0E94A10ACD2B19F08CE20E94EA
:10410000250BCDB7DEB7E7E00C94B92AEF92FF920A
:104110000F931F93CF93DF93EC01162F0AE0888152
:10412000882309F455C0813009F043C0898181306A
:1041300041F47E0182E0E80EF11C8A810E94250B89
:1041400009C0823049F47E01E2E0EE0EF11C8A8162
:104150000E94F709E7012FC0833041F47E01F2E0AD
:10416000EF0EF11C8A810E94A10AF4CF843011F075
:10417000219621C02A81229680E090E030E02053F1
:1041800031092A30310558F4089FA001099F500DCC
:104190001124C901840F951F21962881EFCF009724
:1041A00051F0EFE9FFE03197F1F700C0000001970F
:1041B000F6CF0E9429202196812F882309F4AFCFC2
:1041C000EFE9FFE03197F1F700C000008150F5CF33
:1041D000CDB7DEB7E6E00C94BA2A8FE891E00197FC
:1041E000F1F700C00000089581E080936F022498E9
:1041F0002C9A25982D9A0E94ED2030916F02E1E7CC
:10420000F2E090E0931761F083B1829581701D997F
:1042100002C020E001C022E0822B81939F5FF2CF99
:104220000895A0E0B0E0E7E1F1E20C949C2AF12CC3
:10423000E12C84E0C82ED12C80916F02F81608F092
:1042400050C00F2D10E0E3B1E295E1701D9902C05E
:1042500080E001C082E08E2BD801AF58BD4FEC91B9
:104260002E2F237030E0482F082E000C550B2417FA
:104270003507A9F1EE0FEE0FE82BEC93EF70F0E0AD
:10428000EA55FE4FE801C059DD4F90818881890FC2
:104290008883843064F0F801E259FD4F80818F5F9C
:1042A000808360E08F2D0E943C0721E001C020E068
:1042B00088818D3F5CF4F801E259FD4F8081815087
:1042C000808361E08F2D0E943C0721E08881082EC9
:1042D000000C990BB6010E94712A8883E22AF3949C
:1042E000ABCF8E2DCDB7DEB7E8E00C94B82A84E0D2
:1042F000089550E0440F551F2EE0629F400D511D60
:1043000011249A0162E6869F200D311D1124C901F6
:10431000869608950F931F93CF93DF938430A0F474
:10432000673090F4473080F40E9479218C010E941C
:10433000E82A90E0D82FCC27C80101960E94E82AED
:104340009E01282BC90102C080E090E0DF91CF914F
:104350001F910F9108950F931F93CF93DF93843094
:1043600080F4673070F4473060F4E9010E947921ED
:104370008C016D2F0E94F62A6C2FC80101960E94B5
:10438000F62ADF91CF911F910F9108950F931F93FC
:10439000CF93DF93C0E0D0E010E000E00E945D0822
:1043A00090E0C817D9073CF4402F612F8C2F0E9452
:1043B0005F089C0102C021E030E0402F612F8C2F6C
:1043C0000E94AB210F5F073049F71F5F173029F7B5
:1043D0002196C430D10501F7DF91CF911F910F9144
:1043E0000895EF92FF920F931F93CF93DF93EA010B
:1043F0007A01E60EF71E8C01C8018696CE15DF0500
:1044000069F0083821E0120720F40E94E82A888326
:1044100001C0188221960F5F1F4FEECFCDB7DEB7D8
:10442000E6E00C94BA2AEF92FF920F931F93CF937A
:10443000DF93EA017A01E60EF71E8C01C801869629
:10444000CE15DF0559F0083821E0120718F468810D
:104450000E94F62A21960F5F1F4FF0CFCDB7DEB72F
:10446000E6E00C94BA2A843038F4673028F44730F8
:1044700018F40E948A21089580E090E0089580E178
:10448000089582E592E00895EF92FF920F931F93B3
:10449000CF93DF93EA017A01E60EF71E8C01C80183
:1044A00082559E4FCE15DF0569F0023522E01207D6
:1044B00020F40E94E82A888301C0188221960F5FA9
:1044C0001F4FEDCFCDB7DEB7E6E00C94BA2AEF92DE
:1044D000FF920F931F93CF93DF93EA017A01E60EC9
:1044E000F71E8C01C80182559E4FCE15DF0559F08D
:1044F000023522E0120718F468810E94F62A2196FC
:104500000F5F1F4FEFCFCDB7DEB7E6E00C94BA2AAE
:10451000CF93DF93CEEAD1E060E0CE010E94F62A8D
:104520002196C11584E0D807B9F7DF91CF9108959E
:10453000A8E0B0E0EEE9F2E20C94982AF82E8FE0C1
:104540008F1508F474C08FEF93E00E94E82A811160
:104550006EC00EEA11E0FF2071F0011594E019071A
:1045600009F465C0C8010E94E82A811101C0FA94CB
:104570000F5F1F4FF0CFFE0131966F0188E011925F
:104580008A95E9F77801FFEFEF1AFF0AC8010E9448
:10459000E82A89831A82882309F449C0813009F006
:1045A00040C0580182E0A80EB11CC7010E94E82A51
:1045B0008A838823E1F19FEF980F933060F47801AC
:1045C00093E0E90EF11CC5010E94E82A8B83882341
:1045D00071F11C8226C0843019F54E01E3E08E0E85
:1045E000911C02E010E07501FFEFEF1AFF0AC50110
:1045F0000E94E82AF40181934F018823C1F08C378F
:1046000041F4E2E0F0E0EC0FFD1FE00FF11F10823B
:1046100008C00F5F1F4F57010730110521F707C072
:1046200075016AE0C6010E9486208701ABCF2896FB
:10463000ECE00C94B42ACF93DF9386319C4741F58C
:10464000EB010E947712982F8A812091000130910E
:104650000101882379F09A7A81E009F480E080935F
:104660007202911102C069E201C065E3C9010E94B2
:10467000F6250AC080917202811102C069E201C070
:1046800065E3C9010E94F9250E94BB1280E001C0C8
:1046900081E0DF91CF9108950F931F93CF93DF9324
:1046A000C42FD22FFC0182818823B1F04093750280
:1046B0000E949426909374028093730280E28C0F80
:1046C000883008F04DC0C77081E001C0880FCA95DE
:1046D000EAF70E942F0B44C080917502481330C046
:1046E00080917302909174020E94AC26883C9105DF
:1046F00038F510E21D0FCD17B9F080E28C0F88302D
:1047000040F4C77081E001C0880FCA95EAF70E94A3
:10471000360B183010F581E09D2F977001C0880F7F
:104720009A95EAF70E942F0B802F0E94250B1830D4
:10473000B8F4D77081E001C0880FDA95EAF70AC0B3
:1047400080E28C0F883060F4C77081E001C0880F70
:10475000CA95EAF70E94360B03C0802F0E94250BF2
:10476000DF91CF911F910F9108950F93FC01E851B4
:10477000FC47E730F10590F5CB01EB58FF4F0C9467
:10478000852A06E221EE41EE6AE17CE723C007E2DA
:1047900025EE45EE6BE17CE71DC006E221EE40EE22
:1047A00068E17CE717C007E225EE44EE69E17CE7AB
:1047B00011C006E221EE42EE6CE17CE70BC007E29D
:1047C00025EE46EE6DE17CE705C008E221E045EE0E
:1047D0006EE17CE70E944C2380E008C0FB018281EF
:1047E000882319F01092750201C081E00F9108959D
:1047F0001F93CF93DF9387372CE7920721F08837F9
:104800009C4759F031C0FB01C281CC2319F00E94B2
:104810003A2409C00E943A2418C0FB01C281CC236B
:1048200091F00E943D240E94180E0E944024D82F2F
:104830000E943D24C82F0E943A244D2F6C2F0E94C5
:10484000420FC0E012C00E943D240E94240E0E942C
:104850004024182F0E943D24D82F0E943A24412F33
:104860006D2F0E94420F01C0C1E08C2FDF91CF91CC
:104870001F91089580911301089580911201089568
:104880008091110108951092B9008CE08093B800D6
:104890000895A0E0B0E0EFE4F4E20C94992AB82E79
:1048A000EB010E9494266C01C431D10558F0CF3F32
:1048B0008FEFD80759F0CE0164E170E00E945D2AC5
:1048C0007B0107C0EE24E394F12C03C025E0E22E27
:1048D000F12C84E8A82E94EA992E1092BC009092B4
:1048E000BC000E9494268C018091BC0087FD07C00B
:1048F000C8010E94AC26E816F906B0F729C08091DD
:10490000B900887F883041F08091B900887F80317C
:1049100019F00FEF1FEF1EC0B092BB00A092BC00B9
:104920000E9494268C018091BC0087FD07C0C801BD
:104930000E94AC26E816F906B0F70AC08091B900CB
:10494000887F883111F0803421F700E010E00EC03C
:104950000EEF1FEFCF3F8FEFD80709F4BECFC60190
:104960000E94AC26C817D90708F0B7CFC801CDB749
:10497000DEB7EBE00C94B52A0F931F93CF93DF9330
:10498000EB018093BB0084E88093BC000E949426D6
:104990008C018091BC0087FD0DC0CF3F8FEFD80701
:1049A000C1F3C8010E94AC26C817D90790F78EEF53
:1049B0009FEF0CC02091B900287F81E090E0283261
:1049C00011F480E090E0919581959109DF91CF916C
:1049D0001F910F910895A0E0B0E0E1EFF4E20C9494
:1049E0009C2A6B018A017901B9010E944924E601E0
:1049F0000C0D1D1DC017D10741F424E92093BC0004
:104A0000CDB7DEB7E8E00C94B82A97FDF6CFB70132
:104A100089910E94BC24EECFA0E0B0E0E2E1F5E293
:104A20000C949C2AC62F6A017901B8010E9449247E
:104A300097FD11C0B8018C2F0E94BC24E601EC0C3C
:104A4000FD1CCE15DF0539F097FD05C0B801899131
:104A50000E94BC24F6CF24E92093BC00CDB7DEB77A
:104A6000E8E00C94B82A84E98093BC000895909300
:104A7000B7018093B601089590937B0280937A02E8
:104A80000895E0917A02F0917B02309729F001902D
:104A9000F081E02D0995089580E008950E94412558
:104AA0000895E0917A02F0917B02309721F0028024
:104AB000F381E02D09950895E0917A02F0917B024F
:104AC000309739F022E0DC012C930480F581E02D51
:104AD00009950895A3E0B0E0E0E7F5E20C94A22A7E
:104AE000209178023091790228173907A1F090932C
:104AF000790280937802E0917A02F0917B023097FC
:104B000051F023E029839B838A830680F781E02D7F
:104B1000CE01019609952396E2E00C94BE2AA3E00B
:104B2000B0E0E5E9F5E20C94A22A209176023091FA
:104B3000770228173907A1F09093770280937602C5
:104B4000E0917A02F0917B02309751F024E02983C2
:104B50009B838A830680F781E02DCE01019609951B
:104B60002396E2E00C94BE2AFC01329697E080E0A6
:104B7000915029F021912223D9F38F5FF9CF089525
:104B8000662349F0FC01329608962191621729F0BC
:104B9000E817F907D1F780E0089581E008959C01B6
:104BA000FC0132969FEF80E04191461789F09F3FCC
:104BB00019F4411101C0982F8F5F8630A9F79F3FEC
:104BC00039F0F901E90FF11D97FDFA956283089517
:104BD00008959C012A5F3F4FFC014281461301C0AA
:104BE0001282019682179307B9F708950E94CF2584
:104BF00008950E94E9250895029626E0FC0111928D
:104C00002A95E9F7089546E050E00E94D22A21E073
:104C1000892B09F420E0822F089508950E940D2623
:104C200008950E940E2608950E940D2608950E9460
:104C30000D2608950E940D260895CF930E941726F1
:104C40000E94FE170E941426C0E08C2F0E94361787
:104C5000811104C0CF5FC730C1F701C081E0CF919F
:104C6000089508951F920F920FB60F9211248F93FB
:104C70009F93AF93BF9380917C02811113C0809169
:104C8000460590914705A0914805B0914905419688
:104C9000A11DB11D8093460590934705A09348053B
:104CA000B0934905BF91AF919F918F910F900FBE27
:104CB0000F901F90189580917F02882331F10E94F8
:104CC000470910927C0220E488E190E00FB6F89446
:104CD000A895809360000FBE2093600083B7817F0A
:104CE000846083BF83B7816083BF7894889583B7DE
:104CF0008E7F83BF0FB6F894A8958091600088617D
:104D000080936000109260000FBE08950E94920D83
:104D10000E944E09089582E084BD93E095BD9AEF0C
:104D200097BD80936E0008952FB7F8948091460543
:104D300090914705A0914805B09149052FBF08956E
:104D40002FB7F8946091460570914705809148050A
:104D5000909149052FBF08959C014FB7F894809119
:104D6000460590914705A0914805B09149054FBF70
:104D7000821B930B089578941F920F920FB60F9297
:104D800011248F939F93AF93BF9380914605909189
:104D90004705A0914805B09149050196A11DB11D97
:104DA0008093460590934705A0934805B093490525
:104DB000BF91AF919F918F910F900FBE0F901F9059
:104DC000189598E088E10FB6F894A8958093600054
:104DD0000FBE90936000A895F894D8E0CEEF28E33A
:104DE000299320E0299314BEFFCF089598E088E12D
:104DF0000FB6F894A895809360000FBE9093600062
:104E0000FFCF0E94942690937E0280937D0290E0D3
:104E100080E80FB6F89480936100909361000FBE14
:104E200008950E94362A539A80E0815041F0A89557
:104E3000EFE9FFE03197F1F700C00000F6CF53989B
:104E4000789408950E9435280E943C252FEF80E732
:104E500092E0215080409040E1F700C000000895AA
:104E600080917105882389F0109271050E94942623
:104E700090937E0280937D0280917F028823D1F1FE
:104E800010927F020E94862611C080917F028111BC
:104E900011C080917D0290917E020E94AC260697FF
:104EA00028F081E080937F020E945B2680917F0240
:104EB000882301F10E945B260E941D26882391F120
:104EC000F8942AB15B9A822F8C608AB99BB18CE0EE
:104ED00098279BB93FE748E391E03150404090402C
:104EE000E1F700C000009BB189278BB92AB95B9814
:104EF000789408950E943F2980917705882329F0AE
:104F00008091550584FD0E9479140E94A6270E9475
:104F10003F2980917705882329F08091610584FDE0
:104F20000E942928089580912F03089520918E05CD
:104F300024FF03C063E00E943529089520918E0567
:104F400024FF03C066E00E9435290895CF93DF93C4
:104F5000CAE0D0E08091550584FF18C08091AC0272
:104F60009091AD029817E1F028E0829FC0011124D2
:104F700068E082559D4F0E9430298091AC0290E0FC
:104F800001968F7099278093AC020AC00E943F2936
:104F90008FE99FE00197F1F700C000002197D1F65B
:104FA000DF91CF910895CF93DF93EC01A091AD02F3
:104FB000B0E0CD0101968F7099272091AC0228179F
:104FC00079F093E0AA0FBB1F9A95E1F7A255BD4F68
:104FD00098E0FE0101900D929A95E1F78093AD0261
:104FE0000E943F290E94A62788E0FE01A4EAB2E0C1
:104FF00001900D928A95E1F7DF91CF9108950F937B
:105000001F93CF93DF93EC016032F1F48C01005ECB
:105010001F4F8091610584FD03C00E943F29F9CF95
:1050200068E0CE010E943A2928960C171D0789F7DF
:105030008091610584FD03C00E943F29F9CF60E0A3
:1050400080E090E00E943A29DF91CF911F910F916B
:10505000089580918302803239F460E284E892E01E
:105060000E94981B10928302089584E191E00895B4
:10507000FC01808180768032A1F58181813061F4EC
:1050800084819581892B69F584EA92E09093730578
:105090008093720588E00895823041F48EE293E0B7
:1050A000909373058093720581E008958A3021F40E
:1050B000838180932E0315C0893099F48281938176
:1050C0008115924081F484819581892B61F481E07E
:1050D00080938202868197819093810280938002DF
:1050E00002C080E008958FEF0895209180023091F2
:1050F0008102232B71F020918202213051F4FC01B6
:10510000808180932F03109281021092800281E0AF
:1051100008958FEF0895683019F010928302089572
:1051200020918302A22FB0E0A931B105B4F7FC01B0
:10513000AC57BD4F089631913D93E817F907D9F761
:10514000285F209383020895FC0193819330B1F08E
:1051500068F4913081F0923009F05EC08FE09AE0FF
:1051600090937305809372058BE50895913201F158
:10517000923291F151C08AE69AE014C08281813066
:1051800079F030F0823009F047C08CE79AE00AC02D
:1051900084EA9AE0909373058093720584E0089501
:1051A00080E99AE0909373058093720582E10895F7
:1051B0008281813049F028F0823071F58AE59AE0E9
:1051C00005C081E29AE002C08AE39AE090937305F9
:1051D0008093720589E008958481958181309105DD
:1051E00099F050F00297C1F48AEC9AE0909373051D
:1051F000809372058BE7089585E49BE09093730597
:105200008093720580E4089588EA9AE0909373058C
:105210008093720582E2089580E008951F93CF93F2
:10522000DF93162FEA01288124FF05C0398128E881
:105230002327298302C02AE52883212FFC01CE01E0
:105240000296DC0131913D9321501216DCF3612F5F
:105250000E94F7051C5F1883DF91CF911F9108957D
:1052600045E555E00E940E2908954EE855E00E945C
:105270000E29089541E655E00E940E290895CF9326
:10528000DF9360917405635067FD93C08091700552
:10529000CCE0D0E0C81BD109C858DA4F80916F0527
:1052A000803120F4CE010E948B2881C08D3209F01C
:1052B0006EC0683009F07BC083EC80934A058AE5B4
:1052C00080931D0110926E058881807621F0CE01B9
:1052D0000E94382849C09A81109253058981811112
:1052E00006C01092540523E535E082E038C08530D1
:1052F00019F49093750530C08630A1F48B8181300C
:1053000041F0823031F0833021F0813211F082326D
:1053100021F4CE010E94A42801C080E090E4909383
:105320006E0522C0883089F0893019F49093770592
:1053300013C08A3069F08B3079F48BE48093560582
:1053400080938F058093620507C027E735E002C090
:1053500023E535E081E003C023E535E080E03093CC
:1053600073052093720509C08F3F39F4988197FD2A
:105370008E8190E890936E0507C09F81911104C0C3
:105380009E81981708F4892F80931C0110C080918A
:105390006E0587FF0CC0CE010E9475288F3F21F457
:1053A0008EE180931D0103C0811110921C011092A7
:1053B000740580911D0184FF4CC080911C018F3FBA
:1053C00009F447C0C82F893008F0C8E08C1B8093CF
:1053D0001C0190914A0588E8892780934A05CC23CF
:1053E00059F1809172059091730520916E0526FF09
:1053F00012C0AAE4B5E02C2FAC014A545540FA0182
:10540000EA0FFB1FE4911196EC931197215011962E
:105410002111F5CF08C0EBE4F5E0DC012C2F3D9124
:1054200031932150E1F701962FEF2C0F820F911D40
:1054300090937305809372056C2F8BE495E00E9426
:10544000F705CC5FCC3019F08FEF80931C01C0932F
:105450001D0184E199B19C7031F48150D9F710920B
:10546000750510926D05DF91CF910895CF93DF936D
:10547000E9E6F0E0808188608083E99AC5E5D5E0BF
:105480008BE48983AEE8B5E011968C931197E1E641
:10549000F5E081838AE588838C938083DF91CF91C7
:1054A0000895991B79E004C0991F961708F0961B80
:1054B000881F7A95C9F780950895AA1BBB1B51E1F7
:1054C00007C0AA1FBB1FA617B70710F0A61BB70B74
:1054D000881F991F5A95A9F780959095BC01CD0119
:1054E000089597FB072E16F4009407D077FD09D096
:1054F0000E945D2A07FC05D03EF4909581959F4F50
:105500000895709561957F4F0895EE0FFF1F0590E8
:10551000F491E02D09946927962769277827872732
:10552000782708952F923F924F925F926F927F92C9
:105530008F929F92AF92BF92CF92DF92EF92FF92A3
:105540000F931F93CF93DF93CDB7DEB7CA1BDB0B4F
:105550000FB6F894DEBF0FBECDBF09942A883988F4
:1055600048885F846E847D848C849B84AA84B984FB
:10557000C884DF80EE80FD800C811B81AA81B98107
:10558000CE0FD11D0FB6F894DEBF0FBECDBFED011B
:105590000895FB01DC0102C005900D92415050407E
:1055A000D8F70895FB01DC0104C08D9101908019AA
:1055B00021F441505040C8F7881B990B0895FB0116
:1055C000DC0102C001900D9241505040D8F708957F
:1055D000F999FECF92BD81BDF89A992780B50895BB
:1055E000A8E1B0E042E050E00C941C2B262FF99982
:1055F000FECF92BD81BDF89A019700B4021639F032
:105600001FBA20BD0FB6F894FA9AF99A0FBE089502
:105610000396272F0E94F72A0E94F62A252F0E9420
:10562000F72A242F0C94F72A0196272F0E94F72A95
:105630000C94F62ADC01CB01FC01F999FECF06C0DF
:10564000F2BDE1BDF89A319600B40D924150504040
:08565000B8F70895F894FFCFAC
:105658001102280850011E0A14010021007F2200AF
:10566800030302019327D3279E279627FF5AE200B8
:10567800E900EA00B500B600B700CD008301CC0010
:105688008A019201940121022302240225022602A2
:1056980027022A02B300B4006F0070009F01CB01FB
:1056A8009F02A002818283E200E900EA00B500B609
:1056B80000B700CD008301CC008A0192019401213A
:1056C80002230224022502260227022A02B300B47A
:1056D800006F0070009F01CB019F02A002818283AE
:1056E80030979695313233909194636061620008E7
:1056F80010181810080000FF0100010000FFFF004B
:0657080000010001FF009A
:00000001FF
