:100000000C94150D0C94320D0C944D0D0C94320D76
:100010000C94320D0C94320D0C940F2D0C94320D67
:100020000C94320D0C94320D0C94320D0C94320D54
:100030000C94320D0C94320D0C94B42D0C94320DA2
:100040000C94320D0C94320D0C94320D0C94320D34
:100050000C94320D0C94320D0C94320D0C94320D24
:100060000C94320D0C94320D66126612921292129A
:10007000F512F413F413F41313137B138C138C1372
:10008000242027205E207120772082208520852053
:100090008520E820E8208A208D2092209F20AC2017
:1000A000AF20B320C020CD20D9208724F9248F246D
:1000B00059245D24932460249624A1246B24EF24E6
:1000C0006F24A5247324A924D3247724AD24DD240C
:1000D0007D24B324BD2464249A2467249D2482248F
:1000E000B824C924E924EB2455248B240225A7290C
:1000F000AD299B29A129B329B929BF29B6B6B6B61E
:10010000B6B6B6B6B6B6B6B6B6B6B695B596D5B6B2
:10011000B6808182838485868788898A8B8C8D8E40
:100120008F9091929394A0A1A2A3A4A5A6A7A8A9F9
:10013000AAABACADAEAFB0B1B2B3B4C0C1C2C3C470
:10014000C5C6C7C8C9CACBCCCDCECFD0D1D2D3D4E7
:10015000000000000000000000000000000000009F
:10016000000000000000000000000000000000008F
:10017000000000000000000000000000000000007F
:10018000000000000000000000000080404020202F
:1001900020201010101010080804040408304080BB
:1001A000000000000000000000000000000000004F
:1001B000000000000000000000000000000000003F
:1001C000000000000000000000000000000080802F
:1001D000800000000000000000000000000000009F
:1001E000000000000000000000000000000000000F
:1001F00000000000000000000000000000000000FF
:100200000000186482020202020201000000008065
:10021000800000000000000000008000303000C0BE
:10022000C1C1C2040810204080000000808080808E
:1002300040404040202020201010101008080808DE
:100240000804040404040202020201010101000086
:10025000000000000000000000000000000000009E
:10026000000000000000000000000000000000008E
:10027000000000000000000000000000000000007E
:1002800000C0380403000000000000000C0C0C0D3E
:10029000010040A0212212111111090808080804C8
:1002A0000408081010101010110F010100000000C8
:1002B000000000000000000000000000000000003E
:1002C000000000000000000000000000000000002E
:1002D000000000000000000000000000000000001E
:1002E00000008080808080404040404020202020CE
:1002F0002010101010100808080808040404040452
:1003000002030202010101010101020204040808C2
:1003100008080807000000000000000000000000BE
:1003200000000000000000000000000000000000CD
:1003300000000000000000000000000000000000BD
:1003400000000000000000000000000000000000AD
:10035000000000000000000000000000000000009D
:10036000000000000000000000000000000000008D
:10037000000000000000000000000000000000007D
:10038000000000000000000000000080404020202D
:1003900020201010101010080804040408304080B9
:1003A000000000000000000000000000000000004D
:1003B000000000000000000000000000000000003D
:1003C000000000000000000000000000000080802D
:1003D000800000000000000000000000000000009D
:1003E000000000000000000000000000000000000D
:1003F00000000000000000000000000000000000FD
:100400000000186482020202020201000000008063
:10041000800000000000000000008000303000C0BC
:10042000C1C1C2040810204080000000808080808C
:1004300040404040202020201010101008080808DC
:100440000804040404040202020201010101000084
:10045000000000000000000000000000000000009C
:10046000000000000000000000000000000000008C
:10047000000000000000000000000000000000007C
:1004800000C0380403000000000000000C0C0C0D3C
:10049000010040A0212212111111090808080804C6
:1004A0000408081010101010110F010100000000C6
:1004B000000000000000000000000000000000003C
:1004C000000000000000000000000000000000002C
:1004D000000000000000000000000000000000001C
:1004E00000008080808080404040404020202020CC
:1004F0002010101010100808080808040404040450
:1005000002030202010101010101020204040808C0
:1005100008080807000000000000000000000000BC
:1005200000000000000000000000000000000000CB
:1005300000000000000000000000000000000000BB
:1005400000000000000000000000000000000000AB
:10055000000000000000000000000000000000009B
:10056000000000000000000000000000000000008B
:10057000000000000000000000000000000000007B
:1005800000000000000000000000000080804040EB
:10059000404020202020100804020204186080003F
:1005A000000000000000000000000000000000004B
:1005B000000000000000000000000000000000003B
:1005C000000000000000000000000000000080802B
:1005D000800000000000000000000000000000009B
:1005E000000000000000000000000000000000000B
:1005F00000000000000000000000000000000000FB
:1006000000003CC2010102020404020100000000DB
:100610000000000000000000000000006060008199
:10062000828284081020408000000000808080804A
:1006300040404040202020201010101008080808DA
:100640000804040404040202020201010101000082
:10065000000000000000000000000000000000009A
:10066000000000000000000000000000000000008A
:10067000000000000000000000000000000000007A
:100680000080701906000000000000001818181BF8
:10069000030040A02224141212120B0808080805B7
:1006A0000509091010101010110F010100000000C1
:1006B000000000000000000000000000000000003A
:1006C000000000000000000000000000000000002A
:1006D000000000000000000000000000000000001A
:1006E00000008080808080404040404020202020CA
:1006F000201010101010080808080804040404044E
:1007000002030202010101010101020204040808BE
:1007100008080807000000000000000000000000BA
:1007200000000000000000000000000000000000C9
:1007300000000000000000000000000000000000B9
:1007400000000000000000000000000000000000A9
:100750000000000000000000000000000000000099
:100760000000000000000000000000000000000089
:100770000000000000000000000000000000000079
:100780000000000080800000000000804040202029
:100790002020101010100804020101020C304080CB
:1007A0000000000000000000000000000000000049
:1007B0000000000000000000000000000000000039
:1007C0000000000000000000000000000000808029
:1007D0008000000000000000000000000000000099
:1007E0000000000000000000000000000000000009
:1007F00000000000000000000000000000000000F9
:1008000000001EE100000101020201000000008062
:10081000800000000000000000008000303000C0B8
:10082000C1C1C20408102040800000008080808088
:1008300040404040202020201010101008080808D8
:100840000804040404040202020201010101000080
:100850000000000000000000000000000000000098
:100860000000000000000000000000000000000088
:100870000000000000000000000000000000000078
:100880000080700C03000000000000000C0C0C0D38
:10089000010040A0212212111111090808080804C2
:1008A0000408081010101010110F010100000000C2
:1008B0000000000000000000000000000000000038
:1008C0000000000000000000000000000000000028
:1008D0000000000000000000000000000000000018
:1008E00000008080808080404040404020202020C8
:1008F000201010101010080808080804040404044C
:1009000002030202010101010101020204040808BC
:1009100008080807000000000000000000000000B8
:1009200000000000000000000000000000000000C7
:1009300000000000000000000000000000000000B7
:1009400000000000000000000000000000000000A7
:100950000000000000000000000000000000000097
:100960000000000000000000000000000000000087
:100970000000000000000000000000000000000077
:100980000000000000000000000000804040202027
:1009900020201010101008080402020204384080C1
:1009A0000000000000000000000000000000000047
:1009B0000000000000000000000000000000000037
:1009C0000000000000000000000000000000808027
:1009D0008000000000000000000000000000000097
:1009E0000000000000000000000000000000000007
:1009F00000000000000000000000000000000000F7
:100A000000001CE20101020202020100000000805D
:100A1000800000000000000000008000303000C0B6
:100A2000C1C1C20408102040800000008080808086
:100A300040404040202020201010101008080808D6
:100A4000080404040404020202020101010100007E
:100A50000000000000000000000000000000000096
:100A60000000000000000000000000000000000086
:100A70000000000000000000000000000000000076
:100A80000080700C03000000000000000C0C0C0D36
:100A9000010040A0212212111111090808080804C0
:100AA0000408081010101010110F010100000000C0
:100AB0000000000000000000000000000000000036
:100AC0000000000000000000000000000000000026
:100AD0000000000000000000000000000000000016
:100AE00000008080808080404040404020202020C6
:100AF000201010101010080808080804040404044A
:100B000002030202010101010101020204040808BA
:100B100008080807000000000000000000000000B6
:100B200000000000000000000000000000000000C5
:100B300000000000000000000000000000000000B5
:100B400000000000000000000000000000000000A5
:100B50000000000000000000000000000000000095
:100B60000000000000000000000000000000000085
:100B70000000000000000000000000000000000075
:100B80000000000080800000000000804040202025
:100B90002020101010100804020101020C304080C7
:100BA0000000000000000000000000000000000045
:100BB0000000000000000000000000000000000035
:100BC0000000000000000000000000000000808025
:100BD0008000000000000000000000000000000095
:100BE0000000000000000000000000000000000005
:100BF00000000000000000000000000000000000F5
:100C000000001EE1000001010202818080000080DE
:100C10008000000000000000000080003030000074
:100C200001E11A06093135018A7C0000808080804C
:100C300040404040202020201010101008080808D4
:100C4000080404040404020202020101010100007C
:100C50000000000000000000000000000000000094
:100C60000000000000000000000000000000000084
:100C70000000000000000000000000000000000074
:100C80000080700C030000180605989984C37C410D
:100C900041404020212212111111090808080804BE
:100CA0000404040404020202010101010000000026
:100CB0000000000000000000000000000000000034
:100CC0000000000000000000000000000000000024
:100CD0000000000000000000000000000000000014
:100CE00000008080808080404040404020202020C4
:100CF0002010101010100808080808040404040448
:100D000002030202010101010101000000000000D4
:100D100000000000000000000000000000000000D3
:100D200000000000000000000000000000000000C3
:100D300000000000000000000000000000000000B3
:100D400000000000000000000000000000000000A3
:100D50000000000000000000000000000000000093
:100D60000000000000000000000000000000000083
:100D70000000000000000000000000000000000073
:100D80000000000080800000000000804040202023
:100D90002020101010100804020101020C304080C5
:100DA00000000000000000F8F8F8F8000000000063
:100DB0008080000000000000000000000000000033
:100DC0000000000000000000000000000000808023
:100DD0008000000000000000000000000000000093
:100DE0000000000000000000000000000000000003
:100DF00000000000000000000000000000000000F3
:100E000000001EE1000001010202818080000080DC
:100E10008000000000000000000080003030000072
:100E2000010102040810204387070100B8BCBE9FDF
:100E30005F5F4F4C20202020101010100808080879
:100E4000080404040404020202020101010100007A
:100E50000000000000000000000000000000000092
:100E60000000000000000000000000000000000082
:100E70000000000000000000000000000000000072
:100E80000080700C030000180605989984437C418B
:100E900041404020212212111111090808080804BC
:100EA0000408081010101010110F013D7CFCFCFC10
:100EB000FCFC3C0C000000000000000000000000F2
:100EC0000000000000000000000000000000000022
:100ED0000000000000000000000000000000000012
:100EE00000008080808080404040404020202020C2
:100EF0002010101010100808080808040404040446
:100F000002030202010101010101000000000000D2
:100F100000000000000000000000000000000000D1
:100F200000000000000000000000000000000103BD
:100F300003000000000000000000000000000000AE
:100F400000000000000000000000000000000000A1
:100F50000000000000000000000000000000000091
:100F60000000000000000000000000000000000081
:100F70000000000000000000000000000000000071
:100F80000000000080800000000000804040202021
:100F90002020101010100804020101020C304080C3
:100FA0000000000000000000000000000000000041
:100FB0000000000000000000000000000000000031
:100FC0000000000000000000000000000000808021
:100FD0008000000000000000000000000000000091
:100FE0000000000000000000000000000000000001
:100FF00000000000000000000000000000000000F1
:1010000000001EE10000010102020100000000805A
:101010008000000000000000000080003030000070
:1010200001E11A06093135018A7C00008080808048
:1010300040404040202020201010101008080808D0
:101040000804040404040202020201010101000078
:101050000000000000000000000000000000000090
:101060000000000000000000000000000000000080
:101070000000000000000000000000000000000070
:101080000080700C03000000000000000000000160
:10109000010040A0212212111111090808080804BA
:1010A0000404040404020202010101010000000022
:1010B0000000000000000000000000000000000030
:1010C0000000000000000000000000000000000020
:1010D0000000000000000000000000000000000010
:1010E00000008080808080404040404020202020C0
:1010F0002010101010100808080808040404040444
:1011000002037A7A7979797939310202040408087C
:1011100008888887800000000000000000000000B0
:1011200000000000000000000000000000000000BF
:1011300000000000000000000000000000000000AF
:10114000000000000000000000000000000000009F
:1011500000A900AA00010001000100010001000136
:10116000002B0014001A000800150017001C0021B5
:101170005204001600070009000A000B00E10038C5
:1011800000E4001B00060019000500E000E2002258
:1011900052E6002C002C002C0000003400A80013A4
:1011A0000012000C0018000000E3002A0028000FC5
:1011B000000E000D0000001D00E500370036001095
:1011C00000110029001E001F002000210022002322
:1011D00000010001003500310001000100010001A3
:1011E0000001004F000100010001000100010001A9
:1011F00000510050004A0001004D000000010001B4
:10120000002700260025002400000001004C0034C7
:1012100000330030002F0000000100520038002E83
:10122000002D00010001003A003B003C003D003E63
:10123000003F003900010001000100010001000130
:101240000001000100010001000100010001000196
:101250000001000100010001000100010000000187
:101260000001004300420041004000000001000175
:101270000001000100010001000000010001000167
:101280000001000100010001000100010001000156
:101290000001000100010001000100010001000146
:1012A0000001000100010001000100010001000136
:1012B0000001000100010001000100010001000027
:1012C0000001000100010001000100010000000117
:1012D0000001000100010001000100000001000107
:1012E00000010001000100010000AE00AF00DA02C1
:1012F00081FFD9F1DB20A4A62EAF00A0C000A1C8B9
:1013000000AED580A81FD300408D1420000000003F
:101310000000003E5B4F5B3E003E6B4F6B3E001C8F
:101320003E7C3E1C00183C7E3C18001C577D571C20
:10133000001C5E7F5E1C0000183C180000FFE7C325
:10134000E7FF00001824180000FFE7DBE7FF00308C
:10135000483A060E00262979292600407F05050710
:1013600000407F05253F005A3CE73C5A007F3E1C69
:101370001C0800081C1C3E7F0014227F2214005F02
:101380005F005F5F0006097F017F00006689956A44
:101390000060606060600094A2FFA2940008047E78
:1013A00004080010207E20100008082A1C080008ED
:1013B0001C2A0808001E10101010000C1E0C1E0C19
:1013C0000030383E383000060E3E0E0600000000A9
:1013D00000000000005F000000000700070000148C
:1013E0007F147F1400242A7F2A12002313086462CA
:1013F00000364956205000000807030000001C2258
:101400004100000041221C00002A1C7F1C2A000809
:10141000083E08080000807030000008080808082E
:10142000000000606000002010080402003E5149E6
:10143000453E0000427F4000007249494946002174
:1014400041494D33001814127F1000274545453996
:10145000003C4A49493100412111090700364949F8
:10146000493600464949291E0000001400000000CA
:101470004034000000000814224100141414141415
:10148000000041221408000201590906003E415D96
:10149000594E007C1211127C007F49494936003EAA
:1014A00041414122007F4141413E007F494949413C
:1014B000007F09090901003E41415173007F08087E
:1014C000087F0000417F4100002040413F01007F34
:1014D00008142241007F40404040007F021C027FF0
:1014E000007F0408107F003E4141413E007F090912
:1014F0000906003E4151215E007F09192946002658
:10150000494949320003017F0103003F4040403F09
:10151000001F2040201F003F4038403F0063140858
:101520001463000304780403006159494D4300002B
:101530007F41414100020408102000004141417FE9
:101540000004020102040040404040400000030744
:101550000800002054547840007F28444438003864
:101560004444442800384444287E003854545418D5
:101570000000087E0902001824241C78007F08045B
:1015800004780000447D4000002040403D00007F82
:10159000102844000000417F4000007C047804785B
:1015A000007C08040478003844444438007C182443
:1015B000241800182424187C007C0804040800481F
:1015C000545454240004043F4424003C4040207CF4
:1015D000001C2040201C003C4030403C00442810AF
:1015E0002844004C9090907C004464544C4400008B
:1015F0000836410000000077000000004136080076
:10160000000201020402003C2623263C00000000E8
:10161000000080C0E0F0F0300000C060F0F0F0307A
:101620000080C020F0F0F020000000000080C0E04A
:10163000703018B8F8F00000000000DC7E3FBEF00B
:10164000F0E000000000000080C0E070101818F802
:10165000F06000000000C060F0F8F830000000808A
:10166000E0F0F8F8300000000080E0F0FCFF3F0FF1
:101670000100000080C0E0F0F87800000000008069
:10168000C060309040203070E0C0000040404040DA
:1016900040404040404040000000E0FEFFFEF8C0F7
:1016A0000000000000E0FCFFFEF000000000000071
:1016B000000000013EE080700E0100000000073CC9
:1016C000E080780700000000000000000000180C17
:1016D00006C3F9FE3FC7711806C3F07C1FC7711817
:1016E00006C3F8FE3F0F0180C0F0F8FEDF476360DD
:1016F00030381E0F0781402018060381F0FC7F1F41
:101700000780C0E0F8FC3E0F030100000000030169
:101710008060100806E3FCFF3F0701C0308CE3FF48
:101720007F1F0380C030188CE3F9FF3F070180C0A2
:1017300030180CC3F1FC7F0F0380C0F0FCFE3F07A4
:1017400001003EC18080E0FC3F8F4040C0F0FC7E45
:101750004E0000000000000000F8FFFF1F071FFF01
:10176000FEF0C0F8FF7F0F077FFFFEFC04047880C7
:10177000000000C0380C1C6080000000F00C04F475
:101780001C80C0FCE6C3C1C1C3E6FCC080000038B9
:101790003F3F1F07030000383E3F1F0E030000308D
:1017A0007F7F3F190C0603010F1F3F71606070308F
:1017B000180804020100000000387E7F3F3B180437
:1017C0000301000F1F3120202020101808040201FF
:1017D0000000001C3F7F7F31180603183E3F3F1B6F
:1017E0000804020100001E3F3F3F100804020100F0
:1017F00000183E3F3F190C060301000F1F316060C7
:101800006030181C0F07030101000000183C3C1C4D
:1018100000000000000000001F1F1F070000000064
:10182000031F1F0F0100000000071F1F1EF8000FFD
:1018300070300EC138070E70831C601E03C03E015D
:10184000003F7FFFFFF9C0C0F9FFFF7F3F000000AE
:1018500000000000002A2B2800000000000000000B
:10186000000000000000000029000000002C1E34D1
:1018700020212224342627252E362D3738271E1FD7
:10188000202122232425263333362E37381F040502
:10189000060708090A0B0C0D0E0F10111213141570
:1018A000161718191A1B1C1D2F3130232D3504054E
:1018B000060708090A0B0C0D0E0F10111213141550
:1018C000161718191A1B1C1D2F3130354C0000003B
:1018D0000000000000000000000000000000000008
:1018E00000000000000000000000000000000000F8
:1018F000007E0F00D4FFFFFFC70000007809025BE5
:1019000000030100A0FA090400000103010100091D
:10191000210101000122400007058103080001099F
:10192000040100020300000009210101000122223C
:1019300000070584030800010705040308000109E6
:10194000040200010300000009210101000122320C
:1019500000070583030800011201100100000008C0
:10196000776D031700010102000112034D006500AD
:10197000720063007500740069006F0000001203BC
:101980004D00650063006800570069006C0064004A
:101990000000040309040660FF0961A10109621542
:1019A0000026FF009520750881020963150026FFB7
:1019B00000952075089102C005010980A1018503E9
:1019C00019012AB700150126B7009501751081008D
:1019D000C0050C0901A101850419012AA002150105
:1019E00026A002950175108100C005010906A1011C
:1019F000050719E029E71500250195087501810201
:101A00009501750881030507190029FF150026FFB8
:101A100000950675088100050819012905950575C9
:101A2000019102950175039103C011241FBECFEFF0
:101A3000D8E0DEBFCDBF11E0A0E0B1E0E8E6FAE615
:101A400002C005900D92AA3BB107D9F725E0AAEB99
:101A5000B1E001C01D92A43EB207E1F70E94781FD9
:101A60000C9432350C940000A82FB92F80E090E040
:101A700041E050EA609530E009C02D9182279795AA
:101A8000879510F084279527305EC8F36F5FA8F321
:101A90000895EADF8D939D930895CF93CFB7CF93A9
:101AA000DF93C3954B9BE9F74B9B10C04B9B0EC03C
:101AB0004B9B0CC04B9B0AC04B9B08C04B9B06C06A
:101AC000C091BB05C395C093BB058EC06F93C091F9
:101AD000BA05DD27CE53DA4F2F9365E54B9B03C044
:101AE0002F916F91E1CF0F931F934F9320E040E12F
:101AF0005F9309B10C7003FB27F93F9350E03BE083
:101B000039C01C7040642F77012F5F5F1EC0406892
:101B100019B11C702F7752501FC0406409B12F7744
:101B20000C70D1F15F5F00C023C0406219B12F7704
:101B30001C7091F15F5F00C025C00C7010275150E0
:101B400012F45D5F0000115027952C3F19B1C8F6C3
:101B50001C700127015027952C3FC8F64227499356
:101B600009B10C7010274F73115027952C3FA8F620
:101B70004695469519B11C7079F0012701502795BB
:101B80002C3F98F66B5A60F3315009B1B0F600C0A3
:101B900012E01CBB00271CC03B503195C31BD0403A
:101BA00012E01CBB0881033C21F10B3411F12091A0
:101BB000B7051981110F1213EDCF4A81441F093661
:101BC00079F10D3211F0013E29F74F7009F0042F21
:101BD0000093C0053F915F914F911F910F912F91FD
:101BE0006F91CCB3C1FD5DCFDF91CF91CFBFCF91CE
:101BF00018952091C005222369F31091BE05112389
:101C000009F049C034300AF448C03093BE0520932F
:101C1000B9051091BA053BE0311B3093BA053DC0C0
:101C20000091BE050130BCF50AE54F7049F43091D2
:101C3000160134FD33C000931601C4E9D5E032C06B
:101C4000433059F0443091F030919F0534FD26C067
:101C500000939F05C0EAD5E025C03091D80534FD3A
:101C60001DC00093D805C9EDD5E01CC03091AB056F
:101C700034FD14C00093AB05CCEAD5E013C00527B2
:101C800010E000C000000BB91AC0052710E0221FA9
:101C90001DC010E021C04AE502C032ED432FC4E16F
:101CA000D0E032E01AB11C605B9A0BB11AB95CE06B
:101CB00020E865E320FF05270BB9279517951C3F02
:101CC000F0F66695B8F7B1F720FF05270BB9279511
:101CD00017951C3FD0F62795179517FF052700008D
:101CE0001C3F0BB9B0F629913A9519F7037F109173
:101CF000BF05110FC651D0400BB911F01093B705B5
:101D000012E01CBB08601AB1137F402F437F54E0E0
:101D10005A95F1F70BB91AB94BB95CCF82E0089527
:101D2000CF930E94E50EC82F882329F060E08CEF46
:101D300090E00E9473228C2FCF9108950E94D229A7
:101D40008F31C0F48091BD0190E0019665E070E0B4
:101D50000E9463319C018093BD0184E090E0821B6E
:101D6000930B982F8827990F60E072E08F5A9E4F4F
:101D70000E9485220E94D2298F3150F00E94D229E0
:101D8000883230F460E072E081E59BE00E948522B9
:101D90000E94D2298832B0F02091BC0130E02F5F40
:101DA0003F4F217033272093BC0181E090E0821BDC
:101DB000930B982F8827990F60E072E08F5A924F0B
:101DC0000E948522089582E008950E94D2298823E6
:101DD00041F10E94D0226091C2017091C3018091B3
:101DE000C4019091C5010E94982D693C710581053F
:101DF000910560F00E947D2D6093C2017093C30134
:101E00008093C4019093C5010E949E0E0E947D2D77
:101E10006093BE017093BF018093C0019093C10194
:101E20002DC06091BE017091BF018091C001909161
:101E3000C1010E94982D613C77428940910518F0BC
:101E40000E94EB231BC06091C2017091C30180917D
:101E5000C4019091C5010E94982D693C71058105CE
:101E6000910560F00E947D2D6093C2017093C301C3
:101E70008093C4019093C5010E949E0E64E080E0AF
:101E80000E9479210E94D2291F928F9387E191E0CD
:101E90009F938F9380E793E09F938F930E943D32AF
:101EA00060E080E793E00E9458220F900F900F901F
:101EB0000F900F900F9080E0089584E00895843093
:101EC000B0F46730A0F4473090F491E3899FF001BB
:101ED000112487E0689FE00DF11D1124E40FF11D2E
:101EE000EE0FFF1FEF59FE4E85919491089581E00A
:101EF00090E0089584E00895843088F461110FC063
:101F0000E82FF0E0EE0FFF1F81E04827E40FF11DFE
:101F1000EE0FFF1FEF5AFE4E85919491089581E0D8
:101F200090E0089581E0089581E008950E94940F63
:101F3000089508950E94990F0895A5E0B0E0E3EA9E
:101F4000FFE00C94E73149835A833091CB018981BA
:101F50009A81311114C0662359F0222349F00E945E
:101F6000B915182F682F89819A810E94861503C0A0
:101F70000E94A015182F69817A81812F04C00E94C8
:101F8000B91569817A810E94FC1C2596E3E00C94C6
:101F90000332FC01262F408151816281738184814B
:101FA0000E949D0F089581E00895CF93DF93EC0187
:101FB00060E00E94C90FBE010E949A0FDF91CF918D
:101FC000089508950E9473140E94E10F2FEF84E397
:101FD0009CE0215080409040E1F700C0000008954F
:101FE0000E94E20F0E94DA2D08950E94E20F0E94E3
:101FF000EF2D08950F931F93CF93DF938C0161E032
:102000000E94C90FEC01F8018281882319F0CE01EA
:102010000E94F529B801CE010E94F11F882369F1C1
:10202000B801CE010E94960F882339F1B801CE0184
:102030000E948F29882309F1B801CE010E94312422
:102040008823D9F0B801CE010E94F5288823A9F091
:10205000B801CE010E94F02A882379F0F80182812C
:10206000882349F1C330FCE7DF07D9F060F4C115DC
:10207000ECE7DE0721F40E94F00F80E01FC0C130C2
:10208000DC4789F018C0CB358CE7D80791F0CC3508
:10209000ECE7DE0759F0CA35DC4769F40E94331AD1
:1020A0000AC00E943B1A0E94F50FE7CF0E94291A2E
:1020B00002C00E94371AC8010E94920FDF91CF918F
:1020C0001F910F9108950E94EE2C0E948C100E9487
:1020D000EB2308950E9490100E94F72C0895089514
:1020E00081E008950895CF93DF93D82F0E94701058
:1020F000C82F882319F08D2F0E9472108C2FDF912A
:10210000CF9108950895CF93C82F0E946F108C2F00
:102110000E947310CF91089580E00E94831008956B
:102120000E94392C0E9483100895CF930E94392C6D
:10213000C82F8091C601C81779F0C093C6010E94CC
:102140007D2D6093C7017093C8018093C90190935E
:10215000CA018C2F0E948310CF910895ABE0B0E0AC
:10216000E4EBF0E10C94E8314F83588769877A8774
:102170008B8761110E9487199E012F5F3F4F86E078
:10218000F90111928A95E9F785E0FE013796D901A8
:1021900001900D928A95E1F789819A814C815D8148
:1021A000452B31F09F3F31F491E08F3F19F403C08C
:1021B00091E001C090E090FF09C049815A816B8194
:1021C0007C818D819E810E94B31805C0C9010E9447
:1021D000D30F8111F2CF2B96E2E00C940432FC0174
:1021E000808191810E94E6150895CF93882309F498
:1021F0009BC0C82F8238C1F40E94392C81FD94C045
:1022000069E380910001909101010E94DD2C0E9400
:10221000AB192FEF87EE93E0215080409040E1F71B
:1022200000C0000069E319C0833801F50E94392C11
:1022300080FD7AC063E580910001909101010E94C8
:10224000DD2C0E94AB192FEF81EE94E021508040ED
:102250009040E1F700C0000063E58091000190919B
:1022600001010E94E02C0E94AB195EC08438C1F4C9
:102270000E94392C82FD58C067E480910001909142
:1022800001010E94DD2C0E94AB192FEF81EE94E03A
:10229000215080409040E1F700C0000067E4DDCFAE
:1022A0008CEF8C0F813AD0F46C2F809100019091CB
:1022B00001010E94A72C882349F06C2F8091000116
:1022C000909101010E94E02C0E94AB196C2F80912B
:1022D0000001909101010E94DD2CC5CF80E28C0F9E
:1022E000883048F4C77081E001C0880FCA95EAF7CA
:1022F0000E946A19B8CFEBE5EC0FE33040F4F0E050
:10230000E95AFE4F808190E00E94512C0DC0C85ABE
:10231000CB3150F4EC2FF0E0EE0FFF1FEF5DFE4FDE
:10232000808191810E94762CCF910895882309F4B1
:102330005DC0682F823879F40E94392C81FF56C025
:1023400069E380910001909101010E94DD2C0E94BF
:10235000AB1969E310C08338B9F40E94392C80FFAF
:1023600045C063E580910001909101010E94DD2C40
:102370000E94AB1963E580910001909101010E94D8
:10238000E02C0E94AB190895843879F40E94392C0E
:1023900082FF2CC067E480910001909101010E94AE
:1023A000DD2C0E94AB1967E4E6CF8CEF860F813AF3
:1023B00010F380E2860F883048F4677081E001C036
:1023C000880F6A95EAF70E947019DBCF8BE5860FBC
:1023D000833028F480E090E00E94512C0895685AE0
:1023E0006B3120F480E090E00E94762C08951F93DA
:1023F000CF93DF93182FEB010E94F510209741F047
:102400008FE99FE00197F1F700C000002197F6CF18
:10241000812F0E949611DF91CF911F9108958933EA
:1024200019F06AE070E002C060E570E00E94F71108
:102430000895882321F00E946A190E94AB1908951B
:10244000882321F00E9470190E94AB190895A0E022
:10245000B0E0EDE2F2E10C94E2317C01162FC72FDF
:10246000FC01D281058102950F700E9460198823BA
:10247000E9F0DD23D9F08C2F807F803451F080E2A9
:10248000810F883098F0011104C08C2F807E80323B
:1024900069F080917B0382FF09C082E00E94F719F6
:1024A0000E94601991E0D82ED92601C0D12CCC2EE3
:1024B000C2948FE0C8228C2D90E08C30910508F0FA
:1024C00093C1FC01EC5CFF4F0C94B8318C2F807FE2
:1024D000CF70882311F0C295C07FDD2399F0CC2303
:1024E00009F469C180E2810F883010F0111104C035
:1024F0008C2F0E946A1903C08C2F0E947A190E94A7
:10250000AB1959C1812F0E949611CC2309F46CC1DB
:1025100080E2810F883038F1112329F18C2F0E943D
:10252000801924C08C2F807FCF70803211F0C2952B
:10253000C07F112319F01130D1F143C080917B038A
:1025400082FD17C0DD2349F0CC2329F08C2F0E9497
:102550006A190E94AB1980E02FC180E00E94961199
:10256000CC2309F441C18C2F0E9470190E94AB1931
:102570003BC1DD2371F0002341F0013031F40E94B2
:102580008A198C2B0E9494192FC10E948A198C2BB6
:1025900023C0011103C00E94A11923C0013009F416
:1025A00023C18C2F0E9420120E94A1191DC1DD237E
:1025B00021F0063008F018C10EC0053008F014C133
:1025C00010C0DD2361F0002331F0F701858180FF29
:1025D000F2C08F7085838C2F0E94191205C10111E2
:1025E000F0C08C2F0E942012FFC08C2F86958695FC
:1025F000837019F0813061F0F7C0DD2321F0812F65
:102600009C2F937002C080E090E00E94512CF4C097
:10261000DD2321F0812F9C2F937002C080E090E099
:102620000E94762CE9C08C2F837079F5D111E0C01F
:10263000412F429546954770440F440F212F2F702C
:10264000042E01C0220F0A94EAF714FF08C08FE09D
:1026500090E001C0880F4A95EAF7809501C080E0BC
:10266000C695C695C370822BC23049F058F4C1306C
:1026700019F00E94D814BCC00E94D214B9C00E94A4
:10268000DE14B6C00E94CF14B3C0DD2319F08C2F26
:10269000817001C08695882309F4AAC0412F429514
:1026A00046954770440F440F212F2F70042E01C010
:1026B000220F0A94EAF714FF08C08FE090E001C0EF
:1026C000880F4A95EAF7809501C080E0C695C695C7
:1026D000C370822BC23049F058F4C13019F00E9407
:1026E000241586C00E941E1583C00E942A1580C032
:1026F0000E94E7147DC0CF70DD2339F08C2F0E943B
:10270000F914812F0E94191273C0812F0E94201288
:102710008C2F0E9405156CC0123F21F128F4103F48
:1027200041F0113FC1F043C0133F19F1143F79F05C
:102730003EC0DD2341F0053008F056C08C2F8F716C
:102740000E94121551C0063008F04EC0F7CF80919C
:102750007B0382FD18C0DD2339F08C2F8F710E941E
:10276000F91442C0DD23C9F38C2F8F710E94051527
:102770003BC0DD2329F08C2F8F710E94F01434C0F0
:102780000E94EC1431C0DD2349F0CF718C2F0E94E0
:10279000F91463E08C2F0E94D91926C081E00E94B1
:1027A000F719023008F182E00E94F7191DC0DD23FD
:1027B00031F0002391F2812F0E94F51015C0002303
:1027C00099F2193341F4FFEF27EE83E0F1502040F6
:1027D0008040E1F704C0EFE3FCE93197F1F700C076
:1027E0000000812F0E94961188EF8C0D843020F418
:1027F0000E94392C0E948310DD2089F00E945C1910
:1028000080FD0DC0F70112820E9456190E94F91432
:10281000C7010E942C140E9456190E940515CDB7BD
:10282000DEB7E8E00C94FE310F931F93CF93DF9354
:10283000EC01688179818A810E94F1158C010E94E6
:1028400030150E94C214B801CE010E942712DF91F8
:10285000CF911F910F910895CF93DF93EC01988151
:1028600089812B813C81232B31F08F3F31F481E032
:102870009F3F19F403C081E001C080E080FD1AC0D1
:10288000CE010E94FA0F81110FC00E9460198823A7
:1028900089F08A81882371F080917B0382FF0AC0CE
:1028A00082E00E94F71906C0CE010E941414CE01E6
:1028B0000E94D50FDF91CF91089580E090E00E94B3
:1028C000512C80E090E00E94762C0E9487190E9493
:1028D000AB19089580910001909101010E94E32CB1
:1028E0000E945D1408950E9477190E946A14089549
:1028F00092959F70963079F010F4925001C09A50E2
:10290000923068F4803F69F018F4883E40F409C0C2
:10291000843F29F406C0883E20F0813F11F080E01A
:10292000089581E00895FC019081818123813481A3
:10293000232B31F08F3F31F481E09F3F19F403C026
:1029400081E001C080E080FD07C0808191810E940C
:10295000E6150E947814089580E00895A5E0B0E09F
:10296000E4EBF4E10C94E8312596E2E00C940432B7
:10297000A6E0B0E0EEEBF4E10C94E8312696E2E05C
:102980000C940432089508950E94C31408950E947F
:10299000C41408950E94C7148093E50108950E940D
:1029A000CA1408959091E501892B0E94CA140895D4
:1029B0009091E50189230E94CA1408959091E50140
:1029C00089270E94CA1408950E94C31408950E9482
:1029D000E4148093E401089580E00E94E7140895D0
:1029E00091E001C0990F8A95EAF7892F0E94E714B8
:1029F000089521E030E001C0220F8A95EAF7809126
:102A0000E401822B0E94E714089521E030E001C028
:102A1000220F8A95EAF720958091E40182230E9493
:102A2000E714089521E030E001C0220F8A95EAF70B
:102A30008091E40182270E94E71408959091E401B7
:102A4000892B0E94E71408959091E40189230E9444
:102A5000E71408959091E40189270E94E7140895EE
:102A60000895962F9770A1E001C0AA0F9A95EAF7F2
:102A700093E0769567959A95E1F7FB01EE0FFF1FBE
:102A80006E0F7F1FFA01E60FF71F40E050E0682F3E
:102A900070E090819B01042E02C0369527950A9420
:102AA000E2F72170219529272A23292721934F5FB7
:102AB0005F4F4330510569F708959B01782F777078
:102AC00043E0969587954A95E1F7FC01EE0FFF1FCD
:102AD0008E0F9F1FF901E80FF91F40E050E080E0E2
:102AE000219130E0072E02C0369527950A94E2F72F
:102AF00021703327042E01C0220F0A94EAF7822B9B
:102B00004F5F5F4F4330510559F70895282F862FA7
:102B1000973060F4273050F4622F70E027E0929FE6
:102B2000600D711D11244FEC51E007C09C5F923085
:102B300030F4622F70E04CEC51E00E9431150895A2
:102B4000292F973058F4873048F490E06FEC71E00B
:102B500037E0239F800D911D112406C02C5F223089
:102B600030F46CEC71E090E00E945D15089580E017
:102B70000895CF92DF92FF920F931F93CF93DF932D
:102B80006C010091E4018091E501082BC3E0D0E0E5
:102B900010E0C8010C2E02C0959587950A94E2F7C3
:102BA00080FD04C02197A8F7F12C07C0FC2EB601C8
:102BB0008C2F0E94161D0197A9F38F2DDF91CF91C5
:102BC0001F910F91FF90DF90CF900895CF93DF93E7
:102BD000EC010E94B915BE010E94161DDF91CF9134
:102BE00008951F93CF93DF93EB019091CB0199232D
:102BF00021F0CB010E94E61513C0882349F0CB01D8
:102C00000E94B915182F682FCE010E94861504C0A6
:102C1000CB010E94A015182FBE01812F0E94161D06
:102C2000DF91CF911F910895E1E0F0E0DF0102C054
:102C3000AA0FBB1F6A95E2F7BD01DF0102C0AA0F10
:102C4000BB1F4A95E2F7AD01462B01C0EE0F2A9556
:102C5000EAF7942F9823491302C08E2B0895E0952C
:102C60008E230895242F462F682F8091E4010E941F
:102C700014160E94E71408951F93CF93DF93C09119
:102C8000E60116E08091E701C81799F0D0E01C9F9B
:102C9000F0011D9FF00D1124E851FE4F408151813C
:102CA00062817381848195810E94B8142196C770D6
:102CB000E9CFDF91CF911F91089540911802509173
:102CC000190260911A0270911B0280911C0290916E
:102CD0001D020E94B81408952091E6019091E70129
:102CE00056E02917A9F030E0529FF001539FF00DF4
:102CF0001124E851FE4F7181761306C0708178135C
:102D000003C07281741306C02F5F3F4F2770E9CF55
:102D100080E0089581E008950F931F93CF93DF9390
:102D200080911D0282958F7009F05AC080911A021D
:102D3000882309F455C08091E6011091E701609164
:102D4000180270911902C0911B02D0911C0291E0EF
:102D50006F3F09F090E0292F06E0811709F440C089
:102D6000209721F07F3F21F030E003C031E001C027
:102D7000322F90E030FD31C0089FF001099FF00D27
:102D80001124DF01A851BE4F11963C9111973713C2
:102D900024C03C91361321C012963C9112973111F8
:102DA0001CC013964D915C9114974C1B5D0B483CD5
:102DB000510598F480911D028F70806180931D02EF
:102DC000E351FE4F80818F708061808388E192E0C3
:102DD0000E942C140E943C1603C001968770BDCF40
:102DE000DF91CF911F910F910895A1E1B0E0EBEF3A
:102DF000F6E10C94DE318C0185E0F801DE011D96D0
:102E000001900D928A95E1F7F801E2809091180205
:102E10002091190240911B0250911C02411551054D
:102E200031F02F3F31F481E09F3F19F403C081E07E
:102E300001C080E080FD78C1F801C080D18083802E
:102E4000948088E1A82E82E0B82EF0901A02B40196
:102E5000641B750BFF2009F411C180911D02382FEE
:102E6000307F683C710508F0CBC031118AC0D212A6
:102E700013C0C91211C0FE2CE1100EC08F7080610A
:102E800080931D020E945D16C5010E942C14809142
:102E90001D02F801858362C18114910439F0FFEFAE
:102EA000DF1206C081E0CF1203C003C081E001C081
:102EB00080E080FD03C081E08E2502C080E090E0CC
:102EC00080FF05C04E2D6D2D8C2D0E946C16811437
:102ED000910439F02FEFD21206C081E0C21203C074
:102EE00003C081E001C080E080FD03C081E08E2549
:102EF00002C080E090E0682F6170B62E80FF37C07E
:102F00004E2D6D2D8C2D0E946C16F82E81112FC028
:102F1000CD86DE868D859E850E94E615292F229519
:102F20002F70243020F49F70223028F009C02A50DE
:102F3000223088F017C0992351F0811108C00EC1CA
:102F4000992329F0F8019581907F09F407C1805EEB
:102F5000883040F403C1803F08F400C1815F8330B2
:102F600008F4FCC0C8010E942C14FB2CF7C0FE2CF6
:102F7000EE2009F4F3C080911D02816080931D0250
:102F800054C0D21206C0C91204C0E11002C0F80138
:102F900099C0C8010E949314882361F1EE2051F179
:102FA00020911D02822F82958F7090E0029774F01D
:102FB000809118029091190298878F8319869B86B9
:102FC0008A862C87CE0107960E942C1486E0F80191
:102FD000A8E1B2E001900D928A95E1F70E948C166B
:102FE0000E945D160AC0D21611F1C8010E94931406
:102FF00081112CC0C8010E942C14FF24F394AEC090
:103000003111F1CF782D998A888AA6016E2D898990
:103010000E94AE1488E192E00E942C1486E0F50133
:1030200011928A95E9F70E945D16F12C97C0C9129A
:10303000DCCFE110DACFF8018583C8010E942C149F
:1030400086E0F50111928A95E9F788C0EE2091F2A9
:1030500020911D02822F82958F7090E002970CF4D0
:10306000B5CF80911802909119029A8389831B82AF
:103070009D828C822E83CE010196A6CF683C71057D
:1030800008F044C0FE2CEE2009F4B4CFD21230C0B8
:10309000C9122EC020911D0220FD21C0822F8295D1
:1030A0008F70482F50E041155105C9F0F801258374
:1030B0004F30510541F08F5F982F9295907F822F6E
:1030C0008F70892B8583C8010E942C1486E0F8013B
:1030D000A8E1B2E001900D928A95E1F73DC086E04B
:1030E000F801A8E1B2E001900D928A95E1F736C0AF
:1030F000C8010E949314811169CF80911D028160E3
:1031000080931D02C8010E942C1428C0782D998A32
:10311000888AA6016E2D89890E94AE1486E0F50189
:1031200011928A95E9F718C0EE2009F463CFC8011F
:103130000E949314F82E882309F45CCF86E0F801EE
:10314000A8E1B2E001900D928A95E1F788E192E062
:103150000E94EF100E948C160E945D168F2D6196C2
:10316000ECE00C94FA31ACE0B0E0E9EBF8E10C945F
:10317000E7314F83588769877A878B879C87CE0191
:1031800007960E94F5168823D1F09F8188852A85AD
:103190003B85232B31F08F3F31F481E09F3F19F4C1
:1031A00003C081E001C080E080FD47C04F815885A9
:1031B00069857A858B859C850E94B8143EC086E01F
:1031C000FE013796DE01119601900D928A95E1F786
:1031D000FF81E8856A857B856115710531F0EF3FD8
:1031E00031F481E0FF3F19F403C081E001C080E0C9
:1031F00080FD23C02091E70130E0C901019687706E
:1032000099274091E60150E084179507F1F1F98381
:10321000EA837D836C8396E0929FD001939FB00DEB
:103220001124A851BE4FFE01319601900D929A953E
:10323000E1F78093E7010E943C1616E08091E601D9
:103240009091E701891771F1189FC00111248851ED
:103250009E4F0E94F516882329F1E091E6011E9FFA
:10326000F0011124E851FE4F408151816281738148
:10327000848195810E94B8148091E60190E00196C6
:10328000877099278093E601D9CF0E94731410921A
:10329000E7011092E601E8E1F2E086E0DF011D922D
:1032A0008A95E9F72C96E3E00C94033280911E0294
:1032B000859585958595089580911E02877008955E
:1032C00090911E02977081E009F480E0089580914A
:1032D0002902089590912902892B8093290208954B
:1032E0008095909129028923809329020895109254
:1032F0002902089590912802892B8093280208952D
:103300008095909128028923809328020895109235
:103310002802089580911F02089508950E948D1932
:1033200008950E948E19089590917B0392FF08C022
:1033300090911F02981721F080931F020E9491190B
:10334000089580911F02882329F010921F0280E0C7
:103350000E9491190895E0910001F091010180917E
:1033600029028083E0910001F09101019081809118
:103370002802892B808380911F02882381F0E091AD
:103380000001F09101019081892B808380910001DF
:10339000909101010E949B2C81110E94A1198091A2
:1033A0000001909101010E94462C08950E948D1900
:1033B000089590917B0392FF11C098E0899F90013E
:1033C0001124262B20931E020E94F91480911E02C4
:1033D0008595859585950E94D61908950E94F914C2
:1033E000089510921E0280E00E94D619089520913F
:1033F0001E028095822380931E02982F977099F465
:1034000030E0482F082E000C550B2417350759F0D3
:1034100090917B0392FF07C08595859585950E94C5
:1034200005150E94F119089590917B0392FB2227C4
:1034300020F9281769F080FB92F990937B03809123
:103440007A0390917B030E945D1A82E00E94F71933
:10345000089580917B0382FB882780F991E089277A
:103460000E94141A089581E00E94141A089580E0C1
:103470000E94141A08956FEF7FEF80E090E00E94A1
:103480001C35089580E090E00E94F834873E9E4FFE
:1034900019F40E94851F089580E0089582E090E06D
:1034A0000E94F034089583E090E00E94F034089583
:1034B00084E090E00E94F8340895BC0184E090E03C
:1034C0000E941C350895AB01BC018FE090E00E9482
:1034D00010350895AB01BC0183E190E00E941035E6
:1034E000089560E070E0CB010E946A1A089560E0E0
:1034F00070E0CB010E94631A0E94711A089567EE72
:103500007EEF80E090E00E941C3560E082E090E079
:103510000E94FE3460E083E090E00E94FE3410924E
:10352000E50160E074E184E090E00E941C3560E019
:1035300086E090E00E94FE346FEF87E090E00E940A
:10354000FE3440E050E0BA0188E090E00E9410357F
:1035500060E08DE090E00E94FE3440E050E0BA016F
:1035600088E190E00E94103560E087E190E00E94E1
:10357000FE3440E050E0BA018CE190E00E9410354A
:1035800060E070E080E290E00E941C3540E050E096
:10359000BA0188E190E00E94103580E00E949E1FF1
:1035A0000E94D31F0E94771A08950E947F1A0895DF
:1035B000682F8EE090E00E94FE340895A5E0B0E010
:1035C000E4EEFAE10C94E6310E94712D8C018091B9
:1035D0002A0290912B0208171907A1F08FEF898317
:1035E0008A831B820E94712D8160782F9D838C833A
:1035F00049815A816B818D810E94AE1010932B02FC
:1036000000932A022596E4E00C9402320E947D2D5C
:1036100060933B0270933C0280933D0290933E0284
:1036200060933702709338028093390290933A0284
:1036300008950E947D2D60933B0270933C0280931D
:103640003D0290933E026093330270933402809364
:10365000350290933602089581E0089581E008953F
:103660000E942E1B089508950E94331B08950E9406
:10367000331B08950E94371B08950E94331B089541
:103680000E943D1B08950E94331B08958AEF9DE11F
:103690000E942F2C0E94431B0E94401B08950E94F1
:1036A000341B0E94331B08950E94191E0E94821031
:1036B00008950E94682D0E94E31F0E94E6250E9443
:1036C000E61E0E94541B80E00E942F210E943A1B9C
:1036D0000895A5E0B0E0EFE6FBE10C94DF310E9435
:1036E0002C1BB82E811104C00E94DE1AB12C52C0CE
:1036F0000E94FC1E8CE2E82E82E0F82E670100E0BA
:10370000F60111916F01802F0E94341E81270F5FF7
:10371000073019F08823A1F302C0882329F3809190
:103720003F0281FD0E943A1E0E94301B982E10E03D
:10373000812F0E94341EA82EF701C080C82611F1E7
:1037400000E0DD24D3948C2D8D21B1F09920A1F0DF
:1037500009831A8391E08A2D8D2109F490E09B83DF
:103760000E94712D8160782F9D838C8349815A81BD
:103770006B818D810E94AE100F5FDD0C073019F751
:10378000F701A0821F5FFFEFEF1AFF0A173081F6E3
:103790000E94061B0E940A2A0E940326182F8111EC
:1037A0000E94191B0E940524B11001C011110E9432
:1037B000D0220E9495102596EBE00C94FB311F93CC
:1037C000CF93DF930E941B1DEC01C11580E5D80744
:1037D000E8F5C11590E4D90708F0A8C0C03ED105AE
:1037E00030F5CD3CD10508F094C0C83AD10578F445
:1037F000C53AD10508F083C0C130D10509F47CC0B9
:1038000008F4F2C0C430D10508F0F1C0EDC0C33CEB
:10381000D10508F0E9C0C85AD0E0CC0FDD1FC65A68
:10382000DE4F0990D881C02DCE019464E1C0C1154E
:1038300080E2D80708F0CBC0C11591E0D90708F0A5
:103840006BC0C83ED10508F4D2C0CEC0C03682E5F8
:10385000D80728F5C03492E5D90708F079C0C032FE
:1038600082E5D80708F06CC0C11592E5D90708F4C5
:1038700081C04C2F4695469580E2489FA0011124B7
:10388000C37021E030E0C90102C0880F991FCA95BA
:10389000E2F7EA01C82BD92BCE019D68A9C0C03A36
:1038A00082E5D807B8F48C2F8F71C03892E5D9071C
:1038B00008F07BC08695869590E2899F900111243F
:1038C000C37081E090E002C0880F991FCA95E2F7AB
:1038D0009A6868C0C03C82E5D80708F46DC0C03E55
:1038E00092E5D90708F080C0CF71DD27DC2FCC2707
:1038F000CE01806F906A7CC081E090E079C0C55AAB
:10390000D0E0C057DE4F8881C82FD0E0CE01906450
:103910006FC0CE0190656CC08D2F0E94B71D182F0F
:10392000CE0199270E941B1D1F715CC0CE019927F3
:103930000E941B1DCC27DF70D06A8C2B9D2B58C09A
:10394000CF71D0E0DC2FCC27CE01816F906A50C0C0
:103950008C2F8F718695869590E2899F9001112416
:10396000C37081E090E002C0880F991FCA95E2F70A
:103970009C6818C08C2F8F710E94B71D95E0D6955A
:10398000C7959A95E1F7CF70D0E0DC2FCC27282F90
:1039900030E084FF05C084E0220F331F8A95E1F7F1
:1039A000D069CE01822B932B23C090E0D82FCC2757
:1039B000CE01846F906A1CC08C2F8F710E94B71D3E
:1039C0008F7190E0D82FCC27CE01906211C08D2F3F
:1039D0008F710E94B71D182FCE0199270E941B1DC1
:1039E0001F719062912B04C080E090E001C0CE0175
:1039F000DF91CF911F910895462F672F773028F4DC
:103A0000473088F40E94032808957D3F21F4411136
:103A10000AC041E004C07C3F31F4411104C060E0C1
:103A20000E940F28089580E090E008950E94FC1CF9
:103A30000E94DF1B08958238910569F1B0F481334B
:103A4000910509F475C048F48932910509F467C0FD
:103A50008A32910509F471C008958533910509F4FE
:103A600059C089339105B9F00895833E910589F1D4
:103A700038F4803E9105D1F0823E910529F10895F8
:103A8000863E9105C9F1873E9105D9F1843E9105A5
:103A900009F06CC027C020917A0320FD57C021FD9A
:103AA00055C020917B0323FD5BC0089580917A036C
:103AB00080FD48C080917B0380FF48C080917A03DD
:103AC00084FD46C083EE51C080917A0382FF3CC0E2
:103AD000F5CF80917A0382FD37C080917B0380FD12
:103AE00035C0ECCF80917B0381FF36C080917A0393
:103AF00084FD2EC087EE39C080917A0383FF2AC0EF
:103B0000F5CF80917A0383FD25C080917B0381FDF1
:103B100023C0ECCF80917A0385FD22C01FC0809125
:103B20007A0385FD1BC080917B0383FF19C00AC007
:103B300080917A0386FD16C017C080917A0386FDB6
:103B400013C010C089E311C082EE0FC080EE0DC01B
:103B500080E00BC086EE09C084EE07C085E305C097
:103B600089E203C08AE201C081E390E00895909168
:103B70007A0392FF0DC0282F2871283019F4877F0F
:103B8000846006C0282F2471243011F48B7F886054
:103B900093FF0DC0282F2871283119F4877E846186
:103BA00006C0282F2471243111F48B7E8861209166
:103BB0007B0320FF0DC0382F3871383019F4877F10
:103BC000816006C0382F3171313011F48E7F8860EA
:103BD00021FF0DC0282F2871283119F4877E8161BB
:103BE00006C0282F2171213111F48E7E886194FD49
:103BF000877E089580E008950E943B1A08950E94F0
:103C0000FC1E2FEF86E791E0215080409040E1F7C5
:103C100000C000000E94FC1E80E00E94341E80FF55
:103C200004C00E94FC1D0E94DA2D08950E94FF1D11
:103C300008950E94421A811102C00E94D51A0E9462
:103C40004E1A80933F020E94581A90937B038093F0
:103C50007A030E94161E0E94531A0E94CF1480916C
:103C6000E4010E94E4140895E82FF0E0ED57FC4FC2
:103C700080810895089580EA8A95F1F7089500C03B
:103C800008950E943B1E089508950E94441E0895C1
:103C90000E94451E08950E94441E08950E944B1ED6
:103CA0000895F894E82FE295EF70F0E031A1282F05
:103CB0002F7081E090E001C0880F2A95EAF7982FD5
:103CC0009095932391A392A1892B82A37894089530
:103CD0000F931F93CF93DF93CAE9D1E089918F3F70
:103CE00011F00E94511E81E0C13AD807B9F7C3E92B
:103CF000D1E00AE911E089918F3F11F00E94511E35
:103D00000C171D07C1F7DF91CF911F910F910895F7
:103D1000A0E0B0E0EEE8FEE10C94E2318C01C62FA9
:103D2000D0E0CE0186569E4F7C01FC0190819F3FE2
:103D300009F447C0D62EF894E92FE295EF70F0E031
:103D400081A19F7021E030E001C0220F9A95EAF72F
:103D5000822B81A382A12095282322A378940E94FC
:103D60003F1EE3E9F1E04AE951E031E0C12C219145
:103D70002F3F89F0A22FA295AF70B0E090968C9162
:103D800090E02F7002C0959587952A95E2F780FD07
:103D900002C0832F01C080E0C82A330F4E175F078F
:103DA00031F7F70180818F3F11F00E94511E61E0D1
:103DB000C11001C060E08D2D0E94411EC00FD11FB7
:103DC000C882CDB7DEB7E8E00C94FE310E94681ED1
:103DD00087E0E3E8F3E0DF01982F1D929A95E9F779
:103DE000ECE7F3E0DF011D928A95E9F787E00E9496
:103DF000371F0E944E1E0895A7E0B0E0E2E0FFE109
:103E00000C94E5318E010F5F1F4F87E0F80111928E
:103E10008A95E9F7F12C6F2DC8010E94881EF39452
:103E2000F7E0FF12F8CF47E050E0B8018CE793E0ED
:103E30000E94273221E0009709F420E0892B41F00D
:103E400087E0F801ACE7B3E001900D928A95E1F7C5
:103E500047E063E873E08CE793E00E94381F182F77
:103E60000E94481E812F2796E5E00C9401320895A8
:103E7000EF92FF920F931F93CF93DF937C018B01FF
:103E8000C42F222349F081E0809342020E94712DC9
:103E9000909341028093400280914202811102C0BE
:103EA00080E01AC080914002909141020E94892DC9
:103EB0000597B0F3D0E0AE01B701C8010E942732E8
:103EC000892B39F0AE01B701C8010E94343281E07C
:103ED00001C080E010924202CDB7DEB7E6E00C945C
:103EE00000320E940A2E0E94591B0E941B2E089528
:103EF0000E940E2D0E94FA2D0E94461B0E94711FE7
:103F00000E94292E0E944F1BFBCF82E290E00E946C
:103F1000F034823281F483E290E00E94F034853004
:103F200051F484E290E00E94F03491E0893009F08D
:103F300090E0892F01C080E081700895CF93C82F51
:103F4000811102C06FEF01C062E282E290E00E9444
:103F5000FE34C11102C06FEF01C065E083E290E062
:103F60000E94FE34C11102C06FEF01C069E084E21B
:103F700090E00E94FE34CF910895089585E290E08C
:103F80000E94F034682F70E080E090E0089508957A
:103F9000CF93C62F0E94C71F6C2F85E290E00E942E
:103FA000FE34CF91089580E00E949E1F60E070E093
:103FB000CB010E94C81F0E946F270E94622881E0E7
:103FC0000E949E1F08950E94BD1F0E94BE1F0E9456
:103FD000C71F0E94851F811102C00E94D31F089530
:103FE00008959C01FB018281882351F0A901575754
:103FF0004038510530F4C9010E94722880E00895CC
:1040000081E008952FEFFC01208308950E94022093
:10401000089580E00895A0E0B0E0E1E1F0E20C94C2
:10402000E031EC01F62E0E9409208111D7C0E88111
:104030008E2F90E0FC013197E531F10508F0C8C002
:10404000E05CFF4F0C94B83119828CE069C0898123
:10405000823089F030F4813009F0BAC00E947D2DA1
:104060000CC0833079F0843009F0B2C01A821B8210
:104070001C821D82AFC00E94BE1F9A838B837C83EB
:104080006D83A8C0EA806E0183E0C80ED11C00E0F9
:1040900010E0AE2CB12CC501800F911F079708F0DE
:1040A00099C08E2D800F0E94341EF60181936F01FE
:1040B0000F5F1F4F0C31110571F78CC08981823061
:1040C00039F0853009F084C08A810E94F01F82C0D7
:1040D0006A817B818C819D810E94BE310E94C81FB4
:1040E00079C04B816A8189810E94D2265FC02C8170
:1040F0003D813227232732274B816A8189810E94A3
:10410000F32668C00E946F2765C06F2DCE010E9404
:10411000062060C00E94192824C00E941B28998391
:104120008A8358C06B8170E089819A81AE014C5FAF
:104130005F4F9827892798270E941E284BC06B81C4
:1041400070E089819A81AE014C5F5F4F9827892783
:1041500098270E9441283EC00E9462283BC00E94CE
:10416000BF26898337C06B8170E089819A81AE0157
:104170004C5F5F4F9827892798270E94C1272AC044
:104180006B8170E089819A81AE014C5F5F4F982707
:10419000892798270E94E3271DC041E08B81811168
:1041A00001C040E06A8189810E940E279C838D8333
:1041B00011C02C813D8132272327322741E08B819A
:1041C000811101C040E06A8189810E94422702C0BA
:1041D0008FEF88836F2DCE010E94F12ECDB7DEB711
:1041E000EAE00C94FC31EF92FF920F931F93CF9370
:1041F000DF93EC017B0164E670E088E70E94412BCD
:104200008C01EC0EFD1ECE15DF0561F017FD0AC016
:10421000FE01849164E670E00E94B42B8C0121962B
:10422000892B89F30E942B2CC801CDB7DEB7E6E0BD
:104230000C940032EAE8F3E080E092E0DF019C01B8
:104240001D9221503040E1F7F0938F05E0938E05E9
:104250008FEF9FEF90936F0280936E0208950E94FC
:104260008E0E0E94E30E80936A0280FD02C080E8F9
:1042700001C080E2809369020E943B2B6DE070E0F8
:1042800080E093E10E94F320892B11F080E00895F3
:1042900080916A0263E070E081FD03C08DEF92E1DE
:1042A00002C08AEF92E10E94F320892B79F76DE03A
:1042B00070E08DEE92E10E94F320892B39F70E9485
:1042C0007D2DDC01CB01805A9541AF4FBF4F8093CC
:1042D0008A0590938B05A0938C05B0938D050E9461
:1042E0001A2181E080936D0280936C0210926B0220
:1042F00008952091690236E0839FC0011124629FD6
:10430000800D911D1124811522E0920714F080E0A8
:1043100090E086579C4F90938F0580938E0508956B
:1043200020918E0530918F052458334040916902C9
:10433000642F70E0C9010E944F31481B463010F4D1
:10434000240F311D211582E0380710F020E030E005
:1043500026573C4F30938F0520938E0508951F9369
:10436000CF93DF93162F8A3011F481E003C08D3094
:1043700021F480E00E94272266C0C0918E05D09172
:104380008F0596E0FE01A3E4B2E001900D929A95AC
:10439000E1F7803E30F086E0FE0111928A95E9F760
:1043A0000BC0F6E08F9FB0011124635F7C4E46E0A6
:1043B00050E0CE010E941E32111135C0C0918E0511
:1043C000D0918F0546E050E0BE0183E492E00E9468
:1043D0002732892BB1F1CA58D3409E0185E036952A
:1043E00027958A95E1F781E090E0AC0102C0440F87
:1043F000551F2A95E2F720916E0230916F02242B0F
:10440000352B259645E0D695C7954A95E1F702C02C
:10441000880F991FCA95E2F7822B932B90936F0216
:1044200080936E020EC0E0918E05F0918F059F0182
:104430002A5F3F4F2E173F0709F2808180958193B5
:10444000F9CF0E949021DF91CF911F910895CF93D2
:10445000E82F20918E0530918F052A5833404091E6
:104460006902642F70E0C9010E944F31481B842FFC
:10447000EE2359F066E00E944331C82FC150B0F0DE
:1044800060E080E20E94AF21F9CFA901480F511DE1
:104490004115524018F080E020E030E0280F311D37
:1044A00026573C4F30938F0520938E05CF9108956A
:1044B000FF920F931F93CF93DF93EC01F62EFC0135
:1044C00001900020E9F78F0101501109C017D107B1
:1044D00028F46F2D89910E94AF21F8CFCDB7DEB7B8
:1044E000E5E00C9401321F93CF93DF93EC01162F7C
:1044F000FE018491882329F0612F0E94AF2121962B
:10450000F7CFDF91CF911F910895EF92FF920F9314
:104510001F93CF93DF9320918E0530918F052A58FA
:104520003340A901460F571F4130524020F060E050
:1045300072E0621B730BC0916E02D0916F02D901C1
:10454000A657BC4FA901620F731F01E010E0461788
:104550005707E8F4FA01E21BF30BE80FF91FE491A7
:10456000FC91EF1781F0EC93FA01689414F8F6953A
:10457000E7951694E1F7780102C0EE0CFF1CEA956E
:10458000E2F7CE29DF294F5F5F4F1196E0CFD0933E
:104590006F02C0936E02CDB7DEB7E6E00C94003236
:1045A00080916D028823F9F00E947D2DDC01CB0102
:1045B000805A9541AF4FBF4F80938A0590938B05EA
:1045C000A0938C05B0938D0580916C0281110BC076
:1045D00062E070E08BEE92E10E94F320892B19F4E7
:1045E00081E080936C0280916C020895A0E0B0E0BD
:1045F000ECEFF2E20C94DA3180916E0290916F024E
:10460000892B09F4E3C080916D02882309F4DEC090
:1046100080916B028111DAC00E94D02220916E023B
:1046200030916F022115310509F4D0C080E041E0DE
:1046300050E0082F10E02A01082E02C0440C551C3F
:104640000A94E2F7B20162237323672B11F48F5FA0
:10465000F0CF90916A02980165E0220F331F6A95AE
:10466000E1F790FF13C055E0369527955A95E1F78D
:10467000220F220F220F2093040110920701295FBD
:104680002093050183E08093080111C08295880F73
:10469000807680930401220F232F221F330B319544
:1046A00020930701815E809305011092080124E6A2
:1046B00030E047E050E062E071E088E70E94E32BE1
:1046C000892B09F083C080916A0280FF60C080E27C
:1046D000E9E4F2E0DF011D928A95E9F7680135E02F
:1046E000CC0CDD1C3A95E1F7A5EAB1E041EA51E0D6
:1046F00009EA11E0772473948D91EA019991AE0152
:10470000B601690F711D66577C4F90E0875B9D4F26
:10471000FC0127E0A22E9F01281B390B872C01C02A
:10472000880C2A95EAF77B01912CE701B9907E016C
:10473000B8202A2D29192770622E022E000C330B67
:10474000DB2D01C0DD0F6A94EAF76D2E31952195BE
:1047500031092770332701C0B6942A95EAF7BD2A9C
:104760002081B22AB082939428E09212DECFAA94DC
:104770003196CFEFAC12CFCF0A171B0709F0BCCF91
:1047800004E610E020E230E049E452E00CC0A80169
:1047900085E0440F551F8A95E1F746575C4F04E6C4
:1047A00010E020E230E060E488E70E94042C892BCE
:1047B00069F4E201C095D09580916E0290916F02EC
:1047C000C823D923D0936F02C0936E02CDB7DEB752
:1047D000E0E10C94F63180916D0290916C02882397
:1047E00089F0992369F062E070E089EE92E10E941D
:1047F000F320892B19F080916C02089510926C02BD
:1048000090916C0281E0892708950F931F93809106
:104810006D02882319F160E080E00E9479210E94F6
:10482000900E0E94F62280916C028823B9F00E94BB
:104830007D2D00918A0510918B0520918C0530917A
:104840008D05DC01CB01801B910BA20BB30B8F3FBD
:104850009F4FAF4FBF4710F40E94EB231F910F9162
:104860000895CF93DF93FC01DB0112968C9188238E
:1048700009F4DDC09F0130572332310508F0D8C05C
:10488000EF010E94581A90937B0380937A03FE01F4
:10489000E150F047E232F10520F4EB5AFF4F0C945F
:1048A000B83180917A038160AAC080917B038860CF
:1048B000B2C080917A038260A2C080917A0320C046
:1048C00080917A0388609BC080917B031EC0809199
:1048D0007B038260A0C080917A03806190C0809148
:1048E0007A0380628CC080917A03806488C00E94C1
:1048F000731480917A03806882C080917A03886003
:1049000084607DC080917B038260816084C08091DF
:104910007A038E7F74C080917B03877F7CC08091F7
:104920007A038D7F6CC080917A0320C080917A03D6
:10493000877F65C080917B031EC080917B038D7F44
:104940006AC080917A038F7E5AC080917A038F7DEE
:1049500056C080917A038F7B52C00E94731480915D
:104960007A038F774CC080917A03877F8B7F47C013
:1049700080917B038D7F8E7F4EC080917A0382FB76
:10498000222720F991E0922790FB82F990FB83F98E
:1049900036C080917B03982F909591708E7F892BE4
:1049A00090FB81F938C080917A0386FB222720F999
:1049B00091E0922790FB86F922C00E9473148091A7
:1049C0007A0387FB222720F991E0922790FB87F951
:1049D00016C081E001C080E00E94D81A1EC08091FC
:1049E0007A0384FB222720F991E0922790FB84F937
:1049F00006C080917A03982F909590FB80F9809360
:104A00007A030BC080917B0383FB222720F991E07E
:104A1000922790FB83F980937B0380917A03909196
:104A20007B030E945D1A0E94731480E001C081E044
:104A3000DF91CF910895A0E0B0E0E1E2F5E20C94BF
:104A4000E331E82FF0E0E35BF74ED490282F269572
:104A50002695269530E0F901E351F74E04918770D1
:104A600010E0082E02C0159507950A94E2F7017030
:104A70001127F901E352F74EE490F12C082E02C001
:104A8000F594E7940A94E2F791E0E922FF24F90112
:104A9000E353F74EC491D0E002C0D595C7958A95EF
:104AA000E2F7C170DD270115110519F081EE0E94B2
:104AB000F510E114F10419F086EE0E94F5108D2D29
:104AC0000E940F12E114F10419F086EE0E94961173
:104AD0000115110519F081EE0E949611CD2B19F0E8
:104AE0008CE20E940F12CDB7DEB7E7E00C94FF31E5
:104AF000EF92FF920F931F93CF93DF93EC01162F4A
:104B00000AE08881882309F455C0813009F043C048
:104B10008981813041F47E0182E0E80EF11C8A81B6
:104B20000E940F1209C0823049F47E01E2E0EE0ECD
:104B3000F11C8A810E94F510E7012FC0833041F4F7
:104B40007E01F2E0EF0EF11C8A810E949611F4CFF3
:104B5000843011F0219621C02A81229680E090E0D5
:104B600030E0205331092A30310558F4089FA00164
:104B7000099F500D1124C901840F951F219628818A
:104B8000EFCF009751F0EFE9FFE03197F1F700C068
:104B900000000197F6CF0E941B252196812F8823C4
:104BA00009F4AFCFEFE9FFE03197F1F700C0000063
:104BB0008150F5CFCDB7DEB7E6E00C9400328FE838
:104BC00091E00197F1F700C00000089581E0809323
:104BD000710224982C9A25982D9A0E94DF253091F5
:104BE0007102E3E7F2E090E0931761F083B1829500
:104BF00081701D9902C020E001C022E0822B8193C8
:104C00009F5FF2CF0895A4E1B0E0E9E0F6E20C94F2
:104C1000DD3110E000E084E0C82ED12C9DEF992E0C
:104C2000882483942CEF722E80917102181708F05B
:104C3000A1C0E12EF12CE3B1E295E1701D9902C013
:104C400080E001C082E08E2BD701AD58BD4FEC91C2
:104C50002E2F237030E0482F082E000C550B241700
:104C6000350709F485C0EE0FEE0FE82BEC93EF70DB
:104C7000F0E0E755FE4FC7018E589D4F5C019081D3
:104C8000F5018081890F8083843094F1F701E05928
:104C9000FD4F80818F5F80830E94712D1B877C86F2
:104CA0008D868160782F9F878E87412F5CEF61E032
:104CB0008F850E94AE108FE39CE90197F1F700C049
:104CC00000000E94712D188B798A1A8A8160782FD2
:104CD0009C8B8B8B412F5CEF60E08C890E94AE1027
:104CE000EFE3FCE93197F1F700C0000021E001C0DB
:104CF00020E0F50180818D3F8CF5F701E059FD4FF3
:104D00008081815080830E94712D19839A828B82C9
:104D10008160782F9D838C83412F5DEF61E08D81D1
:104D20000E94AE108FE39CE90197F1F700C00000EC
:104D30000E94712D1E839F8218868160782F9A872A
:104D40008987412F5DEF60E08A850E94AE10EFE316
:104D5000FCE93197F1F700C0000021E0F501808106
:104D6000082E000C990BB6010E9463318083022B40
:104D70001F5F5ACF802F6496EDE00C94F93184E0E8
:104D8000089550E0440F551F2EE0629F400D511DC5
:104D900011249A0162E6869F200D311D1124C9015C
:104DA000869608950F931F93CF93DF938430A0F4DA
:104DB000673090F4473080F40E94C1268C010E9435
:104DC000F03490E0D82FCC27C80101960E94F0342F
:104DD0009E01282BC90102C080E090E0DF91CF91B5
:104DE0001F910F9108950F931F93CF93DF938430FA
:104DF00080F4673070F4473060F4E9010E94C12606
:104E00008C016D2F0E94FE346C2FC80101960E9408
:104E1000FE34DF91CF911F910F910895FF920F9370
:104E20001F93CF93DF93843030F5611124C024E0C9
:104E3000829F8001112402551E4F411103C082E060
:104E400090E002C080E090E0F42E800F911F0E945D
:104E5000F03490E0D82FCC27F11003C083E090E02D
:104E600002C081E090E0800F911F0E94F0349E010B
:104E7000282BC90102C080E090E0CDB7DEB7E5E0A5
:104E80000C9401320F931F93CF93DF93843010F56E
:104E9000611120C094E0899FE0011124C255DE4FCA
:104EA000411103C082E090E002C080E090E0632FF7
:104EB000022F142F8C0F9D1F0E94FE34111103C06E
:104EC00083E090E002C081E090E0602F8C0F9D1F96
:104ED0000E94FE34DF91CF911F910F9108950F939F
:104EE0001F93CF93DF93C0E0D0E010E000E00E947A
:104EF0005D0F90E0C817D9073CF4402F612F8C2F2D
:104F00000E945F0F9C0102C021E030E0402F612F22
:104F10008C2F0E94F3260F5F073049F71F5F173071
:104F200029F70E947A0F90E0C817D90794F441E05E
:104F300060E08C2F0E947C0F9C0141E060E08C2F90
:104F40000E94422740E060E08C2F0E947C0F9C0171
:104F500009C021E030E041E060E08C2F0E94422750
:104F600021E030E040E060E08C2F0E944227219653
:104F7000C430D10509F0B9CFDF91CF911F910F91C6
:104F80000895EF92FF920F931F93CF93DF93EA015F
:104F90007A01E60EF71E8C01C8018696CE15DF0554
:104FA00069F0083821E0120720F40E94F034888369
:104FB00001C0188221960F5F1F4FEECFCDB7DEB72D
:104FC000E6E00C940032EF92FF920F931F93CF9381
:104FD000DF93EA017A01E60EF71E8C01C80186967E
:104FE000CE15DF0559F0083821E0120718F4688162
:104FF0000E94FE3421960F5F1F4FF0CFCDB7DEB772
:10500000E6E00C940032843038F4673028F44730FE
:1050100018F40E94D226089580E090E0089584302C
:1050200028F4611103C00E940E27089580E090E0EB
:10503000089580E1089582E492E00895EF92FF924E
:105040000F931F93CF93DF93EA017A01E60EF71EC9
:105050008C01C80182549E4FCE15DF0569F00234E1
:1050600022E0120720F40E94F034888301C01882E5
:1050700021960F5F1F4FEDCFCDB7DEB7E6E00C9462
:105080000032EF92FF920F931F93CF93DF93EA01C9
:105090007A01E60EF71E8C01C80182549E4FCE1590
:1050A000DF0559F0023422E0120718F468810E94EB
:1050B000FE3421960F5F1F4FEFCFCDB7DEB7E6E08E
:1050C0000C940032CF93DF93CEEBD1E060E0CE01C1
:1050D0000E94FE342196C11584E0D807B9F7DF910C
:1050E000CF910895A8E0B0E0E8E7F8E20C94DE3153
:1050F000F82E8FE08F1508F474C08FEF93E00E94B4
:10510000F03481116EC00EEB11E0FF2071F001153B
:1051100094E0190709F465C0C8010E94F0348111B8
:1051200001C0FA940F5F1F4FF0CFFE0131966F015F
:1051300088E011928A95E9F77801FFEFEF1AFF0AEC
:10514000C8010E94F03489831A82882309F449C077
:10515000813009F040C0580182E0A80EB11CC7019F
:105160000E94F0348A838823E1F19FEF980F9330F7
:1051700060F4780193E0E90EF11CC5010E94F0345F
:105180008B83882371F11C8226C0843019F54E016F
:10519000E3E08E0E911C02E010E07501FFEFEF1AC4
:1051A000FF0AC5010E94F034F40181934F01882366
:1051B000C1F08C3741F4E2E0F0E0EC0FFD1FE00FAE
:1051C000F11F108208C00F5F1F4F570107301105F4
:1051D00021F707C075016AE0C6010E9478258701A2
:1051E000ABCF2896ECE00C94FA31CF93DF93863165
:1051F0009C4741F5EB010E946719982F8A81209105
:10520000000130910101882379F09A7A81E009F454
:1052100080E080937402911102C069E201C065E3ED
:10522000C9010E94DD2C0AC080917402811102C064
:1052300069E201C065E3C9010E94E02C0E94AB193C
:1052400080E001C081E0DF91CF9108950F931F931B
:10525000CF93DF93C42FD22FFC0182818823B1F03A
:10526000409377020E94712D90937602809375028D
:1052700080E28C0F883008F04DC0C77081E001C01B
:10528000880FCA95EAF70E94191244C080917702EC
:10529000481330C080917502909176020E94892D4A
:1052A000883C910538F510E21D0FCD17B9F080E26A
:1052B0008C0F883040F4C77081E001C0880FCA9518
:1052C000EAF70E942012183010F581E09D2F9770A8
:1052D00001C0880F9A95EAF70E941912802F0E9448
:1052E0000F121830B8F4D77081E001C0880FDA953A
:1052F000EAF70AC080E28C0F883060F4C77081E062
:1053000001C0880FCA95EAF70E94201203C0802FBF
:105310000E940F12DF91CF911F910F9108950F936B
:10532000FC01E851FC47E730F10590F5CB01E95865
:10533000FF4F0C94B83106E221EE41EE6AE17CE7C2
:1053400023C007E225EE45EE6BE17CE71DC006E2D7
:1053500021EE40EE68E17CE717C007E225EE44EE5F
:1053600069E17CE711C006E221EE42EE6CE17CE7E8
:105370000BC007E225EE46EE6DE17CE705C008E2D2
:1053800021E045EE6EE17CE70E94262980E008C01E
:10539000FB018281882319F01092770201C081E01D
:1053A0000F9108958091B50208959C013A952115B9
:1053B0003F4410F4992706C08F3F910519F010F073
:1053C00080E090E09C01245031092432310540F006
:1053D0002752310981E02E30310518F080E0089520
:1053E00081E008950E94D52908950E94F22988231A
:1053F00081F0E0917E02F0E0EE0FFF1FE158FD4FDB
:10540000808191818F3F2FE7920719F00196918358
:10541000808308954F925F926F927F928F929F92B6
:10542000AF92BF92CF92DF92EF92FF92CF93C09054
:105430007F02D09080020D2C000CEE08FF088091B6
:10544000090190E0E1E8F2E021E030E08217930703
:105450006CF041915191052E000C660B770BC40E38
:10546000D51EE61EF71E2F5F3F4FF0CFF7FE03C09D
:10547000C12CD12C76016091B1027091B202809161
:10548000B3029091B4020E94982D2B013C01C0916F
:105490000901A0E6BAEEA70196010E94C5314B01B1
:1054A0005C0188ECC89F90011124C901330FAA0B3D
:1054B000BB0B9C01AD01240D351D461D571DA5E0FC
:1054C000B0E00E94C5319B01AC01C501B4010E944E
:1054D000773149015A0157FD0BC0213F3105410584
:1054E00051054CF030EF832E912CA12CB12C03C030
:1054F000812C912C540189EC4816510461047104EB
:1055000014F180917E0290E0019669E170E00E94C2
:10551000633180937E02880F991FFC01E158FD4F93
:1055200011821082C83110F4CF5F01C0C8E1C0936E
:1055300009010E947D2D6093B1027093B2028093A5
:10554000B3029093B40282E0C816D104E104F104DE
:105550001CF4812C912C540160917A0270917B0291
:1055600080917C0290917D020E94982D6B017C01BC
:1055700085E6C816D104E104F10484F00E947D2D73
:1055800060937A0270937B0280937C0290937D02F9
:105590008091B5028093790280927802C09179025D
:1055A000A0917802B0E0AC1BB109A70196010E945E
:1055B000D03124E630E040E050E00E9499312C0FD9
:1055C0002093B502CF91FF90EF90DF90CF90BF90E6
:1055D000AF909F908F907F906F905F904F900895C5
:1055E0001F93CF93DF9387372CE7920721F08837FB
:1055F0009C4759F031C0FB01C281CC2319F00E94B5
:10560000322B09C00E94322B18C0FB01C281CC236F
:1056100091F00E94352B0E94F9140E94382BD82F4C
:105620000E94352BC82F0E94322B4D2F6C2F0E94C9
:105630003216C0E012C00E94352B0E9405150E9450
:10564000382B182F0E94352BD82F0E94322B412F38
:105650006D2F0E94321601C0C1E08C2FDF91CF91D7
:105660001F91089580910C01089580910B01089578
:1056700080910A0108951092B9008CE08093B800DF
:105680000895A0E0B0E0E7E4FBE20C94DF31B82E2F
:10569000EB010E94712D6C01C431D10558F0CF3F50
:1056A0008FEFD80759F0CE0164E170E00E944F31CE
:1056B0007B0107C0EE24E394F12C03C025E0E22E29
:1056C000F12C84E8A82E94EA992E1092BC009092B6
:1056D000BC000E94712D8C018091BC0087FD07C029
:1056E000C8010E94892DE816F906B0F729C08091FB
:1056F000B900887F883041F08091B900887F80317F
:1057000019F00FEF1FEF1EC0B092BB00A092BC00BB
:105710000E94712D8C018091BC0087FD07C0C801DB
:105720000E94892DE816F906B0F70AC08091B900E9
:10573000887F883111F0803421F700E010E00EC03E
:105740000EEF1FEFCF3F8FEFD80709F4BECFC60192
:105750000E94892DC817D90708F0B7CFC801CDB767
:10576000DEB7EBE00C94FB310F931F93CF93DF93E5
:10577000EB018093BB0084E88093BC000E94712DF4
:105780008C018091BC0087FD0DC0CF3F8FEFD80703
:10579000C1F3C8010E94892DC817D90790F78EEF71
:1057A0009FEF0CC02091B900287F81E090E0283263
:1057B00011F480E090E0919581959109DF91CF916E
:1057C0001F910F910895A0E0B0E0E9EEFBE20C9488
:1057D000E2316B018A017901B9010E94412BE60196
:1057E0000C0D1D1DC017D10741F424E92093BC0006
:1057F000CDB7DEB7E8E00C94FE3197FDF6CFB701E8
:1058000089910E94B42BEECFA0E0B0E0EAE0FCE288
:105810000C94E231C62F6A017901B8010E94412B34
:1058200097FD11C0B8018C2F0E94B42BE601EC0C3F
:10583000FD1CCE15DF0539F097FD05C0B801899133
:105840000E94B42BF6CF24E92093BC00CDB7DEB77D
:10585000E8E00C94FE3184E98093BC0008959093B5
:10586000BB018093BA0108959093BB028093BA0262
:105870000895E091BA02F091BB02309729F00190AF
:10588000F081E02D0995089580E00895E091BA0235
:10589000F091BB02309721F00280F381E02D099551
:1058A0000895A3E0B0E0E7E5FCE20C94E831209134
:1058B000B8023091B90228173907A1F09093B902C4
:1058C0008093B802E091BA02F091BB02309751F098
:1058D00023E029839B838A830680F781E02DCE0114
:1058E000019609952396E2E00C940432A3E0B0E01F
:1058F000ECE7FCE20C94E8312091B6023091B7025B
:1059000028173907A1F09093B7028093B602E0916F
:10591000BA02F091BB02309751F024E029839B83B7
:105920008A830680F781E02DCE01019609952396A2
:10593000E2E00C940432FC01329697E080E0915052
:1059400029F021912223D9F38F5FF9CF089566239F
:1059500049F0FC01329608962191621729F0E81768
:10596000F907D1F780E0089581E008959C01FC01DA
:1059700032969FEF80E04191461789F09F3F19F4DE
:10598000411101C0982F8F5F8630A9F79F3F39F0F2
:10599000F901E90FF11D97FDFA95628308950895C5
:1059A0009C012A5F3F4FFC014281461301C01282D5
:1059B000019682179307B9F708950E94B62C0895AF
:1059C0000E94D02C0895029626E0FC0111922A959F
:1059D000E9F7089508950E94EA2C08950E94EB2C9F
:1059E00008950E94EA2C08950E94EA2C08950E94CE
:1059F000EA2C0895CF930E94F42C0E94FC1E0E9472
:105A0000F12CC0E08C2F0E94341E811104C0CF5FA6
:105A1000C730C1F701C081E0CF91089508951F926A
:105A20000F920FB60F9211248F939F93AF93BF9352
:105A30008091BC02811113C08091900590919105D5
:105A4000A0919205B09193054196A11DB11D80933F
:105A5000900590939105A0939205B0939305BF9103
:105A6000AF919F918F910F900FBE0F901F9018953F
:105A70008091BF02882331F10E9463101092BC0212
:105A800020E488E190E00FB6F894A8958093600038
:105A90000FBE2093600083B7817F846083BF83B78C
:105AA000816083BF7894889583B78E7F83BF0FB65C
:105AB000F894A895809160008861809360001092AE
:105AC00060000FBE08950E9473140E946A1008952A
:105AD00082E084BD93E095BD9AEF97BD80936E0000
