:100000000C940C0D0C94290D0C94440D0C94290D9A
:100010000C94290D0C94290D0C94052E0C94290D8B
:100020000C94290D0C94290D0C94290D0C94290D78
:100030000C94290D0C94290D0C94AA2E0C94290DC6
:100040000C94290D0C94290D0C94290D0C94290D58
:100050000C94290D0C94290D0C94290D0C94290D48
:100060000C94290D0C94290D7A137A13A613A61358
:10007000091427141B151B152C14A214B314B31444
:10008000ED275F28F527BF27C327F927C627FC27B9
:100090000728D1275528D5270B28D9270F283928F5
:1000A000DD2713284328E32719282328CA270028F7
:1000B000CD270328E8271E282F284F285128BB27A3
:1000C000F1276828BD29C329B129B729C929CF2912
:1000D000D529B6B6B6B6B6B6B6B6B6B6B6B6B6B62E
:1000E000B695B596D5B6B680818283848586878895
:1000F000898A8B8C8D8E8F9091929394A0A1A2A3CC
:10010000A4A5A6A7A8A9AAABACADAEAFB0B1B2B337
:10011000B4C0C1C2C3C4C5C6C7C8C9CACBCCCDCE82
:10012000CFD0D1D2D3D400000000000000000000E6
:1001300000000000000000000000000000000000BF
:1001400000000000000000000000000000000000AF
:10015000000000000000000000000000000000009F
:1001600000804040202020201010101010080804AB
:10017000040408304080000000000000000000007F
:10018000000000000000000000000000000000006F
:10019000000000000000000000000000000000005F
:1001A00000000000808080000000000000000000CF
:1001B000000000000000000000000000000000003F
:1001C000000000000000000000000000000000002F
:1001D0000000000000000000186482020202020217
:1001E000010000000080800000000000000000000E
:1001F0008000303000C0C1C1C2040810204080001F
:10020000000080808080404040402020202010104E
:10021000101008080808080404040404020202027A
:1002200001010101000000000000000000000000CA
:1002300000000000000000000000000000000000BE
:1002400000000000000000000000000000000000AE
:1002500000000000000000C038040300000000009F
:1002600000000C0C0C0D010040A0212212111111F4
:100270000908080808040408081010101010110FCD
:10028000010100000000000000000000000000006C
:10029000000000000000000000000000000000005E
:1002A000000000000000000000000000000000004E
:1002B00000000000000000008080808080404040FE
:1002C000404020202020201010101010080808089E
:1002D00008040404040402030202010101010101F3
:1002E00002020404080808080807000000000000D3
:1002F00000000000000000000000000000000000FE
:1003000000000000000000000000000000000000ED
:1003100000000000000000000000000000000000DD
:1003200000000000000000000000000000000000CD
:1003300000000000000000000000000000000000BD
:1003400000000000000000000000000000000000AD
:10035000000000000000000000000000000000009D
:1003600000804040202020201010101010080804A9
:10037000040408304080000000000000000000007D
:10038000000000000000000000000000000000006D
:10039000000000000000000000000000000000005D
:1003A00000000000808080000000000000000000CD
:1003B000000000000000000000000000000000003D
:1003C000000000000000000000000000000000002D
:1003D0000000000000000000186482020202020215
:1003E000010000000080800000000000000000000C
:1003F0008000303000C0C1C1C2040810204080001D
:10040000000080808080404040402020202010104C
:100410001010080808080804040404040202020278
:1004200001010101000000000000000000000000C8
:1004300000000000000000000000000000000000BC
:1004400000000000000000000000000000000000AC
:1004500000000000000000C038040300000000009D
:1004600000000C0C0C0D010040A0212212111111F2
:100470000908080808040408081010101010110FCB
:10048000010100000000000000000000000000006A
:10049000000000000000000000000000000000005C
:1004A000000000000000000000000000000000004C
:1004B00000000000000000008080808080404040FC
:1004C000404020202020201010101010080808089C
:1004D00008040404040402030202010101010101F1
:1004E00002020404080808080807000000000000D1
:1004F00000000000000000000000000000000000FC
:1005000000000000000000000000000000000000EB
:1005100000000000000000000000000000000000DB
:1005200000000000000000000000000000000000CB
:1005300000000000000000000000000000000000BB
:1005400000000000000000000000000000000000AB
:10055000000000000000000000000000000000009B
:1005600000008080404040402020202010080402ED
:10057000020418608000000000000000000000007D
:10058000000000000000000000000000000000006B
:10059000000000000000000000000000000000005B
:1005A00000000000808080000000000000000000CB
:1005B000000000000000000000000000000000003B
:1005C000000000000000000000000000000000002B
:1005D00000000000000000003CC20101020204040F
:1005E0000201000000000000000000000000000008
:1005F000000060600081828284081020408000003A
:10060000000080808080404040402020202010104A
:100610001010080808080804040404040202020276
:1006200001010101000000000000000000000000C6
:1006300000000000000000000000000000000000BA
:1006400000000000000000000000000000000000AA
:10065000000000000000008070190600000000008B
:1006600000001818181B030040A0222414121212B4
:100670000B08080808050509091010101010110FC3
:100680000101000000000000000000000000000068
:10069000000000000000000000000000000000005A
:1006A000000000000000000000000000000000004A
:1006B00000000000000000008080808080404040FA
:1006C000404020202020201010101010080808089A
:1006D00008040404040402030202010101010101EF
:1006E00002020404080808080807000000000000CF
:1006F00000000000000000000000000000000000FA
:1007000000000000000000000000000000000000E9
:1007100000000000000000000000000000000000D9
:1007200000000000000000000000000000000000C9
:1007300000000000000000000000000000000000B9
:1007400000000000000000000000000000000000A9
:100750000000000000000000000080800000000099
:1007600000804040202020201010101008040201BA
:1007700001020C304080000000000000000000007A
:100780000000000000000000000000000000000069
:100790000000000000000000000000000000000059
:1007A00000000000808080000000000000000000C9
:1007B0000000000000000000000000000000000039
:1007C0000000000000000000000000000000000029
:1007D00000000000000000001EE100000101020214
:1007E0000100000000808000000000000000000008
:1007F0008000303000C0C1C1C20408102040800019
:100800000000808080804040404020202020101048
:100810001010080808080804040404040202020274
:1008200001010101000000000000000000000000C4
:1008300000000000000000000000000000000000B8
:1008400000000000000000000000000000000000A8
:100850000000000000000080700C03000000000099
:1008600000000C0C0C0D010040A0212212111111EE
:100870000908080808040408081010101010110FC7
:100880000101000000000000000000000000000066
:100890000000000000000000000000000000000058
:1008A0000000000000000000000000000000000048
:1008B00000000000000000008080808080404040F8
:1008C0004040202020202010101010100808080898
:1008D00008040404040402030202010101010101ED
:1008E00002020404080808080807000000000000CD
:1008F00000000000000000000000000000000000F8
:1009000000000000000000000000000000000000E7
:1009100000000000000000000000000000000000D7
:1009200000000000000000000000000000000000C7
:1009300000000000000000000000000000000000B7
:1009400000000000000000000000000000000000A7
:100950000000000000000000000000000000000097
:1009600000804040202020201010101008080402B1
:100970000202043840800000000000000000000077
:100980000000000000000000000000000000000067
:100990000000000000000000000000000000000057
:1009A00000000000808080000000000000000000C7
:1009B0000000000000000000000000000000000037
:1009C0000000000000000000000000000000000027
:1009D00000000000000000001CE20101020202020F
:1009E0000100000000808000000000000000000006
:1009F0008000303000C0C1C1C20408102040800017
:100A00000000808080804040404020202020101046
:100A10001010080808080804040404040202020272
:100A200001010101000000000000000000000000C2
:100A300000000000000000000000000000000000B6
:100A400000000000000000000000000000000000A6
:100A50000000000000000080700C03000000000097
:100A600000000C0C0C0D010040A0212212111111EC
:100A70000908080808040408081010101010110FC5
:100A80000101000000000000000000000000000064
:100A90000000000000000000000000000000000056
:100AA0000000000000000000000000000000000046
:100AB00000000000000000008080808080404040F6
:100AC0004040202020202010101010100808080896
:100AD00008040404040402030202010101010101EB
:100AE00002020404080808080807000000000000CB
:100AF00000000000000000000000000000000000F6
:100B000000000000000000000000000000000000E5
:100B100000000000000000000000000000000000D5
:100B200000000000000000000000000000000000C5
:100B300000000000000000000000000000000000B5
:100B400000000000000000000000000000000000A5
:100B50000000000000000000000080800000000095
:100B600000804040202020201010101008040201B6
:100B700001020C3040800000000000000000000076
:100B80000000000000000000000000000000000065
:100B90000000000000000000000000000000000055
:100BA00000000000808080000000000000000000C5
:100BB0000000000000000000000000000000000035
:100BC0000000000000000000000000000000000025
:100BD00000000000000000001EE100000101020210
:100BE0008180800000808000000000000000000084
:100BF00080003030000001E11A06093135018A7C9D
:100C00000000808080804040404020202020101044
:100C10001010080808080804040404040202020270
:100C200001010101000000000000000000000000C0
:100C300000000000000000000000000000000000B4
:100C400000000000000000000000000000000000A4
:100C50000000000000000080700C03000018060572
:100C6000989984C37C4141404020212212111111E6
:100C7000090808080804040404040402020201012B
:100C80000101000000000000000000000000000062
:100C90000000000000000000000000000000000054
:100CA0000000000000000000000000000000000044
:100CB00000000000000000008080808080404040F4
:100CC0004040202020202010101010100808080894
:100CD00008040404040402030202010101010101E9
:100CE0000000000000000000000000000000000004
:100CF00000000000000000000000000000000000F4
:100D000000000000000000000000000000000000E3
:100D100000000000000000000000000000000000D3
:100D200000000000000000000000000000000000C3
:100D300000000000000000000000000000000000B3
:100D400000000000000000000000000000000000A3
:100D50000000000000000000000080800000000093
:100D600000804040202020201010101008040201B4
:100D700001020C30408000000000000000F8F8F88C
:100D8000F80000000000808000000000000000006B
:100D90000000000000000000000000000000000053
:100DA00000000000808080000000000000000000C3
:100DB0000000000000000000000000000000000033
:100DC0000000000000000000000000000000000023
:100DD00000000000000000001EE10000010102020E
:100DE0008180800000808000000000000000000082
:100DF0008000303000000101020408102043870702
:100E00000100B8BCBE9F5F5F4F4C20202020101017
:100E1000101008080808080404040404020202026E
:100E200001010101000000000000000000000000BE
:100E300000000000000000000000000000000000B2
:100E400000000000000000000000000000000000A2
:100E50000000000000000080700C03000018060570
:100E6000989984437C414140402021221211111164
:100E70000908080808040408081010101010110FC1
:100E8000013D7CFCFCFCFCFC3C0C00000000000074
:100E90000000000000000000000000000000000052
:100EA0000000000000000000000000000000000042
:100EB00000000000000000008080808080404040F2
:100EC0004040202020202010101010100808080892
:100ED00008040404040402030202010101010101E7
:100EE0000000000000000000000000000000000002
:100EF00000000000000000000000000000000000F2
:100F000000000000010303000000000000000000DA
:100F100000000000000000000000000000000000D1
:100F200000000000000000000000000000000000C1
:100F300000000000000000000000000000000000B1
:100F400000000000000000000000000000000000A1
:100F50000000000000000000000080800000000091
:100F600000804040202020201010101008040201B2
:100F700001020C3040800000000000000000000072
:100F80000000000000000000000000000000000061
:100F90000000000000000000000000000000000051
:100FA00000000000808080000000000000000000C1
:100FB0000000000000000000000000000000000031
:100FC0000000000000000000000000000000000021
:100FD00000000000000000001EE10000010102020C
:100FE0000100000000808000000000000000000000
:100FF00080003030000001E11A06093135018A7C99
:101000000000808080804040404020202020101040
:10101000101008080808080404040404020202026C
:1010200001010101000000000000000000000000BC
:1010300000000000000000000000000000000000B0
:1010400000000000000000000000000000000000A0
:101050000000000000000080700C03000000000091
:10106000000000000001010040A021221211111116
:101070000908080808040404040404020202010127
:10108000010100000000000000000000000000005E
:101090000000000000000000000000000000000050
:1010A0000000000000000000000000000000000040
:1010B00000000000000000008080808080404040F0
:1010C0004040202020202010101010100808080890
:1010D00008040404040402037A7A797979793931AD
:1010E00002020404080808888887800000000000C5
:1010F00000000000000000000000000000000000F0
:1011000000000000000000000000000000000000DF
:1011100000000000000000000000000000000000CF
:1011200000000000000000005714001A000800151D
:101130000017001C00215204001600070009000AD5
:10114000000B00E1006400E4001B0006001900052C
:1011500000E000E2003800E6002C422C422C420065
:10116000003000407E130012000C0018000000E365
:10117000002A0028000F000E000D0000001D00E5F1
:10118000003700360010001100167C01000100013C
:1011900000241427140100010034002D0001002553
:1011A00002260201000100010030142E000100257A
:1011B0001426140100010024022D1423522352236B
:1011C0005200003200A8002D02330052002F000010
:1011D0000001004C0001004F00510050000000359C
:1011E0000027021F0232024D004A003A003B003C39
:1011F000003D003E003F0040001E001F0020002177
:101200000022002300240001000100010001000170
:1012100000010001000100010001000100010001C6
:1012200000010000000100010044004300420041B1
:1012300000000001002A0001002700260025000010
:10124000000100010037003600010001000100012B
:101250000001000100010001000100010001000186
:10126000000100DD000100D90001000100010001C2
:101270000001000100010001000100010001000166
:1012800000010001000000DA000100D300D200CD0F
:1012900000D1000000010001000100D000CE00CF0D
:1012A00000000001000100010001000100010054E4
:1012B00065616D73000000546F67676C6500004DD9
:1012C0006963000000000010035465616D73000045
:1012D00000546F67676C65000043616D000000009B
:1012E0000012034374726C00000000416C74000033
:1012F00000000044656C00000000004C0543617074
:1013000073000000004C6F636B00000000000000E1
:101310000000000000390050617573650000000096
:101320000000000000000000000000000000004875
:10133000005072745363720000000000000000004F
:101340000000000000000000004600496E73657256
:101350007400000000000000000000000000000019
:101360000000004900506C6179000000000000009E
:1013700000000000000000000000000000AE0000BF
:10138000AE00AF00DA0281FFD9F1DB20A4A62EAFB8
:1013900000A0C000A1C800AED580A81FD300408D1A
:1013A0001420000000000000003E5B4F5B3E003E4A
:1013B0006B4F6B3E001C3E7C3E1C00183C7E3C1874
:1013C000001C577D571C001C5E7F5E1C0000183CF3
:1013D000180000FFE7C3E7FF00001824180000FF13
:1013E000E7DBE7FF0030483A060E00262979292678
:1013F00000407F05050700407F05253F005A3CE778
:101400003C5A007F3E1C1C0800081C1C3E7F001438
:10141000227F2214005F5F005F5F0006097F017F6B
:1014200000006689956A0060606060600094A2FFB9
:10143000A2940008047E04080010207E20100008FA
:10144000082A1C0800081C2A0808001E101010108A
:10145000000C1E0C1E0C0030383E383000060E3ECC
:101460000E060000000000000000005F0000000009
:101470000700070000147F147F1400242A7F2A121B
:101480000023130864620036495620500000080704
:10149000030000001C224100000041221C00002A21
:1014A0001C7F1C2A0008083E0808000080703000DD
:1014B000000808080808000000606000002010080C
:1014C0000402003E5149453E0000427F4000007248
:1014D00049494946002141494D33001814127F10F3
:1014E000002745454539003C4A4949310041211111
:1014F000090700364949493600464949291E000076
:1015000000140000000040340000000008142241D4
:10151000001414141414000041221408000201598C
:101520000906003E415D594E007C1211127C007F7D
:1015300049494936003E41414122007F4141413EF7
:10154000007F49494941007F09090901003E4141A5
:101550005173007F0808087F0000417F4100002090
:1015600040413F01007F08142241007F404040403D
:10157000007F021C027F007F0408107F003E414173
:10158000413E007F09090906003E4151215E007F6E
:10159000091929460026494949320003017F010300
:1015A000003F4040403F001F2040201F003F403888
:1015B000403F0063140814630003047804030061CF
:1015C00059494D4300007F41414100020408102069
:1015D00000004141417F00040201020400404040FC
:1015E0004040000003070800002054547840007F6A
:1015F0002844443800384444442800384444287E71
:101600000038545454180000087E0902001824249D
:101610001C78007F080404780000447D400000200E
:1016200040403D00007F102844000000417F400002
:10163000007C04780478007C080404780038444472
:101640004438007C1824241800182424187C007CBA
:10165000080404080048545454240004043F44245B
:10166000003C4040207C001C2040201C003C4030BE
:10167000403C004428102844004C9090907C00444A
:1016800064544C440000083641000000007700001C
:10169000000041360800000201020402003C26233B
:1016A000263C00000000000080C0E0F0F0300000A8
:1016B000C060F0F0F0300080C020F0F0F0200000BA
:1016C00000000080C0E0703018B8F8F000000000A2
:1016D00000DC7E3FBEF0F0E000000000000080C0B3
:1016E000E070101818F8F06000000000C060F0F81A
:1016F000F83000000080E0F0F8F8300000000080D2
:10170000E0F0FCFF3F0F0100000080C0E0F0F8783F
:10171000000000000080C060309040203070E0C0C9
:1017200000004040404040404040404040000000F9
:10173000E0FEFFFEF8C00000000000E0FCFFFEF04D
:10174000000000000000000000013EE080700E017B
:1017500000000000073CE080780700000000000067
:1017600000000000180C06C3F9FE3FC7711806C33D
:10177000F07C1FC7711806C3F8FE3F0F0180C0F050
:10178000F8FEDF47636030381E0F078140201806DF
:101790000381F0FC7F1F0780C0E0F8FC3E0F0301CF
:1017A0000000000003018060100806E3FCFF3F0713
:1017B00001C0308CE3FF7F1F0380C030188CE3F939
:1017C000FF3F070180C030180CC3F1FC7F0F03807E
:1017D000C0F0FCFE3F0701003EC18080E0FC3F8F6F
:1017E0004040C0F0FC7E4E0000000000000000F809
:1017F000FFFF1F071FFFFEF0C0F8FF7F0F077FFFEF
:10180000FEFC04047880000000C0380C1C608000DE
:101810000000F00C04F41C80C0FCE6C3C1C1C3E6A8
:10182000FCC0800000383F3F1F07030000383E3FE8
:101830001F0E030000307F7F3F190C0603010F1FAE
:101840003F71606070301808040201000000003829
:101850007E7F3F3B18040301000F1F312020202012
:101860001018080402010000001C3F7F7F31180699
:1018700003183E3F3F1B0804020100001E3F3F3F8C
:1018800010080402010000183E3F3F190C06030136
:10189000000F1F3160606030181C0F07030101004A
:1018A0000000183C3C1C00000000000000001F1F4E
:1018B0001F0700000000031F1F0F010000000007AA
:1018C0001F1F1EF8000F70300EC138070E70831CEA
:1018D000601E03C03E01003F7FFFFFF9C0C0F9FF5B
:1018E000FF7F3F09023B00020100A0FA090400004B
:1018F0000103010100092101010001224000070547
:10190000810308000109040100010300000009210E
:1019100001010001227B0007058303080001120179
:10192000100100000008776D03170001010200019B
:1019300012034D00650072006300750074006900B9
:101940006F00000012034D0065006300680057003F
:1019500069006C0064000000040309040501090229
:10196000A10185020901A100050919012908150035
:10197000250195087501810205010930093115819C
:10198000257F95027508810609381581257F950107
:1019900075088106050C0A38021581257F950175A9
:1019A000088106C0C005010980A101850319012A2B
:1019B000B700150126B700950175108100C0050C10
:1019C0000901A101850419012AA002150126A0021E
:1019D000950175108100C005010906A101050719CF
:1019E000E029E7150025019508750181029501752B
:1019F0000881030507190029FF150026FF00950639
:101A000075088100050819012905950575019102E0
:101A1000950175039103C00011241FBECFEFD8E0DC
:101A2000DEBFCDBF11E0A0E0B1E0E2E8FAE602C01F
:101A300005900D92A43CB107D9F725E0A4ECB1E0E4
:101A400001C01D92A83FB207E1F70E94B8200C9494
:101A50003F350C940000A82FB92F80E090E041E0C2
:101A600050EA609530E009C02D91822797958795BF
:101A700010F084279527305EC8F36F5FA8F30895B0
:101A8000EADF8D939D930895CF93CFB7CF93DF93E4
:101A9000C3954B9BE9F74B9B10C04B9B0EC04B9BD8
:101AA0000CC04B9B0AC04B9B08C04B9B06C0C0910F
:101AB000CF05C395C093CF058EC06F93C091CE055F
:101AC000DD27CA52DA4F2F9365E54B9B03C02F9158
:101AD0006F91E1CF0F931F934F9320E040E15F930D
:101AE00009B10C7003FB27F93F9350E03BE039C08C
:101AF0001C7040642F77012F5F5F1EC0406819B1D2
:101B00001C702F7752501FC0406409B12F770C70A2
:101B1000D1F15F5F00C023C0406219B12F771C7004
:101B200091F15F5F00C025C00C701027515012F476
:101B30005D5F0000115027952C3F19B1C8F61C704D
:101B40000127015027952C3FC8F64227499309B138
:101B50000C7010274F73115027952C3FA8F646950F
:101B6000469519B11C7079F00127015027952C3F3B
:101B700098F66B5A60F3315009B1B0F600C012E02C
:101B80001CBB00271CC03B503195C31BD04012E04A
:101B90001CBB0881033C21F10B3411F12091CB05D2
:101BA0001981110F1213EDCF4A81441F093679F1C3
:101BB0000D3211F0013E29F74F7009F0042F009308
:101BC000D4053F915F914F911F910F912F916F918C
:101BD000CCB3C1FD5DCFDF91CF91CFBFCF91189531
:101BE0002091D405222369F31091D205112309F025
:101BF00049C034300AF448C03093D2052093CD0553
:101C00001091CE053BE0311B3093CE053DC00091D5
:101C1000D2050130BCF50AE54F7049F430912B0133
:101C200034FD33C000932B01C8EAD5E032C0433005
:101C300059F0443091F03091B30534FD26C0009343
:101C4000B305C4EBD5E025C03091EC0534FD1DC0D3
:101C50000093EC05CDEED5E01CC03091BF0534FDFE
:101C600014C00093BF05C0ECD5E013C0052710E0F9
:101C700000C000000BB91AC0052710E0221F1DC0CC
:101C800010E021C04AE502C032ED432FC4E1D0E0AC
:101C900032E01AB11C605B9A0BB11AB95CE020E823
:101CA00065E320FF05270BB9279517951C3FF0F634
:101CB0006695B8F7B1F720FF05270BB9279517955B
:101CC0001C3FD0F62795179517FF052700001C3FEE
:101CD0000BB9B0F629913A9519F7037F1091D30506
:101CE000110FC651D0400BB911F01093CB0512E083
:101CF0001CBB08601AB1137F402F437F54E05A95F4
:101D0000F1F70BB91AB94BB95CCF1F93CF93DF939F
:101D1000182FD62F0E94010FC82F882349F01111C8
:101D200007C0DD2311F089EA01C08AEA0E9423136B
:101D30008C2FDF91CF911F91089582E00895CF936A
:101D40000E94650FC82F882329F060E082ED90E0A3
:101D50000E94D9258C2FCF9108950E94FE2A8F31A1
:101D6000C0F48091E20190E0019665E070E00E948D
:101D70002A349C018093E20184E090E0821B930B63
:101D8000982F8827990F60E072E0895D9E4F0E942E
:101D9000EB250E94FE2A8F3150F00E94FE2A8832E5
:101DA00030F460E072E087E29BE00E94EB250E9445
:101DB000FE2A8832B0F02091E10130E02F5F3F4FE2
:101DC000217033272093E10181E090E0821B930B87
:101DD000982F8827990F60E072E0895D924F0E94EA
:101DE000EB25089580349E4751F4FB0182818823BE
:101DF00031F08091DE019091DF010E947B1081E043
:101E0000089580E0662339F10E944B16882399F0EB
:101E10006091E001673078F46F5F6093E0018AE1E0
:101E2000689FB001112461557D4E4AE150E086EC77
:101E300091E00E94DE3481E00E944B16882321F05D
:101E40008EE490E00E947B1082E00E944B16882373
:101E500051F189EA26C00E944B16882399F06091BF
:101E6000E001662379F061506093E0018AE1689FA8
:101E7000B001112461557D4E4AE150E086EC91E0BD
:101E80000E94DE3481E00E944B16882321F08BE40F
:101E900090E00E947B1082E00E944B16882319F08C
:101EA0008AEA0E94231380E008956091E0018AE1AC
:101EB000689FB001112461557D4E4AE150E086ECE7
:101EC00091E00E94DE3482E008950E94FE2A882379
:101ED00041F10E9436266091E7017091E8018091FE
:101EE000E9019091EA010E948E2E693C71058105FD
:101EF000910560F00E94732E6093E7017093E801F2
:101F00008093E9019093EA010E94AD0E0E94732E26
:101F10006093E3017093E4018093E5019093E601FF
:101F20002DC06091E3017091E4018091E5019091F1
:101F3000E6010E948E2E613477478B41910518F09F
:101F40000E9451271BC06091E7017091E8018091C8
:101F5000E9019091EA010E948E2E693C710581058C
:101F6000910560F00E94732E6093E7017093E80181
:101F70008093E9019093EA010E94AD0E60E080E059
:101F80000E94DF2460E086EC91E00E94BE2561E0C3
:101F900080E00E94DF2460E08EEC91E00E94BE258C
:101FA00062E080E00E94DF2460E086ED91E00E9424
:101FB000BE2580E008950E94512708958430B0F432
:101FC0006730A0F4473090F491E3899FF001112429
:101FD00087E0689FE00DF11D1124E40FF11DEE0F65
:101FE000FF1FE95DFE4E85919491089581E090E098
:101FF00008950E94DE0F08959C013A9521153F41F6
:1020000030F5BC0166277270AC01442754709C0106
:102010002227387094FF0FC090FF02C080E101C0FA
:1020200080E0672B09F08062452B09F08064232B48
:1020300079F080680895892F8170672B09F082609C
:10204000452B09F08460232B19F08860089580E007
:102050000895CF93DF93EB010E94FC0FFE010995D9
:10206000DF91CF910895CF93DF93EC01805E9109CA
:10207000089710F0209719F46DE273E102C064E84C
:1020800075E1CE010E9429108C2F0E94F511DF917D
:10209000CF910895CF93DF93EC010E949F12CE0160
:1020A000805E9109089710F0209719F464E373E1BA
:1020B00002C06BE875E1CE010E942910DF91CF913B
:1020C00008950F931F93CF93DF938C01EB010E9430
:1020D0003310209741F08FE99FE00197F1F700C09E
:1020E00000002197F6CFC8010E944A10DF91CF91DE
:1020F0001F910F9108958933910519F06AE070E0FE
:1021000002C060E570E00E946110089581E00895CA
:102110000E94F20E089508950E948B100895A5E084
:10212000B0E0E5E9F0E10C94A73449835A8330919B
:10213000F00189819A81311114C0662359F022235C
:1021400049F00E942317182F682F89819A810E94D5
:10215000FF1603C00E941117182F69817A81812F01
:1021600004C00E94231769817A810E94471E259628
:10217000E3E00C94C334FC01262F4081518162813D
:10218000738184810E948F10089581E00895CF9318
:10219000DF93EC0160E00E94BB10BE010E948C1036
:1021A000DF91CF91089508950E94AC150E94D3103D
:1021B0002FEF84E39CE0215080409040E1F700C085
:1021C000000008950E94D4100E94D02E08950E940D
:1021D000D4100E94E52E08950F931F93CF93DF93A1
:1021E0008C0161E00E94BB10EC01B8010E94552AED
:1021F000882329F061E0C8010E94BB10EC01F801BE
:102200008281882319F0CE010E94212BB801CE01D2
:102210000E948810882339F1B801CE010E947D2ADE
:10222000882309F1B801CE010E94A5298823D9F09D
:10223000B801CE010E9497278823A9F0B801CE01EA
:102240000E940B29882379F0F8018281882349F1C3
:10225000C330FCE7DF07D9F060F4C115ECE7DE0717
:1022600021F40E94E21080E01FC0C130DC4789F0F9
:1022700018C0CB358CE7D80791F0CC35ECE7DE07FA
:1022800059F0CA35DC4769F40E947D1B0AC00E94E0
:10229000851B0E94E710E7CF0E94731B02C00E94BB
:1022A000811BC8010E948610DF91CF911F910F9171
:1022B00008950E94E42D0E9482110E9451270895E2
:1022C0000E9486110E94ED2D0895089581E00895E1
:1022D0000895CF93DF93D82F0E946611C82F8823CB
:1022E00019F08D2F0E9468118C2FDF91CF910895E6
:1022F0000895CF93C82F0E9465118C2F0E946911F9
:10230000CF91089580E00E94791108950E941A2DBE
:102310000E9479110895CF930E941A2DC82F8091A1
:10232000EB01C81779F0C093EB010E94732E609304
:10233000EC017093ED018093EE019093EF018C2FEF
:102340000E947911CF910895ABE0B0E0EAEAF1E1A3
:102350000C94A8344F83588769877A878B876111DB
:102360000E94D11A9E012F5F3F4F86E0F901119222
:102370008A95E9F785E0FE013796D90101900D9223
:102380008A95E1F789819A814C815D81452B31F0F5
:102390009F3F31F491E08F3F19F403C091E001C0F9
:1023A00090E090FF09C049815A816B817C818D81C9
:1023B0009E810E94FA1905C0C9010E94C5108111B1
:1023C000F2CF2B96E2E00C94C434FC018081918121
:1023D0000E9455170895662319F00E940A2202C030
:1023E0000E9472220E94ED220895CF93882309F45F
:1023F000A4C0C82F8238C1F40E941A2D81FD9DC04F
:1024000069E380911201909113010E94CC2D0E94EA
:10241000F51A2FEF87EE93E0215080409040E1F7CE
:1024200000C0000069E319C0833801F50E941A2D2D
:1024300080FD83C063E580911201909113010E9499
:10244000CC2D0E94F51A2FEF81EE94E021508040B0
:102450009040E1F700C0000063E580911201909187
:1024600013010E94CF2D0E94F51A67C08438C1F471
:102470000E941A2D82FD61C067E480911201909143
:1024800013010E94CC2D0E94F51A2FEF81EE94E0EB
:10249000215080409040E1F700C0000067E4DDCFAC
:1024A0008CEF8C0F813AD0F46C2F809112019091B7
:1024B00013010E94962D882349F06C2F8091120100
:1024C000909113010E94CF2D0E94F51A6C2F8091DC
:1024D0001201909113010E94CC2DC5CF80E28C0F88
:1024E000883048F4C77081E001C0880FCA95EAF7C8
:1024F0000E94B11AB8CFEBE5EC0FE33040F4F0E006
:10250000EE59FE4F808190E00E94402D16C0E8E514
:10251000EC0FEB3150F4F0E0EE0FFF1FE45DFE4FE7
:10252000808191810E94652D08C083E38C0F8331E7
:1025300020F461E08C2F0E94EB11CF910895882345
:1025400009F468C0823879F40E941A2D81FF62C0B4
:1025500069E380911201909113010E94CC2D0E9499
:10256000F51A69E310C08338B9F40E941A2D80FF70
:1025700051C063E580911201909113010E94CC2D0E
:102580000E94F51A63E580911201909113010E9457
:10259000CF2D0E94F51A0895843879F40E941A2DDF
:1025A00082FF38C067E480911201909113010E946C
:1025B000CC2D0E94F51A67E4E6CF9CEF980F913A74
:1025C00010F4682FE0CF90E2980F983050F48770A5
:1025D00091E001C0990F8A95EAF7892F0E94B71AF6
:1025E000D8CF9BE5980F933028F480E090E00E94CC
:1025F000402D089598E5980F9B3128F480E090E0F5
:102600000E94652D089593E3980F933118F460E0CC
:102610000E94EB1108951F93CF93DF93182FEB01C6
:102620000E94F511209741F08FE99FE00197F1F7A3
:1026300000C000002197F6CF812F0E949F12DF91EA
:10264000CF911F910895893319F06AE070E002C0BC
:1026500060E570E00E940B130895882321F00E942A
:10266000B11A0E94F51A0895882321F00E94B71A22
:102670000E94F51A0895A0E0B0E0E1E4F3E10C94C3
:10268000A2347C01162FC72FFC01D281058102954F
:102690000F700E94A71A8823E9F0DD23D9F08C2F50
:1026A000807F803451F080E2810F883098F00111F2
:1026B00004C08C2F807E803269F080918F0382FF6E
:1026C00009C082E00E94411B0E94A71A91E0D82E07
:1026D000D92601C0D12CCC2EC2948FE0C8228C2DDB
:1026E00090E08C30910508F0A6C1FC01EC5CFF4F36
:1026F0000C947F348C2F807FCF70882311F0C2958B
:10270000C07FDD2399F0CC2309F47CC180E2810FE6
:10271000883010F0111104C08C2F0E94B11A03C030
:102720008C2F0E94C41A0E94F51A6CC1812F0E943E
:102730009F12CC2309F47FC180E2810F883038F1E9
:10274000112329F18C2F0E94CA1A24C08C2F807F5C
:10275000CF70803211F0C295C07F112319F0113073
:10276000D1F143C080918F0382FD17C0DD2349F072
:10277000CC2329F08C2F0E94B11A0E94F51A80E018
:1027800042C180E00E949F12CC2309F454C18C2FD7
:102790000E94B71A0E94F51A4EC1DD2371F0002382
:1027A00041F0013031F40E94D41A8C2B0E94DE1AC1
:1027B00042C10E94D41A8C2B23C0011103C00E9475
:1027C000EB1A23C0013009F436C18C2F0E94341358
:1027D0000E94EB1A30C1DD2321F0063008F02BC136
:1027E0000EC0053008F027C110C0DD2361F00023C2
:1027F00031F0F701858180FF05C18F7085838C2FB3
:102800000E942D1318C1011103C18C2F0E94341393
:1028100012C18C2F86958695837019F0813061F0F6
:102820000AC1DD2321F0812F9C2F937002C080E02C
:1028300090E00E94402D07C1DD2321F0812F9C2FC5
:10284000937002C080E090E00E94652DFCC06D2F67
:10285000812F0E94EB11F7C08C2F8370B1F5D1113D
:10286000EEC0412F429546954770440F440F812F8B
:102870008F7090E09C01042E02C0220F331F0A9437
:10288000E2F714FF0AC08FE090E002C0880F991FA2
:102890004A95E2F78095909502C080E090E0C69559
:1028A000C695C370822B932BC23049F058F4C130C7
:1028B00019F00E941616C3C00E940D16C0C00E94D7
:1028C0001F16BDC00E940A16BAC0DD2319F08C2F56
:1028D000817001C08695882309F4B1C0412F4295CB
:1028E00046954770440F440F812F8F7090E09C01F4
:1028F000042E02C0220F331F0A94E2F714FF0AC00D
:102900008FE090E002C0880F991F4A95E2F780950A
:10291000909502C080E090E0C695C695C370822B6A
:10292000932BC23049F058F4C13019F00E949A1626
:1029300086C00E94911683C00E94A31680C00E9488
:102940002B167DC0CF70DD2339F08C2F0E945F16CF
:10295000812F0E942D1373C0812F0E9434138C2F5E
:102960000E946F166CC0123F21F128F4103F41F015
:10297000113FC1F043C0133F19F1143F79F03EC03D
:10298000DD2341F0053008F056C08C2F8F710E9476
:10299000811651C0063008F04EC0F7CF80918F03EA
:1029A00082FD18C0DD2339F08C2F8F710E945F16D5
:1029B00042C0DD23C9F38C2F8F710E946F163BC07C
:1029C000DD2329F08C2F8F710E94531634C00E9492
:1029D000321631C0DD2349F0CF718C2F0E945F1673
:1029E00063E08C2F0E94231B26C081E00E94411BC4
:1029F000023008F182E00E94411B1DC0DD2331F04E
:102A0000002391F2812F0E94F51115C0002399F245
:102A1000193341F4FFEF27EE83E0F150204080406E
:102A2000E1F704C0EFE3FCE93197F1F700C00000E3
:102A3000812F0E949F1288EF8C0D843020F40E9419
:102A40001A2D0E947911DD2089F00E94A31A80FDC1
:102A50000DC0F70112820E949D1A0E945F16C701E5
:102A60000E9453150E949D1A0E946F16CDB7DEB7C3
:102A7000E8E00C94BE340F931F93CF93DF93EC01E7
:102A8000688179818A810E9460178C010E94AC164E
:102A90000E94FB15B801CE010E943B13DF91CF913C
:102AA0001F910F910895CF93DF93EC019881898155
:102AB0002B813C81232B31F08F3F31F481E09F3F0C
:102AC00019F403C081E001C080E080FD1AC0CE018E
:102AD0000E94EC1081110FC00E94A71A882389F070
:102AE0008A81882371F080918F0382FF0AC082E07F
:102AF0000E94411B06C0CE010E943B15CE010E94E0
:102B0000C710DF91CF910895882321F00E94C41A45
:102B10000E94F51A0895882321F00E94CA1A0E9483
:102B2000F51A089580E090E00E94402D80E090E04A
:102B30000E94652D0E94D11A0E94F51A0E940C2352
:102B40000E94ED22089580911201909113010E943C
:102B5000D22D0E94921508950E94BE1A0E94A315BC
:102B6000089592959F70963079F010F4925001C0BC
:102B70009A50923068F4803F69F018F4883E40F42F
:102B800009C0843F29F406C0883E20F0813F11F03F
:102B900080E0089581E00895FC0190818181238186
:102BA0003481232B31F08F3F31F481E09F3F19F4C2
:102BB00003C081E001C080E080FD07C08081918179
:102BC0000E9455170E94B115089580E00895A5E070
:102BD000B0E0EDEEF5E10C94A8342596E2E00C941B
:102BE000C434A6E0B0E0E7EFF5E10C94A8342696F3
:102BF000E2E00C94C434089508950E94FC150895F1
:102C00000E94FD1508950E94001690931002809373
:102C10000F0208950E940316089520910F0230912B
:102C20001002822B932B0E940316089520910F020D
:102C300030911002822393230E940316089520915D
:102C40000F0230911002822793270E9403160895E5
:102C50000E94FC1508950E94281690930E028093FE
:102C60000D02089580E090E00E942B1608950097D1
:102C700021F481E0662371F00CC021E030E002C055
:102C8000220F331F6A95E2F72823392381E0232B93
:102C900009F480E00895682F80910D0290910E0252
:102CA0000E943716089521E030E0A90102C0440FC8
:102CB000551F8A95E2F7CA010E942B16089521E05C
:102CC00030E002C0220F331F8A95E2F780910D0297
:102CD00090910E02822B932B0E942B16089521E0D7
:102CE00030E002C0220F331F8A95E2F7209530951D
:102CF00080910D0290910E02822393230E942B1645
:102D0000089521E030E002C0220F331F8A95E2F7D8
:102D100080910D0290910E02822793270E942B161C
:102D2000089520910D0230910E02822B932B0E9468
:102D30002B16089520910D0230910E0282239323C9
:102D40000E942B16089520910D0230910E028227C9
:102D500093270E942B1608950895962F9770A1E04F
:102D600001C0AA0F9A95EAF793E0769567959A9530
:102D7000E1F7660F771F660F771FFA01E60FF71F5F
:102D800040E050E0682F70E090819B01042E02C06B
:102D9000369527950A94E2F72170219529272A2351
:102DA000292721934F5F5F4F4430510569F70895FC
:102DB000FB01782F777023E0969587952A95E1F7A8
:102DC000880F991F880F991FE80FF91F40E050E006
:102DD00080E0219130E0072E02C0369527950A94B5
:102DE000E2F721703327042E01C0220F0A94EAF77C
:102DF000822B4F5F5F4F4430510559F70895282FBC
:102E0000973070F4873060F4862F622F70E027E0EF
:102E1000929F600D711D112441EF51E00E94AD168B
:102E20000895973070F4873060F4292F90E061EFB7
:102E300071E037E0239F800D911D11240E94D81668
:102E4000089580E00895A0E0B0E0E9E2F7E10C9495
:102E5000A1347C0100910D0210910E0280910F02AD
:102E600090911002082B192BCFE0D0E0CC24C39412
:102E7000D12CC6010C2E02C0880F991F0A94E2F7CC
:102E800080239123892B21F4219798F7B12C07C037
:102E9000BC2EB7018C2F0E94531E0197A9F38B2DD6
:102EA000CDB7DEB7E9E00C94BD34CF93DF93EC01EE
:102EB0000E942317BE010E94531EDF91CF910895F7
:102EC0001F93CF93DF93EB019091F001992321F0B1
:102ED000CB010E94551713C0882349F0CB010E94F3
:102EE0002317182F682FCE010E94FF1604C0CB01B4
:102EF0000E941117182FBE01812F0E94531EDF91CF
:102F0000CF911F9108951F93CF93DF93C09111022A
:102F100016E080911202C81799F0D0E01C9FF001D2
:102F20001D9FF00D1124ED5EFD4F408151816281A6
:102F30007381848195810E94F1152196C770E9CF34
:102F4000DF91CF911F910895409143025091440227
:102F5000609145027091460280914702909148022B
:102F60000E94F1150895209111029091120256E0ED
:102F70002917A9F030E0529FF001539FF00D112462
:102F8000ED5EFD4F7181761306C07081781303C02A
:102F90007281741306C02F5F3F4F2770E9CF80E026
:102FA000089581E008950F931F93CF93DF9380914D
:102FB000480282958F7009F05AC08091450288239B
:102FC00009F455C0809111021091120260914302E0
:102FD00070914402C0914602D091470291E06F3F48
:102FE00009F090E0292F06E0811709F440C02097EE
:102FF00021F07F3F21F030E003C031E001C0322FEB
:1030000090E030FD31C0089FF001099FF00D1124C0
:10301000DF01AD5EBD4F11963C911197371324C06F
:103020003C91361321C012963C91129731111CC06D
:1030300013964D915C9114974C1B5D0B443B5105CD
:1030400098F4809148028F70806180934802E85E16
:10305000FD4F80818F708061808383E492E00E94C5
:1030600053150E94831703C001968770BDCFDF916F
:10307000CF911F910F910895A1E1B0E0E2E4F8E152
:103080000C949E348C0185E0F801DE011D960190C0
:103090000D928A95E1F7F801E28090914302209128
:1030A000440240914602509147024115510531F0CA
:1030B0002F3F31F481E09F3F19F403C081E001C04C
:1030C00080E080FD78C1F801C080D1808380948049
:1030D00083E4A82E82E0B82EF0904502B401641B70
:1030E000750BFF2009F411C180914802382F307F01
:1030F000643B710508F0CBC031118AC0D21213C0F5
:10310000C91211C0FE2CE1100EC08F708061809337
:1031100048020E94A417C5010E94531580914802DD
:10312000F801858362C18114910439F0FFEFDF1249
:1031300006C081E0CF1203C003C081E001C080E07F
:1031400080FD03C081E08E2502C080E090E080FF1A
:1031500005C04E2D6D2D8C2D0E94B3178114910446
:1031600039F02FEFD21206C081E0C21203C003C0B3
:1031700081E001C080E080FD03C081E08E2502C0B7
:1031800080E090E0682F6170B62E80FF37C04E2D32
:103190006D2D8C2D0E94B317F82E81112FC0CD8676
:1031A000DE868D859E850E945517292F22952F70CA
:1031B000243020F49F70223028F009C02A50223099
:1031C00088F017C0992351F0811108C00EC19923CE
:1031D00029F0F8019581907F09F407C1805E88305D
:1031E00040F403C1803F08F400C1815F833008F4DC
:1031F000FCC0C8010E945315FB2CF7C0FE2CEE202A
:1032000009F4F3C08091480281608093480254C061
:10321000D21206C0C91204C0E11002C0F80199C060
:10322000C8010E94CC15882361F1EE2051F1209154
:103230004802822F82958F7090E0029774F08091FF
:1032400043029091440298878F8319869B868A86D1
:103250002C87CE0107960E94531586E0F801A3E45F
:10326000B2E001900D928A95E1F70E94D3170E9477
:10327000A4170AC0D21611F1C8010E94CC15811101
:103280002CC0C8010E945315FF24F394AEC0311125
:10329000F1CF782D998A888AA6016E2D89890E949E
:1032A000E71583E492E00E94531586E0F501119240
:1032B0008A95E9F70E94A417F12C97C0C912DCCFB8
:1032C000E110DACFF8018583C8010E94531586E02A
:1032D000F50111928A95E9F788C0EE2091F22091CC
:1032E0004802822F82958F7090E002970CF4B5CF40
:1032F00080914302909144029A8389831B829D822C
:103300008C822E83CE010196A6CF643B710508F016
:1033100044C0FE2CEE2009F4B4CFD21230C0C91242
:103320002EC02091480220FD21C0822F82958F70EF
:10333000482F50E041155105C9F0F80125834F3061
:10334000510541F08F5F982F9295907F822F8F705B
:10335000892B8583C8010E94531586E0F801A3E4F8
:10336000B2E001900D928A95E1F73DC086E0F80148
:10337000A3E4B2E001900D928A95E1F736C0C8014E
:103380000E94CC15811169CF8091480281608093A1
:103390004802C8010E94531528C0782D998A888A4E
:1033A000A6016E2D89890E94E71586E0F50111922C
:1033B0008A95E9F718C0EE2009F463CFC8010E948E
:1033C000CC15F82E882309F45CCF86E0F801A3E43D
:1033D000B2E001900D928A95E1F783E492E00E94B9
:1033E000E5110E94D3170E94A4178F2D6196ECE07F
:1033F0000C94BA34ACE0B0E0E0E0FAE10C94A7340D
:103400004F83588769877A878B879C87CE01079679
:103410000E943C188823D1F09F8188852A853B85AE
:10342000232B31F08F3F31F481E09F3F19F403C02B
:1034300081E001C080E080FD47C04F8158856985EB
:103440007A858B859C850E94F1153EC086E0FE0141
:103450003796DE01119601900D928A95E1F7FF8172
:10346000E8856A857B856115710531F0EF3F31F4A0
:1034700081E0FF3F19F403C081E001C080E080FDDE
:1034800023C02091120230E0C9010196877099276C
:103490004091110250E084179507F1F1F983EA8316
:1034A0007D836C8396E0929FD001939FB00D112491
:1034B000AD5EBD4FFE01319601900D929A95E1F7F8
:1034C000809312020E94831716E08091110290915E
:1034D0001202891771F1189FC00111248D5E9D4F52
:1034E0000E943C18882329F1E09111021E9FF001EF
:1034F0001124ED5EFD4F4081518162817381848191
:1035000095810E94F1158091110290E001968770DB
:10351000992780931102D9CF0E94AC151092120204
:1035200010921102E3E4F2E086E0DF011D928A9539
:10353000E9F72C96E3E00C94C33480914902859519
:103540008595859508958091490287700895909199
:103550004902977081E009F480E008958091540257
:10356000089590915402892B809354020895809578
:10357000909154028923809354020895109254022A
:10358000089580915302089590915302892B80935E
:10359000530208958095909153028923809353029A
:1035A000089510925302089580914A020895089553
:1035B0000E94D71A08950E94D81A089590918F03F7
:1035C00092FF08C090914A02981721F080934A0216
:1035D0000E94DB1A089580914A02882329F01092F4
:1035E0004A0280E00E94DB1A0895E0911201F091F6
:1035F0001301809154028083E0911201F091130134
:10360000908180915302892B808380914A02882384
:1036100081F0E0911201F09113019081892B808358
:1036200080911201909113010E948A2D81110E94B4
:10363000EB1A80911201909113010E94272D089599
:103640000E94D71A089590918F0392FF11C098E0BD
:10365000899F90011124262B209349020E945F1616
:10366000809149028595859585950E94201B089536
:103670000E945F1608951092490280E00E94201B6C
:103680000895209149028095822380934902982FC2
:10369000977099F430E0482F082E000C550B241732
:1036A000350759F090918F0392FF07C08595859556
:1036B00085950E946F160E943B1B089590918F0381
:1036C00092FB222720F9281769F080FB92F990934A
:1036D0008F0380918E0390918F030E94A61B82E03E
:1036E0000E94411B089580918F0382FB882780F9F7
:1036F00091E089270E945E1B089581E00E945E1B75
:10370000089580E00E945E1B08956FEF7FEF80E0D8
:1037100090E00E942935089580E090E00E940535F0
:1037200021E0873E9E4F09F020E0822F089582E03D
:1037300090E00E94FD34089583E090E00E94FD3403
:10374000089584E090E00E9405350895BC0184E06E
:1037500090E00E9429350895AB01BC018FE090E014
:103760000E941D350895AB01BC0183E190E00E94E9
:103770001D35089560E070E0CB010E94B31B0895F1
:1037800060E070E0CB010E94AC1B0E94BA1B089560
:1037900067EE7EEF80E090E00E94293560E082E0F5
:1037A00090E00E940B3560E083E090E00E940B35D2
:1037B0001092100210920F0260E074E184E090E039
:1037C0000E94293560E086E090E00E940B356FEFA3
:1037D00087E090E00E940B3540E050E0BA0188E0BD
:1037E00090E00E941D3560E08DE090E00E940B3576
:1037F00040E050E0BA0188E190E00E941D3560E0B1
:1038000087E190E00E940B3540E050E0BA018CE186
:1038100090E00E941D3560E070E080E290E00E9440
:10382000293540E050E0BA0188E190E00E941D3562
:103830000E94C01B08950E94C81B0895682F8EE047
:1038400090E00E940B350895A5E0B0E0EAE2FCE1CB
:103850000C94A6340E94672E8C01809155029091A1
:10386000560208171907A1F08FEF89838A831B82FC
:103870000E94672E8160782F9D838C8349815A81B5
:103880006B818D810E94A411109356020093550202
:103890002596E4E00C94C2340E94732E6093660275
:1038A000709367028093680290936902609362024A
:1038B00070936302809364029093650208950E945E
:1038C000732E6093660270936702809368029093F0
:1038D000690260935E0270935F028093600290932E
:1038E0006102089581E0089581E008950E94741CAA
:1038F000089508950E94791C08950E94791C0895E6
:103900000E947D1C08950E94791C08950E94831CCA
:1039100008950E94791C089587E39FE10E94102D6D
:103920000E94891C0E94861C08950E947A1C0E9495
:10393000791C08950E94561F0E94781108950E94D4
:103940005E2E0E9488280E9426200E949A1C80E0F9
:103950000E9495240E94801C08950E94DE2A0E94E5
:10396000362B0895A5E0B0E0E8EBFCE10C949F3421
:103970000E94721CB82E811104C00E94241CB12C1C
:1039800052C00E943C2087E5E82E82E0F82E6701B5
:1039900000E0F60111916F01802F0E94741F8127B2
:1039A0000F5F073019F08823A1F302C0882329F3A1
:1039B00080916A0281FD0E947A1F0E94761C982ED7
:1039C00010E0812F0E94741FA82EF701C080C82626
:1039D00011F100E0DD24D3948C2D8D21B1F09920DC
:1039E000A1F009831A8391E08A2D8D2109F490E0DA
:1039F0009B830E94672E8160782F9D838C834981F1
:103A00005A816B818D810E94A4110F5FDD0C0730FC
:103A100019F7F701A0821F5FFFEFEF1AFF0A1730B7
:103A200081F60E944C1C0E94AD1C0E94A528182FF4
:103A300081110E945F1C0E946B27B11001C01111FF
:103A40000E9436260E942E230E948B112596EBE0C1
:103A50000C94BB341F93CF93DF930E94581EEC014C
:103A6000C11580E5D807E8F5C11590E4D90708F03D
:103A7000A8C0C03ED10530F5CD3CD10508F094C0BA
:103A8000C83AD10578F4C53AD10508F083C0C130F1
:103A9000D10509F47CC008F4F2C0C430D10508F0A7
:103AA000F1C0EDC0C33CD10508F0E9C0C85AD0E070
:103AB000CC0FDD1FCB59DE4F0990D881C02DCE0130
:103AC0009464E1C0C11580E2D80708F0CBC0C115ED
:103AD00091E0D90708F06BC0C83ED10508F4D2C008
:103AE000CEC0C03682E5D80728F5C03492E5D907A4
:103AF00008F079C0C03282E5D80708F06CC0C11563
:103B000092E5D90708F481C04C2F4695469580E28E
:103B1000489FA0011124C37021E030E0C90102C018
:103B2000880F991FCA95E2F7EA01C82BD92BCE015D
:103B30009D68A9C0C03A82E5D807B8F48C2F8F7170
:103B4000C03892E5D90708F07BC08695869590E24B
:103B5000899F90011124C37081E090E002C0880F1A
:103B6000991FCA95E2F79A6868C0C03C82E5D807F9
:103B700008F46DC0C03E92E5D90708F080C0CF714F
:103B8000DD27DC2FCC27CE01806F906A7CC081E0DE
:103B900090E079C0C55AD0E0C556DE4F8881C82F65
:103BA000D0E0CE0190646FC0CE0190656CC08D2FC7
:103BB0000E94F41E182FCE0199270E94581E1F71D3
:103BC0005CC0CE0199270E94581ECC27DF70D06AB6
:103BD0008C2B9D2B58C0CF71D0E0DC2FCC27CE0191
:103BE000816F906A50C08C2F8F718695869590E278
:103BF000899F90011124C37081E090E002C0880F7A
:103C0000991FCA95E2F79C6818C08C2F8F710E948B
:103C1000F41E95E0D695C7959A95E1F7CF70D0E060
:103C2000DC2FCC27282F30E084FF05C084E0220F52
:103C3000331F8A95E1F7D069CE01822B932B23C0E5
:103C400090E0D82FCC27CE01846F906A1CC08C2FB7
:103C50008F710E94F41E8F7190E0D82FCC27CE0177
:103C6000906211C08D2F8F710E94F41E182FCE010B
:103C700099270E94581E1F719062912B04C080E00A
:103C800090E001C0CE01DF91CF911F910895773070
:103C900038F4673028F4462F672F0E94F90F0895F3
:103CA00080E090E008950E94471E0E942A1D08951A
:103CB0008238910569F1B0F48133910509F475C03A
:103CC00048F48932910509F467C08A32910509F4F4
:103CD00071C008958533910509F459C08933910560
:103CE000B9F00895833E910589F138F4803E91053D
:103CF000D1F0823E910529F10895863E9105C9F1E2
:103D0000873E9105D9F1843E910509F06CC027C02A
:103D100020918E0320FD57C021FD55C020918F03B7
:103D200023FD5BC0089580918E0380FD48C0809183
:103D30008F0380FF48C080918E0384FD46C083EED0
:103D400051C080918E0382FF3CC0F5CF80918E03DD
:103D500082FD37C080918F0380FD35C0ECCF80910C
:103D60008F0381FF36C080918E0384FD2EC087EEC5
:103D700039C080918E0383FF2AC0F5CF80918E03D6
:103D800083FD25C080918F0381FD23C0ECCF8091FE
:103D90008E0385FD22C01FC080918E0385FD1BC050
:103DA00080918F0383FF19C00AC080918E0386FD26
:103DB00016C017C080918E0386FD13C010C089E322
:103DC00011C082EE0FC080EE0DC080E00BC086EE09
:103DD00009C084EE07C085E305C089E203C08AE21A
:103DE00001C081E390E0089590918E0392FF0DC091
:103DF000282F2871283019F4877F846006C0282F67
:103E00002471243011F48B7F886093FF0DC0282F1C
:103E10002871283119F4877E846106C0282F247107
:103E2000243111F48B7E886120918F0320FF0DC017
:103E3000382F3871383019F4877F816006C0382FE9
:103E40003171313011F48E7F886021FF0DC0282F31
:103E50002871283119F4877E816106C0282F2171CD
:103E6000213111F48E7E886194FD877E089580E073
:103E700008950E94851B08950E943C202FEF86E73D
:103E800091E0215080409040E1F700C000000E9486
:103E90003C2080E00E94741F80FF04C00E94391FF4
:103EA0000E94D02E08950E943C1F08950E948C1BF2
:103EB000811102C00E941B1C0E94971B80936A0202
:103EC0000E94A11B90938F0380938E030E94531F27
:103ED0000E949C1B90E00E940A1680910D02909116
:103EE0000E020E9428160895E82FF0E0E956FC4FD4
:103EF00080810895089580EA8A95F1F7089500C0B9
:103F000008950E947B1F089508950E94841F0895BC
:103F10000E94851F08950E94841F08950E948B1F90
:103F20000895F894E82FE295EF70F0E031A1282F82
:103F30002F7081E090E001C0880F2A95EAF7982F52
:103F40009095932391A392A1892B82A378940895AD
:103F50000F931F93CF93DF93C5EAD1E089918F3FF1
:103F600011F00E94911F81E0CC3AD807B9F7CEE951
:103F7000D1E005EA11E089918F3F11F00E94911F75
:103F80000C171D07C1F7DF91CF911F910F91089575
:103F9000A0E0B0E0EEECFFE10C94A2348C01C62F5F
:103FA000D0E0CE018B559E4F7C01FC0190819F3F5C
:103FB00009F447C0D62EF894E92FE295EF70F0E0AF
:103FC00081A19F7021E030E001C0220F9A95EAF7AD
:103FD000822B81A382A12095282322A378940E947A
:103FE0007F1FEEE9F1E045EA51E031E0C12C21917B
:103FF0002F3F89F0A22FA295AF70B0E090968C91E0
:1040000090E02F7002C0959587952A95E2F780FD84
:1040100002C0832F01C080E0C82A330F4E175F070C
:1040200031F7F70180818F3F11F00E94911F61E00D
:10403000C11001C060E08D2D0E94811FC00FD11FF3
:10404000C882CDB7DEB7E8E00C94BE340E94A81F4A
:1040500087E0E7E9F3E0DF01982F1D929A95E9F7F1
:10406000E0E9F3E0DF011D928A95E9F787E00E941D
:1040700077200E948E1F0895A7E0B0E0E2E4F0E20E
:104080000C94A5348E010F5F1F4F87E0F801119249
:104090008A95E9F7F12C6F2DC8010E94C81FF3948F
:1040A000F7E0FF12F8CF47E050E0B80180E993E075
:1040B0000E94E73421E0009709F420E0892B41F0C9
:1040C00087E0F801A0E9B3E001900D928A95E1F74D
:1040D00047E067E973E080E993E00E947820182FB9
:1040E0000E94881F812F2796E5E00C94C134089523
:1040F000EF92FF920F931F93CF93DF937C018B017D
:10410000C42F222349F081E080936D020E94672E24
:1041100090936C0280936B0280916D02811102C0BA
:1041200080E01AC080916B0290916C020E947F2EF9
:104130000597B0F3D0E0AE01B701C8010E94E734A3
:10414000892B39F0AE01B701C8010E94F43481E037
:1041500001C080E010926D02CDB7DEB7E6E00C94AE
:10416000C0340E94002F0E949F1C0E94112F0895AE
:104170000E94042E0E94F02E0E948C1C0E94B120EE
:104180000E941F2F0E94951CFBCF8F929F92AF928F
:10419000BF92CF92DF92EF92FF9280917702982F99
:1041A000957049F082FD4AC0C12CD12C48ECE42E18
:1041B00042E4F42E4FC080917602882309F445C072
:1041C0008091730290917402009709F43EC00E949E
:1041D0007F2E62E370E00E94163480E090E00E943F
:1041E000E6326B017C0120E030E040E05FE30E94BA
:1041F0009D33A70196010E949D334B015C0120E095
:1042000030E040E450E4C701B6010E94D4319B0184
:10421000AC01C501B4010E94D4316B017C0120E0E6
:1042200030E040EF52E40E94983318169CF4C12C01
:10423000D12C90EFE92E92E4F92E0CC0C12CD12C98
:104240003AE7E32E34E4F32E05C0C12CD12C20E450
:10425000E22EFE2C6091190170E080E090E00E9457
:10426000E8329B01AC0160E070E08AE794E40E94D0
:1042700045329B01AC01C701B6010E9445320E9444
:10428000B73270E080E090E00E94E6326B017C0182
:1042900020E030E040E85FE30E94403287FD0BC041
:1042A00020E030E04EEF52E4C701B6010E9498339F
:1042B00018166CF006C0C12CD12C80E8E82E8FE3D4
:1042C000F82EC701B6010E94B732862F01C08FE7D2
:1042D000FF90EF90DF90CF90BF90AF909F908F9026
:1042E00008958F929F92AF92BF92CF92DF92EF92FA
:1042F000FF9280917702982F957041F082FD5BC00C
:10430000C12CD12CE12C31E4F32E62C080917502D6
:10431000882309F457C0E0907302F0907402E1140E
:10432000F10409F44FC020E030E040E052E4609135
:1043300014017091150180911601909117010E944E
:104340004032882309F43EC0C7010E947F2E62E3F9
:1043500070E00E94163480E090E00E94E6326B012B
:104360007C0120E030E040E05FE30E949D33A70144
:1043700096010E949D334B015C0120E030E040E853
:1043800051E4C701B6010E94D4319B01AC01C501C3
:10439000B4010E94D4316B017C0120E030E040E0A8
:1043A00052E40E94983318169CF4C12CD12CE12CB5
:1043B00082E4F82E0DC0C12CD12C20E4E22E22E4A0
:1043C000F22E06C0C12CD12C90E8E92E91E4F92EF2
:1043D000A701960160E070E08AE794E40E9445320C
:1043E0006093140170931501809316019093170147
:1043F000C701B6010E94B732613110F481E001C0FB
:1044000082E0FF90EF90DF90CF90BF90AF909F90B1
:104410008F900895CF93C82F80917302909174026A
:10442000892B31F40E94672E90937402809373025B
:10443000CD3C21F40E94C520819504C0CE3C29F4D6
:104440000E94C52080937B024BC0CF3C21F40E9488
:10445000C520819504C0C03D29F40E94C5208093E9
:104460007A023EC0C93D19F40E94712105C0CA3DBF
:1044700031F40E947121819580937C0231C0CB3D43
:1044800021F40E947121819504C0CC3D29F40E9441
:10449000712180937D0224C08FE28C0F883068F4F4
:1044A000C82F81E090E001C0880FCA95EAF790918B
:1044B0007902892B8093790213C0CD3D21F480913C
:1044C000770281600BC0CE3D21F48091770282603B
:1044D00005C0CF3D29F480917702846080937702F4
:1044E000CF9108958D3C39F490917B0297FF35C0B0
:1044F00010927B0259C08E3C29F490917B021916D0
:10450000BCF32BC090917A028F3C29F497FF25C011
:1045100010927A0249C0803D19F41916CCF31DC0DF
:1045200090917C02893D29F41916BCF410927C020A
:104530003BC08A3D19F497FF10C0F8CF8B3D39F48A
:1045400090917D0297FF09C010927D022DC08C3D95
:1045500021F490917D021916BCF39FE2980F9830D8
:1045600080F421E030E0A90102C0440F551F9A9564
:10457000E2F7CA01809590917902892380937902AC
:1045800013C08D3D21F4809177028E7F0BC08E3D4C
:1045900021F4809177028D7F05C08F3D29F48091B1
:1045A00077028B7F8093770280917A0281110AC013
:1045B00080917B02811106C01092760210927402E3
:1045C0001092730280917C02811106C080917D025D
:1045D000811102C01092750208950E94672E2091E9
:1045E0007A02211104C020917B02222321F09093B2
:1045F00072028093710220917C02211104C02091EB
:104600007D02222321F09093700280936F0288E74D
:1046100092E00E94322D0895E8E7F2E086E0DF01A3
:104620001D928A95E9F71092760210927502109207
:1046300077020895FC01828181110DC0838181116F
:104640000AC08481811107C091E08581811101C078
:1046500090E0892F01C081E081700895CF92DF92B0
:10466000EF92FF921F93CF93DF9300D000D000D042
:10467000CDB7DEB786E0E8E7F2E0DE011196019003
:104680000D928A95E1F710927A0210927B021092B5
:104690007C0210927D028B81811104C08C81882361
:1046A00009F461C080917102909172020E947F2E84
:1046B000AC0190917602992339F02091190130E0F4
:1046C0002417350758F04FC020916E028AE0289FCA
:1046D000900111242417350718F045C09F3F19F0A9
:1046E0009F5F909376028B81882369F00E94C5209A
:1046F0009B81191614F09FEF01C091E0989F902DB7
:10470000112490937A028C81882369F00E94C5203D
:104710009C81191614F09FEF01C091E0989F902D95
:10472000112490937B0230917A023323E1F020919F
:104730007B022223C1F045EB3403C00111249923ED
:1047400019F090937A0203C081E080937A0235EBEE
:104750002303C0011124992319F090937B0203C015
:1047600081E080937B028D81811104C08E8188233A
:1047700009F478C080916F02909170020E947F2EA0
:10478000BC0180E090E00E94E6326B017C01109158
:104790007502111115C0609118014AE0649FB001C3
:1047A0001124072E000C880B990B0E94E8329B0104
:1047B000AC01C701B6010E949833181684F052C0AC
:1047C000209114013091150140911601509117016B
:1047D0000E94983318160CF045C01F3F19F01F5F58
:1047E000109375028D81882369F00E9471219D814B
:1047F000191614F09FEF01C091E0989F902D11249D
:1048000090937C028E81882369F00E9471219E81A1
:10481000191614F09FEF01C091E0989F902D11247C
:1048200090937D0230917C023323E1F020917D0250
:104830002223C1F045EB3403C0011124992319F060
:1048400090937C0203C081E080937C0235EB2303CC
:10485000C0011124992319F090937D0203C081E0D7
:1048600080937D02BE016F5F7F4F88E792E00E94D8
:10487000D92D811105C088E792E00E941A23811189
:104880000E94ED2286E0FE013196A8E7B2E0019099
:104890000D928A95E1F726960FB6F894DEBF0FBE0B
:1048A000CDBFDF91CF911F91FF90EF90DF90CF9020
:1048B0000895EF92FF920F931F93CF93DF93EC0134
:1048C0007B0164E670E088E70E94222C8C01EC0EEC
:1048D000FD1ECE15DF0561F017FD0AC0FE018491B3
:1048E00064E670E00E94952C8C012196892B89F357
:1048F0000E940C2DC801CDB7DEB7E6E00C94C034A1
:10490000EEE9F3E080E092E0DF019C011D9221508E
:104910003040E1F7F093A305E093A2058FEF9FEFFE
:104920009093AA028093A90208950E949D0E0E946E
:10493000550F8093A50280FD02C080E801C080E28F
:104940008093A4020E941C2C6DE070E086E993E144
:104950000E945924892B11F080E008958091A502CE
:1049600063E070E081FD03C083E993E102C080E968
:1049700093E10E945924892B79F76DE070E083E878
:1049800093E10E945924892B39F70E94732EDC0190
:10499000CB01805A9541AF4FBF4F80939E059093B6
:1049A0009F05A093A005B093A1050E94802481E0FB
:1049B0008093A8028093A7021092A60208952091E6
:1049C000A40236E0839FC0011124629F800D911DD7
:1049D0001124811522E0920714F080E090E08256C5
:1049E0009C4F9093A3058093A20508952091A20562
:1049F0003091A305285933404091A402642F70E000
:104A0000C9010E941634481B463010F4240F311D92
:104A1000211582E0380710F020E030E022563C4FAC
:104A20003093A3052093A20508951F93CF93DF939E
:104A3000162F8A3011F481E003C08D3021F480E01C
:104A40000E948D2566C0C091A205D091A30596E075
:104A5000FE01AEE7B2E001900D929A95E1F7803E3B
:104A600030F086E0FE0111928A95E9F70BC0F6E07E
:104A70008F9FB00111246D557C4E46E050E0CE0171
:104A80000E94DE34111135C0C091A205D091A3055A
:104A900046E050E0BE018EE792E00E94E734892BA9
:104AA000B1F1CE59D3409E0185E0369527958A9580
:104AB000E1F781E090E0AC0102C0440F551F2A9558
:104AC000E2F72091A9023091AA02242B352B2596DA
:104AD00045E0D695C7954A95E1F702C0880F991F22
:104AE000CA95E2F7822B932B9093AA028093A90296
:104AF0000EC0E091A205F091A3059F012A5F3F4FF0
:104B00002E173F0709F2808180958193F9CF0E948B
:104B1000F624DF91CF911F910895CF93E82F209134
:104B2000A2053091A3052E5933404091A402642F71
:104B300070E0C9010E941634481B842FEE2359F0FF
:104B400066E00E940A34C82FC150B0F060E080E2F5
:104B50000E941525F9CFA901480F511D411552405A
:104B600018F080E020E030E0280F311D22563C4F45
:104B70003093A3052093A205CF910895FF920F9340
:104B80001F93CF93DF93EC01F62EFC0101900020E0
:104B9000E9F78F0101501109C017D10728F46F2DD3
:104BA00089910E941525F8CFCDB7DEB7E5E00C94CA
:104BB000C1341F93CF93DF93EC01162FFE01849134
:104BC000882329F0612F0E9415252196F7CFDF91C8
:104BD000CF911F910895EF92FF920F931F93CF9360
:104BE000DF932091A2053091A3052E593340A901EE
:104BF000460F571F4130524020F060E072E0621BC8
:104C0000730BC091A902D091AA02D901A256BC4F40
:104C1000A901620F731F01E010E046175707E8F47F
:104C2000FA01E21BF30BE80FF91FE491FC91EF1777
:104C300081F0EC93FA01689414F8F695E7951694D0
:104C4000E1F7780102C0EE0CFF1CEA95E2F7CE29ED
:104C5000DF294F5F5F4F1196E0CFD093AA02C09338
:104C6000A902CDB7DEB7E6E00C94C0348091A8026B
:104C70008823F9F00E94732EDC01CB01805A954104
:104C8000AF4FBF4F80939E0590939F05A093A005C3
:104C9000B093A1058091A70281110BC062E070E082
:104CA00081E893E10E945924892B19F481E08093D3
:104CB000A7028091A7020895A0E0B0E0E2E6F6E244
:104CC0000C949A348091A9029091AA02892B09F43C
:104CD000E3C08091A802882309F4DEC08091A60277
:104CE0008111DAC00E9436262091A9023091AA02D1
:104CF0002115310509F4D0C080E041E050E0082FD3
:104D000010E02A01082E02C0440C551C0A94E2F758
:104D1000B20162237323672B11F48F5FF0CF909160
:104D2000A502980165E0220F331F6A95E1F790FF15
:104D300013C055E0369527955A95E1F7220F220FBB
:104D4000220F20931C0110921F01295F20931D0147
:104D500083E08093200111C08295880F8076809334
:104D60001C01220F232F221F330B319520931F018B
:104D7000815E80931D011092200124E630E047E01F
:104D800050E06AE171E088E70E94C42C892B09F0A9
:104D900083C08091A50280FF60C080E2E4E8F2E079
:104DA000DF011D928A95E9F7680135E0CC0CDD1C26
:104DB0003A95E1F7A0EBB1E04CEA51E004EB11E0E9
:104DC000772473948D91EA019991AE01B601690F30
:104DD000711D62567C4F90E08C579D4FFC0127E07F
:104DE000A22E9F01281B390B872C01C0880C2A9505
:104DF000EAF77B01912CE701B9907E01B8202A2DBA
:104E000029192770622E022E000C330BDB2D01C0F6
:104E1000DD0F6A94EAF76D2E3195219531092770DF
:104E2000332701C0B6942A95EAF7BD2A2081B22A19
:104E3000B082939428E09212DECFAA943196CFEFFD
:104E4000AC12CFCF0A171B0709F0BCCF04E610E065
:104E500020E230E044E852E00CC0A80185E0440FB5
:104E6000551F8A95E1F742565C4F04E610E020E2B8
:104E700030E060E488E70E94E52C892B69F4E201C8
:104E8000C095D0958091A9029091AA02C823D923F8
:104E9000D093AA02C093A902CDB7DEB7E0E10C948B
:104EA000B6348091A8029091A702882389F09923B3
:104EB00069F062E070E08FE793E10E945924892B4A
:104EC00019F08091A70208951092A7029091A7026D
:104ED00081E0892708950F931F938091A80288236A
:104EE00019F160E080E00E94DF240E949F0E0E9482
:104EF0005C268091A7028823B9F00E94732E00914E
:104F00009E0510919F052091A0053091A105DC011F
:104F1000CB01801B910BA20BB30B8F3F9F4FAF4F69
:104F2000BF4710F40E9451271F910F910895CF930E
:104F3000DF93FC01DB0112968C91882309F4DDC01C
:104F40009F0130572332310508F0D8C0EF010E948D
:104F5000A11B90938F0380938E03FE01E150F047D5
:104F6000E232F10520F4E05CFF4F0C947F34809135
:104F70008E038160AAC080918F038860B2C0809147
:104F80008E038260A2C080918E0320C080918E0328
:104F900088609BC080918F031EC080918F038260C8
:104FA000A0C080918E03806190C080918E0380624A
:104FB0008CC080918E03806488C00E94AC15809163
:104FC0008E03806882C080918E03886084607DC07B
:104FD00080918F038260816084C080918E038E7F78
:104FE00074C080918F03877F7CC080918E038D7FFA
:104FF0006CC080918E0320C080918E03877F65C036
:1050000080918F031EC080918F038D7F6AC0809135
:105010008E038F7E5AC080918E038F7D56C0809103
:105020008E038F7B52C00E94AC1580918E038F77C8
:105030004CC080918E03877F8B7F47C080918F0308
:105040008D7F8E7F4EC080918E0382FB222720F9B8
:1050500091E0922790FB82F990FB83F936C0809112
:105060008F03982F909591708E7F892B90FB81F9FB
:1050700038C080918E0386FB222720F991E0922789
:1050800090FB86F922C00E94AC1580918E0387FBAD
:10509000222720F991E0922790FB87F916C081E042
:1050A00001C080E00E941E1C1EC080918E0384FB04
:1050B000222720F991E0922790FB84F906C0809185
:1050C0008E03982F909590FB80F980938E030BC0F0
:1050D00080918F0383FB222720F991E0922790FB98
:1050E00083F980938F0380918E0390918F030E94A8
:1050F000A61B0E94AC1580E001C081E0DF91CF913A
:1051000008958FE891E00197F1F700C0000008953D
:1051100081E08093AC0224982C9A25982D9A0E94C5
:1051200081283091AC02EEEAF2E090E0931761F052
:1051300083B1829581701D9902C020E001C022E0F8
:10514000822B81939F5FF2CF0895A0E0B0E0EBEA5D
:10515000F8E20C94A234F12CE12C84E0C82ED12C7E
:105160008091AC02F81608F050C00F2D10E0E3B1AA
:10517000E295E1701D9902C080E001C082E08E2BB3
:10518000D801A255BD4FEC912E2F237030E0482F4F
:10519000082E000C550B24173507A9F1EE0FEE0F62
:1051A000E82BEC93EF70F0E0EC54FE4FE801C355B0
:1051B000DD4F90818881890F8883843064F0F80105
:1051C000E555FD4F80818F5F808360E08F2D0E94C9
:1051D000850E21E001C020E088818D3F5CF4F8015C
:1051E000E555FD4F80818150808361E08F2D0E94C5
:1051F000850E21E08881082E000C990BB6010E94D3
:105200002A348883E22AF394ABCF8E2DCDB7DEB754
:10521000E8E00C94BE34CF93DF9386319C4741F590
:10522000EB010E94AE1A982F8A81209112013091D1
:105230001301882379F09A7A81E009F480E0809361
:10524000AF02911102C069E201C065E3C9010E9489
:10525000CC2D0AC08091AF02811102C069E201C069
:1052600065E3C9010E94CF2D0E94F51A80E001C0BC
:1052700081E0DF91CF9108950F931F93CF93DF9338
:10528000C42FD22FFC0182818823B1F04093B20257
:105290000E94672E9093B1028093B00280E28C0F3F
:1052A000883008F04DC0C77081E001C0880FCA95F2
:1052B000EAF70E942D1344C08091B202481330C017
:1052C0008091B0029091B1020E947F2E843B9105A3
:1052D00038F510E21D0FCD17B9F080E28C0F883041
:1052E00040F4C77081E001C0880FCA95EAF70E94B8
:1052F0003413183010F581E09D2F977001C0880F8E
:105300009A95EAF70E942D13802F0E9423131830DC
:10531000B8F4D77081E001C0880FDA95EAF70AC0C7
:1053200080E28C0F883060F4C77081E001C0880F84
:10533000CA95EAF70E94341303C0802F0E942313FA
:10534000DF91CF911F910F9108950F93FC01E851C8
:10535000FC47E730F10590F5CB01EE59FF4F0C9477
:105360007F3406E221EE41EE6AE17CE723C007E2EA
:1053700025EE45EE6BE17CE71DC006E221EE40EE36
:1053800068E17CE717C007E225EE44EE69E17CE7BF
:1053900011C006E221EE42EE6CE17CE70BC007E2B1
:1053A00025EE46EE6DE17CE705C008E221E045EE22
:1053B0006EE17CE70E943C2980E008C0FB0182810D
:1053C000882319F01092B20201C081E00F91089574
:1053D000CF93DF93EC01EA85FB85309719F06C855C
:1053E0007D8509958B810E94CA1A8C810E94B71A0B
:1053F0000E94F51A86E0FE0111928A95E9F7DF9185
:10540000CF910895CF93DF93EC018D8181FD12C080
:1054100082608D838B810E94C41A8C810E94B11A94
:105420000E94F51AE885F985309721F06C857D8515
:10543000CE0109951092B6021092B5028D8180FDC1
:1054400003C0CE010E94E829DF91CF910895CF9348
:10545000DF93FC012281223049F4FB01EC018281BF
:1054600093810E9433108D8182608D83DF91CF9173
:105470000895FB01808191810E9433100895FC0101
:105480008281813051F48FE39CE90197F1F700C0EC
:105490000000FB018081918105C0823029F4FB016D
:1054A000828193810E944A100895CF93FB01C281AB
:1054B000CC2301F12091B5023091B60221153105BE
:1054C000C1F028173907A9F0AC01FEE02F9FC001F9
:1054D0001124FC01EB5FFE4F20812460208380506B
:1054E0009F4FFC01518340830E94022A0E94D11ADF
:1054F00001C0C0E08C2FCF910895EF92FF920F93DF
:105500001F93CF93DF939C0137552F3F310511F047
:1055100008F04EC0DB018C017C01FF248EE0089F67
:10552000F0011124EF01C050DF4F12969C911297A9
:10553000EB5FFE4F808190FB80F9808312969C91F7
:10554000992389F10E94672E9093B4028093B3024D
:105550008A818F5F8A830E94AE1A8B830E94C11A50
:105560009B81892B8B830E94D41A8C83EE81FF81CF
:10557000309721F06C857D85CE0109958EE08E9D5A
:10558000F0018F9DF00D1124EB5FFE4F808181FDB6
:1055900003C0902F812F02C090E080E09093B5026D
:1055A0008093B60205C081FF03C0CE010E94E829A6
:1055B00081E0CDB7DEB7E6E00C94C0348091B5024F
:1055C0009091B602892BC9F08091B3029091B402F8
:1055D0000E947F2E853B910580F08091B5022EE0E0
:1055E000829FC0011124FC01EB5FFE4F208122FD50
:1055F00004C080509F4F0E94022A08958091F402B7
:1056000008959C013A9521153F4410F4992706C04E
:105610008F3F910519F010F080E090E09C0124503C
:1056200031092432310540F02752310981E02E3012
:10563000310518F080E0089581E008950E94012B63
:1056400008950E941E2B882381F0E091BD02F0E0B6
:10565000EE0FFF1FE254FD4F808191818F3F2FE7B6
:10566000920719F001969183808308954F925F927B
:105670006F927F928F929F92AF92BF92CF92DF9262
:10568000EF92FF92CF93C090BE02D090BF020D2C3C
:10569000000CEE08FF088091210190E0E0ECF2E0C0
:1056A00021E030E0821793076CF041915191052E73
:1056B000000C660B770BC40ED51EE61EF71E2F5F7F
:1056C0003F4FF0CFF7FE03C0C12CD12C7601609183
:1056D000F0027091F1028091F2029091F3020E9427
:1056E0008E2E2B013C01C0912101A0E6BAEEA7014C
:1056F00096010E9485344B015C0188ECC89F9001A3
:105700001124C901330FAA0BBB0B9C01AD01240D61
:10571000351D461D571DA5E0B0E00E9485349B0154
:10572000AC01C501B4010E943E3449015A0157FD44
:105730000BC0213F3105410551054CF030EF832E60
:10574000912CA12CB12C03C0812C912C540189ECFB
:10575000481651046104710414F18091BD0290E077
:10576000019669E170E00E942A348093BD02880F9F
:10577000991FFC01E254FD4F11821082C83110F4D0
:10578000CF5F01C0C8E1C09321010E94732E6093D6
:10579000F0027093F1028093F2029093F30282E0A0
:1057A000C816D104E104F1041CF4812C912C54019D
:1057B0006091B9027091BA028091BB029091BC02D3
:1057C0000E948E2E6B017C0185E6C816D104E1048F
:1057D000F10484F00E94732E6093B9027093BA02B0
:1057E0008093BB029093BC028091F4028093B80234
:1057F0008092B702C091B802A091B702B0E0AC1B92
:10580000B109A70196010E94903424E630E040E0FF
:1058100050E00E9460342C0F2093F402CF91FF904F
:10582000EF90DF90CF90BF90AF909F908F907F9040
:105830006F905F904F9008951092B9008CE0809324
:10584000B8000895A0E0B0E0E8E2FCE20C949F34D8
:10585000B82EEB010E94672E6C01C431D10558F0BF
:10586000CF3F8FEFD80759F0CE0164E170E00E947E
:1058700016347B0107C0EE24E394F12C03C025E02D
:10588000E22EF12C84E8A82E94EA992E1092BC0006
:105890009092BC000E94672E8C018091BC0087FD15
:1058A00007C0C8010E947F2EE816F906B0F729C08C
:1058B0008091B900887F883041F08091B900887F5D
:1058C000803119F00FEF1FEF1EC0B092BB00A09205
:1058D000BC000E94672E8C018091BC0087FD07C030
:1058E000C8010E947F2EE816F906B0F70AC0809121
:1058F000B900887F883111F0803421F700E010E092
:105900000EC00EEF1FEFCF3F8FEFD80709F4BECFC9
:10591000C6010E947F2EC817D90708F0B7CFC8016B
:10592000CDB7DEB7EBE00C94BB340F931F93CF934E
:10593000DF93EB018093BB0084E88093BC000E945E
:10594000672E8C018091BC0087FD0DC0CF3F8FEF8B
:10595000D807C1F3C8010E947F2EC817D90790F756
:105960008EEF9FEF0CC02091B900287F81E090E07E
:10597000283211F480E090E0919581959109DF91B2
:10598000CF911F910F910895A0E0B0E0EAECFCE206
:105990000C94A2346B018A017901B9010E94222C76
:1059A000E6010C0D1D1DC017D10741F424E9209319
:1059B000BC00CDB7DEB7E8E00C94BE3497FDF6CF5F
:1059C000B70189910E94952CEECFA0E0B0E0EBEEFC
:1059D000FCE20C94A234C62F6A017901B8010E943E
:1059E000222C97FD11C0B8018C2F0E94952CE60146
:1059F000EC0CFD1CCE15DF0539F097FD05C0B80194
:105A000089910E94952CF6CF24E92093BC00CDB754
:105A1000DEB7E8E00C94BE3484E98093BC000895BE
:105A20009093C5018093C40108959093FA028093E6
:105A3000F9020895E091F902F091FA02309729F005
:105A40000190F081E02D0995089580E00895E0919E
:105A5000F902F091FA02309721F00280F381E02DF3
:105A600009950895E091F902F091FA02309739F022
:105A700022E0DC012C930480F581E02D0995089546
:105A8000A3E0B0E0E6E4FDE20C94A8342091F70234
:105A90003091F80228173907A1F09093F80280930B
:105AA000F702E091F902F091FA02309751F023E009
:105AB00029839B838A830680F781E02DCE0101969E
:105AC00009952396E2E00C94C434A3E0B0E0EBE641
:105AD000FDE20C94A8342091F5023091F6022817CB
