:100000000C94B60C0C94D30C0C94EE0C0C94D30CF6
:100010000C94D30C0C94D30C0C94DA290C94D30CC0
:100020000C94D30C0C94D30C0C94D30C0C94D30CD4
:100030000C94D30C0C94D30C0C947F2A0C94D30CFA
:100040000C94D30C0C94D30C0C94D30C0C94D30CB4
:100050000C94D30C0C94D30C0C94D30C0C94D30CA4
:100060000C94D30C0C94D30C0613061332133213D6
:100070009513A214A214A214B31329143A143A1417
:10008000DA234C24E223AC23B023E623B323E92371
:10009000F423BE234224C223F823C623FC232624B0
:1000A000CA2300243024D02306241024B723ED23B0
:1000B000BA23F023D5230B241C243C243E24A8235C
:1000C000DE235524AA25B0259E25A425B625BC25CA
:1000D000C225B6B6B6B6B6B6B6B6B6B6B6B6B6B645
:1000E000B695B596D5B6B680818283848586878895
:1000F000898A8B8C8D8E8F9091929394A0A1A2A3CC
:10010000A4A5A6A7A8A9AAABACADAEAFB0B1B2B337
:10011000B4C0C1C2C3C4C5C6C7C8C9CACBCCCDCE82
:10012000CFD0D1D2D3D400000000000000000000E6
:1001300000000000000000000000000000000000BF
:1001400000000000000000000000000000000000AF
:10015000000000000000000000000000000000009F
:1001600000804040202020201010101010080804AB
:10017000040408304080000000000000000000007F
:10018000000000000000000000000000000000006F
:10019000000000000000000000000000000000005F
:1001A00000000000808080000000000000000000CF
:1001B000000000000000000000000000000000003F
:1001C000000000000000000000000000000000002F
:1001D0000000000000000000186482020202020217
:1001E000010000000080800000000000000000000E
:1001F0008000303000C0C1C1C2040810204080001F
:10020000000080808080404040402020202010104E
:10021000101008080808080404040404020202027A
:1002200001010101000000000000000000000000CA
:1002300000000000000000000000000000000000BE
:1002400000000000000000000000000000000000AE
:1002500000000000000000C038040300000000009F
:1002600000000C0C0C0D010040A0212212111111F4
:100270000908080808040408081010101010110FCD
:10028000010100000000000000000000000000006C
:10029000000000000000000000000000000000005E
:1002A000000000000000000000000000000000004E
:1002B00000000000000000008080808080404040FE
:1002C000404020202020201010101010080808089E
:1002D00008040404040402030202010101010101F3
:1002E00002020404080808080807000000000000D3
:1002F00000000000000000000000000000000000FE
:1003000000000000000000000000000000000000ED
:1003100000000000000000000000000000000000DD
:1003200000000000000000000000000000000000CD
:1003300000000000000000000000000000000000BD
:1003400000000000000000000000000000000000AD
:10035000000000000000000000000000000000009D
:1003600000804040202020201010101010080804A9
:10037000040408304080000000000000000000007D
:10038000000000000000000000000000000000006D
:10039000000000000000000000000000000000005D
:1003A00000000000808080000000000000000000CD
:1003B000000000000000000000000000000000003D
:1003C000000000000000000000000000000000002D
:1003D0000000000000000000186482020202020215
:1003E000010000000080800000000000000000000C
:1003F0008000303000C0C1C1C2040810204080001D
:10040000000080808080404040402020202010104C
:100410001010080808080804040404040202020278
:1004200001010101000000000000000000000000C8
:1004300000000000000000000000000000000000BC
:1004400000000000000000000000000000000000AC
:1004500000000000000000C038040300000000009D
:1004600000000C0C0C0D010040A0212212111111F2
:100470000908080808040408081010101010110FCB
:10048000010100000000000000000000000000006A
:10049000000000000000000000000000000000005C
:1004A000000000000000000000000000000000004C
:1004B00000000000000000008080808080404040FC
:1004C000404020202020201010101010080808089C
:1004D00008040404040402030202010101010101F1
:1004E00002020404080808080807000000000000D1
:1004F00000000000000000000000000000000000FC
:1005000000000000000000000000000000000000EB
:1005100000000000000000000000000000000000DB
:1005200000000000000000000000000000000000CB
:1005300000000000000000000000000000000000BB
:1005400000000000000000000000000000000000AB
:10055000000000000000000000000000000000009B
:1005600000008080404040402020202010080402ED
:10057000020418608000000000000000000000007D
:10058000000000000000000000000000000000006B
:10059000000000000000000000000000000000005B
:1005A00000000000808080000000000000000000CB
:1005B000000000000000000000000000000000003B
:1005C000000000000000000000000000000000002B
:1005D00000000000000000003CC20101020204040F
:1005E0000201000000000000000000000000000008
:1005F000000060600081828284081020408000003A
:10060000000080808080404040402020202010104A
:100610001010080808080804040404040202020276
:1006200001010101000000000000000000000000C6
:1006300000000000000000000000000000000000BA
:1006400000000000000000000000000000000000AA
:10065000000000000000008070190600000000008B
:1006600000001818181B030040A0222414121212B4
:100670000B08080808050509091010101010110FC3
:100680000101000000000000000000000000000068
:10069000000000000000000000000000000000005A
:1006A000000000000000000000000000000000004A
:1006B00000000000000000008080808080404040FA
:1006C000404020202020201010101010080808089A
:1006D00008040404040402030202010101010101EF
:1006E00002020404080808080807000000000000CF
:1006F00000000000000000000000000000000000FA
:1007000000000000000000000000000000000000E9
:1007100000000000000000000000000000000000D9
:1007200000000000000000000000000000000000C9
:1007300000000000000000000000000000000000B9
:1007400000000000000000000000000000000000A9
:100750000000000000000000000080800000000099
:1007600000804040202020201010101008040201BA
:1007700001020C304080000000000000000000007A
:100780000000000000000000000000000000000069
:100790000000000000000000000000000000000059
:1007A00000000000808080000000000000000000C9
:1007B0000000000000000000000000000000000039
:1007C0000000000000000000000000000000000029
:1007D00000000000000000001EE100000101020214
:1007E0000100000000808000000000000000000008
:1007F0008000303000C0C1C1C20408102040800019
:100800000000808080804040404020202020101048
:100810001010080808080804040404040202020274
:1008200001010101000000000000000000000000C4
:1008300000000000000000000000000000000000B8
:1008400000000000000000000000000000000000A8
:100850000000000000000080700C03000000000099
:1008600000000C0C0C0D010040A0212212111111EE
:100870000908080808040408081010101010110FC7
:100880000101000000000000000000000000000066
:100890000000000000000000000000000000000058
:1008A0000000000000000000000000000000000048
:1008B00000000000000000008080808080404040F8
:1008C0004040202020202010101010100808080898
:1008D00008040404040402030202010101010101ED
:1008E00002020404080808080807000000000000CD
:1008F00000000000000000000000000000000000F8
:1009000000000000000000000000000000000000E7
:1009100000000000000000000000000000000000D7
:1009200000000000000000000000000000000000C7
:1009300000000000000000000000000000000000B7
:1009400000000000000000000000000000000000A7
:100950000000000000000000000000000000000097
:1009600000804040202020201010101008080402B1
:100970000202043840800000000000000000000077
:100980000000000000000000000000000000000067
:100990000000000000000000000000000000000057
:1009A00000000000808080000000000000000000C7
:1009B0000000000000000000000000000000000037
:1009C0000000000000000000000000000000000027
:1009D00000000000000000001CE20101020202020F
:1009E0000100000000808000000000000000000006
:1009F0008000303000C0C1C1C20408102040800017
:100A00000000808080804040404020202020101046
:100A10001010080808080804040404040202020272
:100A200001010101000000000000000000000000C2
:100A300000000000000000000000000000000000B6
:100A400000000000000000000000000000000000A6
:100A50000000000000000080700C03000000000097
:100A600000000C0C0C0D010040A0212212111111EC
:100A70000908080808040408081010101010110FC5
:100A80000101000000000000000000000000000064
:100A90000000000000000000000000000000000056
:100AA0000000000000000000000000000000000046
:100AB00000000000000000008080808080404040F6
:100AC0004040202020202010101010100808080896
:100AD00008040404040402030202010101010101EB
:100AE00002020404080808080807000000000000CB
:100AF00000000000000000000000000000000000F6
:100B000000000000000000000000000000000000E5
:100B100000000000000000000000000000000000D5
:100B200000000000000000000000000000000000C5
:100B300000000000000000000000000000000000B5
:100B400000000000000000000000000000000000A5
:100B50000000000000000000000080800000000095
:100B600000804040202020201010101008040201B6
:100B700001020C3040800000000000000000000076
:100B80000000000000000000000000000000000065
:100B90000000000000000000000000000000000055
:100BA00000000000808080000000000000000000C5
:100BB0000000000000000000000000000000000035
:100BC0000000000000000000000000000000000025
:100BD00000000000000000001EE100000101020210
:100BE0008180800000808000000000000000000084
:100BF00080003030000001E11A06093135018A7C9D
:100C00000000808080804040404020202020101044
:100C10001010080808080804040404040202020270
:100C200001010101000000000000000000000000C0
:100C300000000000000000000000000000000000B4
:100C400000000000000000000000000000000000A4
:100C50000000000000000080700C03000018060572
:100C6000989984C37C4141404020212212111111E6
:100C7000090808080804040404040402020201012B
:100C80000101000000000000000000000000000062
:100C90000000000000000000000000000000000054
:100CA0000000000000000000000000000000000044
:100CB00000000000000000008080808080404040F4
:100CC0004040202020202010101010100808080894
:100CD00008040404040402030202010101010101E9
:100CE0000000000000000000000000000000000004
:100CF00000000000000000000000000000000000F4
:100D000000000000000000000000000000000000E3
:100D100000000000000000000000000000000000D3
:100D200000000000000000000000000000000000C3
:100D300000000000000000000000000000000000B3
:100D400000000000000000000000000000000000A3
:100D50000000000000000000000080800000000093
:100D600000804040202020201010101008040201B4
:100D700001020C30408000000000000000F8F8F88C
:100D8000F80000000000808000000000000000006B
:100D90000000000000000000000000000000000053
:100DA00000000000808080000000000000000000C3
:100DB0000000000000000000000000000000000033
:100DC0000000000000000000000000000000000023
:100DD00000000000000000001EE10000010102020E
:100DE0008180800000808000000000000000000082
:100DF0008000303000000101020408102043870702
:100E00000100B8BCBE9F5F5F4F4C20202020101017
:100E1000101008080808080404040404020202026E
:100E200001010101000000000000000000000000BE
:100E300000000000000000000000000000000000B2
:100E400000000000000000000000000000000000A2
:100E50000000000000000080700C03000018060570
:100E6000989984437C414140402021221211111164
:100E70000908080808040408081010101010110FC1
:100E8000013D7CFCFCFCFCFC3C0C00000000000074
:100E90000000000000000000000000000000000052
:100EA0000000000000000000000000000000000042
:100EB00000000000000000008080808080404040F2
:100EC0004040202020202010101010100808080892
:100ED00008040404040402030202010101010101E7
:100EE0000000000000000000000000000000000002
:100EF00000000000000000000000000000000000F2
:100F000000000000010303000000000000000000DA
:100F100000000000000000000000000000000000D1
:100F200000000000000000000000000000000000C1
:100F300000000000000000000000000000000000B1
:100F400000000000000000000000000000000000A1
:100F50000000000000000000000080800000000091
:100F600000804040202020201010101008040201B2
:100F700001020C3040800000000000000000000072
:100F80000000000000000000000000000000000061
:100F90000000000000000000000000000000000051
:100FA00000000000808080000000000000000000C1
:100FB0000000000000000000000000000000000031
:100FC0000000000000000000000000000000000021
:100FD00000000000000000001EE10000010102020C
:100FE0000100000000808000000000000000000000
:100FF00080003030000001E11A06093135018A7C99
:101000000000808080804040404020202020101040
:10101000101008080808080404040404020202026C
:1010200001010101000000000000000000000000BC
:1010300000000000000000000000000000000000B0
:1010400000000000000000000000000000000000A0
:101050000000000000000080700C03000000000091
:10106000000000000001010040A021221211111116
:101070000908080808040404040404020202010127
:10108000010100000000000000000000000000005E
:101090000000000000000000000000000000000050
:1010A0000000000000000000000000000000000040
:1010B00000000000000000008080808080404040F0
:1010C0004040202020202010101010100808080890
:1010D00008040404040402037A7A797979793931AD
:1010E00002020404080808888887800000000000C5
:1010F00000000000000000000000000000000000F0
:1011000000000000000000000000000000000000DF
:1011100000000000000000000000000000000000CF
:1011200000000000000000005714001A000800151D
:101130000017001C00394104001600070009000ACE
:10114000000B00E1003602E4001B00060019000558
:1011500000E000E2422252E6002C002C002C0000AD
:10116000002E02407E130012000C0018000000E365
:10117000002A0028000F000E000D0000001D00E5F1
:10118000003700360010001100167C0100520001EB
:10119000002F02300201000100500051004F0026D4
:1011A0000227023802010031003502310201002F0E
:1011B0000030000100010038003100010001000191
:1011C0000000003702A800380201005200010000B0
:1011D0000001004C000100360251005000000038B0
:1011E000002E00340234004D004A0029001E001F6A
:1011F00000200021002200230001001E021F022007
:10120000022102240222020100010031022E0231D9
:1012100000380033003402340201000100010001F3
:101220000001000000010001002700260025002425
:1012300000000034002A00010027022602250200D7
:10124000002D00370030002F003802330254656152
:101250006D73000000546F67676C6500004D696333
:10126000000000000010035465616D73000000541D
:101270006F67676C65000043616D0000000000123D
:10128000034374726C00000000416C7400000000A5
:101290000044656C00000000004C05436170730061
:1012A0000000004C6F636B000000000000000000B5
:1012B00000000039005061757365000000000000F7
:1012C0000000000000000000000000000048005086
:1012D0007274536372000000000000000000000000
:1012E000000000000000004600496E736572740043
:1012F00000000000000000000000000000000000EE
:10130000004900506C6179000000000000000000FE
:101310000000000000000000000000AE0000AE0071
:10132000AF00DA0281FFD9F1DB20A4A62EAF00A026
:10133000C000A1C800AED580A81FD300408D1420E6
:10134000000000000000003E5B4F5B3E003E6B4F24
:101350006B3E001C3E7C3E1C00183C7E3C18001C72
:10136000577D571C001C5E7F5E1C0000183C180057
:1013700000FFE7C3E7FF00001824180000FFE7DBC9
:10138000E7FF0030483A060E00262979292600405A
:101390007F05050700407F05253F005A3CE73C5A82
:1013A000007F3E1C1C0800081C1C3E7F0014227F8E
:1013B0002214005F5F005F5F0006097F017F00006D
:1013C0006689956A0060606060600094A2FFA294E4
:1013D0000008047E04080010207E20100008082A5F
:1013E0001C0800081C2A0808001E10101010000C11
:1013F0001E0C1E0C0030383E383000060E3E0E0625
:101400000000000000000000005F00000000070076
:10141000070000147F147F1400242A7F2A1200235F
:101420001308646200364956205000000807030084
:1014300000001C224100000041221C00002A1C7FE9
:101440001C2A0008083E08080000807030000008D0
:10145000080808080000006060000020100804026E
:10146000003E5149453E0000427F4000007249491C
:101470004946002141494D33001814127F100027BE
:1014800045454539003C4A49493100412111090788
:1014900000364949493600464949291E00000014D2
:1014A0000000000040340000000008142241001435
:1014B00014141414000041221408000201590906F2
:1014C000003E415D594E007C1211127C007F49495B
:1014D0004936003E41414122007F4141413E007F6B
:1014E00049494941007F09090901003E41415173C1
:1014F000007F0808087F0000417F41000020404134
:101500003F01007F08142241007F40404040007F9F
:10151000021C027F007F0408107F003E4141413ED3
:10152000007F09090906003E4151215E007F09192B
:1015300029460026494949320003017F0103003F43
:101540004040403F001F2040201F003F4038403FA8
:10155000006314081463000304780403006159490C
:101560004D4300007F41414100020408102000006B
:101570004141417F000402010204004040404040DC
:10158000000003070800002054547840007F2844DE
:10159000443800384444442800384444287E003805
:1015A000545454180000087E0902001824241C78A2
:1015B000007F080404780000447D40000020404083
:1015C0003D00007F102844000000417F4000007C67
:1015D00004780478007C08040478003844444438D3
:1015E000007C1824241800182424187C007C08048B
:1015F00004080048545454240004043F4424003C8C
:101600004040207C001C2040201C003C4030403CDE
:10161000004428102844004C9090907C004464546E
:101620004C44000008364100000000770000000034
:1016300041360800000201020402003C2623263C39
:1016400000000000000080C0E0F0F0300000C0604A
:10165000F0F0F0300080C020F0F0F020000000003A
:101660000080C0E0703018B8F8F00000000000DC26
:101670007E3FBEF0F0E000000000000080C0E0709F
:10168000101818F8F06000000000C060F0F8F830A2
:1016900000000080E0F0F8F8300000000080E0F08A
:1016A000FCFF3F0F0100000080C0E0F0F878000070
:1016B00000000080C060309040203070E0C000002A
:1016C0004040404040404040404040000000E0FE7C
:1016D000FFFEF8C00000000000E0FCFFFEF000008C
:1016E00000000000000000013EE080700E010000DC
:1016F0000000073CE08078070000000000000000C8
:101700000000180C06C3F9FE3FC7711806C3F07C31
:101710001FC7711806C3F8FE3F0F0180C0F0F8FE26
:10172000DF47636030381E0F0781402018060381B1
:10173000F0FC7F1F0780C0E0F8FC3E0F03010000B3
:10174000000003018060100806E3FCFF3F0701C0B2
:10175000308CE3FF7F1F0380C030188CE3F9FF3F1C
:10176000070180C030180CC3F1FC7F0F0380C0F06C
:10177000FCFE3F0701003EC18080E0FC3F8F4040FF
:10178000C0F0FC7E4E0000000000000000F8FFFFEB
:101790001F071FFFFEF0C0F8FF7F0F077FFFFEFC53
:1017A00004047880000000C0380C1C608000000039
:1017B000F00C04F41C80C0FCE6C3C1C1C3E6FCC04D
:1017C000800000383F3F1F07030000383E3F1F0ED8
:1017D000030000307F7F3F190C0603010F1F3F718C
:1017E00060607030180804020100000000387E7F3D
:1017F0003F3B18040301000F1F3120202020101848
:10180000080402010000001C3F7F7F311806031806
:101810003E3F3F1B0804020100001E3F3F3F1008EF
:101820000402010000183E3F3F190C060301000F9F
:101830001F3160606030181C0F07030101000000B9
:10184000183C3C1C00000000000000001F1F1F0788
:1018500000000000031F1F0F0100000000071F1FF2
:101860001EF8000F70300EC138070E70831C601E0A
:1018700003C03E01003F7FFFFFF9C0C0F9FFFF7FBB
:101880003F09023B00020100A0FA09040000010325
:101890000101000921010100012240000705810327
:1018A00008000109040100010300000009210101F1
:1018B0000001223200070583030800011201100114
:1018C00000000008776D03170001010200011203F8
:1018D0004D006500720063007500740069006F00C0
:1018E000000012034D0065006300680057006900A6
:1018F0006C00640000000403090405010980A101D3
:10190000850319012AB700150126B7009501751046
:101910008100C0050C0901A101850419012AA0025A
:10192000150126A002950175108100C00501090668
:10193000A101050719E029E71500250195087501A2
:1019400081029501750881030507190029FF15001B
:1019500026FF0095067508810005081901290595DF
:101960000575019102950175039103C011241FBEF5
:10197000CFEFD8E0DEBFCDBF11E0A0E0B1E0E0EBFB
:10198000FDE502C005900D92AE3BB107D9F725E009
:10199000AEEBB1E001C01D92A23EB207E1F70E949A
:1019A00039200C94D62E0C940000A82FB92F80E07B
:1019B00090E041E050EA609530E009C02D91822727
:1019C0009795879510F084279527305EC8F36F5F51
:1019D000A8F30895EADF8D939D930895CF93CFB731
:1019E000CF93DF93C3954B9BE9F74B9B10C04B9B69
:1019F0000EC04B9B0CC04B9B0AC04B9B08C04B9B23
:101A000006C0C091B905C395C093B9058EC06F9348
:101A1000C091B805DD27C054DA4F2F9365E54B9B85
:101A200003C02F916F91E1CF0F931F934F9320E04D
:101A300040E15F9309B10C7003FB27F93F9350E03D
:101A40003BE039C01C7040642F77012F5F5F1EC0E0
:101A5000406819B11C702F7752501FC0406409B103
:101A60002F770C70D1F15F5F00C023C0406219B1C5
:101A70002F771C7091F15F5F00C025C00C7010279C
:101A8000515012F45D5F0000115027952C3F19B1A1
:101A9000C8F61C700127015027952C3FC8F6422735
:101AA000499309B10C7010274F73115027952C3FA3
:101AB000A8F64695469519B11C7079F0012701509A
:101AC00027952C3F98F66B5A60F3315009B1B0F668
:101AD00000C012E01CBB00271CC03B503195C31B4B
:101AE000D04012E01CBB0881033C21F10B3411F102
:101AF0002091B5051981110F1213EDCF4A81441FB2
:101B0000093679F10D3211F0013E29F74F7009F0D5
:101B1000042F0093BE053F915F914F911F910F914C
:101B20002F916F91CCB3C1FD5DCFDF91CF91CFBF2E
:101B3000CF9118952091BE05222369F31091BC0521
:101B4000112309F049C034300AF448C03093BC0571
:101B50002093B7051091B8053BE0311B3093B805D1
:101B60003DC00091BC050130BCF50AE54F7049F459
:101B70003091250134FD33C000932501C2E9D5E041
:101B800032C0433059F0443091F030919D0534FD1E
:101B900026C000939D05CEE9D5E025C03091D6053D
:101BA00034FD1DC00093D605C7EDD5E01CC03091B3
:101BB000A90534FD14C00093A905CAEAD5E013C0F5
:101BC000052710E000C000000BB91AC0052710E07F
:101BD000221F1DC010E021C04AE502C032ED432F94
:101BE000C4E1D0E032E01AB11C605B9A0BB11AB9C3
:101BF0005CE020E865E320FF05270BB927951795E2
:101C00001C3FF0F66695B8F7B1F720FF05270BB932
:101C1000279517951C3FD0F62795179517FF052791
:101C200000001C3F0BB9B0F629913A9519F7037FD4
:101C30001091BD05110FC651D0400BB911F0109392
:101C4000B50512E01CBB08601AB1137F402F437F1B
:101C500054E05A95F1F70BB91AB94BB95CCF1F9301
:101C6000CF93DF93182FD62F0E94AB0EC82F882357
:101C700049F0111107C0DD2311F089EA01C08AEA99
:101C80000E94AF128C2FDF91CF911F91089582E0B7
:101C90000895CF930E940F0FC82F882329F060E08A
:101CA00082ED90E00E94C6218C2FCF9108950E9472
:101CB000EB268F31C0F48091DC0190E0019665E065
:101CC00070E00E94C12D9C018093DC0184E090E0D3
:101CD000821B930B982F8827990F60E072E0895D33
:101CE0009E4F0E94D8210E94EB268F3150F00E9417
:101CF000EB26883230F460E072E087E29BE00E94DD
:101D0000D8210E94EB268832B0F02091DB0130E030
:101D10002F5F3F4F217033272093DB0181E090E05C
:101D2000821B930B982F8827990F60E072E0895DE2
:101D3000924F0E94D821089580349E4751F4FB01B0
:101D40008281882331F08091D8019091D9010E943D
:101D5000251081E0089580E0662339F10E94CE15B8
:101D6000882399F06091DA01673078F46F5F6093AF
:101D7000DA018AE1689FB0011124635B7D4E4AE17C
:101D800050E080EC91E00E94752E81E00E94CE151B
:101D9000882321F08EE490E00E94251082E00E94CA
:101DA000CE15882351F189EA26C00E94CE158823DA
:101DB00099F06091DA01662379F061506093DA015D
:101DC0008AE1689FB0011124635B7D4E4AE150E0D7
:101DD00080EC91E00E94752E81E00E94CE15882350
:101DE00021F08BE490E00E94251082E00E94CE1545
:101DF000882319F08AEA0E94AF1280E0089560916A
:101E0000DA018AE1689FB0011124635B7D4E4AE1EB
:101E100050E080EC91E00E94752E82E008950E94CF
:101E2000EB26882341F10E9423226091E101709109
:101E3000E2018091E3019091E4010E94632A693CF0
:101E400071058105910560F00E94482A6093E101C7
:101E50007093E2018093E3019093E4010E94570E96
:101E60000E94482A6093DD017093DE018093DF01B8
:101E70009093E0012DC06091DD017091DE018091B1
:101E8000DF019091E0010E94632A613477478B4122
:101E9000910518F00E943E231BC06091E1017091F2
:101EA000E2018091E3019091E4010E94632A693C80
:101EB00071058105910560F00E94482A6093E10157
:101EC0007093E2018093E3019093E4010E94570E26
:101ED00060E080E00E94CC2060E080EC91E00E9415
:101EE000AB2161E080E00E94CC2060E088EC91E0D2
:101EF0000E94AB2162E080E00E94CC2060E080ED97
:101F000091E00E94AB2180E008950E943E23089555
:101F10008330B0F46730A0F4473090F491E3899FA8
:101F2000F001112487E0689FE00DF11D1124E40FFA
:101F3000F11DEE0FFF1FE95DFE4E8591949108950E
:101F400081E090E008950E94880F08959C013A95E1
:101F500021153F4130F5BC0166277270AC01442762
:101F600054709C012227387094FF0FC090FF02C06C
:101F700080E101C080E0672B09F08062452B09F009
:101F80008064232B79F080680895892F8170672BF6
:101F900009F08260452B09F08460232B19F08860DA
:101FA000089580E00895CF93DF93EB010E94A60F80
:101FB000FE010995DF91CF910895CF93DF93EC0156
:101FC000805E9109089710F0209719F469EB72E18F
:101FD00002C06BE075E1CE010E94D30F8C2F0E94EE
:101FE0009511DF91CF910895CF93DF93EC010E947B
:101FF0003612CE01805E9109089710F0209719F4EF
:1020000060EC72E102C062E175E1CE010E94D30F83
:10201000DF91CF9108950F931F93CF93DF938C019E
:10202000EB010E94DD0F209741F08FE99FE00197BF
:10203000F1F700C000002197F6CFC8010E94F40F0D
:10204000DF91CF911F910F9108958933910519F078
:102050006AE070E002C060E570E00E940B10089535
:1020600081E008950E949C0E089508950E94351005
:102070000895A5E0B0E0EFE3F0E10C943E2E498333
:102080005A833091EA0189819A81311114C0662303
:1020900059F0222349F00E94A616182F682F898133
:1020A0009A810E94821603C00E949416182F69819B
:1020B0007A81812F04C00E94A61669817A810E94CC
:1020C000C81D2596E3E00C945A2EFC01262F408172
:1020D00051816281738184810E943910089581E069
:1020E0000895CF93DF93EC0160E00E946510BE017C
:1020F0000E943610DF91CF91089508950E942F1508
:102100000E947D102FEF84E39CE02150804090409E
:10211000E1F700C0000008950E947E100E94A52AE9
:1021200008950E947E100E94BA2A08950F931F936B
:10213000CF93DF938C0161E00E946510EC01B80140
:102140000E944226882329F061E0C8010E946510A0
:10215000EC01F8018281882319F0CE010E940E273C
:10216000B801CE010E943210882339F1B801CE01A6
:102170000E946A26882309F1B801CE010E949225A7
:102180008823D9F0B801CE010E9484238823A9F0C6
:10219000B801CE010E94F824882379F0F8018281E9
:1021A000882349F1C330FCE7DF07D9F060F4C1159B
:1021B000ECE7DE0721F40E948C1080E01FC0C130E4
:1021C000DC4789F018C0CB358CE7D80791F0CC35C7
:1021D000ECE7DE0759F0CA35DC4769F40E94001BC2
:1021E0000AC00E94081B0E949110E7CF0E94F61AB5
:1021F00002C00E94041BC8010E943010DF91CF91E1
:102200001F910F9108950E94B9290E942C110E94DC
:102210003E2308950E9430110E94C2290895089516
:1022200081E008950895CF93DF93D82F0E94101175
:10223000C82F882319F08D2F0E9412118C2FDF9147
:10224000CF9108950895CF93C82F0E940F118C2F1E
:102250000E941311CF91089580E00E9423110895E8
:102260000E9407290E9423110895CF930E940729F5
:10227000C82F8091E501C81779F0C093E5010E944D
:10228000482A6093E6017093E7018093E8019093F8
:10229000E9018C2F0E942311CF910895ABE0B0E0AB
:1022A000E4E5F1E10C943F2E4F83588769877A87E4
:1022B0008B8761110E94541A9E012F5F3F4F86E069
:1022C000F90111928A95E9F785E0FE013796D90167
:1022D00001900D928A95E1F789819A814C815D8107
:1022E000452B31F09F3F31F491E08F3F19F403C04B
:1022F00091E001C090E090FF09C049815A816B8153
:102300007C818D819E810E947D1905C0C9010E943A
:102310006F108111F2CF2B96E2E00C945B2EFC0142
:10232000808191810E94D8160895CF93882309F463
:102330009BC0C82F8238C1F40E94072981FD94C038
:1023400069E380911201909113010E94AB290E94D0
:10235000781A2FEF87EE93E0215080409040E1F70C
:1023600000C0000069E319C0833801F50E94072905
:1023700080FD7AC063E580911201909113010E9463
:10238000AB290E94781A2FEF81EE94E02150804013
:102390009040E1F700C0000063E580911201909148
:1023A00013010E94AE290E94781A5EC08438C1F4DD
:1023B0000E94072982FD58C067E480911201909124
:1023C00013010E94AB290E94781A2FEF81EE94E04E
:1023D000215080409040E1F700C0000067E4DDCF6D
:1023E0008CEF8C0F813AD0F46C2F80911201909178
:1023F00013010E947529882349F06C2F80911201E6
:10240000909113010E94AE290E94781A6C2F80913E
:102410001201909113010E94AB29C5CF80E28C0F6D
:10242000883048F4C77081E001C0880FCA95EAF788
:102430000E94341AB8CFEBE5EC0FE33040F4F0E043
:10244000E45AFE4F808190E00E941F290DC0C85AB7
:10245000CB3150F4EC2FF0E0EE0FFF1FEA5DFE4FA2
:10246000808191810E944429CF910895882309F4A5
:102470005DC0682F823879F40E94072981FF56C019
:1024800069E380911201909113010E94AB290E948F
:10249000781A69E310C08338B9F40E94072980FFD5
:1024A00045C063E580911201909113010E94AB2910
:1024B0000E94781A63E580911201909113010E94A5
:1024C000AE290E94781A0895843879F40E94072969
:1024D00082FF2CC067E480911201909113010E9449
:1024E000AB290E94781A67E4E6CF8CEF860F813A19
:1024F00010F380E2860F883048F4677081E001C0F5
:10250000880F6A95EAF70E943A1ADBCF8BE5860FAF
:10251000833028F480E090E00E941F290895685AD3
:102520006B3120F480E090E00E94442908951F93CD
:10253000CF93DF93182FEB010E949511209741F064
:102540008FE99FE00197F1F700C000002197F6CFD7
:10255000812F0E943612DF91CF911F910895893308
:1025600019F06AE070E002C060E570E00E94971226
:102570000895882321F00E94341A0E94781A089541
:10258000882321F00E943A1A0E94781A0895A0E048
:10259000B0E0EDECF2E10C94392E7C01162FC72F40
:1025A000FC01D281058102950F700E942A1A8823AE
:1025B000E9F0DD23D9F08C2F807F803451F080E268
:1025C000810F883098F0011104C08C2F807E8032FA
:1025D00069F08091790382FF09C082E00E94C41AE9
:1025E0000E942A1A91E0D82ED92601C0D12CCC2ED7
:1025F000C2948FE0C8228C2D90E08C30910508F0B9
:10260000A1C1FC01EC5CFF4F0C94162E8C2F807F37
:10261000CF70882311F0C295C07FDD2399F0CC23C1
:1026200009F477C180E2810F883010F0111104C0E5
:102630008C2F0E94341A03C08C2F0E94471A0E94CC
:10264000781A67C1812F0E943612CC2309F47AC10F
:1026500080E2810F883038F1112329F18C2F0E94FC
:102660004D1A24C08C2F807FCF70803211F0C2951C
:10267000C07F112319F01130D1F143C0809179034B
:1026800082FD17C0DD2349F0CC2329F08C2F0E9456
:10269000341A0E94781A80E03DC180E00E94361210
:1026A000CC2309F44FC18C2F0E943A1A0E94781A49
:1026B00049C1DD2371F0002341F0013031F40E9463
:1026C000571A8C2B0E94611A3DC10E94571A8C2BFD
:1026D00023C0011103C00E946E1A23C0013009F407
:1026E00031C18C2F0E94C0120E946E1A2BC1DD23B3
:1026F00021F0063008F026C10EC0053008F022C1D6
:1027000010C0DD2361F0002331F0F701858180FFE7
:1027100000C18F7085838C2F0E94B91213C10111E3
:10272000FEC08C2F0E94C0120DC18C2F86958695FD
:10273000837019F0813061F005C1DD2321F0812F14
:102740009C2F937002C080E090E00E941F2902C17C
:10275000DD2321F0812F9C2F937002C080E090E058
:102760000E944429F7C08C2F8370B1F5D111EEC0BF
:10277000412F429546954770440F440F812F8F702B
:1027800090E09C01042E02C0220F331F0A94E2F74E
:1027900014FF0AC08FE090E002C0880F991F4A958D
:1027A000E2F78095909502C080E090E0C695C695CE
:1027B000C370822B932BC23049F058F4C13019F00A
:1027C0000E949915C3C00E949015C0C00E94A21516
:1027D000BDC00E948D15BAC0DD2319F08C2F817009
:1027E00001C08695882309F4B1C0412F42954695D2
:1027F0004770440F440F812F8F7090E09C01042E8E
:1028000002C0220F331F0A94E2F714FF0AC08FE0C0
:1028100090E002C0880F991F4A95E2F78095909545
:1028200002C080E090E0C695C695C370822B932BC2
:10283000C23049F058F4C13019F00E941D1686C00C
:102840000E94141683C00E94261680C00E94AE15F6
:102850007DC0CF70DD2339F08C2F0E94E215812FCF
:102860000E94B91273C0812F0E94C0128C2F0E9447
:10287000F2156CC0123F21F128F4103F41F0113FD6
:10288000C1F043C0133F19F1143F79F03EC0DD237E
:1028900041F0053008F056C08C2F8F710E9404164D
:1028A00051C0063008F04EC0F7CF8091790382FD09
:1028B00018C0DD2339F08C2F8F710E94E21542C0C1
:1028C000DD23C9F38C2F8F710E94F2153BC0DD23ED
:1028D00029F08C2F8F710E94D61534C00E94B51537
:1028E00031C0DD2349F0CF718C2F0E94E21563E0E7
:1028F0008C2F0E94A61A26C081E00E94C41A0230C2
:1029000008F182E00E94C41A1DC0DD2331F00023CB
:1029100091F2812F0E94951115C0002399F219336D
:1029200041F4FFEF27EE83E0F15020408040E1F7D3
:1029300004C0EFE3FCE93197F1F700C00000812FFC
:102940000E94361288EF8C0D843020F40E940729F3
:102950000E942311DD2089F00E94261A80FD0DC0FF
:10296000F70112820E94201A0E94E215C7010E94FC
:10297000DA140E94201A0E94F215CDB7DEB7E8E003
:102980000C94552E0F931F93CF93DF93EC01688126
:1029900079818A810E94E3168C010E942F160E9481
:1029A0007E15B801CE010E94C712DF91CF911F9111
:1029B0000F910895CF93DF93EC01988189812B814A
:1029C0003C81232B31F08F3F31F481E09F3F19F49C
:1029D00003C081E001C080E080FD1AC0CE010E94EA
:1029E000961081110FC00E942A1A882389F08A81CB
:1029F000882371F08091790382FF0AC082E00E94EF
:102A0000C41A06C0CE010E94C214CE010E947110E9
:102A1000DF91CF910895882321F00E94471A0E94E8
:102A2000781A0895882321F00E944D1A0E94781A7E
:102A3000089580E090E00E941F2980E090E00E94CD
:102A400044290E94541A0E94781A08958091120114
:102A5000909113010E94B1290E94191508950E94B6
:102A6000411A0E942615089592959F70963079F02C
:102A700010F4925001C09A50923068F4803F69F08F
:102A800018F4883E40F409C0843F29F406C0883E0B
:102A900020F0813F11F080E0089581E00895FC016D
:102AA0009081818123813481232B31F08F3F31F458
:102AB00081E09F3F19F403C081E001C080E080FD08
:102AC00007C0808191810E94D8160E943415089514
:102AD00080E00895A5E0B0E0E0E7F5E10C943F2E3A
:102AE0002596E2E00C945B2EA6E0B0E0EAE7F5E183
:102AF0000C943F2E2696E2E00C945B2E08950895E8
:102B00000E947F1508950E94801508950E948315E4
:102B100090930A028093090208950E9486150895F1
:102B20002091090230910A02822B932B0E94861574
:102B300008952091090230910A02822393230E9472
:102B4000861508952091090230910A028227932761
:102B50000E94861508950E947F1508950E94AB1566
:102B60009093080280930702089580E090E00E940D
:102B7000AE150895009721F481E0662371F00CC032
:102B800021E030E002C0220F331F6A95E2F72823CC
:102B9000392381E0232B09F480E00895682F809188
:102BA0000702909108020E94BA15089521E030E0D2
:102BB000A90102C0440F551F8A95E2F7CA010E947D
:102BC000AE15089521E030E002C0220F331F8A9530
:102BD000E2F78091070290910802822B932B0E94CA
:102BE000AE15089521E030E002C0220F331F8A9510
:102BF000E2F7209530958091070290910802822398
:102C000093230E94AE15089521E030E002C0220F08
:102C1000331F8A95E2F7809107029091080282277C
:102C200093270E94AE150895209107023091080263
:102C3000822B932B0E94AE150895209107023091AC
:102C40000802822393230E94AE1508952091070263
:102C500030910802822793270E94AE1508950895A7
:102C6000962F9770A1E001C0AA0F9A95EAF793E01A
:102C7000769567959A95E1F7660F771F660F771F30
:102C8000FA01E60FF71F40E050E0682F70E09081F6
:102C90009B01042E02C0369527950A94E2F7217015
:102CA000219529272A23292721934F5F5F4F4430FD
:102CB000510569F70895FB01782F777023E0969509
:102CC00087952A95E1F7880F991F880F991FE80FBC
:102CD000F91F40E050E080E0219130E0072E02C073
:102CE000369527950A94E2F721703327042E01C008
:102CF000220F0A94EAF7822B4F5F5F4F4430510551
:102D000059F70895282F973070F4873060F4862F94
:102D1000622F70E027E0929F600D711D11244BEE31
:102D200051E00E9430160895973070F4873060F4B7
:102D3000292F90E06BEE71E037E0239F800D911D0D
:102D400011240E945B16089580E00895A0E0B0E091
:102D5000ECEAF6E10C94382E7C0100910702109108
:102D600008028091090290910A02082B192BCFE0EA
:102D7000D0E0CC24C394D12CC6010C2E02C0880F05
:102D8000991F0A94E2F780239123892B21F421973C
:102D900098F7B12C07C0BC2EB7018C2F0E94D41D10
:102DA0000197A9F38B2DCDB7DEB7E9E00C94542E33
:102DB000CF93DF93EC010E94A616BE010E94D41DA2
:102DC000DF91CF9108951F93CF93DF93EB01909103
:102DD000EA01992321F0CB010E94D81613C0882361
:102DE00049F0CB010E94A616182F682FCE010E9431
:102DF000821604C0CB010E949416182FBE01812FA9
:102E00000E94D41DDF91CF911F9108951F93CF93FE
:102E1000DF93C0910B0216E080910C02C81799F065
:102E2000D0E01C9FF0011D9FF00D1124E35FFD4FCA
:102E30004081518162817381848195810E947415E2
:102E40002196C770E9CFDF91CF911F9108954091EE
:102E50003D0250913E0260913F027091400280918C
:102E60004102909142020E947415089520910B0234
:102E700090910C0256E02917A9F030E0529FF00122
:102E8000539FF00D1124E35FFD4F7181761306C04F
:102E90007081781303C07281741306C02F5F3F4F97
:102EA0002770E9CF80E0089581E008950F931F9384
:102EB000CF93DF938091420282958F7009F05AC0C0
:102EC00080913F02882309F455C080910B02109134
:102ED0000C0260913D0270913E02C0914002D0917F
:102EE000410291E06F3F09F090E0292F06E0811741
:102EF00009F440C0209721F07F3F21F030E003C06B
:102F000031E001C0322F90E030FD31C0089FF00168
:102F1000099FF00D1124DF01A35FBD4F11963C9175
:102F20001197371324C03C91361321C012963C915F
:102F3000129731111CC013964D915C9114974C1B44
:102F40005D0B443B510598F4809142028F70806183
:102F500080934202EE5EFD4F80818F70806180839E
:102F60008DE392E00E94DA140E94061703C00196D6
:102F70008770BDCFDF91CF911F910F910895A1E18F
:102F8000B0E0E5ECF7E10C94352E8C0185E0F8011A
:102F9000DE011D9601900D928A95E1F7F801E2801D
:102FA00090913D0220913E02409140025091410299
:102FB0004115510531F02F3F31F481E09F3F19F465
:102FC00003C081E001C080E080FD78C1F801C080CD
:102FD000D180838094808DE3A82E82E0B82EF0907B
:102FE0003F02B401641B750BFF2009F411C18091ED
:102FF0004202382F307F643B710508F0CBC031119D
:103000008AC0D21213C0C91211C0FE2CE1100EC02A
:103010008F708061809342020E942717C5010E9431
:10302000DA1480914202F801858362C1811491040F
:1030300039F0FFEFDF1206C081E0CF1203C003C0FA
:1030400081E001C080E080FD03C081E08E2502C0E8
:1030500080E090E080FF05C04E2D6D2D8C2D0E94EC
:1030600036178114910439F02FEFD21206C081E097
:10307000C21203C003C081E001C080E080FD03C034
:1030800081E08E2502C080E090E0682F6170B62E4E
:1030900080FF37C04E2D6D2D8C2D0E943617F82ED7
:1030A00081112FC0CD86DE868D859E850E94D81623
:1030B000292F22952F70243020F49F70223028F081
:1030C00009C02A50223088F017C0992351F081118D
:1030D00008C00EC1992329F0F8019581907F09F469
:1030E00007C1805E883040F403C1803F08F400C10E
:1030F000815F833008F4FCC0C8010E94DA14FB2C05
:10310000F7C0FE2CEE2009F4F3C0809142028160EA
:103110008093420254C0D21206C0C91204C0E1100A
:1031200002C0F80199C0C8010E944F15882361F1BF
:10313000EE2051F120914202822F82958F7090E013
:10314000029774F080913D0290913E0298878F83A0
:1031500019869B868A862C87CE0107960E94DA14F0
:1031600086E0F801ADE3B2E001900D928A95E1F7B7
:103170000E9456170E9427170AC0D21611F1C801E3
:103180000E944F1581112CC0C8010E94DA14FF243F
:10319000F394AEC03111F1CF782D998A888AA601B7
:1031A0006E2D89890E946A158DE392E00E94DA14DF
:1031B00086E0F50111928A95E9F70E942717F12C14
:1031C00097C0C912DCCFE110DACFF8018583C801BE
:1031D0000E94DA1486E0F50111928A95E9F788C019
:1031E000EE2091F220914202822F82958F7090E022
:1031F00002970CF4B5CF80913D0290913E029A83E4
:1032000089831B829D828C822E83CE010196A6CF5C
:10321000643B710508F044C0FE2CEE2009F4B4CFE5
:10322000D21230C0C9122EC02091420220FD21C00E
:10323000822F82958F70482F50E041155105C9F0BB
:10324000F80125834F30510541F08F5F982F9295FB
:10325000907F822F8F70892B8583C8010E94DA149A
:1032600086E0F801ADE3B2E001900D928A95E1F7B6
:103270003DC086E0F801ADE3B2E001900D928A9581
:10328000E1F736C0C8010E944F15811169CF8091C6
:103290004202816080934202C8010E94DA1428C071
:1032A000782D998A888AA6016E2D89890E946A15CF
:1032B00086E0F50111928A95E9F718C0EE2009F42D
:1032C00063CFC8010E944F15F82E882309F45CCF04
:1032D00086E0F801ADE3B2E001900D928A95E1F746
:1032E0008DE392E00E948F110E9456170E942717CB
:1032F0008F2D6196ECE00C94512EACE0B0E0E3E849
:10330000F9E10C943E2E4F83588769877A878B8723
:103310009C87CE0107960E94BF178823D1F09F811A
:1033200088852A853B85232B31F08F3F31F481E05E
:103330009F3F19F403C081E001C080E080FD47C0D9
:103340004F81588569857A858B859C850E94741587
:103350003EC086E0FE013796DE01119601900D9287
:103360008A95E1F7FF81E8856A857B85611571059E
:1033700031F0EF3F31F481E0FF3F19F403C081E009
:1033800001C080E080FD23C020910C0230E0C90123
:1033900001968770992740910B0250E0841795079A
:1033A000F1F1F983EA837D836C8396E0929FD001EB
:1033B000939FB00D1124A35FBD4FFE013196019084
:1033C0000D929A95E1F780930C020E94061716E081
:1033D00080910B0290910C02891771F1189FC00126
:1033E0001124835F9D4F0E94BF17882329F1E0912C
:1033F0000B021E9FF0011124E35FFD4F40815181BC
:1034000062817381848195810E94741580910B0281
:1034100090E001968770992780930B02D9CF0E9484
:103420002F1510920C0210920B02EDE3F2E086E0F1
:10343000DF011D928A95E9F72C96E3E00C945A2E51
:1034400080914302859585958595089580914302E5
:103450008770089590914302977081E009F480E0AD
:10346000089580914E02089590914E02892B809389
:103470004E020895809590914E02892380934E02CA
:10348000089510924E02089580914D0208959091F2
:103490004D02892B80934D020895809590914D02A5
:1034A000892380934D02089510924D0208958091D2
:1034B0004402089508950E945A1A08950E945B1AC2
:1034C00008959091790392FF08C090914402981753
:1034D00021F0809344020E945E1A08958091440274
:1034E000882329F01092440280E00E945E1A089519
:1034F000E0911201F091130180914E028083E091DE
:103500001201F0911301908180914D02892B8083EB
:1035100080914402882381F0E0911201F09113011F
:103520009081892B808380911201909113010E94D8
:10353000692981110E946E1A8091120190911301E4
:103540000E94142908950E945A1A089590917903AF
:1035500092FF11C098E0899F90011124262B20939F
:1035600043020E94E21580914302859585958595D9
:103570000E94A31A08950E94E21508951092430232
:1035800080E00E94A31A089520914302809582232F
:1035900080934302982F977099F430E0482F082EBB
:1035A000000C550B2417350759F09091790392FFC1
:1035B00007C08595859585950E94F2150E94BE1AD3
:1035C00008959091790392FB222720F9281769F03A
:1035D00080FB92F99093790380917803909179031D
:1035E0000E94291B82E00E94C41A089580917903E9
:1035F00082FB882780F991E089270E94E11A0895CB
:1036000081E00E94E11A089580E00E94E11A089585
:103610006FEF7FEF80E090E00E94C02E089580E081
:1036200090E00E949C2E21E0873E9E4F09F020E012
:10363000822F089582E090E00E94942E089583E006
:1036400090E00E94942E089584E090E00E949C2EC9
:103650000895BC0184E090E00E94C02E0895AB0163
:10366000BC018FE090E00E94B42E0895AB01BC0134
:1036700083E190E00E94B42E089560E070E0CB01F9
:103680000E94361B089560E070E0CB010E942F1B62
:103690000E943D1B089567EE7EEF80E090E00E945F
:1036A000C02E60E082E090E00E94A22E60E083E005
:1036B00090E00E94A22E10920A021092090260E08D
:1036C00074E184E090E00E94C02E60E086E090E02B
:1036D0000E94A22E6FEF87E090E00E94A22E40E0B1
:1036E00050E0BA0188E090E00E94B42E60E08DE0E6
:1036F00090E00E94A22E40E050E0BA0188E190E004
:103700000E94B42E60E087E190E00E94A22E40E08B
:1037100050E0BA018CE190E00E94B42E60E070E0CD
:1037200080E290E00E94C02E40E050E0BA0188E1C3
:1037300090E00E94B42E0E94431B08950E944B1BF0
:103740000895682F8EE090E00E94A22E0895A5E0D3
:10375000B0E0EDEAFBE10C943D2E0E943C2A8C0186
:1037600080914F029091500208171907A1F08FEF36
:1037700089838A831B820E943C2A8160782F9D83E3
:103780008C8349815A816B818D810E944E111093E7
:10379000500200934F022596E4E00C94592E0E94AB
:1037A000482A609360027093610280936202909352
:1037B000630260935C0270935D0280935E0290935B
:1037C0005F0208950E94482A60936002709361022C
:1037D000809362029093630260935802709359023F
:1037E00080935A0290935B02089581E0089581E0EE
:1037F00008950E94F71B089508950E94FC1B0895E8
:103800000E94FC1B08950E94001C08950E94FC1B4E
:1038100008950E94061C08950E94FC1B089588EBE1
:103820009EE10E94FD280E940C1C0E94091C089524
:103830000E94FD1B0E94FC1B08950E94D71E0E943F
:10384000221108950E94332A0E9475240E94A71F06
:103850000E941D1C80E00E9482200E94031C08958B
:103860000E94CB260E9423270895A5E0B0E0EBE359
:10387000FCE10C94362E0E94F51BB82E811104C079
:103880000E94A71BB12C52C00E94BD1F81E5E82EEB
:1038900082E0F82E670100E0F60111916F01802FA0
:1038A0000E94F51E81270F5F073019F08823A1F3CE
:1038B00002C0882329F38091640281FD0E94FB1ECF
:1038C0000E94F91B982E10E0812F0E94F51EA82E51
:1038D000F701C080C82611F100E0DD24D3948C2DBF
:1038E0008D21B1F09920A1F009831A8391E08A2DEE
:1038F0008D2109F490E09B830E943C2A8160782FFF
:103900009D838C8349815A816B818D810E944E11E8
:103910000F5FDD0C073019F7F701A0821F5FFFEF83
:10392000EF1AFF0A173081F60E94CF1B0E94301C4D
:103930000E949224182F81110E94E21B0E9458239A
:10394000B11001C011110E9423220E943511259649
:10395000EBE00C94522E1F93CF93DF930E94D91D5E
:10396000EC01C11580E5D807E8F5C11590E4D90749
:1039700008F0A8C0C03ED10530F5CD3CD10508F017
:1039800094C0C83AD10578F4C53AD10508F083C08F
:10399000C130D10509F47CC008F4F2C0C430D105AF
:1039A00008F0F1C0EDC0C33CD10508F0E9C0C85A29
:1039B000D0E0CC0FDD1FC15ADE4F0990D881C02D59
:1039C000CE019464E1C0C11580E2D80708F0CBC0F5
:1039D000C11591E0D90708F06BC0C83ED10508F4C5
:1039E000D2C0CEC0C03682E5D80728F5C03492E5F3
:1039F000D90708F079C0C03282E5D80708F06CC05A
:103A0000C11592E5D90708F481C04C2F469546951B
:103A100080E2489FA0011124C37021E030E0C90179
:103A200002C0880F991FCA95E2F7EA01C82BD92B6B
:103A3000CE019D68A9C0C03A82E5D807B8F48C2FA2
:103A40008F71C03892E5D90708F07BC086958695BE
:103A500090E2899F90011124C37081E090E002C040
:103A6000880F991FCA95E2F79A6868C0C03C82E542
:103A7000D80708F46DC0C03E92E5D90708F080C0B1
:103A8000CF71DD27DC2FCC27CE01806F906A7CC000
:103A900081E090E079C0C55AD0E0CB56DE4F8881F6
:103AA000C82FD0E0CE0190646FC0CE0190656CC08D
:103AB0008D2F0E94751E182FCE0199270E94D91DA7
:103AC0001F715CC0CE0199270E94D91DCC27DF70E1
:103AD000D06A8C2B9D2B58C0CF71D0E0DC2FCC2727
:103AE000CE01816F906A50C08C2F8F71869586951C
:103AF00090E2899F90011124C37081E090E002C0A0
:103B0000880F991FCA95E2F79C6818C08C2F8F7197
:103B10000E94751E95E0D695C7959A95E1F7CF70EE
:103B2000D0E0DC2FCC27282F30E084FF05C084E0D4
:103B3000220F331F8A95E1F7D069CE01822B932B98
:103B400023C090E0D82FCC27CE01846F906A1CC090
:103B50008C2F8F710E94751E8F7190E0D82FCC270B
:103B6000CE01906211C08D2F8F710E94751E182F8B
:103B7000CE0199270E94D91D1F719062912B04C01C
:103B800080E090E001C0CE01DF91CF911F910895B8
:103B9000773038F4673028F4462F672F0E94A30F40
:103BA000089580E090E008950E94C81D0E94AB1C1B
:103BB00008958238910569F1B0F48133910509F4D3
:103BC00075C048F48932910509F467C08A329105BD
:103BD00009F471C008958533910509F459C08933FA
:103BE0009105B9F00895833E910589F138F4803E3E
:103BF0009105D1F0823E910529F10895863E910507
:103C0000C9F1873E9105D9F1843E910509F06CC058
:103C100027C02091780320FD57C021FD55C0209179
:103C2000790323FD5BC008958091780380FD48C02F
:103C30008091790380FF48C08091780384FD46C05D
:103C400083EE51C08091780382FF3CC0F5CF809114
:103C5000780382FD37C08091790380FD35C0ECCFB9
:103C60008091790381FF36C08091780384FD2EC056
:103C700087EE39C08091780383FF2AC0F5CF809109
:103C8000780383FD25C08091790381FD23C0ECCFAB
:103C90008091780385FD22C01FC08091780385FD47
:103CA0001BC08091790383FF19C00AC080917803FB
:103CB00086FD16C017C08091780386FD13C010C022
:103CC00089E311C082EE0FC080EE0DC080E00BC012
:103CD00086EE09C084EE07C085E305C089E203C013
:103CE0008AE201C081E390E008959091780392FF09
:103CF0000DC0282F2871283019F4877F846006C0F2
:103D0000282F2471243011F48B7F886093FF0DC01D
:103D1000282F2871283119F4877E846106C0282F46
:103D20002471243111F48B7E88612091790320FF66
:103D30000DC0382F3871383019F4877F816006C084
:103D4000382F3171313011F48E7F886021FF0DC022
:103D5000282F2871283119F4877E816106C0282F09
:103D60002171213111F48E7E886194FD877E089542
:103D700080E008950E94081B08950E94BD1F2FEF48
:103D800086E791E0215080409040E1F700C00000BC
:103D90000E94BD1F80E00E94F51E80FF04C00E94AB
:103DA000BA1E0E94A52A08950E94BD1E08950E9471
:103DB0000F1B811102C00E949E1B0E941A1B809340
:103DC00064020E94241B90937903809378030E94DD
:103DD000D41E0E941F1B90E00E948D158091070247
:103DE000909108020E94AB150895E82FF0E0EF577C
:103DF000FC4F80810895089580EA8A95F1F708952F
:103E000000C008950E94FC1E089508950E94051F99
:103E100008950E94061F08950E94051F08950E949C
:103E20000C1F0895F894E82FE295EF70F0E031A1AF
:103E3000282F2F7081E090E001C0880F2A95EAF7C3
:103E4000982F9095932391A392A1892B82A3789484
:103E500008950F931F93CF93DF93CFE9D1E089911A
:103E60008F3F11F00E94121F81E0C63AD807B9F7C0
:103E7000C8E9D1E00FE911E089918F3F11F00E946C
:103E8000121F0C171D07C1F7DF91CF911F910F91E2
:103E90000895A0E0B0E0EFE4FFE10C94392E8C012E
:103EA000C62FD0E0CE0181569E4F7C01FC0190814F
:103EB0009F3F09F447C0D62EF894E92FE295EF70A2
:103EC000F0E081A19F7021E030E001C0220F9A95BF
:103ED000EAF7822B81A382A12095282322A378943C
:103EE0000E94001FE8E9F1E04FE951E031E0C12C08
:103EF00021912F3F89F0A22FA295AF70B0E090964C
:103F00008C9190E02F7002C0959587952A95E2F7E5
:103F100080FD02C0832F01C080E0C82A330F4E17F6
:103F20005F0731F7F70180818F3F11F00E94121F68
:103F300061E0C11001C060E08D2D0E94021FC00F22
:103F4000D11FC882CDB7DEB7E8E00C94552E0E9491
:103F5000291F87E0E1E8F3E0DF01982F1D929A9591
:103F6000E9F7EAE7F3E0DF011D928A95E9F787E0D8
:103F70000E94F81F0E940F1F0895A7E0B0E0E3EC35
:103F8000FFE10C943C2E8E010F5F1F4F87E0F8017C
:103F900011928A95E9F7F12C6F2DC8010E94491FF3
:103FA000F394F7E0FF12F8CF47E050E0B8018AE75A
:103FB00093E00E947E2E21E0009709F420E0892BF7
:103FC00041F087E0F801AAE7B3E001900D928A95ED
:103FD000E1F747E061E873E08AE793E00E94F91FA8
:103FE000182F0E94091F812F2796E5E00C94582E68
:103FF0000895EF92FF920F931F93CF93DF937C016D
:104000008B01C42F222349F081E0809367020E9434
:104010003C2A909366028093650280916702811129
:1040200002C080E01AC080916502909166020E94F1
:10403000542A0597B0F3D0E0AE01B701C8010E9441
:104040007E2E892B39F0AE01B701C8010E948B2E5C
:1040500081E001C080E010926702CDB7DEB7E6E0F4
:104060000C94572E0E94D52A0E94221C0E94E62AF8
:1040700008950E94D9290E94C52A0E940F1C0E94FF
:1040800032200E94F42A0E94181CFBCFEF92FF926C
:104090000F931F93CF93DF93EC017B0164E670E0F5
:1040A00088E70E940F288C01EC0EFD1ECE15DF055F
:1040B00061F017FD0AC0FE01849164E670E00E9481
:1040C00082288C012196892B89F30E94F928C80146
:1040D000CDB7DEB7E6E00C94572EE8E8F3E080E0D9
:1040E00092E0DF019C011D9221503040E1F7F093F6
:1040F0008D05E0938C058FEF9FEF90939402809352
:10410000930208950E94470E0E94FF0E80938F0233
:1041100080FD02C080E801C080E280938E020E9490
:1041200009286DE070E084E393E10E944620892B2A
:1041300011F080E0089580918F0263E070E081FDCE
:1041400003C081E393E102C08EE293E10E94462026
:10415000892B79F76DE070E081E293E10E944620BF
:10416000892B39F70E94482ADC01CB01805A9541FE
:10417000AF4FBF4F8093880590938905A0938A0520
:10418000B0938B050E946D2081E080939202809312
:10419000910210929002089520918E0236E0839F42
:1041A000C0011124629F800D911D1124811522E010
:1041B000920714F080E090E088579C4F90938D0513
:1041C00080938C05089520918C0530918D0522589F
:1041D000334040918E02642F70E0C9010E94AD2DE2
:1041E000481B463010F4240F311D211582E038079A
:1041F00010F020E030E028573C4F30938D0520939D
:104200008C0508951F93CF93DF93162F8A3011F4F6
:1042100081E003C08D3021F480E00E947A2166C0E5
:10422000C0918C05D0918D0596E0FE01A8E6B2E024
:1042300001900D929A95E1F7803E30F086E0FE0104
:1042400011928A95E9F70BC0F6E08F9FB001112417
:104250006F5B7C4E46E050E0CE010E94752E11113E
:1042600035C0C0918C05D0918D0546E050E0BE016F
:1042700088E692E00E947E2E892BB1F1C858D34087
:104280009E0185E0369527958A95E1F781E090E0DB
:10429000AC0102C0440F551F2A95E2F7209193020A
:1042A00030919402242B352B259645E0D695C79561
:1042B0004A95E1F702C0880F991FCA95E2F7822B51
:1042C000932B90939402809393020EC0E0918C05FF
:1042D000F0918D059F012A5F3F4F2E173F0709F28E
:1042E000808180958193F9CF0E94E320DF91CF9167
:1042F0001F910895CF93E82F20918C0530918D0563
:104300002858334040918E02642F70E0C9010E940A
:10431000AD2D481B842FEE2359F066E00E94A12D9D
:10432000C82FC150B0F060E080E20E940221F9CFB6
:10433000A901480F511D4115524018F080E020E0BE
:1043400030E0280F311D28573C4F30938D052093C6
:104350008C05CF910895FF920F931F93CF93DF9316
:10436000EC01F62EFC0101900020E9F78F010150CD
:104370001109C017D10728F46F2D89910E940221DD
:10438000F8CFCDB7DEB7E5E00C94582E1F93CF934E
:10439000DF93EC01162FFE018491882329F0612F11
:1043A0000E9402212196F7CFDF91CF911F910895AE
:1043B000EF92FF920F931F93CF93DF9320918C0581
:1043C00030918D0528583340A901460F571F4130C1
:1043D000524020F060E072E0621B730BC0919302C8
:1043E000D0919402D901A857BC4FA901620F731F45
:1043F00001E010E046175707E8F4FA01E21BF30B5F
:10440000E80FF91FE491FC91EF1781F0EC93FA01AA
:10441000689414F8F695E7951694E1F7780102C0D0
:10442000EE0CFF1CEA95E2F7CE29DF294F5F5F4FC4
:104430001196E0CFD0939402C0939302CDB7DEB72C
:10444000E6E00C94572E809192028823F9F00E94A6
:10445000482ADC01CB01805A9541AF4FBF4F809372
:10446000880590938905A0938A05B0938B05809168
:10447000910281110BC062E070E08FE193E10E9434
:104480004620892B19F481E080939102809191025A
:104490000895A0E0B0E0EFE4F2E20C94312E8091B8
:1044A000930290919402892B09F4E3C080919202C7
:1044B000882309F4DEC0809190028111DAC00E9445
:1044C000232220919302309194022115310509F4A1
:1044D000D0C080E041E050E0082F10E02A01082E13
:1044E00002C0440C551C0A94E2F7B2016223732304
:1044F000672B11F48F5FF0CF90918F02980165E0E8
:10450000220F331F6A95E1F790FF13C055E03695EF
:1045100027955A95E1F7220F220F220F20931601BB
:1045200010921901295F2093170183E080931A01EB
:1045300011C08295880F807680931601220F232F59
:10454000221F330B319520931901815E809317014F
:1045500010921A0124E630E047E050E064E171E097
:1045600088E70E94B128892B09F083C080918F02CF
:1045700080FF60C080E2EEE6F2E0DF011D928A95E6
:10458000E9F7680135E0CC0CDD1C3A95E1F7AAEAC1
:10459000B1E046EA51E00EEA11E0772473948D9180
:1045A000EA019991AE01B601690F711D68577C4F00
:1045B00090E082599D4FFC0127E0A22E9F01281B0D
:1045C000390B872C01C0880C2A95EAF77B01912CC6
:1045D000E701B9907E01B8202A2D29192770622E93
:1045E000022E000C330BDB2D01C0DD0F6A94EAF7BD
:1045F0006D2E3195219531092770332701C0B6946E
:104600002A95EAF7BD2A2081B22AB082939428E045
:104610009212DECFAA943196CFEFAC12CFCF0A1709
:104620001B0709F0BCCF04E610E020E230E04EE6C4
:1046300052E00CC0A80185E0440F551F8A95E1F7B0
:1046400048575C4F04E610E020E230E060E488E781
:104650000E94D228892B69F4E201C095D0958091FF
:10466000930290919402C823D923D0939402C093CB
:104670009302CDB7DEB7E0E10C944D2E809192020B
:1046800090919102882389F0992369F062E070E0AB
:104690008DE193E10E944620892B19F080919102CF
:1046A0000895109291029091910281E089270895D6
:1046B0000F931F9380919202882319F160E080E0AC
:1046C0000E94CC200E94490E0E94492280919102B2
:1046D0008823B9F00E94482A009188051091890525
:1046E00020918A0530918B05DC01CB01801B910B59
:1046F000A20BB30B8F3F9F4FAF4FBF4710F40E94E9
:104700003E231F910F910895CF93DF93FC01DB01AE
:1047100012968C91882309F4DDC09F013057233213
:10472000310508F0D8C0EF010E94241B9093790353
:1047300080937803FE01E150F047E232F10520F466
:10474000E05CFF4F0C94162E809178038160AAC024
:10475000809179038860B2C0809178038260A2C0A2
:104760008091780320C08091780388609BC08091FD
:1047700079031EC0809179038260A0C08091780384
:10478000806190C08091780380628CC080917803B2
:10479000806488C00E942F1580917803806882C051
:1047A00080917803886084607DC080917903826005
:1047B000816084C0809178038E7F74C0809179037A
:1047C000877F7CC0809178038D7F6CC08091780357
:1047D00020C080917803877F65C0809179031EC0D7
:1047E000809179038D7F6AC0809178038F7E5AC053
:1047F000809178038F7D56C0809178038F7B52C063
:104800000E942F15809178038F774CC08091780398
:10481000877F8B7F47C0809179038D7F8E7F4EC0CD
:104820008091780382FB222720F991E0922790FB68
:1048300082F990FB83F936C080917903982F909587
:1048400091708E7F892B90FB81F938C0809178031D
:1048500086FB222720F991E0922790FB86F922C05F
:104860000E942F158091780387FB222720F991E081
:10487000922790FB87F916C081E001C080E00E947A
:10488000A11B1EC08091780384FB222720F991E0B0
:10489000922790FB84F906C080917803982F909519
:1048A00090FB80F9809378030BC08091790383FBA0
:1048B000222720F991E0922790FB83F980937903D6
:1048C00080917803909179030E94291B0E942F15F3
:1048D00080E001C081E0DF91CF9108958FE891E001
:1048E0000197F1F700C00000089581E080939602DF
:1048F00024982C9A25982D9A0E946E243091960225
:10490000E8E9F2E090E0931761F083B1829581705D
:104910001D9902C020E001C022E0822B81939F5F9D
:10492000F2CF0895A0E0B0E0E8E9F4E20C94392E6B
:10493000F12CE12C84E0C82ED12C80919602F8163F
:1049400008F050C00F2D10E0E3B1E295E1701D9921
:1049500002C080E001C082E08E2BD801A856BD4F76
:10496000EC912E2F237030E0482F082E000C550BB1
:1049700024173507A9F1EE0FEE0FE82BEC93EF703B
:10498000F0E0E255FE4FE801C956DD4F9081888185
:10499000890F8883843064F0F801EB56FD4F8081E5
:1049A0008F5F808360E08F2D0E942F0E21E001C079
:1049B00020E088818D3F5CF4F801EB56FD4F80814B
:1049C0008150808361E08F2D0E942F0E21E088812D
:1049D000082E000C990BB6010E94C12D8883E22A93
:1049E000F394ABCF8E2DCDB7DEB7E8E00C94552E07
:1049F000CF93DF9386319C4741F5EB010E94311A3A
:104A0000982F8A812091120130911301882379F027
:104A10009A7A81E009F480E080939902911102C0B2
:104A200069E201C065E3C9010E94AB290AC0809117
:104A30009902811102C069E201C065E3C9010E94C7
:104A4000AE290E94781A80E001C081E0DF91CF9109
:104A500008950F931F93CF93DF93C42FD22FFC01A0
:104A600082818823B1F040939C020E943C2A90935B
:104A70009B0280939A0280E28C0F883008F04DC030
:104A8000C77081E001C0880FCA95EAF70E94B91289
:104A900044C080919C02481330C080919A0290914A
:104AA0009B020E94542A843B910538F510E21D0FA9
:104AB000CD17B9F080E28C0F883040F4C77081E0E8
:104AC00001C0880FCA95EAF70E94C012183010F58D
:104AD00081E09D2F977001C0880F9A95EAF70E9498
:104AE000B912802F0E94AF121830B8F4D77081E04D
:104AF00001C0880FDA95EAF70AC080E28C0F88308F
:104B000060F4C77081E001C0880FCA95EAF70E947F
:104B1000C01203C0802F0E94AF12DF91CF911F916E
:104B20000F9108950F93FC01E851FC47E730F10520
:104B300090F5CB01EE59FF4F0C94162E06E221EEB4
:104B400041EE6AE17CE723C007E225EE45EE6BE12A
:104B50007CE71DC006E221EE40EE68E17CE717C06D
:104B600007E225EE44EE69E17CE711C006E221EEA2
:104B700042EE6CE17CE70BC007E225EE46EE6DE10C
:104B80007CE705C008E221E045EE6EE17CE70E948B
:104B9000292580E008C0FB018281882319F010924A
:104BA0009C0201C081E00F910895CF93DF93EC0147
:104BB000EA85FB85309719F06C857D8509958B8199
:104BC0000E944D1A8C810E943A1A0E94781A86E03F
:104BD000FE0111928A95E9F7DF91CF910895CF9365
:104BE000DF93EC018D8181FD12C082608D838B810A
:104BF0000E94471A8C810E94341A0E94781AE88514
:104C0000F985309721F06C857D85CE01099510924C
:104C1000A00210929F028D8180FD03C0CE010E94F0
:104C2000D525DF91CF910895CF93DF93FC012281A9
:104C3000223049F4FB01EC01828193810E94DD0F57
:104C40008D8182608D83DF91CF910895FB018081FA
:104C500091810E94DD0F0895FC018281813051F421
:104C60008FE39CE90197F1F700C00000FB01808110
:104C7000918105C0823029F4FB01828193810E94D9
:104C8000F40F0895CF93FB01C281CC2301F1209151
:104C90009F023091A00221153105C1F02817390774
:104CA000A9F0AC01FEE02F9FC0011124FC01EB5FD5
:104CB000FE4F20812460208380509F4FFC01518350
:104CC00040830E94EF250E94541A01C0C0E08C2F3F
:104CD000CF910895EF92FF920F931F93CF93DF939D
:104CE0009C0137552F3F310511F008F04EC0DB0114
:104CF0008C017C01FF248EE0089FF0011124EF015C
:104D0000C050DF4F12969C911297EB5FFE4F80814F
:104D100090FB80F9808312969C91992389F10E94DF
:104D20003C2A90939E0280939D028A818F5F8A83A2
:104D30000E94311A8B830E94441A9B81892B8B839A
:104D40000E94571A8C83EE81FF81309721F06C8589
:104D50007D85CE0109958EE08E9DF0018F9DF00D31
:104D60001124EB5FFE4F808181FD03C0902F812FC6
:104D700002C090E080E090939F028093A00205C063
:104D800081FF03C0CE010E94D52581E0CDB7DEB7FB
:104D9000E6E00C94572E80919F029091A002892BFF
:104DA000C9F080919D0290919E020E94542A853BF9
:104DB000910580F080919F022EE0829FC001112416
:104DC000FC01EB5FFE4F208122FD04C080509F4F0D
:104DD0000E94EF2508958091DE0208959C013A9586
:104DE00021153F4410F4992706C08F3F910519F013
:104DF00010F080E090E09C0124503109243231050C
:104E000040F02752310981E02E30310518F080E062
:104E1000089581E008950E94EE2608950E940B27D0
:104E2000882381F0E091A702F0E0EE0FFF1FE85524
:104E3000FD4F808191818F3F2FE7920719F00196F6
:104E40009183808308954F925F926F927F928F92A9
:104E50009F92AF92BF92CF92DF92EF92FF92CF9349
:104E6000C090A802D090A9020D2C000CEE08FF08FB
:104E700080911B0190E0EAEAF2E021E030E0821745
:104E800093076CF041915191052E000C660B770B46
:104E9000C40ED51EE61EF71E2F5F3F4FF0CFF7FE64
:104EA00003C0C12CD12C76016091DA027091DB0233
:104EB0008091DC029091DD020E94632A2B013C016B
:104EC000C0911B01A0E6BAEEA70196010E941C2E1C
:104ED0004B015C0188ECC89F90011124C901330F7C
:104EE000AA0BBB0B9C01AD01240D351D461D571DA2
:104EF000A5E0B0E00E941C2E9B01AC01C501B401ED
:104F00000E94D52D49015A0157FD0BC0213F3105A3
:104F1000410551054CF030EF832E912CA12CB12C82
:104F200003C0812C912C540189EC48165104610472
:104F3000710414F18091A70290E0019669E170E09C
:104F40000E94C12D8093A702880F991FFC01E8558C
:104F5000FD4F11821082C83110F4CF5F01C0C8E14B
:104F6000C0931B010E94482A6093DA027093DB020F
:104F70008093DC029093DD0282E0C816D104E10444
:104F8000F1041CF4812C912C54016091A3027091C6
:104F9000A4028091A5029091A6020E94632A6B014F
:104FA0007C0185E6C816D104E104F10484F00E9476
:104FB000482A6093A3027093A4028093A502909361
:104FC000A6028091DE028093A2028092A102C0918B
:104FD000A202A091A102B0E0AC1BB109A701960109
:104FE0000E94272E24E630E040E050E00E94F72D9A
:104FF0002C0F2093DE02CF91FF90EF90DF90CF90A7
:10500000BF90AF909F908F907F906F905F904F90E8
:1050100008951092B9008CE08093B8000895A0E044
:10502000B0E0E5E1F8E20C94362EB82EEB010E94D8
:105030003C2A6C01C431D10558F0CF3F8FEFD8071F
:1050400059F0CE0164E170E00E94AD2D7B0107C0F4
:10505000EE24E394F12C03C025E0E22EF12C84E849
:10506000A82E94EA992E1092BC009092BC000E9447
:105070003C2A8C018091BC0087FD07C0C8010E94BA
:10508000542AE816F906B0F729C08091B900887F44
:10509000883041F08091B900887F803119F00FEF9E
:1050A0001FEF1EC0B092BB00A092BC000E943C2A21
:1050B0008C018091BC0087FD07C0C8010E94542A62
:1050C000E816F906B0F70AC08091B900887F8831E8
:1050D00011F0803421F700E010E00EC00EEF1FEF5A
:1050E000CF3F8FEFD80709F4BECFC6010E94542AE4
:1050F000C817D90708F0B7CFC801CDB7DEB7EBE0C6
:105100000C94522E0F931F93CF93DF93EB01809358
:10511000BB0084E88093BC000E943C2A8C018091F3
:10512000BC0087FD0DC0CF3F8FEFD807C1F3C8018A
:105130000E94542AC817D90790F78EEF9FEF0CC032
:105140002091B900287F81E090E0283211F480E0BE
:1051500090E0919581959109DF91CF911F910F91E9
:105160000895A0E0B0E0E7EBF8E20C94392E6B0173
:105170008A017901B9010E940F28E6010C0D1D1D5D
:10518000C017D10741F424E92093BC00CDB7DEB7A6
:10519000E8E00C94552E97FDF6CFB70189910E9457
:1051A0008228EECFA0E0B0E0E8EDF8E20C94392ED2
:1051B000C62F6A017901B8010E940F2897FD11C01E
:1051C000B8018C2F0E948228E601EC0CFD1CCE1544
:1051D000DF0539F097FD05C0B80189910E9482284A
:1051E000F6CF24E92093BC00CDB7DEB7E8E00C94FD
:1051F000552E84E98093BC0008959093BF0180935D
:10520000BE0108959093E4028093E3020895E09133
:10521000E302F091E402309729F00190F081E02D53
:105220000995089580E00895E091E302F091E40289
:10523000309721F00280F381E02D09950895A3E0D5
:10524000B0E0E5E2F9E20C943F2E2091E1023091CA
:10525000E20228173907A1F09093E2028093E1025D
:10526000E091E302F091E402309751F023E02983CA
:105270009B838A830680F781E02DCE0101960995F4
:105280002396E2E00C945B2EA3E0B0E0EAE4F9E2BE
:105290000C943F2E2091DF023091E002281739074D
:1052A000A1F09093E0028093DF02E091E302F0919D
:1052B000E402309751F024E029839B838A8306809F
:1052C000F781E02DCE01019609952396E2E00C943A
:1052D0005B2EFC01329697E080E0915029F02191FD
:1052E0002223D9F38F5FF9CF0895662349F0FC019B
:1052F000329608962191621729F0E817F907D1F73D
:1053000080E0089581E008959C01FC0132969FEFB2
:1053100080E04191461789F09F3F19F4411101C087
:10532000982F8F5F8630A9F79F3F39F0F901E90F79
:10533000F11D97FDFA956283089508959C012A5FF7
:105340003F4FFC014281461301C012820196821731
:105350009307B9F708950E94842908950E949E2911
:105360000895029626E0FC0111922A95E9F7089526
:1053700008950E94850F08950E94B82908950E94FB
:10538000B82908950E94B8290895CF930E94BF2993
:105390000E94BD1F0E94BC29C0E08C2F0E94F51EF8
:1053A000811104C0CF5FC730C1F701C081E0CF9148
:1053B000089508951F920F920FB60F9211248F93A4
:1053C0009F93AF93BF938091E502811113C08091A9
:1053D0008E0590918F05A0919005B0919105419611
:1053E000A11DB11D80938E0590938F05A09390050C
:1053F000B0939105BF91AF919F918F910F900FBE88
:105400000F901F9018958091E802882331F10E9437
:1054100003111092E50220E488E190E00FB6F894C1
:10542000A895809360000FBE2093600083B7817FB2
:10543000846083BF83B7816083BF7894889583B786
:105440008E7F83BF0FB6F894A89580916000886125
:1054500080936000109260000FBE08950E942F1587
:105460000E940A11089582E084BD93E095BD9AEFF1
:1054700097BD80936E0008952FB7F89480918E05A4
:1054800090918F05A0919005B09191052FBF08953F
:105490002FB7F89460918E0570918F0580919005DB
:1054A000909191052FBF08959C014FB7F89480917A
:1054B0008E0590918F05A0919005B09191054FBFF9
:1054C000821B930B0895CF92DF92EF92FF922FB73A
:1054D000F894C0908E05D0908F05E0909005F090E4
:1054E00091052FBFA7019601261B370B480B590BBF
:1054F000CA01B901FF90EF90DF90CF9008957894A2
:105500001F920F920FB60F9211248F939F93AF9318
:10551000BF9380918E0590918F05A0919005B091D9
:1055200091050196A11DB11D80938E0590938F0565
:10553000A0939005B0939105BF91AF919F918F91EA
:105540000F900FBE0F901F90189598E088E10FB64E
:10555000F894A895809360000FBE90936000A89582
:10556000F894D8E0CEEF28E3299320E0299314BEE5
:10557000FFCF089598E088E10FB6F894A89580933E
:1055800060000FBE90936000FFCF0E943C2A909372
:10559000E7028093E60290E080E80FB6F8948093EB
:1055A0006100909361000FBE08950E94862D539A6A
:1055B00080E0815041F0A895EFE9FFE03197F1F7E5
:1055C00000C00000F6CF5398789408950E94B12B44
:1055D0000E9402292FEF80E792E021508040904006
:1055E000E1F700C0000008958091B905882389F093
:1055F0001092B9050E943C2A9093E7028093E6023C
:105600008091E8028823D1F11092E8020E942E2AAC
:1056100011C08091E802811111C08091E602909141
:10562000E7020E94542A069728F081E08093E8025E
:105630000E94032A8091E802882301F10E94032A34
:105640000E94C529882339F1F8942AB15B9A822FE8
:105650008C608AB99BB18CE098279BB93FE748E3FF
:1056600091E0315040409040E1F700C000009BB114
:1056700089278BB92AB95B98789408950E948F2C5A
:105680008091BF05882329F080919D0584FD0E94AB
:10569000351C0E94582B089580917703089520911E
:1056A000D60524FF03C063E00E948A2C0895089564
:1056B000CF93DF93CAE0D0E080919D0584FF18C0AE
:1056C0008091F4029091F5029817E1F028E0829F12
:1056D000C001112468E08A509D4F0E94852C809162
:1056E000F40290E001968F7099278093F4020AC02B
:1056F0000E948F2C8FE99FE00197F1F700C0000016
:105700002197D1F6DF91CF910895CF93DF93EC01EC
:10571000A091F502B0E0CD0101968F7099272091FC
:10572000F402281779F093E0AA0FBB1F9A95E1F7CE
:10573000AA50BD4F98E0FE0101900D929A95E1F7B5
:105740008093F5020E948F2C0E94582B88E0FE0166
:10575000ACEEB2E001900D928A95E1F7DF91CF9126
:1057600008958CE191E00895FC018081807680327B
:10577000A1F58181813061F484819581892B69F55E
:105780008CEE92E09093BB058093BA0588E0089573
:10579000823041F486E793E09093BB058093BA058D
:1057A00081E008958A3021F483818093760315C0C7
:1057B000893099F4828193818115924081F48481AA
:1057C0009581892B61F481E08093EB02868197813A
:1057D0009093EA028093E90202C080E008958FEF7F
:1057E00008952091E9023091EA02232B71F0209173
:1057F000EB02213051F4FC018081809377031092F9
:10580000EA021092E90281E008958FEF0895089569
:10581000FC0193819330B1F068F4913081F09230C3
:1058200009F04FC081E898E19093BB058093BA05D9
:105830008BE308959132F9F0923269F142C08CEB1A
:1058400098E113C08281813071F028F08230C9F56F
:105850008EEC98E10AC086EF98E19093BB058093A7
:10586000BA0584E0089582EE98E19093BB05809399
:10587000BA0582E108958281882329F0813009F5F3
:105880008CEA98E102C083E998E19093BB0580938C
:10589000BA0589E0089584819581009751F00197B8
:1058A00081F48AEF98E19093BB058093BA0582E377
:1058B00008958CE299E19093BB058093BA0580E44A
:1058C000089580E008951F93CF93DF93162FEA0188
:1058D000288124FF05C0398128E82327298302C0B5
:1058E0002AE52883212FFC01CE010296DC013191AB
:1058F0003D9321501216DCF3612F0E94EA0C1C5FCD
:105900001883DF91CF911F9108954DE955E00E94D2
:10591000632C089546ED55E00E94632C0895CF93C3
:10592000DF936091BC05635067FD93C08091B8051B
:10593000CCE0D0E0C81BD109C054DA4F8091B70544
:10594000803120F4CE010E94072C81C08D3209F0F5
:105950006EC0683009F07BC083EC809392058AE5C5
:10596000809325011092B6058881807621F0CE01C2
:105970000E94B42B49C09A8110929B0589818111A4
:1059800006C010929C052BE935E082E038C08530D6
:1059900019F49093BD0530C08630A1F48B8181301D
:1059A00041F0823031F0833021F0813211F08232C7
:1059B00021F4CE010E94082C01C080E090E4909375
:1059C000B60522C0883089F0893019F49093BF055C
:1059D00013C08A3069F08B3079F48BE480939E0594
:1059E0008093D7058093AA0507C02FEB35E002C04E
:1059F0002BE935E081E003C02BE935E080E030930E
:105A0000BB052093BA0509C08F3F39F4988197FDF3
:105A10008E8190E89093B60507C09F81911104C0D4
:105A20009E81981708F4892F8093240110C08091DB
:105A3000B60587FF0CC0CE010E94F12B8F3F21F4E9
:105A40008EE18093250103C08111109224011092F0
:105A5000BC058091250184FF4CC0809124018F3FBB
:105A600009F447C0C82F893008F0C8E08C1B809328
:105A700024019091920588E8892780939205CC2390
:105A800059F18091BA059091BB052091B60526FF8A
:105A900012C0A2E9B5E02C2FAC0142595540FA01E1
:105AA000EA0FFB1FE4911196EC9311972150119688
:105AB0002111F5CF08C0E3E9F5E0DC012C2F3D9181
:105AC00031932150E1F701962FEF2C0F820F911D9A
:105AD0009093BB058093BA056C2F83E995E00E94F3
