:100000000C9428060C9445060C9445060C94450661
:100010000C94A9310C9445060C9445060C944506A5
:100020000C9445060C9445060C94611F0C94A31E79
:100030000C94CD270C9445060C9445060C9445066B
:100040000C9445060C9445060C9445060C94450604
:100050000C9445060C9464270C9445060C944506B4
:100060000C9445060C9445060C9445060C944506E4
:100070000C9445060C9445060C9445060C944506D4
:100080000C9445060C9445060C9445060C944506C4
:100090000C9445060C9445060C9445060C944506B4
:1000A0000C9445060C9445060C9445064E0C510CD8
:1000B0006F0C7C0C830C8E0C910CC50CE70C8C0D1A
:1000C0008C0DF20CF40CF80C1E0D410D440D470D77
:1000D0006B0D9C129C12CF12CF1243136113741438
:1000E00074146C13E013F113F113BB1CE21C8B1E90
:1000F000E21C8B1E2E1D511D8B1E461E561E00100F
:10010000B4FFFFFF00000000040355FFFF0C035580
:10011000FFFFFF00000000040355FFFF0C0355FF25
:10012000FFFF0000000000DA0281FFD9F1DB20A40C
:10013000A62EAF00A0C000A1C800AED580A81FD3D6
:1001400000408D14200017010801FE0000006432F9
:1001500014783C1E208E8F9000CACBCCCD00AAAB69
:10016000ACADAE008A8B8C8D002020202000534344
:100170005220002020202000434150200020202039
:1001800020004E554D200000556E646566005253A8
:100190003300464E203200464E20310042617365E6
:1001A000004C617965720000000000000000000052
:1001B000000000000000000000000000000000003F
:1001C00000000000000000000000007E0F00D4FFCF
:1001D000FFFFC70000007800000000000000002AB8
:1001E0002B280000000000000000000000000000BC
:1001F000000029000000002C1E3420212224342677
:1002000027252E362D3738271E1F2021222324256F
:10021000263333362E37381F0405060708090A0B24
:100220000C0D0E0F101112131415161718191A1B96
:100230001C1D2F3130232D350405060708090A0B34
:100240000C0D0E0F101112131415161718191A1B76
:100250001C1D2F3130354C05010902A10185020911
:1002600001A1000509190129081500250195087546
:100270000181020501093009311581257F9502753B
:1002800008810609381581257F95017508810605C5
:100290000C0A38021581257F950175088106C0C0BA
:1002A00005010980A101850319012AB7001501265E
:1002B000B700950175108100C0050C0901A10185E9
:1002C0000419012AA002150126A0029501751081CA
:1002D00000C00660FF0961A1010962150026FF0048
:1002E0009520750881020963150026FF0095207589
:1002F000089102C005010906A101050719E029E7D7
:100300001500250195087501810295017508810187
:100310000507190029FF150026FF009506750881BD
:1003200000050819012905950575019102950175CA
:10033000039101C009025B00030100A0FA09040057
:100340000001030101000921110100012240000701
:1003500005810308000109040100020300000009EF
:10036000211101000122220007058203200001075C
:100370000503032000010904020001030000000935
:100380002111010001227B000705840320000112D6
:1003900001000200000008776D0B17030101020045
:1003A0000110034D006F006B0075006C007500615B
:1003B00000000012034D00650063006800570069EB
:1003C000006C006400000004030904000000000049
:1003D000003E5B4F5B3E003E6B4F6B3E001C3E7C25
:1003E0003E1C00183C7E3C18001C577D571C001C0E
:1003F0005E7F5E1C0000183C180000FFE7C3E7FFAB
:1004000000001824180000FFE7DBE7FF0030483A3F
:10041000060E00262979292600407F0505070040A1
:100420007F05253F005A3CE73C5A007F3E1C1C08D4
:1004300000081C1C3E7F0014227F2214005F5F0016
:100440005F5F0006097F017F00006689956A006092
:10045000606060600094A2FFA2940008047E04081B
:100460000010207E20100008082A1C0800081C2A02
:100470000808001E10101010000C1E0C1E0C00307E
:10048000383E383000060E3E0E0600000000000028
:100490000000005F000000000700070000147F1448
:1004A0007F1400242A7F2A12002313086462003676
:1004B0004956205000000807030000001C2241009C
:1004C000000041221C00002A1C7F1C2A0008083E54
:1004D00008080000807030000008080808080000C4
:1004E00000606000002010080402003E5149453EB3
:1004F0000000427F400000724949494600214149BD
:100500004D33001814127F10002745454539003C33
:100510004A49493100412111090700364949493604
:1005200000464949291E0000001400000000403424
:1005300000000000081422410014141414140000D8
:1005400041221408000201590906003E415D594E3E
:10055000007C1211127C007F49494936003E41411E
:100560004122007F4141413E007F49494941007F8E
:1005700009090901003E41415173007F0808087FC5
:100580000000417F4100002040413F01007F0814EE
:100590002241007F40404040007F021C027F007FDC
:1005A0000408107F003E4141413E007F09090906D1
:1005B000003E4151215E007F091929460026494924
:1005C00049320003017F0103003F4040403F001FCC
:1005D0002040201F003F4038403F00631408146350
:1005E000000304780403006159494D4300007F4132
:1005F000414100020408102000004141417F0004F5
:10060000020102040040404040400000030708008F
:10061000002054547840007F284444380038444433
:10062000442800384444287E0038545454180000AC
:10063000087E0902001824241C78007F080404782E
:100640000000447D4000002040403D00007F102815
:1006500044000000417F4000007C04780478007C66
:1006600008040478003844444438007C18242418D2
:1006700000182424187C007C080404080048545402
:1006800054240004043F4424003C4040207C001CCF
:100690002040201C003C4030403C004428102844AE
:1006A000004C9090907C004464544C440000083608
:1006B0004100000000770000000041360800000201
:1006C00001020402003C2623263C00000000E0FE5C
:1006D000FFFEF8C00000000000E0FCFFFEF0C000DC
:1006E00000000000000000013EE080700E010000EC
:1006F0000000073CE08078070000000000000000D8
:1007000000000000000000000000E0FEFFFEF8C056
:100710000000000000E0FCFFFEF00000000000010F
:100720003EE080700E0100000000073CE08078078A
:1007300000000000000000000000000000000000B9
:1007400000000000000000000000000000000000A9
:100750000000000000000000000000000000000099
:100760000000000000000000000000000000000089
:100770000000000000000000000000000000000079
:1007800000000000000000000000000000F8FFFF73
:100790001F071FFFFEF0C0F8FFF707077FFFFFF8F6
:1007A00000C0380C186080000000F00C04F41C003D
:1007B000000000000080C0FCE6C3C1C1C3E6FCC06D
:1007C000800000000000000000F8FFF707071FFF8F
:1007D000FEF0C0F83F8F0F3FFFFFFE80F00C04F4E7
:1007E0001C000000000000000000000000000000ED
:1007F00000000000000000000000000000000000F9
:1008000000000000000000000000000000000000E8
:1008100000000000000000000000000000000000D8
:1008200000000000000000000000000000000000C8
:1008300000000000000000000000000000000000B8
:100840000000000000000000000000001F1F1F0744
:1008500000000000031F1F0F010306F800077F3F81
:100860000EC138070E70831C601E03C03E010000DD
:1008700000000000003F7FFFFFF9C0C0F9FFFF7FCD
:100880003F000000000000001F1F1F0706F80000C7
:10089000733F0FC138070F7083077F1F03C03E01EE
:1008A0000000000000000000000000000000000048
:1008B0000000000000000000000000000000000038
:1008C0000000000000000000000000000000000028
:1008D0000000000000000000000000000000000018
:1008E0000000000000000000000000000000000008
:1008F00000000000000000000000000000000000F8
:10090000000000000000000000000000AF00AE1674
:100910005C1E001F002000210022002B0014001A82
:100920000008001500170001510400160007000917
:10093000000A00E10001001D001B0006001900E094
:1009400000E300E20002512C412C42C45C0500038C
:10095000530B001C00230024002500260027000163
:10096000002A001C0018000C001200130031000BBC
:10097000000D000E000F003400280011001000369A
:100980000037005200E5002C422C4102515000512A
:10099000004F002D0033000500A800C35C00004597
:1009A000003A003B003C003D003E00010001000118
:1009B000000100010001000100010001000100012F
:1009C000000100010001000100010001000100011F
:1009D000000100010001000100010001000100010F
:1009E00000010001003F00400041004200430001BF
:1009F000004C000100010001002F00300001000147
:100A000000010001000100330001000100010001AC
:100A10000038004B0001000100010001004A004EB7
:100A2000004D000100010001000100010000000173
:100A30000044004500010001000100010001000127
:100A4000000100005C010001000100010001000143
:100A5000000100010001000100010001000100018E
:100A6000000100010001000100010001000100017E
:100A7000000100010001000100010001000100016E
:100A8000000100010001000100010001000100015E
:100A9000000100010001000100010001000100014E
:100AA000000100010001000100010001000100013E
:100AB00000010001000100010001000100000055DB
:100AC00000010001000100010001005400010001CB
:100AD00000010001000100570001000100010001B8
:100AE0000001005600010001000100010001004A60
:100AF000004D004B000E000F0010004E00010003DF
:100B0000530100010001000100010001000100018A
:100B100000010001000100010001000100010001CD
:100B200000010001000100010001000100010001BD
:100B3000000100010001003A003B003C00010001FF
:100B4000000100010001000100010001000000009F
:100B5000010101010101010101020202020202027E
:100B60000202030303030303030304040404040451
:100B70000405050505050606060606070707070717
:100B800008080808090909090A0A0A0B0B0B0C0CCA
:100B90000C0D0D0D0E0E0E0F0F0F10101111111266
:100BA0001213131414151516161717181819191AE5
:100BB0001A1B1B1C1D1D1E1E1F2020212222232448
:100BC00024252626272829292A2B2C2D2D2E2F3087
:100BD000313232333435363738393A3B3C3D3E3F9B
:100BE000404142434445464748494A4C4D4E4F5088
:100BF000515354555658595A5B5D5E5F6162646546
:100C00006668696B6C6D6F7072737577787A7B7DCF
:100C10007E8082838587888A8C8E8F919395969823
:100C20009A9C9EA0A2A3A5A7A9ABADAFB1B3B5B73F
:100C3000BABCBEC0C2C4C6C9CBCDCFD1D4D6D8DB16
:100C4000DDDFE2E4E7E9EBEEF0F3F5F8FAFDFF00B3
:100C500011241FBECFEFDAE0DEBFCDBF11E0A0E070
:100C6000B1E0E0E7F7E602C005900D92A43EB107BF
:100C7000D9F725E0A4EEB1E001C01D92AD38B2076E
:100C8000E1F70E9447060C94B6330C940000AEE2E4
:100C9000B0E0EDE4F6E00C94DE3285B7806885BF05
:100CA00085B7806885BF84B7877F84BF0FB6F89407
:100CB000A895809160008861809360001092600028
:100CC0000FBE90E080E80FB6F89480936100909397
:100CD00061000FBE85E990E29093E5018093E40105
:100CE0000E94E71E0E94061F8091E20084608093AC
:100CF000E20078948091BA028823A1F01091E90073
:100D00001F709091EC00892F817090FD80E8182B66
:100D10001092E9008091E80083FD0E94D81B1F70AB
:100D20001093E90082E084BD93E095BD9AEF97BDF2
:100D300080936E001092E6011092E7011092E80194
:100D40001092E9010E94292A811102C00E94192AE9
:100D50000E940D238093000180910001882321F0DF
:100D600010926E0188E003C088E080936E0180934A
:100D70006F010E940D2381110E9464318091000156
:100D800080910001882311F090E001C096E09093DB
:100D9000F70186E0891B8093F60103E711E089E7FC
:100DA000E82E81E0F82ED8018D918D018F3F11F052
:100DB0000E948A23E016F106B1F709E711E0F80175
:100DC00081918F018F3F11F00E948A23F1E00F374C
:100DD0001F07A9F78CE0ECE3F2E0DF01282F1D925A
:100DE0002A95E9F7EAEEF1E0DF011D928A95E9F72D
:100DF0000E94F116811102C00E94FD1682E090E06F
:100E00000E941E338093FF010E94E0169093F90127
:100E10008093F8010E94EF23EFE3FCE93197F1F7AB
:100E200000C000000E94EF2380913C0280FF08C0B8
:100E30006FEF7FEF80E090E00E9450330E945327D5
:100E400083E090E00E941E330E94EF1A8091C4025A
:100E50000E94A60E83E08093370280E28093C50251
:100E60000E9417306DE070E089E391E00E94B11BB1
:100E7000892B09F043C08091370263E070E081FD67
:100E80003AC086E391E00E94B11B892BB9F56DE071
:100E900070E086E291E00E94B11B892B79F50E94F7
:100EA000B527DC01CB01805A9541AF4FBF4F8093EE
:100EB000680590936905A0936A05B0936B05E8EC0B
:100EC000F2E080E092E0DF019C011D922150304071
:100ED000E1F7F093CF04E093CE048FEF9FEF909370
:100EE000C7028093C60281E080936D0580936C05F4
:100EF0001092380203C083E391E0C5CF8091FA01DC
:100F0000811138C00E94F116811104C00E94FD16A3
:100F10000E94F82B88E090E00E94263360936305DE
:100F20007093640580936505909366058091310503
:100F30008360809331056E7F71F40E94F82B88E006
:100F400090E00E942633609363057093640580935C
:100F50006505909366050E94AE2B0E945D2A8091E4
:100F6000630580FF04C060E086950E948D2E81E0BD
:100F70008093FA019091000181E0982790931302E9
:100F8000382F391B3093FC0190910001809314029B
:100F9000909100018093FB0152985A9A22982A9AC4
:100FA0008FE891E00197F1F700C000003091140242
:100FB000E5E1F2E020E0231769F089B182FB8827A0
:100FC00080F91A9B02C092E001C090E0892B8193C6
:100FD0002F5FF1CF0E940D23811102C00E94673163
:100FE00086E491E0909328058093270581E091E0C5
:100FF0009093750580937405B0E46B2E222423949E
:10100000312C8091BA02853009F068C0FF24F39436
:1010100000E112E18091BA02853009F04AC0809166
:10102000BA02843009F434C00E945D2A8091FE0126
:10103000811109C0F092FE01809163058170809357
:10104000FD010E94752E0E946E2910927805A8E17C
:10105000B0E00FB6F894A895A09360000FBE609220
:10106000600083B7817F846083BF83B7816083BF63
:101070007894889583B78E7F83BF0FB6F894A89530
:1010800080916000886180936000109260000FBEC4
:101090008091B902882309F4BDCF0E94EF23ECE3CD
:1010A000F2E08191811162C5B2E0E834FB07C9F733
:1010B000B1CF0E94F41A0E9449281092FE0180913B
:1010C000FD01882349F08091630581608093630569
:1010D00060E086950E948D2E0E94642A0E94EF2374
:1010E000C82E81110E94B527ECE3F2E0FCA7EBA724
:1010F000E0E0F2E0ACE3B2E000E010E0B02EDD9022
:1011000081918D2549F1E12CFF24F3949F2D9823A3
:10111000F1F00E940D23882399F0E9A2BAA2DF2002
:1011200081E009F480E08BA30E94C1278160782FC1
:101130009DA38CA349A15AA16BA18DA10E94F50D7D
:10114000F801E050FE4F8081F826F0821AC0E39447
:10115000FF0C26E0E212DACF0F5F1F4F0C301105B3
:1011600069F68FEF8EA38FA318A60E94C127816016
:10117000782F9AA789A74EA15FA168A58AA50E948A
:10118000F50D0E940D2380913005882309F478C065
:1011900080912F05E0916305E695E81BE0932B0510
:1011A000823059F4F0E0EF5AFE4FE4910E2F10E038
:1011B000AEE7EA2EA6E2FA2E14C0853061F4E69579
:1011C000F0E0E25BFE4FE4910E2F10E0F6E3EF2E2D
:1011D000FBE2FF2E06C000ED17E0EEEFEE2EE5E29B
:1011E000FE2E80912C05882361F010922C050E9420
:1011F000E42390932A058093290510922E051092DE
:101200002D050E94E423E0912905F0912A059C0117
:101210002E1B3F0B2F3F3F4798F520910E022223B4
:10122000B1F010920E0220910C0230910D02821B3F
:10123000930B8F3F9F4758F4205D3A4830930D023F
:1012400020930C0280913105886080933105A09035
:101250002D05B0902E050E0F1F1F10932A05009329
:10126000290589E295E0F701099580912D05909176
:101270002E05892B29F4AB2819F081E080930E020A
:10128000E12CD12C80911402E81608F05BC00E2DE1
:1012900010E0E9B1E2FBEE27E0F91A9B02C082E020
:1012A00001C080E04E2F482BD801AB5EBD4FEC91C2
:1012B0008E2F837090E0242F042E000C330B8217A6
:1012C0009307F1F1EE0FEE0FE42BEC93F090130285
:1012D000FE0CEF70F0E0E158FE4F0F5E1D4F908165
:1012E000D8018C91890F8C9384306CF0EF2DF0E055
:1012F000E15FFD4F80818F5F808360E08F2D0E94D2
:10130000C90E21E001C020E0F80180818D3F64F426
:10131000EF2DF0E0E15FFD4F80818150808361E03F
:101320008F2D0E94C90E21E0D8018C91082E000C4F
:10133000990B64E070E00E947233F8018083D22A36
:10134000E394A0CFD1100E94DD1680916D05882313
:1013500009F477C18091390290913A020E94A62740
:10136000C29708F46EC00E94C12790933A028093FE
:10137000390280E00E948D1B80E00E948D1B84E674
:1013800091E00E947F1B81E00E948D1B8EE591E021
:101390000E947F1B82E00E948D1B89E591E00E94E4
:1013A0007F1B83E00E948D1B84E591E00E947F1BE0
:1013B00086E00E948D1B81EA91E00E949F1B809134
:1013C000C4020E94920E813059F038F0823059F0F8
:1013D000833061F48EE891E00BC08CE991E008C0A5
:1013E00087E991E005C082E991E002C088E891E0D8
:1013F0000E949F1B87E891E00E949F1B0E94492842
:1014000081FB002700F982FB112710F980FF03C040
:1014100082E891E002C08DE791E00E949F1B0023CB
:1014200019F088E791E002C083E791E00E949F1BDA
:10143000112319F08EE691E002C089E691E00E9446
:101440009F1B80916D05882309F4E0C02091C6029E
:101450003091C7022115310509F4D8C080913802B6
:101460008111D4C0482E512C7101082E02C0EE0CFF
:10147000FF1C0A94E2F7A9014E215F21452B11F4CC
:101480008F5FF0CF90913702920175E0220F331FEA
:101490007A95E1F790FD12C08295880F807680934F
:1014A0000F01220F232F221F330B3195209312019E
:1014B000815E809310011092130112C055E03695A1
:1014C00027955A95E1F7220F220F220F20930F0143
:1014D00010921201295F2093100183E08093130181
:1014E00024E630E047E050E06DE071E088E70E94DC
:1014F000C230892B09F08AC08091370280FD23C059
:10150000C20145E0880F991F4A95E1F7AC014853A5
:101510005D4F04E610E020E230E060E488E70E94DE
:10152000E330892B09F072C00E948829E094F0947E
:101530008091C6029091C702E822F922F092C70278
:10154000E092C60263C080E2E7E1F2E0DF011D92B3
:101550008A95E9F735E0440C551C3A95E1F7E3E943
:10156000F1E0FEA7EDA76FE871E0ADA5BEA58D91F6
:10157000BEA7ADA7FB019191BF01A201490F511D6B
:1015800048535D4F90E0895E9D4FFC0127E0A22EFD
:101590009F01281B390B822C01C0880C2A95EAF781
:1015A0008A01912CD801BD908D01B8202A2D2919CE
:1015B0002770722E022E000C330BBB2D01C0BB0F07
:1015C0007A94EAF77B2E31952195310927703327DC
:1015D00001C0B6942A95EAF77B28B0807B287082F8
:1015E000939428E09212DECFAA9431963FEFA31293
:1015F000CFCF8DA59EA58759914009F0B6CF04E6BF
:1016000010E020E230E047E152E087CF80916C05A6
:101610008823B9F00E94B5270091680510916905EB
:1016200020916A0530916B05DC01CB01801B910B89
:10163000A20BB30B8F3F9F4FAF4FBF4710F40E94D9
:101640006E29C11001C0D1100E94882986E0E7E808
:10165000F5E08E010F5F1F4FD80101900D928A9522
:10166000E1F71092890510928A0510928B0510926D
:101670008C058B81811104C08C81882309F453C0AF
:1016800080918505909186050E94A6279C019091E6
:101690008105992309F489C22531310508F443C035
:1016A0009F3F19F09F5F90938105FB80FF2061F0C1
:1016B0000E94D02D1F1414F491E001C09FEF899F68
:1016C000802D112480938905FC80FF2061F00E9409
:1016D000D02D1F1414F491E001C09FEF899F802D3D
:1016E000112480938A05309189053323E1F02091FC
:1016F0008A052223C1F045EB3403C001112499234C
:1017000019F09093890503C081E08093890535EB3A
:101710002303C0011124992319F090938A0503C073
:1017200081E080938A058D81811104C08E81882398
:1017300009F453C080918305909184050E94A627E7
:101740009C0190918005992309F434C2213531051B
:1017500008F443C09F3F19F09F5F90938005FD8080
:10176000FF2061F00E94AE2D1F1414F491E001C01F
:101770009FEF899F802D112480938B05FE80FF2091
:1017800061F00E94AE2D1F1414F491E001C09FEF90
:10179000899F802D112480938C0530918B053323F4
:1017A000E1F020918C052223C1F045EB3403C00108
:1017B0001124992319F090938B0503C081E0809345
:1017C0008B0535EB2303C0011124992319F0909365
:1017D0008C0503C081E080938C0546E050E0B801A1
:1017E00087E895E00E94A033892B11F00E944B2ED0
:1017F00086E0F801A7E8B5E001900D928A95E1F73F
:101800000E94492890913B02891380933B0280916A
:10181000BA02843009F0F5CB83E08093E90080912F
:10182000E80082FFEECB8091E80085FF21C00E9496
:10183000382081111BC080E2C82ED12C780109C04C
:101840008091F100D7018D937D01B1E0CB1AD108D1
:1018500069F08091E80085FDF3CF8091E8008B77F7
:101860008093E8000E943820882399F391E001C01A
:1018700090E08091E8008B778093E800992309F449
:10188000C0CBE9818E2F90E0FC013197E331F10567
:1018900008F042C1EA5AFF4F0C9486331A8289E05D
:1018A00094C08A81823009F477C1833051F081304D
:1018B00009F032C10E94B5279B838C837D836E83A0
:1018C0002DC1FE013396CE010F96ABA5BCA52D917F
:1018D000BCA7ABA721938E179F07B9F71FC18A81B9
:1018E000823009F019C16B817C818D819E810E94BB
:1018F0008C330E94F52912C14C816B818A810E9430
:1019000032299D8350C12D813E81322723273227E2
:101910004C816B818A810E94D62800C10E94FD28DB
:10192000FDC08A818138B1F050F4803809F0F6C0EA
:1019300020E04B81609165058091640523C0823869
:10194000E9F0833809F0EAC020E0409166056C8137
:101950008B8118C060E08B810E948D2E8B8181115C
:1019600003C00E94752EDAC0809163058160809368
:10197000630560E086950E948D2ED0C08B81809398
:101980006705CCC00E949C2CC9C08A81813899F01F
:1019900030F4803809F0C2C08091660516C08238E4
:1019A00091F0833809F0BAC0809164058B838091EF
:1019B00065058C83B3C08091630580FF02C0869566
:1019C00004C080E002C0809167058B83A7C060914E
:1019D00063057091640580916505909166050E948C
:1019E000C12B9CC080E151C081E08A8389E9EDCFA1
:1019F000EA80FB80FE24EF24FE24CC80D12C580109
:101A0000C70189599D4F9501201B310B2C153D05B0
:101A100008F084C0B9E9EB16B1E0FB0628F40E9497
:101A20001E33F501848303C0D50114961C92BFEFC9
:101A3000EB1AFB0AEFEFAE1ABE0AE2CFEA80FB8098
:101A4000FE24EF24FE24CC80D12C5801C7018959F3
:101A50009D4F9501201B310B2C153D0508F05EC0F4
:101A6000F9E9EF16F1E0FF0628F4D50114966C9120
:101A70000E943233BFEFEB1AFB0AEFEFAE1ABE0A39
:101A8000E5CF0E94C6284AC084E08A8347C0EA8026
:101A9000FB80FE24EF24FE24CC80D12C5801C7010A
:101AA00087969501201B310B2C153D05B8F5F0E408
:101AB000EF16F2E0FF0630F40E941E33D5011496B3
:101AC0008C9302C0F5011482FFEFEF1AFF0A2FEF8B
:101AD000A21AB20AE4CFEA80FB80FE24EF24FE249F
:101AE000CC80D12C5801C70187969501201B310B62
:101AF0002C153D0598F430E4E31632E0F30628F4A3
:101B0000D50114966C910E943233BFEFEB1AFB0A99
:101B1000EFEFAE1ABE0AE7CF8FEF89838091BA024A
:101B2000843009F06ECA8091E9008F702091EC003A
:101B3000922F917020FD90E8F92EF82A82E0809390
:101B4000E9008091E80080FF0CC040E050E060E2D6
:101B500070E0C8010E946B208091E8008E7780932E
:101B6000E8008F2D8F708093E9004BCA09BD19BD25
:101B700009B400FEFDCF8091D8008F7D8093D800FE
:101B80008091E00082608093E0008091E00081FD20
:101B9000FCCF0E94F41A3ECA86E290E00E941E33F7
:101BA0001B821C821D828E83B9CF2B30310508F039
:101BB00079CDB9CD2B30310508F0CECD0ECE0E94B7
:101BC000F41A2FEF84E39CE0215080409040E1F72D
:101BD00000C000009AE088E10FB6F894A8958093C1
:101BE00060000FBE90936000FFCFA7E1B0E0EBEF85
:101BF000FDE00C94ED324B8B5C8B6D8B7E8B8F8B71
:101C000061111092180586E09E01235F3F4FD901B4
:101C1000E82F1D92EA95E9F795E0FE017396D90148
:101C200001900D929A95E1F79C894E895F897B8995
:101C30007D879E876F87598B488BF901DE01179648
:101C400001900D928A95E1F7CE0107960E94A618A1
:101C500081113EC086E0FE013796DE0111960190AB
:101C60000D928A95E1F7FF81E8856A857B8561158C
:101C7000710531F0EF3F31F481E0FF3F19F403C00B
:101C800081E001C080E080FD23C02091720230E03D
:101C9000C9010196877099274091A30250E08417EB
:101CA000950779F1F983EA837D836C8396E0929FAF
:101CB000D001939FB00D1124AD58BD4FFE01319658
:101CC00001900D929A95E1F7809372020E94D717C6
:101CD00016E08091A302909172028917F9F0189F83
:101CE000C00111248D589D4F0E94A6188823B1F081
:101CF0008091A30290E00196877099278093A302B8
:101D0000E8CF0E94F41A109272021092A302ECE63D
:101D1000F2E086E0DF011D928A95E9F76796E3E03D
:101D20000C940933982F92959F7019F0892F24E015
:101D300001C020E0982F9695969511F02E5F892F7F
:101D4000982F969509F02F5F822F0895CF93C82F73
:101D5000882321F081FB662760F901C060E080E004
:101D60000E94702BCC2321F0C2FB662760F901C0D2
:101D700060E081E00E94702BCC2321F0C3FB66273A
:101D800060F901C060E082E00E94702B8C2FCF913F
:101D90000895882319F0813039F00DC0662311F0C1
:101DA00089EA07C08AEA05C0662311F08BE401C006
:101DB0008EE40E94FA2F81E00895A9E0B0E0E3EEFE
:101DC000FEE00C94DF32FC0180819181238134811B
:101DD000232B31F09F3F31F491E08F3F19F403C082
:101DE00091E001C090E090FD4AC67F0185E0DE01F0
:101DF000119601900D928A95E1F7F7012281898170
:101E00009A81222349F00E944A18182F682F89814D
:101E10009A810E94611A03C00E942D1A182F6981AD
:101E20007A81812F0E9460298C01F70182818823A9
:101E300009F4F5C0980122513F452031310508F0E1
:101E40000AC18FEF93E00E941E338111F2C002514C
:101E500037E6832E32E0932E002379F08114F4E0EC
:101E60009F0609F4E6C0C4010E941E33811101C01F
:101E700001502FEF821A920AEFCF1E821F8218861E
:101E80001986442443942AE0322E84010F5F1F4FA9
:101E9000C4010E941E338E831F82882309F4C9C0A7
:101EA0009FEF980F933060F48F834E8232E0830E61
:101EB000911CC8010E941E338887811102C0B9C0DD
:101EC00048018E010A5F1F4FF80120812223E9F2A9
:101ED000213009F04CC08181813049F46801F2E081
:101EE000CF0ED11CF80182810E94FA2F0AC08230E5
:101EF00051F46801F2E0CF0ED11CF80182810E94FA
:101F0000562F860189C0833049F46801F2E0CF0E74
:101F1000D11CF80182810E94F32EF3CF843019F096
:101F20000F5F1F4F79C0F80122810E5F1F4F80E0C5
:101F300090E030E0205331092A30310568F4389EB2
:101F4000A001399E500D1124C901840F951F0F5F08
:101F50001F4FF8012081EDCF009709F45DC0EFE934
:101F6000FFE03197F1F700C000000197F5CFE22FB5
:101F7000F0E0E952FE4F5490822F86958695869523
:101F800090E0FC01E953FE4F64902770712C022E03
:101F900002C0759467940A94E2F7F1E06F22772407
:101FA000FC01E954FE4FA490B12C022E02C0B5945E
:101FB000A7940A94E2F731E0A322BB24FC01E9557F
:101FC000FE4FC490D12C02C0D594C7942A95E2F755
:101FD00081E0C822DD246114710419F081EE0E94B1
:101FE000562FA114B10419F086EE0E94562F852DAC
:101FF0000E94FA2FA114B10419F086EE0E94F32E6C
:102000006114710419F081EE0E94F32EC114D10401
:1020100019F08CE20E94FA2F0F5F1F4F55CF00314D
:102020003FE5130709F07FC481E00E949D1A0E94DA
:10203000A51B8091A402877009F421C5F701828154
:10204000882309F41CC58091F90182FF18C582E03C
:102050000E94AA1A14C50031FFE51F0711F481E0A0
:1020600005C001312FE5120721F482E00E94E31A36
:10207000DECF033FFCE51F0749F406E221EE40EE08
:1020800063EF7CE5C7010E945D28D3CF043F2CE5B8
:10209000120708F069C1083D3CE5130731F407E277
:1020A00025EE45EE68ED7CE5EDCF093D9CE5190791
:1020B00031F408E221E045EE69ED7CE5E3CF073D30
:1020C000ECE51E0731F406E221EE41EE67ED7CE51A
:1020D000D9CF882309F47DC11092700503309DE5A6
:1020E000190758F40A3FECE51E0780F4C801825036
:1020F0009C45449708F057C109C00136FDE51F070C
:1021000029F0053A2DE5120709F04DC10E94E016AD
:102110009093F9018093F80101313CE5130709F42C
:10212000C9C008F043C009309CE5190709F49EC0F6
:1021300008F50530FCE51F0709F488C080F403307A
:102140003CE5130709F47BC008F07DC002309CE534
:10215000190709F0F9C08091F8018160F3C00730D8
:10216000ECE51E0709F47AC008F07CC08091F80104
:102170008061E8C00D302CE5120709F489C058F4DD
:102180000B308CE5180709F47BC008F07DC0809106
:10219000F801886071C00F30ECE51E0709F482C0B9
:1021A00008F084C08091F801877FCCC00D3F2CE5FA
:1021B000120709F473C008F505318CE5180709F416
:1021C00087C068F40331ECE51E0709F477C008F016
:1021D00097C00E94F41A8091F8018F77B3C00B3F2B
:1021E0002CE51207B9F108F056C00A3F8CE5180734
:1021F00009F0AAC08091F90141C001309DE519079D
:1022000009F48AC058F40F3FFCE51F0709F45BC0CE
:1022100008F06AC08091F901826030C001363DE566
:10222000130709F47FC0053A8DE5180709F484C047
:1022300002309DE5190709F087C060E06EC080910B
:10224000F80182607FC08091F80116C08091F8018A
:10225000886078C08091F90182604FC08091F80158
:10226000806270C08091F80180646CC00E94F41A92
:102270008091F801806866C0846064C081603DC060
:102280008091F8018E7F5EC08091F8018D7F5AC0E9
:102290008091F80116C08091F90118C08091F90170
:1022A0008D7F2BC08091F8018F7E4CC08091F8010A
:1022B0008F7D48C08091F8018F7B44C08091F801E8
:1022C000877F8B7F3FC08091F9018D7F8E7F15C006
:1022D0008091F80182FB222720F991E0922790FB60
:1022E00082F990FB83F92EC08091F901982F909587
:1022F00091708E7F892B90FB81F98093F90124C026
:102300000E94F41A8091F80187FB222720F991E0BE
:10231000922790FB87F916C061E08EE090E00E9462
:10232000323312C08091F80184FB222720F991E01A
:10233000922790FB84F906C08091F801982F909520
:1023400090FB80F98093F8016091F8011091F901F8
:1023500084E090E00E943233612F82E290E00E949C
:1023600032330E94F41A65CE053FFCE51F0731F4B5
:1023700006E221EE42EE65EF7CE584CE053F2CE5DA
:10238000120730F407E225EE44EE64EF7CE57ACEE6
:10239000063F3CE5130709F09CCE07E225EE46EE2A
:1023A00066EF7CE56FCE06318CE5180721F580914C
:1023B00017058A7A91E009F490E090934802882307
:1023C00011F065E301C069E289E492E00E9403280C
:1023D0000FC00631ECE51E0709F044C080914802A9
:1023E000882309F4A7C265E389E492E00E94F627F6
:1023F0000E947F171ECE0A352DE5120769F158F4A9
:1024000001158CE5180781F00E3D1C4509F047C009
:102410000E94FD1617C00C35EDE51E07A9F0F0F07F
:10242000073A1D4579F03BC00E94F41A3FEF84E360
:102430009CE0315080409040E1F700C000000E94D5
:102440005327F7CD0E94DF0D8091F90182FB882789
:1024500080F991E0892703C081E001C080E00E94FB
:10246000C71A1DC08091170582720A3CECE51E0751
:1024700009F4EAC208F076C2053C2CE5120709F41B
:10248000CFC208F059C2033C9CE5190709F4BEC24B
:1024900008F0C1C2023CFCE51F0709F48DC2F70138
:1024A000828100811181882349F0C8010E944A1865
:1024B000D82E682FC8010E94611A04C0C8010E946A
:1024C0002D1AD82EB8018D2D0E9460290E94431527
:1024D000D82E192F982EF7010281A580A2949FE093
:1024E000A9228091A4028770B9F00023A9F0812F5E
:1024F000807F803421F080E28D0D883068F08091FB
:10250000F90182FF09C082E00E94AA1A8091A40208
:102510008770CC24C3948111C12CB12EB2948FE06A
:10252000B8228B2D90E08C30910508F0DDC1FC01C4
:10253000E759FF4F0C948633812F807F1F708823CB
:1025400011F01295107F0023B9F0112309F4B5C1E1
:1025500080E28D0D883010F0911006C08091170533
:10256000182B1093170505C080911805182B109390
:1025700018050E947F17A1C18D2D0E94F32E1123F3
:1025800009F4B2C180E28D0D883080F1992071F19B
:102590001095809118051823109318052AC0812FD3
:1025A000807F1F70803211F01295107F8D2D992041
:1025B00021F0F1E09F16C1F146C08091F90182FD42
:1025C0001BC0002369F0112339F080911705182BE7
:1025D000109317050E947F1780E00E94562F84C138
:1025E00080E00E94F32E112309F47EC1812F0E9406
:1025F00078170E947F1778C1002369F08091190530
:10260000A11002C0812B17C021E0812BA21213C0A0
:102610000E946E1769C1AA2021F031E0A31609F4C7
:1026200063C10E9468172BC0002341F085E08A1522
:1026300008F45AC1812F0E94E92E56C194E09A15E0
:1026400008F452C11CC0002349F0AA2099F3F701F5
:10265000858180FF32C18F708583ECCFAA2079F00D
:10266000893341F4FFEF27EE33E0F1502040304052
:10267000E1F735C18FE39CE90197F1F730C1812F74
:102680000E94E22E31C1812F86958695837019F0C4
:10269000813061F029C1002321F08D2D912F93709D
:1026A00002C080E090E00E94332824C1002321F082
:1026B0008D2D912F937002C080E090E00E941D2824
:1026C00019C18D2D002319F00E94F02D02C00E9427
:1026D000372D0E944B2E0EC1812F8370A9F5011159
:1026E00007C14D2D429546954770440F440F8D2DDF
:1026F0008F7090E09C01042E01C0220F0A94EAF72B
:10270000D4FE08C08FE090E001C0880F4A95EAF738
:10271000809501C080E0169516951370123069F00F
:1027200088F490910E05113019F0822B892302C094
:10273000922B892B0E94EF1ADBC0822B90910E0501
:102740008927F8CF822BF6CF002319F0812F8170D3
:1027500001C08695882309F4CBC04D2D429546953E
:102760004770440F440F8D2D8F7090E09C01042E14
:1027700001C0220F0A94EAF7D4FE08C08FE090E06F
:1027800001C0880F4A95EAF7809501C080E0169550
:1027900016951370123059F078F49091C4021130EC
:1027A00019F0822B892309C0922B892B06C0822B1A
:1027B0009091C402892701C0822B0E94961A98C06A
:1027C0001F70002339F0812F0E94E31A8D2D0E9483
:1027D000E92E8EC08D2D0E94E22E812F0E949D1A1F
:1027E00087C08D2D92EF991681F1991538F0E0EFA1
:1027F0009E1659F0F1EF9F1619F15BC023EF921668
:1028000059F134EF9316C1F054C0002381F084E0F5
:102810008A1508F469C01F7181E090E0012E01C0A3
:10282000880F0A94EAF79091C402892720C095E0A6
:102830009A1508F459C0EFCF8091F90182FD1AC0B2
:10284000002329F0812F8F7127C00023D9F3812F16
:102850008F710E949D1A48C0002341F01F7181E0D2
:10286000012E01C0880F0A94EAF701C080E00E949F
:10287000961A3AC0002399F01F71812F0E94E31A23
:102880008091F90182FF07C0E8E01E9FC00111247A
:1028900083608093A402812F0E94E31A25C081E007
:1028A0000E94AA1AF1E0FA15F8F482E00E94AA1A2E
:1028B0001BC0002321F0AA2029F28D2D8ECEAA2044
:1028C00031F2893341F42FEF37EE83E0215030406D
:1028D0008040E1F704C0EFE3FCE93197F1F700C075
:1028E00000008D2D0E94F32E88EF8B0D843010F4A4
:1028F0000E944928CC2009F4C2C08091A40280FD26
:10290000BEC0F70112828595859585950E94E31AD0
:10291000C7010E94DD0E8091A4028595859585955D
:102920000E949D1AACC001319FE5190709F0A1CBA7
:1029300082E07BCB69E258CD073C2CE5120709F415
:1029400079C008F472C0083C9CE5190709F477C007
:10295000093CECE51E0709F0A2CD4FEE5CE26CEFFE
:102960007CE280C00F3CFCE51F0709F483C090F4B3
:102970000C3C3CE5130709F471C008F46AC00D3C37
:10298000ECE51E0709F471C00E3CFCE51F0709F4D5
:1029900050CB85CD063D2CE5120740F4013D3CE5CA
:1029A000130708F046CB6AE085E066C00D358DE57B
:1029B000180709F43ECB73CD8091630580FF20C0DA
:1029C0008E7F8093630560916305709164058091AB
:1029D0006505909166050E94C12B0E945D2A809139
:1029E00031058160809331059FEFE0E7F2E091507F
:1029F000E040F040E1F700C000000E947F2A19CBC0
:102A000081608093630561E0869531C04DEC5EE2A4
:102A100067ED7EE227C047ED5EE26DEC7EE222C00C
:102A200043E25DE26DE27DE21DC04DE25DE263E204
:102A30007DE218C049E05DE266E17DE213C046E157
:102A40005DE269E07DE20EC04CEF5CE26FEE7CE29D
:102A500009C044ED5BE266EE7BE204C046EE5BE259
:102A600064ED7BE20E94562AE4CA61E081E00E94A4
:102A70008D2EDFCA64E082E00E94422ADACA2996DB
:102A8000E1E10C94FB32CF93DF938238910569F139
:102A9000B0F48133910509F46FC048F4893291058F
:102AA00009F465C08A32910509F46BC08AC0853388
:102AB000910509F457C089339105B9F082C0833E6E
:102AC000910571F138F4803E9105B1F0823E910597
:102AD00011F177C0863E9105B9F1873E9105C9F1A4
:102AE000843E910509F06DC024C02091F80120FDBD
:102AF00053C021FD51C065C08091F80180FD46C0E2
:102B00008091F90180FF48C08091F80184FD50C197
:102B100083EE90E04FC18091F80182FF3AC0F4CF7C
:102B20008091F80182FD35C08091F90180FD34C0AB
:102B3000EBCF8091F90181FF35C08091F80184FDD0
:102B400037C187EE90E036C18091F80183FF27C03E
:102B5000F4CF8091F80183FD22C08091F90181FDBD
:102B600021C0EBCF8091F80185FD1FC021C080916D
:102B7000F80185FD1DC019C08091F80186FD1BC0BC
:102B80001DC08091F80186FD19C015C089E390E051
:102B900011C182EE90E00EC180EE90E00BC186EE96
:102BA00090E008C184EE90E005C189E290E002C1A6
:102BB00085E390E0FFC08AE290E0FCC081E390E012
:102BC000F9C0811531E5930708F069C0811540E52A
:102BD0009407F0F09C0174E0369527957A95E1F71B
:102BE000922F9370482F437021E030E002C0220FF3
:102BF000331F4A95E2F73C68392B982F9F709695C2
:102C0000969540E2949FC0011124822B932BD2C051
:102C1000883E910568F5803E910508F0CBC0883A62
:102C20009105B8F4853A910548F0855AE82FF0E00F
:102C3000E956FE4F808190E09064BCC081309105E0
:102C400009F4B3C008F4B4C08430910508F4B0C0EE
:102C5000B1C08F3B910508F0ABC0885AE82FF0E077
:102C6000EE0FFF1FE656FE4F808191819464A2C053
:102C7000811520E2920758F4811531E0930708F09E
:102C800099C0803F910508F493C0906593C0811569
:102C900040E4940708F48CC09F70906A8BC0811543
:102CA00025E5920708F042C0811534E5930728F026
:102CB000982F8827846F906A7DC0811543E594071B
:102CC000B0F09C012370332741E050E002C0440F74
:102CD000551F2A95E2F7282F2695269580E2289FF2
:102CE00090011124CA01822B932B9A6863C081152D
:102CF00022E5920728F4982F8827816F906A5AC09E
:102D00009C012370332741E050E002C0440F551F5F
:102D10002A95E2F7282F2695269580E2289F900194
:102D20001124CA01822B932B9C6844C0EC018115AD
:102D300039E59307A8F48115984528F09C2F88273A
:102D4000806F906A37C0C11586E5D80788F58C2F4B
:102D50000E94A1238F7190E0982F882790622AC04B
:102D600081152AE5920790F48C2F8F700E94A12381
:102D700094E0D695C7959A95E1F7CF70D0E0DC2F17
:102D8000CC27D0699E01282BC90114C0905681150B
:102D9000904270F48D2F8F710E94A123282F2F71E4
:102DA000CE0199279062922B05C081E090E002C08D
:102DB00080E090E0DF91CF9108950E94B5270895BB
:102DC000CF9384E090E00E941E33C82F82E290E00F
:102DD0000E941E332C2F30E0A901582BCA01CF913D
:102DE000089580E090E00E942C33883E9E4F19F4B5
:102DF0000E94292A089580E0089568EE7EEF80E021
:102E000090E00E94503360E082E090E00E94323314
:102E100060E083E090E00E94323310920E0560E0A3
:102E200084E090E00E94323364E082E290E00E940D
:102E3000323360E085E090E00E94323360E086E06B
:102E400090E00E9432336FEF87E090E00E943233CF
:102E500040E050E0BA0188E090E00E94443360E036
:102E60008DE090E00E94323340E050E0BA0188E10A
:102E700090E00E94443360E087E190E00E943233AA
:102E800040E050E0BA018CE190E00E94443360E001
:102E900070E080E290E00E94503340E050E0BA01E0
:102EA00088E190E00E94443380E00E94FA290E9469
:102EB000192A40E050E0BA018FE090E00E944433CC
:102EC00040E050E0BA0183E190E00E94443308956D
:102ED0008091190581111092190508959091F901B9
:102EE00092FF05C0909119059813809319050895D4
:102EF00080959091170589238093170508959091E7
:102F0000170580911805982B909349028091190517
:102F1000882389F0892B80934902EBE4F2E097E063
:102F200080E0915029F021912223D9F38F5FF9CFCE
:102F300081110E94681748E050E065EA72E089E478
:102F400092E00E94A033892BA9F088E0E9E4F2E046
:102F5000A5EAB2E001900D928A95E1F7E09174053F
:102F6000F0917505309731F00280F381E02D89E40E
:102F700092E00995089580E090E00E94332880E077
:102F800090E00E941D28109218050E947F17E7E824
:102F9000F5E086E0DF011D928A95E9F71092810540
:102FA00010928005109282050E944B2E0895809108
:102FB000A30290917202891719F08F5F8770FBCF7F
:102FC00008950F931F93CF93DF93809171028295A1
:102FD0008F7009F05AC080916E02882309F455C0A1
:102FE0008091A3021091720260916C0270916D0247
:102FF000C0916F02D091700291E06F3F09F090E0B4
:10300000292F06E0811709F440C0209721F07F3F67
:1030100021F030E003C031E001C0322F90E030FDFC
:1030200031C0089FF001099FF00D1124DF01AD5858
:10303000BD4F11963C911197371324C03C91361324
:1030400021C012963C91129731111CC013964D91DC
:103050005C9114974C1B5D0B483C510598F4809192
:1030600071028F70806180937102E858FD4F8081FA
:103070008F70806180838CE692E00E94DD0E0E945A
:10308000D71703C001968770BDCFDF91CF911F91F5
:103090000F910895CF92DF92FF920F931F93CF93DA
:1030A000DF936C010091C40280910E05082BC7E0EC
:1030B000D0E010E0C8010C2E02C0959587950A94C7
:1030C000E2F780FD04C02197A8F7F12C09C0FC2E7F
:1030D000B6018C2F0E9460290E944315019799F335
:1030E0008F2DDF91CF911F910F91FF90DF90CF90A7
:1030F0000895CF93DF93EC010E944A18BE010E940D
:1031000060290E944315DF91CF910895FC018081D1
:1031100091810E94791892959F70963079F010F401
:10312000925001C09A50923068F4803F69F018F4D0
:10313000883E40F409C0843F29F406C0883E20F050
:10314000813F11F080E0089581E00895A1E1B0E0B1
:10315000ECEAF8E10C94E5328C0185E0F801DE013F
:103160001D9601900D928A95E1F7F801E280909109
:103170006C0260916D0240916F0250917002411596
:10318000510531F06F3F31F481E09F3F19F403C0E6
:1031900081E001C080E0F82FF1709F2E80FD1BC1FF
:1031A000F80130812181C380D4808CE6A82E82E092
:1031B000B82EF0906E02F601E41BF50BFF2009F427
:1031C000C7C080917102E83CF10508F092C0482F19
:1031D000407F09F051C0621311C093130FC0FE2C41
:1031E000E1100CC08F70806180937102C5010E9454
:1031F000DD0E80917102F80185832AC1C114D104CA
:1032000031F02F3F31F481E03F3F19F403C081E0FA
:1032100001C080E080FD03C081E08E2502C080E017
:1032200090E0F82FF170FF2E80FF1CC08091A30268
:103230004091720256E0841709F4E8C090E0589F6C
:10324000F001599FF00D1124ED58FD4F61812613B7
:1032500006C06081631303C06281E61203C0019659
:103260008770E9CFFE2CEE2009F4F2C08091710244
:1032700081608093710249C0621306C0931304C039
:10328000E11002C0F80186C0C8010E948618882398
:1032900051F1EE2041F120917102822F82958F70C1
:1032A00090E0029774F080916C0290916D02988783
:1032B0008F831986DB86CA862C87CE0107960E94EB
:1032C000DD0E86E0F801ACE6B2E001900D928A9541
:1032D000E1F70E94E1170AC06217C9F0C8010E9415
:1032E000861881111EC0C8010E94DD0EFF24F394D0
:1032F000AFC0482F407F81F78CE692E00E94DD0E40
:1033000086E0F50111928A95E9F7F12CA1C093139B
:10331000E5CFE110E3CFF8018583C8010E94DD0EFF
:1033200054C0EE2001F320917102822F82958F709C
:1033300090E0029734F280916C0290916D029A8332
:1033400089831B82DD82CC822E83CE010196B7CF8A
:10335000E83CF105D0F5FE2CEE2029F2621327C0DF
:10336000931325C02091710220FD18C0822F8295F1
:103370008F70482F50E04115510581F0F8012583E9
:103380004F30510541F08F5F982F9295907F822F9B
:103390008F70892B8583C8010E94DD0E86E0F801BD
:1033A000ACE6B2E001900D928A95E1F751C0C801F8
:1033B0000E948618811185CF80917102816080936F
:1033C0007102C8010E94DD0E43C086E0F501119232
:1033D0008A95E9F73DC0EE2009F485CFC8010E9427
:1033E0008618F82E882309F47ECF86E0F801ACE633
:1033F000B2E001900D928A95E1F780916C02909174
:103400006D020E9479180E94E11722C03D872E8725
:103410008D859E850E947918292F22952F70223044
:1034200028F49F7039F0811105C00BC0243028F4B6
:103430009F7049F4805E883020F0C8010E94DD0E44
:103440009F2CF92C05C0F8019581907F99F7F9CF51
:103450008F2D6196EBE00C940133292F9C3078F589
:10346000863068F590E036E0239F800D911D112491
:10347000682F677023E0969587952A95E1F7FC0100
:10348000EE0FFF1FE80FF91FEF5AFD4F40E050E02D
:1034900080E0219130E0062E02C0369527950A94EF
:1034A000E2F721703327042E01C0220F0A94EAF7B5
:1034B000822B4F5F5F4F4330510559F7089580E0ED
:1034C0000895292F9C3088F5863078F590E036E015
:1034D000239F800D911D1124282F277051E001C0DA
:1034E000550F2A95EAF723E0969587952A95E1F7F7
:1034F000FC01EE0FFF1FE80FF91FEF5AFD4F20E010
:1035000030E070E04081CB01022E02C09695879595
:103510000A94E2F78170819584278523842781931B
:103520002F5F3F4F2330310569F708950E94A60EA3
:103530008093C4020E94BB17089521E030E001C0CF
:10354000220F8A95EAF720958091C40282230E9477
:10355000961A08952091A402809582238093A40254
:10356000982F977099F430E0482F082E000C550BD7
:103570002417350759F09091F90192FF07C08595FE
:10358000859585950E949D1A1092A4020895CF9367
:10359000C091F901C2FB992790F9981791F080FB2F
:1035A000C2F9C093F9016091F80184E090E00E94B3
:1035B00032336C2F82E290E00E94323382E00E942C
:1035C000AA1ACF91089521E030E001C0220F8A9518
:1035D000EAF78091C402822B0E94961A0895809384
:1035E0000E050E94BB1708951092170586E0EBE4C4
:1035F000F2E0DF011D928A95E9F70E94BB1708955A
:10360000CF93DF93682F8A3011F481E003C08D30AF
:1036100021F480E00E94AE296FC08091CE04909189
:10362000CF0426E0FC01A8ECB4E001900D922A95AD
:10363000E1F7603E30F026E0FC0111922A95E9F7AF
:103640000AC0F6E06F9FB001112465537C4F46E03D
:1036500050E00E941533C091CE04D091CF0446E0D3
:1036600050E0BE0188EC94E00E94A033892B49F120
:103670009E01285C3240A90185E0569547958A95C0
:10368000E1F781E090E0BC0102C0660F771F4A9528
:10369000E2F74091C6025091C702462B572B2B5F91
:1036A0003F4F65E0369527956A95E1F702C0880F90
:1036B000991F2A95E2F7842B952B9093C70280934C
:1036C000C6029E01225C32404091C502642F70E028
:1036D000C9010E94CA32481B463010F4240F311D24
:1036E000211582E0380710F020E030E028533D4FEC
:1036F0003093CF042093CE04DF91CF910895CF93E0
:10370000DF93EC01FE018491882321F00E94001BCD
:103710002196F8CFDF91CF9108959091C502899FAE
:10372000C0011124811522E0920714F080E090E09E
:1037300088539D4F9093CF048093CE0408950E94A8
:103740007F1B81E00E94AE2908958091C402982FCA
:103750009670963011F4886001C0877F0E94961A97
:103760000895EF92FF920F931F93CF93DF93EC0195
:103770007B0164E670E088E70E941D308C01EC0E4E
:10378000FD1ECE15DF0561F017FD0AC0FE01849114
:1037900064E670E00E9492308C012196892B89F3B7
:1037A0000E940A31C801CDB7DEB7E6E00C940633BB
:1037B000AAE2B0E0EEEDFBE10C94ED32ECEBF2E0CE
:1037C00084EC92E02091F10021938E179F07D1F7AE
:1037D0008091BD02833009F463C030F4813071F010
:1037E000823009F49DC0B4C08A3009F489C08B309E
:1037F00009F46EC0893009F0ABC020C08091BC02D2
:10380000813A09F0A5C08091E800877F8093E800A5
:103810008091C0029091C102892B21F468E080EB75
:1038200092E003C060E080E090E070E00E94F52646
:103830008091E8008B778093E8008AC08091BC0279
:10384000813209F085C08091C0029091C102009739
:1038500019F0029709F07CC08091E800877F80937F
:10386000E8008091E80082FD05C08091BA028111D4
:10387000F8CF6EC02091F3008091F20090E0922B7F
:10388000029731F48091F100813011F0863021F4FB
:103890008091F1008093AF028091E8008B7754C053
:1038A0008091BC02813A09F053C08091C00290918E
:1038B000C102892B09F04CC08091E800877F80937A
:1038C000E8008091E80080FFFCCF8091140137C0B0
:1038D0008091BC028132E1F58091C0029091C102D9
:1038E000892BB1F58091E800877F8093E8000E94E2
:1038F000A1268091BE02809314010E94F41A28C070
:103900008091BC02813221F58091E800877F80930D
:10391000E8000E94A1268091BF028093AE0218C0E9
:103920008091BC02813AA1F48091E800877F809366
:10393000E8008091E80080FFFCCF8091AE02809388
:10394000F1008091E8008E778093E8000E94A12624
:103950008091E80083FFDFC18091BC029091BD029D
:10396000492F50E04A30510508F0D5C1FA01EB5813
:10397000FF4F0C948633803821F0823809F0CBC198
:1039800008C08091B8029091B902992389F08260B1
:103990000FC08091C0028F70873008F0BCC1809347
:1039A000E9008091EB0085FB882780F91092E900FF
:1039B0009091E800977F9093E8008093F100109237
:1039C000F10070C1282F2D7F09F0A5C1882319F0BF
:1039D000823061F0A0C18091BE02813009F09BC1AC
:1039E000933009F080E08093B9022EC08091BE022E
:1039F00081112AC08091C0028F702FEF280F2630CE
:103A000008F089C18093E9002091EB0020FF1CC0E1
:103A1000933021F48091EB00806214C09091EB0010
:103A200090619093EB0021E030E0A90102C0440FC7
:103A3000551F8A95E2F74093EA001092EA008091C0
:103A4000EB0088608093EB001092E9008091E80021
:103A5000877F8093E8000E94A1265DC181115BC130
:103A60001091BE021F778091E3008078812B8093B4
:103A7000E3008091E800877F8093E8000E94A12600
:103A80008091E80080FFFCCF8091E3008068809304
:103A9000E300111102C082E001C083E08093BA020A
:103AA0003AC18058823008F036C12091BE02309170
:103AB000BF022C3D53E0350779F583E08A838AE223
:103AC00089834FB7F894DE01139620E03EE051E27F
:103AD000E32FF0E050935700E49120FF03C0E295FC
:103AE000EF703F5FEF708E2F90E0EA3010F0C796D6
:103AF00001C0C0968D939D932F5F243149F74FBF2E
:103B00008091E800877F8093E8006AE270E0CE0150
:103B100001960E94F526B4C08091C0029091C10226
:103B2000432F552743305105A9F068F44130510522
:103B300009F400C14230510509F0EDC08BE590E079
:103B4000E4E3F3E04BC04132510529F14232510523
:103B500089F1E1C0C901992781309105A1F058F0A0
:103B6000029709F0D8C0E1EAF3E0E4918E2F90E0EB
:103B7000E1EAF3E030C0E7ECF3E0E4918E2F90E06F
:103B8000E7ECF3E028C0E3EBF3E0E4918E2F90E064
:103B9000E3EBF3E020C08330910508F0BCC0880F50
:103BA000991FFC01EF52FE4F0190F081E02D89E05A
:103BB00090E014C08330910508F0ADC0FC01EE0F19
:103BC000FF1FE553FE4F0190F081E02DDC01A8536B
:103BD000BE4F8C9190E0009709F49DC02091E800C1
:103BE000277F2093E8002091C2023091C30228175A
:103BF000390708F4C90140E0009789F12091BA0221
:103C0000222309F43DC02530D9F12091E80023FD9D
:103C100037C02091E80022FD2FC02091E80020FF4E
:103C2000EBCF4091F3002091F20030E0342B00976D
:103C300059F02830310540F444914093F100319619
:103C400001972F5F3F4FF3CF41E02830310509F056
:103C500040E02091E8002E772093E800CDCF41117D
:103C6000CDCF0AC08091BA02882351F0853041F04F
:103C70008091E80083FD04C08091E80082FFF2CFCC
:103C80008091E8008B778093E80045C0803809F088
:103C900042C08091E800877F8093E8008091BB025A
:103CA0008093F1008091E8008E77D3CE811133C0EC
:103CB0008091BE029091BF029927029764F580918E
:103CC000E800877F8093E8001091BE021093BB024A
:103CD0000E94A126111106C08091E30087FD02C059
:103CE00081E001C084E08093BA0242E061EC81E0AF
:103CF0000E94C02642E261EC84E00E94C02642E2BB
:103D000061EC82E00E94C02642E260EC83E00E9407
:103D1000C0268091BA028091E80083FF10C0809194
:103D2000E800877F8093E8008091EB0080628093B9
:103D3000EB0005C082E190E0EFE8F3E04FCFAA96F8
:103D4000E3E00C9409331F920F920FB60F921124E7
:103D50002F933F934F935F936F937F938F939F9393
:103D6000AF93BF93CF93DF93EF93FF93C091E9009D
:103D7000CF708091EC00D82FD17080FDD0E81092E8
:103D8000E9008091F000877F8093F00078940E9492
:103D9000D81B1092E9008091F00088608093F000B9
:103DA000CD2BCF70C093E900FF91EF91DF91CF91C0
:103DB000BF91AF919F918F917F916F915F914F9143
:103DC0003F912F910F900FBE0F901F901895E8ED27
:103DD000F0E080818E7F80831092E2001092DA0002
:103DE0001092E100A0EEB0E08C9181608C93808114
:103DF0008F77808319BCA7EDB0E08C918E7F8C9378
:103E000080818F7E80831092AD020895A0E0B0E0A3
:103E1000ECE0FFE10C94E832C8EDD0E088818F7EC1
:103E20008883E7EDF0E080818160808384E082BF59
:103E300081E08093AD0288818E7F888302EE10E05E
:103E4000F80110821092DA0081EEC82ED12CF60112
:103E5000108288818F7788838881806888838881B1
:103E60008F7D888319BC1092BA021092BB02109207
:103E7000B9021092B80290EEE92EF12CF701808180
:103E80008B7F808388818160888342E060E080E06E
:103E90000E94C026F60180818E7F8083F801808198
:103EA00081608083808188608083F70180818E7F3C
:103EB0008083888180618883CDB7DEB7E8E00C9489
:103EC00004331F920F920FB60F9211242F933F933A
:103ED0004F935F936F937F938F939F93AF93BF9312
:103EE000EF93FF938091E10082FF09C08091E2008F
:103EF00082FF05C08091E1008B7F8093E10080917B
:103F0000DA0080FF2AC08091D80080FF26C080910F
:103F1000DA008E7F8093DA008091D90080FF18C08C
:103F200080E189BD82E189BD09B400FEFDCF81E059
:103F30008093BA028091AD0281110FC00E94E71EEA
:103F40000E94061F8091E20084608093E20005C019
:103F500019BC1092BA021092AD028091E10080FF6C
:103F600017C08091E20080FF13C08091E2008E7F35
:103F70008093E2008091E20080618093E200809172
:103F8000D80080628093D80019BC85E08093BA0283
:103F90008091E10084FF30C08091E20084FF2CC05A
:103FA00080E189BD82E189BD09B400FEFDCF809129
:103FB000D8008F7D8093D8008091E1008F7E809320
:103FC000E1008091E2008F7E8093E2008091E20028
:103FD00081608093E2008091BB02882311F084E02D
:103FE00007C08091E30087FD02C081E001C083E04B
:103FF0008093BA028091BA028091E10083FF27C0CA
:104000008091E20083FF23C08091E100877F80934D
:10401000E10082E08093BA021092BB028091E1003D
:104020008E7F8093E1008091E2008E7F8093E2009A
:104030008091E20080618093E20042E060E080E0F5
:104040000E94C0268091F00088608093F000FF916C
:10405000EF91BF91AF919F918F917F916F915F9100
:104060004F913F912F910F900FBE0F901F90189579
:104070002091E4003091E50095E64091EC00842F1A
:10408000817040FF23C08091E80080FD1DC08091B9
:10409000BA02882399F0853099F08091EB0085FD74
:1040A00011C04091E4005091E5002417350729F331
:1040B000915011F09A01E1CF84E0089582E00895D3
:1040C00083E0089581E0089580E008954091E8003C
:1040D00042FFDDCF0895EF92FF920F931F93CF938E
:1040E000DF937C018B010E943820811119C0E70108
:1040F00001151105A1F08091E80085FD0AC08091AD
:10410000E8008E778093E8000E943820882381F3AE
:1041100007C089918093F10001501109E9CF80E037
:10412000CDB7DEB7E6E00C94063380E00895A0E05A
:10413000B0E0EDE9F0E20C94E6327C015B016A014B
:10414000809126058A3018F001E010E002C00AE0F4
:1041500010E0C1E0D0E0B501C701F6010995811179
:1041600015C021960C171D0794F0CC9F9001CD9F90
:10417000300D300D112480E090E045E34A95F1F7D1
:104180000000019682179307C1F7E5CF81E0CDB714
:10419000DEB7EAE00C940233A0E0B0E0E2EDF0E23A
:1041A0000C94E9327901C82F880FDD0B41155105B8
:1041B000A9F0FE0193E0EE0FFF1F9A95E1F7EB5E89
:1041C000FE4F8181928185529B4F208130E04217C2
:1041D000530708F49A01A9010E94AD33CE010E9451
:1041E0004F32D82E8823D1F001151105B9F083E0A4
:1041F000CC0FDD1F8A95E1F7FE01EB5EFE4F438198
:1042000050E00417150708F4A801CB5EDE4F6C815F
:104210007D8165527B4FC7010E94AD338D2DCDB797
:10422000DEB7E7E00C940533A3E0B0E0EAE1F1E2A9
:104230000C94EC3260911A0570911B0580911C055D
:1042400090911D050E948A2741E064367105810521
:10425000910508F440E03091170539836436710503
:104260008105910520F42091EB04231341E0909106
:1042700018059A83411106C041E02091EC042913EE
:1042800001C040E0909119059B83411106C08091C7
:10429000ED04891302C011E019C000E010E020E035
:1042A00030E043E050E0BE016F5F7F4F88E00E9446
:1042B000CC20182F882351F00E94B52760931A054F
:1042C00070931B0580931C0590931D05812F2396E9
:1042D000E4E00C940833A0E0B0E0E1E7F1E20C94F4
:1042E000E632C82F7B01D42F69015801FB016081A0
:1042F0007181828193810E948A27643671058105CC
:10430000910510F4DD23A1F000E010E020E030E0A2
:10431000A501B6018C2F0E94CC20C82F882349F01C
:104320000E94B527F701608371838283938301C064
:10433000C1E08C2FCDB7DEB7EAE00C940233A1E0E8
:10434000B0E0E5EAF1E20C94EC3280916C058983EF
:104350002091F70430E090E041E02817390709F494
:1043600040E001E010E09E012F5F3F4F62E275E008
:104370008AE00E946B212196E4E00C940833A9E0C6
:10438000B0E0E5ECF1E20C94EC3285E0E3E6F5E038
:10439000DE01119601900D928A95E1F780912F052B
:1043A00090913005A0913105B09132058E839F83A5
:1043B000A887B98741E08885811101C040E009E004
:1043C00010E09E012F5F3F4F6EE175E089E00E9493
:1043D0006B218111109231052996E4E00C94083389
:1043E000A1E0B0E0E6EFF1E20C94EC320E94492843
:1043F000898341E09091EA04981301C040E001E014
:1044000010E09E012F5F3F4F63E175E087E00E945F
:104410006B212196E4E00C9408330F931F9341E045
:104420009091E8048091C402981301C040E001E03B
:1044300010E024EC32E06FE075E085E00E946B2133
:10444000882389F041E09091E90480910E0598134A
:1044500001C040E001E010E02EE035E06AE075E0E8
:1044600086E00E946B211F910F910895A1E0B0E0BA
:10447000ECE3F2E20C94E332762E4A015901680132
:1044800001E010E09E012F5F3F4F40E050E060E010
:1044900070E00E94CC20182F882379F1F40160810C
:1044A0007181828193810E948A276436710581051A
:1044B000910538F4B701C6010E94DE299981891758
:1044C000E1F08701950140E050E060E070E0872D69
:1044D0000E94CC20182FB701C6010E94DE2991E06E
:1044E0002981281390E0192369F00E94B527F4016F
:1044F000608371838283938305C0A701B601C501E0
:104500000E94AD33812F2196EDE00C94FF32A1E0A3
:10451000B0E0EDE8F2E20C94E732EE24E394F12C03
:1045200003EE14E09E012F5F3F4F42E055E063E051
:1045300082E00E943622B82E882309F43DC000E0B4
:1045400080E09091FB010917A0F5D090FC01D00EFE
:104550002D2D30E0A901415F5D4F7A01E1E0F0E0EF
:10456000EC0FFD1FE00FF11D1081FA019081191B66
:10457000C12E1C145CF4CA94F70180818F5F808384
:1045800060E08D2D0E94C90E81E0F3CF912F17FDC1
:1045900090E0191B112359F01F5FF70180818150B2
:1045A000808361E08D2D0E94C90E81E0F3CF0F5F03
:1045B000C8CF81110E94DD168B2D2196E9E00C9465
:1045C0000333A6E0B0E0E7EEF2E20C94E8326B01D0
:1045D00086E0E82EF12C0CED14E09E012F5F3F4F9A
:1045E0004EEF54E061E080E00E943622882349F0DB
:1045F00096E0FE013196A8EFB4E001900D929A95F5
:10460000E1F796E0E8EFF4E0D60101900D929A957B
:10461000E1F72696E8E00C9404338091DA048111E6
:1046200018C08091D80080618093D8008AE18A9573
:10463000F1F700C08091D90080FD02C082E001C086
:1046400081E08093DA04823021F40E94E71E109208
:10465000BA0281E09091DA04913009F080E0089587
:104660000F931F930E940D23882319F00E94B527F2
:104670000EC00E94B5270091E6011091E70120913C
:10468000E8013091E901600F711F821F931F1F9194
:104690000F910895A4E0B0E0E0E5F3E20C94EC3271
:1046A00060910605709107058091080590910905B4
:1046B0000E948A27643671058105910528F10E94C0
:1046C0003023DC01CB010296A11DB11D89839A83A1
:1046D000AB83BC8300E010E020E030E044E050E039
:1046E000BE016F5F7F4F84E00E94CC20182F88238B
:1046F00061F00E94B52760930605709307058093CB
:1047000008059093090501C011E0812F2496E4E08B
:104710000C940833F894E82FE295EF70F0E031A1A3
:10472000282F2F7081E090E001C0880F2A95EAF7CA
:10473000982F9095932391A392A1892B82A378948B
:1047400008959091F80192FF0DC0282F287128300C
:1047500019F4877F846006C0282F2471243011F457
:104760008B7F886093FF0DC0282F2871283119F4A2
:10477000877E846106C0282F2471243111F48B7E3A
:1047800088612091F90120FF0DC0382F3871383031
:1047900019F4877F816006C0382F3171313011F4F0
:1047A0008E7F886021FF0DC0282F2871283119F4D1
:1047B000877E816106C0282F2171213111F48E7E00
:1047C000886194FD877E08950E940D23882319F047
:1047D0000E94C12708950E943023CB010895A2E1D1
:1047E000B0E0E5EFF3E20C94E1329E012F5F3F4F22
:1047F00079018CE0D9011D928A95E9F703E711E070
:10480000690189E7682E81E0782EAA24A394B12C4F
:104810002FE7822E21E0922EF80180818F3F09F44C
:1048200040C0F894E82FE295EF70F0E021A18F707E
:10483000A50102C0440F551F8A95E2F7CA01922FC5
:10484000982B91A392A18095892382A3789400C08C
:10485000E9E7F1E0512C31E021912F3F89F0A22FBF
:10486000A295AF70B0E090968C9190E02F7002C04E
:10487000959587952A95E2F780FD02C0832F01C0A8
:1048800080E0582A330F8E169F0631F7D8018C919D
:104890008F3F11F00E948A23B0EABA95F1F7F60132
:1048A00050820F5F1F4FFFEFCF1ADF0A60167106AD
:1048B00009F0B2CF4CE050E0B7018AEE91E00E94DF
:1048C000A0338C01892B41F08CE0F701AAEEB1E016
:1048D00001900D928A95E1F7F090F701011511050D
:1048E00049F081E08093D2040E94C1279093D104C3
:1048F0008093D0048091D2048823B9F08091D004B1
:104900009091D1040E94A627059778F0AAEEB1E015
:10491000EF2DF0E0E45CFD4F80EF91E02D912193CD
:104920008A179B07D9F71092D2040115110509F0D7
:104930005AC10E940D23E091F7019E01235F3F4F72
:104940007901882309F498C086E0D9011D928A95DF
:10495000E9F70E2F10E0045C1D4F809126058A3088
:1049600050F441EE52E2B701C8010E94972088231B
:1049700009F457C00AC08091D3049091D4040E94D6
:10498000A627843F914068F75DC047E852E2B7012F
:10499000C8010E949720882309F443C04AE453E2E7
:1049A000B701C8010E9497208823D9F14DE052E257
:1049B000B701C8010E949720882399F140EF51E286
:1049C000B701C8010E949720882359F144E151E2C0
:1049D000B701C8010E949720882319F14FEB51E2DB
:1049E000B701C8010E9497208823D9F04FE951E20E
:1049F000B701C8010E949720882399F010922605DC
:104A00008091F60190E046E050E0B701845C9D4F54
:104A10000E94A03321E02093D904892BF1F400E017
:104A200029C0809126058F3F19F08F5F809326055E
:104A3000809126058A3020F30E94C1279093D404E8
:104A40008093D3048091D904882349F386E0F70149
:104A500011928A95E9F71092D904A091F601B0E07D
:104A6000A45CBD4F86E0FE013D9601900D928A95B3
:104A7000E1F701E010E0B9C0F0E0E45CFD4F86E052
:104A8000ACEDB4E001900D928A95E1F766E070E03C
:104A90008CED94E00E94DE298093DB0440911402A7
:104AA00050E06091130270E0615F7D4FC7010E948A
:104AB000AD338D858093E30461E070E0C7010E940F
:104AC000DE298093E204C090E404D090E504E090F5
:104AD000E604F090E7048091D5049091D604A0916B
:104AE000D704B091D804C816D906EA06FB06D1F05F
:104AF000C092D504D092D604E092D704F092D804A4
:104B00000E940D2381110EC00E94B527C61AD70A34
:104B1000E80AF90AC092E601D092E701E092E801C2
:104B2000F092E9018091E8048093C4028091E90445
:104B300080930E058091EA04809371058091EB04C7
:104B4000809317058091EC04809318058091ED0403
:104B50000E946E178091F5048823D9F184FF04C068
:104B60009091F6049093320580FF10C08091EE047E
:104B700080FF0AC09091630591609093630560E0A7
:104B800086950E948D2E02C00E94752E8091F5049C
:104B900081FF09C020E04091F1046091F004809110
:104BA000EF040E949C2C8091F50482FF09C0809143
:104BB000F404882319F00E94642A02C00E945D2A2E
:104BC0008091F50483FF03C081E080932C0510924F
:104BD000F5048091F704882319F00E94882905C004
:104BE0000E946E2902C001E010E0802F6296EFE083
:104BF0000C94FD3208958091AF020895089580933A
:104C00007D0570937F0560937E058091BA028430A4
:104C1000F9F48093E9008FEF9091E800815095FDC1
:104C200006C095ED9A95F1F700008111F5CF8091BE
:104C3000E80085FF0DC040E050E063E070E08DE7E4
:104C400095E00E946B208091E8008E778093E800C9
:104C50000895BC0184E00E94FF250895BC0183E013
:104C60000E94FF25089524E02093E9002FEF309162
:104C7000E800215035FD06C035ED3A95F1F700000A
:104C80002111F5CF2091E80025FF0BC040E050E056
:104C900066E070E00E946B208091E8008E77809340
:104CA000E8000895CF93DF9321E02093E9002FEFF0
:104CB0003091E800215035FD06C035ED3A95F1F709
:104CC00000002111F5CF2091E80025FF14C0EC0170
:104CD00040E050E068E070E00E946B208091E800C6
:104CE0008E778093E80088E0FE01A0EBB2E00190AF
:104CF0000D928A95E1F7DF91CF910895A3E0B0E09E
:104D0000E4E8F6E20C94EC328C018091630580FFBC
:104D100010C09E012F5F3F4F409166056091650571
:104D2000F80184810E94102C4B8169818A810E9444
:104D3000932BF80184818F5F84832396E4E00C94A5
:104D400008338091BC0287FF11C08091E80082FD8A
:104D500005C08091BA028111F8CF11C08091E8009E
:104D60008B770BC08091BA02882349F08091E800CC
:104D700080FFF8CF8091E8008E778093E800089557
:104D8000982F973068F59093E900981739F0709153
:104D9000EC002091ED005091F00003C0242F762FFD
:104DA00050E021FD02C09F5FECCF3091EB003E7FD1
:104DB0003093EB003091ED003D7F3093ED0030916A
:104DC000EB0031603093EB007093EC002093ED002A
:104DD0005093F0002091EE0027FDE5CF80E008958C
:104DE0008F708093E90081E008952091C202309194
:104DF000C3022617370748F06115710539F4209171
:104E0000E8002E772093E80001C0B901FC0120E002
:104E10006115710579F18091BA028823F1F185302D
:104E2000F1F18091E80083FD3CC08091E80082FDB3
:104E30002EC08091E80080FFEBCF2091F30080919D
:104E4000F20090E0922B6115710551F088309105C8
:104E500038F421912093F100615071090196F3CF4C
:104E600021E0089709F020E08091E8008E77809398
:104E7000E800CECF2111CFCF0AC08091BA0288239B
:104E800061F0853061F08091E80083FD0AC0809177
:104E9000E80082FFF2CF80E0089582E0089583E089
:104EA000089581E0089587E797E79093010880933C
:104EB00000089AE088E10FB6F894A8958093600006
:104EC0000FBE90936000FFCF78941F920F920FB6A1
:104ED0000F9211248F939F93AF93BF938091790585
:104EE00090917A05A0917B05B0917C050196A11D5A
:104EF000B11D8093790590937A05A0937B05B093BB
:104F00007C05BF91AF919F918F910F900FBE0F9035
:104F10001F901895CF92DF92EF92FF922FB7F894DF
:104F2000C0907905D0907A05E0907B05F0907C05E3
:104F30002FBFA7019601261B370B480B590BCA013F
:104F4000B901FF90EF90DF90CF9008959C014FB78B
:104F5000F8948091790590917A05A0917B05B091A4
:104F60007C054FBF821B930B08952FB7F894609177
:104F7000790570917A0580917B0590917C052FBF12
:104F800008952FB7F8948091790590917A05A091B2
:104F90007B05B0917C052FBF08951F920F920FB62D
:104FA0000F9211248F939F93AF93BF9380917805B5
:104FB000811113C08091790590917A05A0917B05AC
:104FC000B0917C054196A11DB11D80937905909308
:104FD0007A05A0937B05B0937C05BF91AF919F911B
:104FE0008F910F900FBE0F901F9018959C012A5F14
:104FF0003F4FFC014281461301C012820196821785
:105000009307B9F708959C01FC0132969FEF80E069
:105010004191461789F09F3F19F4411101C0982F23
:105020008F5F8630A9F79F3F39F0F901E90FF11D35
:1050300097FDFA9562830895089520917605309141
:1050400077052817390771F09093770580937605D7
:10505000E0917405F0917505309721F00084F18599
:10506000E02D099508952091720530917305281758
:10507000390771F09093730580937205E091740580
:10508000F0917505309721F00680F781E02D0995A4
:1050900008950E940D23811103C080917105089528
:1050A000E0917405F0917505309729F00190F08139
:1050B000E02D0995089580E008950F931F93CF93F5
:1050C000DF93C42FD22FFC0182818823B1F040935B
:1050D00070050E94C12790936F0580936E0580E252
:1050E0008C0F883008F04DC0C77081E001C0880F78
:1050F000CA95EAF70E94E92E44C0809170054813D2
:1051000030C080916E0590916F050E94A627883C63
:10511000910538F510E21D0FCD17B9F080E28C0F24
:10512000883040F4C77081E001C0880FCA95EAF763
:105130000E94E22E183010F581E09D2F977001C07B
:10514000880F9A95EAF70E94E92E802F0E94FA2F85
:105150001830B8F4D77081E001C0880FDA95EAF70B
:105160000AC080E28C0F883060F4C77081E001C013
:10517000880FCA95EAF70E94E22E03C0802F0E9492
:10518000FA2FDF91CF911F910F910895CF93DF9365
:10519000C7E6D2E060E0CE010E9432332196C1150D
:1051A00084E0D807B9F7DF91CF9108951F93CF938B
:1051B000DF93962F8430E8F46C30D8F44630C8F48E
:1051C000632F122FC42FD0E0CC0FDD1F2CE0929F55
:1051D000C00DD11D112490E9899FC00DD11D11244E
:1051E000CE0187960E943233612FCE0188960E94AD
:1051F0003233DF91CF911F910895A0E0B0E0E3E05A
:10520000F9E20C94E632A12CE12CF12CB12C00E057
:1052100010E0C0E0D0E06701C00ED11EFE01EE0F2D
:10522000FF1FEC0DFD1DE15FF64F259134914C2FD2
:105230006B2D8A2D0E94D6282196C630D10571F794
:10524000045F1F4FB3948CE0B812E3CF80E9E80EFF
:10525000F11CA39484E0A812D9CFCDB7DEB7EAE061
:105260000C9402330F931F93CF93DF93843008F590
:105270006C30F8F44630E8F4C42FD0E0CC0FDD1FDA
:105280002CE0629FC00DD11D112430E9839FC00D19
:10529000D11D1124CE0187960E941E3390E0182F55
:1052A0000027CE0188960E941E339801282BC90141
:1052B00002C080E090E0DF91CF911F910F9108959F
:1052C000843048F47C3038F4663028F4462F672F59
:1052D0000E943229089580E090E0089580916D0544
:1052E00090916C05882389F0992369F062E070E061
:1052F0008DE099E00E94B11B892B19F080916C051B
:10530000089510926C0590916C0581E089270895AD
:1053100080916D058823F9F00E94B527DC01CB014F
:10532000805A9541AF4FBF4F8093680590936905B0
:10533000A0936A05B0936B0580916C0581110BC039
:1053400062E070E08BE099E00E94B11B892B19F4B8
:1053500081E080936C0580916C050895CF93E82FD0
:105360002091CE043091CF04285C32404091C50298
:10537000642F70E0C9010E94CA32481B842FEE23BB
:1053800051F066E00E946633C82FC150A8F080E259
:105390000E94001BFACFA901480F511D4115524030
:1053A00018F080E020E030E0280F311D28533D4FF9
:1053B0003093CF042093CE04CF910895FC01680F61
:1053C000791F8FEF91E3E617F70771F0219182279C
:1053D00028E030E087FF03C0880F892701C0880FCD
:1053E00021503109B9F7EFCF089586E290E00E948D
:1053F00032330895CF93C82F811102C06FEF01C0DF
:1054000062E283E290E00E943233C11102C06FEF8A
:1054100001C065E084E290E00E943233C11102C015
:105420006FEF01C069E085E290E00E943233CF91D6
:10543000089580E00E94FA2960E070E0CB010E94AC
:10544000F5290E94FD280E94C62881E00E94FA29C1
:10545000089583E290E00E941E33823281F484E258
:1054600090E00E941E33853051F485E290E00E9466
:105470001E3391E0893009F090E0892F01C080E06F
:10548000817008959091630590FF04C096959817D8
:1054900048F003C0811106C090E0961718F40E94EE
:1054A000D72E089561E00E948D2E0895882311F073
:1054B000FA0101C0FB0109950895EFE2F5E01182C0
:1054C000828184608283089560916305669570E0AF
:1054D00041E050E08DE691E00E949333892B19F46E
:1054E00081E0809330050E94E42390932A05809305
:1054F0002905809131058460809331050895A5E0E8
:10550000B0E0E5E8FAE20C94E13250906F0180914E
:105510006305982F917080FF08C0809027059090B8
:10552000280581149104A9F42CC080917001209168
:105530007101821790F7E82FF0E0AF01440F551F7B
:10554000E40FF51FED5CFA4F1182108212828F5F1B
:10555000F0CF9923B1F0A12CB12C66246394712C67
:1055600020913205C3010A2C01C0880F0A94EAF782
:10557000822309F450C0F401C590D490C114D10421
:10558000C9F4E0916E0123E0E29FF0011124ED5C8B
:10559000FA4F269A85B18F7B95B190642FB7F89416
:1055A000AF0133E0539E400D511D112440C035E042
:1055B000C30ED11C45E050E0B601CE0101960E9419
:1055C000153309810F3F39F110E08A819801280FC6
:1055D000311DC9012131310514F080E190E07C01D9
:1055E000EE0CFF1C8E0D9F1D9C012D5C3A4F790126
:1055F000C801880F991F080F191F0D5C1A4F0E154F
:105600001F05A8F698014D816C818B810E94102C9A
:105610000D5F1F4FF4CF82E0880E911C9FEFA91AF7
:10562000B90A28E0A216B10409F09ACFAACF4E1702
:105630005F0789F0319168E095B9000000C037FF3D
:1056400085B9330F000000C000C000C085B900C09C
:105650006A9591F7ECCF2FBF8FE594E00197F1F7B2
:1056600000C000002596EFE00C94FD32FF920F93EE
:105670001F93CF93DF93EC01F12C0FEF10E06091BB
:105680007201F616F0F4809170012F2D30E0280F92
:10569000311DC901880F991F280F391F2D5C3A4F02
:1056A00070E0C8010E947233962F8C81409166058C
:1056B00060916505F99E800D11240E94102CF394D1
:1056C000DECF0E947F2A9A818C8190FF02C08F5F7B
:1056D00001C081508C83CDB7DEB7E5E00C94073371
:1056E00021E030E0A90102C0440F551F8A95E2F77E
:1056F000CA0120913205662311F0822B02C08095E9
:105700008223809332058091310580618093310539
:1057100080913005811106C08091630560E0869517
:105720000E948D2E08959091630590FF16C0909170
:10573000700120917101921770F4E92FF0E0DF0100
:10574000AA0FBB1FEA0FFB1FED5CFA4F818360833A
:1057500042839F5FF0CF0E947F2A08958091630566
:10576000282F269530E02115310519F481708260CB
:1057700005C02B30310524F081708461809363056E
:105780000895CF92DF92EF92FF926B017C010E940D
:10579000AE2BB701A60188E090E00E944433FF9051
:1057A000EF90DF90CF90089580916705882319F0DE
:1057B00081508093670560916305709164058091C5
:1057C0006505909166050E94C12B0895809167053B
:1057D000833018F48F5F8093670560916305709143
:1057E000640580916505909166050E94C12B08951E
:1057F000E3E6F5E083E0808311828FEF8283838389
:105800001482AFE2B5E012968C91129783601296E3
:105810008C9360817181828193810E94C12B089554
:10582000A0E0B0E0E6E1FCE20C94E632E82EF62ED1
:10583000E901E42FF0E0611106C0E15BF44FE4916F
:105840004E2F2E2F71C0062F10E0E15BF44F4491D4
:10585000F42FC42ED12C26E0829FC00111242FEFFB
:1058600030E0B9010E94CA325BEA5603C001579F7B
:10587000900D11248E0D911D8E0D911D582F550FD9
:10588000580FD901A01BB10BAC9DC001AD9D900D6F
:10589000BC9D900D1124E92FF59ED0011124AB2F52
:1058A000BB277901EA1AFB0AEC9CD001ED9CB00DF4
:1058B000FC9CB00D11245901A51AB108A09E7001DD
:1058C000A19EF00CB09EF00C1124EF2CFF242E1999
:1058D0003F092C9D80012D9D100D3C9D100D112424
:1058E000212F6230710591F048F461157105E1F0E6
:1058F00061307105B9F4242F4B2F16C06430710547
:1059000069F040F06630710579F00CC0242F492F02
:10591000E12F0AC0492FEF2F2B2F06C0292FE42F8C
:10592000412F02C0292FEB2F49832883EA83CDB76B
:10593000DEB7EAE00C940233A3E0B0E0E2EAFCE276
:105940000C94EA32182FF62E042FE22E8091630574
:1059500080FF41C0E82FE695F0E0E752FE4F9081CE
:1059600090932F058E7F823061F49E012F5F3F4F11
:10597000812F0E94102C4B8169818A810E94932B78
:1059800007C0923019F41091640502C09530D9F324
:1059900080916405181308C080916505F81204C051
:1059A00080916605081729F0809131058260809307
:1059B000310510936405F092650500936605EE20AD
:1059C00051F0609163057091640580916505909137
:1059D00066050E94C12B2396E6E00C940633E3E6AD
:1059E000F5E0438128E0421B08F440E021E06281B9
:1059F00081810E949C2C0895E3E6F5E0438128E034
:105A0000420F08F44FEF21E0628181810E949C2CBB
:105A10000895E3E6F5E0628128E0621B08F460E0A7
:105A200021E0438181810E949C2C0895E3E6F5E00A
:105A3000628128E0620F08F46FEF21E043818181E9
:105A40000E949C2C0895E3E6F5E0818121E04381EA
:105A5000628188500E949C2C0895E3E6F5E08181E4
:105A600021E043816281885F0E949C2C0895803FE1
:105A700039F490918A0597FF35C010928A0559C074
:105A8000813F29F490918A051916BCF32BC090919F
:105A90008905823F29F497FF25C01092890549C0E6
:105AA000833F19F41916CCF31DC090918B05893FE3
:105AB00029F41916BCF410928B053BC08A3F19F4E7
:105AC00097FF10C0F8CF8B3F39F490918C0597FF6A
:105AD00009C010928C052DC08C3F21F490918C054B
