:100000000C94F0060C940D070C940D070C940D073E
:100010000C940D070C940D070C940D070C940D0710
:100020000C940D070C940D070C9451150C947A1B2D
:100030000C94BE280C940D070C940D070C940D071E
:100040000C940D070C940D070C940D070C940D07E0
:100050000C940D070C942A160C940D070C940D07A4
:100060000C940D070C940D070C940D070C940D07C0
:100070000C940D070C940D070C940D070C940D07B0
:100080000C940D070C940D070C940D070C940D07A0
:100090000C940D070C940D070C940D070C940D0790
:1000A0000C940D070C940D070C940D070501090223
:1000B000A10185020901A100050919012905150001
:1000C00025019505750181029501750381010501E1
:1000D000093009311581257F950275088106093897
:1000E0001581257F950175088106050C0A380215D2
:1000F00081257F950175088106C0C005010980A191
:1001000001850319012AB700150126B7009501756D
:10011000108100C0050C0901A101850419012AA064
:1001200002150126A002950175108100C00660FF2E
:100130000961A1010962150026FF0095207508815B
:10014000020963150026FF00952075089102C0057D
:10015000010906A101050719E029E7150025019508
:1001600008750181029501750881010507190029AB
:10017000FF150026FF009506750881000508190186
:100180002905950575019102950175039101C0003E
:10019000000000000000000000000000000000005F
:1001A000000000000000000000000000000000004F
:1001B0000000007E0F00D4FFFFFFC70000007800A2
:1001C000000000000000002A2B28000000000000B2
:1001D0000000000000000000000029000000002CCA
:1001E0001E3420212224342627252E362D37382769
:1001F0001E1F202122232425263333362E37381F75
:100200000405060708090A0B0C0D0E0F1011121336
:100210001415161718191A1B1C1D2F3130232D35D4
:100220000405060708090A0B0C0D0E0F1011121316
:100230001415161718191A1B1C1D2F3130354C00B8
:10024000DA0281FFD9F1DB20A4A62EAF00A0C00006
:10025000A1C800AED580A81FD300408D1420001E79
:100260000F05643214783C1E1E140A05208E8F90F0
:1002700000CACBCCCD00AAABACADAE008A8B8C8DC6
:100280000020202020005343522000202020200066
:10029000434150200020202020004E554D200000DA
:1002A000556E64656600464E203300464E2032008F
:1002B000464E20310042617365004C6179657200E1
:1002C000FD377A585A000004E6D6B44602002101F0
:1002D00016000000742FE5A3E0055801CE5D003D37
:1002E0008889C65436C3174FE4E2A41EBE23B1C7A3
:1002F0006ABBF4BDC0935A4355CA32733947446050
:100300001F298E4B1B58F56CA1E177784248FF05F9
:1003100053158D88F0BC5B3F27A5621E4E12815796
:10032000ADF4B982366E714996FF28C715A7778854
:10033000C966D19E6DD0C3302E1C849CDF75814A66
:10034000827AB614647D4E629941A0AAB5B9A055CF
:100350003603311FF0ADEFACBA023BC5DB496F7716
:10036000E413C6C21B3EF2F6E2439383F6858D1773
:10037000785A488C5B879427251083A12ACAF356A4
:10038000C809FD28763FC8347D8FEB1D20AA714532
:1003900014470892960349A5D1C8677B3D66A42DF2
:1003A0000873C2CB98ADECFD91F744592F3AA78E54
:1003B0009A00A856B352F7ED753B0DC1036864CAA5
:1003C000A017E6BDD31A05A1B0B11075B4EB2D5836
:1003D00013EC52C5A9CF2E883B512A3426257E9195
:1003E00031EE756F03B7C1BFE364D0AB8C86ECC34D
:1003F0002F43891F546F42EAB967B40D1170A6717B
:100400007C85EEC7A4D6640CF8DE79681AB84EF283
:1004100051BA27A0E8846F3599A3E65B0453BF1D4A
:10042000B3D0CF29D8C7BE772AB650CA4CE336F22C
:100430002794A70D2C42F1FBB007A24F3DC980DDE8
:10044000DDF6FDD5B983DA475CDD9CCA03F13FBF19
:10045000125407268E5B9F5946F813E2508699E5A1
:100460003C55C1B58EA49A5F9812111D474B80F67A
:100470005ECCD13117CDC7930388B2C4C6CD9EA739
:10048000A46488DABCE480CCD244EA6E4BF9E0661E
:10049000CE35C4C6E97B57656CEB9FD08DE21D411C
:1004A000E458D5FEFFE7745D250AF543000000001F
:1004B000D4E11AAA1D555C8E0001EA03D90A000096
:1004C0002CE5E165B1C467FB020000000004595A45
:1004D0000001010101010101010102020202020207
:1004E00002020203030303030303030404040404DA
:1004F00004040505050505060606060607070707A1
:100500000708080808090909090A0A0A0B0B0B0C55
:100510000C0C0D0D0D0E0E0E0F0F0F1010111111F2
:100520001212131314141515161617171818191973
:100530001A1A1B1B1C1D1D1E1E1F202021222223D8
:100540002424252626272829292A2B2C2D2D2E2F19
:1005500030313232333435363738393A3B3C3D3E30
:100560003F404142434445464748494A4C4D4E4F1F
:1005700050515354555658595A5B5D5E5F616264E1
:10058000656668696B6C6D6F7072737577787A7B6E
:100590007D7E8082838587888A8C8E8F91939596C5
:1005A000989A9C9EA0A2A3A5A7A9ABADAFB1B3B5E5
:1005B000B7BABCBEC0C2C4C6C9CBCDCFD1D4D6D8C1
:1005C000DBDDDFE2E4E7E9EBEEF0F3F5F8FAFDFF5F
:1005D000FFAA7F55402223252628292A2C2D2F309B
:1005E00032333536383A3B3D3E4042434547494A2F
:1005F0004C4E5051535557595A5C5E606264666860
:10060000696B6D6F71737577797B7D7F818385876A
:10061000898A8C8E90929496989A9C9E9FA1A3A56D
:10062000A7A8AAACAEAFB1B3B4B6B8B9BBBCBEBF95
:10063000C1C2C3C5C6C7C9CACBCCCDCED0D1D2D218
:10064000D3D4D5D6D7D7D8D9D9DADADBDBDBDCDC23
:10065000DCDCDCDDDDDDDDDCDCDCDCDCDBDBDBDADB
:10066000DAD9D9D8D7D7D6D5D4D3D2D2D1D0CECD46
:10067000CCCBCAC9C7C6C5C3C2C1BFBEBCBBB9B853
:10068000B6B4B3B1AFAEACAAA8A7A5A3A19F9E9CD8
:100690009A98969492908E8C8A89878583817F7DA3
:1006A0007B79777573716F6D6B6968666462605E84
:1006B0005C5A5957555351504E4C4A49474543424D
:1006C000403E3D3B3A3836353332302F2D2C2A29E7
:1006D0002826252322AA00A900010001000100010B
:1006E0000001000100AA00A90001000100010001B1
:1006F000000100010001003A003B003C003D000108
:1007000000530054005500560001005F0060006176
:10071000005700A8005C005D005E00000001515918
:10072000005A005B0058002A0062000000630000CD
:1007300000010001000100010001000100010001B1
:1007400000010001000100C65CCB5CC55C0100013A
:1007500000C45CC25CC35C00000100CA5CCC5CC924
:100760005C01000100C85C0000C75C0000010001E2
:100770000001000100010001000100010001000171
:100780000001000100010001000100010001000161
:100790000001000000010001000100010001000152
:1007A0000001000100010000000100010001000142
:1007B0000001000100010001000100010001000131
:1007C0000001000100010001000100010001000022
:1007D0000001000100010001000100010001000111
:1007E000000100000000AF00AE09025B0003010041
:1007F000A0FA090400000103010100092111010010
:1008000001224000070581030800010904010002DC
:1008100003000000092111010001222200070582C6
:100820000320000107050303200001090402000161
:100830000300000009211101000122810007058445
:10084000032000011201000200000008776D051767
:100850000103010203011C037600690061006C00C2
:100860003A00660036003400630032006200330054
:100870006300000012034D007500720070006800F4
:10088000500061006400000012034D006500630029
:100890006800570069006C0064000000040309044C
:1008A0000000000000003E5B4F5B3E003E6B4F6B64
:1008B0003E001C3E7C3E1C00183C7E3C18001C5731
:1008C0007D571C001C5E7F5E1C0000183C18000059
:1008D000FFE7C3E7FF00001824180000FFE7DBE78D
:1008E000FF0030483A060E00262979292600407F6D
:1008F00005050700407F05253F005A3CE73C5A00AC
:100900007F3E1C1C0800081C1C3E7F0014227F2216
:1009100014005F5F005F5F0006097F017F000066D3
:1009200089956A0060606060600094A2FFA29400F4
:1009300008047E04080010207E20100008082A1CED
:100940000800081C2A0808001E10101010000C1EB9
:100950000C1E0C0030383E383000060E3E0E0600ED
:1009600000000000000000005F000000000700071A
:100970000000147F147F1400242A7F2A12002313FE
:100980000864620036495620500000080703000042
:10099000001C224100000041221C00002A1C7F1C78
:1009A0002A0008083E08080000807030000008088F
:1009B0000808080000006060000020100804020021
:1009C0003E5149453E0000427F400000724949497E
:1009D00046002141494D33001814127F100027456D
:1009E000454539003C4A4949310041211109070078
:1009F000364949493600464949291E00000014007D
:100A000000000040340000000008142241001414CB
:100A100014141400004122140800020159090600B0
:100A20003E415D594E007C1211127C007F494949BC
:100A300036003E41414122007F4141413E007F4915
:100A4000494941007F09090901003E4141517300B4
:100A50007F0808087F0000417F4100002040413F9F
:100A600001007F08142241007F40404040007F0287
:100A70001C027F007F0408107F003E4141413E0080
:100A80007F09090906003E4151215E007F091929AD
:100A9000460026494949320003017F0103003F40D7
:100AA00040403F001F2040201F003F4038403F0093
:100AB0006314081463000304780403006159494D6A
:100AC0004300007F41414100020408102000004122
:100AD00041417F00040201020400404040404000C8
:100AE0000003070800002054547840007F28444445
:100AF0003800384444442800384444287E003854A0
:100B00005454180000087E0902001824241C7800A0
:100B10007F080404780000447D4000002040403DF0
:100B200000007F102844000000417F4000007C044A
:100B3000780478007C080404780038444444380081
:100B40007C1824241800182424187C007C08040431
:100B5000080048545454240004043F4424003C40FA
:100B600040207C001C2040201C003C4030403C00C9
:100B70004428102844004C9090907C004464544CCD
:100B800044000008364100000000770000000041EA
:100B9000360800000201020402003C2623263C0025
:100BA000000000E0FEFFFEF8C00000000000E0FCD6
:100BB000FFFEF0C00000000000000000013EE080E9
:100BC000700E0100000000073CE080780700000084
:100BD000000000000000000000000000000000E035
:100BE000FEFFFEF8C00000000000E0FCFFFEF00089
:100BF00000000000013EE080700E010000000007D0
:100C00003CE08078070000000000000000000000C9
:100C100000000000000000000000000000000000D4
:100C200000000000000000000000000000000000C4
:100C300000000000000000000000000000000000B4
:100C400000000000000000000000000000000000A4
:100C50000000000000000000000000000000000094
:100C60000000F8FFFF1F071FFFFEF0C0F8FFF707A7
:100C7000077FFFFFF800C0380C186080000000F00C
:100C80000C04F41C00000000000080C0FCE6C3C19E
:100C9000C1C3E6FCC0800000000000000000F8FFB7
:100CA000F707071FFFFEF0C0F83F8F0F3FFFFFFE63
:100CB00080F00C04F41C00000000000000000000A4
:100CC0000000000000000000000000000000000024
:100CD0000000000000000000000000000000000014
:100CE0000000000000000000000000000000000004
:100CF00000000000000000000000000000000000F4
:100D000000000000000000000000000000000000E3
:100D100000000000000000000000000000000000D3
:100D2000001F1F1F0700000000031F1F0F01030605
:100D3000F800077F3F0EC138070E70831C601E034A
:100D4000C03E01000000000000003F7FFFFFF9C02F
:100D5000C0F9FFFF7F3F000000000000001F1F1FC1
:100D60000706F80000733F0FC138070F7083077F35
:100D70001F03C03E01000000000000000000000052
:100D80000000000000000000000000000000000063
:100D90000000000000000000000000000000000053
:100DA0000000000000000000000000000000000043
:100DB0000000000000000000000000000000000033
:100DC0000000000000000000000000000000000023
:100DD0000000000000000000000000000000000013
:100DE00011241FBECFEFDAE0DEBFCDBF25E0A2EBBE
:100DF000B1E001C01D92AB3FB207E1F711E0A0E006
:100E0000B1E0EEE0FBE602C005900D92A23BB10717
:100E1000D9F70E94E5280C9461350C94000090915C
:100E2000F003899FC0011124811522E0920714F07C
:100E300090E080E08D509C4F9093FA058093F905E7
:100E40000895E8EDF0E080818E7F80831092E200CB
:100E50001092DA001092E100A0EEB0E08C91816077
:100E60008C9380818F77808319BCA7EDB0E08C9143
:100E70008E7F8C9380818F7E80831092D70308951C
:100E80002091E4003091E50095E6A9012091EC0065
:100E9000822F817020FF06C08091E80080FF06C08D
:100EA00080E008952091E80022FD1AC08091EE03B1
:100EB000882389F0853089F08091EB0085FD0FC093
:100EC0002091E4003091E50042175307F9F2915068
:100ED000E1F684E0089582E0089583E0089581E0DA
:100EE0000895EF92FF920F931F93CF937C018B0194
:100EF0000E944007C82F811117C08091E80085FD2E
:100F00000BC08091E8008E778093E8000E94400734
:100F1000882399F3C82F08C0F70181917F0180933E
:100F2000F1000150110949F78C2FCF911F910F91BA
:100F3000FF90EF900895CF93FC018091EE038430F1
:100F400001F5C091E900CF702091EC00922F9170D3
:100F500020FD90E8C92B82E08093E9008091E800B1
:100F600080FF0CC050E040E060E270E0CF010E94E2
:100F700071078091E8008E778093E800CF70C0936E
:100F8000E900CF9108958091E60387FF13C0809117
:100F9000E80082FF06C08091E8008B778093E8002C
:100FA00004C08091EE038111F2CF08958091EE0389
:100FB0008823D9F38091E80080FFF8CF8091E80082
:100FC0008E77ECCF982F9093E900242F762F50E066
:100FD000891731F07091EC002091ED005091F000F4
:100FE00021FD07C09F5F973071F78093E90081E092
:100FF00008953091EB003E7F3093EB003091ED008F
:101000003D7F3093ED003091EB0031603093EB0089
:101010007093EC002093ED005093F0002091EE00CF
:1010200027FDE0CF80E00895CF92DF92EF92FF920C
:101030000F931F93CF93DF93C8EDD0E088818F7E0D
:101040008883E7EDF0E080818160808384E082BF67
:1010500081E08093D70388818E7F888302EE10E041
:10106000F80110821092DA0081EEC82ED12CF60120
:10107000108288818F7788838881806888838881BF
:101080008F7D888319BC1092EE031092E5031092B5
:10109000E4031092E30390EEE92EF12CF701808136
:1010A0008B7F808388818160888342E060E080E07C
:1010B0000E94E207F60180818E7F8083F8018081A3
:1010C00081608083808188608083F70180818E7F4A
:1010D0008083888180618883DF91CF911F910F91F8
:1010E000FF90EF90DF90CF900895FC018091EC038A
:1010F0009091ED0386179707A0F06115710529F40B
:101100009091E8009E779093E80090E0611571055A
:1011100051F4911108C08091E80082FF34C080E052
:101120000895BC01F2CF8091EE038823C1F1853090
:10113000C1F18091E80083FD30C08091E80082FD1C
:10114000EACF8091E80080FFE1CF8091F300209109
:10115000F200382F6115710519F02830310558F06B
:1011600091E02830310509F090E02091E8002E77D9
:101170002093E800CBCF81918093F10061507109F9
:101180002F5F3F4FE7CF8091EE03882341F08530FA
:1011900041F08091E80083FFBECF81E0089582E0B6
:1011A000089583E0089508958091DA03089587E70C
:1011B00097E7909301088093000888E19AE00FB6C2
:1011C000F894A895809360000FBE90936000FFCFC5
:1011D0002FB7F8946091D0037091D1038091D2031E
:1011E0009091D3032FBF08952091CD033091CE036A
:1011F0002817390771F09093CE038093CD03E091C7
:10120000CB03F091CC03309721F00084F185E02DE1
:10121000099408952091C9033091CA03281739070A
:1012200071F09093CA038093C903E091CB03F091CE
:10123000CC03309721F00680F781E02D09940895C2
:10124000E091CB03F091CC03309721F00190F08135
:10125000E02D099480E00895DC016091C503809140
:10126000C603962F891301C00895292F30E0F90194
:10127000EE0FFF1FE354FC4F408151814A175B077B
:10128000A1F487E08A9FA0018B9F500D11244B573A
:101290005C4F81E0FA0184839613E6CF2F5F3F4FC6
:1012A000237033272093C50308952F5F3F4F922F5C
:1012B0009370D8CF1092210310922003E5E8F3E059
:1012C0008581811102C014821682379683E0ED3B3E
:1012D000F807B1F70895FA01811101C0FB010994E3
:1012E00008958091BE02982F9E7F29F481708260BC
:1012F0008093BE0208958E33E8F381708C63F8CF3B
:10130000AF92BF92DF92EF92FF920F931F93CF9312
:10131000DF93082F162FE901E42FF0E0E053FB4F95
:10132000611110C0E4915E2F4E2F4983E8835A83E8
:10133000DF91CF911F910F91FF90EF90DF90BF90C1
:10134000AF900895E62EF12C4491D42EE42FF0E0D6
:1013500026E0829FC00111242FEF30E0B9010E94E6
:10136000BB33802F90E0880F991F55E5569FD00121
:10137000579FB00D11248A1B9B0B982F990F890F33
:101380005901AE18BF08AE9ED001AF9EB00DBE9EF3
:10139000B00D11245B2F189F80011124012F1127FC
:1013A0005901A01AB10AAE9E8001AF9E100DBE9EDB
:1013B000100D11245901A81AB108AE9CC001AF9CB0
:1013C000900DBE9C900D1124892F9927281B390B55
:1013D0002E9FC0012F9F900D3E9F900D1124E92F4D
:1013E00062307105A1F050F46115710509F49DCFCB
:1013F0006130710581F0EB2F512F97CF643071056B
:1014000069F080F06630710509F48FCFF4CFE42FD6
:101410004B2F592F8ACFE42F412F87CFEB2F542FFB
:10142000492F83CF4B2F5D2DE12F7FCF90917202FB
:10143000803F59F48091730287FF0DC010927302B0
:1014400091110BC010926A0208C0813F81F4809113
:10145000730218169CF3992381F080917402909185
:101460007502892B09F064C0109269020895823FC9
:1014700049F497FFF0CF10927202809173028111AC
:10148000ECCFE0CF833F19F41916ACF3E4CF2091F1
:101490007402893F29F41216F4F610927402DBCF1D
:1014A0008A3F19F427FFD7CFF8CF209175028B3FE1
:1014B00029F427FFD0CF10927502CDCF8C3F19F4BD
:1014C0001216CCF3C8CF843F31F4809171028E7F25
:1014D00080937102C0CF853F21F4809171028D7F8E
:1014E000F7CF863F21F4809171028B7FF1CF873F48
:1014F00021F480917102877FEBCF883F21F48091A6
:1015000071028F7EE5CF8D3F31F480916B028E7F2B
:1015100080936B02A0CF8E3F21F480916B028D7F70
:10152000F7CF8F3F09F097CF80916B028B7FF0CF81
:10153000089580916B0280FD16C081FD16C082FD6A
:1015400016C0809169028823A1F0883280F428E0D7
:10155000829FC001112468E270E00E94DB33862F75
:10156000672B39F0089582E0089584E0089588E0BB
:10157000089581E0089580916B0280FD14C081FD83
:1015800014C082FD16C080916A02882381F08E31DA
:1015900080F420E5829FC00111246EE170E00E947A
:1015A000DB33862F089584E1089588E2089588E06A
:1015B000089580E50895803F31F40E94BB0A81952B
:1015C000809373020895813F19F40E94BB0AF8CFFB
:1015D000823F31F40E94BB0A819580937202089584
:1015E000833F19F40E94BB0AF8CF893F29F40E9477
:1015F000990A8093740208958A3F21F40E94990AFF
:101600008195F7CF8B3F31F40E94990A81958093A1
:10161000750208958C3F19F40E94990AF8CF843F0F
:1016200031F4809171028160809371020895853F49
:1016300021F4809171028260F7CF863F21F480917E
:1016400071028460F1CF873F21F48091710288603C
:10165000EBCF883F21F4809171028061E5CF8D3F0F
:1016600031F480916B02816080936B0208958E3F0C
:1016700021F480916B028260F7CF8F3FB9F78091A0
:101680006B028460F1CF80E00895F894E82FE29532
:10169000EF70F0E031A1282F2F7081E090E001C0C1
:1016A000880F2A95EAF7982F9095932391A392A1FA
:1016B000892B82A37894089590912A0292FF06C004
:1016C000282F28712830F9F4877F846093FF06C0A3
:1016D000282F28712831F1F4877E846120912B0214
:1016E00020FF06C0382F38713830D9F4877F8160E9
:1016F00021FF06C0282F28712831D1F4877E81610F
:1017000094FD877E0895282F24712430F9F68B7F6D
:101710008860DCCF282F2471243101F78B7E88610B
:10172000DDCF382F3171313019F78E7F8860E0CFEF
:10173000282F2171213121F78E7E8861E1CFCF934F
:10174000DF93EC0182389105A9F1D8F58133910539
:1017500009F496C048F58932910509F48AC08A9740
:1017600009F495C0C11521E5D20708F0BCC0C11528
:1017700030E5D30708F014C1C83ED10508F09CC07D
:10178000C03ED10560F5C83AD10508F087C0C53A1A
:10179000D10508F0FDC0C130D10509F12097F9F05D
:1017A000C430D105E0F440C08533910509F45AC036
:1017B000C997C1F680912A02837089F0C0EED0E00B
:1017C0000EC0833E910599F170F4803E910501F1C0
:1017D000823E910539F680912A0282FD21C0CE0118
:1017E000DF91CF910895863E910561F1873E910585
:1017F00071F1843E910509F0B5CF80912B0281FFF4
:10180000EECF80912A02C7EED0E084FD0DC0E7CF75
:1018100080912A0280FD12C190912B0290FFDFCFB0
:10182000C3EED0E084FFDBCFD0E0C0E0D8CF809122
:101830002A0282FD06C190912B0290FDBFCF84FF4A
:10184000CECFF2CF80912A0283FDDDCFC8CF809129
:101850002A0283FDF9C090912B0291FFF0CFC4EED4
:10186000D0E0BDCF80912A0285FFB9CFC9E2D0E098
:10187000B6CF80912A0285FFB2CFC5E3D0E0AFCFCB
:1018800080912A0286FFABCFCAE2D0E0A8CF809138
:101890002A0286FFA4CFC1E3D0E0A1CFCF3BD10580
:1018A00018F6C85AD0E0CC0FDD1FC15DDE4F09909D
:1018B000D881C02DD46493CFC11540E2D40758F429
:1018C000C11581E0D80708F08ACFC03FD10508F4E0
:1018D000ABCFD06584CFC11590E4D90708F4A4CF6D
:1018E000DF70D06A7CCFC11525E5D20700F5C115A0
:1018F00034E5D30708F08AC0C11543E5D40708F0E2
:1019000071C0C11582E5D80708F467C0CE018370A5
:10191000992721E030E002C0220F331F8A95E2F7B9
:10192000C695C69580E2C89FE001112452C0C1153A
:1019300099E5D907A8F4C11528E5D20708F06BC0CE
:10194000C11536E5D30708F06FCF8C2F0E945C0BD2
:10195000C82FD0E0DC2FCC27CC27DF71D0623FCF5F
:10196000C1154AE5D40708F45BC0CE019056811535
:10197000904208F059CF8D2F8F710E945C0B90E040
:10198000982F882788279F719C012C2BE901E6CF8F
:10199000C55AD0E0C45DDE4FC881D0E0D0641FCF0F
:1019A000CE01E4E096958795EA95E1F783702C2FB8
:1019B00026952695237040E2249F90011124382B10
:1019C0008C2F8370C1E0D0E002C0CC0FDD1F8A9560
:1019D000E2F7C22BD32BDC6802CFDC2FCC27C16F00
:1019E000D06AFDCECE018370992721E030E002C09D
:1019F000220F331F8A95E2F7C695C69590E2C99FDC
:101A0000E0011124C22BD32BDA68E9CEDC2FCC27DE
:101A1000C46FD06AE4CEDC2FCC27C06FD06ADFCE93
:101A20008C2F8F700E945C0B34E0D695C7953A9549
:101A3000E1F7CF709C2FEC01D069D1CEC9E3D0E0A3
:101A4000CECEC2EED0E0CBCEC6EED0E0C8CE8091F6
:101A50002002882331F01092200210921F0210926F
:101A60001E02089580959091D80398239093D803EF
:101A70000895109215021092140210921302089504
:101A80008091120281111092120208958091110228
:101A90009091D001981301C008958F5F8770FACF9D
:101AA0009E3F51F1292F220F220FE22FE90FE80F5D
:101AB0009E2F9770E695E695E69583E0E89FF00106
:101AC0001124E454FE4F50E040E080E0219130E0EA
:101AD000092E02C0369527950A94E2F72170332724
:101AE000042E01C0220F0A94EAF7822B4F5F5F4F4A
:101AF0004330510559F7089580E008959E3F71F1F4
:101B0000292F220F220FE22FE90FE80F8E2F877067
:101B100041E001C0440F8A95EAF7E695E695E6951F
:101B200083E0E89FF0011124E454FE4F30E020E010
:101B300070E05191DF011197CB01022E02C0969502
:101B400087950A94E2F781708195852784238527FC
:101B50008C932F5F3F4F2330310559F70895982F0D
:101B600092959F7011F0892F94E0282F2695269545
:101B700011F09E5F822F869509F09F5F892F08954F
:101B80009C013A9521153F4150F5FC01EE27F1707B
:101B9000BC0166277270AC01442754709C01222757
:101BA000387094FF0EC080E1EF2B09F480E0672BC2
:101BB00009F08062452B09F08064232B89F080684E
:101BC000089581E0EF2B09F480E0672B09F0826033
:101BD000452B09F08460232B19F08860089580E07C
:101BE0000895CF93DF93682F81E06A3019F06D304C
:101BF00029F480E0DF91CF910C94800E8091F9055B
:101C00009091FA0526E0FC01A3EFB5E001900D925A
:101C10002A95E1F7603E08F45AC026E0FC011192D3
:101C20002A95E9F7C091F905D091FA0546E050E010
:101C3000BE0183EF95E00E948A349E01235F33400A
:101C4000892B41F1C90145E0969587954A95E1F7C1
:101C500041E050E0BA0102C0660F771F8A95E2F7B3
:101C6000CB016091F1037091F203862B972BB901A0
:101C70006B5F7F4FE5E076956795EA95E1F702C0E7
:101C8000440F551F6A95E2F7842B952B9093F2032E
:101C90008093F1032A5F3F4F4091F003642F70E07F
:101CA000C9010E94BB33481B463010F4240F311D7C
:101CB000211572E0370710F030E020E02D503C4F46
:101CC0003093FA052093F905DF91CF910895F6E05E
:101CD0006F9FB00111246056774F46E050E00E949C
:101CE0007434A0CFCF93DF93EC01FE018491811176
:101CF00003C0DF91CF9108950E94F10D2196F5CF99
:101D0000CF93382FE091F905F091FA05E35FF340A6
:101D10002091F003622F70E0CF010E94BB33281B9B
:101D2000822F332361F066E00E94CF33C82FC15069
:101D300010F4CF91089580E20E94F10DF8CF9F0139
:101D4000280F311D2115324018F080E0F0E0E0E06E
:101D50008E0F9F2F911D8D509C4F9093FA0580936D
:101D6000F905E7CF0E94720E81E00C94800ECF92AD
:101D7000DF92EF92FF920F931F93CF93DF936C014B
:101D80007B0164E670E088E70E94BA32EC0197FDBF
:101D900012C010E000E0F601E00FF11F849164E64C
:101DA00070E00E943433EC01892B29F40F5F1F4F40
:101DB0000E151F0581F70E94B733CE01DF91CF9139
:101DC0001F910F91FF90EF90DF90CF900895809139
:101DD0001E0390911F03911103C091E0892708957C
:101DE000882369F062E070E087EE97E00E94B70E0A
:101DF000892B19F080911E03089510921E03809183
:101E00001E03EBCFCF93C0911E0380911F03882345
:101E1000D1F00E94E808605A75418F4F9F4F609340
:101E20001A0370931B0380931C0390931D03C1112D
:101E300008C062E070E085EE97E00E94B70E892B43
:101E400029F0C0911E038C2FCF91089581E08093DB
:101E50001E03F7CF8093D4037093D6036093D5030A
:101E60008091EE038430F9F48093E9008FEF909134
:101E7000E800815095FD06C095ED9A95F1F70000B8
:101E80008111F5CF8091E80085FF0DC050E040E062
:101E900063E070E084ED93E00E9471078091E800B8
:101EA0008E778093E8000895BC0184E00C942A0F9B
:101EB000BC0183E00C942A0F9C0184E08093E9002C
:101EC0009FEF8091E800915085FD06C085ED8A95D1
:101ED000F1F700009111F5CF8091E80085FF0CC06B
:101EE00050E040E066E070E0C9010E947107809117
:101EF000E8008E778093E8000895CF93DF93EC019C
:101F000081E08093E9008FEF9091E800815095FD8A
:101F100006C095ED9A95F1F700008111F5CF8091FB
:101F2000E80085FF14C050E040E068E070E0CE01BA
:101F30000E9471078091E8008E778093E80088E026
:101F4000FE01ABEDB3E001900D928A95E1F7DF91D0
:101F5000CF9108958091BE0280FD0AC0EEE7F2E0C5
:101F6000118210821282339652E0E639F507C1F7EA
:101F7000849A31B33F7E21B320614FB7F8948EE746
:101F800092E0FC015191CF0168E021BB000000C04C
:101F900057FF31BB550F000000C000C000C031BB6F
:101FA00000C06A9591F7F2E086399F0751F74FBF5D
:101FB0008FE594E00197F1F700C000000895EF92DB
:101FC000FF921F93CF93DF93EC018EE7E82E82E020
:101FD000F82E10E08C8197014091C1026091C002FF
:101FE000810F0E948009115E83E0E80EF11C183F0A
:101FF00089F70E94AA0F9A818C8190FF08C08F5F99
:102000008C83DF91CF911F91FF90EF9008958150C5
:10201000F7CF9091BE0290FF0CC0EEE7F2E0818313
:1020200060834283339692E0E639F907C1F70C9456
:10203000AA0F0895CF93DF9300D00F92CDB7DEB7EC
:102040009091BE0290FF0AC09E012F5F3F4F0E94F9
:1020500080094B8169818A810E9409100F900F903D
:102060000F90DF91CF910895CF93DF93EC01EEEBCA
:10207000F2E0438162818C810E941A108C818F5F13
:102080008C83DF91CF910895CF93DF93EC01EC81A6
:10209000F0E0EB52FA4F4491EEEBF2E06281818185
:1020A0000E941A108C818F5F8C83DF91CF910895ED
:1020B000CF93DF93C7E8D1E060E0CE010E94C23445
:1020C0002196C11584E0D807B9F7DF91CF91089523
:1020D0001F93CF93DF93122F843010F5623000F5F9
:1020E0004230F0F428E0829FC001112424E0629F76
:1020F000E00111248C0F9D1FC42FD0E0CC0FDD1FF9
:10210000C80FD91FC95EDE4F632FCE010E94C234B3
:10211000612FCE010196DF91CF911F910C94C234B3
:10212000DF91CF911F9108950F931F93CF93DF936A
:102130008901843048F5663038F5453028F5211599
:102140003C4531F42091140330911503232BE1F029
:10215000C42FD0E0CC0FDD1F9AE0699FC00DD11DC8
:1021600011249CE3899FC00DD11D1124612FCE0144
:1021700087960E94C234602FCE018896DF91CF915E
:102180001F910F910C94C234DF91CF911F910F9149
:102190000895CF93C82F6FEF811162EA83E290E038
:1021A0000E94C2346FEFC11163E084E290E00E94AC
:1021B000C2346FEFC11169E885E290E0CF910C94D1
:1021C000C2345F926F927F928F929F92AF92BF9232
:1021D000CF92DF92EF92FF920F931F93CF93DF93F3
:1021E000CDB7DEB72A970FB6F894DEBF0FBECDBFCE
:1021F000809014039090150381E090E09093150374
:102200008093140385EDA82E86E0B82E95EFC92E95
:1022100096E0D92E10E0760100E015C0F30125917B
:102220003491452D602F812F0E94941082E0680E1A
:10223000711C539495E05912F1CFEAE0EE0EF11CB7
:102240000F5F063019F03701512CE8CF750100E01F
:10225000F7012591349140E0602F812F0E94681092
:10226000F70132962591349141E0602F812F0E9431
:102270006810F4E0EF0EF11C0130C9F588E0A80EFB
:10228000B11C1F5F9CE3C90ED11C143009F0C3CFF1
:10229000FE0131967F018AE011928A95E9F707E302
:1022A00011E04AE050E0B801C7010E94E634065F41
:1022B0001F4F0738F1E01F07A1F790921503809296
:1022C00014032A960FB6F894DEBF0FBECDBFDF9180
:1022D000CF911F910F91FF90EF90DF90CF90BF9023
:1022E000AF909F908F907F906F905F90089501E0E6
:1022F000AFCF80E00E94C91060E086E290E00E94CB
:10230000C2340E94E1100E94581081E00C94C91060
:102310000F931F93CF93DF93843038F5623028F505
:1023200028E0829FC001112434E0639FB001112492
:10233000860F971FC42FD0E0CC0FDD1FC80FD91F09
:10234000C95EDE4FCE010E94AE34082F10E0102F80
:102350000027CE0101960E94AE349801282BC901B6
:10236000DF91CF911F910F91089590E080E0F8CF19
:102370000F931F93CF93DF93843030F5663020F5B1
:10238000453010F5C42FD0E0CC0FDD1F2AE0629F4E
:10239000C00DD11D11243CE3839FC00DD11D11241C
:1023A000CE0187960E94AE34082F10E0102F002730
:1023B000CE0188960E94AE349801282BC901DF9186
:1023C000CF911F910F91089590E080E0F8CF462FB4
:1023D0002091180330911903232B91F47E3F39F497
:1023E0006E3F71F480911603909117030895843025
:1023F00038F4763028F4653018F4672F0C94B8114F
:1024000090E080E00895CF92DF92FF920F931F93A8
:10241000CF93DF936C010091EF038091C302082BEF
:10242000C7E0D0E010E0FC2EC8010C2E02C095954C
:1024300087950A94E2F780FD0CC02197A0F7F12C54
:102440008F2DDF91CF911F910F91FF90DF90CF9053
:102450000895B6018C2F0E94E7110E949F0B0197EF
:1024600061F3EECFCF93DF93EC010E940312BE0124
:102470000E94E711DF91CF910C949F0BFC018681A4
:102480009781009791F00E949F0B92959F709630D4
:10249000B9F080F4925F9F70923080F4803F19F021
:1024A00058F4883E58F481E00895808191810E941B
:1024B0003212EBCF9A5FEFCF843FA9F380E008950B
:1024C000883E88F3813FD1F7EECF1F93CF93DF9300
:1024D00000D000D00F92CDB7DEB7FC012681378146
:1024E0002115310541F525E0DE01119601900D928F
:1024F0002A95E1F7FC01228189819A812223B9F092
:102500006623A9F00E940312182F682F89819A81EF
:102510000E947E0D69817A81812F0F900F900F901C
:102520000F900F90DF91CF911F910C94E7110E94B3
:10253000500D182FEFCFC9010F900F900F900F90F3
:102540000F90DF91CF911F91089583E290E00E9458
:10255000AE34823A89F484E290E00E94AE34833053
:1025600059F485E290E00E94AE3491E0893809F098
:1025700090E0892F8170089580E0FCCFCF92DF92A8
:10258000EF92FF920F931F93CF93DF93CDB7DEB7F8
:102590002A970FB6F894DEBF0FBECDBFE4ECF2E091
:1025A00080E5DF011D928A95E9F7E5E8F3E088E32D
:1025B000DF011D928A95E9F784ECC82E82E0D82EBF
:1025C0007F0107E311E0F701D182C0824AE050E0C9
:1025D000B801CE0101960E949E3488E0FE0131963A
:1025E000D60101900D928A95E1F789859A85D701E8
:1025F00013969C938E931297BAE0CB0ED11CE7E012
:10260000EE0EF11C065F1F4F0738F1E01F07D9F6E9
:102610002A960FB6F894DEBF0FBECDBFDF91CF91E3
:102620001F910F91FF90EF90DF90CF9008954F9200
:102630005F926F927F928F929F92AF92BF92CF9252
:10264000DF92EF92FF920F931F93CF93DF93FC01E2
:102650006280448081E08483E5EDF5E07490E4E5F8
:10266000F6E0E491C6E9D2E03EE7E32E32E0F32E55
:102670004EEBC42E42E0D42E52E0A52EBB24B394E0
:1026800088248A94912C55245A94E7190E2F10E02F
:1026900082E0861530F08091BF0288838091C0026D
:1026A0008983411021C01B821A8297014A81698166
:1026B00088810E948009259683E0E80EF11CCC16E3
:1026C000DD0631F7DF91CF911F910F91FF90EF90D1
:1026D000DF90CF90BF90AF909F908F907F906F9042
:1026E0005F904F900C94AA0F8B818823E9F0815062
:1026F0008B83859DC00111246C8170E00E94BB33E7
:10270000FB01FF27EB52FA4F8491E82FE719E59D73
:10271000C0011124B8010E94BB338091C102689F9F
:10272000B00111247A83C1CF0E9464342091C10288
:10273000269521582A9DA0012B9D500D1124452F2F
:102740005527841795070CF0B0CF82E0861588F4E2
:102750000E946434B4010E94DB3388830E94643495
:102760002091C0022695622F70E00E94DB33280F73
:1027700029831A828091C102893C20F088EC8C83E5
:102780008B8393CF8431D8F784E1F9CFCF92DF9256
:10279000EF92FF926B017C010E947109B701A601C3
:1027A00088E090E0FF90EF90DF90CF900C94D434CD
:1027B0007F928F929F92AF92BF92CF92DF92EF92D1
:1027C000FF920F931F93CF93DF9300D00F92CDB75B
:1027D000DEB7182FD62E042FC22E9091BE0290FF86
:1027E00029C0E92FE695AE2FB0E0AC57BE4F8C91D3
:1027F00080937C029E7F923071F59E012F5F3F4F48
:10280000812F0E9480094B8169818A810E94091071
:102810001093BF02D092C0020093C102CC2051F0AD
:102820006091BE027091BF028091C0029091C1027E
:102830000E94C6130F900F900F90DF91CF911F91C0
:102840000F91FF90EF90DF90CF90BF90AF909F904F
:102850008F907F900895823019F40091C102D8CFF3
:10286000863019F41091BF02D3CF8930D9F38F305D
:1028700079F6EF502E2F2170722EE695F0E0E0539E
:10288000FA4F8590949099243EE7E32E32E0F32EA0
:10289000B12CA12CC50123E0969587952A95E1F7E7
:1028A000711013C0810F9701402F6D2D0E94800978
:1028B000A80CB91C83E0E80EF11C26E9E21622E020
:1028C000F20641F70E94AA0FA3CF212F281B822FC7
:1028D000EACFEEEBF2E0438128E0421B08F440E04F
:1028E00021E0628181810C94D813EEEBF2E0438108
:1028F00028E0420F08F44FEF21E0628181810C94BF
:10290000D813EEEBF2E0628128E0621B08F460E08D
:1029100021E0438181810C94D813EEEBF2E06281D7
:1029200028E0620F08F46FEF21E0438181810C946D
:10293000D813EEEBF2E0818121E04381628188507F
:102940000C94D813EEEBF2E0818121E043816281A7
:10295000885F0C94D8138091C202882319F08150AB
:102960008093C2026091BE027091BF028091C0024A
:102970009091C1020C94C6138091C202833018F466
:102980008F5F8093C2026091BE027091BF028091FE
:10299000C0029091C1020C94C613EEEBF2E083E00A
:1029A000808311828FEF828383831482608171819F
:1029B000828193810C94C61369EE7EEF90E080E0F3
:1029C0000E94E03460E082E090E00E94C23460E067
:1029D00083E090E00E94C2341092C30260E084E081
:1029E00090E00E94C23460E082E290E00E94C23433
:1029F00060E085E090E00E94C23460E086E090E014
:102A00000E94C2346FEF87E090E00E94C23440E041
:102A100050E0BA0188E090E00E94D43460E08DE09C
:102A200090E00E94C23440E050E0BA0188E190E0BA
:102A30000E94D43460E087E190E00E94C23440E01C
:102A400050E0BA018CE190E00E94D43470E060E084
:102A500080E290E00E94E03440E050E0BA0188E17A
:102A600090E00E94D43480E00E94C9100E94791145
:102A700040E050E0BA018FE090E00E94D43440E0A2
:102A800050E0BA0183E190E00C94D43490E080E00F
:102A90000E94BC34893E9E4F11F40C94A51280E034
:102AA00008951F920F920FB60F9211242F933F9308
:102AB0004F935F936F937F938F939F93AF93BF9346
:102AC000EF93FF938091E10082FF09C08091E200C3
:102AD00082FF05C08091E1008B7F8093E1008091AF
:102AE000DA0080FF24C08091D80080FF20C0809150
:102AF000DA008E7F8093DA008091D90080FF9DC03C
:102B000080E189BD82E189BD09B400FEFDCF81E08D
:102B10008093EE038091D703811109C00E942107A1
:102B20000E9414088091E20084608093E20080910A
:102B3000E10080FF17C08091E20080FF13C0809108
:102B4000E2008E7F8093E2008091E20080618093BA
:102B5000E2008091D80080628093D80019BC85E0A3
:102B60008093EE038091E10084FF2BC08091E2000E
:102B700084FF27C080E189BD82E189BD89B5982F96
:102B8000917080FFFBCF8091D8008F7D8093D8001B
:102B90008091E1008F7E8093E1008091E2008F7E42
:102BA0008093E2008091E20081608093E200809156
:102BB000E503882309F447C084E08093EE03809105
:102BC000EE038091E10083FF27C08091E20083FF44
:102BD00023C08091E100877F8093E10082E08093B1
:102BE000EE031092E5038091E1008E7F8093E10077
:102BF0008091E2008E7F8093E2008091E20080610C
:102C00008093E20042E060E080E00E94E207809171
:102C1000F00088608093F000FF91EF91BF91AF9139
:102C20009F918F917F916F915F914F913F912F91E4
:102C30000F900FBE0F901F90189519BC1092EE03C5
:102C40001092D70374CF8091E30087FD93E09093B7
:102C5000EE03B5CF78941F921FB61F9211248F9365
:102C60009F93AF93BF938091D0039091D103A09194
:102C7000D203B091D3030196A11DB11D8093D0035F
:102C80009093D103A093D203B093D303BF91AF919C
:102C90009F918F911F901FBE1F9018959C014FB759
:102CA000F8948091D0039091D103A091D203B09178
:102CB000D3034FBF821B930B08952FB7F8948091D5
:102CC000D0039091D103A091D203B091D3032FBF31
:102CD00008956091BE02669570E04BE050E087E198
:102CE00091E00E947D34892B19F481E080937D026C
:102CF0000E945D16909377028093760208959091DA
:102D0000BE0290FF36C09170811129C092609093ED
:102D1000BE02662351F06091BE027091BF028091A5
:102D2000C0029091C1020E94C6136091BE026695D6
:102D300070E04BE050E087E191E00E947D34892B08
:102D4000A9F010927D0281E08093790220E0409109
:102D5000C1026091C0028091BF020C94D8138F31E0
:102D600010F09C63D4CF880F982BD1CF0E946916A6
:102D7000EACF08958091BE028695815009F48EE1D4
:102D800061E00C947F168091BE0286958F5F8F3133
:102D900008F081E061E00C947F169091BE0290FFF4
:102DA00007C09695981720F0961710F40C94C31648
:102DB00061E00C947F160E945D169C019091720256
:102DC00080917302982B21F030936F0220936E0252
:102DD0009091740280917502982B21F030936D02CE
:102DE00020936C02E091CB03F091CC03309749F033
:102DF00082E0809370020480F581E02D80E792E00C
:102E0000099408959F92AF92BF92CF92DF92EF9272
:102E1000FF920F931F93CF93DF9300D000D000D089
:102E2000CDB7DEB78E010F5F1F4F86E0F80111921C
:102E30008A95E9F78DE5C82E81E0D82EF12CE12C9A
:102E4000AA24A394B12CF60181916F018F3F09F45C
:102E500043C0F894E82FE295EF70F0E021A18F7065
:102E6000A50102C0440F551F8A95E2F7CA01922FAF
:102E7000982B91A392A18095892382A3789400C076
:102E8000E3E6F1E0912C31E021912F3F09F46EC08F
:102E9000A22FA295AF70B0E090968C9190E02F7029
:102EA00002C0959587952A95E2F780FD5FC0832F34
:102EB000982A330F51E0E836F50731F7F6013197DC
:102EC00080818F3F11F00E94450B80EA8A95F1F7CF
:102ED000F801EE0DFF1D9082EFEFEE1AFE0AF6E00C
:102EE000EF16F10409F0AFCF46E050E0B80184E2FC
:102EF00092E00E948A34FF24F394009709F4F12CA5
:102F0000892BB1F186E0F801A4E2B2E001900D92C4
:102F10008A95E1F781E0809323020E945D169093E9
:102F200022028093210280912102909122020E942C
:102F30004E16059708F180912402809363028091D8
:102F4000250280936402809126028093650280911D
:102F50002702809366028091280280936702809105
:102F60002902809368021092230206C080E0A0CF5D
:102F7000809123028111D7CF8F2D26960FB6F8941A
:102F8000DEBF0FBECDBFDF91CF911F910F91FF909C
:102F9000EF90DF90CF90BF90AF909F900895809179
:102FA000D80390912203892B8093B4018091200251
:102FB000882319F10E945D1620911E0230911F0294
:102FC000821B930B8838934110F00E94270D80914B
:102FD000B40190912002892B8093B40120E086EB0C
:102FE00091E0FC013191CF0131112F5FF1E08C3B79
:102FF0009F07B9F721110E94270D48E050E066E1D4
:1030000072E084EB91E00E948A34892BA9F088E079
:10301000E4EBF1E0A6E1B2E001900D928A95E1F7D0
:10302000E091CB03F091CC03309731F00280F38133
:10303000E02D84EB91E00994089590E080E00E94F7
:103040000A0990E080E00E94F408109222030E9496
:10305000CF1786E0E0E7F2E0DF011D928A95E9F7FD
:1030600010926A021092690210926B020C94DB16A5
:103070008093EF030C941D188091EF03982F9670A6
:10308000963019F488600C943818877FFCCF21E0C3
:1030900030E001C0220F8A95EAF720958091EF0376
:1030A00082230C943818909115028095892380937F
:1030B0001502282F277091F4282F082E000C330BAF
:1030C0009217130659F090912B0292FD07C0859537
:1030D000859585950E9447180C94390D0895CF93D6
:1030E000C0912B02C2FB992790F9981799F080FBA9
:1030F000C2F9C0932B0260912A0284E090E00E9402
:10310000C2346C2F82E290E00E94C23482E0CF9100
:103110000C945318CF91089521E030E001C0220FA4
:103120008A95EAF78091EF03822B0C9438188093EC
:10313000C3020C941D18E6EBF1E086E0DF011D925E
:103140008A95E9F70C941D181F93CF93DF93CDB7A1
:10315000DEB7AA970FB6F894DEBF0FBECDBF86EEDE
:1031600093E02091F100DC012D93CD01B3E08E3E80
:103170009B07B9F78091E703833009F472C0B8F474
:10318000813009F449C0823009F4B5C08091E8006B
:1031900083FF98C28091E6039091E7039A3008F08C
:1031A00091C2E92FF0E0ED59FA4C0C94EF338A30DC
:1031B00009F490C08B3009F471C0893039F78091DF
:1031C000E603813219F78091EA039091EB030097AF
:1031D00011F00297D9F68091E800877F8093E8008C
:1031E0008091E80082FF38C09091F3008091F20056
:1031F000029731F48091F100813011F0863021F492
:103200008091F1008093DA038091E8008B778093BE
:10321000E8000E94C307BACF8091E603813A09F023
:10322000B5CF8091E800877F8093E8008091EA0322
:103230009091EB03892B61F468E08BED93E070E0F3
:103240000E9475088091E8008B778093E8009ECFFC
:1032500060E090E080E0F3CF8091EE038111C0CF79
:1032600095CF8091E603813A09F090CF8091EA03EF
:103270009091EB03892B09F089CF8091E800877F3B
:103280008093E8008091E80080FFFCCF80912301CB
:103290008093F1008091E8008E77B9CF8091E603AA
:1032A000813209F073CF8091EA039091EB03892B6F
:1032B00009F06CCF8091E800877F8093E8000E943E
:1032C000C3078091E803809323011092D8030E94E2
:1032D0009B185CCF8091E603813209F057CF809133
:1032E000E800877F8093E8000E94C3078091E9038C
:1032F0008093D9034BCF8091E603813A09F046CF02
:103300008091E800877F8093E8008091E80080FF4B
:10331000FCCF8091D903BCCF803899F0823809F076
:10332000D1C18091EA038F70873008F0CBC18093C0
:10333000E9008091EB0085FB882780F91092E90075
:1033400006C08091E3039091E40391118260909113
:10335000E800977F9093E8008093F1001092F100CD
:103360008091E8008E77AAC1882309F498C1823041
:1033700009F0A8C18091E80381119BC18091EA0303
:103380008F702FEF280F263008F09CC18093E90042
:103390002091EB0020FF8DC1933031F48091EB0040
:1033A00080628093EB0085C19091EB0090619093D7
:1033B000EB0021E030E001C0220F8A95EAF720936C
:1033C000EA001092EA008091EB008860EACF811158
:1033D00079C11091E8031F778091E3008078812BF9
:1033E0008093E3008091E800877F8093E8000E944B
:1033F000C3078091E80080FFFCCF8091E3008068E4
:103400008093E30082E0111183E08093EE035AC1C0
:103410008058823008F056C12091E8033091E903CA
:103420002C3DE3E03E07A1F583E08A838AE28983AD
:103430004FB7F894DE01139620E03EE051E2E32F0F
:10344000F0E050935700E49120FF03C0E295EF7045
:103450003F5FEF708E2F90E0EA30C0F0C7968D93FB
:103460009D932F5F243159F74FBF8091E800877FEC
:103470008093E8006AE270E0CE0101960E94750830
:103480008091E8008B778093E8001CC1C096E7CF5D
:103490008091EA039091EB03432F55274330510568
:1034A00009F44AC078F54130510509F485C08BE52F
:1034B00090E0E9EEF7E04230510509F003C12091B8
:1034C000E800277F2093E8002091EC033091ED0382
:1034D0008217930708F49C0140E02115310509F09B
:1034E00070C041116EC08091E80082FDC9CF80910B
:1034F000EE03882329F2853019F28091E80083FFDA
:10350000F2CFBECF4132510509F447C042325105D6
:1035100009F0D8C08330910508F0D4C0FC01EE0F4B
:10352000FF1FEA55FE4F0190F081E02D8D559E4F13
:10353000DC018C9190E01DC0332721303105E9F08A
:103540002115310579F022303105F9F023303105AC
:1035500009F0B8C0E6E5F8E0E4918E2F90E0E6E5EA
:10356000F8E007C0ECE9F8E0E4918E2F90E0ECE998
:10357000F8E0009709F4A6C0A2CFE8E8F8E0E491EB
:103580008E2F90E0E8E8F8E0F4CFE4E7F8E0E4918B
:103590008E2F90E0E4E7F8E0ECCF8330910508F05F
:1035A00091C0880F991FFC01E455FE4F0190F081F6
:1035B000E02D89E090E083CF82E190E0E4E4F8E060
:1035C0007ECF8091EE03882309F45ACF853009F429
:1035D00057CF8091E80083FD53CF8091E80082FDB2
:1035E00082CF8091E80080FF78CF9091F3008091A6
:1035F000F2002115310519F08830910550F041E0B5
:10360000089709F040E08091E8008E778093E80009
:1036100064CF44914093F1003196215031090196D5
:10362000E8CF803809F04EC08091E800877F809312
:10363000E8008091E5038093F10092CE811142C0B1
:103640001091E8031230F0F58091E800877F8093B5
:10365000E8001093E5030E94C307112311F084E0F2
:1036600005C08091E30087FDFACF81E08093EE03EF
:1036700042E061EC81E00E94E20742E261EC84E01A
:103680000E94E20742E261EC82E00E94E20742E22D
:1036900060EC83E00E94E2078091EE0313C080910A
:1036A000E803813079F481E0933009F080E0809381
:1036B000E4031092E9008091E800877F8093E8009E
:1036C0000E94C3078091E80083FF0AC08091E80050
:1036D000877F8093E8008091EB0080628093EB000D
:1036E000AA960FB6F894DEBF0FBECDBFDF91CF9183
:1036F0001F9108951F920F920FB60F9211242F93CE
:103700003F934F935F936F937F938F939F93AF9369
:10371000BF93CF93DF93EF93FF93D091E900DF70D6
:103720008091EC00C82FC17080FDC0E81092E900C4
:103730008091F000877F8093F00078940E94A41815
:103740001092E9008091F00088608093F000CD2B0A
:10375000CF70C093E900FF91EF91DF91CF91BF91BE
:10376000AF919F918F917F916F915F914F913F9119
:103770002F910F900FBE0F901F901895882341F046
:103780008095909122038923809322030C94CF1774
:103790000895882339F090912203982B9093220367
:1037A0000C94CF170895882321F00E94320D0C94B9
:1037B000CF170895882339F09091D803982B9093D0
:1037C000D8030C94CF1708958823B1F19CEF980F7C
:1037D000913A70F4E6EBF1E09191891303C0DF01B7
:1037E00011971C9291E0EC3BF907B1F70C94CF17BD
:1037F00090E2980F983050F4877091E001C0990FD3
:103800008A95EAF7892F0E94320DF0CF9BE5980F39
:10381000933020F490E080E00C940A0998E5980F2A
:10382000973120F490E080E00C94F408803F20F081
:103830000E94160A0C94DB1608950F931F93CF93E2
:10384000C82F882309F473C08CEF8C0F813AB0F530
:1038500006EB11E08CEB91E0F8012191C21701F128
:1038600021E0EC3BF207C9F7EFEF80E0D8019D9132
:103870008D01C91781F0EF3F19F4911101C0E82FB4
:103880008F5F863099F7EF3F31F00E2E000CFF0B63
:10389000EC54FE4FC283CF911F910F910C94CF1720
:1038A000E6EBF1E02191C21303C0DF0111971C92F6
:1038B0008E179F07B9F70E94CF17D6CF80E28C0FE3
:1038C000883068F4C77021E030E001C0220FCA954B
:1038D000EAF78091D803822B8093D803DCCFEBE505
:1038E000EC0FE33050F4F0E0E45DFE4F808190E0B7
:1038F000CF911F910F910C940A09E8E5EC0FE73185
:1039000060F4F0E0EE0FFF1FE15DFE4F80819181DA
:10391000CF911F910F910C94F408C03F40F08C2F71
:103920000E94DB0ACF911F910F910C94DB16CF916F
:103930001F910F9108951F93CF93DF93182FEB01E1
:103940000E941D1C8FE99FE00197F1F700C0000065
:103950002197C1F7812FDF91CF911F910C94E41B28
:10396000AF92BF92CF92DF92EF92FF920F931F938D
:10397000CF93DF93EC018AE0A82E2881222309F45B
:103980009CC0213009F03FC099818A81913051F467
:1039900022966AE070E0893311F460E570E00E94DD
:1039A0009B1C05C0923029F422960E941D1C219672
:1039B000E4CF933021F422960E94E41BF8CF943098
:1039C00011F02196F4CF229630E020E0AE014F5F57
:1039D0005F4F8053990B8A30910550F02150310987
:1039E00030F38FE99FE00197F1F700C00000F6CFB8
:1039F000A29EB001A39E700D11249C01260F371FBB
:103A00008981EA01E3CFE22FF0E0E154FE4FB49068
:103A1000822F86958695869590E0FC01E155FE4FB4
:103A2000E4902770F12C022E02C0F594E7940A94DA
:103A3000E2F731E0E322FF24FC01E156FE4FC4909F
:103A4000D12C022E02C0D594C7940A94E2F731E03B
:103A5000C322DD24FC01E157FE4F049110E002C0B7
:103A6000159507952A95E2F701701127E114F104E5
:103A700019F081EE0E941D1CC114D10419F086EECC
:103A80000E941D1C89E36AE070E0B81202C060E584
:103A900070E08B2D0E949B1CCD2819F086EE0E94B1
:103AA000E41BEF2819F081EE0E94E41B012B09F4BE
:103AB0007ECF6AE070E08CE272CFDF91CF911F91F0
:103AC0000F91FF90EF90DF90CF90BF90AF9008954F
:103AD00090912B0292FD10C098E0899F90011124D3
:103AE000622B609315020E948C180E945D169093C1
:103AF00014028093130208950C948C182F923F9215
:103B00004F925F926F927F928F929F92AF92BF92ED
:103B1000CF92DF92EF92FF920F931F93CF93DF9399
:103B2000CDB7DEB769970FB6F894DEBF0FBECDBF35
:103B3000498B5A8B6B8B7C8B8D8B6111109222037E
:103B40001D861E861F86188A85E0FE017196DE019D
:103B5000199601900D928A95E1F780912B0282FDD2
:103B60001CC00E945D162091130230911402821B2A
:103B7000930B8838934120F08091150282FFFEC19B
:103B80000E945D1620911E0230911F02821B930B32
:103B90008838934110F00E94270D8C859D85892BD4
:103BA00031F089859A8589238F3F09F0D3C1298512
:103BB0003A854B855C856D857E858F8598890E94C9
:103BC0002227C2C048EFC4164CE5D40629F4882346
:103BD00079F00E940628EBCF69EFC6166CE5D60691
:103BE00039F4882329F0809122018111F2CFC2C1DA
:103BF00005E813E0E12CB12CA12C88248394912CAE
:103C00002EEF522E44244394F801408151816624C2
:103C10006A94762C20E0822F90E0FC01EE0FFF1FCB
:103C2000E40FF51F608171816115710531F0C616D1
:103C3000D70609F43C012F5FEECFF12CFFEF6F1692
:103C40007F0609F443C0F8014481F09022018F2DD2
:103C5000411180E0F82FF170FF2EF8012580868158
:103C60009B85992309F406C1FF2009F403C12110A3
:103C700013C0A40101C0440F6A94EAF7842B868321
:103C80008091200390912103C29730F462E370E0A9
:103C90007093210360932003C40102C0880F991F11
:103CA0002A95E2F70197F80126812817190671F481
:103CB0008091C7039091C803009709F45EC00E94E9
:103CC0004E16C39708F459C0F8014482EF28FFEF5D
:103CD000AF1ABF0A095F1F4F28E0A216B10409F00E
:103CE00093CF8B85882309F420C1EE2009F41DC1F0
:103CF0000E945D169093C8038093C70380912403AC
:103D0000883010F591E0980F9093240398E0FE011D
:103D10003996DE01119601900D929A95E1F73CE0FB
:103D2000839FC00111248B5D9C4F28E0FE013196DA
:103D3000DC0101900D922A95E1F72FEF3FEFFC0196
:103D400031872087D386C28669960FB6F894DEBF86
:103D50000FBECDBFDF91CF911F910F91FF90EF90DC
:103D6000DF90CF90BF90AF909F908F907F906F909B
:103D70005F904F903F902F9008958091C503509190
:103D8000C603982FF0E0E0E0851314C09093C503BC
:103D90000E171F0709F49ACF90E0FC01EE0FFF1FEA
:103DA000E354FC4FB182A0820196837099278093DF
:103DB000C6038CCF282E312CF101EE0FFF1FE354E8
:103DC000FC4F20813181F7E0F29FD001F39FB00DCD
:103DD0001124AB57BC4F2D913C911197398F288FEF
:103DE00040E020E030E0E32FF0E0EE0FFF1F688DB1
:103DF000798DE60FF71F6080718061147104E1F026
:103E0000F8010190F081E02DFF8BEE8B20E005C0E2
:103E10006616770609F44F2D2F5FE22FF0E0EE0FC4
:103E2000FF1F6E897F89E60FF71F60817181611521
:103E3000710571F73F5FD7CF4423C9F0F80123170D
:103E400008F0FD0144820E171F0721F49093C5036B
:103E5000F42E3CCF981305C0AE17BF0711F49F5F37
:103E6000937091012F5F3F4F822F83708DCFF0E0D1
:103E7000E0E0F7CF90E021101FC0B40102C0660F50
:103E8000771F2A95E2F79B0121503109821793078A
:103E900031F4442309F447C0C5010E942C09C40130
:103EA00001C0880F6A94EAF7982F9095F8018681EF
:103EB00089238683F22C0ACF9C01062C02C03595FB
:103EC00027950A94E2F7A90141705527BC0161507A
:103ED000710986239723892B11F5452B01F1F801F0
:103EE00082819381892BC1F01B821C821D821E82DC
:103EF00059825A820E945D168160582F9D838C835F
:103F0000F801828193818F83988729813A814B813F
:103F10006D817E810E942227F8011582C0CFF22F89
:103F2000F1702F2EBCCF2F2CBACF9091C50380916A
:103F3000C603981731F00E941428EE2009F437CEFA
:103F400003CF0E949D271092C8031092C7030E94BE
:103F50005A09F3CF61E0CE0109960E9465126C0107
:103F60008B85F7EFCF16FCE5DF0609F02BCE882313
:103F700009F43ECE81E08093220119CE82E00E94B6
:103F80005318FECD0F931F93CF93DF9300D000D033
:103F90000F92CDB7DEB78C01909317038093160371
:103FA000011580E2180720F5802F0E94E41BC8014C
:103FB0000E94C00D9801205E31092830310510F0B3
:103FC000012B59F40F900F900F900F900F90DF91ED
:103FD000CF911F910F910C94D31B0F900F900F90C6
:103FE0000F900F90DF91CF911F910F910C94BE1BFA
:103FF0008EEF89838A831B820E945D168160782FF1
:104000009D838C8349815A816B818D810F900F90A4
:104010000F900F900F90DF91CF911F910F910C9403
:104020007E1D0F931F93CF93DF9300D000D00F928C
:10403000CDB7DEB78C01909317038093160301155B
:1040400080E21807E8F4C8010E94C00D9801205EC4
:1040500031092830310518F00115110571F40E945D
:10406000DA1B802F0F900F900F900F900F90DF9121
:10407000CF911F910F910C941D1C0E94C91BF1CF71
:104080008EEF89838A8381E08B830E945D16816035
:10409000782F9D838C8349815A816B818D810F900C
:1040A0000F900F900F900F90DF91CF911F910F9174
:1040B0000C947E1DCF93DF93EC010E9411208FE3BF
:1040C0009CE90197F1F700C00000CE01DF91CF918C
:1040D0000C94C21FCF92DF92EF92FF920F931F9327
:1040E000CF93DF93182F062FC090EF038091C30268
:1040F000C82AC7E0D0E0D12CF12CE12CD701C601B1
:104100000C2E04C0B695A795979587950A94D2F77B
:1041100080FF14C0402F612F8C2F0E9488118130A6
:10412000910561F00E945A2081E0DF91CF911F91AB
:104130000F91FF90EF90DF90CF9008952197F0F6C8
:10414000402F612F80E00E948811ECCF9F92AF92A8
:10415000BF92CF92DF92EF92FF920F931F93CF9374
:10416000DF9300D000D0CDB7DEB76C01FC018381B6
:104170009481892B31F08081918189238F3F09F0CF
:10418000F6C30F900F900F900F90DF91CF911F917A
:104190000F91FF90EF90DF90CF90BF90AF909F90E6
:1041A0000895C80182519F45409708F0CFC38FEF13
:1041B00093E00E94AE34025157E8E52EFF24F394B9
:1041C0008823E9F0809115028770D9F2F601828187
:1041D0008823B9F280912B0282FDD3CF82E00E9426
:1041E0005318CFCFE114F4E0FF0661F3C7010E943A
:1041F000AE34811101C001502FEFE21AF20A011111
:10420000F1CF19821A821B821C8299249A94870109
:104210000F5F1F4FC7010E94AE3489831A82882323
:1042200089F2813009F06FC0570132E0A30EB11C52
:10423000C8010E94AE34082F8A83882319F2C50171
:104240000E94AE34182F8FEF800F833068F457012F
:1042500043E0A40EB11C1B83112321F0CE01019673
:104260000E94B01C7501D3CF8BEF800F833020F5F7
:10427000C70103961B835C011123A1F3570154E08E
:10428000A50EB11C0E94AE348C83882359F38B8118
:104290009C818130EFEF9E0710F0982F8827063021
:1042A00029F0073031F00E945A20DCCF0E94112003
:1042B000D9CF0E94C21FD6CF0430A1F65701F4E037
:1042C000AF0EB11CC70103960E94AE34112309F44E
:1042D00079CF882309F476CF8150990B989E90016D
:1042E000999E300D1124412F4150550BCA01820F68
:1042F000931F019708F4B6CFEFE9FFE03197F1F78C
:1043000000C00000F6CFCE0101960E94B01C5801FB
:10431000A9CF81E00E948C180E943C1853CF81E005
:104320000E944718F9CF82E0F5CF82E0F9CF043C34
:104330003CE5130709F479C0053C1C4509F046C368
:1043400049E954E162EA74E114C0083C5CE51507F0
:1043500009F47AC008F473C0093CECE51E0709F4BF
:1043600078C045E754E169E674E10A3C1C4509F070
:104370002DC30E946B0926CF003D2CE5120709F4DE
:104380007DC0A8F40D3C4CE5140709F471C008F495
:104390006AC00E3C8CE5180709F46DC068E086E041
:1043A0000F3C1C4509F012C30E94CD160BCF043DF3
:1043B000ECE51E0709F465C008F404CF053D2CE5C3
:1043C000120709F4FFCE6EE189E10D351D4561F359
:1043D000FDC28091BE0280FF1BC08E7F8093BE0213
:1043E0006091BE027091BF028091C0029091C102A3
:1043F0000E94C61310927D024FEF50E782E04150B9
:1044000050408040E1F700C000000E94AA0FDACEC1
:1044100081608093BE0261E086950E947F16D2CEB5
:104420004AEB56E163EC76E1A4CF43EC56E16AEB4C
:1044300076E19FCF42EA54E169E974E19ACF41E81D
:1044400054E16DE874E195CF4DE854E161E874E121
:1044500090CF49E654E165E774E18BCF4BEA54E134
:104460006CEB74E186CF4CEB54E16BEA74E181CFE5
:1044700061E081E0D2CF65E082E096CF6EE089E036
:1044800093CF68E18FE090CF0B359DE5190758F485
:104490000115ECE51E07C9F00E3D1C4509F096C25A
:1044A0000E94DC148FCE0B352DE51207E9F00C3598
:1044B0001D4509F08BC280912B0282FB882780F971
:1044C00091E089270E946F1881C21092D8030E9440
:1044D0009B184FEF54E38CE0415050408040E1F78F
:1044E00000C000000E94D70880E0ECCF82810081EC
:1044F0001181882369F0C8010E940312F82E682FE9
:10450000C8010E947E0DB8018F2D0E94E71164C280
:10451000C8010E94500DF82EF6CF212F2F70F22ED9
:10452000107F19F0F29490EFF922EE20B9F0FF20FD
:1045300069F080E2800F883010F0011109C080918D
:10454000D803F82AF092D8030E94CF17802F4AC0D0
:1045500080912203F82AF0922203F6CF802F0E9446
:10456000E41BFF2009F440C080E2800F883010F087
:10457000011104C08F2D0E94320D06C0F09480916D
:104580002203F822F09222030E94CF172DC0312F70
:104590003F70F32E107F103219F0F29480EFF82262
:1045A000002381F0013009F489C0EE2009F492C0A3
:1045B000BB2009F467C0F601858180FFC7CF8F70EB
:1045C000858360C080912B0282FF37C0EE2079F195
:1045D000FF2039F08091D803F82AF092D8030E9486
:1045E000CF1780E00E941D1CE92DE850FF0B349787
:1045F00010F40E942009AA20A9F08091150280FDE4
:1046000011C0F60112828595859585950E948C18BA
:10461000C6010E94A62080911502859585958595F5
:104620000E94471860E0C6010E946512AACD80E092
:104630000E94E41BFF20C1F29DCFEE2039F1B110A2
:1046400004C0809120028F291EC041E0B41210C026
:1046500082FDCACF80912002F82AF81629F20E9422
:104660005D1690931F0280931E02F0922002BCCF31
:1046700055E0B512E6CF0E94270D80911202F81284
:10468000F09212028F2D0E94DA1BAECFB11006C03D
:104690000E94270D8F2D0E94D31BA6CF81E0B81258
:1046A00008C08091D8038F2109F49ECF0E94400D4D
:1046B000EFCF95E0B91609F497CFEACFEE2029F0B5
:1046C000E5E0EB1508F490CFDDCFF4E0FB1508F43E
:1046D0008BCFE0CFBB20F1F2093309F02FC1FFEF00
:1046E00027EE33E0F15020403040E1F700C00000F9
:1046F000802F0E94E41B78CF812F8695869583704A
:1047000061F0813009F070CFC8019370E11002C0F0
:1047100090E080E00E94F40867CFC8019370E11038
:1047200002C090E080E00E940A095ECF802FEE2058
:1047300029F00E94DB0A0E94DB1656CF0E94160A5F
:10474000FACF812F837089F5E1104ECF402F42952B
:1047500046954770440F440F802F8F70042E01C080
:10476000880F0A94EAF7202F207104FF07C02FE07A
:1047700030E001C0220F4A95EAF72095169516956C
:104780001370123069F050F43091C302113029F0E7
:10479000822B83230E94971827CF832B822BFACF5B
:1047A000282B8091C3028227F5CF8695EE2011F049
:1047B000812F8170882309F417CF402F42954695A9
:1047C0004770440F440F802F8F70042E01C0880F54
:1047D0000A94EAF7202F207104FF07C02FE030E091
:1047E00001C0220F4A95EAF7209516951695137089
:1047F000123069F050F43091EF03113029F0822B20
:1048000083230E943818F0CE832B822BFACF282BDB
:104810008091EF038227F5CF1F70EE2029F0812FC2
:104820000E948C18802F2FCF802F0E94D31B812FA6
:104830000E944718D9CE023F81F160F4003FB9F0E1
:10484000013F81F0EE2009F46DC0B1107FCE812FC1
:104850008F7127C0033F41F1043FA1F780912B02E4
:1048600082FF2DC0812F8F71EE2011F31AC0EE2030
:1048700079F094E09B1508F4B7CE1F7181E090E0C9
:1048800001C0880F1A95EAF79091EF038927B9CFF5
:10489000E5E0EB1508F4A8CEF0CF812F8F71E11081
:1048A000C7CF0E948C18A0CE80E0EE2009F4A9CFDB
:1048B0001F7181E001C0880F1A95EAF7A2CF80919D
:1048C0001202EE20D9F00E94320D809115028770FD
:1048D000843041F40E94390D812F8F710E94471856
:1048E000A12C82CEF4E0FB15D8F31F71812F0E941A
:1048F0008C1863E0812F0E94681DF2CF9091D8033D
:10490000982B9093D80324E02B1540F40E94390D86
:104910000E94400D64E0812F8F71EDCF81E00E94F5
:104920005318DECFBB2079F0093341F43FEF47EE57
:1049300053E0315040405040E1F7D8CE8FE39CE93E
:104940000197F1F7D3CE812F8F7172CF0031FFE540
:104950001F0709F4DECC01312FE5120709F4E3CC7F
:104960000A352DE5120709F08FCD81E0ABCD61E06E
:10497000C6010E9465128C01F6018281811111CC61
:1049800000313FE5130709F4CACC01314FE51407A4
:1049900009F4CBCC8091D80382720B3C3CE5130721
:1049A00009F45CCD08F0E8CC063C5CE5150709F499
:1049B00041CD08F0CACC033CECE51E0709F430CD2C
:1049C00008F0B5CC023C1C4509F403CDF601868104
:1049D0009781009709F48ACD0E949F0B8C01F60104
:1049E000E280B580B2943FE0B322809115028770D7
:1049F000C1F0AE2CEE20B1F0812F807F803421F009
:104A000080E2800F883068F080912B0282FD09C01F
:104A100082E00E945318809115028770AA24A39403
:104A20008111A12C912E92942FE09222FBE0F91596
:104A300008F4DACDE92DF0E0E359FA4C0C94EF33A9
:104A4000CF93DF938091CD01807FA1F48091CA0143
:104A5000882381F080911102D091D0016091C8012A
:104A60007091C901A091CB01B091CC01C62FC72391
:104A7000D81303C0DF91CF91089590E0109711F003
:104A8000CF3F19F401968770F3CF9C0143E0220FCA
:104A9000331F4A95E1F7F901EF52FE4F4181471369
:104AA000F1CF40814613EECF42814111EBCF4381DC
:104AB00054814A1B5B0B483C510520F78091CD0186
:104AC0008F7080618093CD01F901EA52FE4F8081A1
:104AD0008F708061808388EC91E00E94A620DF9136
:104AE000CF910C94460DAF92BF92CF92DF92EF928E
:104AF000FF920F931F93CF93DF93CDB7DEB76597E8
:104B00000FB6F894DEBF0FBECDBF8C0185E0F80173
:104B1000DE01519601900D928A95E1F7F801E2804D
:104B200068ECA62E61E0B62E6091CB017091CC01AD
:104B30006115710509F468C19091C8014091C901DE
:104B4000892F84238F3F09F45FC120813181C38085
:104B5000D480F090CA01F601E61BF70BFF2009F4A0
:104B60001DC18091CD01582F507FE83CF10508F020
:104B7000D0C0511181C0FE2C43132BC0921329C009
:104B80006091CE017091CF01F80146815781641781
:104B90007507F9F4E1101DC08F7080618093CD011D
:104BA000C5010E94A6208091CD01F80185838F2D3B
:104BB00065960FB6F894DEBF0FBECDBFDF91CF91E3
:104BC0001F910F91FF90EF90DF90CF90BF90AF902B
:104BD0000895CD2829F0822F83238F3F09F02FC11C
:104BE00080E0F82FF170DF2E80FF3CC08091110231
:104BF0004091D001841315C0298B3A8B89899A89F9
:104C00000E943212292F22952F702230F8F0243082
:104C100020F59F70F9F0F8019581907FD9F4D12C9F
:104C20001FC090E0FC0153E0EE0FFF1F5A95E1F723
:104C3000EF52FE4F5181351306C05081251303C03A
:104C40005281E5120FC001968770D4CF9F7011F08A
:104C5000882329F3805E883010F3C8010E94A620C3
:104C6000FD2CA5CFEE2009F4A2CF8091CD0181606B
:104C70008093CD01F12C9BCF43131BC0921319C01D
:104C80004091CE015091CF01F80126813781421722
:104C9000530779F4E1100DC08583C8010E94A62056
:104CA00088E0F801A8ECB1E001900D928A95E1F757
:104CB0007ECFC8010E943E12882339F1EE2029F1EF
:104CC0008091CD018032A0F02091C8013091C901BE
:104CD0003A8729871B86DD86CC868E878091CE0118
:104CE0009091CF01988B8F87CE0109960E94A620C4
:104CF00088E0F801A8ECB1E001900D928A95E1F707
:104D00000E942025FF24F39452CFC8010E94A620C0
:104D1000F9CF51110AC088EC91E00E94A62088E0EA
:104D2000F50111928A95E9F7A5CF431318C09213A4
:104D300016C04091CE015091CF01F80126813781F4
:104D40004217530761F4E1100AC08583C8010E942D
:104D5000A62088E0F50111928A95E9F728CFC801CD
:104D60000E943E12882389F2EE2079F28091CD01D3
:104D7000803208F4BDCF2091C8013091C9013A8337
:104D800029831B82DD82CC828E838091CE0190911B
:104D9000CF0198878F83CE010196A8CFE83CF1051B
:104DA000C0F6FE2CEE2009F4B0CF43131FC09213BF
:104DB0001DC02091CE013091CF01F80186819781ED
:104DC0002817390799F49091CD0190FD69CF907F14
:104DD00009F466CF8091CD018583903F09F45DCFC2
:104DE000982F907F905F8F70892B56CFC8010E94BB
:104DF0003E1281117DCF8091CD0181608093CD01E4
:104E0000C8010E94A620D3CEEE2009F47ECFC801AF
:104E10000E943E12F82E882309F477CF88E0F8012B
:104E2000A8ECB1E001900D928A95E1F78091C8015C
:104E30009091C9010E9432120E942025B8CE81E0D3
:104E40008E25CFCECF93DF93CDB7DEB760970FB669
:104E5000F894DEBF0FBECDBF29873A874B875C87AA
:104E60006D877E878F87988BCE0109960E94732568
:104E7000811112C088E0FE013996DE011196019081
:104E80000D928A95E1F78C859D85892B29F089857E
:104E90009A8589238F3FA9F5809111029091D001C5
:104EA00089131CC060960FB6F894DEBF0FBECDBF4D
:104EB000DF91CF91089593E0AA0FBB1F9A95E1F778
:104EC000AF52BE4F98E0FE01319601900D929A9537
:104ED000E1F78093D0010E94460DDECFB8E08B9FB2
:104EE000C00111248F529E4F0E9473258823D1F256
:104EF0008091110290E001968770992780931102AA
:104F0000CBCFA091D001B0E0CD0101968770992759
:104F1000209111022817190671F61092D8030E94E9
:104F20009B181092D0011092110288E0E8ECF1E099
:104F3000DF011D928A95E9F7AFCFDF92EF92FF92E2
:104F40000F931F93CF93DF9380912403C09123038A
:104F5000D12C1CE081111DC0DF91CF911F910F91C9
:104F6000FF90EF90DF90089501E00C0F0093230372
:104F7000EC2EF12CC19FE0011124CB5DDC4F8B8125
:104F80009C81892B29F08881998189238F3F51F455
:104F9000C02F80912403C81738F310922403109275
:104FA0002303DACF1E9DF0011F9DF00D1124EB5D50
:104FB000FC4F86819781892B21F48085918501960C
:104FC00051F4288139814A815B816C817D818E8198
:104FD0009F810E9422271E9DF0011F9DF00D11242C
:104FE000EB5DFC4F1482138210922203D110D0CFBC
:104FF000CE010E943E128111CBCF8FE39CE9019735
:10500000F1F700C00000DD24D394C2CF1092C80392
:105010001092C703109222018091C6038093C503AA
:105020000E945A090C949D273F924F925F926F9273
:105030007F928F929F92AF92BF92CF92DF92EF9228
:10504000FF920F931F93CF93DF93C091C50397E017
:10505000892E01E010E02CE0322E3EEF932E442406
:1050600043948091C6038C1315C00E949D27DF9145
:10507000CF911F910F91FF90EF90DF90CF90BF9055
:10508000AF909F908F907F906F905F904F903F90E8
:105090000C945A09D0E0FE01EE0FFF1FE354FC4FC1
:1050A00080819181889ED001899EB00D1124AB57DB
:1050B000BC4F14962C911497211157C05090240383
:1050C000E5E2F3E030E020E0712C5D01251508F009
:1050D0004AC0E284F384D501CD90DC906FEF7FEF7E
:1050E000612C462D50E0DA01AA0FBB1FAC0DBD1D8F
:1050F0000D90BC91A02D109731F0EA16FB0609F433
:10510000BA016394EECF6F3F7607A1F1D80102C0D8
:10511000AA0FBB1F6A95E2F77A2AB80102C0660F90
:10512000771F6A94E2F7AB014150510974161506D6
:10513000F9F4329EF001339EF00D1124EB5DFC4F2B
:10514000889ED001899EB00D1124AB57BC4F12969A
:105150002D913C911397378326839082918291877A
:10516000808715964C920E942C092196C37079CFA6
:10517000148213822F5F3F4F3C96A8CF1F921FB619
:105180001F9211248F939F93AF93BF938091CF036E
:10519000811113C08091D0039091D103A091D203CB
:1051A000B091D3034196A11DB11D8093D00390937C
:1051B000D103A093D203B093D303BF91AF919F913A
:1051C0008F911F901FBE1F901895CDB7DEB7E79740
:1051D0000FB6F894DEBF0FBECDBF84B7877F84BF04
:1051E0000FB6F894A8958091600088618093600064
:1051F000109260000FBE80E890E00FB6F8948093A4
:105200006100909361000FBE85B7806885BF85B748
:10521000806885BF83E49BE09093B3018093B201E3
:105220000E94BE120E9421070E9414088091E20091
:1052300084608093E20078948091EE038823A1F04B
:105240001091E9001F709091EC00892F817090FD02
:1052500080E8182B1092E9008091E80083FD0E94FD
:10526000A4181F701093E90082E084BD93E095BDFF
:105270009AEF97BD80936E000E94A512811102C023
:105280000E9479110DE511E0E3E6EE2EE1E0FE2E3D
:10529000D8018D918D018F3F11F00E94450BE016D2
:1052A000F106B1F703E611E078E6E72E71E0F72E9C
:1052B000F80181918F018F3F11F00E94450BE0169C
:1052C000F106B1F786E0E3E6F2E0DF01282F1D9258
:1052D0002A95E9F7E4E2F2E0DF011D928A95E9F709
:1052E0000E944615811102C00E94DC1482E090E009
:1052F0000E94AE3480932F0284E090E00E94AE348E
:10530000182F82E290E00E94AE34982F812F909364
:105310002B0280932A020E940217EFE3FCE93197E7
:10532000F1F700C000000E9402178091630281FF24
:1053300008C06FEF7FEF90E080E00E94E0340E94B1
:10534000D70883E090E00E94AE340E94971883E073
:1053500080935C0280E28093F0030E94B4326DE09F
:1053600070E082E592E00E94B70E892BE9F580910A
:105370005C0263E070E081FD45C28FE492E00E9430
:10538000B70E892B89F56DE070E08FE392E00E9403
:10539000B70E892B49F50E94E808605A75418F4F76
:1053A0009F4F60931A0370931B0380931C03909389
:1053B0001D03E3EFF3E080E092E0DF019C011D922A
:1053C00021503040E1F7F093FA05E093F9058FEFB3
:1053D0009FEF9093F2038093F10381E080931F038A
:1053E00080931E0310925D0280912C02811133C0C4
:1053F0000E944615811104C00E94DC140E94CD1445
:1054000088E090E00E94B6346093BE027093BF02C1
:105410008093C0029093C1026E7F71F40E94CD14FC
:1054200088E090E00E94B6346093BE027093BF02A1
:105430008093C0029093C1020E94710910927D0274
:105440008091BE0280FF04C060E086950E947F16B6
:1054500081E080932C026CE771E048E751E0AAE715
:10546000B1E021E030E08D91E82FE295EF70F0E0BF
:10547000F1A08F70890101C0000F8A95EAF7902F83
:1054800090959F2191A382A1802B82A3FA01819103
:10549000AF01E82FE295EF70F0E0F1A08F70890185
:1054A00001C0000F8A95EAF7902F90959F2191A354
:1054B00082A1802B82A36A177B07A9F68FE891E06F
:1054C0000197F1F700C000008CB186FB882780F9B6
:1054D0001C999BC190E0892B80933A0289B182FB91
:1054E000882780F94B9993C190E0892B80933B02E8
:1054F00084E091E09093CC038093CB0383E692E029
:10550000A6E0A80FAFAB8091EE03853011F560E403
:10551000F62EEE24E39400E112E18091EE03853053
:1055200009F477C11092D8030E949B180E942009A9
:1055300010922E0280912D02882349F08091BE02A4
:1055400081608093BE0260E086950E947F160E9473
:1055500069160E940217382E81110E94E808A3E6FE
:10556000B2E0E0E3F2E010E000E0302F8D91219115
:10557000281709F4A9C190E0FF24F3942827422FAB
:105580004F2109F49CC19BA73CA78F2191E009F40E
:1055900090E09DA70E945D168160782F9FA78EA73F
:1055A0004BA55CA56DA58FA50E947E1DF801E05D51
:1055B000FD4F8081F826F08280912201882301F13D
:1055C0008091C7039091C8030097D1F00E944E16B6
:1055D00020912003309121032817390788F49091F6
:1055E000C5038091C603981709F485C10E94142849
:1055F00010922103109220031092C8031092C70347
:1056000080917D028823D1F190917C02E091BE02CD
:10561000E695E91BE0937802923009F075C1F0E05D
:10562000E859FD4FE4910E2F10E054E4E52E50E1CF
:10563000F52E80917902882361F0109279020E9400
:105640005D16909377028093760210927B021092FF
:105650007A020E945D16E0917602F09177028E1B2D
:105660009F0B8F3F9F4750F4E00FF11FF09377029D
:10567000E093760286E792E0F7010995FAE3CF2EF0
:10568000F2E0DF2E08E312E0A6E3EA2EA2E0FA2E13
:10569000B8E7AB2EB1E0BB2E2AE731E03EAB2DAB35
:1056A000212C812C84E0682E712CD601ED916D01A6
:1056B000EE0FEE0FADA9BEA92D91BEABADABA22FE3
:1056C000A295AF70B0E090968C9190E02F7002C0E0
:1056D000959587952A95E2F781709927D5014D9187
:1056E0005D01A42FA295AF70B0E090962C9130E0B0
:1056F0004F7002C0359527954A95E2F7A901417090
:10570000552720FF02C042E050E0842BE82BD60151
:105710001197EC932801EF70F0E0E859FE4F80817B
:10572000F8019081890F808320E084304CF0D7010C
:105730008C918F5F8C9360E0882D0E946A2021E01D
:10574000F80180818D3F4CF4D7018C9181508C936E
:1057500061E0882D0E946A2021E00F5F1F4FF80151
:105760003197D2018C91082E000C990BB3010E9445
:10577000DB338083222ABFEFEB1AFB0AE1E08E12B3
:10578000F7C021100E94E80880911F03882309F4C4
:1057900040C180E00E940F0780E00E940F078CE765
:1057A00092E00E94720E81E00E940F0786E792E06D
:1057B0000E94720E82E00E940F0781E792E00E9431
:1057C000720E83E00E940F078CE692E00E94720E38
:1057D00086E00E940F078AEB92E00E94B20E809151
:1057E000EF030E94AF0D813009F427C2882309F42A
:1057F000C2C0823009F424C2833009F424C280EA92
:1058000092E0BBC08CE492E0BACD92E064CE92E02C
:105810006CCE8091EE03843009F441C010927D0279
:1058200080912E02811116C0E0922E028091BE025C
:10583000982F917090932D028E7F8093BE02BFEFC0
:10584000E0E7F2E0B150E040F040E1F700C00000D6
:105850000E94AA0F0E94E70E1092CF0328E130E0C9
:105860000FB6F894A895209360000FBEF0926000E8
:1058700083B7817F846083BF83B7816083BF78945F
:10588000889583B78E7F83BF0FB6F894A8958091D3
:105890006000886180936000109260000FBE80916C
:1058A000E403882309F439CE0E940217E3E6F2E00C
:1058B000819181112EC63FA93E13FACF2ECE9F5F54
:1058C000FF0C953009F05BCE0F5F1F4F06301105BE
:1058D00009F04BCE8FEF88AB89AB1AAA0E945D16F8
:1058E0008160782F9CAB8BAB48A959A96AA98CA978
:1058F0000E947E1D61CE0E949D271092C8031092C7
:10590000C7030E945A097CCE963059F4F0E0EB5957
:10591000FD4FE4910E2F10E044E3E42E40E1F42E1D
:1059200088CE993061F4E695F0E0EE59FD4FE491B0
:105930000E2F10E03FEDE32E3FE0F32E7ACE9931AB
:1059400081F48E2F63E00E94CF33E92FF0E0E15A1B
:10595000FD4FE4910E2F10E027E1E22E23E1F22E1D
:1059600068CE00ED17E090E7E92E99E0F92E61CEC0
:10597000882483949ACE85EB92E00E94B20E8FE940
:1059800092E00E94B20E0E942009182F85E992E051
:1059900010FF02C08AE992E00E94B20E8BE892E00A
:1059A00011FF02C080E992E00E94B20E81E892E00D
:1059B00012FF02C086E892E00E94B20E80911F039F
:1059C000882371F02091F1033091F2032115310504
:1059D00039F080915D0261E070E0882309F437C1FD
:1059E00080911E038823A9F00E94E80800911A0301
:1059F00010911B0320911C0330911D03601B710B40
:105A0000820B930B6F3F7F4F8F4F9F4710F40E9485
:105A1000E70E311001C021100E94020F86E0E0E77E
:105A2000F2E08E010F5F1F4FD80101900D928A9511
:105A3000E1F7D0907202C0907302F0907402E0908F
:105A400075021092720210927302109274021092F8
:105A500075028D2D8C2909F448C080916E029091B9
:105A60006F020E944E169C0190916A02992309F4DC
:105A700076C525313105C8F19F3F19F09F5F90939E
:105A80006A02DD2059F00E94BB0A9FEF1D140CF43E
:105A900091E0899F802D112480937202CC2059F0CF
:105AA0000E94BB0A9FEF1C140CF491E0899F802D8B
:105AB000112480937302309172023323B1F020914C
:105AC0007302222391F045EB3403C0011124992382
:105AD00009F487C19093720245EB240390011124CD
